{
	"contracts/Test.sol": {
		"ChangeMe": {
			"abi": [
				{
					"inputs": [
						{
							"internalType": "string",
							"name": "newthing",
							"type": "string"
						}
					],
					"name": "call_it",
					"outputs": [],
					"stateMutability": "nonpayable",
					"type": "function"
				}
			],
			"devdoc": {
				"kind": "dev",
				"methods": {},
				"version": 1
			},
			"evm": {
				"assembly": "    /* \"contracts/Test.sol\":155:183  string thisthing=\"change me\" */\n  0xc0\n    /* \"contracts/Test.sol\":127:295  contract ChangeMe{... */\n  0x40\n    /* \"contracts/Test.sol\":155:183  string thisthing=\"change me\" */\n  mstore\n  0x09\n    /* \"contracts/Test.sol\":127:295  contract ChangeMe{... */\n  0x80\n    /* \"contracts/Test.sol\":155:183  string thisthing=\"change me\" */\n  swap1\n  dup2\n  mstore\n  mstore(0xa0, shl(0xb8, 0x6368616e6765206d65))\n  0x00\n  swap1\n  tag_1\n  swap1\n  dup3\n  tag_2\n  jump\t// in\ntag_1:\n  pop\n    /* \"contracts/Test.sol\":127:295  contract ChangeMe{... */\n  callvalue\n  dup1\n  iszero\n  tag_3\n  jumpi\n  0x00\n  dup1\n  revert\ntag_3:\n  pop\n  jump(tag_10)\n    /* \"#utility.yul\":14:141   */\ntag_5:\n    /* \"#utility.yul\":75:85   */\n  0x4e487b71\n    /* \"#utility.yul\":70:73   */\n  0xe0\n    /* \"#utility.yul\":66:86   */\n  shl\n    /* \"#utility.yul\":63:64   */\n  0x00\n    /* \"#utility.yul\":56:87   */\n  mstore\n    /* \"#utility.yul\":106:110   */\n  0x41\n    /* \"#utility.yul\":103:104   */\n  0x04\n    /* \"#utility.yul\":96:111   */\n  mstore\n    /* \"#utility.yul\":130:134   */\n  0x24\n    /* \"#utility.yul\":127:128   */\n  0x00\n    /* \"#utility.yul\":120:135   */\n  revert\n    /* \"#utility.yul\":146:526   */\ntag_6:\n    /* \"#utility.yul\":225:226   */\n  0x01\n    /* \"#utility.yul\":221:233   */\n  dup2\n  dup2\n  shr\n  swap1\n    /* \"#utility.yul\":268:280   */\n  dup3\n  and\n  dup1\n    /* \"#utility.yul\":289:350   */\n  tag_13\n  jumpi\n    /* \"#utility.yul\":343:347   */\n  0x7f\n    /* \"#utility.yul\":335:341   */\n  dup3\n    /* \"#utility.yul\":331:348   */\n  and\n    /* \"#utility.yul\":321:348   */\n  swap2\n  pop\n    /* \"#utility.yul\":289:350   */\ntag_13:\n    /* \"#utility.yul\":396:398   */\n  0x20\n    /* \"#utility.yul\":388:394   */\n  dup3\n    /* \"#utility.yul\":385:399   */\n  lt\n    /* \"#utility.yul\":365:383   */\n  dup2\n    /* \"#utility.yul\":362:400   */\n  sub\n    /* \"#utility.yul\":359:520   */\n  tag_14\n  jumpi\n    /* \"#utility.yul\":442:452   */\n  0x4e487b71\n    /* \"#utility.yul\":437:440   */\n  0xe0\n    /* \"#utility.yul\":433:453   */\n  shl\n    /* \"#utility.yul\":430:431   */\n  0x00\n    /* \"#utility.yul\":423:454   */\n  mstore\n    /* \"#utility.yul\":477:481   */\n  0x22\n    /* \"#utility.yul\":474:475   */\n  0x04\n    /* \"#utility.yul\":467:482   */\n  mstore\n    /* \"#utility.yul\":505:509   */\n  0x24\n    /* \"#utility.yul\":502:503   */\n  0x00\n    /* \"#utility.yul\":495:510   */\n  revert\n    /* \"#utility.yul\":359:520   */\ntag_14:\n  pop\n    /* \"#utility.yul\":146:526   */\n  swap2\n  swap1\n  pop\n  jump\t// out\n    /* \"#utility.yul\":657:1175   */\ntag_8:\n    /* \"#utility.yul\":759:761   */\n  0x1f\n    /* \"#utility.yul\":754:757   */\n  dup3\n    /* \"#utility.yul\":751:762   */\n  gt\n    /* \"#utility.yul\":748:1169   */\n  iszero\n  tag_17\n  jumpi\n    /* \"#utility.yul\":795:800   */\n  dup1\n    /* \"#utility.yul\":792:793   */\n  0x00\n    /* \"#utility.yul\":785:801   */\n  mstore\n    /* \"#utility.yul\":839:843   */\n  0x20\n    /* \"#utility.yul\":836:837   */\n  0x00\n    /* \"#utility.yul\":826:844   */\n  keccak256\n    /* \"#utility.yul\":909:911   */\n  0x1f\n    /* \"#utility.yul\":897:907   */\n  dup5\n    /* \"#utility.yul\":893:912   */\n  add\n    /* \"#utility.yul\":890:891   */\n  0x05\n    /* \"#utility.yul\":886:913   */\n  shr\n    /* \"#utility.yul\":880:884   */\n  dup2\n    /* \"#utility.yul\":876:914   */\n  add\n    /* \"#utility.yul\":945:949   */\n  0x20\n    /* \"#utility.yul\":933:943   */\n  dup6\n    /* \"#utility.yul\":930:950   */\n  lt\n    /* \"#utility.yul\":927:974   */\n  iszero\n  tag_18\n  jumpi\n  pop\n    /* \"#utility.yul\":968:972   */\n  dup1\n    /* \"#utility.yul\":927:974   */\ntag_18:\n    /* \"#utility.yul\":1023:1025   */\n  0x1f\n    /* \"#utility.yul\":1018:1021   */\n  dup5\n    /* \"#utility.yul\":1014:1026   */\n  add\n    /* \"#utility.yul\":1011:1012   */\n  0x05\n    /* \"#utility.yul\":1007:1027   */\n  shr\n    /* \"#utility.yul\":1001:1005   */\n  dup3\n    /* \"#utility.yul\":997:1028   */\n  add\n    /* \"#utility.yul\":987:1028   */\n  swap2\n  pop\n    /* \"#utility.yul\":1078:1159   */\ntag_19:\n    /* \"#utility.yul\":1096:1098   */\n  dup2\n    /* \"#utility.yul\":1089:1094   */\n  dup2\n    /* \"#utility.yul\":1086:1099   */\n  lt\n    /* \"#utility.yul\":1078:1159   */\n  iszero\n  tag_21\n  jumpi\n    /* \"#utility.yul\":1155:1156   */\n  0x00\n    /* \"#utility.yul\":1141:1157   */\n  dup2\n  sstore\n    /* \"#utility.yul\":1122:1123   */\n  0x01\n    /* \"#utility.yul\":1111:1124   */\n  add\n    /* \"#utility.yul\":1078:1159   */\n  jump(tag_19)\ntag_21:\n    /* \"#utility.yul\":1082:1085   */\n  pop\n  pop\n    /* \"#utility.yul\":748:1169   */\ntag_17:\n    /* \"#utility.yul\":657:1175   */\n  pop\n  pop\n  pop\n  jump\t// out\n    /* \"#utility.yul\":1351:2696   */\ntag_2:\n    /* \"#utility.yul\":1471:1481   */\n  dup2\n  mload\n  sub(shl(0x40, 0x01), 0x01)\n    /* \"#utility.yul\":1493:1523   */\n  dup2\n  gt\n    /* \"#utility.yul\":1490:1546   */\n  iszero\n  tag_25\n  jumpi\n    /* \"#utility.yul\":1526:1544   */\n  tag_25\n  tag_5\n  jump\t// in\ntag_25:\n    /* \"#utility.yul\":1555:1652   */\n  tag_26\n    /* \"#utility.yul\":1645:1651   */\n  dup2\n    /* \"#utility.yul\":1605:1643   */\n  tag_27\n    /* \"#utility.yul\":1637:1641   */\n  dup5\n    /* \"#utility.yul\":1631:1642   */\n  sload\n    /* \"#utility.yul\":1605:1643   */\n  tag_6\n  jump\t// in\ntag_27:\n    /* \"#utility.yul\":1599:1603   */\n  dup5\n    /* \"#utility.yul\":1555:1652   */\n  tag_8\n  jump\t// in\ntag_26:\n    /* \"#utility.yul\":1707:1711   */\n  0x20\n  dup1\n    /* \"#utility.yul\":1764:1766   */\n  0x1f\n    /* \"#utility.yul\":1753:1767   */\n  dup4\n  gt\n    /* \"#utility.yul\":1781:1782   */\n  0x01\n    /* \"#utility.yul\":1776:2439   */\n  dup2\n  eq\n  tag_29\n  jumpi\n    /* \"#utility.yul\":2483:2484   */\n  0x00\n    /* \"#utility.yul\":2500:2506   */\n  dup5\n    /* \"#utility.yul\":2497:2586   */\n  iszero\n  tag_30\n  jumpi\n  pop\n    /* \"#utility.yul\":2552:2571   */\n  dup6\n  dup4\n  add\n    /* \"#utility.yul\":2546:2572   */\n  mload\n    /* \"#utility.yul\":2497:2586   */\ntag_30:\n  not(0x00)\n    /* \"#utility.yul\":1308:1309   */\n  0x03\n    /* \"#utility.yul\":1304:1315   */\n  dup7\n  swap1\n  shl\n    /* \"#utility.yul\":1300:1324   */\n  shr\n    /* \"#utility.yul\":1296:1325   */\n  not\n    /* \"#utility.yul\":1286:1326   */\n  and\n    /* \"#utility.yul\":1332:1333   */\n  0x01\n    /* \"#utility.yul\":1328:1339   */\n  dup6\n  swap1\n  shl\n    /* \"#utility.yul\":1283:1340   */\n  or\n    /* \"#utility.yul\":2599:2680   */\n  dup6\n  sstore\n    /* \"#utility.yul\":1746:2690   */\n  jump(tag_28)\n    /* \"#utility.yul\":1776:2439   */\ntag_29:\n    /* \"#utility.yul\":604:605   */\n  0x00\n    /* \"#utility.yul\":597:611   */\n  dup6\n  dup2\n  mstore\n    /* \"#utility.yul\":641:645   */\n  0x20\n    /* \"#utility.yul\":628:646   */\n  dup2\n  keccak256\n  not(0x1f)\n    /* \"#utility.yul\":1812:1832   */\n  dup7\n  and\n  swap2\n    /* \"#utility.yul\":1930:2166   */\ntag_33:\n    /* \"#utility.yul\":1944:1951   */\n  dup3\n    /* \"#utility.yul\":1941:1942   */\n  dup2\n    /* \"#utility.yul\":1938:1952   */\n  lt\n    /* \"#utility.yul\":1930:2166   */\n  iszero\n  tag_35\n  jumpi\n    /* \"#utility.yul\":2033:2052   */\n  dup9\n  dup7\n  add\n    /* \"#utility.yul\":2027:2053   */\n  mload\n    /* \"#utility.yul\":2012:2054   */\n  dup3\n  sstore\n    /* \"#utility.yul\":2125:2152   */\n  swap5\n  dup5\n  add\n  swap5\n    /* \"#utility.yul\":2093:2094   */\n  0x01\n    /* \"#utility.yul\":2081:2095   */\n  swap1\n  swap2\n  add\n  swap1\n    /* \"#utility.yul\":1960:1979   */\n  dup5\n  add\n    /* \"#utility.yul\":1930:2166   */\n  jump(tag_33)\ntag_35:\n    /* \"#utility.yul\":1934:1937   */\n  pop\n    /* \"#utility.yul\":2194:2200   */\n  dup6\n    /* \"#utility.yul\":2185:2192   */\n  dup3\n    /* \"#utility.yul\":2182:2201   */\n  lt\n    /* \"#utility.yul\":2179:2380   */\n  iszero\n  tag_36\n  jumpi\n    /* \"#utility.yul\":2255:2274   */\n  dup8\n  dup6\n  add\n    /* \"#utility.yul\":2249:2275   */\n  mload\n  not(0x00)\n    /* \"#utility.yul\":2338:2339   */\n  0x03\n    /* \"#utility.yul\":2334:2348   */\n  dup9\n  swap1\n  shl\n    /* \"#utility.yul\":2350:2353   */\n  0xf8\n    /* \"#utility.yul\":2330:2354   */\n  and\n    /* \"#utility.yul\":2326:2363   */\n  shr\n    /* \"#utility.yul\":2322:2364   */\n  not\n    /* \"#utility.yul\":2307:2365   */\n  and\n    /* \"#utility.yul\":2292:2366   */\n  dup2\n  sstore\n    /* \"#utility.yul\":2179:2380   */\ntag_36:\n  pop\n  pop\n    /* \"#utility.yul\":2426:2427   */\n  0x01\n    /* \"#utility.yul\":2417:2423   */\n  dup5\n    /* \"#utility.yul\":2414:2415   */\n  0x01\n    /* \"#utility.yul\":2410:2424   */\n  shl\n    /* \"#utility.yul\":2406:2428   */\n  add\n    /* \"#utility.yul\":2400:2404   */\n  dup6\n    /* \"#utility.yul\":2393:2429   */\n  sstore\n    /* \"#utility.yul\":1746:2690   */\ntag_28:\n  pop\n  pop\n  pop\n  pop\n    /* \"#utility.yul\":1351:2696   */\n  pop\n  pop\n  jump\t// out\ntag_10:\n    /* \"contracts/Test.sol\":127:295  contract ChangeMe{... */\n  dataSize(sub_0)\n  dup1\n  dataOffset(sub_0)\n  0x00\n  codecopy\n  0x00\n  return\nstop\n\nsub_0: assembly {\n        /* \"contracts/Test.sol\":127:295  contract ChangeMe{... */\n      mstore(0x40, 0x80)\n      callvalue\n      dup1\n      iszero\n      tag_1\n      jumpi\n      0x00\n      dup1\n      revert\n    tag_1:\n      pop\n      jumpi(tag_2, lt(calldatasize, 0x04))\n      shr(0xe0, calldataload(0x00))\n      dup1\n      0x31ae45\n      eq\n      tag_3\n      jumpi\n    tag_2:\n      0x00\n      dup1\n      revert\n        /* \"contracts/Test.sol\":196:288  function call_it(string memory newthing)public {... */\n    tag_3:\n      tag_4\n      tag_5\n      calldatasize\n      0x04\n      tag_6\n      jump\t// in\n    tag_5:\n      tag_7\n      jump\t// in\n    tag_4:\n      stop\n    tag_7:\n        /* \"contracts/Test.sol\":258:267  thisthing */\n      0x00\n        /* \"contracts/Test.sol\":258:276  thisthing=newthing */\n      tag_9\n        /* \"contracts/Test.sol\":268:276  newthing */\n      dup3\n        /* \"contracts/Test.sol\":258:267  thisthing */\n      dup3\n        /* \"contracts/Test.sol\":258:276  thisthing=newthing */\n      tag_10\n      jump\t// in\n    tag_9:\n      pop\n        /* \"contracts/Test.sol\":196:288  function call_it(string memory newthing)public {... */\n      pop\n      jump\t// out\n        /* \"#utility.yul\":14:141   */\n    tag_11:\n        /* \"#utility.yul\":75:85   */\n      0x4e487b71\n        /* \"#utility.yul\":70:73   */\n      0xe0\n        /* \"#utility.yul\":66:86   */\n      shl\n        /* \"#utility.yul\":63:64   */\n      0x00\n        /* \"#utility.yul\":56:87   */\n      mstore\n        /* \"#utility.yul\":106:110   */\n      0x41\n        /* \"#utility.yul\":103:104   */\n      0x04\n        /* \"#utility.yul\":96:111   */\n      mstore\n        /* \"#utility.yul\":130:134   */\n      0x24\n        /* \"#utility.yul\":127:128   */\n      0x00\n        /* \"#utility.yul\":120:135   */\n      revert\n        /* \"#utility.yul\":146:1068   */\n    tag_6:\n        /* \"#utility.yul\":215:221   */\n      0x00\n        /* \"#utility.yul\":268:270   */\n      0x20\n        /* \"#utility.yul\":256:265   */\n      dup3\n        /* \"#utility.yul\":247:254   */\n      dup5\n        /* \"#utility.yul\":243:266   */\n      sub\n        /* \"#utility.yul\":239:271   */\n      slt\n        /* \"#utility.yul\":236:288   */\n      iszero\n      tag_19\n      jumpi\n        /* \"#utility.yul\":284:285   */\n      0x00\n        /* \"#utility.yul\":281:282   */\n      dup1\n        /* \"#utility.yul\":274:286   */\n      revert\n        /* \"#utility.yul\":236:288   */\n    tag_19:\n        /* \"#utility.yul\":324:333   */\n      dup2\n        /* \"#utility.yul\":311:334   */\n      calldataload\n        /* \"#utility.yul\":353:371   */\n      0xffffffffffffffff\n        /* \"#utility.yul\":394:396   */\n      dup1\n        /* \"#utility.yul\":386:392   */\n      dup3\n        /* \"#utility.yul\":383:397   */\n      gt\n        /* \"#utility.yul\":380:414   */\n      iszero\n      tag_20\n      jumpi\n        /* \"#utility.yul\":410:411   */\n      0x00\n        /* \"#utility.yul\":407:408   */\n      dup1\n        /* \"#utility.yul\":400:412   */\n      revert\n        /* \"#utility.yul\":380:414   */\n    tag_20:\n        /* \"#utility.yul\":448:454   */\n      dup2\n        /* \"#utility.yul\":437:446   */\n      dup5\n        /* \"#utility.yul\":433:455   */\n      add\n        /* \"#utility.yul\":423:455   */\n      swap2\n      pop\n        /* \"#utility.yul\":493:500   */\n      dup5\n        /* \"#utility.yul\":486:490   */\n      0x1f\n        /* \"#utility.yul\":482:484   */\n      dup4\n        /* \"#utility.yul\":478:491   */\n      add\n        /* \"#utility.yul\":474:501   */\n      slt\n        /* \"#utility.yul\":464:519   */\n      tag_21\n      jumpi\n        /* \"#utility.yul\":515:516   */\n      0x00\n        /* \"#utility.yul\":512:513   */\n      dup1\n        /* \"#utility.yul\":505:517   */\n      revert\n        /* \"#utility.yul\":464:519   */\n    tag_21:\n        /* \"#utility.yul\":551:553   */\n      dup2\n        /* \"#utility.yul\":538:554   */\n      calldataload\n        /* \"#utility.yul\":573:575   */\n      dup2\n        /* \"#utility.yul\":569:571   */\n      dup2\n        /* \"#utility.yul\":566:576   */\n      gt\n        /* \"#utility.yul\":563:599   */\n      iszero\n      tag_23\n      jumpi\n        /* \"#utility.yul\":579:597   */\n      tag_23\n      tag_11\n      jump\t// in\n    tag_23:\n        /* \"#utility.yul\":654:656   */\n      0x40\n        /* \"#utility.yul\":648:657   */\n      mload\n        /* \"#utility.yul\":622:624   */\n      0x1f\n        /* \"#utility.yul\":708:721   */\n      dup3\n      add\n      not(0x1f)\n        /* \"#utility.yul\":704:726   */\n      swap1\n      dup2\n      and\n        /* \"#utility.yul\":728:730   */\n      0x3f\n        /* \"#utility.yul\":700:731   */\n      add\n        /* \"#utility.yul\":696:736   */\n      and\n        /* \"#utility.yul\":684:737   */\n      dup2\n      add\n      swap1\n        /* \"#utility.yul\":752:770   */\n      dup4\n      dup3\n      gt\n        /* \"#utility.yul\":772:794   */\n      dup2\n      dup4\n      lt\n        /* \"#utility.yul\":749:795   */\n      or\n        /* \"#utility.yul\":746:818   */\n      iszero\n      tag_25\n      jumpi\n        /* \"#utility.yul\":798:816   */\n      tag_25\n      tag_11\n      jump\t// in\n    tag_25:\n        /* \"#utility.yul\":838:848   */\n      dup2\n        /* \"#utility.yul\":834:836   */\n      0x40\n        /* \"#utility.yul\":827:849   */\n      mstore\n        /* \"#utility.yul\":873:875   */\n      dup3\n        /* \"#utility.yul\":865:871   */\n      dup2\n        /* \"#utility.yul\":858:876   */\n      mstore\n        /* \"#utility.yul\":913:920   */\n      dup8\n        /* \"#utility.yul\":908:910   */\n      0x20\n        /* \"#utility.yul\":903:905   */\n      dup5\n        /* \"#utility.yul\":899:901   */\n      dup8\n        /* \"#utility.yul\":895:906   */\n      add\n        /* \"#utility.yul\":891:911   */\n      add\n        /* \"#utility.yul\":888:921   */\n      gt\n        /* \"#utility.yul\":885:938   */\n      iszero\n      tag_26\n      jumpi\n        /* \"#utility.yul\":934:935   */\n      0x00\n        /* \"#utility.yul\":931:932   */\n      dup1\n        /* \"#utility.yul\":924:936   */\n      revert\n        /* \"#utility.yul\":885:938   */\n    tag_26:\n        /* \"#utility.yul\":990:992   */\n      dup3\n        /* \"#utility.yul\":985:987   */\n      0x20\n        /* \"#utility.yul\":981:983   */\n      dup7\n        /* \"#utility.yul\":977:988   */\n      add\n        /* \"#utility.yul\":972:974   */\n      0x20\n        /* \"#utility.yul\":964:970   */\n      dup4\n        /* \"#utility.yul\":960:975   */\n      add\n        /* \"#utility.yul\":947:993   */\n      calldatacopy\n        /* \"#utility.yul\":1035:1036   */\n      0x00\n        /* \"#utility.yul\":1013:1028   */\n      swap3\n      dup2\n      add\n        /* \"#utility.yul\":1030:1032   */\n      0x20\n        /* \"#utility.yul\":1009:1033   */\n      add\n        /* \"#utility.yul\":1002:1037   */\n      swap3\n      swap1\n      swap3\n      mstore\n      pop\n        /* \"#utility.yul\":1017:1023   */\n      swap6\n        /* \"#utility.yul\":146:1068   */\n      swap5\n      pop\n      pop\n      pop\n      pop\n      pop\n      jump\t// out\n        /* \"#utility.yul\":1073:1453   */\n    tag_12:\n        /* \"#utility.yul\":1152:1153   */\n      0x01\n        /* \"#utility.yul\":1148:1160   */\n      dup2\n      dup2\n      shr\n      swap1\n        /* \"#utility.yul\":1195:1207   */\n      dup3\n      and\n      dup1\n        /* \"#utility.yul\":1216:1277   */\n      tag_28\n      jumpi\n        /* \"#utility.yul\":1270:1274   */\n      0x7f\n        /* \"#utility.yul\":1262:1268   */\n      dup3\n        /* \"#utility.yul\":1258:1275   */\n      and\n        /* \"#utility.yul\":1248:1275   */\n      swap2\n      pop\n        /* \"#utility.yul\":1216:1277   */\n    tag_28:\n        /* \"#utility.yul\":1323:1325   */\n      0x20\n        /* \"#utility.yul\":1315:1321   */\n      dup3\n        /* \"#utility.yul\":1312:1326   */\n      lt\n        /* \"#utility.yul\":1292:1310   */\n      dup2\n        /* \"#utility.yul\":1289:1327   */\n      sub\n        /* \"#utility.yul\":1286:1447   */\n      tag_29\n      jumpi\n        /* \"#utility.yul\":1369:1379   */\n      0x4e487b71\n        /* \"#utility.yul\":1364:1367   */\n      0xe0\n        /* \"#utility.yul\":1360:1380   */\n      shl\n        /* \"#utility.yul\":1357:1358   */\n      0x00\n        /* \"#utility.yul\":1350:1381   */\n      mstore\n        /* \"#utility.yul\":1404:1408   */\n      0x22\n        /* \"#utility.yul\":1401:1402   */\n      0x04\n        /* \"#utility.yul\":1394:1409   */\n      mstore\n        /* \"#utility.yul\":1432:1436   */\n      0x24\n        /* \"#utility.yul\":1429:1430   */\n      0x00\n        /* \"#utility.yul\":1422:1437   */\n      revert\n        /* \"#utility.yul\":1286:1447   */\n    tag_29:\n      pop\n        /* \"#utility.yul\":1073:1453   */\n      swap2\n      swap1\n      pop\n      jump\t// out\n        /* \"#utility.yul\":1584:2102   */\n    tag_14:\n        /* \"#utility.yul\":1686:1688   */\n      0x1f\n        /* \"#utility.yul\":1681:1684   */\n      dup3\n        /* \"#utility.yul\":1678:1689   */\n      gt\n        /* \"#utility.yul\":1675:2096   */\n      iszero\n      tag_32\n      jumpi\n        /* \"#utility.yul\":1722:1727   */\n      dup1\n        /* \"#utility.yul\":1719:1720   */\n      0x00\n        /* \"#utility.yul\":1712:1728   */\n      mstore\n        /* \"#utility.yul\":1766:1770   */\n      0x20\n        /* \"#utility.yul\":1763:1764   */\n      0x00\n        /* \"#utility.yul\":1753:1771   */\n      keccak256\n        /* \"#utility.yul\":1836:1838   */\n      0x1f\n        /* \"#utility.yul\":1824:1834   */\n      dup5\n        /* \"#utility.yul\":1820:1839   */\n      add\n        /* \"#utility.yul\":1817:1818   */\n      0x05\n        /* \"#utility.yul\":1813:1840   */\n      shr\n        /* \"#utility.yul\":1807:1811   */\n      dup2\n        /* \"#utility.yul\":1803:1841   */\n      add\n        /* \"#utility.yul\":1872:1876   */\n      0x20\n        /* \"#utility.yul\":1860:1870   */\n      dup6\n        /* \"#utility.yul\":1857:1877   */\n      lt\n        /* \"#utility.yul\":1854:1901   */\n      iszero\n      tag_33\n      jumpi\n      pop\n        /* \"#utility.yul\":1895:1899   */\n      dup1\n        /* \"#utility.yul\":1854:1901   */\n    tag_33:\n        /* \"#utility.yul\":1950:1952   */\n      0x1f\n        /* \"#utility.yul\":1945:1948   */\n      dup5\n        /* \"#utility.yul\":1941:1953   */\n      add\n        /* \"#utility.yul\":1938:1939   */\n      0x05\n        /* \"#utility.yul\":1934:1954   */\n      shr\n        /* \"#utility.yul\":1928:1932   */\n      dup3\n        /* \"#utility.yul\":1924:1955   */\n      add\n        /* \"#utility.yul\":1914:1955   */\n      swap2\n      pop\n        /* \"#utility.yul\":2005:2086   */\n    tag_34:\n        /* \"#utility.yul\":2023:2025   */\n      dup2\n        /* \"#utility.yul\":2016:2021   */\n      dup2\n        /* \"#utility.yul\":2013:2026   */\n      lt\n        /* \"#utility.yul\":2005:2086   */\n      iszero\n      tag_36\n      jumpi\n        /* \"#utility.yul\":2082:2083   */\n      0x00\n        /* \"#utility.yul\":2068:2084   */\n      dup2\n      sstore\n        /* \"#utility.yul\":2049:2050   */\n      0x01\n        /* \"#utility.yul\":2038:2051   */\n      add\n        /* \"#utility.yul\":2005:2086   */\n      jump(tag_34)\n    tag_36:\n        /* \"#utility.yul\":2009:2012   */\n      pop\n      pop\n        /* \"#utility.yul\":1675:2096   */\n    tag_32:\n        /* \"#utility.yul\":1584:2102   */\n      pop\n      pop\n      pop\n      jump\t// out\n        /* \"#utility.yul\":2278:3623   */\n    tag_10:\n        /* \"#utility.yul\":2404:2407   */\n      dup2\n        /* \"#utility.yul\":2398:2408   */\n      mload\n        /* \"#utility.yul\":2431:2449   */\n      0xffffffffffffffff\n        /* \"#utility.yul\":2423:2429   */\n      dup2\n        /* \"#utility.yul\":2420:2450   */\n      gt\n        /* \"#utility.yul\":2417:2473   */\n      iszero\n      tag_40\n      jumpi\n        /* \"#utility.yul\":2453:2471   */\n      tag_40\n      tag_11\n      jump\t// in\n    tag_40:\n        /* \"#utility.yul\":2482:2579   */\n      tag_41\n        /* \"#utility.yul\":2572:2578   */\n      dup2\n        /* \"#utility.yul\":2532:2570   */\n      tag_42\n        /* \"#utility.yul\":2564:2568   */\n      dup5\n        /* \"#utility.yul\":2558:2569   */\n      sload\n        /* \"#utility.yul\":2532:2570   */\n      tag_12\n      jump\t// in\n    tag_42:\n        /* \"#utility.yul\":2526:2530   */\n      dup5\n        /* \"#utility.yul\":2482:2579   */\n      tag_14\n      jump\t// in\n    tag_41:\n        /* \"#utility.yul\":2634:2638   */\n      0x20\n      dup1\n        /* \"#utility.yul\":2691:2693   */\n      0x1f\n        /* \"#utility.yul\":2680:2694   */\n      dup4\n      gt\n        /* \"#utility.yul\":2708:2709   */\n      0x01\n        /* \"#utility.yul\":2703:3366   */\n      dup2\n      eq\n      tag_44\n      jumpi\n        /* \"#utility.yul\":3410:3411   */\n      0x00\n        /* \"#utility.yul\":3427:3433   */\n      dup5\n        /* \"#utility.yul\":3424:3513   */\n      iszero\n      tag_45\n      jumpi\n      pop\n        /* \"#utility.yul\":3479:3498   */\n      dup6\n      dup4\n      add\n        /* \"#utility.yul\":3473:3499   */\n      mload\n        /* \"#utility.yul\":3424:3513   */\n    tag_45:\n      not(0x00)\n        /* \"#utility.yul\":2235:2236   */\n      0x03\n        /* \"#utility.yul\":2231:2242   */\n      dup7\n      swap1\n      shl\n        /* \"#utility.yul\":2227:2251   */\n      shr\n        /* \"#utility.yul\":2223:2252   */\n      not\n        /* \"#utility.yul\":2213:2253   */\n      and\n        /* \"#utility.yul\":2259:2260   */\n      0x01\n        /* \"#utility.yul\":2255:2266   */\n      dup6\n      swap1\n      shl\n        /* \"#utility.yul\":2210:2267   */\n      or\n        /* \"#utility.yul\":3526:3607   */\n      dup6\n      sstore\n        /* \"#utility.yul\":2673:3617   */\n      jump(tag_43)\n        /* \"#utility.yul\":2703:3366   */\n    tag_44:\n        /* \"#utility.yul\":1531:1532   */\n      0x00\n        /* \"#utility.yul\":1524:1538   */\n      dup6\n      dup2\n      mstore\n        /* \"#utility.yul\":1568:1572   */\n      0x20\n        /* \"#utility.yul\":1555:1573   */\n      dup2\n      keccak256\n      not(0x1f)\n        /* \"#utility.yul\":2739:2759   */\n      dup7\n      and\n      swap2\n        /* \"#utility.yul\":2857:3093   */\n    tag_48:\n        /* \"#utility.yul\":2871:2878   */\n      dup3\n        /* \"#utility.yul\":2868:2869   */\n      dup2\n        /* \"#utility.yul\":2865:2879   */\n      lt\n        /* \"#utility.yul\":2857:3093   */\n      iszero\n      tag_50\n      jumpi\n        /* \"#utility.yul\":2960:2979   */\n      dup9\n      dup7\n      add\n        /* \"#utility.yul\":2954:2980   */\n      mload\n        /* \"#utility.yul\":2939:2981   */\n      dup3\n      sstore\n        /* \"#utility.yul\":3052:3079   */\n      swap5\n      dup5\n      add\n      swap5\n        /* \"#utility.yul\":3020:3021   */\n      0x01\n        /* \"#utility.yul\":3008:3022   */\n      swap1\n      swap2\n      add\n      swap1\n        /* \"#utility.yul\":2887:2906   */\n      dup5\n      add\n        /* \"#utility.yul\":2857:3093   */\n      jump(tag_48)\n    tag_50:\n        /* \"#utility.yul\":2861:2864   */\n      pop\n        /* \"#utility.yul\":3121:3127   */\n      dup6\n        /* \"#utility.yul\":3112:3119   */\n      dup3\n        /* \"#utility.yul\":3109:3128   */\n      lt\n        /* \"#utility.yul\":3106:3307   */\n      iszero\n      tag_51\n      jumpi\n        /* \"#utility.yul\":3182:3201   */\n      dup8\n      dup6\n      add\n        /* \"#utility.yul\":3176:3202   */\n      mload\n      not(0x00)\n        /* \"#utility.yul\":3265:3266   */\n      0x03\n        /* \"#utility.yul\":3261:3275   */\n      dup9\n      swap1\n      shl\n        /* \"#utility.yul\":3277:3280   */\n      0xf8\n        /* \"#utility.yul\":3257:3281   */\n      and\n        /* \"#utility.yul\":3253:3290   */\n      shr\n        /* \"#utility.yul\":3249:3291   */\n      not\n        /* \"#utility.yul\":3234:3292   */\n      and\n        /* \"#utility.yul\":3219:3293   */\n      dup2\n      sstore\n        /* \"#utility.yul\":3106:3307   */\n    tag_51:\n      pop\n      pop\n        /* \"#utility.yul\":3353:3354   */\n      0x01\n        /* \"#utility.yul\":3344:3350   */\n      dup5\n        /* \"#utility.yul\":3341:3342   */\n      0x01\n        /* \"#utility.yul\":3337:3351   */\n      shl\n        /* \"#utility.yul\":3333:3355   */\n      add\n        /* \"#utility.yul\":3327:3331   */\n      dup6\n        /* \"#utility.yul\":3320:3356   */\n      sstore\n        /* \"#utility.yul\":2673:3617   */\n    tag_43:\n      pop\n      pop\n      pop\n      pop\n        /* \"#utility.yul\":2278:3623   */\n      pop\n      pop\n      jump\t// out\n\n    auxdata: 0xa2646970667358221220ebef37b17189ad896b077eba7af13d8274f11ecec08e28c4de83a69a2fb3731064736f6c63430008180033\n}\n",
				"bytecode": {
					"linkReferences": {},
					"object": "60c060405260096080908152686368616e6765206d6560b81b60a0525f9061002790826100d1565b50348015610033575f80fd5b50610190565b634e487b7160e01b5f52604160045260245ffd5b600181811c9082168061006157607f821691505b60208210810361007f57634e487b7160e01b5f52602260045260245ffd5b50919050565b601f8211156100cc57805f5260205f20601f840160051c810160208510156100aa5750805b601f840160051c820191505b818110156100c9575f81556001016100b6565b50505b505050565b81516001600160401b038111156100ea576100ea610039565b6100fe816100f8845461004d565b84610085565b602080601f831160018114610131575f841561011a5750858301515b5f19600386901b1c1916600185901b178555610188565b5f85815260208120601f198616915b8281101561015f57888601518255948401946001909101908401610140565b508582101561017c57878501515f19600388901b60f8161c191681555b505060018460011b0185555b505050505050565b6102898061019d5f395ff3fe608060405234801561000f575f80fd5b5060043610610028575f3560e01c806231ae451461002c575b5f80fd5b61003f61003a366004610064565b610041565b005b5f61004c8282610193565b5050565b634e487b7160e01b5f52604160045260245ffd5b5f60208284031215610074575f80fd5b813567ffffffffffffffff8082111561008b575f80fd5b818401915084601f83011261009e575f80fd5b8135818111156100b0576100b0610050565b604051601f8201601f19908116603f011681019083821181831017156100d8576100d8610050565b816040528281528760208487010111156100f0575f80fd5b826020860160208301375f928101602001929092525095945050505050565b600181811c9082168061012357607f821691505b60208210810361014157634e487b7160e01b5f52602260045260245ffd5b50919050565b601f82111561018e57805f5260205f20601f840160051c8101602085101561016c5750805b601f840160051c820191505b8181101561018b575f8155600101610178565b50505b505050565b815167ffffffffffffffff8111156101ad576101ad610050565b6101c1816101bb845461010f565b84610147565b602080601f8311600181146101f4575f84156101dd5750858301515b5f19600386901b1c1916600185901b17855561024b565b5f85815260208120601f198616915b8281101561022257888601518255948401946001909101908401610203565b508582101561023f57878501515f19600388901b60f8161c191681555b505060018460011b0185555b50505050505056fea2646970667358221220ebef37b17189ad896b077eba7af13d8274f11ecec08e28c4de83a69a2fb3731064736f6c63430008180033",
					"opcodes": "PUSH1 0xC0 PUSH1 0x40 MSTORE PUSH1 0x9 PUSH1 0x80 SWAP1 DUP2 MSTORE PUSH9 0x6368616E6765206D65 PUSH1 0xB8 SHL PUSH1 0xA0 MSTORE PUSH0 SWAP1 PUSH2 0x27 SWAP1 DUP3 PUSH2 0xD1 JUMP JUMPDEST POP CALLVALUE DUP1 ISZERO PUSH2 0x33 JUMPI PUSH0 DUP1 REVERT JUMPDEST POP PUSH2 0x190 JUMP JUMPDEST PUSH4 0x4E487B71 PUSH1 0xE0 SHL PUSH0 MSTORE PUSH1 0x41 PUSH1 0x4 MSTORE PUSH1 0x24 PUSH0 REVERT JUMPDEST PUSH1 0x1 DUP2 DUP2 SHR SWAP1 DUP3 AND DUP1 PUSH2 0x61 JUMPI PUSH1 0x7F DUP3 AND SWAP2 POP JUMPDEST PUSH1 0x20 DUP3 LT DUP2 SUB PUSH2 0x7F JUMPI PUSH4 0x4E487B71 PUSH1 0xE0 SHL PUSH0 MSTORE PUSH1 0x22 PUSH1 0x4 MSTORE PUSH1 0x24 PUSH0 REVERT JUMPDEST POP SWAP2 SWAP1 POP JUMP JUMPDEST PUSH1 0x1F DUP3 GT ISZERO PUSH2 0xCC JUMPI DUP1 PUSH0 MSTORE PUSH1 0x20 PUSH0 KECCAK256 PUSH1 0x1F DUP5 ADD PUSH1 0x5 SHR DUP2 ADD PUSH1 0x20 DUP6 LT ISZERO PUSH2 0xAA JUMPI POP DUP1 JUMPDEST PUSH1 0x1F DUP5 ADD PUSH1 0x5 SHR DUP3 ADD SWAP2 POP JUMPDEST DUP2 DUP2 LT ISZERO PUSH2 0xC9 JUMPI PUSH0 DUP2 SSTORE PUSH1 0x1 ADD PUSH2 0xB6 JUMP JUMPDEST POP POP JUMPDEST POP POP POP JUMP JUMPDEST DUP2 MLOAD PUSH1 0x1 PUSH1 0x1 PUSH1 0x40 SHL SUB DUP2 GT ISZERO PUSH2 0xEA JUMPI PUSH2 0xEA PUSH2 0x39 JUMP JUMPDEST PUSH2 0xFE DUP2 PUSH2 0xF8 DUP5 SLOAD PUSH2 0x4D JUMP JUMPDEST DUP5 PUSH2 0x85 JUMP JUMPDEST PUSH1 0x20 DUP1 PUSH1 0x1F DUP4 GT PUSH1 0x1 DUP2 EQ PUSH2 0x131 JUMPI PUSH0 DUP5 ISZERO PUSH2 0x11A JUMPI POP DUP6 DUP4 ADD MLOAD JUMPDEST PUSH0 NOT PUSH1 0x3 DUP7 SWAP1 SHL SHR NOT AND PUSH1 0x1 DUP6 SWAP1 SHL OR DUP6 SSTORE PUSH2 0x188 JUMP JUMPDEST PUSH0 DUP6 DUP2 MSTORE PUSH1 0x20 DUP2 KECCAK256 PUSH1 0x1F NOT DUP7 AND SWAP2 JUMPDEST DUP3 DUP2 LT ISZERO PUSH2 0x15F JUMPI DUP9 DUP7 ADD MLOAD DUP3 SSTORE SWAP5 DUP5 ADD SWAP5 PUSH1 0x1 SWAP1 SWAP2 ADD SWAP1 DUP5 ADD PUSH2 0x140 JUMP JUMPDEST POP DUP6 DUP3 LT ISZERO PUSH2 0x17C JUMPI DUP8 DUP6 ADD MLOAD PUSH0 NOT PUSH1 0x3 DUP9 SWAP1 SHL PUSH1 0xF8 AND SHR NOT AND DUP2 SSTORE JUMPDEST POP POP PUSH1 0x1 DUP5 PUSH1 0x1 SHL ADD DUP6 SSTORE JUMPDEST POP POP POP POP POP POP JUMP JUMPDEST PUSH2 0x289 DUP1 PUSH2 0x19D PUSH0 CODECOPY PUSH0 RETURN INVALID PUSH1 0x80 PUSH1 0x40 MSTORE CALLVALUE DUP1 ISZERO PUSH2 0xF JUMPI PUSH0 DUP1 REVERT JUMPDEST POP PUSH1 0x4 CALLDATASIZE LT PUSH2 0x28 JUMPI PUSH0 CALLDATALOAD PUSH1 0xE0 SHR DUP1 PUSH3 0x31AE45 EQ PUSH2 0x2C JUMPI JUMPDEST PUSH0 DUP1 REVERT JUMPDEST PUSH2 0x3F PUSH2 0x3A CALLDATASIZE PUSH1 0x4 PUSH2 0x64 JUMP JUMPDEST PUSH2 0x41 JUMP JUMPDEST STOP JUMPDEST PUSH0 PUSH2 0x4C DUP3 DUP3 PUSH2 0x193 JUMP JUMPDEST POP POP JUMP JUMPDEST PUSH4 0x4E487B71 PUSH1 0xE0 SHL PUSH0 MSTORE PUSH1 0x41 PUSH1 0x4 MSTORE PUSH1 0x24 PUSH0 REVERT JUMPDEST PUSH0 PUSH1 0x20 DUP3 DUP5 SUB SLT ISZERO PUSH2 0x74 JUMPI PUSH0 DUP1 REVERT JUMPDEST DUP2 CALLDATALOAD PUSH8 0xFFFFFFFFFFFFFFFF DUP1 DUP3 GT ISZERO PUSH2 0x8B JUMPI PUSH0 DUP1 REVERT JUMPDEST DUP2 DUP5 ADD SWAP2 POP DUP5 PUSH1 0x1F DUP4 ADD SLT PUSH2 0x9E JUMPI PUSH0 DUP1 REVERT JUMPDEST DUP2 CALLDATALOAD DUP2 DUP2 GT ISZERO PUSH2 0xB0 JUMPI PUSH2 0xB0 PUSH2 0x50 JUMP JUMPDEST PUSH1 0x40 MLOAD PUSH1 0x1F DUP3 ADD PUSH1 0x1F NOT SWAP1 DUP2 AND PUSH1 0x3F ADD AND DUP2 ADD SWAP1 DUP4 DUP3 GT DUP2 DUP4 LT OR ISZERO PUSH2 0xD8 JUMPI PUSH2 0xD8 PUSH2 0x50 JUMP JUMPDEST DUP2 PUSH1 0x40 MSTORE DUP3 DUP2 MSTORE DUP8 PUSH1 0x20 DUP5 DUP8 ADD ADD GT ISZERO PUSH2 0xF0 JUMPI PUSH0 DUP1 REVERT JUMPDEST DUP3 PUSH1 0x20 DUP7 ADD PUSH1 0x20 DUP4 ADD CALLDATACOPY PUSH0 SWAP3 DUP2 ADD PUSH1 0x20 ADD SWAP3 SWAP1 SWAP3 MSTORE POP SWAP6 SWAP5 POP POP POP POP POP JUMP JUMPDEST PUSH1 0x1 DUP2 DUP2 SHR SWAP1 DUP3 AND DUP1 PUSH2 0x123 JUMPI PUSH1 0x7F DUP3 AND SWAP2 POP JUMPDEST PUSH1 0x20 DUP3 LT DUP2 SUB PUSH2 0x141 JUMPI PUSH4 0x4E487B71 PUSH1 0xE0 SHL PUSH0 MSTORE PUSH1 0x22 PUSH1 0x4 MSTORE PUSH1 0x24 PUSH0 REVERT JUMPDEST POP SWAP2 SWAP1 POP JUMP JUMPDEST PUSH1 0x1F DUP3 GT ISZERO PUSH2 0x18E JUMPI DUP1 PUSH0 MSTORE PUSH1 0x20 PUSH0 KECCAK256 PUSH1 0x1F DUP5 ADD PUSH1 0x5 SHR DUP2 ADD PUSH1 0x20 DUP6 LT ISZERO PUSH2 0x16C JUMPI POP DUP1 JUMPDEST PUSH1 0x1F DUP5 ADD PUSH1 0x5 SHR DUP3 ADD SWAP2 POP JUMPDEST DUP2 DUP2 LT ISZERO PUSH2 0x18B JUMPI PUSH0 DUP2 SSTORE PUSH1 0x1 ADD PUSH2 0x178 JUMP JUMPDEST POP POP JUMPDEST POP POP POP JUMP JUMPDEST DUP2 MLOAD PUSH8 0xFFFFFFFFFFFFFFFF DUP2 GT ISZERO PUSH2 0x1AD JUMPI PUSH2 0x1AD PUSH2 0x50 JUMP JUMPDEST PUSH2 0x1C1 DUP2 PUSH2 0x1BB DUP5 SLOAD PUSH2 0x10F JUMP JUMPDEST DUP5 PUSH2 0x147 JUMP JUMPDEST PUSH1 0x20 DUP1 PUSH1 0x1F DUP4 GT PUSH1 0x1 DUP2 EQ PUSH2 0x1F4 JUMPI PUSH0 DUP5 ISZERO PUSH2 0x1DD JUMPI POP DUP6 DUP4 ADD MLOAD JUMPDEST PUSH0 NOT PUSH1 0x3 DUP7 SWAP1 SHL SHR NOT AND PUSH1 0x1 DUP6 SWAP1 SHL OR DUP6 SSTORE PUSH2 0x24B JUMP JUMPDEST PUSH0 DUP6 DUP2 MSTORE PUSH1 0x20 DUP2 KECCAK256 PUSH1 0x1F NOT DUP7 AND SWAP2 JUMPDEST DUP3 DUP2 LT ISZERO PUSH2 0x222 JUMPI DUP9 DUP7 ADD MLOAD DUP3 SSTORE SWAP5 DUP5 ADD SWAP5 PUSH1 0x1 SWAP1 SWAP2 ADD SWAP1 DUP5 ADD PUSH2 0x203 JUMP JUMPDEST POP DUP6 DUP3 LT ISZERO PUSH2 0x23F JUMPI DUP8 DUP6 ADD MLOAD PUSH0 NOT PUSH1 0x3 DUP9 SWAP1 SHL PUSH1 0xF8 AND SHR NOT AND DUP2 SSTORE JUMPDEST POP POP PUSH1 0x1 DUP5 PUSH1 0x1 SHL ADD DUP6 SSTORE JUMPDEST POP POP POP POP POP POP JUMP INVALID LOG2 PUSH5 0x6970667358 0x22 SLT KECCAK256 0xEB 0xEF CALLDATACOPY 0xB1 PUSH18 0x89AD896B077EBA7AF13D8274F11ECEC08E28 0xC4 0xDE DUP4 0xA6 SWAP11 0x2F 0xB3 PUSH20 0x1064736F6C634300081800330000000000000000 "
				},
				"gasEstimates": {
					"creation": {
						"codeDepositCost": "129800",
						"executionCost": "infinite",
						"totalCost": "infinite"
					},
					"external": {
						"call_it(string)": "infinite"
					}
				},
				"methodIdentifiers": {
					"call_it(string)": "0031ae45"
				}
			},
			"storageLayout": {
				"storage": [
					{
						"astId": 4,
						"contract": "contracts/Test.sol:ChangeMe",
						"label": "thisthing",
						"offset": 0,
						"slot": "0",
						"type": "t_string_storage"
					}
				],
				"types": {
					"t_string_storage": {
						"encoding": "bytes",
						"label": "string",
						"numberOfBytes": "32"
					}
				}
			},
			"userdoc": {
				"kind": "user",
				"methods": {},
				"version": 1
			}
		}
	}
}