{
	"contracts/Registry.sol": {
		"Registry": {
			"abi": [
				{
					"inputs": [
						{
							"internalType": "address",
							"name": "_owner",
							"type": "address"
						},
						{
							"internalType": "address",
							"name": "_wrapper",
							"type": "address"
						}
					],
					"stateMutability": "nonpayable",
					"type": "constructor"
				},
				{
					"inputs": [],
					"name": "ReentrancyGuardReentrantCall",
					"type": "error"
				},
				{
					"anonymous": false,
					"inputs": [
						{
							"indexed": true,
							"internalType": "address",
							"name": "from",
							"type": "address"
						},
						{
							"indexed": true,
							"internalType": "address",
							"name": "token",
							"type": "address"
						},
						{
							"indexed": false,
							"internalType": "uint256",
							"name": "tokenId",
							"type": "uint256"
						}
					],
					"name": "ReceivedERC721",
					"type": "event"
				},
				{
					"anonymous": false,
					"inputs": [
						{
							"indexed": true,
							"internalType": "address",
							"name": "from",
							"type": "address"
						},
						{
							"indexed": false,
							"internalType": "uint256",
							"name": "amount",
							"type": "uint256"
						}
					],
					"name": "ReceivedETH",
					"type": "event"
				},
				{
					"anonymous": false,
					"inputs": [
						{
							"indexed": false,
							"internalType": "string",
							"name": "key",
							"type": "string"
						},
						{
							"indexed": false,
							"internalType": "string",
							"name": "value",
							"type": "string"
						}
					],
					"name": "RegistryUpdated",
					"type": "event"
				},
				{
					"anonymous": false,
					"inputs": [
						{
							"indexed": true,
							"internalType": "address",
							"name": "token",
							"type": "address"
						},
						{
							"indexed": true,
							"internalType": "address",
							"name": "to",
							"type": "address"
						},
						{
							"indexed": false,
							"internalType": "uint256",
							"name": "amount",
							"type": "uint256"
						}
					],
					"name": "TransferredERC20",
					"type": "event"
				},
				{
					"anonymous": false,
					"inputs": [
						{
							"indexed": true,
							"internalType": "address",
							"name": "token",
							"type": "address"
						},
						{
							"indexed": true,
							"internalType": "address",
							"name": "to",
							"type": "address"
						},
						{
							"indexed": false,
							"internalType": "uint256",
							"name": "tokenId",
							"type": "uint256"
						}
					],
					"name": "TransferredERC721",
					"type": "event"
				},
				{
					"anonymous": false,
					"inputs": [
						{
							"indexed": true,
							"internalType": "address",
							"name": "to",
							"type": "address"
						},
						{
							"indexed": false,
							"internalType": "uint256",
							"name": "amount",
							"type": "uint256"
						}
					],
					"name": "TransferredETH",
					"type": "event"
				},
				{
					"inputs": [
						{
							"internalType": "string[]",
							"name": "newKeys",
							"type": "string[]"
						},
						{
							"internalType": "string[]",
							"name": "values",
							"type": "string[]"
						}
					],
					"name": "batchEditRegistry",
					"outputs": [],
					"stateMutability": "nonpayable",
					"type": "function"
				},
				{
					"inputs": [
						{
							"internalType": "string",
							"name": "key",
							"type": "string"
						},
						{
							"internalType": "string",
							"name": "value",
							"type": "string"
						}
					],
					"name": "editRegistry",
					"outputs": [],
					"stateMutability": "nonpayable",
					"type": "function"
				},
				{
					"inputs": [],
					"name": "getAllKeys",
					"outputs": [
						{
							"internalType": "string[]",
							"name": "",
							"type": "string[]"
						}
					],
					"stateMutability": "view",
					"type": "function"
				},
				{
					"inputs": [],
					"name": "getAllValues",
					"outputs": [
						{
							"internalType": "string[]",
							"name": "",
							"type": "string[]"
						}
					],
					"stateMutability": "view",
					"type": "function"
				},
				{
					"inputs": [
						{
							"internalType": "string",
							"name": "key",
							"type": "string"
						}
					],
					"name": "getRegistryValue",
					"outputs": [
						{
							"internalType": "string",
							"name": "",
							"type": "string"
						}
					],
					"stateMutability": "view",
					"type": "function"
				},
				{
					"inputs": [
						{
							"internalType": "address",
							"name": "operator",
							"type": "address"
						},
						{
							"internalType": "address",
							"name": "from",
							"type": "address"
						},
						{
							"internalType": "uint256",
							"name": "tokenId",
							"type": "uint256"
						},
						{
							"internalType": "bytes",
							"name": "data",
							"type": "bytes"
						}
					],
					"name": "onERC721Received",
					"outputs": [
						{
							"internalType": "bytes4",
							"name": "",
							"type": "bytes4"
						}
					],
					"stateMutability": "nonpayable",
					"type": "function"
				},
				{
					"inputs": [],
					"name": "owner",
					"outputs": [
						{
							"internalType": "address",
							"name": "",
							"type": "address"
						}
					],
					"stateMutability": "view",
					"type": "function"
				},
				{
					"inputs": [
						{
							"internalType": "address",
							"name": "token",
							"type": "address"
						},
						{
							"internalType": "address",
							"name": "to",
							"type": "address"
						},
						{
							"internalType": "uint256",
							"name": "amount",
							"type": "uint256"
						}
					],
					"name": "transferERC20",
					"outputs": [],
					"stateMutability": "nonpayable",
					"type": "function"
				},
				{
					"inputs": [
						{
							"internalType": "address",
							"name": "token",
							"type": "address"
						},
						{
							"internalType": "address",
							"name": "to",
							"type": "address"
						},
						{
							"internalType": "uint256",
							"name": "tokenId",
							"type": "uint256"
						}
					],
					"name": "transferERC721",
					"outputs": [],
					"stateMutability": "nonpayable",
					"type": "function"
				},
				{
					"inputs": [
						{
							"internalType": "address payable",
							"name": "to",
							"type": "address"
						},
						{
							"internalType": "uint256",
							"name": "amount",
							"type": "uint256"
						}
					],
					"name": "transferETH",
					"outputs": [],
					"stateMutability": "nonpayable",
					"type": "function"
				},
				{
					"inputs": [],
					"name": "wrapper",
					"outputs": [
						{
							"internalType": "address",
							"name": "",
							"type": "address"
						}
					],
					"stateMutability": "view",
					"type": "function"
				},
				{
					"stateMutability": "payable",
					"type": "receive"
				}
			],
			"devdoc": {
				"errors": {
					"ReentrancyGuardReentrantCall()": [
						{
							"details": "Unauthorized reentrant call."
						}
					]
				},
				"kind": "dev",
				"methods": {
					"onERC721Received(address,address,uint256,bytes)": {
						"details": "Whenever an {IERC721} `tokenId` token is transferred to this contract via {IERC721-safeTransferFrom} by `operator` from `from`, this function is called. It must return its Solidity selector to confirm the token transfer. If any other value is returned or the interface is not implemented by the recipient, the transfer will be reverted. The selector can be obtained in Solidity with `IERC721Receiver.onERC721Received.selector`."
					}
				},
				"version": 1
			},
			"evm": {
				"assembly": "    /* \"contracts/Registry.sol\":308:4473  contract Registry is IERC721Receiver, ReentrancyGuard {... */\n  mstore(0x40, 0x80)\n    /* \"contracts/Registry.sol\":2977:3155  constructor(address _owner, address _wrapper) {... */\n  callvalue\n  dup1\n  iszero\n  tag_1\n  jumpi\n  0x00\n  dup1\n  revert\ntag_1:\n  pop\n  mload(0x40)\n  sub(codesize, bytecodeSize)\n  dup1\n  bytecodeSize\n  dup4\n  codecopy\n  dup2\n  add\n  0x40\n  dup2\n  swap1\n  mstore\n  tag_2\n  swap2\n  tag_3\n  jump\t// in\ntag_2:\n    /* \"@openzeppelin/contracts/utils/ReentrancyGuard.sol\":1713:1714  1 */\n  0x01\n    /* \"@openzeppelin/contracts/utils/ReentrancyGuard.sol\":1917:1924  _status */\n  0x00\n    /* \"@openzeppelin/contracts/utils/ReentrancyGuard.sol\":1917:1938  _status = NOT_ENTERED */\n  sstore\n  sub(shl(0xa0, 0x01), 0x01)\n    /* \"contracts/Registry.sol\":3042:3062  _owner != address(0) */\n  dup3\n  and\n    /* \"contracts/Registry.sol\":3034:3095  require(_owner != address(0), \"Owner address cannot be zero\") */\n  tag_8\n  jumpi\n  mload(0x40)\n  shl(0xe5, 0x461bcd)\n  dup2\n  mstore\n    /* \"#utility.yul\":696:698   */\n  0x20\n    /* \"contracts/Registry.sol\":3034:3095  require(_owner != address(0), \"Owner address cannot be zero\") */\n  0x04\n  dup3\n  add\n    /* \"#utility.yul\":678:699   */\n  mstore\n    /* \"#utility.yul\":735:737   */\n  0x1c\n    /* \"#utility.yul\":715:733   */\n  0x24\n  dup3\n  add\n    /* \"#utility.yul\":708:738   */\n  mstore\n    /* \"#utility.yul\":774:804   */\n  0x4f776e657220616464726573732063616e6e6f74206265207a65726f00000000\n    /* \"#utility.yul\":754:772   */\n  0x44\n  dup3\n  add\n    /* \"#utility.yul\":747:805   */\n  mstore\n    /* \"#utility.yul\":822:840   */\n  0x64\n  add\n    /* \"contracts/Registry.sol\":3034:3095  require(_owner != address(0), \"Owner address cannot be zero\") */\n  mload(0x40)\n  dup1\n  swap2\n  sub\n  swap1\n  revert\ntag_8:\n    /* \"contracts/Registry.sol\":3106:3111  owner */\n  0x03\n    /* \"contracts/Registry.sol\":3106:3120  owner = _owner */\n  dup1\n  sload\n  sub(shl(0xa0, 0x01), 0x01)\n  swap4\n  dup5\n  and\n  not(sub(shl(0xa0, 0x01), 0x01))\n  swap2\n  dup3\n  and\n  or\n  swap1\n  swap2\n  sstore\n    /* \"contracts/Registry.sol\":3131:3138  wrapper */\n  0x04\n    /* \"contracts/Registry.sol\":3131:3147  wrapper=_wrapper */\n  dup1\n  sload\n  swap3\n  swap1\n  swap4\n  and\n  swap2\n  and\n  or\n  swap1\n  sstore\n    /* \"contracts/Registry.sol\":308:4473  contract Registry is IERC721Receiver, ReentrancyGuard {... */\n  jump(tag_13)\n    /* \"#utility.yul\":14:191   */\ntag_12:\n    /* \"#utility.yul\":93:106   */\n  dup1\n  mload\n  sub(shl(0xa0, 0x01), 0x01)\n    /* \"#utility.yul\":135:166   */\n  dup2\n  and\n    /* \"#utility.yul\":125:167   */\n  dup2\n  eq\n    /* \"#utility.yul\":115:185   */\n  tag_15\n  jumpi\n    /* \"#utility.yul\":181:182   */\n  0x00\n    /* \"#utility.yul\":178:179   */\n  dup1\n    /* \"#utility.yul\":171:183   */\n  revert\n    /* \"#utility.yul\":115:185   */\ntag_15:\n    /* \"#utility.yul\":14:191   */\n  swap2\n  swap1\n  pop\n  jump\t// out\n    /* \"#utility.yul\":196:489   */\ntag_3:\n    /* \"#utility.yul\":275:281   */\n  0x00\n    /* \"#utility.yul\":283:289   */\n  dup1\n    /* \"#utility.yul\":336:338   */\n  0x40\n    /* \"#utility.yul\":324:333   */\n  dup4\n    /* \"#utility.yul\":315:322   */\n  dup6\n    /* \"#utility.yul\":311:334   */\n  sub\n    /* \"#utility.yul\":307:339   */\n  slt\n    /* \"#utility.yul\":304:356   */\n  iszero\n  tag_17\n  jumpi\n    /* \"#utility.yul\":352:353   */\n  0x00\n    /* \"#utility.yul\":349:350   */\n  dup1\n    /* \"#utility.yul\":342:354   */\n  revert\n    /* \"#utility.yul\":304:356   */\ntag_17:\n    /* \"#utility.yul\":375:415   */\n  tag_18\n    /* \"#utility.yul\":405:414   */\n  dup4\n    /* \"#utility.yul\":375:415   */\n  tag_12\n  jump\t// in\ntag_18:\n    /* \"#utility.yul\":365:415   */\n  swap2\n  pop\n    /* \"#utility.yul\":434:483   */\n  tag_19\n    /* \"#utility.yul\":479:481   */\n  0x20\n    /* \"#utility.yul\":468:477   */\n  dup5\n    /* \"#utility.yul\":464:482   */\n  add\n    /* \"#utility.yul\":434:483   */\n  tag_12\n  jump\t// in\ntag_19:\n    /* \"#utility.yul\":424:483   */\n  swap1\n  pop\n    /* \"#utility.yul\":196:489   */\n  swap3\n  pop\n  swap3\n  swap1\n  pop\n  jump\t// out\n    /* \"#utility.yul\":494:846   */\ntag_13:\n    /* \"contracts/Registry.sol\":308:4473  contract Registry is IERC721Receiver, ReentrancyGuard {... */\n  dataSize(sub_0)\n  dup1\n  dataOffset(sub_0)\n  0x00\n  codecopy\n  0x00\n  return\nstop\n\nsub_0: assembly {\n        /* \"contracts/Registry.sol\":308:4473  contract Registry is IERC721Receiver, ReentrancyGuard {... */\n      mstore(0x40, 0x80)\n      jumpi(tag_1, lt(calldatasize, 0x04))\n      shr(0xe0, calldataload(0x00))\n      dup1\n      0x88f8f424\n      gt\n      tag_14\n      jumpi\n      dup1\n      0x88f8f424\n      eq\n      tag_8\n      jumpi\n      dup1\n      0x8da5cb5b\n      eq\n      tag_9\n      jumpi\n      dup1\n      0x981f5499\n      eq\n      tag_10\n      jumpi\n      dup1\n      0x9db5dbe4\n      eq\n      tag_11\n      jumpi\n      dup1\n      0xac210cc7\n      eq\n      tag_12\n      jumpi\n      dup1\n      0xbc87eed3\n      eq\n      tag_13\n      jumpi\n      0x00\n      dup1\n      revert\n    tag_14:\n      dup1\n      0x150b7a02\n      eq\n      tag_3\n      jumpi\n      dup1\n      0x1aca6376\n      eq\n      tag_4\n      jumpi\n      dup1\n      0x2559ddf5\n      eq\n      tag_5\n      jumpi\n      dup1\n      0x2e9c247b\n      eq\n      tag_6\n      jumpi\n      dup1\n      0x7b1a4909\n      eq\n      tag_7\n      jumpi\n      0x00\n      dup1\n      revert\n    tag_1:\n      jumpi(tag_2, calldatasize)\n        /* \"contracts/Registry.sol\":1211:1245  ReceivedETH(msg.sender, msg.value) */\n      mload(0x40)\n        /* \"contracts/Registry.sol\":1235:1244  msg.value */\n      callvalue\n        /* \"#utility.yul\":160:185   */\n      dup2\n      mstore\n        /* \"contracts/Registry.sol\":1223:1233  msg.sender */\n      caller\n      swap1\n        /* \"contracts/Registry.sol\":1211:1245  ReceivedETH(msg.sender, msg.value) */\n      0x4103257eaac983ca79a70d28f90dfc4fa16b619bb0c17ee7cab0d4034c279624\n      swap1\n        /* \"#utility.yul\":148:150   */\n      0x20\n        /* \"#utility.yul\":133:151   */\n      add\n        /* \"contracts/Registry.sol\":1211:1245  ReceivedETH(msg.sender, msg.value) */\n      mload(0x40)\n      dup1\n      swap2\n      sub\n      swap1\n      log2\n        /* \"contracts/Registry.sol\":308:4473  contract Registry is IERC721Receiver, ReentrancyGuard {... */\n      stop\n    tag_2:\n      0x00\n      dup1\n      revert\n        /* \"contracts/Registry.sol\":1260:1618  function onERC721Received(... */\n    tag_3:\n      callvalue\n      dup1\n      iszero\n      tag_19\n      jumpi\n      0x00\n      dup1\n      revert\n    tag_19:\n      pop\n      tag_20\n      tag_21\n      calldatasize\n      0x04\n      tag_22\n      jump\t// in\n    tag_21:\n      tag_23\n      jump\t// in\n    tag_20:\n      mload(0x40)\n      not(sub(shl(0xe0, 0x01), 0x01))\n        /* \"#utility.yul\":1435:1468   */\n      swap1\n      swap2\n      and\n        /* \"#utility.yul\":1417:1469   */\n      dup2\n      mstore\n        /* \"#utility.yul\":1405:1407   */\n      0x20\n        /* \"#utility.yul\":1390:1408   */\n      add\n        /* \"contracts/Registry.sol\":1260:1618  function onERC721Received(... */\n    tag_24:\n      mload(0x40)\n      dup1\n      swap2\n      sub\n      swap1\n      return\n        /* \"contracts/Registry.sol\":2408:2729  function transferERC721(... */\n    tag_4:\n      callvalue\n      dup1\n      iszero\n      tag_26\n      jumpi\n      0x00\n      dup1\n      revert\n    tag_26:\n      pop\n      tag_27\n      tag_28\n      calldatasize\n      0x04\n      tag_29\n      jump\t// in\n    tag_28:\n      tag_30\n      jump\t// in\n    tag_27:\n      stop\n        /* \"contracts/Registry.sol\":3221:3482  function editRegistry(string memory key, string memory value) public _regedit {... */\n    tag_5:\n      callvalue\n      dup1\n      iszero\n      tag_31\n      jumpi\n      0x00\n      dup1\n      revert\n    tag_31:\n      pop\n      tag_27\n      tag_33\n      calldatasize\n      0x04\n      tag_34\n      jump\t// in\n    tag_33:\n      tag_35\n      jump\t// in\n        /* \"contracts/Registry.sol\":3992:4107  function getRegistryValue(string memory key) public view returns (string memory) {... */\n    tag_6:\n      callvalue\n      dup1\n      iszero\n      tag_36\n      jumpi\n      0x00\n      dup1\n      revert\n    tag_36:\n      pop\n      tag_37\n      tag_38\n      calldatasize\n      0x04\n      tag_39\n      jump\t// in\n    tag_38:\n      tag_40\n      jump\t// in\n    tag_37:\n      mload(0x40)\n      tag_24\n      swap2\n      swap1\n      tag_42\n      jump\t// in\n        /* \"contracts/Registry.sol\":1647:2038  function transferETH(address payable to, uint256 amount) _treasuryOps external nonReentrant {... */\n    tag_7:\n      callvalue\n      dup1\n      iszero\n      tag_43\n      jumpi\n      0x00\n      dup1\n      revert\n    tag_43:\n      pop\n      tag_27\n      tag_45\n      calldatasize\n      0x04\n      tag_46\n      jump\t// in\n    tag_45:\n      tag_47\n      jump\t// in\n        /* \"contracts/Registry.sol\":3494:3982  function batchEditRegistry(string[] memory newKeys, string[] memory values) public _regedit {... */\n    tag_8:\n      callvalue\n      dup1\n      iszero\n      tag_48\n      jumpi\n      0x00\n      dup1\n      revert\n    tag_48:\n      pop\n      tag_27\n      tag_50\n      calldatasize\n      0x04\n      tag_51\n      jump\t// in\n    tag_50:\n      tag_52\n      jump\t// in\n        /* \"contracts/Registry.sol\":444:464  address public owner */\n    tag_9:\n      callvalue\n      dup1\n      iszero\n      tag_53\n      jumpi\n      0x00\n      dup1\n      revert\n    tag_53:\n      pop\n      sload(0x03)\n      tag_54\n      swap1\n      sub(shl(0xa0, 0x01), 0x01)\n      and\n      dup2\n      jump\n    tag_54:\n      mload(0x40)\n      sub(shl(0xa0, 0x01), 0x01)\n        /* \"#utility.yul\":6508:6540   */\n      swap1\n      swap2\n      and\n        /* \"#utility.yul\":6490:6541   */\n      dup2\n      mstore\n        /* \"#utility.yul\":6478:6480   */\n      0x20\n        /* \"#utility.yul\":6463:6481   */\n      add\n        /* \"contracts/Registry.sol\":444:464  address public owner */\n      tag_24\n        /* \"#utility.yul\":6344:6547   */\n      jump\n        /* \"contracts/Registry.sol\":4215:4470  function getAllValues() public view returns (string[] memory) {... */\n    tag_10:\n      callvalue\n      dup1\n      iszero\n      tag_58\n      jumpi\n      0x00\n      dup1\n      revert\n    tag_58:\n      pop\n      tag_59\n      tag_60\n      jump\t// in\n    tag_59:\n      mload(0x40)\n      tag_24\n      swap2\n      swap1\n      tag_62\n      jump\t// in\n        /* \"contracts/Registry.sol\":2076:2369  function transferERC20(... */\n    tag_11:\n      callvalue\n      dup1\n      iszero\n      tag_63\n      jumpi\n      0x00\n      dup1\n      revert\n    tag_63:\n      pop\n      tag_27\n      tag_65\n      calldatasize\n      0x04\n      tag_29\n      jump\t// in\n    tag_65:\n      tag_66\n      jump\t// in\n        /* \"contracts/Registry.sol\":471:493  address public wrapper */\n    tag_12:\n      callvalue\n      dup1\n      iszero\n      tag_67\n      jumpi\n      0x00\n      dup1\n      revert\n    tag_67:\n      pop\n      sload(0x04)\n      tag_54\n      swap1\n      sub(shl(0xa0, 0x01), 0x01)\n      and\n      dup2\n      jump\n        /* \"contracts/Registry.sol\":4117:4207  function getAllKeys() public view returns (string[] memory) {... */\n    tag_13:\n      callvalue\n      dup1\n      iszero\n      tag_71\n      jumpi\n      0x00\n      dup1\n      revert\n    tag_71:\n      pop\n      tag_59\n      tag_73\n      jump\t// in\n        /* \"contracts/Registry.sol\":1260:1618  function onERC721Received(... */\n    tag_23:\n        /* \"contracts/Registry.sol\":1426:1432  bytes4 */\n      0x00\n        /* \"contracts/Registry.sol\":1542:1552  msg.sender */\n      caller\n      sub(shl(0xa0, 0x01), 0x01)\n        /* \"contracts/Registry.sol\":1521:1562  ReceivedERC721(from, msg.sender, tokenId) */\n      and\n        /* \"contracts/Registry.sol\":1536:1540  from */\n      dup6\n      sub(shl(0xa0, 0x01), 0x01)\n        /* \"contracts/Registry.sol\":1521:1562  ReceivedERC721(from, msg.sender, tokenId) */\n      and\n      0xa7623ac946123c8343a3277b72c66662dab5c4784cebe18bb73311b3d41882a7\n        /* \"contracts/Registry.sol\":1554:1561  tokenId */\n      dup7\n        /* \"contracts/Registry.sol\":1521:1562  ReceivedERC721(from, msg.sender, tokenId) */\n      mload(0x40)\n      tag_76\n      swap2\n        /* \"#utility.yul\":160:185   */\n      dup2\n      mstore\n        /* \"#utility.yul\":148:150   */\n      0x20\n        /* \"#utility.yul\":133:151   */\n      add\n      swap1\n        /* \"#utility.yul\":14:191   */\n      jump\n        /* \"contracts/Registry.sol\":1521:1562  ReceivedERC721(from, msg.sender, tokenId) */\n    tag_76:\n      mload(0x40)\n      dup1\n      swap2\n      sub\n      swap1\n      log3\n      pop\n      shl(0xe1, 0x0a85bd01)\n        /* \"contracts/Registry.sol\":1260:1618  function onERC721Received(... */\n      swap6\n      swap5\n      pop\n      pop\n      pop\n      pop\n      pop\n      jump\t// out\n        /* \"contracts/Registry.sol\":2408:2729  function transferERC721(... */\n    tag_30:\n        /* \"contracts/Registry.sol\":559:564  owner */\n      and(sub(shl(0xa0, 0x01), 0x01), sload(0x03))\n        /* \"contracts/Registry.sol\":545:555  msg.sender */\n      caller\n        /* \"contracts/Registry.sol\":545:564  msg.sender == owner */\n      eq\n        /* \"contracts/Registry.sol\":537:601  require(msg.sender == owner , \"Only the DAO can make transfers\") */\n      tag_78\n      jumpi\n      mload(0x40)\n      shl(0xe5, 0x461bcd)\n      dup2\n      mstore\n      0x04\n      add\n      tag_79\n      swap1\n      tag_80\n      jump\t// in\n    tag_79:\n      mload(0x40)\n      dup1\n      swap2\n      sub\n      swap1\n      revert\n    tag_78:\n        /* \"contracts/Registry.sol\":2551:2566  isERC721(token) */\n      tag_82\n        /* \"contracts/Registry.sol\":2560:2565  token */\n      dup4\n        /* \"contracts/Registry.sol\":2551:2559  isERC721 */\n      tag_83\n        /* \"contracts/Registry.sol\":2551:2566  isERC721(token) */\n      jump\t// in\n    tag_82:\n        /* \"contracts/Registry.sol\":2543:2598  require(isERC721(token), \"Token is not a valid ERC721\") */\n      tag_84\n      jumpi\n      mload(0x40)\n      shl(0xe5, 0x461bcd)\n      dup2\n      mstore\n        /* \"#utility.yul\":7922:7924   */\n      0x20\n        /* \"contracts/Registry.sol\":2543:2598  require(isERC721(token), \"Token is not a valid ERC721\") */\n      0x04\n      dup3\n      add\n        /* \"#utility.yul\":7904:7925   */\n      mstore\n        /* \"#utility.yul\":7961:7963   */\n      0x1b\n        /* \"#utility.yul\":7941:7959   */\n      0x24\n      dup3\n      add\n        /* \"#utility.yul\":7934:7964   */\n      mstore\n        /* \"#utility.yul\":8000:8029   */\n      0x546f6b656e206973206e6f7420612076616c6964204552433732310000000000\n        /* \"#utility.yul\":7980:7998   */\n      0x44\n      dup3\n      add\n        /* \"#utility.yul\":7973:8030   */\n      mstore\n        /* \"#utility.yul\":8047:8065   */\n      0x64\n      add\n        /* \"contracts/Registry.sol\":2543:2598  require(isERC721(token), \"Token is not a valid ERC721\") */\n      tag_79\n        /* \"#utility.yul\":7720:8071   */\n      jump\n        /* \"contracts/Registry.sol\":2543:2598  require(isERC721(token), \"Token is not a valid ERC721\") */\n    tag_84:\n        /* \"contracts/Registry.sol\":2609:2668  IERC721(token).safeTransferFrom(address(this), to, tokenId) */\n      mload(0x40)\n      shl(0xe1, 0x21421707)\n      dup2\n      mstore\n        /* \"contracts/Registry.sol\":2649:2653  this */\n      address\n        /* \"contracts/Registry.sol\":2609:2668  IERC721(token).safeTransferFrom(address(this), to, tokenId) */\n      0x04\n      dup3\n      add\n        /* \"#utility.yul\":8316:8350   */\n      mstore\n      sub(shl(0xa0, 0x01), 0x01)\n        /* \"#utility.yul\":8386:8401   */\n      dup4\n      dup2\n      and\n        /* \"#utility.yul\":8366:8384   */\n      0x24\n      dup4\n      add\n        /* \"#utility.yul\":8359:8402   */\n      mstore\n        /* \"#utility.yul\":8418:8436   */\n      0x44\n      dup3\n      add\n        /* \"#utility.yul\":8411:8445   */\n      dup4\n      swap1\n      mstore\n        /* \"contracts/Registry.sol\":2609:2640  IERC721(token).safeTransferFrom */\n      dup5\n      and\n      swap1\n      0x42842e0e\n      swap1\n        /* \"#utility.yul\":8251:8269   */\n      0x64\n      add\n        /* \"contracts/Registry.sol\":2609:2668  IERC721(token).safeTransferFrom(address(this), to, tokenId) */\n      0x00\n      mload(0x40)\n      dup1\n      dup4\n      sub\n      dup2\n      0x00\n      dup8\n      dup1\n      extcodesize\n      iszero\n      dup1\n      iszero\n      tag_89\n      jumpi\n      0x00\n      dup1\n      revert\n    tag_89:\n      pop\n      gas\n      call\n      iszero\n      dup1\n      iszero\n      tag_91\n      jumpi\n      returndatasize\n      0x00\n      dup1\n      returndatacopy\n      revert(0x00, returndatasize)\n    tag_91:\n      pop\n      pop\n      pop\n      pop\n        /* \"contracts/Registry.sol\":2709:2711  to */\n      dup2\n      sub(shl(0xa0, 0x01), 0x01)\n        /* \"contracts/Registry.sol\":2684:2721  TransferredERC721(token, to, tokenId) */\n      and\n        /* \"contracts/Registry.sol\":2702:2707  token */\n      dup4\n      sub(shl(0xa0, 0x01), 0x01)\n        /* \"contracts/Registry.sol\":2684:2721  TransferredERC721(token, to, tokenId) */\n      and\n      0xc461d0f02e326879d642fc0b955c081fd7827836382a43e99fe5df550589b011\n        /* \"contracts/Registry.sol\":2713:2720  tokenId */\n      dup4\n        /* \"contracts/Registry.sol\":2684:2721  TransferredERC721(token, to, tokenId) */\n      mload(0x40)\n      tag_92\n      swap2\n        /* \"#utility.yul\":160:185   */\n      dup2\n      mstore\n        /* \"#utility.yul\":148:150   */\n      0x20\n        /* \"#utility.yul\":133:151   */\n      add\n      swap1\n        /* \"#utility.yul\":14:191   */\n      jump\n        /* \"contracts/Registry.sol\":2684:2721  TransferredERC721(token, to, tokenId) */\n    tag_92:\n      mload(0x40)\n      dup1\n      swap2\n      sub\n      swap1\n      log3\n        /* \"contracts/Registry.sol\":2408:2729  function transferERC721(... */\n      pop\n      pop\n      pop\n      jump\t// out\n        /* \"contracts/Registry.sol\":3221:3482  function editRegistry(string memory key, string memory value) public _regedit {... */\n    tag_35:\n        /* \"contracts/Registry.sol\":682:687  owner */\n      and(sub(shl(0xa0, 0x01), 0x01), sload(0x03))\n        /* \"contracts/Registry.sol\":668:678  msg.sender */\n      caller\n        /* \"contracts/Registry.sol\":668:687  msg.sender == owner */\n      eq\n      dup1\n        /* \"contracts/Registry.sol\":668:710  msg.sender == owner || msg.sender==wrapper */\n      tag_94\n      jumpi\n      pop\n        /* \"contracts/Registry.sol\":703:710  wrapper */\n      and(sub(shl(0xa0, 0x01), 0x01), sload(0x04))\n        /* \"contracts/Registry.sol\":691:701  msg.sender */\n      caller\n        /* \"contracts/Registry.sol\":691:710  msg.sender==wrapper */\n      eq\n        /* \"contracts/Registry.sol\":668:710  msg.sender == owner || msg.sender==wrapper */\n    tag_94:\n        /* \"contracts/Registry.sol\":660:745  require(msg.sender == owner || msg.sender==wrapper, \"Only the DAO can edit registry\") */\n      tag_95\n      jumpi\n      mload(0x40)\n      shl(0xe5, 0x461bcd)\n      dup2\n      mstore\n        /* \"#utility.yul\":8658:8660   */\n      0x20\n        /* \"contracts/Registry.sol\":660:745  require(msg.sender == owner || msg.sender==wrapper, \"Only the DAO can edit registry\") */\n      0x04\n      dup3\n      add\n        /* \"#utility.yul\":8640:8661   */\n      mstore\n        /* \"#utility.yul\":8697:8699   */\n      0x1e\n        /* \"#utility.yul\":8677:8695   */\n      0x24\n      dup3\n      add\n        /* \"#utility.yul\":8670:8700   */\n      mstore\n        /* \"#utility.yul\":8736:8768   */\n      0x4f6e6c79207468652044414f2063616e20656469742072656769737472790000\n        /* \"#utility.yul\":8716:8734   */\n      0x44\n      dup3\n      add\n        /* \"#utility.yul\":8709:8769   */\n      mstore\n        /* \"#utility.yul\":8786:8804   */\n      0x64\n      add\n        /* \"contracts/Registry.sol\":660:745  require(msg.sender == owner || msg.sender==wrapper, \"Only the DAO can edit registry\") */\n      tag_79\n        /* \"#utility.yul\":8456:8810   */\n      jump\n        /* \"contracts/Registry.sol\":660:745  require(msg.sender == owner || msg.sender==wrapper, \"Only the DAO can edit registry\") */\n    tag_95:\n        /* \"contracts/Registry.sol\":3320:3323  reg */\n      0x01\n        /* \"contracts/Registry.sol\":3324:3327  key */\n      dup3\n        /* \"contracts/Registry.sol\":3320:3328  reg[key] */\n      mload(0x40)\n      tag_99\n      swap2\n      swap1\n      tag_100\n      jump\t// in\n    tag_99:\n      swap1\n      dup2\n      mstore\n      0x20\n      add\n      mload(0x40)\n      dup1\n      swap2\n      sub\n      swap1\n      keccak256\n        /* \"contracts/Registry.sol\":3314:3336  bytes(reg[key]).length */\n      dup1\n      sload\n      tag_101\n      swap1\n      tag_102\n      jump\t// in\n    tag_101:\n      swap1\n      pop\n        /* \"contracts/Registry.sol\":3340:3341  0 */\n      0x00\n        /* \"contracts/Registry.sol\":3314:3341  bytes(reg[key]).length == 0 */\n      sub\n        /* \"contracts/Registry.sol\":3310:3405  if (bytes(reg[key]).length == 0) {... */\n      tag_103\n      jumpi\n        /* \"contracts/Registry.sol\":3358:3362  keys */\n      0x02\n        /* \"contracts/Registry.sol\":3358:3372  keys.push(key) */\n      dup1\n      sload\n      0x01\n      dup2\n      add\n      dup3\n      sstore\n      0x00\n      swap2\n      swap1\n      swap2\n      mstore\n      0x405787fa12a823e0f2b7631cc41b3ba8828b3321ca811111fa75cd3aa3bb5ace\n      add\n      tag_105\n        /* \"contracts/Registry.sol\":3368:3371  key */\n      dup4\n        /* \"contracts/Registry.sol\":3358:3372  keys.push(key) */\n      dup3\n      tag_106\n      jump\t// in\n    tag_105:\n      pop\n        /* \"contracts/Registry.sol\":3310:3405  if (bytes(reg[key]).length == 0) {... */\n    tag_103:\n        /* \"contracts/Registry.sol\":3426:3431  value */\n      dup1\n        /* \"contracts/Registry.sol\":3415:3418  reg */\n      0x01\n        /* \"contracts/Registry.sol\":3419:3422  key */\n      dup4\n        /* \"contracts/Registry.sol\":3415:3423  reg[key] */\n      mload(0x40)\n      tag_107\n      swap2\n      swap1\n      tag_100\n      jump\t// in\n    tag_107:\n      swap1\n      dup2\n      mstore\n      0x20\n      add\n      mload(0x40)\n      dup1\n      swap2\n      sub\n      swap1\n      keccak256\n        /* \"contracts/Registry.sol\":3415:3431  reg[key] = value */\n      swap1\n      dup2\n      tag_108\n      swap2\n      swap1\n      tag_106\n      jump\t// in\n    tag_108:\n      pop\n        /* \"contracts/Registry.sol\":3447:3474  RegistryUpdated(key, value) */\n      0x7b86c5d3c943fd36e157d1f4f62c14255da7cef7e527b7066f90325657091a0c\n        /* \"contracts/Registry.sol\":3463:3466  key */\n      dup3\n        /* \"contracts/Registry.sol\":3468:3473  value */\n      dup3\n        /* \"contracts/Registry.sol\":3447:3474  RegistryUpdated(key, value) */\n      mload(0x40)\n      tag_109\n      swap3\n      swap2\n      swap1\n      tag_110\n      jump\t// in\n    tag_109:\n      mload(0x40)\n      dup1\n      swap2\n      sub\n      swap1\n      log1\n        /* \"contracts/Registry.sol\":3221:3482  function editRegistry(string memory key, string memory value) public _regedit {... */\n      pop\n      pop\n      jump\t// out\n        /* \"contracts/Registry.sol\":3992:4107  function getRegistryValue(string memory key) public view returns (string memory) {... */\n    tag_40:\n        /* \"contracts/Registry.sol\":4058:4071  string memory */\n      0x60\n        /* \"contracts/Registry.sol\":4091:4094  reg */\n      0x01\n        /* \"contracts/Registry.sol\":4095:4098  key */\n      dup3\n        /* \"contracts/Registry.sol\":4091:4099  reg[key] */\n      mload(0x40)\n      tag_112\n      swap2\n      swap1\n      tag_100\n      jump\t// in\n    tag_112:\n      swap1\n      dup2\n      mstore\n      0x20\n      add\n      mload(0x40)\n      dup1\n      swap2\n      sub\n      swap1\n      keccak256\n        /* \"contracts/Registry.sol\":4084:4099  return reg[key] */\n      dup1\n      sload\n      tag_113\n      swap1\n      tag_102\n      jump\t// in\n    tag_113:\n      dup1\n      0x1f\n      add\n      0x20\n      dup1\n      swap2\n      div\n      mul\n      0x20\n      add\n      mload(0x40)\n      swap1\n      dup2\n      add\n      0x40\n      mstore\n      dup1\n      swap3\n      swap2\n      swap1\n      dup2\n      dup2\n      mstore\n      0x20\n      add\n      dup3\n      dup1\n      sload\n      tag_114\n      swap1\n      tag_102\n      jump\t// in\n    tag_114:\n      dup1\n      iszero\n      tag_115\n      jumpi\n      dup1\n      0x1f\n      lt\n      tag_116\n      jumpi\n      0x0100\n      dup1\n      dup4\n      sload\n      div\n      mul\n      dup4\n      mstore\n      swap2\n      0x20\n      add\n      swap2\n      jump(tag_115)\n    tag_116:\n      dup3\n      add\n      swap2\n      swap1\n      0x00\n      mstore\n      keccak256(0x00, 0x20)\n      swap1\n    tag_117:\n      dup2\n      sload\n      dup2\n      mstore\n      swap1\n      0x01\n      add\n      swap1\n      0x20\n      add\n      dup1\n      dup4\n      gt\n      tag_117\n      jumpi\n      dup3\n      swap1\n      sub\n      0x1f\n      and\n      dup3\n      add\n      swap2\n    tag_115:\n      pop\n      pop\n      pop\n      pop\n      pop\n      swap1\n      pop\n        /* \"contracts/Registry.sol\":3992:4107  function getRegistryValue(string memory key) public view returns (string memory) {... */\n      swap2\n      swap1\n      pop\n      jump\t// out\n        /* \"contracts/Registry.sol\":1647:2038  function transferETH(address payable to, uint256 amount) _treasuryOps external nonReentrant {... */\n    tag_47:\n        /* \"contracts/Registry.sol\":559:564  owner */\n      and(sub(shl(0xa0, 0x01), 0x01), sload(0x03))\n        /* \"contracts/Registry.sol\":545:555  msg.sender */\n      caller\n        /* \"contracts/Registry.sol\":545:564  msg.sender == owner */\n      eq\n        /* \"contracts/Registry.sol\":537:601  require(msg.sender == owner , \"Only the DAO can make transfers\") */\n      tag_119\n      jumpi\n      mload(0x40)\n      shl(0xe5, 0x461bcd)\n      dup2\n      mstore\n      0x04\n      add\n      tag_79\n      swap1\n      tag_80\n      jump\t// in\n    tag_119:\n        /* \"@openzeppelin/contracts/utils/ReentrancyGuard.sol\":2356:2377  _nonReentrantBefore() */\n      tag_122\n        /* \"@openzeppelin/contracts/utils/ReentrancyGuard.sol\":2356:2375  _nonReentrantBefore */\n      tag_123\n        /* \"@openzeppelin/contracts/utils/ReentrancyGuard.sol\":2356:2377  _nonReentrantBefore() */\n      jump\t// in\n    tag_122:\n        /* \"contracts/Registry.sol\":1783:1789  amount */\n      dup1\n        /* \"contracts/Registry.sol\":1758:1779  address(this).balance */\n      selfbalance\n        /* \"contracts/Registry.sol\":1758:1789  address(this).balance >= amount */\n      lt\n      iszero\n        /* \"contracts/Registry.sol\":1750:1814  require(address(this).balance >= amount, \"Insufficient balance\") */\n      tag_125\n      jumpi\n      mload(0x40)\n      shl(0xe5, 0x461bcd)\n      dup2\n      mstore\n        /* \"#utility.yul\":12254:12256   */\n      0x20\n        /* \"contracts/Registry.sol\":1750:1814  require(address(this).balance >= amount, \"Insufficient balance\") */\n      0x04\n      dup3\n      add\n        /* \"#utility.yul\":12236:12257   */\n      mstore\n        /* \"#utility.yul\":12293:12295   */\n      0x14\n        /* \"#utility.yul\":12273:12291   */\n      0x24\n      dup3\n      add\n        /* \"#utility.yul\":12266:12296   */\n      mstore\n      shl(0x60, 0x496e73756666696369656e742062616c616e6365)\n        /* \"#utility.yul\":12312:12330   */\n      0x44\n      dup3\n      add\n        /* \"#utility.yul\":12305:12355   */\n      mstore\n        /* \"#utility.yul\":12372:12390   */\n      0x64\n      add\n        /* \"contracts/Registry.sol\":1750:1814  require(address(this).balance >= amount, \"Insufficient balance\") */\n      tag_79\n        /* \"#utility.yul\":12052:12396   */\n      jump\n        /* \"contracts/Registry.sol\":1750:1814  require(address(this).balance >= amount, \"Insufficient balance\") */\n    tag_125:\n        /* \"contracts/Registry.sol\":1882:1901  to.transfer(amount) */\n      mload(0x40)\n        /* \"contracts/Registry.sol\":1850:1871  address(this).balance */\n      selfbalance\n      swap1\n      sub(shl(0xa0, 0x01), 0x01)\n        /* \"contracts/Registry.sol\":1882:1893  to.transfer */\n      dup5\n      and\n      swap1\n        /* \"contracts/Registry.sol\":1882:1901  to.transfer(amount) */\n      dup4\n      iszero\n      0x08fc\n      mul\n      swap1\n        /* \"contracts/Registry.sol\":1894:1900  amount */\n      dup5\n      swap1\n        /* \"contracts/Registry.sol\":1825:1847  uint256 initialBalance */\n      0x00\n        /* \"contracts/Registry.sol\":1882:1901  to.transfer(amount) */\n      dup2\n        /* \"contracts/Registry.sol\":1825:1847  uint256 initialBalance */\n      dup2\n        /* \"contracts/Registry.sol\":1882:1901  to.transfer(amount) */\n      dup2\n        /* \"contracts/Registry.sol\":1894:1900  amount */\n      dup6\n        /* \"contracts/Registry.sol\":1882:1893  to.transfer */\n      dup9\n        /* \"contracts/Registry.sol\":1882:1901  to.transfer(amount) */\n      dup9\n      call\n      swap4\n      pop\n      pop\n      pop\n      pop\n      iszero\n      dup1\n      iszero\n      tag_129\n      jumpi\n      returndatasize\n      0x00\n      dup1\n      returndatacopy\n      revert(0x00, returndatasize)\n    tag_129:\n      pop\n        /* \"contracts/Registry.sol\":1945:1968  initialBalance - amount */\n      tag_130\n        /* \"contracts/Registry.sol\":1962:1968  amount */\n      dup3\n        /* \"contracts/Registry.sol\":1945:1959  initialBalance */\n      dup3\n        /* \"contracts/Registry.sol\":1945:1968  initialBalance - amount */\n      tag_131\n      jump\t// in\n    tag_130:\n        /* \"contracts/Registry.sol\":1920:1941  address(this).balance */\n      selfbalance\n        /* \"contracts/Registry.sol\":1920:1968  address(this).balance == initialBalance - amount */\n      eq\n        /* \"contracts/Registry.sol\":1912:1988  require(address(this).balance == initialBalance - amount, \"Transfer failed\") */\n      tag_132\n      jumpi\n      mload(0x40)\n      shl(0xe5, 0x461bcd)\n      dup2\n      mstore\n        /* \"#utility.yul\":12833:12835   */\n      0x20\n        /* \"contracts/Registry.sol\":1912:1988  require(address(this).balance == initialBalance - amount, \"Transfer failed\") */\n      0x04\n      dup3\n      add\n        /* \"#utility.yul\":12815:12836   */\n      mstore\n        /* \"#utility.yul\":12872:12874   */\n      0x0f\n        /* \"#utility.yul\":12852:12870   */\n      0x24\n      dup3\n      add\n        /* \"#utility.yul\":12845:12875   */\n      mstore\n      shl(0x8a, 0x151c985b9cd9995c8819985a5b1959)\n        /* \"#utility.yul\":12891:12909   */\n      0x44\n      dup3\n      add\n        /* \"#utility.yul\":12884:12929   */\n      mstore\n        /* \"#utility.yul\":12946:12964   */\n      0x64\n      add\n        /* \"contracts/Registry.sol\":1912:1988  require(address(this).balance == initialBalance - amount, \"Transfer failed\") */\n      tag_79\n        /* \"#utility.yul\":12631:12970   */\n      jump\n        /* \"contracts/Registry.sol\":1912:1988  require(address(this).balance == initialBalance - amount, \"Transfer failed\") */\n    tag_132:\n        /* \"contracts/Registry.sol\":2019:2021  to */\n      dup3\n      sub(shl(0xa0, 0x01), 0x01)\n        /* \"contracts/Registry.sol\":2004:2030  TransferredETH(to, amount) */\n      and\n      0xba7bb5aa419c34d8776b86cc0e9d41e72d74a893a511f361a11af6c05e920c3d\n        /* \"contracts/Registry.sol\":2023:2029  amount */\n      dup4\n        /* \"contracts/Registry.sol\":2004:2030  TransferredETH(to, amount) */\n      mload(0x40)\n      tag_135\n      swap2\n        /* \"#utility.yul\":160:185   */\n      dup2\n      mstore\n        /* \"#utility.yul\":148:150   */\n      0x20\n        /* \"#utility.yul\":133:151   */\n      add\n      swap1\n        /* \"#utility.yul\":14:191   */\n      jump\n        /* \"contracts/Registry.sol\":2004:2030  TransferredETH(to, amount) */\n    tag_135:\n      mload(0x40)\n      dup1\n      swap2\n      sub\n      swap1\n      log2\n        /* \"contracts/Registry.sol\":1739:2038  {... */\n      pop\n        /* \"@openzeppelin/contracts/utils/ReentrancyGuard.sol\":2398:2418  _nonReentrantAfter() */\n      tag_136\n        /* \"@openzeppelin/contracts/utils/ReentrancyGuard.sol\":1713:1714  1 */\n      0x01\n        /* \"@openzeppelin/contracts/utils/ReentrancyGuard.sol\":2924:2931  _status */\n      0x00\n        /* \"@openzeppelin/contracts/utils/ReentrancyGuard.sol\":2924:2945  _status = NOT_ENTERED */\n      sstore\n        /* \"@openzeppelin/contracts/utils/ReentrancyGuard.sol\":2744:2952  function _nonReentrantAfter() private {... */\n      jump\n        /* \"@openzeppelin/contracts/utils/ReentrancyGuard.sol\":2398:2418  _nonReentrantAfter() */\n    tag_136:\n        /* \"contracts/Registry.sol\":1647:2038  function transferETH(address payable to, uint256 amount) _treasuryOps external nonReentrant {... */\n      pop\n      pop\n      jump\t// out\n        /* \"contracts/Registry.sol\":3494:3982  function batchEditRegistry(string[] memory newKeys, string[] memory values) public _regedit {... */\n    tag_52:\n        /* \"contracts/Registry.sol\":682:687  owner */\n      and(sub(shl(0xa0, 0x01), 0x01), sload(0x03))\n        /* \"contracts/Registry.sol\":668:678  msg.sender */\n      caller\n        /* \"contracts/Registry.sol\":668:687  msg.sender == owner */\n      eq\n      dup1\n        /* \"contracts/Registry.sol\":668:710  msg.sender == owner || msg.sender==wrapper */\n      tag_139\n      jumpi\n      pop\n        /* \"contracts/Registry.sol\":703:710  wrapper */\n      and(sub(shl(0xa0, 0x01), 0x01), sload(0x04))\n        /* \"contracts/Registry.sol\":691:701  msg.sender */\n      caller\n        /* \"contracts/Registry.sol\":691:710  msg.sender==wrapper */\n      eq\n        /* \"contracts/Registry.sol\":668:710  msg.sender == owner || msg.sender==wrapper */\n    tag_139:\n        /* \"contracts/Registry.sol\":660:745  require(msg.sender == owner || msg.sender==wrapper, \"Only the DAO can edit registry\") */\n      tag_140\n      jumpi\n      mload(0x40)\n      shl(0xe5, 0x461bcd)\n      dup2\n      mstore\n        /* \"#utility.yul\":8658:8660   */\n      0x20\n        /* \"contracts/Registry.sol\":660:745  require(msg.sender == owner || msg.sender==wrapper, \"Only the DAO can edit registry\") */\n      0x04\n      dup3\n      add\n        /* \"#utility.yul\":8640:8661   */\n      mstore\n        /* \"#utility.yul\":8697:8699   */\n      0x1e\n        /* \"#utility.yul\":8677:8695   */\n      0x24\n      dup3\n      add\n        /* \"#utility.yul\":8670:8700   */\n      mstore\n        /* \"#utility.yul\":8736:8768   */\n      0x4f6e6c79207468652044414f2063616e20656469742072656769737472790000\n        /* \"#utility.yul\":8716:8734   */\n      0x44\n      dup3\n      add\n        /* \"#utility.yul\":8709:8769   */\n      mstore\n        /* \"#utility.yul\":8786:8804   */\n      0x64\n      add\n        /* \"contracts/Registry.sol\":660:745  require(msg.sender == owner || msg.sender==wrapper, \"Only the DAO can edit registry\") */\n      tag_79\n        /* \"#utility.yul\":8456:8810   */\n      jump\n        /* \"contracts/Registry.sol\":660:745  require(msg.sender == owner || msg.sender==wrapper, \"Only the DAO can edit registry\") */\n    tag_140:\n        /* \"contracts/Registry.sol\":3602:3611  uint256 i */\n      0x00\n        /* \"contracts/Registry.sol\":3597:3975  for (uint256 i = 0; i < newKeys.length; i++) {... */\n    tag_143:\n        /* \"contracts/Registry.sol\":3621:3628  newKeys */\n      dup3\n        /* \"contracts/Registry.sol\":3621:3635  newKeys.length */\n      mload\n        /* \"contracts/Registry.sol\":3617:3618  i */\n      dup2\n        /* \"contracts/Registry.sol\":3617:3635  i < newKeys.length */\n      lt\n        /* \"contracts/Registry.sol\":3597:3975  for (uint256 i = 0; i < newKeys.length; i++) {... */\n      iszero\n      tag_144\n      jumpi\n        /* \"contracts/Registry.sol\":3657:3674  string memory key */\n      0x00\n        /* \"contracts/Registry.sol\":3677:3684  newKeys */\n      dup4\n        /* \"contracts/Registry.sol\":3685:3686  i */\n      dup3\n        /* \"contracts/Registry.sol\":3677:3687  newKeys[i] */\n      dup2\n      mload\n      dup2\n      lt\n      tag_147\n      jumpi\n      tag_147\n      tag_148\n      jump\t// in\n    tag_147:\n      0x20\n      mul\n      0x20\n      add\n      add\n      mload\n        /* \"contracts/Registry.sol\":3657:3687  string memory key = newKeys[i] */\n      swap1\n      pop\n        /* \"contracts/Registry.sol\":3702:3721  string memory value */\n      0x00\n        /* \"contracts/Registry.sol\":3724:3730  values */\n      dup4\n        /* \"contracts/Registry.sol\":3731:3732  i */\n      dup4\n        /* \"contracts/Registry.sol\":3724:3733  values[i] */\n      dup2\n      mload\n      dup2\n      lt\n      tag_150\n      jumpi\n      tag_150\n      tag_148\n      jump\t// in\n    tag_150:\n      0x20\n      mul\n      0x20\n      add\n      add\n      mload\n        /* \"contracts/Registry.sol\":3702:3733  string memory value = values[i] */\n      swap1\n      pop\n        /* \"contracts/Registry.sol\":3811:3814  reg */\n      0x01\n        /* \"contracts/Registry.sol\":3815:3818  key */\n      dup3\n        /* \"contracts/Registry.sol\":3811:3819  reg[key] */\n      mload(0x40)\n      tag_151\n      swap2\n      swap1\n      tag_100\n      jump\t// in\n    tag_151:\n      swap1\n      dup2\n      mstore\n      0x20\n      add\n      mload(0x40)\n      dup1\n      swap2\n      sub\n      swap1\n      keccak256\n        /* \"contracts/Registry.sol\":3805:3827  bytes(reg[key]).length */\n      dup1\n      sload\n      tag_152\n      swap1\n      tag_102\n      jump\t// in\n    tag_152:\n      swap1\n      pop\n        /* \"contracts/Registry.sol\":3831:3832  0 */\n      0x00\n        /* \"contracts/Registry.sol\":3805:3832  bytes(reg[key]).length == 0 */\n      sub\n        /* \"contracts/Registry.sol\":3801:3883  if (bytes(reg[key]).length == 0) {... */\n      tag_153\n      jumpi\n        /* \"contracts/Registry.sol\":3853:3857  keys */\n      0x02\n        /* \"contracts/Registry.sol\":3853:3867  keys.push(key) */\n      dup1\n      sload\n      0x01\n      dup2\n      add\n      dup3\n      sstore\n      0x00\n      swap2\n      swap1\n      swap2\n      mstore\n      0x405787fa12a823e0f2b7631cc41b3ba8828b3321ca811111fa75cd3aa3bb5ace\n      add\n      tag_155\n        /* \"contracts/Registry.sol\":3863:3866  key */\n      dup4\n        /* \"contracts/Registry.sol\":3853:3867  keys.push(key) */\n      dup3\n      tag_106\n      jump\t// in\n    tag_155:\n      pop\n        /* \"contracts/Registry.sol\":3801:3883  if (bytes(reg[key]).length == 0) {... */\n    tag_153:\n        /* \"contracts/Registry.sol\":3958:3963  value */\n      dup1\n        /* \"contracts/Registry.sol\":3947:3950  reg */\n      0x01\n        /* \"contracts/Registry.sol\":3951:3954  key */\n      dup4\n        /* \"contracts/Registry.sol\":3947:3955  reg[key] */\n      mload(0x40)\n      tag_156\n      swap2\n      swap1\n      tag_100\n      jump\t// in\n    tag_156:\n      swap1\n      dup2\n      mstore\n      0x20\n      add\n      mload(0x40)\n      dup1\n      swap2\n      sub\n      swap1\n      keccak256\n        /* \"contracts/Registry.sol\":3947:3963  reg[key] = value */\n      swap1\n      dup2\n      tag_157\n      swap2\n      swap1\n      tag_106\n      jump\t// in\n    tag_157:\n      pop\n      pop\n      pop\n        /* \"contracts/Registry.sol\":3637:3640  i++ */\n      0x01\n      add\n        /* \"contracts/Registry.sol\":3597:3975  for (uint256 i = 0; i < newKeys.length; i++) {... */\n      jump(tag_143)\n    tag_144:\n      pop\n        /* \"contracts/Registry.sol\":3494:3982  function batchEditRegistry(string[] memory newKeys, string[] memory values) public _regedit {... */\n      pop\n      pop\n      jump\t// out\n        /* \"contracts/Registry.sol\":4215:4470  function getAllValues() public view returns (string[] memory) {... */\n    tag_60:\n        /* \"contracts/Registry.sol\":4326:4330  keys */\n      0x02\n        /* \"contracts/Registry.sol\":4326:4337  keys.length */\n      sload\n        /* \"contracts/Registry.sol\":4260:4275  string[] memory */\n      0x60\n      swap1\n        /* \"contracts/Registry.sol\":4288:4310  string[] memory values */\n      0x00\n      swap1\n        /* \"contracts/Registry.sol\":4313:4338  new string[](keys.length) */\n      0xffffffffffffffff\n      dup2\n      gt\n      iszero\n      tag_160\n      jumpi\n      tag_160\n      tag_161\n      jump\t// in\n    tag_160:\n      mload(0x40)\n      swap1\n      dup1\n      dup3\n      mstore\n      dup1\n      0x20\n      mul\n      0x20\n      add\n      dup3\n      add\n      0x40\n      mstore\n      dup1\n      iszero\n      tag_162\n      jumpi\n      dup2\n      0x20\n      add\n    tag_163:\n      0x60\n      dup2\n      mstore\n      0x20\n      add\n      swap1\n      0x01\n      swap1\n      sub\n      swap1\n      dup2\n      tag_163\n      jumpi\n      swap1\n      pop\n    tag_162:\n      pop\n        /* \"contracts/Registry.sol\":4288:4338  string[] memory values = new string[](keys.length) */\n      swap1\n      pop\n        /* \"contracts/Registry.sol\":4354:4360  uint i */\n      0x00\n        /* \"contracts/Registry.sol\":4349:4439  for (uint i = 0; i < keys.length; i++) {... */\n    tag_164:\n        /* \"contracts/Registry.sol\":4370:4374  keys */\n      0x02\n        /* \"contracts/Registry.sol\":4370:4381  keys.length */\n      sload\n        /* \"contracts/Registry.sol\":4366:4381  i < keys.length */\n      dup2\n      lt\n        /* \"contracts/Registry.sol\":4349:4439  for (uint i = 0; i < keys.length; i++) {... */\n      iszero\n      tag_165\n      jumpi\n        /* \"contracts/Registry.sol\":4415:4418  reg */\n      0x01\n        /* \"contracts/Registry.sol\":4419:4423  keys */\n      0x02\n        /* \"contracts/Registry.sol\":4424:4425  i */\n      dup3\n        /* \"contracts/Registry.sol\":4419:4426  keys[i] */\n      dup2\n      sload\n      dup2\n      lt\n      tag_168\n      jumpi\n      tag_168\n      tag_148\n      jump\t// in\n    tag_168:\n      swap1\n      0x00\n      mstore\n      keccak256(0x00, 0x20)\n      add\n        /* \"contracts/Registry.sol\":4415:4427  reg[keys[i]] */\n      mload(0x40)\n      tag_170\n      swap2\n      swap1\n      tag_171\n      jump\t// in\n    tag_170:\n      swap1\n      dup2\n      mstore\n      0x20\n      add\n      mload(0x40)\n      dup1\n      swap2\n      sub\n      swap1\n      keccak256\n        /* \"contracts/Registry.sol\":4403:4427  values[i] = reg[keys[i]] */\n      dup1\n      sload\n      tag_172\n      swap1\n      tag_102\n      jump\t// in\n    tag_172:\n      dup1\n      0x1f\n      add\n      0x20\n      dup1\n      swap2\n      div\n      mul\n      0x20\n      add\n      mload(0x40)\n      swap1\n      dup2\n      add\n      0x40\n      mstore\n      dup1\n      swap3\n      swap2\n      swap1\n      dup2\n      dup2\n      mstore\n      0x20\n      add\n      dup3\n      dup1\n      sload\n      tag_173\n      swap1\n      tag_102\n      jump\t// in\n    tag_173:\n      dup1\n      iszero\n      tag_174\n      jumpi\n      dup1\n      0x1f\n      lt\n      tag_175\n      jumpi\n      0x0100\n      dup1\n      dup4\n      sload\n      div\n      mul\n      dup4\n      mstore\n      swap2\n      0x20\n      add\n      swap2\n      jump(tag_174)\n    tag_175:\n      dup3\n      add\n      swap2\n      swap1\n      0x00\n      mstore\n      keccak256(0x00, 0x20)\n      swap1\n    tag_176:\n      dup2\n      sload\n      dup2\n      mstore\n      swap1\n      0x01\n      add\n      swap1\n      0x20\n      add\n      dup1\n      dup4\n      gt\n      tag_176\n      jumpi\n      dup3\n      swap1\n      sub\n      0x1f\n      and\n      dup3\n      add\n      swap2\n    tag_174:\n      pop\n      pop\n      pop\n      pop\n      pop\n        /* \"contracts/Registry.sol\":4403:4409  values */\n      dup3\n        /* \"contracts/Registry.sol\":4410:4411  i */\n      dup3\n        /* \"contracts/Registry.sol\":4403:4412  values[i] */\n      dup2\n      mload\n      dup2\n      lt\n      tag_178\n      jumpi\n      tag_178\n      tag_148\n      jump\t// in\n    tag_178:\n      0x20\n      swap1\n      dup2\n      mul\n      swap2\n      swap1\n      swap2\n      add\n      add\n        /* \"contracts/Registry.sol\":4403:4427  values[i] = reg[keys[i]] */\n      mstore\n        /* \"contracts/Registry.sol\":4383:4386  i++ */\n      0x01\n      add\n        /* \"contracts/Registry.sol\":4349:4439  for (uint i = 0; i < keys.length; i++) {... */\n      jump(tag_164)\n    tag_165:\n      pop\n        /* \"contracts/Registry.sol\":4456:4462  values */\n      swap2\n        /* \"contracts/Registry.sol\":4215:4470  function getAllValues() public view returns (string[] memory) {... */\n      swap1\n      pop\n      jump\t// out\n        /* \"contracts/Registry.sol\":2076:2369  function transferERC20(... */\n    tag_66:\n        /* \"contracts/Registry.sol\":559:564  owner */\n      and(sub(shl(0xa0, 0x01), 0x01), sload(0x03))\n        /* \"contracts/Registry.sol\":545:555  msg.sender */\n      caller\n        /* \"contracts/Registry.sol\":545:564  msg.sender == owner */\n      eq\n        /* \"contracts/Registry.sol\":537:601  require(msg.sender == owner , \"Only the DAO can make transfers\") */\n      tag_180\n      jumpi\n      mload(0x40)\n      shl(0xe5, 0x461bcd)\n      dup2\n      mstore\n      0x04\n      add\n      tag_79\n      swap1\n      tag_80\n      jump\t// in\n    tag_180:\n        /* \"contracts/Registry.sol\":2224:2258  IERC20(token).transfer(to, amount) */\n      mload(0x40)\n      shl(0xe0, 0xa9059cbb)\n      dup2\n      mstore\n      sub(shl(0xa0, 0x01), 0x01)\n        /* \"#utility.yul\":14147:14179   */\n      dup4\n      dup2\n      and\n        /* \"contracts/Registry.sol\":2224:2258  IERC20(token).transfer(to, amount) */\n      0x04\n      dup4\n      add\n        /* \"#utility.yul\":14129:14180   */\n      mstore\n        /* \"#utility.yul\":14196:14214   */\n      0x24\n      dup3\n      add\n        /* \"#utility.yul\":14189:14223   */\n      dup4\n      swap1\n      mstore\n        /* \"contracts/Registry.sol\":2209:2221  bool success */\n      0x00\n      swap2\n        /* \"contracts/Registry.sol\":2224:2246  IERC20(token).transfer */\n      swap1\n      dup6\n      and\n      swap1\n      0xa9059cbb\n      swap1\n        /* \"#utility.yul\":14102:14120   */\n      0x44\n      add\n        /* \"contracts/Registry.sol\":2224:2258  IERC20(token).transfer(to, amount) */\n      0x20\n      mload(0x40)\n      dup1\n      dup4\n      sub\n      dup2\n      0x00\n      dup8\n      gas\n      call\n      iszero\n      dup1\n      iszero\n      tag_186\n      jumpi\n      returndatasize\n      0x00\n      dup1\n      returndatacopy\n      revert(0x00, returndatasize)\n    tag_186:\n      pop\n      pop\n      pop\n      pop\n      mload(0x40)\n      returndatasize\n      not(0x1f)\n      0x1f\n      dup3\n      add\n      and\n      dup3\n      add\n      dup1\n      0x40\n      mstore\n      pop\n      dup2\n      add\n      swap1\n      tag_187\n      swap2\n      swap1\n      tag_188\n      jump\t// in\n    tag_187:\n        /* \"contracts/Registry.sol\":2209:2258  bool success = IERC20(token).transfer(to, amount) */\n      swap1\n      pop\n        /* \"contracts/Registry.sol\":2277:2284  success */\n      dup1\n        /* \"contracts/Registry.sol\":2269:2310  require(success, \"ERC20 transfer failed\") */\n      tag_189\n      jumpi\n      mload(0x40)\n      shl(0xe5, 0x461bcd)\n      dup2\n      mstore\n        /* \"#utility.yul\":14718:14720   */\n      0x20\n        /* \"contracts/Registry.sol\":2269:2310  require(success, \"ERC20 transfer failed\") */\n      0x04\n      dup3\n      add\n        /* \"#utility.yul\":14700:14721   */\n      mstore\n        /* \"#utility.yul\":14757:14759   */\n      0x15\n        /* \"#utility.yul\":14737:14755   */\n      0x24\n      dup3\n      add\n        /* \"#utility.yul\":14730:14760   */\n      mstore\n      shl(0x5a, 0x115490cc8c081d1c985b9cd9995c8819985a5b1959)\n        /* \"#utility.yul\":14776:14794   */\n      0x44\n      dup3\n      add\n        /* \"#utility.yul\":14769:14820   */\n      mstore\n        /* \"#utility.yul\":14837:14855   */\n      0x64\n      add\n        /* \"contracts/Registry.sol\":2269:2310  require(success, \"ERC20 transfer failed\") */\n      tag_79\n        /* \"#utility.yul\":14516:14861   */\n      jump\n        /* \"contracts/Registry.sol\":2269:2310  require(success, \"ERC20 transfer failed\") */\n    tag_189:\n        /* \"contracts/Registry.sol\":2350:2352  to */\n      dup3\n      sub(shl(0xa0, 0x01), 0x01)\n        /* \"contracts/Registry.sol\":2326:2361  TransferredERC20(token, to, amount) */\n      and\n        /* \"contracts/Registry.sol\":2343:2348  token */\n      dup5\n      sub(shl(0xa0, 0x01), 0x01)\n        /* \"contracts/Registry.sol\":2326:2361  TransferredERC20(token, to, amount) */\n      and\n      0x3ed03153e9c248019b0420ed4652ed13c51da0ec7ecc09eb2d3b70f2064be64b\n        /* \"contracts/Registry.sol\":2354:2360  amount */\n      dup5\n        /* \"contracts/Registry.sol\":2326:2361  TransferredERC20(token, to, amount) */\n      mload(0x40)\n      tag_192\n      swap2\n        /* \"#utility.yul\":160:185   */\n      dup2\n      mstore\n        /* \"#utility.yul\":148:150   */\n      0x20\n        /* \"#utility.yul\":133:151   */\n      add\n      swap1\n        /* \"#utility.yul\":14:191   */\n      jump\n        /* \"contracts/Registry.sol\":2326:2361  TransferredERC20(token, to, amount) */\n    tag_192:\n      mload(0x40)\n      dup1\n      swap2\n      sub\n      swap1\n      log3\n        /* \"contracts/Registry.sol\":2198:2369  {... */\n      pop\n        /* \"contracts/Registry.sol\":2076:2369  function transferERC20(... */\n      pop\n      pop\n      pop\n      jump\t// out\n        /* \"contracts/Registry.sol\":4117:4207  function getAllKeys() public view returns (string[] memory) {... */\n    tag_73:\n        /* \"contracts/Registry.sol\":4160:4175  string[] memory */\n      0x60\n        /* \"contracts/Registry.sol\":4195:4199  keys */\n      0x02\n        /* \"contracts/Registry.sol\":4188:4199  return keys */\n      dup1\n      sload\n      dup1\n      0x20\n      mul\n      0x20\n      add\n      mload(0x40)\n      swap1\n      dup2\n      add\n      0x40\n      mstore\n      dup1\n      swap3\n      swap2\n      swap1\n      dup2\n      dup2\n      mstore\n      0x20\n      add\n      0x00\n      swap1\n    tag_194:\n      dup3\n      dup3\n      lt\n      iszero\n      tag_195\n      jumpi\n      dup4\n      dup3\n      swap1\n      0x00\n      mstore\n      keccak256(0x00, 0x20)\n      add\n      dup1\n      sload\n      tag_197\n      swap1\n      tag_102\n      jump\t// in\n    tag_197:\n      dup1\n      0x1f\n      add\n      0x20\n      dup1\n      swap2\n      div\n      mul\n      0x20\n      add\n      mload(0x40)\n      swap1\n      dup2\n      add\n      0x40\n      mstore\n      dup1\n      swap3\n      swap2\n      swap1\n      dup2\n      dup2\n      mstore\n      0x20\n      add\n      dup3\n      dup1\n      sload\n      tag_198\n      swap1\n      tag_102\n      jump\t// in\n    tag_198:\n      dup1\n      iszero\n      tag_199\n      jumpi\n      dup1\n      0x1f\n      lt\n      tag_200\n      jumpi\n      0x0100\n      dup1\n      dup4\n      sload\n      div\n      mul\n      dup4\n      mstore\n      swap2\n      0x20\n      add\n      swap2\n      jump(tag_199)\n    tag_200:\n      dup3\n      add\n      swap2\n      swap1\n      0x00\n      mstore\n      keccak256(0x00, 0x20)\n      swap1\n    tag_201:\n      dup2\n      sload\n      dup2\n      mstore\n      swap1\n      0x01\n      add\n      swap1\n      0x20\n      add\n      dup1\n      dup4\n      gt\n      tag_201\n      jumpi\n      dup3\n      swap1\n      sub\n      0x1f\n      and\n      dup3\n      add\n      swap2\n    tag_199:\n      pop\n      pop\n      pop\n      pop\n      pop\n      dup2\n      mstore\n      0x20\n      add\n      swap1\n      0x01\n      add\n      swap1\n      jump(tag_194)\n    tag_195:\n      pop\n      pop\n      pop\n      pop\n      swap1\n      pop\n        /* \"contracts/Registry.sol\":4117:4207  function getAllKeys() public view returns (string[] memory) {... */\n      swap1\n      jump\t// out\n        /* \"contracts/Registry.sol\":2737:2965  function isERC721(address token) internal returns (bool) {... */\n    tag_83:\n        /* \"contracts/Registry.sol\":2809:2873  IERC721(token).safeTransferFrom(address(this), address(this), 0) */\n      mload(0x40)\n      shl(0xe1, 0x21421707)\n      dup2\n      mstore\n        /* \"contracts/Registry.sol\":2849:2853  this */\n      address\n        /* \"contracts/Registry.sol\":2809:2873  IERC721(token).safeTransferFrom(address(this), address(this), 0) */\n      0x04\n      dup3\n      add\n        /* \"#utility.yul\":8316:8350   */\n      dup2\n      swap1\n      mstore\n        /* \"#utility.yul\":8366:8384   */\n      0x24\n      dup3\n      add\n        /* \"#utility.yul\":8359:8402   */\n      mstore\n        /* \"contracts/Registry.sol\":2788:2792  bool */\n      0x00\n        /* \"#utility.yul\":8418:8436   */\n      0x44\n      dup3\n      add\n        /* \"#utility.yul\":8411:8445   */\n      dup2\n      swap1\n      mstore\n        /* \"contracts/Registry.sol\":2788:2792  bool */\n      swap1\n      sub(shl(0xa0, 0x01), 0x01)\n        /* \"contracts/Registry.sol\":2809:2840  IERC721(token).safeTransferFrom */\n      dup4\n      and\n      swap1\n      0x42842e0e\n      swap1\n        /* \"#utility.yul\":8251:8269   */\n      0x64\n      add\n        /* \"contracts/Registry.sol\":2809:2873  IERC721(token).safeTransferFrom(address(this), address(this), 0) */\n      0x00\n      mload(0x40)\n      dup1\n      dup4\n      sub\n      dup2\n      0x00\n      dup8\n      dup1\n      extcodesize\n      iszero\n      dup1\n      iszero\n      tag_205\n      jumpi\n      0x00\n      dup1\n      revert\n    tag_205:\n      pop\n      gas\n      call\n      swap3\n      pop\n      pop\n      pop\n      dup1\n      iszero\n      tag_206\n      jumpi\n      pop\n      0x01\n    tag_206:\n        /* \"contracts/Registry.sol\":2805:2958  try IERC721(token).safeTransferFrom(address(this), address(this), 0) {... */\n      tag_207\n      jumpi\n      pop\n        /* \"contracts/Registry.sol\":2941:2946  false */\n      0x00\n      swap2\n        /* \"contracts/Registry.sol\":2737:2965  function isERC721(address token) internal returns (bool) {... */\n      swap1\n      pop\n      jump\t// out\n        /* \"contracts/Registry.sol\":2805:2958  try IERC721(token).safeTransferFrom(address(this), address(this), 0) {... */\n    tag_207:\n      pop\n        /* \"contracts/Registry.sol\":2896:2900  true */\n      0x01\n      swap2\n        /* \"contracts/Registry.sol\":2737:2965  function isERC721(address token) internal returns (bool) {... */\n      swap1\n      pop\n      jump\t// out\n        /* \"@openzeppelin/contracts/utils/ReentrancyGuard.sol\":2431:2738  function _nonReentrantBefore() private {... */\n    tag_123:\n        /* \"@openzeppelin/contracts/utils/ReentrancyGuard.sol\":1755:1756  2 */\n      0x02\n        /* \"@openzeppelin/contracts/utils/ReentrancyGuard.sol\":2558:2565  _status */\n      sload(0x00)\n        /* \"@openzeppelin/contracts/utils/ReentrancyGuard.sol\":2558:2576  _status == ENTERED */\n      sub\n        /* \"@openzeppelin/contracts/utils/ReentrancyGuard.sol\":2554:2640  if (_status == ENTERED) {... */\n      tag_213\n      jumpi\n        /* \"@openzeppelin/contracts/utils/ReentrancyGuard.sol\":2599:2629  ReentrancyGuardReentrantCall() */\n      mload(0x40)\n      shl(0xe0, 0x3ee5aeb5)\n      dup2\n      mstore\n      0x04\n      add\n      mload(0x40)\n      dup1\n      swap2\n      sub\n      swap1\n      revert\n        /* \"@openzeppelin/contracts/utils/ReentrancyGuard.sol\":2554:2640  if (_status == ENTERED) {... */\n    tag_213:\n        /* \"@openzeppelin/contracts/utils/ReentrancyGuard.sol\":1755:1756  2 */\n      0x02\n        /* \"@openzeppelin/contracts/utils/ReentrancyGuard.sol\":2714:2721  _status */\n      0x00\n        /* \"@openzeppelin/contracts/utils/ReentrancyGuard.sol\":2714:2731  _status = ENTERED */\n      sstore\n        /* \"@openzeppelin/contracts/utils/ReentrancyGuard.sol\":2431:2738  function _nonReentrantBefore() private {... */\n      jump\t// out\n        /* \"#utility.yul\":196:327   */\n    tag_215:\n      sub(shl(0xa0, 0x01), 0x01)\n        /* \"#utility.yul\":271:302   */\n      dup2\n      and\n        /* \"#utility.yul\":261:303   */\n      dup2\n      eq\n        /* \"#utility.yul\":251:321   */\n      tag_227\n      jumpi\n        /* \"#utility.yul\":317:318   */\n      0x00\n        /* \"#utility.yul\":314:315   */\n      dup1\n        /* \"#utility.yul\":307:319   */\n      revert\n        /* \"#utility.yul\":251:321   */\n    tag_227:\n        /* \"#utility.yul\":196:327   */\n      pop\n      jump\t// out\n        /* \"#utility.yul\":332:1268   */\n    tag_22:\n        /* \"#utility.yul\":429:435   */\n      0x00\n        /* \"#utility.yul\":437:443   */\n      dup1\n        /* \"#utility.yul\":445:451   */\n      0x00\n        /* \"#utility.yul\":453:459   */\n      dup1\n        /* \"#utility.yul\":461:467   */\n      0x00\n        /* \"#utility.yul\":514:517   */\n      0x80\n        /* \"#utility.yul\":502:511   */\n      dup7\n        /* \"#utility.yul\":493:500   */\n      dup9\n        /* \"#utility.yul\":489:512   */\n      sub\n        /* \"#utility.yul\":485:518   */\n      slt\n        /* \"#utility.yul\":482:535   */\n      iszero\n      tag_229\n      jumpi\n        /* \"#utility.yul\":531:532   */\n      0x00\n        /* \"#utility.yul\":528:529   */\n      dup1\n        /* \"#utility.yul\":521:533   */\n      revert\n        /* \"#utility.yul\":482:535   */\n    tag_229:\n        /* \"#utility.yul\":570:579   */\n      dup6\n        /* \"#utility.yul\":557:580   */\n      calldataload\n        /* \"#utility.yul\":589:620   */\n      tag_230\n        /* \"#utility.yul\":614:619   */\n      dup2\n        /* \"#utility.yul\":589:620   */\n      tag_215\n      jump\t// in\n    tag_230:\n        /* \"#utility.yul\":639:644   */\n      swap5\n      pop\n        /* \"#utility.yul\":696:698   */\n      0x20\n        /* \"#utility.yul\":681:699   */\n      dup7\n      add\n        /* \"#utility.yul\":668:700   */\n      calldataload\n        /* \"#utility.yul\":709:742   */\n      tag_231\n        /* \"#utility.yul\":668:700   */\n      dup2\n        /* \"#utility.yul\":709:742   */\n      tag_215\n      jump\t// in\n    tag_231:\n        /* \"#utility.yul\":761:768   */\n      swap4\n      pop\n        /* \"#utility.yul\":815:817   */\n      0x40\n        /* \"#utility.yul\":800:818   */\n      dup7\n      add\n        /* \"#utility.yul\":787:819   */\n      calldataload\n      swap3\n      pop\n        /* \"#utility.yul\":870:872   */\n      0x60\n        /* \"#utility.yul\":855:873   */\n      dup7\n      add\n        /* \"#utility.yul\":842:874   */\n      calldataload\n        /* \"#utility.yul\":893:911   */\n      0xffffffffffffffff\n        /* \"#utility.yul\":923:937   */\n      dup1\n      dup3\n      gt\n        /* \"#utility.yul\":920:954   */\n      iszero\n      tag_232\n      jumpi\n        /* \"#utility.yul\":950:951   */\n      0x00\n        /* \"#utility.yul\":947:948   */\n      dup1\n        /* \"#utility.yul\":940:952   */\n      revert\n        /* \"#utility.yul\":920:954   */\n    tag_232:\n        /* \"#utility.yul\":988:994   */\n      dup2\n        /* \"#utility.yul\":977:986   */\n      dup9\n        /* \"#utility.yul\":973:995   */\n      add\n        /* \"#utility.yul\":963:995   */\n      swap2\n      pop\n        /* \"#utility.yul\":1033:1040   */\n      dup9\n        /* \"#utility.yul\":1026:1030   */\n      0x1f\n        /* \"#utility.yul\":1022:1024   */\n      dup4\n        /* \"#utility.yul\":1018:1031   */\n      add\n        /* \"#utility.yul\":1014:1041   */\n      slt\n        /* \"#utility.yul\":1004:1059   */\n      tag_233\n      jumpi\n        /* \"#utility.yul\":1055:1056   */\n      0x00\n        /* \"#utility.yul\":1052:1053   */\n      dup1\n        /* \"#utility.yul\":1045:1057   */\n      revert\n        /* \"#utility.yul\":1004:1059   */\n    tag_233:\n        /* \"#utility.yul\":1095:1097   */\n      dup2\n        /* \"#utility.yul\":1082:1098   */\n      calldataload\n        /* \"#utility.yul\":1121:1123   */\n      dup2\n        /* \"#utility.yul\":1113:1119   */\n      dup2\n        /* \"#utility.yul\":1110:1124   */\n      gt\n        /* \"#utility.yul\":1107:1141   */\n      iszero\n      tag_234\n      jumpi\n        /* \"#utility.yul\":1137:1138   */\n      0x00\n        /* \"#utility.yul\":1134:1135   */\n      dup1\n        /* \"#utility.yul\":1127:1139   */\n      revert\n        /* \"#utility.yul\":1107:1141   */\n    tag_234:\n        /* \"#utility.yul\":1182:1189   */\n      dup10\n        /* \"#utility.yul\":1177:1179   */\n      0x20\n        /* \"#utility.yul\":1168:1174   */\n      dup3\n        /* \"#utility.yul\":1164:1166   */\n      dup6\n        /* \"#utility.yul\":1160:1175   */\n      add\n        /* \"#utility.yul\":1156:1180   */\n      add\n        /* \"#utility.yul\":1153:1190   */\n      gt\n        /* \"#utility.yul\":1150:1207   */\n      iszero\n      tag_235\n      jumpi\n        /* \"#utility.yul\":1203:1204   */\n      0x00\n        /* \"#utility.yul\":1200:1201   */\n      dup1\n        /* \"#utility.yul\":1193:1205   */\n      revert\n        /* \"#utility.yul\":1150:1207   */\n    tag_235:\n        /* \"#utility.yul\":332:1268   */\n      swap7\n      swap10\n      swap6\n      swap9\n      pop\n      swap4\n      swap7\n      pop\n        /* \"#utility.yul\":1234:1236   */\n      0x20\n        /* \"#utility.yul\":1226:1237   */\n      add\n      swap5\n        /* \"#utility.yul\":1256:1262   */\n      swap4\n        /* \"#utility.yul\":332:1268   */\n      swap3\n      pop\n      pop\n      pop\n      jump\t// out\n        /* \"#utility.yul\":1480:1936   */\n    tag_29:\n        /* \"#utility.yul\":1557:1563   */\n      0x00\n        /* \"#utility.yul\":1565:1571   */\n      dup1\n        /* \"#utility.yul\":1573:1579   */\n      0x00\n        /* \"#utility.yul\":1626:1628   */\n      0x60\n        /* \"#utility.yul\":1614:1623   */\n      dup5\n        /* \"#utility.yul\":1605:1612   */\n      dup7\n        /* \"#utility.yul\":1601:1624   */\n      sub\n        /* \"#utility.yul\":1597:1629   */\n      slt\n        /* \"#utility.yul\":1594:1646   */\n      iszero\n      tag_238\n      jumpi\n        /* \"#utility.yul\":1642:1643   */\n      0x00\n        /* \"#utility.yul\":1639:1640   */\n      dup1\n        /* \"#utility.yul\":1632:1644   */\n      revert\n        /* \"#utility.yul\":1594:1646   */\n    tag_238:\n        /* \"#utility.yul\":1681:1690   */\n      dup4\n        /* \"#utility.yul\":1668:1691   */\n      calldataload\n        /* \"#utility.yul\":1700:1731   */\n      tag_239\n        /* \"#utility.yul\":1725:1730   */\n      dup2\n        /* \"#utility.yul\":1700:1731   */\n      tag_215\n      jump\t// in\n    tag_239:\n        /* \"#utility.yul\":1750:1755   */\n      swap3\n      pop\n        /* \"#utility.yul\":1807:1809   */\n      0x20\n        /* \"#utility.yul\":1792:1810   */\n      dup5\n      add\n        /* \"#utility.yul\":1779:1811   */\n      calldataload\n        /* \"#utility.yul\":1820:1853   */\n      tag_240\n        /* \"#utility.yul\":1779:1811   */\n      dup2\n        /* \"#utility.yul\":1820:1853   */\n      tag_215\n      jump\t// in\n    tag_240:\n        /* \"#utility.yul\":1480:1936   */\n      swap3\n      swap6\n        /* \"#utility.yul\":1872:1879   */\n      swap3\n      swap5\n      pop\n      pop\n      pop\n        /* \"#utility.yul\":1926:1928   */\n      0x40\n        /* \"#utility.yul\":1911:1929   */\n      swap2\n      swap1\n      swap2\n      add\n        /* \"#utility.yul\":1898:1930   */\n      calldataload\n      swap1\n        /* \"#utility.yul\":1480:1936   */\n      jump\t// out\n        /* \"#utility.yul\":1941:2068   */\n    tag_161:\n        /* \"#utility.yul\":2002:2012   */\n      0x4e487b71\n        /* \"#utility.yul\":1997:2000   */\n      0xe0\n        /* \"#utility.yul\":1993:2013   */\n      shl\n        /* \"#utility.yul\":1990:1991   */\n      0x00\n        /* \"#utility.yul\":1983:2014   */\n      mstore\n        /* \"#utility.yul\":2033:2037   */\n      0x41\n        /* \"#utility.yul\":2030:2031   */\n      0x04\n        /* \"#utility.yul\":2023:2038   */\n      mstore\n        /* \"#utility.yul\":2057:2061   */\n      0x24\n        /* \"#utility.yul\":2054:2055   */\n      0x00\n        /* \"#utility.yul\":2047:2062   */\n      revert\n        /* \"#utility.yul\":2073:2348   */\n    tag_216:\n        /* \"#utility.yul\":2144:2146   */\n      0x40\n        /* \"#utility.yul\":2138:2147   */\n      mload\n        /* \"#utility.yul\":2209:2211   */\n      0x1f\n        /* \"#utility.yul\":2190:2203   */\n      dup3\n      add\n      not(0x1f)\n        /* \"#utility.yul\":2186:2213   */\n      and\n        /* \"#utility.yul\":2174:2214   */\n      dup2\n      add\n        /* \"#utility.yul\":2244:2262   */\n      0xffffffffffffffff\n        /* \"#utility.yul\":2229:2263   */\n      dup2\n      gt\n        /* \"#utility.yul\":2265:2287   */\n      dup3\n      dup3\n      lt\n        /* \"#utility.yul\":2226:2288   */\n      or\n        /* \"#utility.yul\":2223:2311   */\n      iszero\n      tag_244\n      jumpi\n        /* \"#utility.yul\":2291:2309   */\n      tag_244\n      tag_161\n      jump\t// in\n    tag_244:\n        /* \"#utility.yul\":2327:2329   */\n      0x40\n        /* \"#utility.yul\":2320:2342   */\n      mstore\n        /* \"#utility.yul\":2073:2348   */\n      swap2\n      swap1\n      pop\n      jump\t// out\n        /* \"#utility.yul\":2353:2884   */\n    tag_217:\n        /* \"#utility.yul\":2396:2401   */\n      0x00\n        /* \"#utility.yul\":2449:2452   */\n      dup3\n        /* \"#utility.yul\":2442:2446   */\n      0x1f\n        /* \"#utility.yul\":2434:2440   */\n      dup4\n        /* \"#utility.yul\":2430:2447   */\n      add\n        /* \"#utility.yul\":2426:2453   */\n      slt\n        /* \"#utility.yul\":2416:2471   */\n      tag_246\n      jumpi\n        /* \"#utility.yul\":2467:2468   */\n      0x00\n        /* \"#utility.yul\":2464:2465   */\n      dup1\n        /* \"#utility.yul\":2457:2469   */\n      revert\n        /* \"#utility.yul\":2416:2471   */\n    tag_246:\n        /* \"#utility.yul\":2503:2509   */\n      dup2\n        /* \"#utility.yul\":2490:2510   */\n      calldataload\n        /* \"#utility.yul\":2529:2547   */\n      0xffffffffffffffff\n        /* \"#utility.yul\":2525:2527   */\n      dup2\n        /* \"#utility.yul\":2522:2548   */\n      gt\n        /* \"#utility.yul\":2519:2571   */\n      iszero\n      tag_248\n      jumpi\n        /* \"#utility.yul\":2551:2569   */\n      tag_248\n      tag_161\n      jump\t// in\n    tag_248:\n        /* \"#utility.yul\":2595:2650   */\n      tag_249\n        /* \"#utility.yul\":2638:2640   */\n      0x1f\n        /* \"#utility.yul\":2619:2632   */\n      dup3\n      add\n      not(0x1f)\n        /* \"#utility.yul\":2615:2642   */\n      and\n        /* \"#utility.yul\":2644:2648   */\n      0x20\n        /* \"#utility.yul\":2611:2649   */\n      add\n        /* \"#utility.yul\":2595:2650   */\n      tag_216\n      jump\t// in\n    tag_249:\n        /* \"#utility.yul\":2675:2677   */\n      dup2\n        /* \"#utility.yul\":2666:2673   */\n      dup2\n        /* \"#utility.yul\":2659:2678   */\n      mstore\n        /* \"#utility.yul\":2721:2724   */\n      dup5\n        /* \"#utility.yul\":2714:2718   */\n      0x20\n        /* \"#utility.yul\":2709:2711   */\n      dup4\n        /* \"#utility.yul\":2701:2707   */\n      dup7\n        /* \"#utility.yul\":2697:2712   */\n      add\n        /* \"#utility.yul\":2693:2719   */\n      add\n        /* \"#utility.yul\":2690:2725   */\n      gt\n        /* \"#utility.yul\":2687:2742   */\n      iszero\n      tag_250\n      jumpi\n        /* \"#utility.yul\":2738:2739   */\n      0x00\n        /* \"#utility.yul\":2735:2736   */\n      dup1\n        /* \"#utility.yul\":2728:2740   */\n      revert\n        /* \"#utility.yul\":2687:2742   */\n    tag_250:\n        /* \"#utility.yul\":2803:2805   */\n      dup2\n        /* \"#utility.yul\":2796:2800   */\n      0x20\n        /* \"#utility.yul\":2788:2794   */\n      dup6\n        /* \"#utility.yul\":2784:2801   */\n      add\n        /* \"#utility.yul\":2777:2781   */\n      0x20\n        /* \"#utility.yul\":2768:2775   */\n      dup4\n        /* \"#utility.yul\":2764:2782   */\n      add\n        /* \"#utility.yul\":2751:2806   */\n      calldatacopy\n        /* \"#utility.yul\":2851:2852   */\n      0x00\n        /* \"#utility.yul\":2826:2842   */\n      swap2\n      dup2\n      add\n        /* \"#utility.yul\":2844:2848   */\n      0x20\n        /* \"#utility.yul\":2822:2849   */\n      add\n        /* \"#utility.yul\":2815:2853   */\n      swap2\n      swap1\n      swap2\n      mstore\n        /* \"#utility.yul\":2830:2837   */\n      swap4\n        /* \"#utility.yul\":2353:2884   */\n      swap3\n      pop\n      pop\n      pop\n      jump\t// out\n        /* \"#utility.yul\":2889:3432   */\n    tag_34:\n        /* \"#utility.yul\":2977:2983   */\n      0x00\n        /* \"#utility.yul\":2985:2991   */\n      dup1\n        /* \"#utility.yul\":3038:3040   */\n      0x40\n        /* \"#utility.yul\":3026:3035   */\n      dup4\n        /* \"#utility.yul\":3017:3024   */\n      dup6\n        /* \"#utility.yul\":3013:3036   */\n      sub\n        /* \"#utility.yul\":3009:3041   */\n      slt\n        /* \"#utility.yul\":3006:3058   */\n      iszero\n      tag_252\n      jumpi\n        /* \"#utility.yul\":3054:3055   */\n      0x00\n        /* \"#utility.yul\":3051:3052   */\n      dup1\n        /* \"#utility.yul\":3044:3056   */\n      revert\n        /* \"#utility.yul\":3006:3058   */\n    tag_252:\n        /* \"#utility.yul\":3094:3103   */\n      dup3\n        /* \"#utility.yul\":3081:3104   */\n      calldataload\n        /* \"#utility.yul\":3123:3141   */\n      0xffffffffffffffff\n        /* \"#utility.yul\":3164:3166   */\n      dup1\n        /* \"#utility.yul\":3156:3162   */\n      dup3\n        /* \"#utility.yul\":3153:3167   */\n      gt\n        /* \"#utility.yul\":3150:3184   */\n      iszero\n      tag_253\n      jumpi\n        /* \"#utility.yul\":3180:3181   */\n      0x00\n        /* \"#utility.yul\":3177:3178   */\n      dup1\n        /* \"#utility.yul\":3170:3182   */\n      revert\n        /* \"#utility.yul\":3150:3184   */\n    tag_253:\n        /* \"#utility.yul\":3203:3253   */\n      tag_254\n        /* \"#utility.yul\":3245:3252   */\n      dup7\n        /* \"#utility.yul\":3236:3242   */\n      dup4\n        /* \"#utility.yul\":3225:3234   */\n      dup8\n        /* \"#utility.yul\":3221:3243   */\n      add\n        /* \"#utility.yul\":3203:3253   */\n      tag_217\n      jump\t// in\n    tag_254:\n        /* \"#utility.yul\":3193:3253   */\n      swap4\n      pop\n        /* \"#utility.yul\":3306:3308   */\n      0x20\n        /* \"#utility.yul\":3295:3304   */\n      dup6\n        /* \"#utility.yul\":3291:3309   */\n      add\n        /* \"#utility.yul\":3278:3310   */\n      calldataload\n        /* \"#utility.yul\":3262:3310   */\n      swap2\n      pop\n        /* \"#utility.yul\":3335:3337   */\n      dup1\n        /* \"#utility.yul\":3325:3333   */\n      dup3\n        /* \"#utility.yul\":3322:3338   */\n      gt\n        /* \"#utility.yul\":3319:3355   */\n      iszero\n      tag_255\n      jumpi\n        /* \"#utility.yul\":3351:3352   */\n      0x00\n        /* \"#utility.yul\":3348:3349   */\n      dup1\n        /* \"#utility.yul\":3341:3353   */\n      revert\n        /* \"#utility.yul\":3319:3355   */\n    tag_255:\n      pop\n        /* \"#utility.yul\":3374:3426   */\n      tag_256\n        /* \"#utility.yul\":3418:3425   */\n      dup6\n        /* \"#utility.yul\":3407:3415   */\n      dup3\n        /* \"#utility.yul\":3396:3405   */\n      dup7\n        /* \"#utility.yul\":3392:3416   */\n      add\n        /* \"#utility.yul\":3374:3426   */\n      tag_217\n      jump\t// in\n    tag_256:\n        /* \"#utility.yul\":3364:3426   */\n      swap2\n      pop\n      pop\n        /* \"#utility.yul\":2889:3432   */\n      swap3\n      pop\n      swap3\n      swap1\n      pop\n      jump\t// out\n        /* \"#utility.yul\":3437:3759   */\n    tag_39:\n        /* \"#utility.yul\":3506:3512   */\n      0x00\n        /* \"#utility.yul\":3559:3561   */\n      0x20\n        /* \"#utility.yul\":3547:3556   */\n      dup3\n        /* \"#utility.yul\":3538:3545   */\n      dup5\n        /* \"#utility.yul\":3534:3557   */\n      sub\n        /* \"#utility.yul\":3530:3562   */\n      slt\n        /* \"#utility.yul\":3527:3579   */\n      iszero\n      tag_258\n      jumpi\n        /* \"#utility.yul\":3575:3576   */\n      0x00\n        /* \"#utility.yul\":3572:3573   */\n      dup1\n        /* \"#utility.yul\":3565:3577   */\n      revert\n        /* \"#utility.yul\":3527:3579   */\n    tag_258:\n        /* \"#utility.yul\":3615:3624   */\n      dup2\n        /* \"#utility.yul\":3602:3625   */\n      calldataload\n        /* \"#utility.yul\":3648:3666   */\n      0xffffffffffffffff\n        /* \"#utility.yul\":3640:3646   */\n      dup2\n        /* \"#utility.yul\":3637:3667   */\n      gt\n        /* \"#utility.yul\":3634:3684   */\n      iszero\n      tag_259\n      jumpi\n        /* \"#utility.yul\":3680:3681   */\n      0x00\n        /* \"#utility.yul\":3677:3678   */\n      dup1\n        /* \"#utility.yul\":3670:3682   */\n      revert\n        /* \"#utility.yul\":3634:3684   */\n    tag_259:\n        /* \"#utility.yul\":3703:3753   */\n      tag_260\n        /* \"#utility.yul\":3745:3752   */\n      dup5\n        /* \"#utility.yul\":3736:3742   */\n      dup3\n        /* \"#utility.yul\":3725:3734   */\n      dup6\n        /* \"#utility.yul\":3721:3743   */\n      add\n        /* \"#utility.yul\":3703:3753   */\n      tag_217\n      jump\t// in\n    tag_260:\n        /* \"#utility.yul\":3693:3753   */\n      swap5\n        /* \"#utility.yul\":3437:3759   */\n      swap4\n      pop\n      pop\n      pop\n      pop\n      jump\t// out\n        /* \"#utility.yul\":3764:4014   */\n    tag_218:\n        /* \"#utility.yul\":3849:3850   */\n      0x00\n        /* \"#utility.yul\":3859:3972   */\n    tag_262:\n        /* \"#utility.yul\":3873:3879   */\n      dup4\n        /* \"#utility.yul\":3870:3871   */\n      dup2\n        /* \"#utility.yul\":3867:3880   */\n      lt\n        /* \"#utility.yul\":3859:3972   */\n      iszero\n      tag_264\n      jumpi\n        /* \"#utility.yul\":3949:3960   */\n      dup2\n      dup2\n      add\n        /* \"#utility.yul\":3943:3961   */\n      mload\n        /* \"#utility.yul\":3930:3941   */\n      dup4\n      dup3\n      add\n        /* \"#utility.yul\":3923:3962   */\n      mstore\n        /* \"#utility.yul\":3895:3897   */\n      0x20\n        /* \"#utility.yul\":3888:3898   */\n      add\n        /* \"#utility.yul\":3859:3972   */\n      jump(tag_262)\n    tag_264:\n      pop\n      pop\n        /* \"#utility.yul\":4006:4007   */\n      0x00\n        /* \"#utility.yul\":3988:4004   */\n      swap2\n      add\n        /* \"#utility.yul\":3981:4008   */\n      mstore\n        /* \"#utility.yul\":3764:4014   */\n      jump\t// out\n        /* \"#utility.yul\":4019:4290   */\n    tag_219:\n        /* \"#utility.yul\":4061:4064   */\n      0x00\n        /* \"#utility.yul\":4099:4104   */\n      dup2\n        /* \"#utility.yul\":4093:4105   */\n      mload\n        /* \"#utility.yul\":4126:4132   */\n      dup1\n        /* \"#utility.yul\":4121:4124   */\n      dup5\n        /* \"#utility.yul\":4114:4133   */\n      mstore\n        /* \"#utility.yul\":4142:4218   */\n      tag_266\n        /* \"#utility.yul\":4211:4217   */\n      dup2\n        /* \"#utility.yul\":4204:4208   */\n      0x20\n        /* \"#utility.yul\":4199:4202   */\n      dup7\n        /* \"#utility.yul\":4195:4209   */\n      add\n        /* \"#utility.yul\":4188:4192   */\n      0x20\n        /* \"#utility.yul\":4181:4186   */\n      dup7\n        /* \"#utility.yul\":4177:4193   */\n      add\n        /* \"#utility.yul\":4142:4218   */\n      tag_218\n      jump\t// in\n    tag_266:\n        /* \"#utility.yul\":4272:4274   */\n      0x1f\n        /* \"#utility.yul\":4251:4266   */\n      add\n      not(0x1f)\n        /* \"#utility.yul\":4247:4276   */\n      and\n        /* \"#utility.yul\":4238:4277   */\n      swap3\n      swap1\n      swap3\n      add\n        /* \"#utility.yul\":4279:4283   */\n      0x20\n        /* \"#utility.yul\":4234:4284   */\n      add\n      swap3\n        /* \"#utility.yul\":4019:4290   */\n      swap2\n      pop\n      pop\n      jump\t// out\n        /* \"#utility.yul\":4295:4515   */\n    tag_42:\n        /* \"#utility.yul\":4444:4446   */\n      0x20\n        /* \"#utility.yul\":4433:4442   */\n      dup2\n        /* \"#utility.yul\":4426:4447   */\n      mstore\n        /* \"#utility.yul\":4407:4411   */\n      0x00\n        /* \"#utility.yul\":4464:4509   */\n      tag_268\n        /* \"#utility.yul\":4505:4507   */\n      0x20\n        /* \"#utility.yul\":4494:4503   */\n      dup4\n        /* \"#utility.yul\":4490:4508   */\n      add\n        /* \"#utility.yul\":4482:4488   */\n      dup5\n        /* \"#utility.yul\":4464:4509   */\n      tag_219\n      jump\t// in\n    tag_268:\n        /* \"#utility.yul\":4456:4509   */\n      swap4\n        /* \"#utility.yul\":4295:4515   */\n      swap3\n      pop\n      pop\n      pop\n      jump\t// out\n        /* \"#utility.yul\":4520:4843   */\n    tag_46:\n        /* \"#utility.yul\":4596:4602   */\n      0x00\n        /* \"#utility.yul\":4604:4610   */\n      dup1\n        /* \"#utility.yul\":4657:4659   */\n      0x40\n        /* \"#utility.yul\":4645:4654   */\n      dup4\n        /* \"#utility.yul\":4636:4643   */\n      dup6\n        /* \"#utility.yul\":4632:4655   */\n      sub\n        /* \"#utility.yul\":4628:4660   */\n      slt\n        /* \"#utility.yul\":4625:4677   */\n      iszero\n      tag_270\n      jumpi\n        /* \"#utility.yul\":4673:4674   */\n      0x00\n        /* \"#utility.yul\":4670:4671   */\n      dup1\n        /* \"#utility.yul\":4663:4675   */\n      revert\n        /* \"#utility.yul\":4625:4677   */\n    tag_270:\n        /* \"#utility.yul\":4712:4721   */\n      dup3\n        /* \"#utility.yul\":4699:4722   */\n      calldataload\n        /* \"#utility.yul\":4731:4762   */\n      tag_271\n        /* \"#utility.yul\":4756:4761   */\n      dup2\n        /* \"#utility.yul\":4731:4762   */\n      tag_215\n      jump\t// in\n    tag_271:\n        /* \"#utility.yul\":4781:4786   */\n      swap5\n        /* \"#utility.yul\":4833:4835   */\n      0x20\n        /* \"#utility.yul\":4818:4836   */\n      swap4\n      swap1\n      swap4\n      add\n        /* \"#utility.yul\":4805:4837   */\n      calldataload\n      swap4\n      pop\n      pop\n      pop\n        /* \"#utility.yul\":4520:4843   */\n      jump\t// out\n        /* \"#utility.yul\":4848:5721   */\n    tag_220:\n        /* \"#utility.yul\":4901:4906   */\n      0x00\n        /* \"#utility.yul\":4954:4957   */\n      dup3\n        /* \"#utility.yul\":4947:4951   */\n      0x1f\n        /* \"#utility.yul\":4939:4945   */\n      dup4\n        /* \"#utility.yul\":4935:4952   */\n      add\n        /* \"#utility.yul\":4931:4958   */\n      slt\n        /* \"#utility.yul\":4921:4976   */\n      tag_273\n      jumpi\n        /* \"#utility.yul\":4972:4973   */\n      0x00\n        /* \"#utility.yul\":4969:4970   */\n      dup1\n        /* \"#utility.yul\":4962:4974   */\n      revert\n        /* \"#utility.yul\":4921:4976   */\n    tag_273:\n        /* \"#utility.yul\":5008:5014   */\n      dup2\n        /* \"#utility.yul\":4995:5015   */\n      calldataload\n        /* \"#utility.yul\":5034:5038   */\n      0x20\n        /* \"#utility.yul\":5057:5075   */\n      0xffffffffffffffff\n        /* \"#utility.yul\":5094:5096   */\n      dup1\n        /* \"#utility.yul\":5090:5092   */\n      dup4\n        /* \"#utility.yul\":5087:5097   */\n      gt\n        /* \"#utility.yul\":5084:5120   */\n      iszero\n      tag_275\n      jumpi\n        /* \"#utility.yul\":5100:5118   */\n      tag_275\n      tag_161\n      jump\t// in\n    tag_275:\n        /* \"#utility.yul\":5146:5148   */\n      dup3\n        /* \"#utility.yul\":5143:5144   */\n      0x05\n        /* \"#utility.yul\":5139:5149   */\n      shl\n        /* \"#utility.yul\":5169:5197   */\n      tag_276\n        /* \"#utility.yul\":5193:5195   */\n      dup4\n        /* \"#utility.yul\":5189:5191   */\n      dup3\n        /* \"#utility.yul\":5185:5196   */\n      add\n        /* \"#utility.yul\":5169:5197   */\n      tag_216\n      jump\t// in\n    tag_276:\n        /* \"#utility.yul\":5231:5246   */\n      swap4\n      dup5\n      mstore\n        /* \"#utility.yul\":5301:5316   */\n      dup6\n      dup2\n      add\n        /* \"#utility.yul\":5297:5321   */\n      dup4\n      add\n      swap4\n        /* \"#utility.yul\":5262:5274   */\n      dup4\n      dup2\n      add\n      swap1\n        /* \"#utility.yul\":5333:5348   */\n      dup9\n      dup7\n      gt\n        /* \"#utility.yul\":5330:5365   */\n      iszero\n      tag_277\n      jumpi\n        /* \"#utility.yul\":5361:5362   */\n      0x00\n        /* \"#utility.yul\":5358:5359   */\n      dup1\n        /* \"#utility.yul\":5351:5363   */\n      revert\n        /* \"#utility.yul\":5330:5365   */\n    tag_277:\n        /* \"#utility.yul\":5397:5399   */\n      dup5\n        /* \"#utility.yul\":5389:5395   */\n      dup9\n        /* \"#utility.yul\":5385:5400   */\n      add\n        /* \"#utility.yul\":5374:5400   */\n      swap3\n      pop\n        /* \"#utility.yul\":5409:5692   */\n    tag_278:\n        /* \"#utility.yul\":5425:5431   */\n      dup6\n        /* \"#utility.yul\":5420:5423   */\n      dup4\n        /* \"#utility.yul\":5417:5432   */\n      lt\n        /* \"#utility.yul\":5409:5692   */\n      iszero\n      tag_280\n      jumpi\n        /* \"#utility.yul\":5511:5514   */\n      dup3\n        /* \"#utility.yul\":5498:5515   */\n      calldataload\n        /* \"#utility.yul\":5547:5549   */\n      dup5\n        /* \"#utility.yul\":5534:5545   */\n      dup2\n        /* \"#utility.yul\":5531:5550   */\n      gt\n        /* \"#utility.yul\":5528:5567   */\n      iszero\n      tag_281\n      jumpi\n        /* \"#utility.yul\":5563:5564   */\n      0x00\n        /* \"#utility.yul\":5560:5561   */\n      dup1\n        /* \"#utility.yul\":5553:5565   */\n      revert\n        /* \"#utility.yul\":5528:5567   */\n    tag_281:\n        /* \"#utility.yul\":5592:5649   */\n      tag_282\n        /* \"#utility.yul\":5645:5648   */\n      dup11\n        /* \"#utility.yul\":5640:5642   */\n      dup8\n        /* \"#utility.yul\":5626:5637   */\n      dup4\n        /* \"#utility.yul\":5618:5624   */\n      dup13\n        /* \"#utility.yul\":5614:5638   */\n      add\n        /* \"#utility.yul\":5610:5643   */\n      add\n        /* \"#utility.yul\":5592:5649   */\n      tag_217\n      jump\t// in\n    tag_282:\n        /* \"#utility.yul\":5580:5650   */\n      dup4\n      mstore\n      pop\n        /* \"#utility.yul\":5442:5454   */\n      swap2\n      dup5\n      add\n      swap2\n        /* \"#utility.yul\":5670:5682   */\n      swap1\n      dup5\n      add\n      swap1\n        /* \"#utility.yul\":5409:5692   */\n      jump(tag_278)\n    tag_280:\n        /* \"#utility.yul\":5710:5715   */\n      swap9\n        /* \"#utility.yul\":4848:5721   */\n      swap8\n      pop\n      pop\n      pop\n      pop\n      pop\n      pop\n      pop\n      pop\n      jump\t// out\n        /* \"#utility.yul\":5726:6339   */\n    tag_51:\n        /* \"#utility.yul\":5864:5870   */\n      0x00\n        /* \"#utility.yul\":5872:5878   */\n      dup1\n        /* \"#utility.yul\":5925:5927   */\n      0x40\n        /* \"#utility.yul\":5913:5922   */\n      dup4\n        /* \"#utility.yul\":5904:5911   */\n      dup6\n        /* \"#utility.yul\":5900:5923   */\n      sub\n        /* \"#utility.yul\":5896:5928   */\n      slt\n        /* \"#utility.yul\":5893:5945   */\n      iszero\n      tag_284\n      jumpi\n        /* \"#utility.yul\":5941:5942   */\n      0x00\n        /* \"#utility.yul\":5938:5939   */\n      dup1\n        /* \"#utility.yul\":5931:5943   */\n      revert\n        /* \"#utility.yul\":5893:5945   */\n    tag_284:\n        /* \"#utility.yul\":5981:5990   */\n      dup3\n        /* \"#utility.yul\":5968:5991   */\n      calldataload\n        /* \"#utility.yul\":6010:6028   */\n      0xffffffffffffffff\n        /* \"#utility.yul\":6051:6053   */\n      dup1\n        /* \"#utility.yul\":6043:6049   */\n      dup3\n        /* \"#utility.yul\":6040:6054   */\n      gt\n        /* \"#utility.yul\":6037:6071   */\n      iszero\n      tag_285\n      jumpi\n        /* \"#utility.yul\":6067:6068   */\n      0x00\n        /* \"#utility.yul\":6064:6065   */\n      dup1\n        /* \"#utility.yul\":6057:6069   */\n      revert\n        /* \"#utility.yul\":6037:6071   */\n    tag_285:\n        /* \"#utility.yul\":6090:6150   */\n      tag_286\n        /* \"#utility.yul\":6142:6149   */\n      dup7\n        /* \"#utility.yul\":6133:6139   */\n      dup4\n        /* \"#utility.yul\":6122:6131   */\n      dup8\n        /* \"#utility.yul\":6118:6140   */\n      add\n        /* \"#utility.yul\":6090:6150   */\n      tag_220\n      jump\t// in\n    tag_286:\n        /* \"#utility.yul\":6080:6150   */\n      swap4\n      pop\n        /* \"#utility.yul\":6203:6205   */\n      0x20\n        /* \"#utility.yul\":6192:6201   */\n      dup6\n        /* \"#utility.yul\":6188:6206   */\n      add\n        /* \"#utility.yul\":6175:6207   */\n      calldataload\n        /* \"#utility.yul\":6159:6207   */\n      swap2\n      pop\n        /* \"#utility.yul\":6232:6234   */\n      dup1\n        /* \"#utility.yul\":6222:6230   */\n      dup3\n        /* \"#utility.yul\":6219:6235   */\n      gt\n        /* \"#utility.yul\":6216:6252   */\n      iszero\n      tag_287\n      jumpi\n        /* \"#utility.yul\":6248:6249   */\n      0x00\n        /* \"#utility.yul\":6245:6246   */\n      dup1\n        /* \"#utility.yul\":6238:6250   */\n      revert\n        /* \"#utility.yul\":6216:6252   */\n    tag_287:\n      pop\n        /* \"#utility.yul\":6271:6333   */\n      tag_256\n        /* \"#utility.yul\":6325:6332   */\n      dup6\n        /* \"#utility.yul\":6314:6322   */\n      dup3\n        /* \"#utility.yul\":6303:6312   */\n      dup7\n        /* \"#utility.yul\":6299:6323   */\n      add\n        /* \"#utility.yul\":6271:6333   */\n      tag_220\n      jump\t// in\n        /* \"#utility.yul\":6552:7355   */\n    tag_62:\n        /* \"#utility.yul\":6714:6718   */\n      0x00\n        /* \"#utility.yul\":6743:6745   */\n      0x20\n        /* \"#utility.yul\":6783:6785   */\n      dup1\n        /* \"#utility.yul\":6772:6781   */\n      dup4\n        /* \"#utility.yul\":6768:6786   */\n      add\n        /* \"#utility.yul\":6813:6815   */\n      0x20\n        /* \"#utility.yul\":6802:6811   */\n      dup5\n        /* \"#utility.yul\":6795:6816   */\n      mstore\n        /* \"#utility.yul\":6836:6842   */\n      dup1\n        /* \"#utility.yul\":6871:6877   */\n      dup6\n        /* \"#utility.yul\":6865:6878   */\n      mload\n        /* \"#utility.yul\":6902:6908   */\n      dup1\n        /* \"#utility.yul\":6894:6900   */\n      dup4\n        /* \"#utility.yul\":6887:6909   */\n      mstore\n        /* \"#utility.yul\":6940:6942   */\n      0x40\n        /* \"#utility.yul\":6929:6938   */\n      dup7\n        /* \"#utility.yul\":6925:6943   */\n      add\n        /* \"#utility.yul\":6918:6943   */\n      swap2\n      pop\n        /* \"#utility.yul\":7002:7004   */\n      0x40\n        /* \"#utility.yul\":6992:6998   */\n      dup2\n        /* \"#utility.yul\":6989:6990   */\n      0x05\n        /* \"#utility.yul\":6985:6999   */\n      shl\n        /* \"#utility.yul\":6974:6983   */\n      dup8\n        /* \"#utility.yul\":6970:7000   */\n      add\n        /* \"#utility.yul\":6966:7005   */\n      add\n        /* \"#utility.yul\":6952:7005   */\n      swap3\n      pop\n        /* \"#utility.yul\":7040:7042   */\n      0x20\n        /* \"#utility.yul\":7032:7038   */\n      dup8\n        /* \"#utility.yul\":7028:7043   */\n      add\n        /* \"#utility.yul\":7061:7062   */\n      0x00\n        /* \"#utility.yul\":7071:7326   */\n    tag_291:\n        /* \"#utility.yul\":7085:7091   */\n      dup3\n        /* \"#utility.yul\":7082:7083   */\n      dup2\n        /* \"#utility.yul\":7079:7092   */\n      lt\n        /* \"#utility.yul\":7071:7326   */\n      iszero\n      tag_293\n      jumpi\n        /* \"#utility.yul\":7178:7180   */\n      0x3f\n        /* \"#utility.yul\":7174:7181   */\n      not\n        /* \"#utility.yul\":7162:7171   */\n      dup9\n        /* \"#utility.yul\":7154:7160   */\n      dup7\n        /* \"#utility.yul\":7150:7172   */\n      sub\n        /* \"#utility.yul\":7146:7182   */\n      add\n        /* \"#utility.yul\":7141:7144   */\n      dup5\n        /* \"#utility.yul\":7134:7183   */\n      mstore\n        /* \"#utility.yul\":7206:7246   */\n      tag_294\n        /* \"#utility.yul\":7239:7245   */\n      dup6\n        /* \"#utility.yul\":7230:7236   */\n      dup4\n        /* \"#utility.yul\":7224:7237   */\n      mload\n        /* \"#utility.yul\":7206:7246   */\n      tag_219\n      jump\t// in\n    tag_294:\n        /* \"#utility.yul\":7196:7246   */\n      swap5\n      pop\n        /* \"#utility.yul\":7304:7316   */\n      swap3\n      dup6\n      add\n      swap3\n        /* \"#utility.yul\":7269:7284   */\n      swap1\n      dup6\n      add\n      swap1\n        /* \"#utility.yul\":7107:7108   */\n      0x01\n        /* \"#utility.yul\":7100:7109   */\n      add\n        /* \"#utility.yul\":7071:7326   */\n      jump(tag_291)\n    tag_293:\n      pop\n        /* \"#utility.yul\":7343:7349   */\n      swap3\n      swap8\n        /* \"#utility.yul\":6552:7355   */\n      swap7\n      pop\n      pop\n      pop\n      pop\n      pop\n      pop\n      pop\n      jump\t// out\n        /* \"#utility.yul\":7360:7715   */\n    tag_80:\n        /* \"#utility.yul\":7562:7564   */\n      0x20\n        /* \"#utility.yul\":7544:7565   */\n      dup1\n      dup3\n      mstore\n        /* \"#utility.yul\":7601:7603   */\n      0x1f\n        /* \"#utility.yul\":7581:7599   */\n      swap1\n      dup3\n      add\n        /* \"#utility.yul\":7574:7604   */\n      mstore\n        /* \"#utility.yul\":7640:7673   */\n      0x4f6e6c79207468652044414f2063616e206d616b65207472616e736665727300\n        /* \"#utility.yul\":7635:7637   */\n      0x40\n        /* \"#utility.yul\":7620:7638   */\n      dup3\n      add\n        /* \"#utility.yul\":7613:7674   */\n      mstore\n        /* \"#utility.yul\":7706:7708   */\n      0x60\n        /* \"#utility.yul\":7691:7709   */\n      add\n      swap1\n        /* \"#utility.yul\":7360:7715   */\n      jump\t// out\n        /* \"#utility.yul\":8815:9104   */\n    tag_100:\n        /* \"#utility.yul\":8946:8949   */\n      0x00\n        /* \"#utility.yul\":8984:8990   */\n      dup3\n        /* \"#utility.yul\":8978:8991   */\n      mload\n        /* \"#utility.yul\":9000:9066   */\n      tag_300\n        /* \"#utility.yul\":9059:9065   */\n      dup2\n        /* \"#utility.yul\":9054:9057   */\n      dup5\n        /* \"#utility.yul\":9047:9051   */\n      0x20\n        /* \"#utility.yul\":9039:9045   */\n      dup8\n        /* \"#utility.yul\":9035:9052   */\n      add\n        /* \"#utility.yul\":9000:9066   */\n      tag_218\n      jump\t// in\n    tag_300:\n        /* \"#utility.yul\":9082:9098   */\n      swap2\n      swap1\n      swap2\n      add\n      swap3\n        /* \"#utility.yul\":8815:9104   */\n      swap2\n      pop\n      pop\n      jump\t// out\n        /* \"#utility.yul\":9109:9489   */\n    tag_102:\n        /* \"#utility.yul\":9188:9189   */\n      0x01\n        /* \"#utility.yul\":9184:9196   */\n      dup2\n      dup2\n      shr\n      swap1\n        /* \"#utility.yul\":9231:9243   */\n      dup3\n      and\n      dup1\n        /* \"#utility.yul\":9252:9313   */\n      tag_302\n      jumpi\n        /* \"#utility.yul\":9306:9310   */\n      0x7f\n        /* \"#utility.yul\":9298:9304   */\n      dup3\n        /* \"#utility.yul\":9294:9311   */\n      and\n        /* \"#utility.yul\":9284:9311   */\n      swap2\n      pop\n        /* \"#utility.yul\":9252:9313   */\n    tag_302:\n        /* \"#utility.yul\":9359:9361   */\n      0x20\n        /* \"#utility.yul\":9351:9357   */\n      dup3\n        /* \"#utility.yul\":9348:9362   */\n      lt\n        /* \"#utility.yul\":9328:9346   */\n      dup2\n        /* \"#utility.yul\":9325:9363   */\n      sub\n        /* \"#utility.yul\":9322:9483   */\n      tag_165\n      jumpi\n        /* \"#utility.yul\":9405:9415   */\n      0x4e487b71\n        /* \"#utility.yul\":9400:9403   */\n      0xe0\n        /* \"#utility.yul\":9396:9416   */\n      shl\n        /* \"#utility.yul\":9393:9394   */\n      0x00\n        /* \"#utility.yul\":9386:9417   */\n      mstore\n        /* \"#utility.yul\":9440:9444   */\n      0x22\n        /* \"#utility.yul\":9437:9438   */\n      0x04\n        /* \"#utility.yul\":9430:9445   */\n      mstore\n        /* \"#utility.yul\":9468:9472   */\n      0x24\n        /* \"#utility.yul\":9465:9466   */\n      0x00\n        /* \"#utility.yul\":9458:9473   */\n      revert\n        /* \"#utility.yul\":9620:10138   */\n    tag_222:\n        /* \"#utility.yul\":9722:9724   */\n      0x1f\n        /* \"#utility.yul\":9717:9720   */\n      dup3\n        /* \"#utility.yul\":9714:9725   */\n      gt\n        /* \"#utility.yul\":9711:10132   */\n      iszero\n      tag_144\n      jumpi\n        /* \"#utility.yul\":9758:9763   */\n      dup1\n        /* \"#utility.yul\":9755:9756   */\n      0x00\n        /* \"#utility.yul\":9748:9764   */\n      mstore\n        /* \"#utility.yul\":9802:9806   */\n      0x20\n        /* \"#utility.yul\":9799:9800   */\n      0x00\n        /* \"#utility.yul\":9789:9807   */\n      keccak256\n        /* \"#utility.yul\":9872:9874   */\n      0x1f\n        /* \"#utility.yul\":9860:9870   */\n      dup5\n        /* \"#utility.yul\":9856:9875   */\n      add\n        /* \"#utility.yul\":9853:9854   */\n      0x05\n        /* \"#utility.yul\":9849:9876   */\n      shr\n        /* \"#utility.yul\":9843:9847   */\n      dup2\n        /* \"#utility.yul\":9839:9877   */\n      add\n        /* \"#utility.yul\":9908:9912   */\n      0x20\n        /* \"#utility.yul\":9896:9906   */\n      dup6\n        /* \"#utility.yul\":9893:9913   */\n      lt\n        /* \"#utility.yul\":9890:9937   */\n      iszero\n      tag_307\n      jumpi\n      pop\n        /* \"#utility.yul\":9931:9935   */\n      dup1\n        /* \"#utility.yul\":9890:9937   */\n    tag_307:\n        /* \"#utility.yul\":9986:9988   */\n      0x1f\n        /* \"#utility.yul\":9981:9984   */\n      dup5\n        /* \"#utility.yul\":9977:9989   */\n      add\n        /* \"#utility.yul\":9974:9975   */\n      0x05\n        /* \"#utility.yul\":9970:9990   */\n      shr\n        /* \"#utility.yul\":9964:9968   */\n      dup3\n        /* \"#utility.yul\":9960:9991   */\n      add\n        /* \"#utility.yul\":9950:9991   */\n      swap2\n      pop\n        /* \"#utility.yul\":10041:10122   */\n    tag_308:\n        /* \"#utility.yul\":10059:10061   */\n      dup2\n        /* \"#utility.yul\":10052:10057   */\n      dup2\n        /* \"#utility.yul\":10049:10062   */\n      lt\n        /* \"#utility.yul\":10041:10122   */\n      iszero\n      tag_310\n      jumpi\n        /* \"#utility.yul\":10118:10119   */\n      0x00\n        /* \"#utility.yul\":10104:10120   */\n      dup2\n      sstore\n        /* \"#utility.yul\":10085:10086   */\n      0x01\n        /* \"#utility.yul\":10074:10087   */\n      add\n        /* \"#utility.yul\":10041:10122   */\n      jump(tag_308)\n    tag_310:\n        /* \"#utility.yul\":10045:10048   */\n      pop\n      pop\n        /* \"#utility.yul\":9620:10138   */\n      pop\n      pop\n      pop\n      jump\t// out\n        /* \"#utility.yul\":10314:11659   */\n    tag_106:\n        /* \"#utility.yul\":10440:10443   */\n      dup2\n        /* \"#utility.yul\":10434:10444   */\n      mload\n        /* \"#utility.yul\":10467:10485   */\n      0xffffffffffffffff\n        /* \"#utility.yul\":10459:10465   */\n      dup2\n        /* \"#utility.yul\":10456:10486   */\n      gt\n        /* \"#utility.yul\":10453:10509   */\n      iszero\n      tag_314\n      jumpi\n        /* \"#utility.yul\":10489:10507   */\n      tag_314\n      tag_161\n      jump\t// in\n    tag_314:\n        /* \"#utility.yul\":10518:10615   */\n      tag_315\n        /* \"#utility.yul\":10608:10614   */\n      dup2\n        /* \"#utility.yul\":10568:10606   */\n      tag_316\n        /* \"#utility.yul\":10600:10604   */\n      dup5\n        /* \"#utility.yul\":10594:10605   */\n      sload\n        /* \"#utility.yul\":10568:10606   */\n      tag_102\n      jump\t// in\n    tag_316:\n        /* \"#utility.yul\":10562:10566   */\n      dup5\n        /* \"#utility.yul\":10518:10615   */\n      tag_222\n      jump\t// in\n    tag_315:\n        /* \"#utility.yul\":10670:10674   */\n      0x20\n      dup1\n        /* \"#utility.yul\":10727:10729   */\n      0x1f\n        /* \"#utility.yul\":10716:10730   */\n      dup4\n      gt\n        /* \"#utility.yul\":10744:10745   */\n      0x01\n        /* \"#utility.yul\":10739:11402   */\n      dup2\n      eq\n      tag_318\n      jumpi\n        /* \"#utility.yul\":11446:11447   */\n      0x00\n        /* \"#utility.yul\":11463:11469   */\n      dup5\n        /* \"#utility.yul\":11460:11549   */\n      iszero\n      tag_319\n      jumpi\n      pop\n        /* \"#utility.yul\":11515:11534   */\n      dup6\n      dup4\n      add\n        /* \"#utility.yul\":11509:11535   */\n      mload\n        /* \"#utility.yul\":11460:11549   */\n    tag_319:\n      not(0x00)\n        /* \"#utility.yul\":10271:10272   */\n      0x03\n        /* \"#utility.yul\":10267:10278   */\n      dup7\n      swap1\n      shl\n        /* \"#utility.yul\":10263:10287   */\n      shr\n        /* \"#utility.yul\":10259:10288   */\n      not\n        /* \"#utility.yul\":10249:10289   */\n      and\n        /* \"#utility.yul\":10295:10296   */\n      0x01\n        /* \"#utility.yul\":10291:10302   */\n      dup6\n      swap1\n      shl\n        /* \"#utility.yul\":10246:10303   */\n      or\n        /* \"#utility.yul\":11562:11643   */\n      dup6\n      sstore\n        /* \"#utility.yul\":10709:11653   */\n      jump(tag_317)\n        /* \"#utility.yul\":10739:11402   */\n    tag_318:\n        /* \"#utility.yul\":9567:9568   */\n      0x00\n        /* \"#utility.yul\":9560:9574   */\n      dup6\n      dup2\n      mstore\n        /* \"#utility.yul\":9604:9608   */\n      0x20\n        /* \"#utility.yul\":9591:9609   */\n      dup2\n      keccak256\n      not(0x1f)\n        /* \"#utility.yul\":10775:10795   */\n      dup7\n      and\n      swap2\n        /* \"#utility.yul\":10893:11129   */\n    tag_322:\n        /* \"#utility.yul\":10907:10914   */\n      dup3\n        /* \"#utility.yul\":10904:10905   */\n      dup2\n        /* \"#utility.yul\":10901:10915   */\n      lt\n        /* \"#utility.yul\":10893:11129   */\n      iszero\n      tag_324\n      jumpi\n        /* \"#utility.yul\":10996:11015   */\n      dup9\n      dup7\n      add\n        /* \"#utility.yul\":10990:11016   */\n      mload\n        /* \"#utility.yul\":10975:11017   */\n      dup3\n      sstore\n        /* \"#utility.yul\":11088:11115   */\n      swap5\n      dup5\n      add\n      swap5\n        /* \"#utility.yul\":11056:11057   */\n      0x01\n        /* \"#utility.yul\":11044:11058   */\n      swap1\n      swap2\n      add\n      swap1\n        /* \"#utility.yul\":10923:10942   */\n      dup5\n      add\n        /* \"#utility.yul\":10893:11129   */\n      jump(tag_322)\n    tag_324:\n        /* \"#utility.yul\":10897:10900   */\n      pop\n        /* \"#utility.yul\":11157:11163   */\n      dup6\n        /* \"#utility.yul\":11148:11155   */\n      dup3\n        /* \"#utility.yul\":11145:11164   */\n      lt\n        /* \"#utility.yul\":11142:11343   */\n      iszero\n      tag_325\n      jumpi\n        /* \"#utility.yul\":11218:11237   */\n      dup8\n      dup6\n      add\n        /* \"#utility.yul\":11212:11238   */\n      mload\n      not(0x00)\n        /* \"#utility.yul\":11301:11302   */\n      0x03\n        /* \"#utility.yul\":11297:11311   */\n      dup9\n      swap1\n      shl\n        /* \"#utility.yul\":11313:11316   */\n      0xf8\n        /* \"#utility.yul\":11293:11317   */\n      and\n        /* \"#utility.yul\":11289:11326   */\n      shr\n        /* \"#utility.yul\":11285:11327   */\n      not\n        /* \"#utility.yul\":11270:11328   */\n      and\n        /* \"#utility.yul\":11255:11329   */\n      dup2\n      sstore\n        /* \"#utility.yul\":11142:11343   */\n    tag_325:\n      pop\n      pop\n        /* \"#utility.yul\":11389:11390   */\n      0x01\n        /* \"#utility.yul\":11380:11386   */\n      dup5\n        /* \"#utility.yul\":11377:11378   */\n      0x01\n        /* \"#utility.yul\":11373:11387   */\n      shl\n        /* \"#utility.yul\":11369:11391   */\n      add\n        /* \"#utility.yul\":11363:11367   */\n      dup6\n        /* \"#utility.yul\":11356:11392   */\n      sstore\n        /* \"#utility.yul\":10709:11653   */\n    tag_317:\n      pop\n      pop\n      pop\n      pop\n        /* \"#utility.yul\":10314:11659   */\n      pop\n      pop\n      jump\t// out\n        /* \"#utility.yul\":11664:12047   */\n    tag_110:\n        /* \"#utility.yul\":11861:11863   */\n      0x40\n        /* \"#utility.yul\":11850:11859   */\n      dup2\n        /* \"#utility.yul\":11843:11864   */\n      mstore\n        /* \"#utility.yul\":11824:11828   */\n      0x00\n        /* \"#utility.yul\":11887:11932   */\n      tag_327\n        /* \"#utility.yul\":11928:11930   */\n      0x40\n        /* \"#utility.yul\":11917:11926   */\n      dup4\n        /* \"#utility.yul\":11913:11931   */\n      add\n        /* \"#utility.yul\":11905:11911   */\n      dup6\n        /* \"#utility.yul\":11887:11932   */\n      tag_219\n      jump\t// in\n    tag_327:\n        /* \"#utility.yul\":11980:11989   */\n      dup3\n        /* \"#utility.yul\":11972:11978   */\n      dup2\n        /* \"#utility.yul\":11968:11990   */\n      sub\n        /* \"#utility.yul\":11963:11965   */\n      0x20\n        /* \"#utility.yul\":11952:11961   */\n      dup5\n        /* \"#utility.yul\":11948:11966   */\n      add\n        /* \"#utility.yul\":11941:11991   */\n      mstore\n        /* \"#utility.yul\":12008:12041   */\n      tag_328\n        /* \"#utility.yul\":12034:12040   */\n      dup2\n        /* \"#utility.yul\":12026:12032   */\n      dup6\n        /* \"#utility.yul\":12008:12041   */\n      tag_219\n      jump\t// in\n    tag_328:\n        /* \"#utility.yul\":12000:12041   */\n      swap6\n        /* \"#utility.yul\":11664:12047   */\n      swap5\n      pop\n      pop\n      pop\n      pop\n      pop\n      jump\t// out\n        /* \"#utility.yul\":12401:12626   */\n    tag_131:\n        /* \"#utility.yul\":12468:12477   */\n      dup2\n      dup2\n      sub\n        /* \"#utility.yul\":12489:12500   */\n      dup2\n      dup2\n      gt\n        /* \"#utility.yul\":12486:12620   */\n      iszero\n      tag_331\n      jumpi\n        /* \"#utility.yul\":12542:12552   */\n      0x4e487b71\n        /* \"#utility.yul\":12537:12540   */\n      0xe0\n        /* \"#utility.yul\":12533:12553   */\n      shl\n        /* \"#utility.yul\":12530:12531   */\n      0x00\n        /* \"#utility.yul\":12523:12554   */\n      mstore\n        /* \"#utility.yul\":12577:12581   */\n      0x11\n        /* \"#utility.yul\":12574:12575   */\n      0x04\n        /* \"#utility.yul\":12567:12582   */\n      mstore\n        /* \"#utility.yul\":12605:12609   */\n      0x24\n        /* \"#utility.yul\":12602:12603   */\n      0x00\n        /* \"#utility.yul\":12595:12610   */\n      revert\n        /* \"#utility.yul\":12486:12620   */\n    tag_331:\n        /* \"#utility.yul\":12401:12626   */\n      swap3\n      swap2\n      pop\n      pop\n      jump\t// out\n        /* \"#utility.yul\":12975:13102   */\n    tag_148:\n        /* \"#utility.yul\":13036:13046   */\n      0x4e487b71\n        /* \"#utility.yul\":13031:13034   */\n      0xe0\n        /* \"#utility.yul\":13027:13047   */\n      shl\n        /* \"#utility.yul\":13024:13025   */\n      0x00\n        /* \"#utility.yul\":13017:13048   */\n      mstore\n        /* \"#utility.yul\":13067:13071   */\n      0x32\n        /* \"#utility.yul\":13064:13065   */\n      0x04\n        /* \"#utility.yul\":13057:13072   */\n      mstore\n        /* \"#utility.yul\":13091:13095   */\n      0x24\n        /* \"#utility.yul\":13088:13089   */\n      0x00\n        /* \"#utility.yul\":13081:13096   */\n      revert\n        /* \"#utility.yul\":13107:13950   */\n    tag_171:\n        /* \"#utility.yul\":13235:13238   */\n      0x00\n        /* \"#utility.yul\":13264:13265   */\n      dup1\n        /* \"#utility.yul\":13297:13303   */\n      dup4\n        /* \"#utility.yul\":13291:13304   */\n      sload\n        /* \"#utility.yul\":13327:13363   */\n      tag_335\n        /* \"#utility.yul\":13353:13362   */\n      dup2\n        /* \"#utility.yul\":13327:13363   */\n      tag_102\n      jump\t// in\n    tag_335:\n        /* \"#utility.yul\":13382:13383   */\n      0x01\n        /* \"#utility.yul\":13399:13416   */\n      dup3\n      dup2\n      and\n        /* \"#utility.yul\":13425:13558   */\n      dup1\n      iszero\n      tag_337\n      jumpi\n        /* \"#utility.yul\":13572:13573   */\n      0x01\n        /* \"#utility.yul\":13567:13925   */\n      dup2\n      eq\n      tag_338\n      jumpi\n        /* \"#utility.yul\":13392:13925   */\n      jump(tag_336)\n        /* \"#utility.yul\":13425:13558   */\n    tag_337:\n      not(0xff)\n        /* \"#utility.yul\":13458:13482   */\n      dup5\n      and\n        /* \"#utility.yul\":13446:13483   */\n      dup8\n      mstore\n        /* \"#utility.yul\":13531:13545   */\n      dup3\n      iszero\n        /* \"#utility.yul\":13524:13546   */\n      iszero\n        /* \"#utility.yul\":13512:13547   */\n      dup4\n      mul\n        /* \"#utility.yul\":13503:13548   */\n      dup8\n      add\n      swap5\n      pop\n        /* \"#utility.yul\":13425:13558   */\n      jump(tag_336)\n        /* \"#utility.yul\":13567:13925   */\n    tag_338:\n        /* \"#utility.yul\":13598:13604   */\n      dup8\n        /* \"#utility.yul\":13595:13596   */\n      0x00\n        /* \"#utility.yul\":13588:13605   */\n      mstore\n        /* \"#utility.yul\":13628:13632   */\n      0x20\n        /* \"#utility.yul\":13673:13677   */\n      dup1\n        /* \"#utility.yul\":13670:13671   */\n      0x00\n        /* \"#utility.yul\":13660:13678   */\n      keccak256\n        /* \"#utility.yul\":13700:13701   */\n      0x00\n        /* \"#utility.yul\":13714:13879   */\n    tag_339:\n        /* \"#utility.yul\":13728:13734   */\n      dup6\n        /* \"#utility.yul\":13725:13726   */\n      dup2\n        /* \"#utility.yul\":13722:13735   */\n      lt\n        /* \"#utility.yul\":13714:13879   */\n      iszero\n      tag_341\n      jumpi\n        /* \"#utility.yul\":13806:13820   */\n      dup2\n      sload\n        /* \"#utility.yul\":13793:13804   */\n      dup11\n      dup3\n      add\n        /* \"#utility.yul\":13786:13821   */\n      mstore\n        /* \"#utility.yul\":13849:13865   */\n      swap1\n      dup5\n      add\n      swap1\n        /* \"#utility.yul\":13743:13753   */\n      dup3\n      add\n        /* \"#utility.yul\":13714:13879   */\n      jump(tag_339)\n    tag_341:\n        /* \"#utility.yul\":13718:13721   */\n      pop\n      pop\n      pop\n        /* \"#utility.yul\":13908:13914   */\n      dup3\n        /* \"#utility.yul\":13903:13906   */\n      dup8\n        /* \"#utility.yul\":13899:13915   */\n      add\n        /* \"#utility.yul\":13892:13915   */\n      swap5\n      pop\n        /* \"#utility.yul\":13392:13925   */\n    tag_336:\n      pop\n        /* \"#utility.yul\":13941:13944   */\n      swap3\n      swap7\n        /* \"#utility.yul\":13107:13950   */\n      swap6\n      pop\n      pop\n      pop\n      pop\n      pop\n      pop\n      jump\t// out\n        /* \"#utility.yul\":14234:14511   */\n    tag_188:\n        /* \"#utility.yul\":14301:14307   */\n      0x00\n        /* \"#utility.yul\":14354:14356   */\n      0x20\n        /* \"#utility.yul\":14342:14351   */\n      dup3\n        /* \"#utility.yul\":14333:14340   */\n      dup5\n        /* \"#utility.yul\":14329:14352   */\n      sub\n        /* \"#utility.yul\":14325:14357   */\n      slt\n        /* \"#utility.yul\":14322:14374   */\n      iszero\n      tag_344\n      jumpi\n        /* \"#utility.yul\":14370:14371   */\n      0x00\n        /* \"#utility.yul\":14367:14368   */\n      dup1\n        /* \"#utility.yul\":14360:14372   */\n      revert\n        /* \"#utility.yul\":14322:14374   */\n    tag_344:\n        /* \"#utility.yul\":14402:14411   */\n      dup2\n        /* \"#utility.yul\":14396:14412   */\n      mload\n        /* \"#utility.yul\":14455:14460   */\n      dup1\n        /* \"#utility.yul\":14448:14461   */\n      iszero\n        /* \"#utility.yul\":14441:14462   */\n      iszero\n        /* \"#utility.yul\":14434:14439   */\n      dup2\n        /* \"#utility.yul\":14431:14463   */\n      eq\n        /* \"#utility.yul\":14421:14481   */\n      tag_268\n      jumpi\n        /* \"#utility.yul\":14477:14478   */\n      0x00\n        /* \"#utility.yul\":14474:14475   */\n      dup1\n        /* \"#utility.yul\":14467:14479   */\n      revert\n\n    auxdata: 0xa264697066735822122066377bc95b6c168c684eaebe9af8620e1b8483ee81ade65d8b240535dd22958564736f6c63430008180033\n}\n",
				"bytecode": {
					"linkReferences": {},
					"object": "608060405234801561000f575f80fd5b5060405161148238038061148283398101604081905261002e916100d8565b60015f556001600160a01b03821661008c5760405162461bcd60e51b815260206004820152601c60248201527f4f776e657220616464726573732063616e6e6f74206265207a65726f00000000604482015260640160405180910390fd5b600380546001600160a01b039384166001600160a01b03199182161790915560048054929093169116179055610109565b80516001600160a01b03811681146100d3575f80fd5b919050565b5f80604083850312156100e9575f80fd5b6100f2836100bd565b9150610100602084016100bd565b90509250929050565b61136c806101165f395ff3fe60806040526004361061009d575f3560e01c806388f8f4241161006257806388f8f424146101a55780638da5cb5b146101c4578063981f5499146101fb5780639db5dbe41461021c578063ac210cc71461023b578063bc87eed31461025a575f80fd5b8063150b7a02146100dd5780631aca63761461011a5780632559ddf51461013b5780632e9c247b1461015a5780637b1a490914610186575f80fd5b366100d95760405134815233907f4103257eaac983ca79a70d28f90dfc4fa16b619bb0c17ee7cab0d4034c2796249060200160405180910390a2005b5f80fd5b3480156100e8575f80fd5b506100fc6100f7366004610cae565b61026e565b6040516001600160e01b031990911681526020015b60405180910390f35b348015610125575f80fd5b50610139610134366004610d45565b6102ce565b005b348015610146575f80fd5b50610139610155366004610e34565b61040b565b348015610165575f80fd5b50610179610174366004610e94565b610551565b6040516101119190610f1b565b348015610191575f80fd5b506101396101a0366004610f34565b6105ff565b3480156101b0575f80fd5b506101396101bf366004610ff8565b610749565b3480156101cf575f80fd5b506003546101e3906001600160a01b031681565b6040516001600160a01b039091168152602001610111565b348015610206575f80fd5b5061020f6108a6565b604051610111919061104e565b348015610227575f80fd5b50610139610236366004610d45565b6109f2565b348015610246575f80fd5b506004546101e3906001600160a01b031681565b348015610265575f80fd5b5061020f610b29565b5f336001600160a01b0316856001600160a01b03167fa7623ac946123c8343a3277b72c66662dab5c4784cebe18bb73311b3d41882a7866040516102b491815260200190565b60405180910390a350630a85bd0160e11b95945050505050565b6003546001600160a01b031633146103015760405162461bcd60e51b81526004016102f8906110b0565b60405180910390fd5b61030a83610bfd565b6103565760405162461bcd60e51b815260206004820152601b60248201527f546f6b656e206973206e6f7420612076616c696420455243373231000000000060448201526064016102f8565b604051632142170760e11b81523060048201526001600160a01b038381166024830152604482018390528416906342842e0e906064015f604051808303815f87803b1580156103a3575f80fd5b505af11580156103b5573d5f803e3d5ffd5b50505050816001600160a01b0316836001600160a01b03167fc461d0f02e326879d642fc0b955c081fd7827836382a43e99fe5df550589b011836040516103fe91815260200190565b60405180910390a3505050565b6003546001600160a01b031633148061042e57506004546001600160a01b031633145b61047a5760405162461bcd60e51b815260206004820152601e60248201527f4f6e6c79207468652044414f2063616e2065646974207265676973747279000060448201526064016102f8565b60018260405161048a91906110e7565b908152602001604051809103902080546104a390611102565b90505f036104e857600280546001810182555f919091527f405787fa12a823e0f2b7631cc41b3ba8828b3321ca811111fa75cd3aa3bb5ace016104e6838261117f565b505b806001836040516104f991906110e7565b90815260200160405180910390209081610513919061117f565b507f7b86c5d3c943fd36e157d1f4f62c14255da7cef7e527b7066f90325657091a0c828260405161054592919061123f565b60405180910390a15050565b606060018260405161056391906110e7565b9081526020016040518091039020805461057c90611102565b80601f01602080910402602001604051908101604052809291908181526020018280546105a890611102565b80156105f35780601f106105ca576101008083540402835291602001916105f3565b820191905f5260205f20905b8154815290600101906020018083116105d657829003601f168201915b50505050509050919050565b6003546001600160a01b031633146106295760405162461bcd60e51b81526004016102f8906110b0565b610631610c6f565b804710156106785760405162461bcd60e51b8152602060048201526014602482015273496e73756666696369656e742062616c616e636560601b60448201526064016102f8565b60405147906001600160a01b0384169083156108fc029084905f818181858888f193505050501580156106ad573d5f803e3d5ffd5b506106b8828261126c565b47146106f85760405162461bcd60e51b815260206004820152600f60248201526e151c985b9cd9995c8819985a5b1959608a1b60448201526064016102f8565b826001600160a01b03167fba7bb5aa419c34d8776b86cc0e9d41e72d74a893a511f361a11af6c05e920c3d8360405161073391815260200190565b60405180910390a25061074560015f55565b5050565b6003546001600160a01b031633148061076c57506004546001600160a01b031633145b6107b85760405162461bcd60e51b815260206004820152601e60248201527f4f6e6c79207468652044414f2063616e2065646974207265676973747279000060448201526064016102f8565b5f5b82518110156108a1575f8382815181106107d6576107d6611291565b602002602001015190505f8383815181106107f3576107f3611291565b6020026020010151905060018260405161080d91906110e7565b9081526020016040518091039020805461082690611102565b90505f0361086b57600280546001810182555f919091527f405787fa12a823e0f2b7631cc41b3ba8828b3321ca811111fa75cd3aa3bb5ace01610869838261117f565b505b8060018360405161087c91906110e7565b90815260200160405180910390209081610896919061117f565b5050506001016107ba565b505050565b6002546060905f9067ffffffffffffffff8111156108c6576108c6610d83565b6040519080825280602002602001820160405280156108f957816020015b60608152602001906001900390816108e45790505b5090505f5b6002548110156109ec5760016002828154811061091d5761091d611291565b905f5260205f200160405161093291906112a5565b9081526020016040518091039020805461094b90611102565b80601f016020809104026020016040519081016040528092919081815260200182805461097790611102565b80156109c25780601f10610999576101008083540402835291602001916109c2565b820191905f5260205f20905b8154815290600101906020018083116109a557829003601f168201915b50505050508282815181106109d9576109d9611291565b60209081029190910101526001016108fe565b50919050565b6003546001600160a01b03163314610a1c5760405162461bcd60e51b81526004016102f8906110b0565b60405163a9059cbb60e01b81526001600160a01b038381166004830152602482018390525f919085169063a9059cbb906044016020604051808303815f875af1158015610a6b573d5f803e3d5ffd5b505050506040513d601f19601f82011682018060405250810190610a8f9190611317565b905080610ad65760405162461bcd60e51b8152602060048201526015602482015274115490cc8c081d1c985b9cd9995c8819985a5b1959605a1b60448201526064016102f8565b826001600160a01b0316846001600160a01b03167f3ed03153e9c248019b0420ed4652ed13c51da0ec7ecc09eb2d3b70f2064be64b84604051610b1b91815260200190565b60405180910390a350505050565b60606002805480602002602001604051908101604052809291908181526020015f905b82821015610bf4578382905f5260205f20018054610b6990611102565b80601f0160208091040260200160405190810160405280929190818152602001828054610b9590611102565b8015610be05780601f10610bb757610100808354040283529160200191610be0565b820191905f5260205f20905b815481529060010190602001808311610bc357829003601f168201915b505050505081526020019060010190610b4c565b50505050905090565b604051632142170760e11b8152306004820181905260248201525f60448201819052906001600160a01b038316906342842e0e906064015f604051808303815f87803b158015610c4b575f80fd5b505af1925050508015610c5c575060015b610c6757505f919050565b506001919050565b60025f5403610c9157604051633ee5aeb560e01b815260040160405180910390fd5b60025f55565b6001600160a01b0381168114610cab575f80fd5b50565b5f805f805f60808688031215610cc2575f80fd5b8535610ccd81610c97565b94506020860135610cdd81610c97565b935060408601359250606086013567ffffffffffffffff80821115610d00575f80fd5b818801915088601f830112610d13575f80fd5b813581811115610d21575f80fd5b896020828501011115610d32575f80fd5b9699959850939650602001949392505050565b5f805f60608486031215610d57575f80fd5b8335610d6281610c97565b92506020840135610d7281610c97565b929592945050506040919091013590565b634e487b7160e01b5f52604160045260245ffd5b604051601f8201601f1916810167ffffffffffffffff81118282101715610dc057610dc0610d83565b604052919050565b5f82601f830112610dd7575f80fd5b813567ffffffffffffffff811115610df157610df1610d83565b610e04601f8201601f1916602001610d97565b818152846020838601011115610e18575f80fd5b816020850160208301375f918101602001919091529392505050565b5f8060408385031215610e45575f80fd5b823567ffffffffffffffff80821115610e5c575f80fd5b610e6886838701610dc8565b93506020850135915080821115610e7d575f80fd5b50610e8a85828601610dc8565b9150509250929050565b5f60208284031215610ea4575f80fd5b813567ffffffffffffffff811115610eba575f80fd5b610ec684828501610dc8565b949350505050565b5f5b83811015610ee8578181015183820152602001610ed0565b50505f910152565b5f8151808452610f07816020860160208601610ece565b601f01601f19169290920160200192915050565b602081525f610f2d6020830184610ef0565b9392505050565b5f8060408385031215610f45575f80fd5b8235610f5081610c97565b946020939093013593505050565b5f82601f830112610f6d575f80fd5b8135602067ffffffffffffffff80831115610f8a57610f8a610d83565b8260051b610f99838201610d97565b9384528581018301938381019088861115610fb2575f80fd5b84880192505b85831015610fec57823584811115610fce575f80fd5b610fdc8a87838c0101610dc8565b8352509184019190840190610fb8565b98975050505050505050565b5f8060408385031215611009575f80fd5b823567ffffffffffffffff80821115611020575f80fd5b61102c86838701610f5e565b93506020850135915080821115611041575f80fd5b50610e8a85828601610f5e565b5f60208083016020845280855180835260408601915060408160051b8701019250602087015f5b828110156110a357603f19888603018452611091858351610ef0565b94509285019290850190600101611075565b5092979650505050505050565b6020808252601f908201527f4f6e6c79207468652044414f2063616e206d616b65207472616e736665727300604082015260600190565b5f82516110f8818460208701610ece565b9190910192915050565b600181811c9082168061111657607f821691505b6020821081036109ec57634e487b7160e01b5f52602260045260245ffd5b601f8211156108a157805f5260205f20601f840160051c810160208510156111595750805b601f840160051c820191505b81811015611178575f8155600101611165565b5050505050565b815167ffffffffffffffff81111561119957611199610d83565b6111ad816111a78454611102565b84611134565b602080601f8311600181146111e0575f84156111c95750858301515b5f19600386901b1c1916600185901b178555611237565b5f85815260208120601f198616915b8281101561120e578886015182559484019460019091019084016111ef565b508582101561122b57878501515f19600388901b60f8161c191681555b505060018460011b0185555b505050505050565b604081525f6112516040830185610ef0565b82810360208401526112638185610ef0565b95945050505050565b8181038181111561128b57634e487b7160e01b5f52601160045260245ffd5b92915050565b634e487b7160e01b5f52603260045260245ffd5b5f8083546112b281611102565b600182811680156112ca57600181146112df5761130b565b60ff198416875282151583028701945061130b565b875f526020805f205f5b858110156113025781548a8201529084019082016112e9565b50505082870194505b50929695505050505050565b5f60208284031215611327575f80fd5b81518015158114610f2d575f80fdfea264697066735822122066377bc95b6c168c684eaebe9af8620e1b8483ee81ade65d8b240535dd22958564736f6c63430008180033",
					"opcodes": "PUSH1 0x80 PUSH1 0x40 MSTORE CALLVALUE DUP1 ISZERO PUSH2 0xF JUMPI PUSH0 DUP1 REVERT JUMPDEST POP PUSH1 0x40 MLOAD PUSH2 0x1482 CODESIZE SUB DUP1 PUSH2 0x1482 DUP4 CODECOPY DUP2 ADD PUSH1 0x40 DUP2 SWAP1 MSTORE PUSH2 0x2E SWAP2 PUSH2 0xD8 JUMP JUMPDEST PUSH1 0x1 PUSH0 SSTORE PUSH1 0x1 PUSH1 0x1 PUSH1 0xA0 SHL SUB DUP3 AND PUSH2 0x8C JUMPI PUSH1 0x40 MLOAD PUSH3 0x461BCD PUSH1 0xE5 SHL DUP2 MSTORE PUSH1 0x20 PUSH1 0x4 DUP3 ADD MSTORE PUSH1 0x1C PUSH1 0x24 DUP3 ADD MSTORE PUSH32 0x4F776E657220616464726573732063616E6E6F74206265207A65726F00000000 PUSH1 0x44 DUP3 ADD MSTORE PUSH1 0x64 ADD PUSH1 0x40 MLOAD DUP1 SWAP2 SUB SWAP1 REVERT JUMPDEST PUSH1 0x3 DUP1 SLOAD PUSH1 0x1 PUSH1 0x1 PUSH1 0xA0 SHL SUB SWAP4 DUP5 AND PUSH1 0x1 PUSH1 0x1 PUSH1 0xA0 SHL SUB NOT SWAP2 DUP3 AND OR SWAP1 SWAP2 SSTORE PUSH1 0x4 DUP1 SLOAD SWAP3 SWAP1 SWAP4 AND SWAP2 AND OR SWAP1 SSTORE PUSH2 0x109 JUMP JUMPDEST DUP1 MLOAD PUSH1 0x1 PUSH1 0x1 PUSH1 0xA0 SHL SUB DUP2 AND DUP2 EQ PUSH2 0xD3 JUMPI PUSH0 DUP1 REVERT JUMPDEST SWAP2 SWAP1 POP JUMP JUMPDEST PUSH0 DUP1 PUSH1 0x40 DUP4 DUP6 SUB SLT ISZERO PUSH2 0xE9 JUMPI PUSH0 DUP1 REVERT JUMPDEST PUSH2 0xF2 DUP4 PUSH2 0xBD JUMP JUMPDEST SWAP2 POP PUSH2 0x100 PUSH1 0x20 DUP5 ADD PUSH2 0xBD JUMP JUMPDEST SWAP1 POP SWAP3 POP SWAP3 SWAP1 POP JUMP JUMPDEST PUSH2 0x136C DUP1 PUSH2 0x116 PUSH0 CODECOPY PUSH0 RETURN INVALID PUSH1 0x80 PUSH1 0x40 MSTORE PUSH1 0x4 CALLDATASIZE LT PUSH2 0x9D JUMPI PUSH0 CALLDATALOAD PUSH1 0xE0 SHR DUP1 PUSH4 0x88F8F424 GT PUSH2 0x62 JUMPI DUP1 PUSH4 0x88F8F424 EQ PUSH2 0x1A5 JUMPI DUP1 PUSH4 0x8DA5CB5B EQ PUSH2 0x1C4 JUMPI DUP1 PUSH4 0x981F5499 EQ PUSH2 0x1FB JUMPI DUP1 PUSH4 0x9DB5DBE4 EQ PUSH2 0x21C JUMPI DUP1 PUSH4 0xAC210CC7 EQ PUSH2 0x23B JUMPI DUP1 PUSH4 0xBC87EED3 EQ PUSH2 0x25A JUMPI PUSH0 DUP1 REVERT JUMPDEST DUP1 PUSH4 0x150B7A02 EQ PUSH2 0xDD JUMPI DUP1 PUSH4 0x1ACA6376 EQ PUSH2 0x11A JUMPI DUP1 PUSH4 0x2559DDF5 EQ PUSH2 0x13B JUMPI DUP1 PUSH4 0x2E9C247B EQ PUSH2 0x15A JUMPI DUP1 PUSH4 0x7B1A4909 EQ PUSH2 0x186 JUMPI PUSH0 DUP1 REVERT JUMPDEST CALLDATASIZE PUSH2 0xD9 JUMPI PUSH1 0x40 MLOAD CALLVALUE DUP2 MSTORE CALLER SWAP1 PUSH32 0x4103257EAAC983CA79A70D28F90DFC4FA16B619BB0C17EE7CAB0D4034C279624 SWAP1 PUSH1 0x20 ADD PUSH1 0x40 MLOAD DUP1 SWAP2 SUB SWAP1 LOG2 STOP JUMPDEST PUSH0 DUP1 REVERT JUMPDEST CALLVALUE DUP1 ISZERO PUSH2 0xE8 JUMPI PUSH0 DUP1 REVERT JUMPDEST POP PUSH2 0xFC PUSH2 0xF7 CALLDATASIZE PUSH1 0x4 PUSH2 0xCAE JUMP JUMPDEST PUSH2 0x26E JUMP JUMPDEST PUSH1 0x40 MLOAD PUSH1 0x1 PUSH1 0x1 PUSH1 0xE0 SHL SUB NOT SWAP1 SWAP2 AND DUP2 MSTORE PUSH1 0x20 ADD JUMPDEST PUSH1 0x40 MLOAD DUP1 SWAP2 SUB SWAP1 RETURN JUMPDEST CALLVALUE DUP1 ISZERO PUSH2 0x125 JUMPI PUSH0 DUP1 REVERT JUMPDEST POP PUSH2 0x139 PUSH2 0x134 CALLDATASIZE PUSH1 0x4 PUSH2 0xD45 JUMP JUMPDEST PUSH2 0x2CE JUMP JUMPDEST STOP JUMPDEST CALLVALUE DUP1 ISZERO PUSH2 0x146 JUMPI PUSH0 DUP1 REVERT JUMPDEST POP PUSH2 0x139 PUSH2 0x155 CALLDATASIZE PUSH1 0x4 PUSH2 0xE34 JUMP JUMPDEST PUSH2 0x40B JUMP JUMPDEST CALLVALUE DUP1 ISZERO PUSH2 0x165 JUMPI PUSH0 DUP1 REVERT JUMPDEST POP PUSH2 0x179 PUSH2 0x174 CALLDATASIZE PUSH1 0x4 PUSH2 0xE94 JUMP JUMPDEST PUSH2 0x551 JUMP JUMPDEST PUSH1 0x40 MLOAD PUSH2 0x111 SWAP2 SWAP1 PUSH2 0xF1B JUMP JUMPDEST CALLVALUE DUP1 ISZERO PUSH2 0x191 JUMPI PUSH0 DUP1 REVERT JUMPDEST POP PUSH2 0x139 PUSH2 0x1A0 CALLDATASIZE PUSH1 0x4 PUSH2 0xF34 JUMP JUMPDEST PUSH2 0x5FF JUMP JUMPDEST CALLVALUE DUP1 ISZERO PUSH2 0x1B0 JUMPI PUSH0 DUP1 REVERT JUMPDEST POP PUSH2 0x139 PUSH2 0x1BF CALLDATASIZE PUSH1 0x4 PUSH2 0xFF8 JUMP JUMPDEST PUSH2 0x749 JUMP JUMPDEST CALLVALUE DUP1 ISZERO PUSH2 0x1CF JUMPI PUSH0 DUP1 REVERT JUMPDEST POP PUSH1 0x3 SLOAD PUSH2 0x1E3 SWAP1 PUSH1 0x1 PUSH1 0x1 PUSH1 0xA0 SHL SUB AND DUP2 JUMP JUMPDEST PUSH1 0x40 MLOAD PUSH1 0x1 PUSH1 0x1 PUSH1 0xA0 SHL SUB SWAP1 SWAP2 AND DUP2 MSTORE PUSH1 0x20 ADD PUSH2 0x111 JUMP JUMPDEST CALLVALUE DUP1 ISZERO PUSH2 0x206 JUMPI PUSH0 DUP1 REVERT JUMPDEST POP PUSH2 0x20F PUSH2 0x8A6 JUMP JUMPDEST PUSH1 0x40 MLOAD PUSH2 0x111 SWAP2 SWAP1 PUSH2 0x104E JUMP JUMPDEST CALLVALUE DUP1 ISZERO PUSH2 0x227 JUMPI PUSH0 DUP1 REVERT JUMPDEST POP PUSH2 0x139 PUSH2 0x236 CALLDATASIZE PUSH1 0x4 PUSH2 0xD45 JUMP JUMPDEST PUSH2 0x9F2 JUMP JUMPDEST CALLVALUE DUP1 ISZERO PUSH2 0x246 JUMPI PUSH0 DUP1 REVERT JUMPDEST POP PUSH1 0x4 SLOAD PUSH2 0x1E3 SWAP1 PUSH1 0x1 PUSH1 0x1 PUSH1 0xA0 SHL SUB AND DUP2 JUMP JUMPDEST CALLVALUE DUP1 ISZERO PUSH2 0x265 JUMPI PUSH0 DUP1 REVERT JUMPDEST POP PUSH2 0x20F PUSH2 0xB29 JUMP JUMPDEST PUSH0 CALLER PUSH1 0x1 PUSH1 0x1 PUSH1 0xA0 SHL SUB AND DUP6 PUSH1 0x1 PUSH1 0x1 PUSH1 0xA0 SHL SUB AND PUSH32 0xA7623AC946123C8343A3277B72C66662DAB5C4784CEBE18BB73311B3D41882A7 DUP7 PUSH1 0x40 MLOAD PUSH2 0x2B4 SWAP2 DUP2 MSTORE PUSH1 0x20 ADD SWAP1 JUMP JUMPDEST PUSH1 0x40 MLOAD DUP1 SWAP2 SUB SWAP1 LOG3 POP PUSH4 0xA85BD01 PUSH1 0xE1 SHL SWAP6 SWAP5 POP POP POP POP POP JUMP JUMPDEST PUSH1 0x3 SLOAD PUSH1 0x1 PUSH1 0x1 PUSH1 0xA0 SHL SUB AND CALLER EQ PUSH2 0x301 JUMPI PUSH1 0x40 MLOAD PUSH3 0x461BCD PUSH1 0xE5 SHL DUP2 MSTORE PUSH1 0x4 ADD PUSH2 0x2F8 SWAP1 PUSH2 0x10B0 JUMP JUMPDEST PUSH1 0x40 MLOAD DUP1 SWAP2 SUB SWAP1 REVERT JUMPDEST PUSH2 0x30A DUP4 PUSH2 0xBFD JUMP JUMPDEST PUSH2 0x356 JUMPI PUSH1 0x40 MLOAD PUSH3 0x461BCD PUSH1 0xE5 SHL DUP2 MSTORE PUSH1 0x20 PUSH1 0x4 DUP3 ADD MSTORE PUSH1 0x1B PUSH1 0x24 DUP3 ADD MSTORE PUSH32 0x546F6B656E206973206E6F7420612076616C6964204552433732310000000000 PUSH1 0x44 DUP3 ADD MSTORE PUSH1 0x64 ADD PUSH2 0x2F8 JUMP JUMPDEST PUSH1 0x40 MLOAD PUSH4 0x21421707 PUSH1 0xE1 SHL DUP2 MSTORE ADDRESS PUSH1 0x4 DUP3 ADD MSTORE PUSH1 0x1 PUSH1 0x1 PUSH1 0xA0 SHL SUB DUP4 DUP2 AND PUSH1 0x24 DUP4 ADD MSTORE PUSH1 0x44 DUP3 ADD DUP4 SWAP1 MSTORE DUP5 AND SWAP1 PUSH4 0x42842E0E SWAP1 PUSH1 0x64 ADD PUSH0 PUSH1 0x40 MLOAD DUP1 DUP4 SUB DUP2 PUSH0 DUP8 DUP1 EXTCODESIZE ISZERO DUP1 ISZERO PUSH2 0x3A3 JUMPI PUSH0 DUP1 REVERT JUMPDEST POP GAS CALL ISZERO DUP1 ISZERO PUSH2 0x3B5 JUMPI RETURNDATASIZE PUSH0 DUP1 RETURNDATACOPY RETURNDATASIZE PUSH0 REVERT JUMPDEST POP POP POP POP DUP2 PUSH1 0x1 PUSH1 0x1 PUSH1 0xA0 SHL SUB AND DUP4 PUSH1 0x1 PUSH1 0x1 PUSH1 0xA0 SHL SUB AND PUSH32 0xC461D0F02E326879D642FC0B955C081FD7827836382A43E99FE5DF550589B011 DUP4 PUSH1 0x40 MLOAD PUSH2 0x3FE SWAP2 DUP2 MSTORE PUSH1 0x20 ADD SWAP1 JUMP JUMPDEST PUSH1 0x40 MLOAD DUP1 SWAP2 SUB SWAP1 LOG3 POP POP POP JUMP JUMPDEST PUSH1 0x3 SLOAD PUSH1 0x1 PUSH1 0x1 PUSH1 0xA0 SHL SUB AND CALLER EQ DUP1 PUSH2 0x42E JUMPI POP PUSH1 0x4 SLOAD PUSH1 0x1 PUSH1 0x1 PUSH1 0xA0 SHL SUB AND CALLER EQ JUMPDEST PUSH2 0x47A JUMPI PUSH1 0x40 MLOAD PUSH3 0x461BCD PUSH1 0xE5 SHL DUP2 MSTORE PUSH1 0x20 PUSH1 0x4 DUP3 ADD MSTORE PUSH1 0x1E PUSH1 0x24 DUP3 ADD MSTORE PUSH32 0x4F6E6C79207468652044414F2063616E20656469742072656769737472790000 PUSH1 0x44 DUP3 ADD MSTORE PUSH1 0x64 ADD PUSH2 0x2F8 JUMP JUMPDEST PUSH1 0x1 DUP3 PUSH1 0x40 MLOAD PUSH2 0x48A SWAP2 SWAP1 PUSH2 0x10E7 JUMP JUMPDEST SWAP1 DUP2 MSTORE PUSH1 0x20 ADD PUSH1 0x40 MLOAD DUP1 SWAP2 SUB SWAP1 KECCAK256 DUP1 SLOAD PUSH2 0x4A3 SWAP1 PUSH2 0x1102 JUMP JUMPDEST SWAP1 POP PUSH0 SUB PUSH2 0x4E8 JUMPI PUSH1 0x2 DUP1 SLOAD PUSH1 0x1 DUP2 ADD DUP3 SSTORE PUSH0 SWAP2 SWAP1 SWAP2 MSTORE PUSH32 0x405787FA12A823E0F2B7631CC41B3BA8828B3321CA811111FA75CD3AA3BB5ACE ADD PUSH2 0x4E6 DUP4 DUP3 PUSH2 0x117F JUMP JUMPDEST POP JUMPDEST DUP1 PUSH1 0x1 DUP4 PUSH1 0x40 MLOAD PUSH2 0x4F9 SWAP2 SWAP1 PUSH2 0x10E7 JUMP JUMPDEST SWAP1 DUP2 MSTORE PUSH1 0x20 ADD PUSH1 0x40 MLOAD DUP1 SWAP2 SUB SWAP1 KECCAK256 SWAP1 DUP2 PUSH2 0x513 SWAP2 SWAP1 PUSH2 0x117F JUMP JUMPDEST POP PUSH32 0x7B86C5D3C943FD36E157D1F4F62C14255DA7CEF7E527B7066F90325657091A0C DUP3 DUP3 PUSH1 0x40 MLOAD PUSH2 0x545 SWAP3 SWAP2 SWAP1 PUSH2 0x123F JUMP JUMPDEST PUSH1 0x40 MLOAD DUP1 SWAP2 SUB SWAP1 LOG1 POP POP JUMP JUMPDEST PUSH1 0x60 PUSH1 0x1 DUP3 PUSH1 0x40 MLOAD PUSH2 0x563 SWAP2 SWAP1 PUSH2 0x10E7 JUMP JUMPDEST SWAP1 DUP2 MSTORE PUSH1 0x20 ADD PUSH1 0x40 MLOAD DUP1 SWAP2 SUB SWAP1 KECCAK256 DUP1 SLOAD PUSH2 0x57C SWAP1 PUSH2 0x1102 JUMP JUMPDEST DUP1 PUSH1 0x1F ADD PUSH1 0x20 DUP1 SWAP2 DIV MUL PUSH1 0x20 ADD PUSH1 0x40 MLOAD SWAP1 DUP2 ADD PUSH1 0x40 MSTORE DUP1 SWAP3 SWAP2 SWAP1 DUP2 DUP2 MSTORE PUSH1 0x20 ADD DUP3 DUP1 SLOAD PUSH2 0x5A8 SWAP1 PUSH2 0x1102 JUMP JUMPDEST DUP1 ISZERO PUSH2 0x5F3 JUMPI DUP1 PUSH1 0x1F LT PUSH2 0x5CA JUMPI PUSH2 0x100 DUP1 DUP4 SLOAD DIV MUL DUP4 MSTORE SWAP2 PUSH1 0x20 ADD SWAP2 PUSH2 0x5F3 JUMP JUMPDEST DUP3 ADD SWAP2 SWAP1 PUSH0 MSTORE PUSH1 0x20 PUSH0 KECCAK256 SWAP1 JUMPDEST DUP2 SLOAD DUP2 MSTORE SWAP1 PUSH1 0x1 ADD SWAP1 PUSH1 0x20 ADD DUP1 DUP4 GT PUSH2 0x5D6 JUMPI DUP3 SWAP1 SUB PUSH1 0x1F AND DUP3 ADD SWAP2 JUMPDEST POP POP POP POP POP SWAP1 POP SWAP2 SWAP1 POP JUMP JUMPDEST PUSH1 0x3 SLOAD PUSH1 0x1 PUSH1 0x1 PUSH1 0xA0 SHL SUB AND CALLER EQ PUSH2 0x629 JUMPI PUSH1 0x40 MLOAD PUSH3 0x461BCD PUSH1 0xE5 SHL DUP2 MSTORE PUSH1 0x4 ADD PUSH2 0x2F8 SWAP1 PUSH2 0x10B0 JUMP JUMPDEST PUSH2 0x631 PUSH2 0xC6F JUMP JUMPDEST DUP1 SELFBALANCE LT ISZERO PUSH2 0x678 JUMPI PUSH1 0x40 MLOAD PUSH3 0x461BCD PUSH1 0xE5 SHL DUP2 MSTORE PUSH1 0x20 PUSH1 0x4 DUP3 ADD MSTORE PUSH1 0x14 PUSH1 0x24 DUP3 ADD MSTORE PUSH20 0x496E73756666696369656E742062616C616E6365 PUSH1 0x60 SHL PUSH1 0x44 DUP3 ADD MSTORE PUSH1 0x64 ADD PUSH2 0x2F8 JUMP JUMPDEST PUSH1 0x40 MLOAD SELFBALANCE SWAP1 PUSH1 0x1 PUSH1 0x1 PUSH1 0xA0 SHL SUB DUP5 AND SWAP1 DUP4 ISZERO PUSH2 0x8FC MUL SWAP1 DUP5 SWAP1 PUSH0 DUP2 DUP2 DUP2 DUP6 DUP9 DUP9 CALL SWAP4 POP POP POP POP ISZERO DUP1 ISZERO PUSH2 0x6AD JUMPI RETURNDATASIZE PUSH0 DUP1 RETURNDATACOPY RETURNDATASIZE PUSH0 REVERT JUMPDEST POP PUSH2 0x6B8 DUP3 DUP3 PUSH2 0x126C JUMP JUMPDEST SELFBALANCE EQ PUSH2 0x6F8 JUMPI PUSH1 0x40 MLOAD PUSH3 0x461BCD PUSH1 0xE5 SHL DUP2 MSTORE PUSH1 0x20 PUSH1 0x4 DUP3 ADD MSTORE PUSH1 0xF PUSH1 0x24 DUP3 ADD MSTORE PUSH15 0x151C985B9CD9995C8819985A5B1959 PUSH1 0x8A SHL PUSH1 0x44 DUP3 ADD MSTORE PUSH1 0x64 ADD PUSH2 0x2F8 JUMP JUMPDEST DUP3 PUSH1 0x1 PUSH1 0x1 PUSH1 0xA0 SHL SUB AND PUSH32 0xBA7BB5AA419C34D8776B86CC0E9D41E72D74A893A511F361A11AF6C05E920C3D DUP4 PUSH1 0x40 MLOAD PUSH2 0x733 SWAP2 DUP2 MSTORE PUSH1 0x20 ADD SWAP1 JUMP JUMPDEST PUSH1 0x40 MLOAD DUP1 SWAP2 SUB SWAP1 LOG2 POP PUSH2 0x745 PUSH1 0x1 PUSH0 SSTORE JUMP JUMPDEST POP POP JUMP JUMPDEST PUSH1 0x3 SLOAD PUSH1 0x1 PUSH1 0x1 PUSH1 0xA0 SHL SUB AND CALLER EQ DUP1 PUSH2 0x76C JUMPI POP PUSH1 0x4 SLOAD PUSH1 0x1 PUSH1 0x1 PUSH1 0xA0 SHL SUB AND CALLER EQ JUMPDEST PUSH2 0x7B8 JUMPI PUSH1 0x40 MLOAD PUSH3 0x461BCD PUSH1 0xE5 SHL DUP2 MSTORE PUSH1 0x20 PUSH1 0x4 DUP3 ADD MSTORE PUSH1 0x1E PUSH1 0x24 DUP3 ADD MSTORE PUSH32 0x4F6E6C79207468652044414F2063616E20656469742072656769737472790000 PUSH1 0x44 DUP3 ADD MSTORE PUSH1 0x64 ADD PUSH2 0x2F8 JUMP JUMPDEST PUSH0 JUMPDEST DUP3 MLOAD DUP2 LT ISZERO PUSH2 0x8A1 JUMPI PUSH0 DUP4 DUP3 DUP2 MLOAD DUP2 LT PUSH2 0x7D6 JUMPI PUSH2 0x7D6 PUSH2 0x1291 JUMP JUMPDEST PUSH1 0x20 MUL PUSH1 0x20 ADD ADD MLOAD SWAP1 POP PUSH0 DUP4 DUP4 DUP2 MLOAD DUP2 LT PUSH2 0x7F3 JUMPI PUSH2 0x7F3 PUSH2 0x1291 JUMP JUMPDEST PUSH1 0x20 MUL PUSH1 0x20 ADD ADD MLOAD SWAP1 POP PUSH1 0x1 DUP3 PUSH1 0x40 MLOAD PUSH2 0x80D SWAP2 SWAP1 PUSH2 0x10E7 JUMP JUMPDEST SWAP1 DUP2 MSTORE PUSH1 0x20 ADD PUSH1 0x40 MLOAD DUP1 SWAP2 SUB SWAP1 KECCAK256 DUP1 SLOAD PUSH2 0x826 SWAP1 PUSH2 0x1102 JUMP JUMPDEST SWAP1 POP PUSH0 SUB PUSH2 0x86B JUMPI PUSH1 0x2 DUP1 SLOAD PUSH1 0x1 DUP2 ADD DUP3 SSTORE PUSH0 SWAP2 SWAP1 SWAP2 MSTORE PUSH32 0x405787FA12A823E0F2B7631CC41B3BA8828B3321CA811111FA75CD3AA3BB5ACE ADD PUSH2 0x869 DUP4 DUP3 PUSH2 0x117F JUMP JUMPDEST POP JUMPDEST DUP1 PUSH1 0x1 DUP4 PUSH1 0x40 MLOAD PUSH2 0x87C SWAP2 SWAP1 PUSH2 0x10E7 JUMP JUMPDEST SWAP1 DUP2 MSTORE PUSH1 0x20 ADD PUSH1 0x40 MLOAD DUP1 SWAP2 SUB SWAP1 KECCAK256 SWAP1 DUP2 PUSH2 0x896 SWAP2 SWAP1 PUSH2 0x117F JUMP JUMPDEST POP POP POP PUSH1 0x1 ADD PUSH2 0x7BA JUMP JUMPDEST POP POP POP JUMP JUMPDEST PUSH1 0x2 SLOAD PUSH1 0x60 SWAP1 PUSH0 SWAP1 PUSH8 0xFFFFFFFFFFFFFFFF DUP2 GT ISZERO PUSH2 0x8C6 JUMPI PUSH2 0x8C6 PUSH2 0xD83 JUMP JUMPDEST PUSH1 0x40 MLOAD SWAP1 DUP1 DUP3 MSTORE DUP1 PUSH1 0x20 MUL PUSH1 0x20 ADD DUP3 ADD PUSH1 0x40 MSTORE DUP1 ISZERO PUSH2 0x8F9 JUMPI DUP2 PUSH1 0x20 ADD JUMPDEST PUSH1 0x60 DUP2 MSTORE PUSH1 0x20 ADD SWAP1 PUSH1 0x1 SWAP1 SUB SWAP1 DUP2 PUSH2 0x8E4 JUMPI SWAP1 POP JUMPDEST POP SWAP1 POP PUSH0 JUMPDEST PUSH1 0x2 SLOAD DUP2 LT ISZERO PUSH2 0x9EC JUMPI PUSH1 0x1 PUSH1 0x2 DUP3 DUP2 SLOAD DUP2 LT PUSH2 0x91D JUMPI PUSH2 0x91D PUSH2 0x1291 JUMP JUMPDEST SWAP1 PUSH0 MSTORE PUSH1 0x20 PUSH0 KECCAK256 ADD PUSH1 0x40 MLOAD PUSH2 0x932 SWAP2 SWAP1 PUSH2 0x12A5 JUMP JUMPDEST SWAP1 DUP2 MSTORE PUSH1 0x20 ADD PUSH1 0x40 MLOAD DUP1 SWAP2 SUB SWAP1 KECCAK256 DUP1 SLOAD PUSH2 0x94B SWAP1 PUSH2 0x1102 JUMP JUMPDEST DUP1 PUSH1 0x1F ADD PUSH1 0x20 DUP1 SWAP2 DIV MUL PUSH1 0x20 ADD PUSH1 0x40 MLOAD SWAP1 DUP2 ADD PUSH1 0x40 MSTORE DUP1 SWAP3 SWAP2 SWAP1 DUP2 DUP2 MSTORE PUSH1 0x20 ADD DUP3 DUP1 SLOAD PUSH2 0x977 SWAP1 PUSH2 0x1102 JUMP JUMPDEST DUP1 ISZERO PUSH2 0x9C2 JUMPI DUP1 PUSH1 0x1F LT PUSH2 0x999 JUMPI PUSH2 0x100 DUP1 DUP4 SLOAD DIV MUL DUP4 MSTORE SWAP2 PUSH1 0x20 ADD SWAP2 PUSH2 0x9C2 JUMP JUMPDEST DUP3 ADD SWAP2 SWAP1 PUSH0 MSTORE PUSH1 0x20 PUSH0 KECCAK256 SWAP1 JUMPDEST DUP2 SLOAD DUP2 MSTORE SWAP1 PUSH1 0x1 ADD SWAP1 PUSH1 0x20 ADD DUP1 DUP4 GT PUSH2 0x9A5 JUMPI DUP3 SWAP1 SUB PUSH1 0x1F AND DUP3 ADD SWAP2 JUMPDEST POP POP POP POP POP DUP3 DUP3 DUP2 MLOAD DUP2 LT PUSH2 0x9D9 JUMPI PUSH2 0x9D9 PUSH2 0x1291 JUMP JUMPDEST PUSH1 0x20 SWAP1 DUP2 MUL SWAP2 SWAP1 SWAP2 ADD ADD MSTORE PUSH1 0x1 ADD PUSH2 0x8FE JUMP JUMPDEST POP SWAP2 SWAP1 POP JUMP JUMPDEST PUSH1 0x3 SLOAD PUSH1 0x1 PUSH1 0x1 PUSH1 0xA0 SHL SUB AND CALLER EQ PUSH2 0xA1C JUMPI PUSH1 0x40 MLOAD PUSH3 0x461BCD PUSH1 0xE5 SHL DUP2 MSTORE PUSH1 0x4 ADD PUSH2 0x2F8 SWAP1 PUSH2 0x10B0 JUMP JUMPDEST PUSH1 0x40 MLOAD PUSH4 0xA9059CBB PUSH1 0xE0 SHL DUP2 MSTORE PUSH1 0x1 PUSH1 0x1 PUSH1 0xA0 SHL SUB DUP4 DUP2 AND PUSH1 0x4 DUP4 ADD MSTORE PUSH1 0x24 DUP3 ADD DUP4 SWAP1 MSTORE PUSH0 SWAP2 SWAP1 DUP6 AND SWAP1 PUSH4 0xA9059CBB SWAP1 PUSH1 0x44 ADD PUSH1 0x20 PUSH1 0x40 MLOAD DUP1 DUP4 SUB DUP2 PUSH0 DUP8 GAS CALL ISZERO DUP1 ISZERO PUSH2 0xA6B JUMPI RETURNDATASIZE PUSH0 DUP1 RETURNDATACOPY RETURNDATASIZE PUSH0 REVERT JUMPDEST POP POP POP POP PUSH1 0x40 MLOAD RETURNDATASIZE PUSH1 0x1F NOT PUSH1 0x1F DUP3 ADD AND DUP3 ADD DUP1 PUSH1 0x40 MSTORE POP DUP2 ADD SWAP1 PUSH2 0xA8F SWAP2 SWAP1 PUSH2 0x1317 JUMP JUMPDEST SWAP1 POP DUP1 PUSH2 0xAD6 JUMPI PUSH1 0x40 MLOAD PUSH3 0x461BCD PUSH1 0xE5 SHL DUP2 MSTORE PUSH1 0x20 PUSH1 0x4 DUP3 ADD MSTORE PUSH1 0x15 PUSH1 0x24 DUP3 ADD MSTORE PUSH21 0x115490CC8C081D1C985B9CD9995C8819985A5B1959 PUSH1 0x5A SHL PUSH1 0x44 DUP3 ADD MSTORE PUSH1 0x64 ADD PUSH2 0x2F8 JUMP JUMPDEST DUP3 PUSH1 0x1 PUSH1 0x1 PUSH1 0xA0 SHL SUB AND DUP5 PUSH1 0x1 PUSH1 0x1 PUSH1 0xA0 SHL SUB AND PUSH32 0x3ED03153E9C248019B0420ED4652ED13C51DA0EC7ECC09EB2D3B70F2064BE64B DUP5 PUSH1 0x40 MLOAD PUSH2 0xB1B SWAP2 DUP2 MSTORE PUSH1 0x20 ADD SWAP1 JUMP JUMPDEST PUSH1 0x40 MLOAD DUP1 SWAP2 SUB SWAP1 LOG3 POP POP POP POP JUMP JUMPDEST PUSH1 0x60 PUSH1 0x2 DUP1 SLOAD DUP1 PUSH1 0x20 MUL PUSH1 0x20 ADD PUSH1 0x40 MLOAD SWAP1 DUP2 ADD PUSH1 0x40 MSTORE DUP1 SWAP3 SWAP2 SWAP1 DUP2 DUP2 MSTORE PUSH1 0x20 ADD PUSH0 SWAP1 JUMPDEST DUP3 DUP3 LT ISZERO PUSH2 0xBF4 JUMPI DUP4 DUP3 SWAP1 PUSH0 MSTORE PUSH1 0x20 PUSH0 KECCAK256 ADD DUP1 SLOAD PUSH2 0xB69 SWAP1 PUSH2 0x1102 JUMP JUMPDEST DUP1 PUSH1 0x1F ADD PUSH1 0x20 DUP1 SWAP2 DIV MUL PUSH1 0x20 ADD PUSH1 0x40 MLOAD SWAP1 DUP2 ADD PUSH1 0x40 MSTORE DUP1 SWAP3 SWAP2 SWAP1 DUP2 DUP2 MSTORE PUSH1 0x20 ADD DUP3 DUP1 SLOAD PUSH2 0xB95 SWAP1 PUSH2 0x1102 JUMP JUMPDEST DUP1 ISZERO PUSH2 0xBE0 JUMPI DUP1 PUSH1 0x1F LT PUSH2 0xBB7 JUMPI PUSH2 0x100 DUP1 DUP4 SLOAD DIV MUL DUP4 MSTORE SWAP2 PUSH1 0x20 ADD SWAP2 PUSH2 0xBE0 JUMP JUMPDEST DUP3 ADD SWAP2 SWAP1 PUSH0 MSTORE PUSH1 0x20 PUSH0 KECCAK256 SWAP1 JUMPDEST DUP2 SLOAD DUP2 MSTORE SWAP1 PUSH1 0x1 ADD SWAP1 PUSH1 0x20 ADD DUP1 DUP4 GT PUSH2 0xBC3 JUMPI DUP3 SWAP1 SUB PUSH1 0x1F AND DUP3 ADD SWAP2 JUMPDEST POP POP POP POP POP DUP2 MSTORE PUSH1 0x20 ADD SWAP1 PUSH1 0x1 ADD SWAP1 PUSH2 0xB4C JUMP JUMPDEST POP POP POP POP SWAP1 POP SWAP1 JUMP JUMPDEST PUSH1 0x40 MLOAD PUSH4 0x21421707 PUSH1 0xE1 SHL DUP2 MSTORE ADDRESS PUSH1 0x4 DUP3 ADD DUP2 SWAP1 MSTORE PUSH1 0x24 DUP3 ADD MSTORE PUSH0 PUSH1 0x44 DUP3 ADD DUP2 SWAP1 MSTORE SWAP1 PUSH1 0x1 PUSH1 0x1 PUSH1 0xA0 SHL SUB DUP4 AND SWAP1 PUSH4 0x42842E0E SWAP1 PUSH1 0x64 ADD PUSH0 PUSH1 0x40 MLOAD DUP1 DUP4 SUB DUP2 PUSH0 DUP8 DUP1 EXTCODESIZE ISZERO DUP1 ISZERO PUSH2 0xC4B JUMPI PUSH0 DUP1 REVERT JUMPDEST POP GAS CALL SWAP3 POP POP POP DUP1 ISZERO PUSH2 0xC5C JUMPI POP PUSH1 0x1 JUMPDEST PUSH2 0xC67 JUMPI POP PUSH0 SWAP2 SWAP1 POP JUMP JUMPDEST POP PUSH1 0x1 SWAP2 SWAP1 POP JUMP JUMPDEST PUSH1 0x2 PUSH0 SLOAD SUB PUSH2 0xC91 JUMPI PUSH1 0x40 MLOAD PUSH4 0x3EE5AEB5 PUSH1 0xE0 SHL DUP2 MSTORE PUSH1 0x4 ADD PUSH1 0x40 MLOAD DUP1 SWAP2 SUB SWAP1 REVERT JUMPDEST PUSH1 0x2 PUSH0 SSTORE JUMP JUMPDEST PUSH1 0x1 PUSH1 0x1 PUSH1 0xA0 SHL SUB DUP2 AND DUP2 EQ PUSH2 0xCAB JUMPI PUSH0 DUP1 REVERT JUMPDEST POP JUMP JUMPDEST PUSH0 DUP1 PUSH0 DUP1 PUSH0 PUSH1 0x80 DUP7 DUP9 SUB SLT ISZERO PUSH2 0xCC2 JUMPI PUSH0 DUP1 REVERT JUMPDEST DUP6 CALLDATALOAD PUSH2 0xCCD DUP2 PUSH2 0xC97 JUMP JUMPDEST SWAP5 POP PUSH1 0x20 DUP7 ADD CALLDATALOAD PUSH2 0xCDD DUP2 PUSH2 0xC97 JUMP JUMPDEST SWAP4 POP PUSH1 0x40 DUP7 ADD CALLDATALOAD SWAP3 POP PUSH1 0x60 DUP7 ADD CALLDATALOAD PUSH8 0xFFFFFFFFFFFFFFFF DUP1 DUP3 GT ISZERO PUSH2 0xD00 JUMPI PUSH0 DUP1 REVERT JUMPDEST DUP2 DUP9 ADD SWAP2 POP DUP9 PUSH1 0x1F DUP4 ADD SLT PUSH2 0xD13 JUMPI PUSH0 DUP1 REVERT JUMPDEST DUP2 CALLDATALOAD DUP2 DUP2 GT ISZERO PUSH2 0xD21 JUMPI PUSH0 DUP1 REVERT JUMPDEST DUP10 PUSH1 0x20 DUP3 DUP6 ADD ADD GT ISZERO PUSH2 0xD32 JUMPI PUSH0 DUP1 REVERT JUMPDEST SWAP7 SWAP10 SWAP6 SWAP9 POP SWAP4 SWAP7 POP PUSH1 0x20 ADD SWAP5 SWAP4 SWAP3 POP POP POP JUMP JUMPDEST PUSH0 DUP1 PUSH0 PUSH1 0x60 DUP5 DUP7 SUB SLT ISZERO PUSH2 0xD57 JUMPI PUSH0 DUP1 REVERT JUMPDEST DUP4 CALLDATALOAD PUSH2 0xD62 DUP2 PUSH2 0xC97 JUMP JUMPDEST SWAP3 POP PUSH1 0x20 DUP5 ADD CALLDATALOAD PUSH2 0xD72 DUP2 PUSH2 0xC97 JUMP JUMPDEST SWAP3 SWAP6 SWAP3 SWAP5 POP POP POP PUSH1 0x40 SWAP2 SWAP1 SWAP2 ADD CALLDATALOAD SWAP1 JUMP JUMPDEST PUSH4 0x4E487B71 PUSH1 0xE0 SHL PUSH0 MSTORE PUSH1 0x41 PUSH1 0x4 MSTORE PUSH1 0x24 PUSH0 REVERT JUMPDEST PUSH1 0x40 MLOAD PUSH1 0x1F DUP3 ADD PUSH1 0x1F NOT AND DUP2 ADD PUSH8 0xFFFFFFFFFFFFFFFF DUP2 GT DUP3 DUP3 LT OR ISZERO PUSH2 0xDC0 JUMPI PUSH2 0xDC0 PUSH2 0xD83 JUMP JUMPDEST PUSH1 0x40 MSTORE SWAP2 SWAP1 POP JUMP JUMPDEST PUSH0 DUP3 PUSH1 0x1F DUP4 ADD SLT PUSH2 0xDD7 JUMPI PUSH0 DUP1 REVERT JUMPDEST DUP2 CALLDATALOAD PUSH8 0xFFFFFFFFFFFFFFFF DUP2 GT ISZERO PUSH2 0xDF1 JUMPI PUSH2 0xDF1 PUSH2 0xD83 JUMP JUMPDEST PUSH2 0xE04 PUSH1 0x1F DUP3 ADD PUSH1 0x1F NOT AND PUSH1 0x20 ADD PUSH2 0xD97 JUMP JUMPDEST DUP2 DUP2 MSTORE DUP5 PUSH1 0x20 DUP4 DUP7 ADD ADD GT ISZERO PUSH2 0xE18 JUMPI PUSH0 DUP1 REVERT JUMPDEST DUP2 PUSH1 0x20 DUP6 ADD PUSH1 0x20 DUP4 ADD CALLDATACOPY PUSH0 SWAP2 DUP2 ADD PUSH1 0x20 ADD SWAP2 SWAP1 SWAP2 MSTORE SWAP4 SWAP3 POP POP POP JUMP JUMPDEST PUSH0 DUP1 PUSH1 0x40 DUP4 DUP6 SUB SLT ISZERO PUSH2 0xE45 JUMPI PUSH0 DUP1 REVERT JUMPDEST DUP3 CALLDATALOAD PUSH8 0xFFFFFFFFFFFFFFFF DUP1 DUP3 GT ISZERO PUSH2 0xE5C JUMPI PUSH0 DUP1 REVERT JUMPDEST PUSH2 0xE68 DUP7 DUP4 DUP8 ADD PUSH2 0xDC8 JUMP JUMPDEST SWAP4 POP PUSH1 0x20 DUP6 ADD CALLDATALOAD SWAP2 POP DUP1 DUP3 GT ISZERO PUSH2 0xE7D JUMPI PUSH0 DUP1 REVERT JUMPDEST POP PUSH2 0xE8A DUP6 DUP3 DUP7 ADD PUSH2 0xDC8 JUMP JUMPDEST SWAP2 POP POP SWAP3 POP SWAP3 SWAP1 POP JUMP JUMPDEST PUSH0 PUSH1 0x20 DUP3 DUP5 SUB SLT ISZERO PUSH2 0xEA4 JUMPI PUSH0 DUP1 REVERT JUMPDEST DUP2 CALLDATALOAD PUSH8 0xFFFFFFFFFFFFFFFF DUP2 GT ISZERO PUSH2 0xEBA JUMPI PUSH0 DUP1 REVERT JUMPDEST PUSH2 0xEC6 DUP5 DUP3 DUP6 ADD PUSH2 0xDC8 JUMP JUMPDEST SWAP5 SWAP4 POP POP POP POP JUMP JUMPDEST PUSH0 JUMPDEST DUP4 DUP2 LT ISZERO PUSH2 0xEE8 JUMPI DUP2 DUP2 ADD MLOAD DUP4 DUP3 ADD MSTORE PUSH1 0x20 ADD PUSH2 0xED0 JUMP JUMPDEST POP POP PUSH0 SWAP2 ADD MSTORE JUMP JUMPDEST PUSH0 DUP2 MLOAD DUP1 DUP5 MSTORE PUSH2 0xF07 DUP2 PUSH1 0x20 DUP7 ADD PUSH1 0x20 DUP7 ADD PUSH2 0xECE JUMP JUMPDEST PUSH1 0x1F ADD PUSH1 0x1F NOT AND SWAP3 SWAP1 SWAP3 ADD PUSH1 0x20 ADD SWAP3 SWAP2 POP POP JUMP JUMPDEST PUSH1 0x20 DUP2 MSTORE PUSH0 PUSH2 0xF2D PUSH1 0x20 DUP4 ADD DUP5 PUSH2 0xEF0 JUMP JUMPDEST SWAP4 SWAP3 POP POP POP JUMP JUMPDEST PUSH0 DUP1 PUSH1 0x40 DUP4 DUP6 SUB SLT ISZERO PUSH2 0xF45 JUMPI PUSH0 DUP1 REVERT JUMPDEST DUP3 CALLDATALOAD PUSH2 0xF50 DUP2 PUSH2 0xC97 JUMP JUMPDEST SWAP5 PUSH1 0x20 SWAP4 SWAP1 SWAP4 ADD CALLDATALOAD SWAP4 POP POP POP JUMP JUMPDEST PUSH0 DUP3 PUSH1 0x1F DUP4 ADD SLT PUSH2 0xF6D JUMPI PUSH0 DUP1 REVERT JUMPDEST DUP2 CALLDATALOAD PUSH1 0x20 PUSH8 0xFFFFFFFFFFFFFFFF DUP1 DUP4 GT ISZERO PUSH2 0xF8A JUMPI PUSH2 0xF8A PUSH2 0xD83 JUMP JUMPDEST DUP3 PUSH1 0x5 SHL PUSH2 0xF99 DUP4 DUP3 ADD PUSH2 0xD97 JUMP JUMPDEST SWAP4 DUP5 MSTORE DUP6 DUP2 ADD DUP4 ADD SWAP4 DUP4 DUP2 ADD SWAP1 DUP9 DUP7 GT ISZERO PUSH2 0xFB2 JUMPI PUSH0 DUP1 REVERT JUMPDEST DUP5 DUP9 ADD SWAP3 POP JUMPDEST DUP6 DUP4 LT ISZERO PUSH2 0xFEC JUMPI DUP3 CALLDATALOAD DUP5 DUP2 GT ISZERO PUSH2 0xFCE JUMPI PUSH0 DUP1 REVERT JUMPDEST PUSH2 0xFDC DUP11 DUP8 DUP4 DUP13 ADD ADD PUSH2 0xDC8 JUMP JUMPDEST DUP4 MSTORE POP SWAP2 DUP5 ADD SWAP2 SWAP1 DUP5 ADD SWAP1 PUSH2 0xFB8 JUMP JUMPDEST SWAP9 SWAP8 POP POP POP POP POP POP POP POP JUMP JUMPDEST PUSH0 DUP1 PUSH1 0x40 DUP4 DUP6 SUB SLT ISZERO PUSH2 0x1009 JUMPI PUSH0 DUP1 REVERT JUMPDEST DUP3 CALLDATALOAD PUSH8 0xFFFFFFFFFFFFFFFF DUP1 DUP3 GT ISZERO PUSH2 0x1020 JUMPI PUSH0 DUP1 REVERT JUMPDEST PUSH2 0x102C DUP7 DUP4 DUP8 ADD PUSH2 0xF5E JUMP JUMPDEST SWAP4 POP PUSH1 0x20 DUP6 ADD CALLDATALOAD SWAP2 POP DUP1 DUP3 GT ISZERO PUSH2 0x1041 JUMPI PUSH0 DUP1 REVERT JUMPDEST POP PUSH2 0xE8A DUP6 DUP3 DUP7 ADD PUSH2 0xF5E JUMP JUMPDEST PUSH0 PUSH1 0x20 DUP1 DUP4 ADD PUSH1 0x20 DUP5 MSTORE DUP1 DUP6 MLOAD DUP1 DUP4 MSTORE PUSH1 0x40 DUP7 ADD SWAP2 POP PUSH1 0x40 DUP2 PUSH1 0x5 SHL DUP8 ADD ADD SWAP3 POP PUSH1 0x20 DUP8 ADD PUSH0 JUMPDEST DUP3 DUP2 LT ISZERO PUSH2 0x10A3 JUMPI PUSH1 0x3F NOT DUP9 DUP7 SUB ADD DUP5 MSTORE PUSH2 0x1091 DUP6 DUP4 MLOAD PUSH2 0xEF0 JUMP JUMPDEST SWAP5 POP SWAP3 DUP6 ADD SWAP3 SWAP1 DUP6 ADD SWAP1 PUSH1 0x1 ADD PUSH2 0x1075 JUMP JUMPDEST POP SWAP3 SWAP8 SWAP7 POP POP POP POP POP POP POP JUMP JUMPDEST PUSH1 0x20 DUP1 DUP3 MSTORE PUSH1 0x1F SWAP1 DUP3 ADD MSTORE PUSH32 0x4F6E6C79207468652044414F2063616E206D616B65207472616E736665727300 PUSH1 0x40 DUP3 ADD MSTORE PUSH1 0x60 ADD SWAP1 JUMP JUMPDEST PUSH0 DUP3 MLOAD PUSH2 0x10F8 DUP2 DUP5 PUSH1 0x20 DUP8 ADD PUSH2 0xECE JUMP JUMPDEST SWAP2 SWAP1 SWAP2 ADD SWAP3 SWAP2 POP POP JUMP JUMPDEST PUSH1 0x1 DUP2 DUP2 SHR SWAP1 DUP3 AND DUP1 PUSH2 0x1116 JUMPI PUSH1 0x7F DUP3 AND SWAP2 POP JUMPDEST PUSH1 0x20 DUP3 LT DUP2 SUB PUSH2 0x9EC JUMPI PUSH4 0x4E487B71 PUSH1 0xE0 SHL PUSH0 MSTORE PUSH1 0x22 PUSH1 0x4 MSTORE PUSH1 0x24 PUSH0 REVERT JUMPDEST PUSH1 0x1F DUP3 GT ISZERO PUSH2 0x8A1 JUMPI DUP1 PUSH0 MSTORE PUSH1 0x20 PUSH0 KECCAK256 PUSH1 0x1F DUP5 ADD PUSH1 0x5 SHR DUP2 ADD PUSH1 0x20 DUP6 LT ISZERO PUSH2 0x1159 JUMPI POP DUP1 JUMPDEST PUSH1 0x1F DUP5 ADD PUSH1 0x5 SHR DUP3 ADD SWAP2 POP JUMPDEST DUP2 DUP2 LT ISZERO PUSH2 0x1178 JUMPI PUSH0 DUP2 SSTORE PUSH1 0x1 ADD PUSH2 0x1165 JUMP JUMPDEST POP POP POP POP POP JUMP JUMPDEST DUP2 MLOAD PUSH8 0xFFFFFFFFFFFFFFFF DUP2 GT ISZERO PUSH2 0x1199 JUMPI PUSH2 0x1199 PUSH2 0xD83 JUMP JUMPDEST PUSH2 0x11AD DUP2 PUSH2 0x11A7 DUP5 SLOAD PUSH2 0x1102 JUMP JUMPDEST DUP5 PUSH2 0x1134 JUMP JUMPDEST PUSH1 0x20 DUP1 PUSH1 0x1F DUP4 GT PUSH1 0x1 DUP2 EQ PUSH2 0x11E0 JUMPI PUSH0 DUP5 ISZERO PUSH2 0x11C9 JUMPI POP DUP6 DUP4 ADD MLOAD JUMPDEST PUSH0 NOT PUSH1 0x3 DUP7 SWAP1 SHL SHR NOT AND PUSH1 0x1 DUP6 SWAP1 SHL OR DUP6 SSTORE PUSH2 0x1237 JUMP JUMPDEST PUSH0 DUP6 DUP2 MSTORE PUSH1 0x20 DUP2 KECCAK256 PUSH1 0x1F NOT DUP7 AND SWAP2 JUMPDEST DUP3 DUP2 LT ISZERO PUSH2 0x120E JUMPI DUP9 DUP7 ADD MLOAD DUP3 SSTORE SWAP5 DUP5 ADD SWAP5 PUSH1 0x1 SWAP1 SWAP2 ADD SWAP1 DUP5 ADD PUSH2 0x11EF JUMP JUMPDEST POP DUP6 DUP3 LT ISZERO PUSH2 0x122B JUMPI DUP8 DUP6 ADD MLOAD PUSH0 NOT PUSH1 0x3 DUP9 SWAP1 SHL PUSH1 0xF8 AND SHR NOT AND DUP2 SSTORE JUMPDEST POP POP PUSH1 0x1 DUP5 PUSH1 0x1 SHL ADD DUP6 SSTORE JUMPDEST POP POP POP POP POP POP JUMP JUMPDEST PUSH1 0x40 DUP2 MSTORE PUSH0 PUSH2 0x1251 PUSH1 0x40 DUP4 ADD DUP6 PUSH2 0xEF0 JUMP JUMPDEST DUP3 DUP2 SUB PUSH1 0x20 DUP5 ADD MSTORE PUSH2 0x1263 DUP2 DUP6 PUSH2 0xEF0 JUMP JUMPDEST SWAP6 SWAP5 POP POP POP POP POP JUMP JUMPDEST DUP2 DUP2 SUB DUP2 DUP2 GT ISZERO PUSH2 0x128B JUMPI PUSH4 0x4E487B71 PUSH1 0xE0 SHL PUSH0 MSTORE PUSH1 0x11 PUSH1 0x4 MSTORE PUSH1 0x24 PUSH0 REVERT JUMPDEST SWAP3 SWAP2 POP POP JUMP JUMPDEST PUSH4 0x4E487B71 PUSH1 0xE0 SHL PUSH0 MSTORE PUSH1 0x32 PUSH1 0x4 MSTORE PUSH1 0x24 PUSH0 REVERT JUMPDEST PUSH0 DUP1 DUP4 SLOAD PUSH2 0x12B2 DUP2 PUSH2 0x1102 JUMP JUMPDEST PUSH1 0x1 DUP3 DUP2 AND DUP1 ISZERO PUSH2 0x12CA JUMPI PUSH1 0x1 DUP2 EQ PUSH2 0x12DF JUMPI PUSH2 0x130B JUMP JUMPDEST PUSH1 0xFF NOT DUP5 AND DUP8 MSTORE DUP3 ISZERO ISZERO DUP4 MUL DUP8 ADD SWAP5 POP PUSH2 0x130B JUMP JUMPDEST DUP8 PUSH0 MSTORE PUSH1 0x20 DUP1 PUSH0 KECCAK256 PUSH0 JUMPDEST DUP6 DUP2 LT ISZERO PUSH2 0x1302 JUMPI DUP2 SLOAD DUP11 DUP3 ADD MSTORE SWAP1 DUP5 ADD SWAP1 DUP3 ADD PUSH2 0x12E9 JUMP JUMPDEST POP POP POP DUP3 DUP8 ADD SWAP5 POP JUMPDEST POP SWAP3 SWAP7 SWAP6 POP POP POP POP POP POP JUMP JUMPDEST PUSH0 PUSH1 0x20 DUP3 DUP5 SUB SLT ISZERO PUSH2 0x1327 JUMPI PUSH0 DUP1 REVERT JUMPDEST DUP2 MLOAD DUP1 ISZERO ISZERO DUP2 EQ PUSH2 0xF2D JUMPI PUSH0 DUP1 REVERT INVALID LOG2 PUSH5 0x6970667358 0x22 SLT KECCAK256 PUSH7 0x377BC95B6C168C PUSH9 0x4EAEBE9AF8620E1B84 DUP4 0xEE DUP2 0xAD 0xE6 TSTORE DUP12 0x24 SDIV CALLDATALOAD 0xDD 0x22 SWAP6 DUP6 PUSH5 0x736F6C6343 STOP ADDMOD XOR STOP CALLER "
				},
				"gasEstimates": {
					"creation": {
						"codeDepositCost": "994400",
						"executionCost": "infinite",
						"totalCost": "infinite"
					},
					"external": {
						"batchEditRegistry(string[],string[])": "infinite",
						"editRegistry(string,string)": "infinite",
						"getAllKeys()": "infinite",
						"getAllValues()": "infinite",
						"getRegistryValue(string)": "infinite",
						"onERC721Received(address,address,uint256,bytes)": "infinite",
						"owner()": "2358",
						"transferERC20(address,address,uint256)": "infinite",
						"transferERC721(address,address,uint256)": "infinite",
						"transferETH(address,uint256)": "infinite",
						"wrapper()": "2424"
					},
					"internal": {
						"isERC721(address)": "infinite"
					}
				},
				"methodIdentifiers": {
					"batchEditRegistry(string[],string[])": "88f8f424",
					"editRegistry(string,string)": "2559ddf5",
					"getAllKeys()": "bc87eed3",
					"getAllValues()": "981f5499",
					"getRegistryValue(string)": "2e9c247b",
					"onERC721Received(address,address,uint256,bytes)": "150b7a02",
					"owner()": "8da5cb5b",
					"transferERC20(address,address,uint256)": "9db5dbe4",
					"transferERC721(address,address,uint256)": "1aca6376",
					"transferETH(address,uint256)": "7b1a4909",
					"wrapper()": "ac210cc7"
				}
			},
			"storageLayout": {
				"storage": [
					{
						"astId": 223,
						"contract": "contracts/Registry.sol:Registry",
						"label": "_status",
						"offset": 0,
						"slot": "0",
						"type": "t_uint256"
					},
					{
						"astId": 307,
						"contract": "contracts/Registry.sol:Registry",
						"label": "reg",
						"offset": 0,
						"slot": "1",
						"type": "t_mapping(t_string_memory_ptr,t_string_storage)"
					},
					{
						"astId": 310,
						"contract": "contracts/Registry.sol:Registry",
						"label": "keys",
						"offset": 0,
						"slot": "2",
						"type": "t_array(t_string_storage)dyn_storage"
					},
					{
						"astId": 312,
						"contract": "contracts/Registry.sol:Registry",
						"label": "owner",
						"offset": 0,
						"slot": "3",
						"type": "t_address"
					},
					{
						"astId": 314,
						"contract": "contracts/Registry.sol:Registry",
						"label": "wrapper",
						"offset": 0,
						"slot": "4",
						"type": "t_address"
					}
				],
				"types": {
					"t_address": {
						"encoding": "inplace",
						"label": "address",
						"numberOfBytes": "20"
					},
					"t_array(t_string_storage)dyn_storage": {
						"base": "t_string_storage",
						"encoding": "dynamic_array",
						"label": "string[]",
						"numberOfBytes": "32"
					},
					"t_mapping(t_string_memory_ptr,t_string_storage)": {
						"encoding": "mapping",
						"key": "t_string_memory_ptr",
						"label": "mapping(string => string)",
						"numberOfBytes": "32",
						"value": "t_string_storage"
					},
					"t_string_memory_ptr": {
						"encoding": "bytes",
						"label": "string",
						"numberOfBytes": "32"
					},
					"t_string_storage": {
						"encoding": "bytes",
						"label": "string",
						"numberOfBytes": "32"
					},
					"t_uint256": {
						"encoding": "inplace",
						"label": "uint256",
						"numberOfBytes": "32"
					}
				}
			},
			"userdoc": {
				"kind": "user",
				"methods": {},
				"version": 1
			}
		}
	}
}