{
	"contracts/Test.sol": {
		"SimpleDAO": {
			"abi": [
				{
					"inputs": [],
					"stateMutability": "nonpayable",
					"type": "constructor"
				},
				{
					"stateMutability": "payable",
					"type": "fallback"
				},
				{
					"inputs": [
						{
							"internalType": "string",
							"name": "description",
							"type": "string"
						}
					],
					"name": "createProposal",
					"outputs": [],
					"stateMutability": "nonpayable",
					"type": "function"
				},
				{
					"inputs": [],
					"name": "deposit",
					"outputs": [],
					"stateMutability": "payable",
					"type": "function"
				},
				{
					"inputs": [
						{
							"internalType": "address payable",
							"name": "towhom",
							"type": "address"
						},
						{
							"internalType": "uint256",
							"name": "howMuch",
							"type": "uint256"
						}
					],
					"name": "execute",
					"outputs": [],
					"stateMutability": "payable",
					"type": "function"
				},
				{
					"inputs": [
						{
							"internalType": "uint256",
							"name": "proposalIndex",
							"type": "uint256"
						}
					],
					"name": "executeProposal",
					"outputs": [],
					"stateMutability": "nonpayable",
					"type": "function"
				},
				{
					"inputs": [],
					"name": "owner",
					"outputs": [
						{
							"internalType": "address",
							"name": "",
							"type": "address"
						}
					],
					"stateMutability": "view",
					"type": "function"
				},
				{
					"inputs": [],
					"name": "proposalCount",
					"outputs": [
						{
							"internalType": "uint256",
							"name": "",
							"type": "uint256"
						}
					],
					"stateMutability": "view",
					"type": "function"
				},
				{
					"inputs": [
						{
							"internalType": "uint256",
							"name": "",
							"type": "uint256"
						}
					],
					"name": "proposals",
					"outputs": [
						{
							"internalType": "string",
							"name": "description",
							"type": "string"
						},
						{
							"internalType": "uint256",
							"name": "voteCount",
							"type": "uint256"
						},
						{
							"internalType": "bool",
							"name": "executed",
							"type": "bool"
						}
					],
					"stateMutability": "view",
					"type": "function"
				},
				{
					"inputs": [
						{
							"internalType": "string",
							"name": "proposalHash",
							"type": "string"
						}
					],
					"name": "queueProposal",
					"outputs": [],
					"stateMutability": "nonpayable",
					"type": "function"
				},
				{
					"inputs": [
						{
							"internalType": "address",
							"name": "",
							"type": "address"
						}
					],
					"name": "shares",
					"outputs": [
						{
							"internalType": "uint256",
							"name": "",
							"type": "uint256"
						}
					],
					"stateMutability": "view",
					"type": "function"
				},
				{
					"inputs": [],
					"name": "totalShares",
					"outputs": [
						{
							"internalType": "uint256",
							"name": "",
							"type": "uint256"
						}
					],
					"stateMutability": "view",
					"type": "function"
				},
				{
					"inputs": [],
					"name": "vote",
					"outputs": [],
					"stateMutability": "nonpayable",
					"type": "function"
				},
				{
					"inputs": [],
					"name": "withdraw",
					"outputs": [],
					"stateMutability": "nonpayable",
					"type": "function"
				},
				{
					"stateMutability": "payable",
					"type": "receive"
				}
			],
			"devdoc": {
				"kind": "dev",
				"methods": {},
				"version": 1
			},
			"evm": {
				"assembly": "    /* \"contracts/Test.sol\":60:2261  contract SimpleDAO {... */\n  mstore(0x40, 0x80)\n    /* \"contracts/Test.sol\":243:244  0 */\n  0x00\n    /* \"contracts/Test.sol\":229:244  uint256 votes=0 */\n  0x04\n  sstore\n    /* \"contracts/Test.sol\":541:592  constructor() {... */\n  callvalue\n  dup1\n  iszero\n  tag_1\n  jumpi\n  0x00\n  dup1\n  revert\ntag_1:\n  pop\n    /* \"contracts/Test.sol\":566:571  owner */\n  0x00\n    /* \"contracts/Test.sol\":566:584  owner = msg.sender */\n  dup1\n  sload\n  not(sub(shl(0xa0, 0x01), 0x01))\n  and\n    /* \"contracts/Test.sol\":574:584  msg.sender */\n  caller\n    /* \"contracts/Test.sol\":566:584  owner = msg.sender */\n  or\n  swap1\n  sstore\n    /* \"contracts/Test.sol\":60:2261  contract SimpleDAO {... */\n  dataSize(sub_0)\n  dup1\n  dataOffset(sub_0)\n  0x00\n  codecopy\n  0x00\n  return\nstop\n\nsub_0: assembly {\n        /* \"contracts/Test.sol\":60:2261  contract SimpleDAO {... */\n      mstore(0x40, 0x80)\n      jumpi(tag_1, lt(calldatasize, 0x04))\n      shr(0xe0, calldataload(0x00))\n      dup1\n      0x632a9a52\n      gt\n      tag_15\n      jumpi\n      dup1\n      0x632a9a52\n      eq\n      tag_9\n      jumpi\n      dup1\n      0x8a286b07\n      eq\n      tag_10\n      jumpi\n      dup1\n      0x8da5cb5b\n      eq\n      tag_11\n      jumpi\n      dup1\n      0xce7c2ac2\n      eq\n      tag_12\n      jumpi\n      dup1\n      0xd0e30db0\n      eq\n      tag_13\n      jumpi\n      dup1\n      0xda35c664\n      eq\n      tag_14\n      jumpi\n      jump(tag_2)\n    tag_15:\n      dup1\n      0x013cf08b\n      eq\n      tag_3\n      jumpi\n      dup1\n      0x0d61b519\n      eq\n      tag_4\n      jumpi\n      dup1\n      0x3a98ef39\n      eq\n      tag_5\n      jumpi\n      dup1\n      0x3b89bb86\n      eq\n      tag_6\n      jumpi\n      dup1\n      0x3ccfd60b\n      eq\n      tag_7\n      jumpi\n      dup1\n      0x49c2a1a6\n      eq\n      tag_8\n      jumpi\n      jump(tag_2)\n    tag_1:\n      jumpi(tag_2, calldatasize)\n        /* \"contracts/Test.sol\":688:698  msg.sender */\n      caller\n        /* \"contracts/Test.sol\":681:699  shares[msg.sender] */\n      0x00\n      swap1\n      dup2\n      mstore\n        /* \"contracts/Test.sol\":681:687  shares */\n      0x01\n        /* \"contracts/Test.sol\":681:699  shares[msg.sender] */\n      0x20\n      mstore\n      0x40\n      dup2\n      keccak256\n        /* \"contracts/Test.sol\":681:712  shares[msg.sender] += msg.value */\n      dup1\n      sload\n        /* \"contracts/Test.sol\":703:712  msg.value */\n      callvalue\n      swap3\n        /* \"contracts/Test.sol\":681:699  shares[msg.sender] */\n      swap1\n        /* \"contracts/Test.sol\":681:712  shares[msg.sender] += msg.value */\n      tag_18\n      swap1\n        /* \"contracts/Test.sol\":703:712  msg.value */\n      dup5\n      swap1\n        /* \"contracts/Test.sol\":681:712  shares[msg.sender] += msg.value */\n      tag_19\n      jump\t// in\n    tag_18:\n      swap3\n      pop\n      pop\n      dup2\n      swap1\n      sstore\n      pop\n        /* \"contracts/Test.sol\":738:747  msg.value */\n      callvalue\n        /* \"contracts/Test.sol\":723:734  totalShares */\n      0x02\n      0x00\n        /* \"contracts/Test.sol\":723:747  totalShares += msg.value */\n      dup3\n      dup3\n      sload\n      tag_20\n      swap2\n      swap1\n      tag_19\n      jump\t// in\n    tag_20:\n      swap3\n      pop\n      pop\n      dup2\n      swap1\n      sstore\n      stop\n        /* \"contracts/Test.sol\":60:2261  contract SimpleDAO {... */\n    tag_2:\n        /* \"contracts/Test.sol\":866:876  msg.sender */\n      caller\n        /* \"contracts/Test.sol\":859:877  shares[msg.sender] */\n      0x00\n      swap1\n      dup2\n      mstore\n        /* \"contracts/Test.sol\":859:865  shares */\n      0x01\n        /* \"contracts/Test.sol\":859:877  shares[msg.sender] */\n      0x20\n      mstore\n      0x40\n      dup2\n      keccak256\n        /* \"contracts/Test.sol\":859:890  shares[msg.sender] += msg.value */\n      dup1\n      sload\n        /* \"contracts/Test.sol\":881:890  msg.value */\n      callvalue\n      swap3\n        /* \"contracts/Test.sol\":859:877  shares[msg.sender] */\n      swap1\n        /* \"contracts/Test.sol\":859:890  shares[msg.sender] += msg.value */\n      tag_18\n      swap1\n        /* \"contracts/Test.sol\":881:890  msg.value */\n      dup5\n      swap1\n        /* \"contracts/Test.sol\":859:890  shares[msg.sender] += msg.value */\n      tag_19\n      jump\t// in\n        /* \"contracts/Test.sol\":396:423  Proposal[] public proposals */\n    tag_3:\n      callvalue\n      dup1\n      iszero\n      tag_25\n      jumpi\n      0x00\n      dup1\n      revert\n    tag_25:\n      pop\n      tag_26\n      tag_27\n      calldatasize\n      0x04\n      tag_28\n      jump\t// in\n    tag_27:\n      tag_29\n      jump\t// in\n    tag_26:\n      mload(0x40)\n      tag_30\n      swap4\n      swap3\n      swap2\n      swap1\n      tag_31\n      jump\t// in\n    tag_30:\n      mload(0x40)\n      dup1\n      swap2\n      sub\n      swap1\n      return\n        /* \"contracts/Test.sol\":1695:2002  function executeProposal(uint256 proposalIndex) public onlyOwner {... */\n    tag_4:\n      callvalue\n      dup1\n      iszero\n      tag_32\n      jumpi\n      0x00\n      dup1\n      revert\n    tag_32:\n      pop\n      tag_33\n      tag_34\n      calldatasize\n      0x04\n      tag_28\n      jump\t// in\n    tag_34:\n      tag_35\n      jump\t// in\n    tag_33:\n      stop\n        /* \"contracts/Test.sol\":161:187  uint256 public totalShares */\n    tag_5:\n      callvalue\n      dup1\n      iszero\n      tag_36\n      jumpi\n      0x00\n      dup1\n      revert\n    tag_36:\n      pop\n      tag_37\n      sload(0x02)\n      dup2\n      jump\n    tag_37:\n      mload(0x40)\n        /* \"#utility.yul\":1300:1325   */\n      swap1\n      dup2\n      mstore\n        /* \"#utility.yul\":1288:1290   */\n      0x20\n        /* \"#utility.yul\":1273:1291   */\n      add\n        /* \"contracts/Test.sol\":161:187  uint256 public totalShares */\n      tag_30\n        /* \"#utility.yul\":1154:1331   */\n      jump\n        /* \"contracts/Test.sol\":941:1065  function execute(address payable towhom, uint256 howMuch) public payable{... */\n    tag_6:\n      tag_33\n      tag_42\n      calldatasize\n      0x04\n      tag_43\n      jump\t// in\n    tag_42:\n      tag_44\n      jump\t// in\n        /* \"contracts/Test.sol\":2012:2258  function withdraw() public {... */\n    tag_7:\n      callvalue\n      dup1\n      iszero\n      tag_45\n      jumpi\n      0x00\n      dup1\n      revert\n    tag_45:\n      pop\n      tag_33\n      tag_47\n      jump\t// in\n        /* \"contracts/Test.sol\":1311:1547  function createProposal(string memory description) public {... */\n    tag_8:\n      callvalue\n      dup1\n      iszero\n      tag_48\n      jumpi\n      0x00\n      dup1\n      revert\n    tag_48:\n      pop\n      tag_33\n      tag_50\n      calldatasize\n      0x04\n      tag_51\n      jump\t// in\n    tag_50:\n      tag_52\n      jump\t// in\n        /* \"contracts/Test.sol\":1073:1126  function vote()public{... */\n    tag_9:\n      callvalue\n      dup1\n      iszero\n      tag_53\n      jumpi\n      0x00\n      dup1\n      revert\n    tag_53:\n      pop\n      tag_33\n      tag_55\n      jump\t// in\n        /* \"contracts/Test.sol\":1555:1687  function queueProposal(string memory proposalHash)public {... */\n    tag_10:\n      callvalue\n      dup1\n      iszero\n      tag_56\n      jumpi\n      0x00\n      dup1\n      revert\n    tag_56:\n      pop\n      tag_33\n      tag_58\n      calldatasize\n      0x04\n      tag_51\n      jump\t// in\n    tag_58:\n      tag_59\n      jump\t// in\n        /* \"contracts/Test.sol\":86:106  address public owner */\n    tag_11:\n      callvalue\n      dup1\n      iszero\n      tag_60\n      jumpi\n      0x00\n      dup1\n      revert\n    tag_60:\n      pop\n      sload(0x00)\n      tag_61\n      swap1\n      sub(shl(0xa0, 0x01), 0x01)\n      and\n      dup2\n      jump\n    tag_61:\n      mload(0x40)\n      sub(shl(0xa0, 0x01), 0x01)\n        /* \"#utility.yul\":3039:3071   */\n      swap1\n      swap2\n      and\n        /* \"#utility.yul\":3021:3072   */\n      dup2\n      mstore\n        /* \"#utility.yul\":3009:3011   */\n      0x20\n        /* \"#utility.yul\":2994:3012   */\n      add\n        /* \"contracts/Test.sol\":86:106  address public owner */\n      tag_30\n        /* \"#utility.yul\":2875:3078   */\n      jump\n        /* \"contracts/Test.sol\":113:154  mapping(address => uint256) public shares */\n    tag_12:\n      callvalue\n      dup1\n      iszero\n      tag_65\n      jumpi\n      0x00\n      dup1\n      revert\n    tag_65:\n      pop\n      tag_37\n      tag_67\n      calldatasize\n      0x04\n      tag_68\n      jump\t// in\n    tag_67:\n      mstore(0x20, 0x01)\n      0x00\n      swap1\n      dup2\n      mstore\n      0x40\n      swap1\n      keccak256\n      sload\n      dup2\n      jump\n        /* \"contracts/Test.sol\":1134:1303  function deposit() public payable {... */\n    tag_13:\n      tag_33\n      tag_72\n      jump\t// in\n        /* \"contracts/Test.sol\":194:222  uint256 public proposalCount */\n    tag_14:\n      callvalue\n      dup1\n      iszero\n      tag_73\n      jumpi\n      0x00\n      dup1\n      revert\n    tag_73:\n      pop\n      tag_37\n      sload(0x03)\n      dup2\n      jump\n        /* \"contracts/Test.sol\":396:423  Proposal[] public proposals */\n    tag_29:\n      0x06\n      dup2\n      dup2\n      sload\n      dup2\n      lt\n      tag_77\n      jumpi\n      0x00\n      dup1\n      revert\n    tag_77:\n      swap1\n      0x00\n      mstore\n      keccak256(0x00, 0x20)\n      swap1\n      0x03\n      mul\n      add\n      0x00\n      swap2\n      pop\n      swap1\n      pop\n      dup1\n      0x00\n      add\n      dup1\n      sload\n      tag_79\n      swap1\n      tag_80\n      jump\t// in\n    tag_79:\n      dup1\n      0x1f\n      add\n      0x20\n      dup1\n      swap2\n      div\n      mul\n      0x20\n      add\n      mload(0x40)\n      swap1\n      dup2\n      add\n      0x40\n      mstore\n      dup1\n      swap3\n      swap2\n      swap1\n      dup2\n      dup2\n      mstore\n      0x20\n      add\n      dup3\n      dup1\n      sload\n      tag_81\n      swap1\n      tag_80\n      jump\t// in\n    tag_81:\n      dup1\n      iszero\n      tag_82\n      jumpi\n      dup1\n      0x1f\n      lt\n      tag_83\n      jumpi\n      0x0100\n      dup1\n      dup4\n      sload\n      div\n      mul\n      dup4\n      mstore\n      swap2\n      0x20\n      add\n      swap2\n      jump(tag_82)\n    tag_83:\n      dup3\n      add\n      swap2\n      swap1\n      0x00\n      mstore\n      keccak256(0x00, 0x20)\n      swap1\n    tag_84:\n      dup2\n      sload\n      dup2\n      mstore\n      swap1\n      0x01\n      add\n      swap1\n      0x20\n      add\n      dup1\n      dup4\n      gt\n      tag_84\n      jumpi\n      dup3\n      swap1\n      sub\n      0x1f\n      and\n      dup3\n      add\n      swap2\n    tag_82:\n      pop\n      pop\n      pop\n      pop\n      0x01\n      dup4\n      add\n      sload\n      0x02\n      swap1\n      swap4\n      add\n      sload\n      swap2\n      swap3\n      swap2\n      0xff\n      and\n      swap1\n      pop\n      dup4\n      jump\t// out\n        /* \"contracts/Test.sol\":1695:2002  function executeProposal(uint256 proposalIndex) public onlyOwner {... */\n    tag_35:\n        /* \"contracts/Test.sol\":490:495  owner */\n      and(sub(shl(0xa0, 0x01), 0x01), sload(0x00))\n        /* \"contracts/Test.sol\":476:486  msg.sender */\n      caller\n        /* \"contracts/Test.sol\":476:495  msg.sender == owner */\n      eq\n        /* \"contracts/Test.sol\":468:513  require(msg.sender == owner, \"Not the owner\") */\n      tag_86\n      jumpi\n      mload(0x40)\n      shl(0xe5, 0x461bcd)\n      dup2\n      mstore\n        /* \"#utility.yul\":3930:3932   */\n      0x20\n        /* \"contracts/Test.sol\":468:513  require(msg.sender == owner, \"Not the owner\") */\n      0x04\n      dup3\n      add\n        /* \"#utility.yul\":3912:3933   */\n      mstore\n        /* \"#utility.yul\":3969:3971   */\n      0x0d\n        /* \"#utility.yul\":3949:3967   */\n      0x24\n      dup3\n      add\n        /* \"#utility.yul\":3942:3972   */\n      mstore\n      shl(0x99, 0x2737ba103a34329037bbb732b9)\n        /* \"#utility.yul\":3988:4006   */\n      0x44\n      dup3\n      add\n        /* \"#utility.yul\":3981:4024   */\n      mstore\n        /* \"#utility.yul\":4041:4059   */\n      0x64\n      add\n        /* \"contracts/Test.sol\":468:513  require(msg.sender == owner, \"Not the owner\") */\n    tag_87:\n      mload(0x40)\n      dup1\n      swap2\n      sub\n      swap1\n      revert\n    tag_86:\n        /* \"contracts/Test.sol\":1771:1796  Proposal storage proposal */\n      0x00\n        /* \"contracts/Test.sol\":1799:1808  proposals */\n      0x06\n        /* \"contracts/Test.sol\":1809:1822  proposalIndex */\n      dup3\n        /* \"contracts/Test.sol\":1799:1823  proposals[proposalIndex] */\n      dup2\n      sload\n      dup2\n      lt\n      tag_91\n      jumpi\n      tag_91\n      tag_92\n      jump\t// in\n    tag_91:\n      0x00\n      swap2\n      dup3\n      mstore\n      0x20\n      swap1\n      swap2\n      keccak256\n      0x03\n      swap1\n      swap2\n      mul\n      add\n        /* \"contracts/Test.sol\":1843:1860  proposal.executed */\n      0x02\n      dup2\n      add\n      sload\n        /* \"contracts/Test.sol\":1799:1823  proposals[proposalIndex] */\n      swap1\n      swap2\n      pop\n        /* \"contracts/Test.sol\":1843:1860  proposal.executed */\n      0xff\n      and\n        /* \"contracts/Test.sol\":1842:1860  !proposal.executed */\n      iszero\n        /* \"contracts/Test.sol\":1834:1881  require(!proposal.executed, \"Already executed\") */\n      tag_94\n      jumpi\n      mload(0x40)\n      shl(0xe5, 0x461bcd)\n      dup2\n      mstore\n        /* \"#utility.yul\":4404:4406   */\n      0x20\n        /* \"contracts/Test.sol\":1834:1881  require(!proposal.executed, \"Already executed\") */\n      0x04\n      dup3\n      add\n        /* \"#utility.yul\":4386:4407   */\n      mstore\n        /* \"#utility.yul\":4443:4445   */\n      0x10\n        /* \"#utility.yul\":4423:4441   */\n      0x24\n      dup3\n      add\n        /* \"#utility.yul\":4416:4446   */\n      mstore\n      shl(0x82, 0x105b1c9958591e48195e1958dd5d1959)\n        /* \"#utility.yul\":4462:4480   */\n      0x44\n      dup3\n      add\n        /* \"#utility.yul\":4455:4501   */\n      mstore\n        /* \"#utility.yul\":4518:4536   */\n      0x64\n      add\n        /* \"contracts/Test.sol\":1834:1881  require(!proposal.executed, \"Already executed\") */\n      tag_87\n        /* \"#utility.yul\":4202:4542   */\n      jump\n        /* \"contracts/Test.sol\":1834:1881  require(!proposal.executed, \"Already executed\") */\n    tag_94:\n        /* \"contracts/Test.sol\":1935:1936  2 */\n      0x02\n        /* \"contracts/Test.sol\":1921:1932  totalShares */\n      dup1\n      sload\n        /* \"contracts/Test.sol\":1921:1936  totalShares / 2 */\n      tag_97\n      swap2\n      swap1\n      tag_98\n      jump\t// in\n    tag_97:\n        /* \"contracts/Test.sol\":1900:1908  proposal */\n      dup2\n        /* \"contracts/Test.sol\":1900:1918  proposal.voteCount */\n      0x01\n      add\n      sload\n        /* \"contracts/Test.sol\":1900:1936  proposal.voteCount > totalShares / 2 */\n      gt\n        /* \"contracts/Test.sol\":1892:1957  require(proposal.voteCount > totalShares / 2, \"Not enough votes\") */\n      tag_99\n      jumpi\n      mload(0x40)\n      shl(0xe5, 0x461bcd)\n      dup2\n      mstore\n        /* \"#utility.yul\":4971:4973   */\n      0x20\n        /* \"contracts/Test.sol\":1892:1957  require(proposal.voteCount > totalShares / 2, \"Not enough votes\") */\n      0x04\n      dup3\n      add\n        /* \"#utility.yul\":4953:4974   */\n      mstore\n        /* \"#utility.yul\":5010:5012   */\n      0x10\n        /* \"#utility.yul\":4990:5008   */\n      0x24\n      dup3\n      add\n        /* \"#utility.yul\":4983:5013   */\n      mstore\n      shl(0x80, 0x4e6f7420656e6f75676820766f746573)\n        /* \"#utility.yul\":5029:5047   */\n      0x44\n      dup3\n      add\n        /* \"#utility.yul\":5022:5068   */\n      mstore\n        /* \"#utility.yul\":5085:5103   */\n      0x64\n      add\n        /* \"contracts/Test.sol\":1892:1957  require(proposal.voteCount > totalShares / 2, \"Not enough votes\") */\n      tag_87\n        /* \"#utility.yul\":4769:5109   */\n      jump\n        /* \"contracts/Test.sol\":1892:1957  require(proposal.voteCount > totalShares / 2, \"Not enough votes\") */\n    tag_99:\n        /* \"contracts/Test.sol\":1970:1987  proposal.executed */\n      0x02\n      add\n        /* \"contracts/Test.sol\":1970:1994  proposal.executed = true */\n      dup1\n      sload\n      not(0xff)\n      and\n        /* \"contracts/Test.sol\":1990:1994  true */\n      0x01\n        /* \"contracts/Test.sol\":1970:1994  proposal.executed = true */\n      or\n      swap1\n      sstore\n      pop\n        /* \"contracts/Test.sol\":1695:2002  function executeProposal(uint256 proposalIndex) public onlyOwner {... */\n      jump\t// out\n        /* \"contracts/Test.sol\":941:1065  function execute(address payable towhom, uint256 howMuch) public payable{... */\n    tag_44:\n        /* \"contracts/Test.sol\":1024:1057  payable(towhom).transfer(howMuch) */\n      mload(0x40)\n      sub(shl(0xa0, 0x01), 0x01)\n        /* \"contracts/Test.sol\":1024:1048  payable(towhom).transfer */\n      dup4\n      and\n      swap1\n        /* \"contracts/Test.sol\":1024:1057  payable(towhom).transfer(howMuch) */\n      dup3\n      iszero\n      0x08fc\n      mul\n      swap1\n        /* \"contracts/Test.sol\":1049:1056  howMuch */\n      dup4\n      swap1\n        /* \"contracts/Test.sol\":1024:1057  payable(towhom).transfer(howMuch) */\n      0x00\n      dup2\n      dup2\n      dup2\n        /* \"contracts/Test.sol\":1049:1056  howMuch */\n      dup6\n        /* \"contracts/Test.sol\":1024:1048  payable(towhom).transfer */\n      dup9\n        /* \"contracts/Test.sol\":1024:1057  payable(towhom).transfer(howMuch) */\n      dup9\n      call\n      swap4\n      pop\n      pop\n      pop\n      pop\n      iszero\n      dup1\n      iszero\n      tag_104\n      jumpi\n      returndatasize\n      0x00\n      dup1\n      returndatacopy\n      revert(0x00, returndatasize)\n    tag_104:\n      pop\n        /* \"contracts/Test.sol\":941:1065  function execute(address payable towhom, uint256 howMuch) public payable{... */\n      pop\n      pop\n      jump\t// out\n        /* \"contracts/Test.sol\":2012:2258  function withdraw() public {... */\n    tag_47:\n        /* \"contracts/Test.sol\":2073:2083  msg.sender */\n      caller\n        /* \"contracts/Test.sol\":2050:2063  uint256 share */\n      0x00\n        /* \"contracts/Test.sol\":2066:2084  shares[msg.sender] */\n      swap1\n      dup2\n      mstore\n        /* \"contracts/Test.sol\":2066:2072  shares */\n      0x01\n        /* \"contracts/Test.sol\":2066:2084  shares[msg.sender] */\n      0x20\n      mstore\n      0x40\n      swap1\n      keccak256\n      sload\n        /* \"contracts/Test.sol\":2103:2112  share > 0 */\n      dup1\n        /* \"contracts/Test.sol\":2095:2138  require(share > 0, \"No shares to withdraw\") */\n      tag_106\n      jumpi\n      mload(0x40)\n      shl(0xe5, 0x461bcd)\n      dup2\n      mstore\n        /* \"#utility.yul\":5316:5318   */\n      0x20\n        /* \"contracts/Test.sol\":2095:2138  require(share > 0, \"No shares to withdraw\") */\n      0x04\n      dup3\n      add\n        /* \"#utility.yul\":5298:5319   */\n      mstore\n        /* \"#utility.yul\":5355:5357   */\n      0x15\n        /* \"#utility.yul\":5335:5353   */\n      0x24\n      dup3\n      add\n        /* \"#utility.yul\":5328:5358   */\n      mstore\n      shl(0x58, 0x4e6f2073686172657320746f207769746864726177)\n        /* \"#utility.yul\":5374:5392   */\n      0x44\n      dup3\n      add\n        /* \"#utility.yul\":5367:5418   */\n      mstore\n        /* \"#utility.yul\":5435:5453   */\n      0x64\n      add\n        /* \"contracts/Test.sol\":2095:2138  require(share > 0, \"No shares to withdraw\") */\n      tag_87\n        /* \"#utility.yul\":5114:5459   */\n      jump\n        /* \"contracts/Test.sol\":2095:2138  require(share > 0, \"No shares to withdraw\") */\n    tag_106:\n        /* \"contracts/Test.sol\":2158:2168  msg.sender */\n      caller\n        /* \"contracts/Test.sol\":2172:2173  0 */\n      0x00\n        /* \"contracts/Test.sol\":2151:2169  shares[msg.sender] */\n      swap1\n      dup2\n      mstore\n        /* \"contracts/Test.sol\":2151:2157  shares */\n      0x01\n        /* \"contracts/Test.sol\":2151:2169  shares[msg.sender] */\n      0x20\n      mstore\n      0x40\n      dup2\n      keccak256\n        /* \"contracts/Test.sol\":2151:2173  shares[msg.sender] = 0 */\n      dup2\n      swap1\n      sstore\n        /* \"contracts/Test.sol\":2184:2195  totalShares */\n      0x02\n        /* \"contracts/Test.sol\":2184:2204  totalShares -= share */\n      dup1\n      sload\n        /* \"contracts/Test.sol\":2199:2204  share */\n      dup4\n      swap3\n        /* \"contracts/Test.sol\":2172:2173  0 */\n      swap1\n        /* \"contracts/Test.sol\":2184:2204  totalShares -= share */\n      tag_109\n      swap1\n        /* \"contracts/Test.sol\":2199:2204  share */\n      dup5\n      swap1\n        /* \"contracts/Test.sol\":2184:2204  totalShares -= share */\n      tag_110\n      jump\t// in\n    tag_109:\n      swap1\n      swap2\n      sstore\n      pop\n      pop\n        /* \"contracts/Test.sol\":2215:2250  payable(msg.sender).transfer(share) */\n      mload(0x40)\n        /* \"contracts/Test.sol\":2223:2233  msg.sender */\n      caller\n      swap1\n        /* \"contracts/Test.sol\":2215:2250  payable(msg.sender).transfer(share) */\n      dup3\n      iszero\n      0x08fc\n      mul\n      swap1\n        /* \"contracts/Test.sol\":2244:2249  share */\n      dup4\n      swap1\n        /* \"contracts/Test.sol\":2215:2250  payable(msg.sender).transfer(share) */\n      0x00\n      dup2\n      dup2\n      dup2\n        /* \"contracts/Test.sol\":2244:2249  share */\n      dup6\n        /* \"contracts/Test.sol\":2223:2233  msg.sender */\n      dup9\n        /* \"contracts/Test.sol\":2215:2250  payable(msg.sender).transfer(share) */\n      dup9\n      call\n      swap4\n      pop\n      pop\n      pop\n      pop\n      iszero\n      dup1\n      iszero\n      tag_112\n      jumpi\n      returndatasize\n      0x00\n      dup1\n      returndatacopy\n      revert(0x00, returndatasize)\n    tag_112:\n      pop\n        /* \"contracts/Test.sol\":2039:2258  {... */\n      pop\n        /* \"contracts/Test.sol\":2012:2258  function withdraw() public {... */\n      jump\t// out\n        /* \"contracts/Test.sol\":1311:1547  function createProposal(string memory description) public {... */\n    tag_52:\n        /* \"contracts/Test.sol\":1395:1512  Proposal({... */\n      0x40\n      dup1\n      mload\n      0x60\n      dup2\n      add\n      dup3\n      mstore\n      dup3\n      dup2\n      mstore\n      0x00\n      0x20\n      dup3\n      add\n      dup2\n      swap1\n      mstore\n      swap2\n      dup2\n      add\n      dup3\n      swap1\n      mstore\n        /* \"contracts/Test.sol\":1380:1389  proposals */\n      0x06\n        /* \"contracts/Test.sol\":1380:1513  proposals.push(Proposal({... */\n      dup1\n      sload\n        /* \"contracts/Test.sol\":1395:1512  Proposal({... */\n      0x01\n        /* \"contracts/Test.sol\":1380:1513  proposals.push(Proposal({... */\n      dup2\n      add\n      dup3\n      sstore\n      swap3\n      mstore\n      dup1\n      mload\n        /* \"contracts/Test.sol\":1395:1512  Proposal({... */\n      swap1\n      swap2\n        /* \"contracts/Test.sol\":1380:1513  proposals.push(Proposal({... */\n      0x03\n      mul\n      0xf652222313e28459528d920b65115c16c04f3efc82aaedc97be59f3f377c0d3f\n      add\n      swap1\n      dup2\n      swap1\n      tag_115\n      swap1\n      dup3\n      tag_116\n      jump\t// in\n    tag_115:\n      pop\n      0x20\n      dup3\n      add\n      mload\n      0x01\n      dup3\n      add\n      sstore\n      0x40\n      swap1\n      swap2\n      add\n      mload\n      0x02\n      swap1\n      swap2\n      add\n      dup1\n      sload\n      not(0xff)\n      and\n      swap2\n      iszero\n      iszero\n      swap2\n      swap1\n      swap2\n      or\n      swap1\n      sstore\n        /* \"contracts/Test.sol\":1524:1537  proposalCount */\n      0x03\n        /* \"contracts/Test.sol\":1524:1539  proposalCount++ */\n      dup1\n      sload\n      swap1\n      0x00\n      tag_117\n      dup4\n      tag_118\n      jump\t// in\n    tag_117:\n      swap2\n      swap1\n      pop\n      sstore\n      pop\n        /* \"contracts/Test.sol\":1311:1547  function createProposal(string memory description) public {... */\n      pop\n      jump\t// out\n        /* \"contracts/Test.sol\":1073:1126  function vote()public{... */\n    tag_55:\n        /* \"contracts/Test.sol\":1111:1116  votes */\n      sload(0x04)\n        /* \"contracts/Test.sol\":1111:1118  votes+1 */\n      tag_120\n      swap1\n        /* \"contracts/Test.sol\":1117:1118  1 */\n      0x01\n        /* \"contracts/Test.sol\":1111:1118  votes+1 */\n      tag_19\n      jump\t// in\n    tag_120:\n        /* \"contracts/Test.sol\":1105:1110  votes */\n      0x04\n        /* \"contracts/Test.sol\":1105:1118  votes=votes+1 */\n      sstore\n        /* \"contracts/Test.sol\":1073:1126  function vote()public{... */\n      jump\t// out\n        /* \"contracts/Test.sol\":1555:1687  function queueProposal(string memory proposalHash)public {... */\n    tag_59:\n        /* \"contracts/Test.sol\":1629:1634  votes */\n      sload(0x04)\n        /* \"contracts/Test.sol\":1629:1636  votes+1 */\n      tag_122\n      swap1\n        /* \"contracts/Test.sol\":1635:1636  1 */\n      0x01\n        /* \"contracts/Test.sol\":1629:1636  votes+1 */\n      tag_19\n      jump\t// in\n    tag_122:\n        /* \"contracts/Test.sol\":1623:1628  votes */\n      0x04\n        /* \"contracts/Test.sol\":1623:1636  votes=votes+1 */\n      sstore\n        /* \"contracts/Test.sol\":1646:1664  latestProposalHash */\n      0x05\n        /* \"contracts/Test.sol\":1646:1679  latestProposalHash = proposalHash */\n      tag_112\n        /* \"contracts/Test.sol\":1667:1679  proposalHash */\n      dup3\n        /* \"contracts/Test.sol\":1646:1664  latestProposalHash */\n      dup3\n        /* \"contracts/Test.sol\":1646:1679  latestProposalHash = proposalHash */\n      tag_116\n      jump\t// in\n        /* \"contracts/Test.sol\":1134:1303  function deposit() public payable {... */\n    tag_72:\n        /* \"contracts/Test.sol\":1199:1200  0 */\n      0x00\n        /* \"contracts/Test.sol\":1187:1196  msg.value */\n      callvalue\n        /* \"contracts/Test.sol\":1187:1200  msg.value > 0 */\n      gt\n        /* \"contracts/Test.sol\":1179:1218  require(msg.value > 0, \"Must send ETH\") */\n      tag_125\n      jumpi\n      mload(0x40)\n      shl(0xe5, 0x461bcd)\n      dup2\n      mstore\n        /* \"#utility.yul\":8109:8111   */\n      0x20\n        /* \"contracts/Test.sol\":1179:1218  require(msg.value > 0, \"Must send ETH\") */\n      0x04\n      dup3\n      add\n        /* \"#utility.yul\":8091:8112   */\n      mstore\n        /* \"#utility.yul\":8148:8150   */\n      0x0d\n        /* \"#utility.yul\":8128:8146   */\n      0x24\n      dup3\n      add\n        /* \"#utility.yul\":8121:8151   */\n      mstore\n      shl(0x9b, 0x09aeae6e840e6cadcc8408aa89)\n        /* \"#utility.yul\":8167:8185   */\n      0x44\n      dup3\n      add\n        /* \"#utility.yul\":8160:8203   */\n      mstore\n        /* \"#utility.yul\":8220:8238   */\n      0x64\n      add\n        /* \"contracts/Test.sol\":1179:1218  require(msg.value > 0, \"Must send ETH\") */\n      tag_87\n        /* \"#utility.yul\":7907:8244   */\n      jump\n        /* \"contracts/Test.sol\":1179:1218  require(msg.value > 0, \"Must send ETH\") */\n    tag_125:\n        /* \"contracts/Test.sol\":1236:1246  msg.sender */\n      caller\n        /* \"contracts/Test.sol\":1229:1247  shares[msg.sender] */\n      0x00\n      swap1\n      dup2\n      mstore\n        /* \"contracts/Test.sol\":1229:1235  shares */\n      0x01\n        /* \"contracts/Test.sol\":1229:1247  shares[msg.sender] */\n      0x20\n      mstore\n      0x40\n      dup2\n      keccak256\n        /* \"contracts/Test.sol\":1229:1260  shares[msg.sender] += msg.value */\n      dup1\n      sload\n        /* \"contracts/Test.sol\":1251:1260  msg.value */\n      callvalue\n      swap3\n        /* \"contracts/Test.sol\":1229:1247  shares[msg.sender] */\n      swap1\n        /* \"contracts/Test.sol\":1229:1260  shares[msg.sender] += msg.value */\n      tag_128\n      swap1\n        /* \"contracts/Test.sol\":1251:1260  msg.value */\n      dup5\n      swap1\n        /* \"contracts/Test.sol\":1229:1260  shares[msg.sender] += msg.value */\n      tag_19\n      jump\t// in\n    tag_128:\n      swap3\n      pop\n      pop\n      dup2\n      swap1\n      sstore\n      pop\n        /* \"contracts/Test.sol\":1286:1295  msg.value */\n      callvalue\n        /* \"contracts/Test.sol\":1271:1282  totalShares */\n      0x02\n      0x00\n        /* \"contracts/Test.sol\":1271:1295  totalShares += msg.value */\n      dup3\n      dup3\n      sload\n      tag_129\n      swap2\n      swap1\n      tag_19\n      jump\t// in\n    tag_129:\n      swap1\n      swap2\n      sstore\n      pop\n      pop\n        /* \"contracts/Test.sol\":1134:1303  function deposit() public payable {... */\n      jump\t// out\n        /* \"#utility.yul\":14:141   */\n    tag_130:\n        /* \"#utility.yul\":75:85   */\n      0x4e487b71\n        /* \"#utility.yul\":70:73   */\n      0xe0\n        /* \"#utility.yul\":66:86   */\n      shl\n        /* \"#utility.yul\":63:64   */\n      0x00\n        /* \"#utility.yul\":56:87   */\n      mstore\n        /* \"#utility.yul\":106:110   */\n      0x11\n        /* \"#utility.yul\":103:104   */\n      0x04\n        /* \"#utility.yul\":96:111   */\n      mstore\n        /* \"#utility.yul\":130:134   */\n      0x24\n        /* \"#utility.yul\":127:128   */\n      0x00\n        /* \"#utility.yul\":120:135   */\n      revert\n        /* \"#utility.yul\":146:271   */\n    tag_19:\n        /* \"#utility.yul\":211:220   */\n      dup1\n      dup3\n      add\n        /* \"#utility.yul\":232:242   */\n      dup1\n      dup3\n      gt\n        /* \"#utility.yul\":229:265   */\n      iszero\n      tag_140\n      jumpi\n        /* \"#utility.yul\":245:263   */\n      tag_140\n      tag_130\n      jump\t// in\n    tag_140:\n        /* \"#utility.yul\":146:271   */\n      swap3\n      swap2\n      pop\n      pop\n      jump\t// out\n        /* \"#utility.yul\":276:456   */\n    tag_28:\n        /* \"#utility.yul\":335:341   */\n      0x00\n        /* \"#utility.yul\":388:390   */\n      0x20\n        /* \"#utility.yul\":376:385   */\n      dup3\n        /* \"#utility.yul\":367:374   */\n      dup5\n        /* \"#utility.yul\":363:386   */\n      sub\n        /* \"#utility.yul\":359:391   */\n      slt\n        /* \"#utility.yul\":356:408   */\n      iszero\n      tag_142\n      jumpi\n        /* \"#utility.yul\":404:405   */\n      0x00\n        /* \"#utility.yul\":401:402   */\n      dup1\n        /* \"#utility.yul\":394:406   */\n      revert\n        /* \"#utility.yul\":356:408   */\n    tag_142:\n      pop\n        /* \"#utility.yul\":427:450   */\n      calldataload\n      swap2\n        /* \"#utility.yul\":276:456   */\n      swap1\n      pop\n      jump\t// out\n        /* \"#utility.yul\":461:1149   */\n    tag_31:\n        /* \"#utility.yul\":660:662   */\n      0x60\n        /* \"#utility.yul\":649:658   */\n      dup2\n        /* \"#utility.yul\":642:663   */\n      mstore\n        /* \"#utility.yul\":623:627   */\n      0x00\n        /* \"#utility.yul\":692:698   */\n      dup5\n        /* \"#utility.yul\":686:699   */\n      mload\n        /* \"#utility.yul\":735:741   */\n      dup1\n        /* \"#utility.yul\":730:732   */\n      0x60\n        /* \"#utility.yul\":719:728   */\n      dup5\n        /* \"#utility.yul\":715:733   */\n      add\n        /* \"#utility.yul\":708:742   */\n      mstore\n        /* \"#utility.yul\":760:761   */\n      0x00\n        /* \"#utility.yul\":770:915   */\n    tag_144:\n        /* \"#utility.yul\":784:790   */\n      dup2\n        /* \"#utility.yul\":781:782   */\n      dup2\n        /* \"#utility.yul\":778:791   */\n      lt\n        /* \"#utility.yul\":770:915   */\n      iszero\n      tag_146\n      jumpi\n        /* \"#utility.yul\":898:902   */\n      0x20\n        /* \"#utility.yul\":882:896   */\n      dup2\n      dup9\n      add\n        /* \"#utility.yul\":878:903   */\n      dup2\n      add\n        /* \"#utility.yul\":872:904   */\n      mload\n        /* \"#utility.yul\":866:869   */\n      0x80\n        /* \"#utility.yul\":847:864   */\n      dup7\n      dup5\n      add\n        /* \"#utility.yul\":843:870   */\n      add\n        /* \"#utility.yul\":836:905   */\n      mstore\n        /* \"#utility.yul\":799:811   */\n      add\n        /* \"#utility.yul\":770:915   */\n      jump(tag_144)\n    tag_146:\n        /* \"#utility.yul\":774:777   */\n      pop\n        /* \"#utility.yul\":965:966   */\n      0x00\n        /* \"#utility.yul\":959:962   */\n      0x80\n        /* \"#utility.yul\":950:956   */\n      dup3\n        /* \"#utility.yul\":939:948   */\n      dup6\n        /* \"#utility.yul\":935:957   */\n      add\n        /* \"#utility.yul\":931:963   */\n      add\n        /* \"#utility.yul\":924:967   */\n      mstore\n        /* \"#utility.yul\":1035:1038   */\n      0x80\n        /* \"#utility.yul\":1028:1030   */\n      0x1f\n        /* \"#utility.yul\":1024:1031   */\n      not\n        /* \"#utility.yul\":1019:1021   */\n      0x1f\n        /* \"#utility.yul\":1011:1017   */\n      dup4\n        /* \"#utility.yul\":1007:1022   */\n      add\n        /* \"#utility.yul\":1003:1032   */\n      and\n        /* \"#utility.yul\":992:1001   */\n      dup5\n        /* \"#utility.yul\":988:1033   */\n      add\n        /* \"#utility.yul\":984:1039   */\n      add\n        /* \"#utility.yul\":976:1039   */\n      swap2\n      pop\n      pop\n        /* \"#utility.yul\":1077:1083   */\n      dup4\n        /* \"#utility.yul\":1070:1074   */\n      0x20\n        /* \"#utility.yul\":1059:1068   */\n      dup4\n        /* \"#utility.yul\":1055:1075   */\n      add\n        /* \"#utility.yul\":1048:1084   */\n      mstore\n        /* \"#utility.yul\":1134:1140   */\n      dup3\n        /* \"#utility.yul\":1127:1141   */\n      iszero\n        /* \"#utility.yul\":1120:1142   */\n      iszero\n        /* \"#utility.yul\":1115:1117   */\n      0x40\n        /* \"#utility.yul\":1104:1113   */\n      dup4\n        /* \"#utility.yul\":1100:1118   */\n      add\n        /* \"#utility.yul\":1093:1143   */\n      mstore\n        /* \"#utility.yul\":461:1149   */\n      swap5\n      swap4\n      pop\n      pop\n      pop\n      pop\n      jump\t// out\n        /* \"#utility.yul\":1336:1475   */\n    tag_131:\n      sub(shl(0xa0, 0x01), 0x01)\n        /* \"#utility.yul\":1419:1450   */\n      dup2\n      and\n        /* \"#utility.yul\":1409:1451   */\n      dup2\n      eq\n        /* \"#utility.yul\":1399:1469   */\n      tag_149\n      jumpi\n        /* \"#utility.yul\":1465:1466   */\n      0x00\n        /* \"#utility.yul\":1462:1463   */\n      dup1\n        /* \"#utility.yul\":1455:1467   */\n      revert\n        /* \"#utility.yul\":1399:1469   */\n    tag_149:\n        /* \"#utility.yul\":1336:1475   */\n      pop\n      jump\t// out\n        /* \"#utility.yul\":1480:1811   */\n    tag_43:\n        /* \"#utility.yul\":1556:1562   */\n      0x00\n        /* \"#utility.yul\":1564:1570   */\n      dup1\n        /* \"#utility.yul\":1617:1619   */\n      0x40\n        /* \"#utility.yul\":1605:1614   */\n      dup4\n        /* \"#utility.yul\":1596:1603   */\n      dup6\n        /* \"#utility.yul\":1592:1615   */\n      sub\n        /* \"#utility.yul\":1588:1620   */\n      slt\n        /* \"#utility.yul\":1585:1637   */\n      iszero\n      tag_151\n      jumpi\n        /* \"#utility.yul\":1633:1634   */\n      0x00\n        /* \"#utility.yul\":1630:1631   */\n      dup1\n        /* \"#utility.yul\":1623:1635   */\n      revert\n        /* \"#utility.yul\":1585:1637   */\n    tag_151:\n        /* \"#utility.yul\":1672:1681   */\n      dup3\n        /* \"#utility.yul\":1659:1682   */\n      calldataload\n        /* \"#utility.yul\":1691:1730   */\n      tag_152\n        /* \"#utility.yul\":1724:1729   */\n      dup2\n        /* \"#utility.yul\":1691:1730   */\n      tag_131\n      jump\t// in\n    tag_152:\n        /* \"#utility.yul\":1749:1754   */\n      swap5\n        /* \"#utility.yul\":1801:1803   */\n      0x20\n        /* \"#utility.yul\":1786:1804   */\n      swap4\n      swap1\n      swap4\n      add\n        /* \"#utility.yul\":1773:1805   */\n      calldataload\n      swap4\n      pop\n      pop\n      pop\n        /* \"#utility.yul\":1480:1811   */\n      jump\t// out\n        /* \"#utility.yul\":1816:1943   */\n    tag_132:\n        /* \"#utility.yul\":1877:1887   */\n      0x4e487b71\n        /* \"#utility.yul\":1872:1875   */\n      0xe0\n        /* \"#utility.yul\":1868:1888   */\n      shl\n        /* \"#utility.yul\":1865:1866   */\n      0x00\n        /* \"#utility.yul\":1858:1889   */\n      mstore\n        /* \"#utility.yul\":1908:1912   */\n      0x41\n        /* \"#utility.yul\":1905:1906   */\n      0x04\n        /* \"#utility.yul\":1898:1913   */\n      mstore\n        /* \"#utility.yul\":1932:1936   */\n      0x24\n        /* \"#utility.yul\":1929:1930   */\n      0x00\n        /* \"#utility.yul\":1922:1937   */\n      revert\n        /* \"#utility.yul\":1948:2870   */\n    tag_51:\n        /* \"#utility.yul\":2017:2023   */\n      0x00\n        /* \"#utility.yul\":2070:2072   */\n      0x20\n        /* \"#utility.yul\":2058:2067   */\n      dup3\n        /* \"#utility.yul\":2049:2056   */\n      dup5\n        /* \"#utility.yul\":2045:2068   */\n      sub\n        /* \"#utility.yul\":2041:2073   */\n      slt\n        /* \"#utility.yul\":2038:2090   */\n      iszero\n      tag_155\n      jumpi\n        /* \"#utility.yul\":2086:2087   */\n      0x00\n        /* \"#utility.yul\":2083:2084   */\n      dup1\n        /* \"#utility.yul\":2076:2088   */\n      revert\n        /* \"#utility.yul\":2038:2090   */\n    tag_155:\n        /* \"#utility.yul\":2126:2135   */\n      dup2\n        /* \"#utility.yul\":2113:2136   */\n      calldataload\n        /* \"#utility.yul\":2155:2173   */\n      0xffffffffffffffff\n        /* \"#utility.yul\":2196:2198   */\n      dup1\n        /* \"#utility.yul\":2188:2194   */\n      dup3\n        /* \"#utility.yul\":2185:2199   */\n      gt\n        /* \"#utility.yul\":2182:2216   */\n      iszero\n      tag_156\n      jumpi\n        /* \"#utility.yul\":2212:2213   */\n      0x00\n        /* \"#utility.yul\":2209:2210   */\n      dup1\n        /* \"#utility.yul\":2202:2214   */\n      revert\n        /* \"#utility.yul\":2182:2216   */\n    tag_156:\n        /* \"#utility.yul\":2250:2256   */\n      dup2\n        /* \"#utility.yul\":2239:2248   */\n      dup5\n        /* \"#utility.yul\":2235:2257   */\n      add\n        /* \"#utility.yul\":2225:2257   */\n      swap2\n      pop\n        /* \"#utility.yul\":2295:2302   */\n      dup5\n        /* \"#utility.yul\":2288:2292   */\n      0x1f\n        /* \"#utility.yul\":2284:2286   */\n      dup4\n        /* \"#utility.yul\":2280:2293   */\n      add\n        /* \"#utility.yul\":2276:2303   */\n      slt\n        /* \"#utility.yul\":2266:2321   */\n      tag_157\n      jumpi\n        /* \"#utility.yul\":2317:2318   */\n      0x00\n        /* \"#utility.yul\":2314:2315   */\n      dup1\n        /* \"#utility.yul\":2307:2319   */\n      revert\n        /* \"#utility.yul\":2266:2321   */\n    tag_157:\n        /* \"#utility.yul\":2353:2355   */\n      dup2\n        /* \"#utility.yul\":2340:2356   */\n      calldataload\n        /* \"#utility.yul\":2375:2377   */\n      dup2\n        /* \"#utility.yul\":2371:2373   */\n      dup2\n        /* \"#utility.yul\":2368:2378   */\n      gt\n        /* \"#utility.yul\":2365:2401   */\n      iszero\n      tag_159\n      jumpi\n        /* \"#utility.yul\":2381:2399   */\n      tag_159\n      tag_132\n      jump\t// in\n    tag_159:\n        /* \"#utility.yul\":2456:2458   */\n      0x40\n        /* \"#utility.yul\":2450:2459   */\n      mload\n        /* \"#utility.yul\":2424:2426   */\n      0x1f\n        /* \"#utility.yul\":2510:2523   */\n      dup3\n      add\n      not(0x1f)\n        /* \"#utility.yul\":2506:2528   */\n      swap1\n      dup2\n      and\n        /* \"#utility.yul\":2530:2532   */\n      0x3f\n        /* \"#utility.yul\":2502:2533   */\n      add\n        /* \"#utility.yul\":2498:2538   */\n      and\n        /* \"#utility.yul\":2486:2539   */\n      dup2\n      add\n      swap1\n        /* \"#utility.yul\":2554:2572   */\n      dup4\n      dup3\n      gt\n        /* \"#utility.yul\":2574:2596   */\n      dup2\n      dup4\n      lt\n        /* \"#utility.yul\":2551:2597   */\n      or\n        /* \"#utility.yul\":2548:2620   */\n      iszero\n      tag_161\n      jumpi\n        /* \"#utility.yul\":2600:2618   */\n      tag_161\n      tag_132\n      jump\t// in\n    tag_161:\n        /* \"#utility.yul\":2640:2650   */\n      dup2\n        /* \"#utility.yul\":2636:2638   */\n      0x40\n        /* \"#utility.yul\":2629:2651   */\n      mstore\n        /* \"#utility.yul\":2675:2677   */\n      dup3\n        /* \"#utility.yul\":2667:2673   */\n      dup2\n        /* \"#utility.yul\":2660:2678   */\n      mstore\n        /* \"#utility.yul\":2715:2722   */\n      dup8\n        /* \"#utility.yul\":2710:2712   */\n      0x20\n        /* \"#utility.yul\":2705:2707   */\n      dup5\n        /* \"#utility.yul\":2701:2703   */\n      dup8\n        /* \"#utility.yul\":2697:2708   */\n      add\n        /* \"#utility.yul\":2693:2713   */\n      add\n        /* \"#utility.yul\":2690:2723   */\n      gt\n        /* \"#utility.yul\":2687:2740   */\n      iszero\n      tag_162\n      jumpi\n        /* \"#utility.yul\":2736:2737   */\n      0x00\n        /* \"#utility.yul\":2733:2734   */\n      dup1\n        /* \"#utility.yul\":2726:2738   */\n      revert\n        /* \"#utility.yul\":2687:2740   */\n    tag_162:\n        /* \"#utility.yul\":2792:2794   */\n      dup3\n        /* \"#utility.yul\":2787:2789   */\n      0x20\n        /* \"#utility.yul\":2783:2785   */\n      dup7\n        /* \"#utility.yul\":2779:2790   */\n      add\n        /* \"#utility.yul\":2774:2776   */\n      0x20\n        /* \"#utility.yul\":2766:2772   */\n      dup4\n        /* \"#utility.yul\":2762:2777   */\n      add\n        /* \"#utility.yul\":2749:2795   */\n      calldatacopy\n        /* \"#utility.yul\":2837:2838   */\n      0x00\n        /* \"#utility.yul\":2815:2830   */\n      swap3\n      dup2\n      add\n        /* \"#utility.yul\":2832:2834   */\n      0x20\n        /* \"#utility.yul\":2811:2835   */\n      add\n        /* \"#utility.yul\":2804:2839   */\n      swap3\n      swap1\n      swap3\n      mstore\n      pop\n        /* \"#utility.yul\":2819:2825   */\n      swap6\n        /* \"#utility.yul\":1948:2870   */\n      swap5\n      pop\n      pop\n      pop\n      pop\n      pop\n      jump\t// out\n        /* \"#utility.yul\":3083:3338   */\n    tag_68:\n        /* \"#utility.yul\":3142:3148   */\n      0x00\n        /* \"#utility.yul\":3195:3197   */\n      0x20\n        /* \"#utility.yul\":3183:3192   */\n      dup3\n        /* \"#utility.yul\":3174:3181   */\n      dup5\n        /* \"#utility.yul\":3170:3193   */\n      sub\n        /* \"#utility.yul\":3166:3198   */\n      slt\n        /* \"#utility.yul\":3163:3215   */\n      iszero\n      tag_165\n      jumpi\n        /* \"#utility.yul\":3211:3212   */\n      0x00\n        /* \"#utility.yul\":3208:3209   */\n      dup1\n        /* \"#utility.yul\":3201:3213   */\n      revert\n        /* \"#utility.yul\":3163:3215   */\n    tag_165:\n        /* \"#utility.yul\":3250:3259   */\n      dup2\n        /* \"#utility.yul\":3237:3260   */\n      calldataload\n        /* \"#utility.yul\":3269:3308   */\n      tag_166\n        /* \"#utility.yul\":3302:3307   */\n      dup2\n        /* \"#utility.yul\":3269:3308   */\n      tag_131\n      jump\t// in\n    tag_166:\n        /* \"#utility.yul\":3327:3332   */\n      swap4\n        /* \"#utility.yul\":3083:3338   */\n      swap3\n      pop\n      pop\n      pop\n      jump\t// out\n        /* \"#utility.yul\":3343:3723   */\n    tag_80:\n        /* \"#utility.yul\":3422:3423   */\n      0x01\n        /* \"#utility.yul\":3418:3430   */\n      dup2\n      dup2\n      shr\n      swap1\n        /* \"#utility.yul\":3465:3477   */\n      dup3\n      and\n      dup1\n        /* \"#utility.yul\":3486:3547   */\n      tag_168\n      jumpi\n        /* \"#utility.yul\":3540:3544   */\n      0x7f\n        /* \"#utility.yul\":3532:3538   */\n      dup3\n        /* \"#utility.yul\":3528:3545   */\n      and\n        /* \"#utility.yul\":3518:3545   */\n      swap2\n      pop\n        /* \"#utility.yul\":3486:3547   */\n    tag_168:\n        /* \"#utility.yul\":3593:3595   */\n      0x20\n        /* \"#utility.yul\":3585:3591   */\n      dup3\n        /* \"#utility.yul\":3582:3596   */\n      lt\n        /* \"#utility.yul\":3562:3580   */\n      dup2\n        /* \"#utility.yul\":3559:3597   */\n      sub\n        /* \"#utility.yul\":3556:3717   */\n      tag_169\n      jumpi\n        /* \"#utility.yul\":3639:3649   */\n      0x4e487b71\n        /* \"#utility.yul\":3634:3637   */\n      0xe0\n        /* \"#utility.yul\":3630:3650   */\n      shl\n        /* \"#utility.yul\":3627:3628   */\n      0x00\n        /* \"#utility.yul\":3620:3651   */\n      mstore\n        /* \"#utility.yul\":3674:3678   */\n      0x22\n        /* \"#utility.yul\":3671:3672   */\n      0x04\n        /* \"#utility.yul\":3664:3679   */\n      mstore\n        /* \"#utility.yul\":3702:3706   */\n      0x24\n        /* \"#utility.yul\":3699:3700   */\n      0x00\n        /* \"#utility.yul\":3692:3707   */\n      revert\n        /* \"#utility.yul\":3556:3717   */\n    tag_169:\n      pop\n        /* \"#utility.yul\":3343:3723   */\n      swap2\n      swap1\n      pop\n      jump\t// out\n        /* \"#utility.yul\":4070:4197   */\n    tag_92:\n        /* \"#utility.yul\":4131:4141   */\n      0x4e487b71\n        /* \"#utility.yul\":4126:4129   */\n      0xe0\n        /* \"#utility.yul\":4122:4142   */\n      shl\n        /* \"#utility.yul\":4119:4120   */\n      0x00\n        /* \"#utility.yul\":4112:4143   */\n      mstore\n        /* \"#utility.yul\":4162:4166   */\n      0x32\n        /* \"#utility.yul\":4159:4160   */\n      0x04\n        /* \"#utility.yul\":4152:4167   */\n      mstore\n        /* \"#utility.yul\":4186:4190   */\n      0x24\n        /* \"#utility.yul\":4183:4184   */\n      0x00\n        /* \"#utility.yul\":4176:4191   */\n      revert\n        /* \"#utility.yul\":4547:4764   */\n    tag_98:\n        /* \"#utility.yul\":4587:4588   */\n      0x00\n        /* \"#utility.yul\":4613:4614   */\n      dup3\n        /* \"#utility.yul\":4603:4735   */\n      tag_174\n      jumpi\n        /* \"#utility.yul\":4657:4667   */\n      0x4e487b71\n        /* \"#utility.yul\":4652:4655   */\n      0xe0\n        /* \"#utility.yul\":4648:4668   */\n      shl\n        /* \"#utility.yul\":4645:4646   */\n      0x00\n        /* \"#utility.yul\":4638:4669   */\n      mstore\n        /* \"#utility.yul\":4692:4696   */\n      0x12\n        /* \"#utility.yul\":4689:4690   */\n      0x04\n        /* \"#utility.yul\":4682:4697   */\n      mstore\n        /* \"#utility.yul\":4720:4724   */\n      0x24\n        /* \"#utility.yul\":4717:4718   */\n      0x00\n        /* \"#utility.yul\":4710:4725   */\n      revert\n        /* \"#utility.yul\":4603:4735   */\n    tag_174:\n      pop\n        /* \"#utility.yul\":4749:4758   */\n      div\n      swap1\n        /* \"#utility.yul\":4547:4764   */\n      jump\t// out\n        /* \"#utility.yul\":5464:5592   */\n    tag_110:\n        /* \"#utility.yul\":5531:5540   */\n      dup2\n      dup2\n      sub\n        /* \"#utility.yul\":5552:5563   */\n      dup2\n      dup2\n      gt\n        /* \"#utility.yul\":5549:5586   */\n      iszero\n      tag_140\n      jumpi\n        /* \"#utility.yul\":5566:5584   */\n      tag_140\n      tag_130\n      jump\t// in\n        /* \"#utility.yul\":5723:6241   */\n    tag_134:\n        /* \"#utility.yul\":5825:5827   */\n      0x1f\n        /* \"#utility.yul\":5820:5823   */\n      dup3\n        /* \"#utility.yul\":5817:5828   */\n      gt\n        /* \"#utility.yul\":5814:6235   */\n      iszero\n      tag_104\n      jumpi\n        /* \"#utility.yul\":5861:5866   */\n      dup1\n        /* \"#utility.yul\":5858:5859   */\n      0x00\n        /* \"#utility.yul\":5851:5867   */\n      mstore\n        /* \"#utility.yul\":5905:5909   */\n      0x20\n        /* \"#utility.yul\":5902:5903   */\n      0x00\n        /* \"#utility.yul\":5892:5910   */\n      keccak256\n        /* \"#utility.yul\":5975:5977   */\n      0x1f\n        /* \"#utility.yul\":5963:5973   */\n      dup5\n        /* \"#utility.yul\":5959:5978   */\n      add\n        /* \"#utility.yul\":5956:5957   */\n      0x05\n        /* \"#utility.yul\":5952:5979   */\n      shr\n        /* \"#utility.yul\":5946:5950   */\n      dup2\n        /* \"#utility.yul\":5942:5980   */\n      add\n        /* \"#utility.yul\":6011:6015   */\n      0x20\n        /* \"#utility.yul\":5999:6009   */\n      dup6\n        /* \"#utility.yul\":5996:6016   */\n      lt\n        /* \"#utility.yul\":5993:6040   */\n      iszero\n      tag_183\n      jumpi\n      pop\n        /* \"#utility.yul\":6034:6038   */\n      dup1\n        /* \"#utility.yul\":5993:6040   */\n    tag_183:\n        /* \"#utility.yul\":6089:6091   */\n      0x1f\n        /* \"#utility.yul\":6084:6087   */\n      dup5\n        /* \"#utility.yul\":6080:6092   */\n      add\n        /* \"#utility.yul\":6077:6078   */\n      0x05\n        /* \"#utility.yul\":6073:6093   */\n      shr\n        /* \"#utility.yul\":6067:6071   */\n      dup3\n        /* \"#utility.yul\":6063:6094   */\n      add\n        /* \"#utility.yul\":6053:6094   */\n      swap2\n      pop\n        /* \"#utility.yul\":6144:6225   */\n    tag_184:\n        /* \"#utility.yul\":6162:6164   */\n      dup2\n        /* \"#utility.yul\":6155:6160   */\n      dup2\n        /* \"#utility.yul\":6152:6165   */\n      lt\n        /* \"#utility.yul\":6144:6225   */\n      iszero\n      tag_186\n      jumpi\n        /* \"#utility.yul\":6221:6222   */\n      0x00\n        /* \"#utility.yul\":6207:6223   */\n      dup2\n      sstore\n        /* \"#utility.yul\":6188:6189   */\n      0x01\n        /* \"#utility.yul\":6177:6190   */\n      add\n        /* \"#utility.yul\":6144:6225   */\n      jump(tag_184)\n    tag_186:\n        /* \"#utility.yul\":6148:6151   */\n      pop\n      pop\n        /* \"#utility.yul\":5723:6241   */\n      pop\n      pop\n      pop\n      jump\t// out\n        /* \"#utility.yul\":6417:7762   */\n    tag_116:\n        /* \"#utility.yul\":6543:6546   */\n      dup2\n        /* \"#utility.yul\":6537:6547   */\n      mload\n        /* \"#utility.yul\":6570:6588   */\n      0xffffffffffffffff\n        /* \"#utility.yul\":6562:6568   */\n      dup2\n        /* \"#utility.yul\":6559:6589   */\n      gt\n        /* \"#utility.yul\":6556:6612   */\n      iszero\n      tag_190\n      jumpi\n        /* \"#utility.yul\":6592:6610   */\n      tag_190\n      tag_132\n      jump\t// in\n    tag_190:\n        /* \"#utility.yul\":6621:6718   */\n      tag_191\n        /* \"#utility.yul\":6711:6717   */\n      dup2\n        /* \"#utility.yul\":6671:6709   */\n      tag_192\n        /* \"#utility.yul\":6703:6707   */\n      dup5\n        /* \"#utility.yul\":6697:6708   */\n      sload\n        /* \"#utility.yul\":6671:6709   */\n      tag_80\n      jump\t// in\n    tag_192:\n        /* \"#utility.yul\":6665:6669   */\n      dup5\n        /* \"#utility.yul\":6621:6718   */\n      tag_134\n      jump\t// in\n    tag_191:\n        /* \"#utility.yul\":6773:6777   */\n      0x20\n      dup1\n        /* \"#utility.yul\":6830:6832   */\n      0x1f\n        /* \"#utility.yul\":6819:6833   */\n      dup4\n      gt\n        /* \"#utility.yul\":6847:6848   */\n      0x01\n        /* \"#utility.yul\":6842:7505   */\n      dup2\n      eq\n      tag_194\n      jumpi\n        /* \"#utility.yul\":7549:7550   */\n      0x00\n        /* \"#utility.yul\":7566:7572   */\n      dup5\n        /* \"#utility.yul\":7563:7652   */\n      iszero\n      tag_195\n      jumpi\n      pop\n        /* \"#utility.yul\":7618:7637   */\n      dup6\n      dup4\n      add\n        /* \"#utility.yul\":7612:7638   */\n      mload\n        /* \"#utility.yul\":7563:7652   */\n    tag_195:\n      not(0x00)\n        /* \"#utility.yul\":6374:6375   */\n      0x03\n        /* \"#utility.yul\":6370:6381   */\n      dup7\n      swap1\n      shl\n        /* \"#utility.yul\":6366:6390   */\n      shr\n        /* \"#utility.yul\":6362:6391   */\n      not\n        /* \"#utility.yul\":6352:6392   */\n      and\n        /* \"#utility.yul\":6398:6399   */\n      0x01\n        /* \"#utility.yul\":6394:6405   */\n      dup6\n      swap1\n      shl\n        /* \"#utility.yul\":6349:6406   */\n      or\n        /* \"#utility.yul\":7665:7746   */\n      dup6\n      sstore\n        /* \"#utility.yul\":6812:7756   */\n      jump(tag_193)\n        /* \"#utility.yul\":6842:7505   */\n    tag_194:\n        /* \"#utility.yul\":5670:5671   */\n      0x00\n        /* \"#utility.yul\":5663:5677   */\n      dup6\n      dup2\n      mstore\n        /* \"#utility.yul\":5707:5711   */\n      0x20\n        /* \"#utility.yul\":5694:5712   */\n      dup2\n      keccak256\n      not(0x1f)\n        /* \"#utility.yul\":6878:6898   */\n      dup7\n      and\n      swap2\n        /* \"#utility.yul\":6996:7232   */\n    tag_198:\n        /* \"#utility.yul\":7010:7017   */\n      dup3\n        /* \"#utility.yul\":7007:7008   */\n      dup2\n        /* \"#utility.yul\":7004:7018   */\n      lt\n        /* \"#utility.yul\":6996:7232   */\n      iszero\n      tag_200\n      jumpi\n        /* \"#utility.yul\":7099:7118   */\n      dup9\n      dup7\n      add\n        /* \"#utility.yul\":7093:7119   */\n      mload\n        /* \"#utility.yul\":7078:7120   */\n      dup3\n      sstore\n        /* \"#utility.yul\":7191:7218   */\n      swap5\n      dup5\n      add\n      swap5\n        /* \"#utility.yul\":7159:7160   */\n      0x01\n        /* \"#utility.yul\":7147:7161   */\n      swap1\n      swap2\n      add\n      swap1\n        /* \"#utility.yul\":7026:7045   */\n      dup5\n      add\n        /* \"#utility.yul\":6996:7232   */\n      jump(tag_198)\n    tag_200:\n        /* \"#utility.yul\":7000:7003   */\n      pop\n        /* \"#utility.yul\":7260:7266   */\n      dup6\n        /* \"#utility.yul\":7251:7258   */\n      dup3\n        /* \"#utility.yul\":7248:7267   */\n      lt\n        /* \"#utility.yul\":7245:7446   */\n      iszero\n      tag_201\n      jumpi\n        /* \"#utility.yul\":7321:7340   */\n      dup8\n      dup6\n      add\n        /* \"#utility.yul\":7315:7341   */\n      mload\n      not(0x00)\n        /* \"#utility.yul\":7404:7405   */\n      0x03\n        /* \"#utility.yul\":7400:7414   */\n      dup9\n      swap1\n      shl\n        /* \"#utility.yul\":7416:7419   */\n      0xf8\n        /* \"#utility.yul\":7396:7420   */\n      and\n        /* \"#utility.yul\":7392:7429   */\n      shr\n        /* \"#utility.yul\":7388:7430   */\n      not\n        /* \"#utility.yul\":7373:7431   */\n      and\n        /* \"#utility.yul\":7358:7432   */\n      dup2\n      sstore\n        /* \"#utility.yul\":7245:7446   */\n    tag_201:\n      pop\n      pop\n        /* \"#utility.yul\":7492:7493   */\n      0x01\n        /* \"#utility.yul\":7483:7489   */\n      dup5\n        /* \"#utility.yul\":7480:7481   */\n      0x01\n        /* \"#utility.yul\":7476:7490   */\n      shl\n        /* \"#utility.yul\":7472:7494   */\n      add\n        /* \"#utility.yul\":7466:7470   */\n      dup6\n        /* \"#utility.yul\":7459:7495   */\n      sstore\n        /* \"#utility.yul\":6812:7756   */\n    tag_193:\n      pop\n      pop\n      pop\n      pop\n        /* \"#utility.yul\":6417:7762   */\n      pop\n      pop\n      jump\t// out\n        /* \"#utility.yul\":7767:7902   */\n    tag_118:\n        /* \"#utility.yul\":7806:7809   */\n      0x00\n        /* \"#utility.yul\":7827:7844   */\n      0x01\n      dup3\n      add\n        /* \"#utility.yul\":7824:7867   */\n      tag_204\n      jumpi\n        /* \"#utility.yul\":7847:7865   */\n      tag_204\n      tag_130\n      jump\t// in\n    tag_204:\n      pop\n        /* \"#utility.yul\":7894:7895   */\n      0x01\n        /* \"#utility.yul\":7883:7896   */\n      add\n      swap1\n        /* \"#utility.yul\":7767:7902   */\n      jump\t// out\n\n    auxdata: 0xa2646970667358221220e5f8d465835845b2e691640a0c160f3198903945681e72e866f038dee456840a64736f6c63430008180033\n}\n",
				"bytecode": {
					"linkReferences": {},
					"object": "60806040525f600455348015610013575f80fd5b505f80546001600160a01b03191633179055610a1b806100325f395ff3fe6080604052600436106100aa575f3560e01c8063632a9a5211610063578063632a9a52146101cc5780638a286b07146101e05780638da5cb5b146101ff578063ce7c2ac214610235578063d0e30db014610260578063da35c66414610268576100ed565b8063013cf08b1461010b5780630d61b519146101425780633a98ef39146101635780633b89bb86146101865780633ccfd60b1461019957806349c2a1a6146101ad576100ed565b366100ed57335f90815260016020526040812080543492906100cd908490610697565b925050819055503460025f8282546100e59190610697565b925050819055005b335f90815260016020526040812080543492906100cd908490610697565b348015610116575f80fd5b5061012a6101253660046106b0565b61027d565b604051610139939291906106c7565b60405180910390f35b34801561014d575f80fd5b5061016161015c3660046106b0565b61033c565b005b34801561016e575f80fd5b5061017860025481565b604051908152602001610139565b610161610194366004610739565b61045c565b3480156101a4575f80fd5b50610161610494565b3480156101b8575f80fd5b506101616101c7366004610777565b61053e565b3480156101d7575f80fd5b506101616105d7565b3480156101eb575f80fd5b506101616101fa366004610777565b6105ea565b34801561020a575f80fd5b505f5461021d906001600160a01b031681565b6040516001600160a01b039091168152602001610139565b348015610240575f80fd5b5061017861024f366004610822565b60016020525f908152604090205481565b610161610607565b348015610273575f80fd5b5061017860035481565b6006818154811061028c575f80fd5b905f5260205f2090600302015f91509050805f0180546102ab90610844565b80601f01602080910402602001604051908101604052809291908181526020018280546102d790610844565b80156103225780601f106102f957610100808354040283529160200191610322565b820191905f5260205f20905b81548152906001019060200180831161030557829003601f168201915b50505050600183015460029093015491929160ff16905083565b5f546001600160a01b0316331461038a5760405162461bcd60e51b815260206004820152600d60248201526c2737ba103a34329037bbb732b960991b60448201526064015b60405180910390fd5b5f6006828154811061039e5761039e61087c565b5f9182526020909120600390910201600281015490915060ff16156103f85760405162461bcd60e51b815260206004820152601060248201526f105b1c9958591e48195e1958dd5d195960821b6044820152606401610381565b600280546104069190610890565b81600101541161044b5760405162461bcd60e51b815260206004820152601060248201526f4e6f7420656e6f75676820766f74657360801b6044820152606401610381565b600201805460ff1916600117905550565b6040516001600160a01b0383169082156108fc029083905f818181858888f1935050505015801561048f573d5f803e3d5ffd5b505050565b335f90815260016020526040902054806104e85760405162461bcd60e51b81526020600482015260156024820152744e6f2073686172657320746f20776974686472617760581b6044820152606401610381565b335f9081526001602052604081208190556002805483929061050b9084906108af565b9091555050604051339082156108fc029083905f818181858888f1935050505015801561053a573d5f803e3d5ffd5b5050565b604080516060810182528281525f60208201819052918101829052600680546001810182559252805190916003027ff652222313e28459528d920b65115c16c04f3efc82aaedc97be59f3f377c0d3f0190819061059b908261090d565b50602082015160018201556040909101516002909101805460ff191691151591909117905560038054905f6105cf836109cd565b919050555050565b6004546105e5906001610697565b600455565b6004546105f8906001610697565b600455600561053a828261090d565b5f34116106465760405162461bcd60e51b815260206004820152600d60248201526c09aeae6e840e6cadcc8408aa89609b1b6044820152606401610381565b335f9081526001602052604081208054349290610664908490610697565b925050819055503460025f82825461067c9190610697565b9091555050565b634e487b7160e01b5f52601160045260245ffd5b808201808211156106aa576106aa610683565b92915050565b5f602082840312156106c0575f80fd5b5035919050565b606081525f84518060608401525f5b818110156106f357602081880181015160808684010152016106d6565b505f608082850101526080601f19601f8301168401019150508360208301528215156040830152949350505050565b6001600160a01b0381168114610736575f80fd5b50565b5f806040838503121561074a575f80fd5b823561075581610722565b946020939093013593505050565b634e487b7160e01b5f52604160045260245ffd5b5f60208284031215610787575f80fd5b813567ffffffffffffffff8082111561079e575f80fd5b818401915084601f8301126107b1575f80fd5b8135818111156107c3576107c3610763565b604051601f8201601f19908116603f011681019083821181831017156107eb576107eb610763565b81604052828152876020848701011115610803575f80fd5b826020860160208301375f928101602001929092525095945050505050565b5f60208284031215610832575f80fd5b813561083d81610722565b9392505050565b600181811c9082168061085857607f821691505b60208210810361087657634e487b7160e01b5f52602260045260245ffd5b50919050565b634e487b7160e01b5f52603260045260245ffd5b5f826108aa57634e487b7160e01b5f52601260045260245ffd5b500490565b818103818111156106aa576106aa610683565b601f82111561048f57805f5260205f20601f840160051c810160208510156108e75750805b601f840160051c820191505b81811015610906575f81556001016108f3565b5050505050565b815167ffffffffffffffff81111561092757610927610763565b61093b816109358454610844565b846108c2565b602080601f83116001811461096e575f84156109575750858301515b5f19600386901b1c1916600185901b1785556109c5565b5f85815260208120601f198616915b8281101561099c5788860151825594840194600190910190840161097d565b50858210156109b957878501515f19600388901b60f8161c191681555b505060018460011b0185555b505050505050565b5f600182016109de576109de610683565b506001019056fea2646970667358221220e5f8d465835845b2e691640a0c160f3198903945681e72e866f038dee456840a64736f6c63430008180033",
					"opcodes": "PUSH1 0x80 PUSH1 0x40 MSTORE PUSH0 PUSH1 0x4 SSTORE CALLVALUE DUP1 ISZERO PUSH2 0x13 JUMPI PUSH0 DUP1 REVERT JUMPDEST POP PUSH0 DUP1 SLOAD PUSH1 0x1 PUSH1 0x1 PUSH1 0xA0 SHL SUB NOT AND CALLER OR SWAP1 SSTORE PUSH2 0xA1B DUP1 PUSH2 0x32 PUSH0 CODECOPY PUSH0 RETURN INVALID PUSH1 0x80 PUSH1 0x40 MSTORE PUSH1 0x4 CALLDATASIZE LT PUSH2 0xAA JUMPI PUSH0 CALLDATALOAD PUSH1 0xE0 SHR DUP1 PUSH4 0x632A9A52 GT PUSH2 0x63 JUMPI DUP1 PUSH4 0x632A9A52 EQ PUSH2 0x1CC JUMPI DUP1 PUSH4 0x8A286B07 EQ PUSH2 0x1E0 JUMPI DUP1 PUSH4 0x8DA5CB5B EQ PUSH2 0x1FF JUMPI DUP1 PUSH4 0xCE7C2AC2 EQ PUSH2 0x235 JUMPI DUP1 PUSH4 0xD0E30DB0 EQ PUSH2 0x260 JUMPI DUP1 PUSH4 0xDA35C664 EQ PUSH2 0x268 JUMPI PUSH2 0xED JUMP JUMPDEST DUP1 PUSH4 0x13CF08B EQ PUSH2 0x10B JUMPI DUP1 PUSH4 0xD61B519 EQ PUSH2 0x142 JUMPI DUP1 PUSH4 0x3A98EF39 EQ PUSH2 0x163 JUMPI DUP1 PUSH4 0x3B89BB86 EQ PUSH2 0x186 JUMPI DUP1 PUSH4 0x3CCFD60B EQ PUSH2 0x199 JUMPI DUP1 PUSH4 0x49C2A1A6 EQ PUSH2 0x1AD JUMPI PUSH2 0xED JUMP JUMPDEST CALLDATASIZE PUSH2 0xED JUMPI CALLER PUSH0 SWAP1 DUP2 MSTORE PUSH1 0x1 PUSH1 0x20 MSTORE PUSH1 0x40 DUP2 KECCAK256 DUP1 SLOAD CALLVALUE SWAP3 SWAP1 PUSH2 0xCD SWAP1 DUP5 SWAP1 PUSH2 0x697 JUMP JUMPDEST SWAP3 POP POP DUP2 SWAP1 SSTORE POP CALLVALUE PUSH1 0x2 PUSH0 DUP3 DUP3 SLOAD PUSH2 0xE5 SWAP2 SWAP1 PUSH2 0x697 JUMP JUMPDEST SWAP3 POP POP DUP2 SWAP1 SSTORE STOP JUMPDEST CALLER PUSH0 SWAP1 DUP2 MSTORE PUSH1 0x1 PUSH1 0x20 MSTORE PUSH1 0x40 DUP2 KECCAK256 DUP1 SLOAD CALLVALUE SWAP3 SWAP1 PUSH2 0xCD SWAP1 DUP5 SWAP1 PUSH2 0x697 JUMP JUMPDEST CALLVALUE DUP1 ISZERO PUSH2 0x116 JUMPI PUSH0 DUP1 REVERT JUMPDEST POP PUSH2 0x12A PUSH2 0x125 CALLDATASIZE PUSH1 0x4 PUSH2 0x6B0 JUMP JUMPDEST PUSH2 0x27D JUMP JUMPDEST PUSH1 0x40 MLOAD PUSH2 0x139 SWAP4 SWAP3 SWAP2 SWAP1 PUSH2 0x6C7 JUMP JUMPDEST PUSH1 0x40 MLOAD DUP1 SWAP2 SUB SWAP1 RETURN JUMPDEST CALLVALUE DUP1 ISZERO PUSH2 0x14D JUMPI PUSH0 DUP1 REVERT JUMPDEST POP PUSH2 0x161 PUSH2 0x15C CALLDATASIZE PUSH1 0x4 PUSH2 0x6B0 JUMP JUMPDEST PUSH2 0x33C JUMP JUMPDEST STOP JUMPDEST CALLVALUE DUP1 ISZERO PUSH2 0x16E JUMPI PUSH0 DUP1 REVERT JUMPDEST POP PUSH2 0x178 PUSH1 0x2 SLOAD DUP2 JUMP JUMPDEST PUSH1 0x40 MLOAD SWAP1 DUP2 MSTORE PUSH1 0x20 ADD PUSH2 0x139 JUMP JUMPDEST PUSH2 0x161 PUSH2 0x194 CALLDATASIZE PUSH1 0x4 PUSH2 0x739 JUMP JUMPDEST PUSH2 0x45C JUMP JUMPDEST CALLVALUE DUP1 ISZERO PUSH2 0x1A4 JUMPI PUSH0 DUP1 REVERT JUMPDEST POP PUSH2 0x161 PUSH2 0x494 JUMP JUMPDEST CALLVALUE DUP1 ISZERO PUSH2 0x1B8 JUMPI PUSH0 DUP1 REVERT JUMPDEST POP PUSH2 0x161 PUSH2 0x1C7 CALLDATASIZE PUSH1 0x4 PUSH2 0x777 JUMP JUMPDEST PUSH2 0x53E JUMP JUMPDEST CALLVALUE DUP1 ISZERO PUSH2 0x1D7 JUMPI PUSH0 DUP1 REVERT JUMPDEST POP PUSH2 0x161 PUSH2 0x5D7 JUMP JUMPDEST CALLVALUE DUP1 ISZERO PUSH2 0x1EB JUMPI PUSH0 DUP1 REVERT JUMPDEST POP PUSH2 0x161 PUSH2 0x1FA CALLDATASIZE PUSH1 0x4 PUSH2 0x777 JUMP JUMPDEST PUSH2 0x5EA JUMP JUMPDEST CALLVALUE DUP1 ISZERO PUSH2 0x20A JUMPI PUSH0 DUP1 REVERT JUMPDEST POP PUSH0 SLOAD PUSH2 0x21D SWAP1 PUSH1 0x1 PUSH1 0x1 PUSH1 0xA0 SHL SUB AND DUP2 JUMP JUMPDEST PUSH1 0x40 MLOAD PUSH1 0x1 PUSH1 0x1 PUSH1 0xA0 SHL SUB SWAP1 SWAP2 AND DUP2 MSTORE PUSH1 0x20 ADD PUSH2 0x139 JUMP JUMPDEST CALLVALUE DUP1 ISZERO PUSH2 0x240 JUMPI PUSH0 DUP1 REVERT JUMPDEST POP PUSH2 0x178 PUSH2 0x24F CALLDATASIZE PUSH1 0x4 PUSH2 0x822 JUMP JUMPDEST PUSH1 0x1 PUSH1 0x20 MSTORE PUSH0 SWAP1 DUP2 MSTORE PUSH1 0x40 SWAP1 KECCAK256 SLOAD DUP2 JUMP JUMPDEST PUSH2 0x161 PUSH2 0x607 JUMP JUMPDEST CALLVALUE DUP1 ISZERO PUSH2 0x273 JUMPI PUSH0 DUP1 REVERT JUMPDEST POP PUSH2 0x178 PUSH1 0x3 SLOAD DUP2 JUMP JUMPDEST PUSH1 0x6 DUP2 DUP2 SLOAD DUP2 LT PUSH2 0x28C JUMPI PUSH0 DUP1 REVERT JUMPDEST SWAP1 PUSH0 MSTORE PUSH1 0x20 PUSH0 KECCAK256 SWAP1 PUSH1 0x3 MUL ADD PUSH0 SWAP2 POP SWAP1 POP DUP1 PUSH0 ADD DUP1 SLOAD PUSH2 0x2AB SWAP1 PUSH2 0x844 JUMP JUMPDEST DUP1 PUSH1 0x1F ADD PUSH1 0x20 DUP1 SWAP2 DIV MUL PUSH1 0x20 ADD PUSH1 0x40 MLOAD SWAP1 DUP2 ADD PUSH1 0x40 MSTORE DUP1 SWAP3 SWAP2 SWAP1 DUP2 DUP2 MSTORE PUSH1 0x20 ADD DUP3 DUP1 SLOAD PUSH2 0x2D7 SWAP1 PUSH2 0x844 JUMP JUMPDEST DUP1 ISZERO PUSH2 0x322 JUMPI DUP1 PUSH1 0x1F LT PUSH2 0x2F9 JUMPI PUSH2 0x100 DUP1 DUP4 SLOAD DIV MUL DUP4 MSTORE SWAP2 PUSH1 0x20 ADD SWAP2 PUSH2 0x322 JUMP JUMPDEST DUP3 ADD SWAP2 SWAP1 PUSH0 MSTORE PUSH1 0x20 PUSH0 KECCAK256 SWAP1 JUMPDEST DUP2 SLOAD DUP2 MSTORE SWAP1 PUSH1 0x1 ADD SWAP1 PUSH1 0x20 ADD DUP1 DUP4 GT PUSH2 0x305 JUMPI DUP3 SWAP1 SUB PUSH1 0x1F AND DUP3 ADD SWAP2 JUMPDEST POP POP POP POP PUSH1 0x1 DUP4 ADD SLOAD PUSH1 0x2 SWAP1 SWAP4 ADD SLOAD SWAP2 SWAP3 SWAP2 PUSH1 0xFF AND SWAP1 POP DUP4 JUMP JUMPDEST PUSH0 SLOAD PUSH1 0x1 PUSH1 0x1 PUSH1 0xA0 SHL SUB AND CALLER EQ PUSH2 0x38A JUMPI PUSH1 0x40 MLOAD PUSH3 0x461BCD PUSH1 0xE5 SHL DUP2 MSTORE PUSH1 0x20 PUSH1 0x4 DUP3 ADD MSTORE PUSH1 0xD PUSH1 0x24 DUP3 ADD MSTORE PUSH13 0x2737BA103A34329037BBB732B9 PUSH1 0x99 SHL PUSH1 0x44 DUP3 ADD MSTORE PUSH1 0x64 ADD JUMPDEST PUSH1 0x40 MLOAD DUP1 SWAP2 SUB SWAP1 REVERT JUMPDEST PUSH0 PUSH1 0x6 DUP3 DUP2 SLOAD DUP2 LT PUSH2 0x39E JUMPI PUSH2 0x39E PUSH2 0x87C JUMP JUMPDEST PUSH0 SWAP2 DUP3 MSTORE PUSH1 0x20 SWAP1 SWAP2 KECCAK256 PUSH1 0x3 SWAP1 SWAP2 MUL ADD PUSH1 0x2 DUP2 ADD SLOAD SWAP1 SWAP2 POP PUSH1 0xFF AND ISZERO PUSH2 0x3F8 JUMPI PUSH1 0x40 MLOAD PUSH3 0x461BCD PUSH1 0xE5 SHL DUP2 MSTORE PUSH1 0x20 PUSH1 0x4 DUP3 ADD MSTORE PUSH1 0x10 PUSH1 0x24 DUP3 ADD MSTORE PUSH16 0x105B1C9958591E48195E1958DD5D1959 PUSH1 0x82 SHL PUSH1 0x44 DUP3 ADD MSTORE PUSH1 0x64 ADD PUSH2 0x381 JUMP JUMPDEST PUSH1 0x2 DUP1 SLOAD PUSH2 0x406 SWAP2 SWAP1 PUSH2 0x890 JUMP JUMPDEST DUP2 PUSH1 0x1 ADD SLOAD GT PUSH2 0x44B JUMPI PUSH1 0x40 MLOAD PUSH3 0x461BCD PUSH1 0xE5 SHL DUP2 MSTORE PUSH1 0x20 PUSH1 0x4 DUP3 ADD MSTORE PUSH1 0x10 PUSH1 0x24 DUP3 ADD MSTORE PUSH16 0x4E6F7420656E6F75676820766F746573 PUSH1 0x80 SHL PUSH1 0x44 DUP3 ADD MSTORE PUSH1 0x64 ADD PUSH2 0x381 JUMP JUMPDEST PUSH1 0x2 ADD DUP1 SLOAD PUSH1 0xFF NOT AND PUSH1 0x1 OR SWAP1 SSTORE POP JUMP JUMPDEST PUSH1 0x40 MLOAD PUSH1 0x1 PUSH1 0x1 PUSH1 0xA0 SHL SUB DUP4 AND SWAP1 DUP3 ISZERO PUSH2 0x8FC MUL SWAP1 DUP4 SWAP1 PUSH0 DUP2 DUP2 DUP2 DUP6 DUP9 DUP9 CALL SWAP4 POP POP POP POP ISZERO DUP1 ISZERO PUSH2 0x48F JUMPI RETURNDATASIZE PUSH0 DUP1 RETURNDATACOPY RETURNDATASIZE PUSH0 REVERT JUMPDEST POP POP POP JUMP JUMPDEST CALLER PUSH0 SWAP1 DUP2 MSTORE PUSH1 0x1 PUSH1 0x20 MSTORE PUSH1 0x40 SWAP1 KECCAK256 SLOAD DUP1 PUSH2 0x4E8 JUMPI PUSH1 0x40 MLOAD PUSH3 0x461BCD PUSH1 0xE5 SHL DUP2 MSTORE PUSH1 0x20 PUSH1 0x4 DUP3 ADD MSTORE PUSH1 0x15 PUSH1 0x24 DUP3 ADD MSTORE PUSH21 0x4E6F2073686172657320746F207769746864726177 PUSH1 0x58 SHL PUSH1 0x44 DUP3 ADD MSTORE PUSH1 0x64 ADD PUSH2 0x381 JUMP JUMPDEST CALLER PUSH0 SWAP1 DUP2 MSTORE PUSH1 0x1 PUSH1 0x20 MSTORE PUSH1 0x40 DUP2 KECCAK256 DUP2 SWAP1 SSTORE PUSH1 0x2 DUP1 SLOAD DUP4 SWAP3 SWAP1 PUSH2 0x50B SWAP1 DUP5 SWAP1 PUSH2 0x8AF JUMP JUMPDEST SWAP1 SWAP2 SSTORE POP POP PUSH1 0x40 MLOAD CALLER SWAP1 DUP3 ISZERO PUSH2 0x8FC MUL SWAP1 DUP4 SWAP1 PUSH0 DUP2 DUP2 DUP2 DUP6 DUP9 DUP9 CALL SWAP4 POP POP POP POP ISZERO DUP1 ISZERO PUSH2 0x53A JUMPI RETURNDATASIZE PUSH0 DUP1 RETURNDATACOPY RETURNDATASIZE PUSH0 REVERT JUMPDEST POP POP JUMP JUMPDEST PUSH1 0x40 DUP1 MLOAD PUSH1 0x60 DUP2 ADD DUP3 MSTORE DUP3 DUP2 MSTORE PUSH0 PUSH1 0x20 DUP3 ADD DUP2 SWAP1 MSTORE SWAP2 DUP2 ADD DUP3 SWAP1 MSTORE PUSH1 0x6 DUP1 SLOAD PUSH1 0x1 DUP2 ADD DUP3 SSTORE SWAP3 MSTORE DUP1 MLOAD SWAP1 SWAP2 PUSH1 0x3 MUL PUSH32 0xF652222313E28459528D920B65115C16C04F3EFC82AAEDC97BE59F3F377C0D3F ADD SWAP1 DUP2 SWAP1 PUSH2 0x59B SWAP1 DUP3 PUSH2 0x90D JUMP JUMPDEST POP PUSH1 0x20 DUP3 ADD MLOAD PUSH1 0x1 DUP3 ADD SSTORE PUSH1 0x40 SWAP1 SWAP2 ADD MLOAD PUSH1 0x2 SWAP1 SWAP2 ADD DUP1 SLOAD PUSH1 0xFF NOT AND SWAP2 ISZERO ISZERO SWAP2 SWAP1 SWAP2 OR SWAP1 SSTORE PUSH1 0x3 DUP1 SLOAD SWAP1 PUSH0 PUSH2 0x5CF DUP4 PUSH2 0x9CD JUMP JUMPDEST SWAP2 SWAP1 POP SSTORE POP POP JUMP JUMPDEST PUSH1 0x4 SLOAD PUSH2 0x5E5 SWAP1 PUSH1 0x1 PUSH2 0x697 JUMP JUMPDEST PUSH1 0x4 SSTORE JUMP JUMPDEST PUSH1 0x4 SLOAD PUSH2 0x5F8 SWAP1 PUSH1 0x1 PUSH2 0x697 JUMP JUMPDEST PUSH1 0x4 SSTORE PUSH1 0x5 PUSH2 0x53A DUP3 DUP3 PUSH2 0x90D JUMP JUMPDEST PUSH0 CALLVALUE GT PUSH2 0x646 JUMPI PUSH1 0x40 MLOAD PUSH3 0x461BCD PUSH1 0xE5 SHL DUP2 MSTORE PUSH1 0x20 PUSH1 0x4 DUP3 ADD MSTORE PUSH1 0xD PUSH1 0x24 DUP3 ADD MSTORE PUSH13 0x9AEAE6E840E6CADCC8408AA89 PUSH1 0x9B SHL PUSH1 0x44 DUP3 ADD MSTORE PUSH1 0x64 ADD PUSH2 0x381 JUMP JUMPDEST CALLER PUSH0 SWAP1 DUP2 MSTORE PUSH1 0x1 PUSH1 0x20 MSTORE PUSH1 0x40 DUP2 KECCAK256 DUP1 SLOAD CALLVALUE SWAP3 SWAP1 PUSH2 0x664 SWAP1 DUP5 SWAP1 PUSH2 0x697 JUMP JUMPDEST SWAP3 POP POP DUP2 SWAP1 SSTORE POP CALLVALUE PUSH1 0x2 PUSH0 DUP3 DUP3 SLOAD PUSH2 0x67C SWAP2 SWAP1 PUSH2 0x697 JUMP JUMPDEST SWAP1 SWAP2 SSTORE POP POP JUMP JUMPDEST PUSH4 0x4E487B71 PUSH1 0xE0 SHL PUSH0 MSTORE PUSH1 0x11 PUSH1 0x4 MSTORE PUSH1 0x24 PUSH0 REVERT JUMPDEST DUP1 DUP3 ADD DUP1 DUP3 GT ISZERO PUSH2 0x6AA JUMPI PUSH2 0x6AA PUSH2 0x683 JUMP JUMPDEST SWAP3 SWAP2 POP POP JUMP JUMPDEST PUSH0 PUSH1 0x20 DUP3 DUP5 SUB SLT ISZERO PUSH2 0x6C0 JUMPI PUSH0 DUP1 REVERT JUMPDEST POP CALLDATALOAD SWAP2 SWAP1 POP JUMP JUMPDEST PUSH1 0x60 DUP2 MSTORE PUSH0 DUP5 MLOAD DUP1 PUSH1 0x60 DUP5 ADD MSTORE PUSH0 JUMPDEST DUP2 DUP2 LT ISZERO PUSH2 0x6F3 JUMPI PUSH1 0x20 DUP2 DUP9 ADD DUP2 ADD MLOAD PUSH1 0x80 DUP7 DUP5 ADD ADD MSTORE ADD PUSH2 0x6D6 JUMP JUMPDEST POP PUSH0 PUSH1 0x80 DUP3 DUP6 ADD ADD MSTORE PUSH1 0x80 PUSH1 0x1F NOT PUSH1 0x1F DUP4 ADD AND DUP5 ADD ADD SWAP2 POP POP DUP4 PUSH1 0x20 DUP4 ADD MSTORE DUP3 ISZERO ISZERO PUSH1 0x40 DUP4 ADD MSTORE SWAP5 SWAP4 POP POP POP POP JUMP JUMPDEST PUSH1 0x1 PUSH1 0x1 PUSH1 0xA0 SHL SUB DUP2 AND DUP2 EQ PUSH2 0x736 JUMPI PUSH0 DUP1 REVERT JUMPDEST POP JUMP JUMPDEST PUSH0 DUP1 PUSH1 0x40 DUP4 DUP6 SUB SLT ISZERO PUSH2 0x74A JUMPI PUSH0 DUP1 REVERT JUMPDEST DUP3 CALLDATALOAD PUSH2 0x755 DUP2 PUSH2 0x722 JUMP JUMPDEST SWAP5 PUSH1 0x20 SWAP4 SWAP1 SWAP4 ADD CALLDATALOAD SWAP4 POP POP POP JUMP JUMPDEST PUSH4 0x4E487B71 PUSH1 0xE0 SHL PUSH0 MSTORE PUSH1 0x41 PUSH1 0x4 MSTORE PUSH1 0x24 PUSH0 REVERT JUMPDEST PUSH0 PUSH1 0x20 DUP3 DUP5 SUB SLT ISZERO PUSH2 0x787 JUMPI PUSH0 DUP1 REVERT JUMPDEST DUP2 CALLDATALOAD PUSH8 0xFFFFFFFFFFFFFFFF DUP1 DUP3 GT ISZERO PUSH2 0x79E JUMPI PUSH0 DUP1 REVERT JUMPDEST DUP2 DUP5 ADD SWAP2 POP DUP5 PUSH1 0x1F DUP4 ADD SLT PUSH2 0x7B1 JUMPI PUSH0 DUP1 REVERT JUMPDEST DUP2 CALLDATALOAD DUP2 DUP2 GT ISZERO PUSH2 0x7C3 JUMPI PUSH2 0x7C3 PUSH2 0x763 JUMP JUMPDEST PUSH1 0x40 MLOAD PUSH1 0x1F DUP3 ADD PUSH1 0x1F NOT SWAP1 DUP2 AND PUSH1 0x3F ADD AND DUP2 ADD SWAP1 DUP4 DUP3 GT DUP2 DUP4 LT OR ISZERO PUSH2 0x7EB JUMPI PUSH2 0x7EB PUSH2 0x763 JUMP JUMPDEST DUP2 PUSH1 0x40 MSTORE DUP3 DUP2 MSTORE DUP8 PUSH1 0x20 DUP5 DUP8 ADD ADD GT ISZERO PUSH2 0x803 JUMPI PUSH0 DUP1 REVERT JUMPDEST DUP3 PUSH1 0x20 DUP7 ADD PUSH1 0x20 DUP4 ADD CALLDATACOPY PUSH0 SWAP3 DUP2 ADD PUSH1 0x20 ADD SWAP3 SWAP1 SWAP3 MSTORE POP SWAP6 SWAP5 POP POP POP POP POP JUMP JUMPDEST PUSH0 PUSH1 0x20 DUP3 DUP5 SUB SLT ISZERO PUSH2 0x832 JUMPI PUSH0 DUP1 REVERT JUMPDEST DUP2 CALLDATALOAD PUSH2 0x83D DUP2 PUSH2 0x722 JUMP JUMPDEST SWAP4 SWAP3 POP POP POP JUMP JUMPDEST PUSH1 0x1 DUP2 DUP2 SHR SWAP1 DUP3 AND DUP1 PUSH2 0x858 JUMPI PUSH1 0x7F DUP3 AND SWAP2 POP JUMPDEST PUSH1 0x20 DUP3 LT DUP2 SUB PUSH2 0x876 JUMPI PUSH4 0x4E487B71 PUSH1 0xE0 SHL PUSH0 MSTORE PUSH1 0x22 PUSH1 0x4 MSTORE PUSH1 0x24 PUSH0 REVERT JUMPDEST POP SWAP2 SWAP1 POP JUMP JUMPDEST PUSH4 0x4E487B71 PUSH1 0xE0 SHL PUSH0 MSTORE PUSH1 0x32 PUSH1 0x4 MSTORE PUSH1 0x24 PUSH0 REVERT JUMPDEST PUSH0 DUP3 PUSH2 0x8AA JUMPI PUSH4 0x4E487B71 PUSH1 0xE0 SHL PUSH0 MSTORE PUSH1 0x12 PUSH1 0x4 MSTORE PUSH1 0x24 PUSH0 REVERT JUMPDEST POP DIV SWAP1 JUMP JUMPDEST DUP2 DUP2 SUB DUP2 DUP2 GT ISZERO PUSH2 0x6AA JUMPI PUSH2 0x6AA PUSH2 0x683 JUMP JUMPDEST PUSH1 0x1F DUP3 GT ISZERO PUSH2 0x48F JUMPI DUP1 PUSH0 MSTORE PUSH1 0x20 PUSH0 KECCAK256 PUSH1 0x1F DUP5 ADD PUSH1 0x5 SHR DUP2 ADD PUSH1 0x20 DUP6 LT ISZERO PUSH2 0x8E7 JUMPI POP DUP1 JUMPDEST PUSH1 0x1F DUP5 ADD PUSH1 0x5 SHR DUP3 ADD SWAP2 POP JUMPDEST DUP2 DUP2 LT ISZERO PUSH2 0x906 JUMPI PUSH0 DUP2 SSTORE PUSH1 0x1 ADD PUSH2 0x8F3 JUMP JUMPDEST POP POP POP POP POP JUMP JUMPDEST DUP2 MLOAD PUSH8 0xFFFFFFFFFFFFFFFF DUP2 GT ISZERO PUSH2 0x927 JUMPI PUSH2 0x927 PUSH2 0x763 JUMP JUMPDEST PUSH2 0x93B DUP2 PUSH2 0x935 DUP5 SLOAD PUSH2 0x844 JUMP JUMPDEST DUP5 PUSH2 0x8C2 JUMP JUMPDEST PUSH1 0x20 DUP1 PUSH1 0x1F DUP4 GT PUSH1 0x1 DUP2 EQ PUSH2 0x96E JUMPI PUSH0 DUP5 ISZERO PUSH2 0x957 JUMPI POP DUP6 DUP4 ADD MLOAD JUMPDEST PUSH0 NOT PUSH1 0x3 DUP7 SWAP1 SHL SHR NOT AND PUSH1 0x1 DUP6 SWAP1 SHL OR DUP6 SSTORE PUSH2 0x9C5 JUMP JUMPDEST PUSH0 DUP6 DUP2 MSTORE PUSH1 0x20 DUP2 KECCAK256 PUSH1 0x1F NOT DUP7 AND SWAP2 JUMPDEST DUP3 DUP2 LT ISZERO PUSH2 0x99C JUMPI DUP9 DUP7 ADD MLOAD DUP3 SSTORE SWAP5 DUP5 ADD SWAP5 PUSH1 0x1 SWAP1 SWAP2 ADD SWAP1 DUP5 ADD PUSH2 0x97D JUMP JUMPDEST POP DUP6 DUP3 LT ISZERO PUSH2 0x9B9 JUMPI DUP8 DUP6 ADD MLOAD PUSH0 NOT PUSH1 0x3 DUP9 SWAP1 SHL PUSH1 0xF8 AND SHR NOT AND DUP2 SSTORE JUMPDEST POP POP PUSH1 0x1 DUP5 PUSH1 0x1 SHL ADD DUP6 SSTORE JUMPDEST POP POP POP POP POP POP JUMP JUMPDEST PUSH0 PUSH1 0x1 DUP3 ADD PUSH2 0x9DE JUMPI PUSH2 0x9DE PUSH2 0x683 JUMP JUMPDEST POP PUSH1 0x1 ADD SWAP1 JUMP INVALID LOG2 PUSH5 0x6970667358 0x22 SLT KECCAK256 0xE5 0xF8 0xD4 PUSH6 0x835845B2E691 PUSH5 0xA0C160F31 SWAP9 SWAP1 CODECOPY GASLIMIT PUSH9 0x1E72E866F038DEE456 DUP5 EXP PUSH5 0x736F6C6343 STOP ADDMOD XOR STOP CALLER "
				},
				"gasEstimates": {
					"creation": {
						"codeDepositCost": "517400",
						"executionCost": "29786",
						"totalCost": "547186"
					},
					"external": {
						"": "infinite",
						"createProposal(string)": "infinite",
						"deposit()": "infinite",
						"execute(address,uint256)": "infinite",
						"executeProposal(uint256)": "35245",
						"owner()": "2379",
						"proposalCount()": "2404",
						"proposals(uint256)": "infinite",
						"queueProposal(string)": "infinite",
						"shares(address)": "2576",
						"totalShares()": "2339",
						"vote()": "24424",
						"withdraw()": "infinite"
					}
				},
				"methodIdentifiers": {
					"createProposal(string)": "49c2a1a6",
					"deposit()": "d0e30db0",
					"execute(address,uint256)": "3b89bb86",
					"executeProposal(uint256)": "0d61b519",
					"owner()": "8da5cb5b",
					"proposalCount()": "da35c664",
					"proposals(uint256)": "013cf08b",
					"queueProposal(string)": "8a286b07",
					"shares(address)": "ce7c2ac2",
					"totalShares()": "3a98ef39",
					"vote()": "632a9a52",
					"withdraw()": "3ccfd60b"
				}
			},
			"storageLayout": {
				"storage": [
					{
						"astId": 3,
						"contract": "contracts/Test.sol:SimpleDAO",
						"label": "owner",
						"offset": 0,
						"slot": "0",
						"type": "t_address"
					},
					{
						"astId": 7,
						"contract": "contracts/Test.sol:SimpleDAO",
						"label": "shares",
						"offset": 0,
						"slot": "1",
						"type": "t_mapping(t_address,t_uint256)"
					},
					{
						"astId": 9,
						"contract": "contracts/Test.sol:SimpleDAO",
						"label": "totalShares",
						"offset": 0,
						"slot": "2",
						"type": "t_uint256"
					},
					{
						"astId": 11,
						"contract": "contracts/Test.sol:SimpleDAO",
						"label": "proposalCount",
						"offset": 0,
						"slot": "3",
						"type": "t_uint256"
					},
					{
						"astId": 14,
						"contract": "contracts/Test.sol:SimpleDAO",
						"label": "votes",
						"offset": 0,
						"slot": "4",
						"type": "t_uint256"
					},
					{
						"astId": 16,
						"contract": "contracts/Test.sol:SimpleDAO",
						"label": "latestProposalHash",
						"offset": 0,
						"slot": "5",
						"type": "t_string_storage"
					},
					{
						"astId": 27,
						"contract": "contracts/Test.sol:SimpleDAO",
						"label": "proposals",
						"offset": 0,
						"slot": "6",
						"type": "t_array(t_struct(Proposal)23_storage)dyn_storage"
					}
				],
				"types": {
					"t_address": {
						"encoding": "inplace",
						"label": "address",
						"numberOfBytes": "20"
					},
					"t_array(t_struct(Proposal)23_storage)dyn_storage": {
						"base": "t_struct(Proposal)23_storage",
						"encoding": "dynamic_array",
						"label": "struct SimpleDAO.Proposal[]",
						"numberOfBytes": "32"
					},
					"t_bool": {
						"encoding": "inplace",
						"label": "bool",
						"numberOfBytes": "1"
					},
					"t_mapping(t_address,t_uint256)": {
						"encoding": "mapping",
						"key": "t_address",
						"label": "mapping(address => uint256)",
						"numberOfBytes": "32",
						"value": "t_uint256"
					},
					"t_string_storage": {
						"encoding": "bytes",
						"label": "string",
						"numberOfBytes": "32"
					},
					"t_struct(Proposal)23_storage": {
						"encoding": "inplace",
						"label": "struct SimpleDAO.Proposal",
						"members": [
							{
								"astId": 18,
								"contract": "contracts/Test.sol:SimpleDAO",
								"label": "description",
								"offset": 0,
								"slot": "0",
								"type": "t_string_storage"
							},
							{
								"astId": 20,
								"contract": "contracts/Test.sol:SimpleDAO",
								"label": "voteCount",
								"offset": 0,
								"slot": "1",
								"type": "t_uint256"
							},
							{
								"astId": 22,
								"contract": "contracts/Test.sol:SimpleDAO",
								"label": "executed",
								"offset": 0,
								"slot": "2",
								"type": "t_bool"
							}
						],
						"numberOfBytes": "96"
					},
					"t_uint256": {
						"encoding": "inplace",
						"label": "uint256",
						"numberOfBytes": "32"
					}
				}
			},
			"userdoc": {
				"kind": "user",
				"methods": {},
				"version": 1
			}
		}
	}
}