{
	"contracts/Registry.sol": {
		"Registry": {
			"abi": [
				{
					"inputs": [
						{
							"internalType": "address",
							"name": "_owner",
							"type": "address"
						},
						{
							"internalType": "address",
							"name": "_wrapper",
							"type": "address"
						}
					],
					"stateMutability": "nonpayable",
					"type": "constructor"
				},
				{
					"inputs": [
						{
							"internalType": "string[]",
							"name": "newKeys",
							"type": "string[]"
						},
						{
							"internalType": "string[]",
							"name": "values",
							"type": "string[]"
						}
					],
					"name": "batchEditRegistry",
					"outputs": [],
					"stateMutability": "nonpayable",
					"type": "function"
				},
				{
					"inputs": [
						{
							"internalType": "string",
							"name": "key",
							"type": "string"
						},
						{
							"internalType": "string",
							"name": "value",
							"type": "string"
						}
					],
					"name": "editRegistry",
					"outputs": [],
					"stateMutability": "nonpayable",
					"type": "function"
				},
				{
					"inputs": [],
					"name": "getAllKeys",
					"outputs": [
						{
							"internalType": "string[]",
							"name": "",
							"type": "string[]"
						}
					],
					"stateMutability": "view",
					"type": "function"
				},
				{
					"inputs": [],
					"name": "getAllValues",
					"outputs": [
						{
							"internalType": "string[]",
							"name": "",
							"type": "string[]"
						}
					],
					"stateMutability": "view",
					"type": "function"
				},
				{
					"inputs": [
						{
							"internalType": "string",
							"name": "key",
							"type": "string"
						}
					],
					"name": "getRegistryValue",
					"outputs": [
						{
							"internalType": "string",
							"name": "",
							"type": "string"
						}
					],
					"stateMutability": "view",
					"type": "function"
				},
				{
					"inputs": [],
					"name": "owner",
					"outputs": [
						{
							"internalType": "address",
							"name": "",
							"type": "address"
						}
					],
					"stateMutability": "view",
					"type": "function"
				},
				{
					"inputs": [],
					"name": "wrapper",
					"outputs": [
						{
							"internalType": "address",
							"name": "",
							"type": "address"
						}
					],
					"stateMutability": "view",
					"type": "function"
				}
			],
			"devdoc": {
				"kind": "dev",
				"methods": {},
				"version": 1
			},
			"evm": {
				"assembly": "    /* \"contracts/Registry.sol\":61:1762  contract Registry {... */\n  mstore(0x40, 0x80)\n    /* \"contracts/Registry.sol\":363:541  constructor(address _owner, address _wrapper) {... */\n  callvalue\n  dup1\n  iszero\n  tag_1\n  jumpi\n  0x00\n  dup1\n  revert\ntag_1:\n  pop\n  mload(0x40)\n  sub(codesize, bytecodeSize)\n  dup1\n  bytecodeSize\n  dup4\n  codecopy\n  dup2\n  add\n  0x40\n  dup2\n  swap1\n  mstore\n  tag_2\n  swap2\n  tag_3\n  jump\t// in\ntag_2:\n  sub(shl(0xa0, 0x01), 0x01)\n    /* \"contracts/Registry.sol\":428:448  _owner != address(0) */\n  dup3\n  and\n    /* \"contracts/Registry.sol\":420:481  require(_owner != address(0), \"Owner address cannot be zero\") */\n  tag_6\n  jumpi\n  mload(0x40)\n  shl(0xe5, 0x461bcd)\n  dup2\n  mstore\n    /* \"#utility.yul\":696:698   */\n  0x20\n    /* \"contracts/Registry.sol\":420:481  require(_owner != address(0), \"Owner address cannot be zero\") */\n  0x04\n  dup3\n  add\n    /* \"#utility.yul\":678:699   */\n  mstore\n    /* \"#utility.yul\":735:737   */\n  0x1c\n    /* \"#utility.yul\":715:733   */\n  0x24\n  dup3\n  add\n    /* \"#utility.yul\":708:738   */\n  mstore\n    /* \"#utility.yul\":774:804   */\n  0x4f776e657220616464726573732063616e6e6f74206265207a65726f00000000\n    /* \"#utility.yul\":754:772   */\n  0x44\n  dup3\n  add\n    /* \"#utility.yul\":747:805   */\n  mstore\n    /* \"#utility.yul\":822:840   */\n  0x64\n  add\n    /* \"contracts/Registry.sol\":420:481  require(_owner != address(0), \"Owner address cannot be zero\") */\n  mload(0x40)\n  dup1\n  swap2\n  sub\n  swap1\n  revert\ntag_6:\n    /* \"contracts/Registry.sol\":492:497  owner */\n  0x02\n    /* \"contracts/Registry.sol\":492:506  owner = _owner */\n  dup1\n  sload\n  sub(shl(0xa0, 0x01), 0x01)\n  swap4\n  dup5\n  and\n  not(sub(shl(0xa0, 0x01), 0x01))\n  swap2\n  dup3\n  and\n  or\n  swap1\n  swap2\n  sstore\n    /* \"contracts/Registry.sol\":517:524  wrapper */\n  0x03\n    /* \"contracts/Registry.sol\":517:533  wrapper=_wrapper */\n  dup1\n  sload\n  swap3\n  swap1\n  swap4\n  and\n  swap2\n  and\n  or\n  swap1\n  sstore\n    /* \"contracts/Registry.sol\":61:1762  contract Registry {... */\n  jump(tag_11)\n    /* \"#utility.yul\":14:191   */\ntag_10:\n    /* \"#utility.yul\":93:106   */\n  dup1\n  mload\n  sub(shl(0xa0, 0x01), 0x01)\n    /* \"#utility.yul\":135:166   */\n  dup2\n  and\n    /* \"#utility.yul\":125:167   */\n  dup2\n  eq\n    /* \"#utility.yul\":115:185   */\n  tag_13\n  jumpi\n    /* \"#utility.yul\":181:182   */\n  0x00\n    /* \"#utility.yul\":178:179   */\n  dup1\n    /* \"#utility.yul\":171:183   */\n  revert\n    /* \"#utility.yul\":115:185   */\ntag_13:\n    /* \"#utility.yul\":14:191   */\n  swap2\n  swap1\n  pop\n  jump\t// out\n    /* \"#utility.yul\":196:489   */\ntag_3:\n    /* \"#utility.yul\":275:281   */\n  0x00\n    /* \"#utility.yul\":283:289   */\n  dup1\n    /* \"#utility.yul\":336:338   */\n  0x40\n    /* \"#utility.yul\":324:333   */\n  dup4\n    /* \"#utility.yul\":315:322   */\n  dup6\n    /* \"#utility.yul\":311:334   */\n  sub\n    /* \"#utility.yul\":307:339   */\n  slt\n    /* \"#utility.yul\":304:356   */\n  iszero\n  tag_15\n  jumpi\n    /* \"#utility.yul\":352:353   */\n  0x00\n    /* \"#utility.yul\":349:350   */\n  dup1\n    /* \"#utility.yul\":342:354   */\n  revert\n    /* \"#utility.yul\":304:356   */\ntag_15:\n    /* \"#utility.yul\":375:415   */\n  tag_16\n    /* \"#utility.yul\":405:414   */\n  dup4\n    /* \"#utility.yul\":375:415   */\n  tag_10\n  jump\t// in\ntag_16:\n    /* \"#utility.yul\":365:415   */\n  swap2\n  pop\n    /* \"#utility.yul\":434:483   */\n  tag_17\n    /* \"#utility.yul\":479:481   */\n  0x20\n    /* \"#utility.yul\":468:477   */\n  dup5\n    /* \"#utility.yul\":464:482   */\n  add\n    /* \"#utility.yul\":434:483   */\n  tag_10\n  jump\t// in\ntag_17:\n    /* \"#utility.yul\":424:483   */\n  swap1\n  pop\n    /* \"#utility.yul\":196:489   */\n  swap3\n  pop\n  swap3\n  swap1\n  pop\n  jump\t// out\n    /* \"#utility.yul\":494:846   */\ntag_11:\n    /* \"contracts/Registry.sol\":61:1762  contract Registry {... */\n  dataSize(sub_0)\n  dup1\n  dataOffset(sub_0)\n  0x00\n  codecopy\n  0x00\n  return\nstop\n\nsub_0: assembly {\n        /* \"contracts/Registry.sol\":61:1762  contract Registry {... */\n      mstore(0x40, 0x80)\n      callvalue\n      dup1\n      iszero\n      tag_1\n      jumpi\n      0x00\n      dup1\n      revert\n    tag_1:\n      pop\n      jumpi(tag_2, lt(calldatasize, 0x04))\n      shr(0xe0, calldataload(0x00))\n      dup1\n      0x8da5cb5b\n      gt\n      tag_10\n      jumpi\n      dup1\n      0x8da5cb5b\n      eq\n      tag_6\n      jumpi\n      dup1\n      0x981f5499\n      eq\n      tag_7\n      jumpi\n      dup1\n      0xac210cc7\n      eq\n      tag_8\n      jumpi\n      dup1\n      0xbc87eed3\n      eq\n      tag_9\n      jumpi\n      0x00\n      dup1\n      revert\n    tag_10:\n      dup1\n      0x2559ddf5\n      eq\n      tag_3\n      jumpi\n      dup1\n      0x2e9c247b\n      eq\n      tag_4\n      jumpi\n      dup1\n      0x88f8f424\n      eq\n      tag_5\n      jumpi\n    tag_2:\n      0x00\n      dup1\n      revert\n        /* \"contracts/Registry.sol\":549:769  function editRegistry(string memory key, string memory value) public _onlyOwner {... */\n    tag_3:\n      tag_11\n      tag_12\n      calldatasize\n      0x04\n      tag_13\n      jump\t// in\n    tag_12:\n      tag_14\n      jump\t// in\n    tag_11:\n      stop\n        /* \"contracts/Registry.sol\":1281:1396  function getRegistryValue(string memory key) public view returns (string memory) {... */\n    tag_4:\n      tag_15\n      tag_16\n      calldatasize\n      0x04\n      tag_17\n      jump\t// in\n    tag_16:\n      tag_18\n      jump\t// in\n    tag_15:\n      mload(0x40)\n      tag_19\n      swap2\n      swap1\n      tag_20\n      jump\t// in\n    tag_19:\n      mload(0x40)\n      dup1\n      swap2\n      sub\n      swap1\n      return\n        /* \"contracts/Registry.sol\":781:1271  function batchEditRegistry(string[] memory newKeys, string[] memory values) public _onlyOwner {... */\n    tag_5:\n      tag_11\n      tag_22\n      calldatasize\n      0x04\n      tag_23\n      jump\t// in\n    tag_22:\n      tag_24\n      jump\t// in\n        /* \"contracts/Registry.sol\":159:179  address public owner */\n    tag_6:\n      sload(0x02)\n      tag_25\n      swap1\n      sub(shl(0xa0, 0x01), 0x01)\n      and\n      dup2\n      jump\n    tag_25:\n      mload(0x40)\n      sub(shl(0xa0, 0x01), 0x01)\n        /* \"#utility.yul\":4253:4285   */\n      swap1\n      swap2\n      and\n        /* \"#utility.yul\":4235:4286   */\n      dup2\n      mstore\n        /* \"#utility.yul\":4223:4225   */\n      0x20\n        /* \"#utility.yul\":4208:4226   */\n      add\n        /* \"contracts/Registry.sol\":159:179  address public owner */\n      tag_19\n        /* \"#utility.yul\":4089:4292   */\n      jump\n        /* \"contracts/Registry.sol\":1504:1759  function getAllValues() public view returns (string[] memory) {... */\n    tag_7:\n      tag_29\n      tag_30\n      jump\t// in\n    tag_29:\n      mload(0x40)\n      tag_19\n      swap2\n      swap1\n      tag_32\n      jump\t// in\n        /* \"contracts/Registry.sol\":186:208  address public wrapper */\n    tag_8:\n      sload(0x03)\n      tag_25\n      swap1\n      sub(shl(0xa0, 0x01), 0x01)\n      and\n      dup2\n      jump\n        /* \"contracts/Registry.sol\":1406:1496  function getAllKeys() public view returns (string[] memory) {... */\n    tag_9:\n      tag_29\n      tag_37\n      jump\t// in\n        /* \"contracts/Registry.sol\":549:769  function editRegistry(string memory key, string memory value) public _onlyOwner {... */\n    tag_14:\n        /* \"contracts/Registry.sol\":272:277  owner */\n      and(sub(shl(0xa0, 0x01), 0x01), sload(0x02))\n        /* \"contracts/Registry.sol\":258:268  msg.sender */\n      caller\n        /* \"contracts/Registry.sol\":258:277  msg.sender == owner */\n      eq\n      dup1\n        /* \"contracts/Registry.sol\":258:300  msg.sender == owner || msg.sender==wrapper */\n      tag_40\n      jumpi\n      pop\n        /* \"contracts/Registry.sol\":293:300  wrapper */\n      and(sub(shl(0xa0, 0x01), 0x01), sload(0x03))\n        /* \"contracts/Registry.sol\":281:291  msg.sender */\n      caller\n        /* \"contracts/Registry.sol\":281:300  msg.sender==wrapper */\n      eq\n        /* \"contracts/Registry.sol\":258:300  msg.sender == owner || msg.sender==wrapper */\n    tag_40:\n        /* \"contracts/Registry.sol\":250:335  require(msg.sender == owner || msg.sender==wrapper, \"Only the DAO can edit registry\") */\n      tag_41\n      jumpi\n      mload(0x40)\n      shl(0xe5, 0x461bcd)\n      dup2\n      mstore\n        /* \"#utility.yul\":5307:5309   */\n      0x20\n        /* \"contracts/Registry.sol\":250:335  require(msg.sender == owner || msg.sender==wrapper, \"Only the DAO can edit registry\") */\n      0x04\n      dup3\n      add\n        /* \"#utility.yul\":5289:5310   */\n      mstore\n        /* \"#utility.yul\":5346:5348   */\n      0x1e\n        /* \"#utility.yul\":5326:5344   */\n      0x24\n      dup3\n      add\n        /* \"#utility.yul\":5319:5349   */\n      mstore\n        /* \"#utility.yul\":5385:5417   */\n      0x4f6e6c79207468652044414f2063616e20656469742072656769737472790000\n        /* \"#utility.yul\":5365:5383   */\n      0x44\n      dup3\n      add\n        /* \"#utility.yul\":5358:5418   */\n      mstore\n        /* \"#utility.yul\":5435:5453   */\n      0x64\n      add\n        /* \"contracts/Registry.sol\":250:335  require(msg.sender == owner || msg.sender==wrapper, \"Only the DAO can edit registry\") */\n    tag_42:\n      mload(0x40)\n      dup1\n      swap2\n      sub\n      swap1\n      revert\n    tag_41:\n        /* \"contracts/Registry.sol\":650:653  reg */\n      0x00\n        /* \"contracts/Registry.sol\":654:657  key */\n      dup3\n        /* \"contracts/Registry.sol\":650:658  reg[key] */\n      mload(0x40)\n      tag_45\n      swap2\n      swap1\n      tag_46\n      jump\t// in\n    tag_45:\n      swap1\n      dup2\n      mstore\n      0x20\n      add\n      mload(0x40)\n      dup1\n      swap2\n      sub\n      swap1\n      keccak256\n        /* \"contracts/Registry.sol\":644:666  bytes(reg[key]).length */\n      dup1\n      sload\n      tag_47\n      swap1\n      tag_48\n      jump\t// in\n    tag_47:\n      swap1\n      pop\n        /* \"contracts/Registry.sol\":670:671  0 */\n      0x00\n        /* \"contracts/Registry.sol\":644:671  bytes(reg[key]).length == 0 */\n      sub\n        /* \"contracts/Registry.sol\":640:735  if (bytes(reg[key]).length == 0) {... */\n      tag_49\n      jumpi\n        /* \"contracts/Registry.sol\":688:692  keys */\n      0x01\n        /* \"contracts/Registry.sol\":688:702  keys.push(key) */\n      dup1\n      sload\n      dup1\n      dup3\n      add\n      dup3\n      sstore\n      0x00\n      swap2\n      swap1\n      swap2\n      mstore\n      0xb10e2d527612073b26eecdfd717e6a320cf44b4afac2b0732d9fcbe2b7fa0cf6\n      add\n      tag_51\n        /* \"contracts/Registry.sol\":698:701  key */\n      dup4\n        /* \"contracts/Registry.sol\":688:702  keys.push(key) */\n      dup3\n      tag_52\n      jump\t// in\n    tag_51:\n      pop\n        /* \"contracts/Registry.sol\":640:735  if (bytes(reg[key]).length == 0) {... */\n    tag_49:\n        /* \"contracts/Registry.sol\":756:761  value */\n      dup1\n        /* \"contracts/Registry.sol\":745:748  reg */\n      0x00\n        /* \"contracts/Registry.sol\":749:752  key */\n      dup4\n        /* \"contracts/Registry.sol\":745:753  reg[key] */\n      mload(0x40)\n      tag_53\n      swap2\n      swap1\n      tag_46\n      jump\t// in\n    tag_53:\n      swap1\n      dup2\n      mstore\n      0x20\n      add\n      mload(0x40)\n      dup1\n      swap2\n      sub\n      swap1\n      keccak256\n        /* \"contracts/Registry.sol\":745:761  reg[key] = value */\n      swap1\n      dup2\n      tag_54\n      swap2\n      swap1\n      tag_52\n      jump\t// in\n    tag_54:\n      pop\n        /* \"contracts/Registry.sol\":549:769  function editRegistry(string memory key, string memory value) public _onlyOwner {... */\n      pop\n      pop\n      jump\t// out\n        /* \"contracts/Registry.sol\":1281:1396  function getRegistryValue(string memory key) public view returns (string memory) {... */\n    tag_18:\n        /* \"contracts/Registry.sol\":1347:1360  string memory */\n      0x60\n        /* \"contracts/Registry.sol\":1380:1383  reg */\n      0x00\n        /* \"contracts/Registry.sol\":1384:1387  key */\n      dup3\n        /* \"contracts/Registry.sol\":1380:1388  reg[key] */\n      mload(0x40)\n      tag_56\n      swap2\n      swap1\n      tag_46\n      jump\t// in\n    tag_56:\n      swap1\n      dup2\n      mstore\n      0x20\n      add\n      mload(0x40)\n      dup1\n      swap2\n      sub\n      swap1\n      keccak256\n        /* \"contracts/Registry.sol\":1373:1388  return reg[key] */\n      dup1\n      sload\n      tag_57\n      swap1\n      tag_48\n      jump\t// in\n    tag_57:\n      dup1\n      0x1f\n      add\n      0x20\n      dup1\n      swap2\n      div\n      mul\n      0x20\n      add\n      mload(0x40)\n      swap1\n      dup2\n      add\n      0x40\n      mstore\n      dup1\n      swap3\n      swap2\n      swap1\n      dup2\n      dup2\n      mstore\n      0x20\n      add\n      dup3\n      dup1\n      sload\n      tag_58\n      swap1\n      tag_48\n      jump\t// in\n    tag_58:\n      dup1\n      iszero\n      tag_59\n      jumpi\n      dup1\n      0x1f\n      lt\n      tag_60\n      jumpi\n      0x0100\n      dup1\n      dup4\n      sload\n      div\n      mul\n      dup4\n      mstore\n      swap2\n      0x20\n      add\n      swap2\n      jump(tag_59)\n    tag_60:\n      dup3\n      add\n      swap2\n      swap1\n      0x00\n      mstore\n      keccak256(0x00, 0x20)\n      swap1\n    tag_61:\n      dup2\n      sload\n      dup2\n      mstore\n      swap1\n      0x01\n      add\n      swap1\n      0x20\n      add\n      dup1\n      dup4\n      gt\n      tag_61\n      jumpi\n      dup3\n      swap1\n      sub\n      0x1f\n      and\n      dup3\n      add\n      swap2\n    tag_59:\n      pop\n      pop\n      pop\n      pop\n      pop\n      swap1\n      pop\n        /* \"contracts/Registry.sol\":1281:1396  function getRegistryValue(string memory key) public view returns (string memory) {... */\n      swap2\n      swap1\n      pop\n      jump\t// out\n        /* \"contracts/Registry.sol\":781:1271  function batchEditRegistry(string[] memory newKeys, string[] memory values) public _onlyOwner {... */\n    tag_24:\n        /* \"contracts/Registry.sol\":272:277  owner */\n      and(sub(shl(0xa0, 0x01), 0x01), sload(0x02))\n        /* \"contracts/Registry.sol\":258:268  msg.sender */\n      caller\n        /* \"contracts/Registry.sol\":258:277  msg.sender == owner */\n      eq\n      dup1\n        /* \"contracts/Registry.sol\":258:300  msg.sender == owner || msg.sender==wrapper */\n      tag_63\n      jumpi\n      pop\n        /* \"contracts/Registry.sol\":293:300  wrapper */\n      and(sub(shl(0xa0, 0x01), 0x01), sload(0x03))\n        /* \"contracts/Registry.sol\":281:291  msg.sender */\n      caller\n        /* \"contracts/Registry.sol\":281:300  msg.sender==wrapper */\n      eq\n        /* \"contracts/Registry.sol\":258:300  msg.sender == owner || msg.sender==wrapper */\n    tag_63:\n        /* \"contracts/Registry.sol\":250:335  require(msg.sender == owner || msg.sender==wrapper, \"Only the DAO can edit registry\") */\n      tag_64\n      jumpi\n      mload(0x40)\n      shl(0xe5, 0x461bcd)\n      dup2\n      mstore\n        /* \"#utility.yul\":5307:5309   */\n      0x20\n        /* \"contracts/Registry.sol\":250:335  require(msg.sender == owner || msg.sender==wrapper, \"Only the DAO can edit registry\") */\n      0x04\n      dup3\n      add\n        /* \"#utility.yul\":5289:5310   */\n      mstore\n        /* \"#utility.yul\":5346:5348   */\n      0x1e\n        /* \"#utility.yul\":5326:5344   */\n      0x24\n      dup3\n      add\n        /* \"#utility.yul\":5319:5349   */\n      mstore\n        /* \"#utility.yul\":5385:5417   */\n      0x4f6e6c79207468652044414f2063616e20656469742072656769737472790000\n        /* \"#utility.yul\":5365:5383   */\n      0x44\n      dup3\n      add\n        /* \"#utility.yul\":5358:5418   */\n      mstore\n        /* \"#utility.yul\":5435:5453   */\n      0x64\n      add\n        /* \"contracts/Registry.sol\":250:335  require(msg.sender == owner || msg.sender==wrapper, \"Only the DAO can edit registry\") */\n      tag_42\n        /* \"#utility.yul\":5105:5459   */\n      jump\n        /* \"contracts/Registry.sol\":250:335  require(msg.sender == owner || msg.sender==wrapper, \"Only the DAO can edit registry\") */\n    tag_64:\n        /* \"contracts/Registry.sol\":891:900  uint256 i */\n      0x00\n        /* \"contracts/Registry.sol\":886:1264  for (uint256 i = 0; i < newKeys.length; i++) {... */\n    tag_67:\n        /* \"contracts/Registry.sol\":910:917  newKeys */\n      dup3\n        /* \"contracts/Registry.sol\":910:924  newKeys.length */\n      mload\n        /* \"contracts/Registry.sol\":906:907  i */\n      dup2\n        /* \"contracts/Registry.sol\":906:924  i < newKeys.length */\n      lt\n        /* \"contracts/Registry.sol\":886:1264  for (uint256 i = 0; i < newKeys.length; i++) {... */\n      iszero\n      tag_54\n      jumpi\n        /* \"contracts/Registry.sol\":946:963  string memory key */\n      0x00\n        /* \"contracts/Registry.sol\":966:973  newKeys */\n      dup4\n        /* \"contracts/Registry.sol\":974:975  i */\n      dup3\n        /* \"contracts/Registry.sol\":966:976  newKeys[i] */\n      dup2\n      mload\n      dup2\n      lt\n      tag_71\n      jumpi\n      tag_71\n      tag_72\n      jump\t// in\n    tag_71:\n      0x20\n      mul\n      0x20\n      add\n      add\n      mload\n        /* \"contracts/Registry.sol\":946:976  string memory key = newKeys[i] */\n      swap1\n      pop\n        /* \"contracts/Registry.sol\":991:1010  string memory value */\n      0x00\n        /* \"contracts/Registry.sol\":1013:1019  values */\n      dup4\n        /* \"contracts/Registry.sol\":1020:1021  i */\n      dup4\n        /* \"contracts/Registry.sol\":1013:1022  values[i] */\n      dup2\n      mload\n      dup2\n      lt\n      tag_74\n      jumpi\n      tag_74\n      tag_72\n      jump\t// in\n    tag_74:\n      0x20\n      mul\n      0x20\n      add\n      add\n      mload\n        /* \"contracts/Registry.sol\":991:1022  string memory value = values[i] */\n      swap1\n      pop\n        /* \"contracts/Registry.sol\":1100:1103  reg */\n      0x00\n        /* \"contracts/Registry.sol\":1104:1107  key */\n      dup3\n        /* \"contracts/Registry.sol\":1100:1108  reg[key] */\n      mload(0x40)\n      tag_75\n      swap2\n      swap1\n      tag_46\n      jump\t// in\n    tag_75:\n      swap1\n      dup2\n      mstore\n      0x20\n      add\n      mload(0x40)\n      dup1\n      swap2\n      sub\n      swap1\n      keccak256\n        /* \"contracts/Registry.sol\":1094:1116  bytes(reg[key]).length */\n      dup1\n      sload\n      tag_76\n      swap1\n      tag_48\n      jump\t// in\n    tag_76:\n      swap1\n      pop\n        /* \"contracts/Registry.sol\":1120:1121  0 */\n      0x00\n        /* \"contracts/Registry.sol\":1094:1121  bytes(reg[key]).length == 0 */\n      sub\n        /* \"contracts/Registry.sol\":1090:1172  if (bytes(reg[key]).length == 0) {... */\n      tag_77\n      jumpi\n        /* \"contracts/Registry.sol\":1142:1146  keys */\n      0x01\n        /* \"contracts/Registry.sol\":1142:1156  keys.push(key) */\n      dup1\n      sload\n      dup1\n      dup3\n      add\n      dup3\n      sstore\n      0x00\n      swap2\n      swap1\n      swap2\n      mstore\n      0xb10e2d527612073b26eecdfd717e6a320cf44b4afac2b0732d9fcbe2b7fa0cf6\n      add\n      tag_79\n        /* \"contracts/Registry.sol\":1152:1155  key */\n      dup4\n        /* \"contracts/Registry.sol\":1142:1156  keys.push(key) */\n      dup3\n      tag_52\n      jump\t// in\n    tag_79:\n      pop\n        /* \"contracts/Registry.sol\":1090:1172  if (bytes(reg[key]).length == 0) {... */\n    tag_77:\n        /* \"contracts/Registry.sol\":1247:1252  value */\n      dup1\n        /* \"contracts/Registry.sol\":1236:1239  reg */\n      0x00\n        /* \"contracts/Registry.sol\":1240:1243  key */\n      dup4\n        /* \"contracts/Registry.sol\":1236:1244  reg[key] */\n      mload(0x40)\n      tag_80\n      swap2\n      swap1\n      tag_46\n      jump\t// in\n    tag_80:\n      swap1\n      dup2\n      mstore\n      0x20\n      add\n      mload(0x40)\n      dup1\n      swap2\n      sub\n      swap1\n      keccak256\n        /* \"contracts/Registry.sol\":1236:1252  reg[key] = value */\n      swap1\n      dup2\n      tag_81\n      swap2\n      swap1\n      tag_52\n      jump\t// in\n    tag_81:\n      pop\n      pop\n      pop\n        /* \"contracts/Registry.sol\":926:929  i++ */\n      0x01\n      add\n        /* \"contracts/Registry.sol\":886:1264  for (uint256 i = 0; i < newKeys.length; i++) {... */\n      jump(tag_67)\n        /* \"contracts/Registry.sol\":1504:1759  function getAllValues() public view returns (string[] memory) {... */\n    tag_30:\n        /* \"contracts/Registry.sol\":1615:1619  keys */\n      0x01\n        /* \"contracts/Registry.sol\":1615:1626  keys.length */\n      sload\n        /* \"contracts/Registry.sol\":1549:1564  string[] memory */\n      0x60\n      swap1\n        /* \"contracts/Registry.sol\":1577:1599  string[] memory values */\n      0x00\n      swap1\n        /* \"contracts/Registry.sol\":1602:1627  new string[](keys.length) */\n      0xffffffffffffffff\n      dup2\n      gt\n      iszero\n      tag_84\n      jumpi\n      tag_84\n      tag_85\n      jump\t// in\n    tag_84:\n      mload(0x40)\n      swap1\n      dup1\n      dup3\n      mstore\n      dup1\n      0x20\n      mul\n      0x20\n      add\n      dup3\n      add\n      0x40\n      mstore\n      dup1\n      iszero\n      tag_86\n      jumpi\n      dup2\n      0x20\n      add\n    tag_87:\n      0x60\n      dup2\n      mstore\n      0x20\n      add\n      swap1\n      0x01\n      swap1\n      sub\n      swap1\n      dup2\n      tag_87\n      jumpi\n      swap1\n      pop\n    tag_86:\n      pop\n        /* \"contracts/Registry.sol\":1577:1627  string[] memory values = new string[](keys.length) */\n      swap1\n      pop\n        /* \"contracts/Registry.sol\":1643:1649  uint i */\n      0x00\n        /* \"contracts/Registry.sol\":1638:1728  for (uint i = 0; i < keys.length; i++) {... */\n    tag_88:\n        /* \"contracts/Registry.sol\":1659:1663  keys */\n      0x01\n        /* \"contracts/Registry.sol\":1659:1670  keys.length */\n      sload\n        /* \"contracts/Registry.sol\":1655:1670  i < keys.length */\n      dup2\n      lt\n        /* \"contracts/Registry.sol\":1638:1728  for (uint i = 0; i < keys.length; i++) {... */\n      iszero\n      tag_89\n      jumpi\n        /* \"contracts/Registry.sol\":1704:1707  reg */\n      0x00\n        /* \"contracts/Registry.sol\":1708:1712  keys */\n      0x01\n        /* \"contracts/Registry.sol\":1713:1714  i */\n      dup3\n        /* \"contracts/Registry.sol\":1708:1715  keys[i] */\n      dup2\n      sload\n      dup2\n      lt\n      tag_92\n      jumpi\n      tag_92\n      tag_72\n      jump\t// in\n    tag_92:\n      swap1\n      0x00\n      mstore\n      keccak256(0x00, 0x20)\n      add\n        /* \"contracts/Registry.sol\":1704:1716  reg[keys[i]] */\n      mload(0x40)\n      tag_94\n      swap2\n      swap1\n      tag_95\n      jump\t// in\n    tag_94:\n      swap1\n      dup2\n      mstore\n      0x20\n      add\n      mload(0x40)\n      dup1\n      swap2\n      sub\n      swap1\n      keccak256\n        /* \"contracts/Registry.sol\":1692:1716  values[i] = reg[keys[i]] */\n      dup1\n      sload\n      tag_96\n      swap1\n      tag_48\n      jump\t// in\n    tag_96:\n      dup1\n      0x1f\n      add\n      0x20\n      dup1\n      swap2\n      div\n      mul\n      0x20\n      add\n      mload(0x40)\n      swap1\n      dup2\n      add\n      0x40\n      mstore\n      dup1\n      swap3\n      swap2\n      swap1\n      dup2\n      dup2\n      mstore\n      0x20\n      add\n      dup3\n      dup1\n      sload\n      tag_97\n      swap1\n      tag_48\n      jump\t// in\n    tag_97:\n      dup1\n      iszero\n      tag_98\n      jumpi\n      dup1\n      0x1f\n      lt\n      tag_99\n      jumpi\n      0x0100\n      dup1\n      dup4\n      sload\n      div\n      mul\n      dup4\n      mstore\n      swap2\n      0x20\n      add\n      swap2\n      jump(tag_98)\n    tag_99:\n      dup3\n      add\n      swap2\n      swap1\n      0x00\n      mstore\n      keccak256(0x00, 0x20)\n      swap1\n    tag_100:\n      dup2\n      sload\n      dup2\n      mstore\n      swap1\n      0x01\n      add\n      swap1\n      0x20\n      add\n      dup1\n      dup4\n      gt\n      tag_100\n      jumpi\n      dup3\n      swap1\n      sub\n      0x1f\n      and\n      dup3\n      add\n      swap2\n    tag_98:\n      pop\n      pop\n      pop\n      pop\n      pop\n        /* \"contracts/Registry.sol\":1692:1698  values */\n      dup3\n        /* \"contracts/Registry.sol\":1699:1700  i */\n      dup3\n        /* \"contracts/Registry.sol\":1692:1701  values[i] */\n      dup2\n      mload\n      dup2\n      lt\n      tag_102\n      jumpi\n      tag_102\n      tag_72\n      jump\t// in\n    tag_102:\n      0x20\n      swap1\n      dup2\n      mul\n      swap2\n      swap1\n      swap2\n      add\n      add\n        /* \"contracts/Registry.sol\":1692:1716  values[i] = reg[keys[i]] */\n      mstore\n        /* \"contracts/Registry.sol\":1672:1675  i++ */\n      0x01\n      add\n        /* \"contracts/Registry.sol\":1638:1728  for (uint i = 0; i < keys.length; i++) {... */\n      jump(tag_88)\n    tag_89:\n      pop\n        /* \"contracts/Registry.sol\":1745:1751  values */\n      swap2\n        /* \"contracts/Registry.sol\":1504:1759  function getAllValues() public view returns (string[] memory) {... */\n      swap1\n      pop\n      jump\t// out\n        /* \"contracts/Registry.sol\":1406:1496  function getAllKeys() public view returns (string[] memory) {... */\n    tag_37:\n        /* \"contracts/Registry.sol\":1449:1464  string[] memory */\n      0x60\n        /* \"contracts/Registry.sol\":1484:1488  keys */\n      0x01\n        /* \"contracts/Registry.sol\":1477:1488  return keys */\n      dup1\n      sload\n      dup1\n      0x20\n      mul\n      0x20\n      add\n      mload(0x40)\n      swap1\n      dup2\n      add\n      0x40\n      mstore\n      dup1\n      swap3\n      swap2\n      swap1\n      dup2\n      dup2\n      mstore\n      0x20\n      add\n      0x00\n      swap1\n    tag_104:\n      dup3\n      dup3\n      lt\n      iszero\n      tag_105\n      jumpi\n      dup4\n      dup3\n      swap1\n      0x00\n      mstore\n      keccak256(0x00, 0x20)\n      add\n      dup1\n      sload\n      tag_107\n      swap1\n      tag_48\n      jump\t// in\n    tag_107:\n      dup1\n      0x1f\n      add\n      0x20\n      dup1\n      swap2\n      div\n      mul\n      0x20\n      add\n      mload(0x40)\n      swap1\n      dup2\n      add\n      0x40\n      mstore\n      dup1\n      swap3\n      swap2\n      swap1\n      dup2\n      dup2\n      mstore\n      0x20\n      add\n      dup3\n      dup1\n      sload\n      tag_108\n      swap1\n      tag_48\n      jump\t// in\n    tag_108:\n      dup1\n      iszero\n      tag_109\n      jumpi\n      dup1\n      0x1f\n      lt\n      tag_110\n      jumpi\n      0x0100\n      dup1\n      dup4\n      sload\n      div\n      mul\n      dup4\n      mstore\n      swap2\n      0x20\n      add\n      swap2\n      jump(tag_109)\n    tag_110:\n      dup3\n      add\n      swap2\n      swap1\n      0x00\n      mstore\n      keccak256(0x00, 0x20)\n      swap1\n    tag_111:\n      dup2\n      sload\n      dup2\n      mstore\n      swap1\n      0x01\n      add\n      swap1\n      0x20\n      add\n      dup1\n      dup4\n      gt\n      tag_111\n      jumpi\n      dup3\n      swap1\n      sub\n      0x1f\n      and\n      dup3\n      add\n      swap2\n    tag_109:\n      pop\n      pop\n      pop\n      pop\n      pop\n      dup2\n      mstore\n      0x20\n      add\n      swap1\n      0x01\n      add\n      swap1\n      jump(tag_104)\n    tag_105:\n      pop\n      pop\n      pop\n      pop\n      swap1\n      pop\n        /* \"contracts/Registry.sol\":1406:1496  function getAllKeys() public view returns (string[] memory) {... */\n      swap1\n      jump\t// out\n        /* \"#utility.yul\":14:141   */\n    tag_85:\n        /* \"#utility.yul\":75:85   */\n      0x4e487b71\n        /* \"#utility.yul\":70:73   */\n      0xe0\n        /* \"#utility.yul\":66:86   */\n      shl\n        /* \"#utility.yul\":63:64   */\n      0x00\n        /* \"#utility.yul\":56:87   */\n      mstore\n        /* \"#utility.yul\":106:110   */\n      0x41\n        /* \"#utility.yul\":103:104   */\n      0x04\n        /* \"#utility.yul\":96:111   */\n      mstore\n        /* \"#utility.yul\":130:134   */\n      0x24\n        /* \"#utility.yul\":127:128   */\n      0x00\n        /* \"#utility.yul\":120:135   */\n      revert\n        /* \"#utility.yul\":146:421   */\n    tag_112:\n        /* \"#utility.yul\":217:219   */\n      0x40\n        /* \"#utility.yul\":211:220   */\n      mload\n        /* \"#utility.yul\":282:284   */\n      0x1f\n        /* \"#utility.yul\":263:276   */\n      dup3\n      add\n      not(0x1f)\n        /* \"#utility.yul\":259:286   */\n      and\n        /* \"#utility.yul\":247:287   */\n      dup2\n      add\n        /* \"#utility.yul\":317:335   */\n      0xffffffffffffffff\n        /* \"#utility.yul\":302:336   */\n      dup2\n      gt\n        /* \"#utility.yul\":338:360   */\n      dup3\n      dup3\n      lt\n        /* \"#utility.yul\":299:361   */\n      or\n        /* \"#utility.yul\":296:384   */\n      iszero\n      tag_124\n      jumpi\n        /* \"#utility.yul\":364:382   */\n      tag_124\n      tag_85\n      jump\t// in\n    tag_124:\n        /* \"#utility.yul\":400:402   */\n      0x40\n        /* \"#utility.yul\":393:415   */\n      mstore\n        /* \"#utility.yul\":146:421   */\n      swap2\n      swap1\n      pop\n      jump\t// out\n        /* \"#utility.yul\":426:957   */\n    tag_113:\n        /* \"#utility.yul\":469:474   */\n      0x00\n        /* \"#utility.yul\":522:525   */\n      dup3\n        /* \"#utility.yul\":515:519   */\n      0x1f\n        /* \"#utility.yul\":507:513   */\n      dup4\n        /* \"#utility.yul\":503:520   */\n      add\n        /* \"#utility.yul\":499:526   */\n      slt\n        /* \"#utility.yul\":489:544   */\n      tag_126\n      jumpi\n        /* \"#utility.yul\":540:541   */\n      0x00\n        /* \"#utility.yul\":537:538   */\n      dup1\n        /* \"#utility.yul\":530:542   */\n      revert\n        /* \"#utility.yul\":489:544   */\n    tag_126:\n        /* \"#utility.yul\":576:582   */\n      dup2\n        /* \"#utility.yul\":563:583   */\n      calldataload\n        /* \"#utility.yul\":602:620   */\n      0xffffffffffffffff\n        /* \"#utility.yul\":598:600   */\n      dup2\n        /* \"#utility.yul\":595:621   */\n      gt\n        /* \"#utility.yul\":592:644   */\n      iszero\n      tag_128\n      jumpi\n        /* \"#utility.yul\":624:642   */\n      tag_128\n      tag_85\n      jump\t// in\n    tag_128:\n        /* \"#utility.yul\":668:723   */\n      tag_129\n        /* \"#utility.yul\":711:713   */\n      0x1f\n        /* \"#utility.yul\":692:705   */\n      dup3\n      add\n      not(0x1f)\n        /* \"#utility.yul\":688:715   */\n      and\n        /* \"#utility.yul\":717:721   */\n      0x20\n        /* \"#utility.yul\":684:722   */\n      add\n        /* \"#utility.yul\":668:723   */\n      tag_112\n      jump\t// in\n    tag_129:\n        /* \"#utility.yul\":748:750   */\n      dup2\n        /* \"#utility.yul\":739:746   */\n      dup2\n        /* \"#utility.yul\":732:751   */\n      mstore\n        /* \"#utility.yul\":794:797   */\n      dup5\n        /* \"#utility.yul\":787:791   */\n      0x20\n        /* \"#utility.yul\":782:784   */\n      dup4\n        /* \"#utility.yul\":774:780   */\n      dup7\n        /* \"#utility.yul\":770:785   */\n      add\n        /* \"#utility.yul\":766:792   */\n      add\n        /* \"#utility.yul\":763:798   */\n      gt\n        /* \"#utility.yul\":760:815   */\n      iszero\n      tag_130\n      jumpi\n        /* \"#utility.yul\":811:812   */\n      0x00\n        /* \"#utility.yul\":808:809   */\n      dup1\n        /* \"#utility.yul\":801:813   */\n      revert\n        /* \"#utility.yul\":760:815   */\n    tag_130:\n        /* \"#utility.yul\":876:878   */\n      dup2\n        /* \"#utility.yul\":869:873   */\n      0x20\n        /* \"#utility.yul\":861:867   */\n      dup6\n        /* \"#utility.yul\":857:874   */\n      add\n        /* \"#utility.yul\":850:854   */\n      0x20\n        /* \"#utility.yul\":841:848   */\n      dup4\n        /* \"#utility.yul\":837:855   */\n      add\n        /* \"#utility.yul\":824:879   */\n      calldatacopy\n        /* \"#utility.yul\":924:925   */\n      0x00\n        /* \"#utility.yul\":899:915   */\n      swap2\n      dup2\n      add\n        /* \"#utility.yul\":917:921   */\n      0x20\n        /* \"#utility.yul\":895:922   */\n      add\n        /* \"#utility.yul\":888:926   */\n      swap2\n      swap1\n      swap2\n      mstore\n        /* \"#utility.yul\":903:910   */\n      swap4\n        /* \"#utility.yul\":426:957   */\n      swap3\n      pop\n      pop\n      pop\n      jump\t// out\n        /* \"#utility.yul\":962:1505   */\n    tag_13:\n        /* \"#utility.yul\":1050:1056   */\n      0x00\n        /* \"#utility.yul\":1058:1064   */\n      dup1\n        /* \"#utility.yul\":1111:1113   */\n      0x40\n        /* \"#utility.yul\":1099:1108   */\n      dup4\n        /* \"#utility.yul\":1090:1097   */\n      dup6\n        /* \"#utility.yul\":1086:1109   */\n      sub\n        /* \"#utility.yul\":1082:1114   */\n      slt\n        /* \"#utility.yul\":1079:1131   */\n      iszero\n      tag_132\n      jumpi\n        /* \"#utility.yul\":1127:1128   */\n      0x00\n        /* \"#utility.yul\":1124:1125   */\n      dup1\n        /* \"#utility.yul\":1117:1129   */\n      revert\n        /* \"#utility.yul\":1079:1131   */\n    tag_132:\n        /* \"#utility.yul\":1167:1176   */\n      dup3\n        /* \"#utility.yul\":1154:1177   */\n      calldataload\n        /* \"#utility.yul\":1196:1214   */\n      0xffffffffffffffff\n        /* \"#utility.yul\":1237:1239   */\n      dup1\n        /* \"#utility.yul\":1229:1235   */\n      dup3\n        /* \"#utility.yul\":1226:1240   */\n      gt\n        /* \"#utility.yul\":1223:1257   */\n      iszero\n      tag_133\n      jumpi\n        /* \"#utility.yul\":1253:1254   */\n      0x00\n        /* \"#utility.yul\":1250:1251   */\n      dup1\n        /* \"#utility.yul\":1243:1255   */\n      revert\n        /* \"#utility.yul\":1223:1257   */\n    tag_133:\n        /* \"#utility.yul\":1276:1326   */\n      tag_134\n        /* \"#utility.yul\":1318:1325   */\n      dup7\n        /* \"#utility.yul\":1309:1315   */\n      dup4\n        /* \"#utility.yul\":1298:1307   */\n      dup8\n        /* \"#utility.yul\":1294:1316   */\n      add\n        /* \"#utility.yul\":1276:1326   */\n      tag_113\n      jump\t// in\n    tag_134:\n        /* \"#utility.yul\":1266:1326   */\n      swap4\n      pop\n        /* \"#utility.yul\":1379:1381   */\n      0x20\n        /* \"#utility.yul\":1368:1377   */\n      dup6\n        /* \"#utility.yul\":1364:1382   */\n      add\n        /* \"#utility.yul\":1351:1383   */\n      calldataload\n        /* \"#utility.yul\":1335:1383   */\n      swap2\n      pop\n        /* \"#utility.yul\":1408:1410   */\n      dup1\n        /* \"#utility.yul\":1398:1406   */\n      dup3\n        /* \"#utility.yul\":1395:1411   */\n      gt\n        /* \"#utility.yul\":1392:1428   */\n      iszero\n      tag_135\n      jumpi\n        /* \"#utility.yul\":1424:1425   */\n      0x00\n        /* \"#utility.yul\":1421:1422   */\n      dup1\n        /* \"#utility.yul\":1414:1426   */\n      revert\n        /* \"#utility.yul\":1392:1428   */\n    tag_135:\n      pop\n        /* \"#utility.yul\":1447:1499   */\n      tag_136\n        /* \"#utility.yul\":1491:1498   */\n      dup6\n        /* \"#utility.yul\":1480:1488   */\n      dup3\n        /* \"#utility.yul\":1469:1478   */\n      dup7\n        /* \"#utility.yul\":1465:1489   */\n      add\n        /* \"#utility.yul\":1447:1499   */\n      tag_113\n      jump\t// in\n    tag_136:\n        /* \"#utility.yul\":1437:1499   */\n      swap2\n      pop\n      pop\n        /* \"#utility.yul\":962:1505   */\n      swap3\n      pop\n      swap3\n      swap1\n      pop\n      jump\t// out\n        /* \"#utility.yul\":1510:1832   */\n    tag_17:\n        /* \"#utility.yul\":1579:1585   */\n      0x00\n        /* \"#utility.yul\":1632:1634   */\n      0x20\n        /* \"#utility.yul\":1620:1629   */\n      dup3\n        /* \"#utility.yul\":1611:1618   */\n      dup5\n        /* \"#utility.yul\":1607:1630   */\n      sub\n        /* \"#utility.yul\":1603:1635   */\n      slt\n        /* \"#utility.yul\":1600:1652   */\n      iszero\n      tag_138\n      jumpi\n        /* \"#utility.yul\":1648:1649   */\n      0x00\n        /* \"#utility.yul\":1645:1646   */\n      dup1\n        /* \"#utility.yul\":1638:1650   */\n      revert\n        /* \"#utility.yul\":1600:1652   */\n    tag_138:\n        /* \"#utility.yul\":1688:1697   */\n      dup2\n        /* \"#utility.yul\":1675:1698   */\n      calldataload\n        /* \"#utility.yul\":1721:1739   */\n      0xffffffffffffffff\n        /* \"#utility.yul\":1713:1719   */\n      dup2\n        /* \"#utility.yul\":1710:1740   */\n      gt\n        /* \"#utility.yul\":1707:1757   */\n      iszero\n      tag_139\n      jumpi\n        /* \"#utility.yul\":1753:1754   */\n      0x00\n        /* \"#utility.yul\":1750:1751   */\n      dup1\n        /* \"#utility.yul\":1743:1755   */\n      revert\n        /* \"#utility.yul\":1707:1757   */\n    tag_139:\n        /* \"#utility.yul\":1776:1826   */\n      tag_140\n        /* \"#utility.yul\":1818:1825   */\n      dup5\n        /* \"#utility.yul\":1809:1815   */\n      dup3\n        /* \"#utility.yul\":1798:1807   */\n      dup6\n        /* \"#utility.yul\":1794:1816   */\n      add\n        /* \"#utility.yul\":1776:1826   */\n      tag_113\n      jump\t// in\n    tag_140:\n        /* \"#utility.yul\":1766:1826   */\n      swap5\n        /* \"#utility.yul\":1510:1832   */\n      swap4\n      pop\n      pop\n      pop\n      pop\n      jump\t// out\n        /* \"#utility.yul\":1837:2087   */\n    tag_114:\n        /* \"#utility.yul\":1922:1923   */\n      0x00\n        /* \"#utility.yul\":1932:2045   */\n    tag_142:\n        /* \"#utility.yul\":1946:1952   */\n      dup4\n        /* \"#utility.yul\":1943:1944   */\n      dup2\n        /* \"#utility.yul\":1940:1953   */\n      lt\n        /* \"#utility.yul\":1932:2045   */\n      iszero\n      tag_144\n      jumpi\n        /* \"#utility.yul\":2022:2033   */\n      dup2\n      dup2\n      add\n        /* \"#utility.yul\":2016:2034   */\n      mload\n        /* \"#utility.yul\":2003:2014   */\n      dup4\n      dup3\n      add\n        /* \"#utility.yul\":1996:2035   */\n      mstore\n        /* \"#utility.yul\":1968:1970   */\n      0x20\n        /* \"#utility.yul\":1961:1971   */\n      add\n        /* \"#utility.yul\":1932:2045   */\n      jump(tag_142)\n    tag_144:\n      pop\n      pop\n        /* \"#utility.yul\":2079:2080   */\n      0x00\n        /* \"#utility.yul\":2061:2077   */\n      swap2\n      add\n        /* \"#utility.yul\":2054:2081   */\n      mstore\n        /* \"#utility.yul\":1837:2087   */\n      jump\t// out\n        /* \"#utility.yul\":2092:2363   */\n    tag_115:\n        /* \"#utility.yul\":2134:2137   */\n      0x00\n        /* \"#utility.yul\":2172:2177   */\n      dup2\n        /* \"#utility.yul\":2166:2178   */\n      mload\n        /* \"#utility.yul\":2199:2205   */\n      dup1\n        /* \"#utility.yul\":2194:2197   */\n      dup5\n        /* \"#utility.yul\":2187:2206   */\n      mstore\n        /* \"#utility.yul\":2215:2291   */\n      tag_146\n        /* \"#utility.yul\":2284:2290   */\n      dup2\n        /* \"#utility.yul\":2277:2281   */\n      0x20\n        /* \"#utility.yul\":2272:2275   */\n      dup7\n        /* \"#utility.yul\":2268:2282   */\n      add\n        /* \"#utility.yul\":2261:2265   */\n      0x20\n        /* \"#utility.yul\":2254:2259   */\n      dup7\n        /* \"#utility.yul\":2250:2266   */\n      add\n        /* \"#utility.yul\":2215:2291   */\n      tag_114\n      jump\t// in\n    tag_146:\n        /* \"#utility.yul\":2345:2347   */\n      0x1f\n        /* \"#utility.yul\":2324:2339   */\n      add\n      not(0x1f)\n        /* \"#utility.yul\":2320:2349   */\n      and\n        /* \"#utility.yul\":2311:2350   */\n      swap3\n      swap1\n      swap3\n      add\n        /* \"#utility.yul\":2352:2356   */\n      0x20\n        /* \"#utility.yul\":2307:2357   */\n      add\n      swap3\n        /* \"#utility.yul\":2092:2363   */\n      swap2\n      pop\n      pop\n      jump\t// out\n        /* \"#utility.yul\":2368:2588   */\n    tag_20:\n        /* \"#utility.yul\":2517:2519   */\n      0x20\n        /* \"#utility.yul\":2506:2515   */\n      dup2\n        /* \"#utility.yul\":2499:2520   */\n      mstore\n        /* \"#utility.yul\":2480:2484   */\n      0x00\n        /* \"#utility.yul\":2537:2582   */\n      tag_148\n        /* \"#utility.yul\":2578:2580   */\n      0x20\n        /* \"#utility.yul\":2567:2576   */\n      dup4\n        /* \"#utility.yul\":2563:2581   */\n      add\n        /* \"#utility.yul\":2555:2561   */\n      dup5\n        /* \"#utility.yul\":2537:2582   */\n      tag_115\n      jump\t// in\n    tag_148:\n        /* \"#utility.yul\":2529:2582   */\n      swap4\n        /* \"#utility.yul\":2368:2588   */\n      swap3\n      pop\n      pop\n      pop\n      jump\t// out\n        /* \"#utility.yul\":2593:3466   */\n    tag_116:\n        /* \"#utility.yul\":2646:2651   */\n      0x00\n        /* \"#utility.yul\":2699:2702   */\n      dup3\n        /* \"#utility.yul\":2692:2696   */\n      0x1f\n        /* \"#utility.yul\":2684:2690   */\n      dup4\n        /* \"#utility.yul\":2680:2697   */\n      add\n        /* \"#utility.yul\":2676:2703   */\n      slt\n        /* \"#utility.yul\":2666:2721   */\n      tag_150\n      jumpi\n        /* \"#utility.yul\":2717:2718   */\n      0x00\n        /* \"#utility.yul\":2714:2715   */\n      dup1\n        /* \"#utility.yul\":2707:2719   */\n      revert\n        /* \"#utility.yul\":2666:2721   */\n    tag_150:\n        /* \"#utility.yul\":2753:2759   */\n      dup2\n        /* \"#utility.yul\":2740:2760   */\n      calldataload\n        /* \"#utility.yul\":2779:2783   */\n      0x20\n        /* \"#utility.yul\":2802:2820   */\n      0xffffffffffffffff\n        /* \"#utility.yul\":2839:2841   */\n      dup1\n        /* \"#utility.yul\":2835:2837   */\n      dup4\n        /* \"#utility.yul\":2832:2842   */\n      gt\n        /* \"#utility.yul\":2829:2865   */\n      iszero\n      tag_152\n      jumpi\n        /* \"#utility.yul\":2845:2863   */\n      tag_152\n      tag_85\n      jump\t// in\n    tag_152:\n        /* \"#utility.yul\":2891:2893   */\n      dup3\n        /* \"#utility.yul\":2888:2889   */\n      0x05\n        /* \"#utility.yul\":2884:2894   */\n      shl\n        /* \"#utility.yul\":2914:2942   */\n      tag_153\n        /* \"#utility.yul\":2938:2940   */\n      dup4\n        /* \"#utility.yul\":2934:2936   */\n      dup3\n        /* \"#utility.yul\":2930:2941   */\n      add\n        /* \"#utility.yul\":2914:2942   */\n      tag_112\n      jump\t// in\n    tag_153:\n        /* \"#utility.yul\":2976:2991   */\n      swap4\n      dup5\n      mstore\n        /* \"#utility.yul\":3046:3061   */\n      dup6\n      dup2\n      add\n        /* \"#utility.yul\":3042:3066   */\n      dup4\n      add\n      swap4\n        /* \"#utility.yul\":3007:3019   */\n      dup4\n      dup2\n      add\n      swap1\n        /* \"#utility.yul\":3078:3093   */\n      dup9\n      dup7\n      gt\n        /* \"#utility.yul\":3075:3110   */\n      iszero\n      tag_154\n      jumpi\n        /* \"#utility.yul\":3106:3107   */\n      0x00\n        /* \"#utility.yul\":3103:3104   */\n      dup1\n        /* \"#utility.yul\":3096:3108   */\n      revert\n        /* \"#utility.yul\":3075:3110   */\n    tag_154:\n        /* \"#utility.yul\":3142:3144   */\n      dup5\n        /* \"#utility.yul\":3134:3140   */\n      dup9\n        /* \"#utility.yul\":3130:3145   */\n      add\n        /* \"#utility.yul\":3119:3145   */\n      swap3\n      pop\n        /* \"#utility.yul\":3154:3437   */\n    tag_155:\n        /* \"#utility.yul\":3170:3176   */\n      dup6\n        /* \"#utility.yul\":3165:3168   */\n      dup4\n        /* \"#utility.yul\":3162:3177   */\n      lt\n        /* \"#utility.yul\":3154:3437   */\n      iszero\n      tag_157\n      jumpi\n        /* \"#utility.yul\":3256:3259   */\n      dup3\n        /* \"#utility.yul\":3243:3260   */\n      calldataload\n        /* \"#utility.yul\":3292:3294   */\n      dup5\n        /* \"#utility.yul\":3279:3290   */\n      dup2\n        /* \"#utility.yul\":3276:3295   */\n      gt\n        /* \"#utility.yul\":3273:3312   */\n      iszero\n      tag_158\n      jumpi\n        /* \"#utility.yul\":3308:3309   */\n      0x00\n        /* \"#utility.yul\":3305:3306   */\n      dup1\n        /* \"#utility.yul\":3298:3310   */\n      revert\n        /* \"#utility.yul\":3273:3312   */\n    tag_158:\n        /* \"#utility.yul\":3337:3394   */\n      tag_159\n        /* \"#utility.yul\":3390:3393   */\n      dup11\n        /* \"#utility.yul\":3385:3387   */\n      dup8\n        /* \"#utility.yul\":3371:3382   */\n      dup4\n        /* \"#utility.yul\":3363:3369   */\n      dup13\n        /* \"#utility.yul\":3359:3383   */\n      add\n        /* \"#utility.yul\":3355:3388   */\n      add\n        /* \"#utility.yul\":3337:3394   */\n      tag_113\n      jump\t// in\n    tag_159:\n        /* \"#utility.yul\":3325:3395   */\n      dup4\n      mstore\n      pop\n        /* \"#utility.yul\":3187:3199   */\n      swap2\n      dup5\n      add\n      swap2\n        /* \"#utility.yul\":3415:3427   */\n      swap1\n      dup5\n      add\n      swap1\n        /* \"#utility.yul\":3154:3437   */\n      jump(tag_155)\n    tag_157:\n        /* \"#utility.yul\":3455:3460   */\n      swap9\n        /* \"#utility.yul\":2593:3466   */\n      swap8\n      pop\n      pop\n      pop\n      pop\n      pop\n      pop\n      pop\n      pop\n      jump\t// out\n        /* \"#utility.yul\":3471:4084   */\n    tag_23:\n        /* \"#utility.yul\":3609:3615   */\n      0x00\n        /* \"#utility.yul\":3617:3623   */\n      dup1\n        /* \"#utility.yul\":3670:3672   */\n      0x40\n        /* \"#utility.yul\":3658:3667   */\n      dup4\n        /* \"#utility.yul\":3649:3656   */\n      dup6\n        /* \"#utility.yul\":3645:3668   */\n      sub\n        /* \"#utility.yul\":3641:3673   */\n      slt\n        /* \"#utility.yul\":3638:3690   */\n      iszero\n      tag_161\n      jumpi\n        /* \"#utility.yul\":3686:3687   */\n      0x00\n        /* \"#utility.yul\":3683:3684   */\n      dup1\n        /* \"#utility.yul\":3676:3688   */\n      revert\n        /* \"#utility.yul\":3638:3690   */\n    tag_161:\n        /* \"#utility.yul\":3726:3735   */\n      dup3\n        /* \"#utility.yul\":3713:3736   */\n      calldataload\n        /* \"#utility.yul\":3755:3773   */\n      0xffffffffffffffff\n        /* \"#utility.yul\":3796:3798   */\n      dup1\n        /* \"#utility.yul\":3788:3794   */\n      dup3\n        /* \"#utility.yul\":3785:3799   */\n      gt\n        /* \"#utility.yul\":3782:3816   */\n      iszero\n      tag_162\n      jumpi\n        /* \"#utility.yul\":3812:3813   */\n      0x00\n        /* \"#utility.yul\":3809:3810   */\n      dup1\n        /* \"#utility.yul\":3802:3814   */\n      revert\n        /* \"#utility.yul\":3782:3816   */\n    tag_162:\n        /* \"#utility.yul\":3835:3895   */\n      tag_163\n        /* \"#utility.yul\":3887:3894   */\n      dup7\n        /* \"#utility.yul\":3878:3884   */\n      dup4\n        /* \"#utility.yul\":3867:3876   */\n      dup8\n        /* \"#utility.yul\":3863:3885   */\n      add\n        /* \"#utility.yul\":3835:3895   */\n      tag_116\n      jump\t// in\n    tag_163:\n        /* \"#utility.yul\":3825:3895   */\n      swap4\n      pop\n        /* \"#utility.yul\":3948:3950   */\n      0x20\n        /* \"#utility.yul\":3937:3946   */\n      dup6\n        /* \"#utility.yul\":3933:3951   */\n      add\n        /* \"#utility.yul\":3920:3952   */\n      calldataload\n        /* \"#utility.yul\":3904:3952   */\n      swap2\n      pop\n        /* \"#utility.yul\":3977:3979   */\n      dup1\n        /* \"#utility.yul\":3967:3975   */\n      dup3\n        /* \"#utility.yul\":3964:3980   */\n      gt\n        /* \"#utility.yul\":3961:3997   */\n      iszero\n      tag_164\n      jumpi\n        /* \"#utility.yul\":3993:3994   */\n      0x00\n        /* \"#utility.yul\":3990:3991   */\n      dup1\n        /* \"#utility.yul\":3983:3995   */\n      revert\n        /* \"#utility.yul\":3961:3997   */\n    tag_164:\n      pop\n        /* \"#utility.yul\":4016:4078   */\n      tag_136\n        /* \"#utility.yul\":4070:4077   */\n      dup6\n        /* \"#utility.yul\":4059:4067   */\n      dup3\n        /* \"#utility.yul\":4048:4057   */\n      dup7\n        /* \"#utility.yul\":4044:4068   */\n      add\n        /* \"#utility.yul\":4016:4078   */\n      tag_116\n      jump\t// in\n        /* \"#utility.yul\":4297:5100   */\n    tag_32:\n        /* \"#utility.yul\":4459:4463   */\n      0x00\n        /* \"#utility.yul\":4488:4490   */\n      0x20\n        /* \"#utility.yul\":4528:4530   */\n      dup1\n        /* \"#utility.yul\":4517:4526   */\n      dup4\n        /* \"#utility.yul\":4513:4531   */\n      add\n        /* \"#utility.yul\":4558:4560   */\n      0x20\n        /* \"#utility.yul\":4547:4556   */\n      dup5\n        /* \"#utility.yul\":4540:4561   */\n      mstore\n        /* \"#utility.yul\":4581:4587   */\n      dup1\n        /* \"#utility.yul\":4616:4622   */\n      dup6\n        /* \"#utility.yul\":4610:4623   */\n      mload\n        /* \"#utility.yul\":4647:4653   */\n      dup1\n        /* \"#utility.yul\":4639:4645   */\n      dup4\n        /* \"#utility.yul\":4632:4654   */\n      mstore\n        /* \"#utility.yul\":4685:4687   */\n      0x40\n        /* \"#utility.yul\":4674:4683   */\n      dup7\n        /* \"#utility.yul\":4670:4688   */\n      add\n        /* \"#utility.yul\":4663:4688   */\n      swap2\n      pop\n        /* \"#utility.yul\":4747:4749   */\n      0x40\n        /* \"#utility.yul\":4737:4743   */\n      dup2\n        /* \"#utility.yul\":4734:4735   */\n      0x05\n        /* \"#utility.yul\":4730:4744   */\n      shl\n        /* \"#utility.yul\":4719:4728   */\n      dup8\n        /* \"#utility.yul\":4715:4745   */\n      add\n        /* \"#utility.yul\":4711:4750   */\n      add\n        /* \"#utility.yul\":4697:4750   */\n      swap3\n      pop\n        /* \"#utility.yul\":4785:4787   */\n      0x20\n        /* \"#utility.yul\":4777:4783   */\n      dup8\n        /* \"#utility.yul\":4773:4788   */\n      add\n        /* \"#utility.yul\":4806:4807   */\n      0x00\n        /* \"#utility.yul\":4816:5071   */\n    tag_168:\n        /* \"#utility.yul\":4830:4836   */\n      dup3\n        /* \"#utility.yul\":4827:4828   */\n      dup2\n        /* \"#utility.yul\":4824:4837   */\n      lt\n        /* \"#utility.yul\":4816:5071   */\n      iszero\n      tag_170\n      jumpi\n        /* \"#utility.yul\":4923:4925   */\n      0x3f\n        /* \"#utility.yul\":4919:4926   */\n      not\n        /* \"#utility.yul\":4907:4916   */\n      dup9\n        /* \"#utility.yul\":4899:4905   */\n      dup7\n        /* \"#utility.yul\":4895:4917   */\n      sub\n        /* \"#utility.yul\":4891:4927   */\n      add\n        /* \"#utility.yul\":4886:4889   */\n      dup5\n        /* \"#utility.yul\":4879:4928   */\n      mstore\n        /* \"#utility.yul\":4951:4991   */\n      tag_171\n        /* \"#utility.yul\":4984:4990   */\n      dup6\n        /* \"#utility.yul\":4975:4981   */\n      dup4\n        /* \"#utility.yul\":4969:4982   */\n      mload\n        /* \"#utility.yul\":4951:4991   */\n      tag_115\n      jump\t// in\n    tag_171:\n        /* \"#utility.yul\":4941:4991   */\n      swap5\n      pop\n        /* \"#utility.yul\":5049:5061   */\n      swap3\n      dup6\n      add\n      swap3\n        /* \"#utility.yul\":5014:5029   */\n      swap1\n      dup6\n      add\n      swap1\n        /* \"#utility.yul\":4852:4853   */\n      0x01\n        /* \"#utility.yul\":4845:4854   */\n      add\n        /* \"#utility.yul\":4816:5071   */\n      jump(tag_168)\n    tag_170:\n      pop\n        /* \"#utility.yul\":5088:5094   */\n      swap3\n      swap8\n        /* \"#utility.yul\":4297:5100   */\n      swap7\n      pop\n      pop\n      pop\n      pop\n      pop\n      pop\n      pop\n      jump\t// out\n        /* \"#utility.yul\":5464:5753   */\n    tag_46:\n        /* \"#utility.yul\":5595:5598   */\n      0x00\n        /* \"#utility.yul\":5633:5639   */\n      dup3\n        /* \"#utility.yul\":5627:5640   */\n      mload\n        /* \"#utility.yul\":5649:5715   */\n      tag_174\n        /* \"#utility.yul\":5708:5714   */\n      dup2\n        /* \"#utility.yul\":5703:5706   */\n      dup5\n        /* \"#utility.yul\":5696:5700   */\n      0x20\n        /* \"#utility.yul\":5688:5694   */\n      dup8\n        /* \"#utility.yul\":5684:5701   */\n      add\n        /* \"#utility.yul\":5649:5715   */\n      tag_114\n      jump\t// in\n    tag_174:\n        /* \"#utility.yul\":5731:5747   */\n      swap2\n      swap1\n      swap2\n      add\n      swap3\n        /* \"#utility.yul\":5464:5753   */\n      swap2\n      pop\n      pop\n      jump\t// out\n        /* \"#utility.yul\":5758:6138   */\n    tag_48:\n        /* \"#utility.yul\":5837:5838   */\n      0x01\n        /* \"#utility.yul\":5833:5845   */\n      dup2\n      dup2\n      shr\n      swap1\n        /* \"#utility.yul\":5880:5892   */\n      dup3\n      and\n      dup1\n        /* \"#utility.yul\":5901:5962   */\n      tag_176\n      jumpi\n        /* \"#utility.yul\":5955:5959   */\n      0x7f\n        /* \"#utility.yul\":5947:5953   */\n      dup3\n        /* \"#utility.yul\":5943:5960   */\n      and\n        /* \"#utility.yul\":5933:5960   */\n      swap2\n      pop\n        /* \"#utility.yul\":5901:5962   */\n    tag_176:\n        /* \"#utility.yul\":6008:6010   */\n      0x20\n        /* \"#utility.yul\":6000:6006   */\n      dup3\n        /* \"#utility.yul\":5997:6011   */\n      lt\n        /* \"#utility.yul\":5977:5995   */\n      dup2\n        /* \"#utility.yul\":5974:6012   */\n      sub\n        /* \"#utility.yul\":5971:6132   */\n      tag_89\n      jumpi\n        /* \"#utility.yul\":6054:6064   */\n      0x4e487b71\n        /* \"#utility.yul\":6049:6052   */\n      0xe0\n        /* \"#utility.yul\":6045:6065   */\n      shl\n        /* \"#utility.yul\":6042:6043   */\n      0x00\n        /* \"#utility.yul\":6035:6066   */\n      mstore\n        /* \"#utility.yul\":6089:6093   */\n      0x22\n        /* \"#utility.yul\":6086:6087   */\n      0x04\n        /* \"#utility.yul\":6079:6094   */\n      mstore\n        /* \"#utility.yul\":6117:6121   */\n      0x24\n        /* \"#utility.yul\":6114:6115   */\n      0x00\n        /* \"#utility.yul\":6107:6122   */\n      revert\n        /* \"#utility.yul\":6269:6787   */\n    tag_118:\n        /* \"#utility.yul\":6371:6373   */\n      0x1f\n        /* \"#utility.yul\":6366:6369   */\n      dup3\n        /* \"#utility.yul\":6363:6374   */\n      gt\n        /* \"#utility.yul\":6360:6781   */\n      iszero\n      tag_54\n      jumpi\n        /* \"#utility.yul\":6407:6412   */\n      dup1\n        /* \"#utility.yul\":6404:6405   */\n      0x00\n        /* \"#utility.yul\":6397:6413   */\n      mstore\n        /* \"#utility.yul\":6451:6455   */\n      0x20\n        /* \"#utility.yul\":6448:6449   */\n      0x00\n        /* \"#utility.yul\":6438:6456   */\n      keccak256\n        /* \"#utility.yul\":6521:6523   */\n      0x1f\n        /* \"#utility.yul\":6509:6519   */\n      dup5\n        /* \"#utility.yul\":6505:6524   */\n      add\n        /* \"#utility.yul\":6502:6503   */\n      0x05\n        /* \"#utility.yul\":6498:6525   */\n      shr\n        /* \"#utility.yul\":6492:6496   */\n      dup2\n        /* \"#utility.yul\":6488:6526   */\n      add\n        /* \"#utility.yul\":6557:6561   */\n      0x20\n        /* \"#utility.yul\":6545:6555   */\n      dup6\n        /* \"#utility.yul\":6542:6562   */\n      lt\n        /* \"#utility.yul\":6539:6586   */\n      iszero\n      tag_181\n      jumpi\n      pop\n        /* \"#utility.yul\":6580:6584   */\n      dup1\n        /* \"#utility.yul\":6539:6586   */\n    tag_181:\n        /* \"#utility.yul\":6635:6637   */\n      0x1f\n        /* \"#utility.yul\":6630:6633   */\n      dup5\n        /* \"#utility.yul\":6626:6638   */\n      add\n        /* \"#utility.yul\":6623:6624   */\n      0x05\n        /* \"#utility.yul\":6619:6639   */\n      shr\n        /* \"#utility.yul\":6613:6617   */\n      dup3\n        /* \"#utility.yul\":6609:6640   */\n      add\n        /* \"#utility.yul\":6599:6640   */\n      swap2\n      pop\n        /* \"#utility.yul\":6690:6771   */\n    tag_182:\n        /* \"#utility.yul\":6708:6710   */\n      dup2\n        /* \"#utility.yul\":6701:6706   */\n      dup2\n        /* \"#utility.yul\":6698:6711   */\n      lt\n        /* \"#utility.yul\":6690:6771   */\n      iszero\n      tag_184\n      jumpi\n        /* \"#utility.yul\":6767:6768   */\n      0x00\n        /* \"#utility.yul\":6753:6769   */\n      dup2\n      sstore\n        /* \"#utility.yul\":6734:6735   */\n      0x01\n        /* \"#utility.yul\":6723:6736   */\n      add\n        /* \"#utility.yul\":6690:6771   */\n      jump(tag_182)\n    tag_184:\n        /* \"#utility.yul\":6694:6697   */\n      pop\n      pop\n        /* \"#utility.yul\":6269:6787   */\n      pop\n      pop\n      pop\n      jump\t// out\n        /* \"#utility.yul\":6963:8308   */\n    tag_52:\n        /* \"#utility.yul\":7089:7092   */\n      dup2\n        /* \"#utility.yul\":7083:7093   */\n      mload\n        /* \"#utility.yul\":7116:7134   */\n      0xffffffffffffffff\n        /* \"#utility.yul\":7108:7114   */\n      dup2\n        /* \"#utility.yul\":7105:7135   */\n      gt\n        /* \"#utility.yul\":7102:7158   */\n      iszero\n      tag_188\n      jumpi\n        /* \"#utility.yul\":7138:7156   */\n      tag_188\n      tag_85\n      jump\t// in\n    tag_188:\n        /* \"#utility.yul\":7167:7264   */\n      tag_189\n        /* \"#utility.yul\":7257:7263   */\n      dup2\n        /* \"#utility.yul\":7217:7255   */\n      tag_190\n        /* \"#utility.yul\":7249:7253   */\n      dup5\n        /* \"#utility.yul\":7243:7254   */\n      sload\n        /* \"#utility.yul\":7217:7255   */\n      tag_48\n      jump\t// in\n    tag_190:\n        /* \"#utility.yul\":7211:7215   */\n      dup5\n        /* \"#utility.yul\":7167:7264   */\n      tag_118\n      jump\t// in\n    tag_189:\n        /* \"#utility.yul\":7319:7323   */\n      0x20\n      dup1\n        /* \"#utility.yul\":7376:7378   */\n      0x1f\n        /* \"#utility.yul\":7365:7379   */\n      dup4\n      gt\n        /* \"#utility.yul\":7393:7394   */\n      0x01\n        /* \"#utility.yul\":7388:8051   */\n      dup2\n      eq\n      tag_192\n      jumpi\n        /* \"#utility.yul\":8095:8096   */\n      0x00\n        /* \"#utility.yul\":8112:8118   */\n      dup5\n        /* \"#utility.yul\":8109:8198   */\n      iszero\n      tag_193\n      jumpi\n      pop\n        /* \"#utility.yul\":8164:8183   */\n      dup6\n      dup4\n      add\n        /* \"#utility.yul\":8158:8184   */\n      mload\n        /* \"#utility.yul\":8109:8198   */\n    tag_193:\n      not(0x00)\n        /* \"#utility.yul\":6920:6921   */\n      0x03\n        /* \"#utility.yul\":6916:6927   */\n      dup7\n      swap1\n      shl\n        /* \"#utility.yul\":6912:6936   */\n      shr\n        /* \"#utility.yul\":6908:6937   */\n      not\n        /* \"#utility.yul\":6898:6938   */\n      and\n        /* \"#utility.yul\":6944:6945   */\n      0x01\n        /* \"#utility.yul\":6940:6951   */\n      dup6\n      swap1\n      shl\n        /* \"#utility.yul\":6895:6952   */\n      or\n        /* \"#utility.yul\":8211:8292   */\n      dup6\n      sstore\n        /* \"#utility.yul\":7358:8302   */\n      jump(tag_191)\n        /* \"#utility.yul\":7388:8051   */\n    tag_192:\n        /* \"#utility.yul\":6216:6217   */\n      0x00\n        /* \"#utility.yul\":6209:6223   */\n      dup6\n      dup2\n      mstore\n        /* \"#utility.yul\":6253:6257   */\n      0x20\n        /* \"#utility.yul\":6240:6258   */\n      dup2\n      keccak256\n      not(0x1f)\n        /* \"#utility.yul\":7424:7444   */\n      dup7\n      and\n      swap2\n        /* \"#utility.yul\":7542:7778   */\n    tag_196:\n        /* \"#utility.yul\":7556:7563   */\n      dup3\n        /* \"#utility.yul\":7553:7554   */\n      dup2\n        /* \"#utility.yul\":7550:7564   */\n      lt\n        /* \"#utility.yul\":7542:7778   */\n      iszero\n      tag_198\n      jumpi\n        /* \"#utility.yul\":7645:7664   */\n      dup9\n      dup7\n      add\n        /* \"#utility.yul\":7639:7665   */\n      mload\n        /* \"#utility.yul\":7624:7666   */\n      dup3\n      sstore\n        /* \"#utility.yul\":7737:7764   */\n      swap5\n      dup5\n      add\n      swap5\n        /* \"#utility.yul\":7705:7706   */\n      0x01\n        /* \"#utility.yul\":7693:7707   */\n      swap1\n      swap2\n      add\n      swap1\n        /* \"#utility.yul\":7572:7591   */\n      dup5\n      add\n        /* \"#utility.yul\":7542:7778   */\n      jump(tag_196)\n    tag_198:\n        /* \"#utility.yul\":7546:7549   */\n      pop\n        /* \"#utility.yul\":7806:7812   */\n      dup6\n        /* \"#utility.yul\":7797:7804   */\n      dup3\n        /* \"#utility.yul\":7794:7813   */\n      lt\n        /* \"#utility.yul\":7791:7992   */\n      iszero\n      tag_199\n      jumpi\n        /* \"#utility.yul\":7867:7886   */\n      dup8\n      dup6\n      add\n        /* \"#utility.yul\":7861:7887   */\n      mload\n      not(0x00)\n        /* \"#utility.yul\":7950:7951   */\n      0x03\n        /* \"#utility.yul\":7946:7960   */\n      dup9\n      swap1\n      shl\n        /* \"#utility.yul\":7962:7965   */\n      0xf8\n        /* \"#utility.yul\":7942:7966   */\n      and\n        /* \"#utility.yul\":7938:7975   */\n      shr\n        /* \"#utility.yul\":7934:7976   */\n      not\n        /* \"#utility.yul\":7919:7977   */\n      and\n        /* \"#utility.yul\":7904:7978   */\n      dup2\n      sstore\n        /* \"#utility.yul\":7791:7992   */\n    tag_199:\n      pop\n      pop\n        /* \"#utility.yul\":8038:8039   */\n      0x01\n        /* \"#utility.yul\":8029:8035   */\n      dup5\n        /* \"#utility.yul\":8026:8027   */\n      0x01\n        /* \"#utility.yul\":8022:8036   */\n      shl\n        /* \"#utility.yul\":8018:8040   */\n      add\n        /* \"#utility.yul\":8012:8016   */\n      dup6\n        /* \"#utility.yul\":8005:8041   */\n      sstore\n        /* \"#utility.yul\":7358:8302   */\n    tag_191:\n      pop\n      pop\n      pop\n      pop\n        /* \"#utility.yul\":6963:8308   */\n      pop\n      pop\n      jump\t// out\n        /* \"#utility.yul\":8313:8440   */\n    tag_72:\n        /* \"#utility.yul\":8374:8384   */\n      0x4e487b71\n        /* \"#utility.yul\":8369:8372   */\n      0xe0\n        /* \"#utility.yul\":8365:8385   */\n      shl\n        /* \"#utility.yul\":8362:8363   */\n      0x00\n        /* \"#utility.yul\":8355:8386   */\n      mstore\n        /* \"#utility.yul\":8405:8409   */\n      0x32\n        /* \"#utility.yul\":8402:8403   */\n      0x04\n        /* \"#utility.yul\":8395:8410   */\n      mstore\n        /* \"#utility.yul\":8429:8433   */\n      0x24\n        /* \"#utility.yul\":8426:8427   */\n      0x00\n        /* \"#utility.yul\":8419:8434   */\n      revert\n        /* \"#utility.yul\":8445:9288   */\n    tag_95:\n        /* \"#utility.yul\":8573:8576   */\n      0x00\n        /* \"#utility.yul\":8602:8603   */\n      dup1\n        /* \"#utility.yul\":8635:8641   */\n      dup4\n        /* \"#utility.yul\":8629:8642   */\n      sload\n        /* \"#utility.yul\":8665:8701   */\n      tag_202\n        /* \"#utility.yul\":8691:8700   */\n      dup2\n        /* \"#utility.yul\":8665:8701   */\n      tag_48\n      jump\t// in\n    tag_202:\n        /* \"#utility.yul\":8720:8721   */\n      0x01\n        /* \"#utility.yul\":8737:8754   */\n      dup3\n      dup2\n      and\n        /* \"#utility.yul\":8763:8896   */\n      dup1\n      iszero\n      tag_204\n      jumpi\n        /* \"#utility.yul\":8910:8911   */\n      0x01\n        /* \"#utility.yul\":8905:9263   */\n      dup2\n      eq\n      tag_205\n      jumpi\n        /* \"#utility.yul\":8730:9263   */\n      jump(tag_203)\n        /* \"#utility.yul\":8763:8896   */\n    tag_204:\n      not(0xff)\n        /* \"#utility.yul\":8796:8820   */\n      dup5\n      and\n        /* \"#utility.yul\":8784:8821   */\n      dup8\n      mstore\n        /* \"#utility.yul\":8869:8883   */\n      dup3\n      iszero\n        /* \"#utility.yul\":8862:8884   */\n      iszero\n        /* \"#utility.yul\":8850:8885   */\n      dup4\n      mul\n        /* \"#utility.yul\":8841:8886   */\n      dup8\n      add\n      swap5\n      pop\n        /* \"#utility.yul\":8763:8896   */\n      jump(tag_203)\n        /* \"#utility.yul\":8905:9263   */\n    tag_205:\n        /* \"#utility.yul\":8936:8942   */\n      dup8\n        /* \"#utility.yul\":8933:8934   */\n      0x00\n        /* \"#utility.yul\":8926:8943   */\n      mstore\n        /* \"#utility.yul\":8966:8970   */\n      0x20\n        /* \"#utility.yul\":9011:9015   */\n      dup1\n        /* \"#utility.yul\":9008:9009   */\n      0x00\n        /* \"#utility.yul\":8998:9016   */\n      keccak256\n        /* \"#utility.yul\":9038:9039   */\n      0x00\n        /* \"#utility.yul\":9052:9217   */\n    tag_206:\n        /* \"#utility.yul\":9066:9072   */\n      dup6\n        /* \"#utility.yul\":9063:9064   */\n      dup2\n        /* \"#utility.yul\":9060:9073   */\n      lt\n        /* \"#utility.yul\":9052:9217   */\n      iszero\n      tag_208\n      jumpi\n        /* \"#utility.yul\":9144:9158   */\n      dup2\n      sload\n        /* \"#utility.yul\":9131:9142   */\n      dup11\n      dup3\n      add\n        /* \"#utility.yul\":9124:9159   */\n      mstore\n        /* \"#utility.yul\":9187:9203   */\n      swap1\n      dup5\n      add\n      swap1\n        /* \"#utility.yul\":9081:9091   */\n      dup3\n      add\n        /* \"#utility.yul\":9052:9217   */\n      jump(tag_206)\n    tag_208:\n        /* \"#utility.yul\":9056:9059   */\n      pop\n      pop\n      pop\n        /* \"#utility.yul\":9246:9252   */\n      dup3\n        /* \"#utility.yul\":9241:9244   */\n      dup8\n        /* \"#utility.yul\":9237:9253   */\n      add\n        /* \"#utility.yul\":9230:9253   */\n      swap5\n      pop\n        /* \"#utility.yul\":8730:9263   */\n    tag_203:\n      pop\n        /* \"#utility.yul\":9279:9282   */\n      swap3\n      swap7\n        /* \"#utility.yul\":8445:9288   */\n      swap6\n      pop\n      pop\n      pop\n      pop\n      pop\n      pop\n      jump\t// out\n\n    auxdata: 0xa26469706673582212205b082aece96d2caac20ffe184e8ac9bac49b1f2c53e9a065fcfa6efe1449e8d264736f6c63430008180033\n}\n",
				"bytecode": {
					"linkReferences": {},
					"object": "608060405234801561000f575f80fd5b50604051610c83380380610c8383398101604081905261002e916100d4565b6001600160a01b0382166100885760405162461bcd60e51b815260206004820152601c60248201527f4f776e657220616464726573732063616e6e6f74206265207a65726f00000000604482015260640160405180910390fd5b600280546001600160a01b039384166001600160a01b03199182161790915560038054929093169116179055610105565b80516001600160a01b03811681146100cf575f80fd5b919050565b5f80604083850312156100e5575f80fd5b6100ee836100b9565b91506100fc602084016100b9565b90509250929050565b610b71806101125f395ff3fe608060405234801561000f575f80fd5b506004361061007a575f3560e01c80638da5cb5b116100585780638da5cb5b146100cf578063981f5499146100fa578063ac210cc71461010f578063bc87eed314610122575f80fd5b80632559ddf51461007e5780632e9c247b1461009357806388f8f424146100bc575b5f80fd5b61009161008c36600461070b565b61012a565b005b6100a66100a136600461076b565b610239565b6040516100b391906107f2565b60405180910390f35b6100916100ca3660046108a5565b6102e6565b6002546100e2906001600160a01b031681565b6040516001600160a01b0390911681526020016100b3565b61010261043b565b6040516100b391906108fb565b6003546100e2906001600160a01b031681565b610102610586565b6002546001600160a01b031633148061014d57506003546001600160a01b031633145b61019e5760405162461bcd60e51b815260206004820152601e60248201527f4f6e6c79207468652044414f2063616e2065646974207265676973747279000060448201526064015b60405180910390fd5b5f826040516101ad919061095d565b908152602001604051809103902080546101c690610978565b90505f0361020a576001805480820182555f919091527fb10e2d527612073b26eecdfd717e6a320cf44b4afac2b0732d9fcbe2b7fa0cf60161020883826109f5565b505b805f8360405161021a919061095d565b9081526020016040518091039020908161023491906109f5565b505050565b60605f8260405161024a919061095d565b9081526020016040518091039020805461026390610978565b80601f016020809104026020016040519081016040528092919081815260200182805461028f90610978565b80156102da5780601f106102b1576101008083540402835291602001916102da565b820191905f5260205f20905b8154815290600101906020018083116102bd57829003601f168201915b50505050509050919050565b6002546001600160a01b031633148061030957506003546001600160a01b031633145b6103555760405162461bcd60e51b815260206004820152601e60248201527f4f6e6c79207468652044414f2063616e206564697420726567697374727900006044820152606401610195565b5f5b8251811015610234575f83828151811061037357610373610ab5565b602002602001015190505f83838151811061039057610390610ab5565b602002602001015190505f826040516103a9919061095d565b908152602001604051809103902080546103c290610978565b90505f03610406576001805480820182555f919091527fb10e2d527612073b26eecdfd717e6a320cf44b4afac2b0732d9fcbe2b7fa0cf60161040483826109f5565b505b805f83604051610416919061095d565b9081526020016040518091039020908161043091906109f5565b505050600101610357565b6001546060905f9067ffffffffffffffff81111561045b5761045b61065a565b60405190808252806020026020018201604052801561048e57816020015b60608152602001906001900390816104795790505b5090505f5b600154811015610580575f600182815481106104b1576104b1610ab5565b905f5260205f20016040516104c69190610ac9565b908152602001604051809103902080546104df90610978565b80601f016020809104026020016040519081016040528092919081815260200182805461050b90610978565b80156105565780601f1061052d57610100808354040283529160200191610556565b820191905f5260205f20905b81548152906001019060200180831161053957829003601f168201915b505050505082828151811061056d5761056d610ab5565b6020908102919091010152600101610493565b50919050565b60606001805480602002602001604051908101604052809291908181526020015f905b82821015610651578382905f5260205f200180546105c690610978565b80601f01602080910402602001604051908101604052809291908181526020018280546105f290610978565b801561063d5780601f106106145761010080835404028352916020019161063d565b820191905f5260205f20905b81548152906001019060200180831161062057829003601f168201915b5050505050815260200190600101906105a9565b50505050905090565b634e487b7160e01b5f52604160045260245ffd5b604051601f8201601f1916810167ffffffffffffffff811182821017156106975761069761065a565b604052919050565b5f82601f8301126106ae575f80fd5b813567ffffffffffffffff8111156106c8576106c861065a565b6106db601f8201601f191660200161066e565b8181528460208386010111156106ef575f80fd5b816020850160208301375f918101602001919091529392505050565b5f806040838503121561071c575f80fd5b823567ffffffffffffffff80821115610733575f80fd5b61073f8683870161069f565b93506020850135915080821115610754575f80fd5b506107618582860161069f565b9150509250929050565b5f6020828403121561077b575f80fd5b813567ffffffffffffffff811115610791575f80fd5b61079d8482850161069f565b949350505050565b5f5b838110156107bf5781810151838201526020016107a7565b50505f910152565b5f81518084526107de8160208601602086016107a5565b601f01601f19169290920160200192915050565b602081525f61080460208301846107c7565b9392505050565b5f82601f83011261081a575f80fd5b8135602067ffffffffffffffff808311156108375761083761065a565b8260051b61084683820161066e565b938452858101830193838101908886111561085f575f80fd5b84880192505b858310156108995782358481111561087b575f80fd5b6108898a87838c010161069f565b8352509184019190840190610865565b98975050505050505050565b5f80604083850312156108b6575f80fd5b823567ffffffffffffffff808211156108cd575f80fd5b6108d98683870161080b565b935060208501359150808211156108ee575f80fd5b506107618582860161080b565b5f60208083016020845280855180835260408601915060408160051b8701019250602087015f5b8281101561095057603f1988860301845261093e8583516107c7565b94509285019290850190600101610922565b5092979650505050505050565b5f825161096e8184602087016107a5565b9190910192915050565b600181811c9082168061098c57607f821691505b60208210810361058057634e487b7160e01b5f52602260045260245ffd5b601f82111561023457805f5260205f20601f840160051c810160208510156109cf5750805b601f840160051c820191505b818110156109ee575f81556001016109db565b5050505050565b815167ffffffffffffffff811115610a0f57610a0f61065a565b610a2381610a1d8454610978565b846109aa565b602080601f831160018114610a56575f8415610a3f5750858301515b5f19600386901b1c1916600185901b178555610aad565b5f85815260208120601f198616915b82811015610a8457888601518255948401946001909101908401610a65565b5085821015610aa157878501515f19600388901b60f8161c191681555b505060018460011b0185555b505050505050565b634e487b7160e01b5f52603260045260245ffd5b5f808354610ad681610978565b60018281168015610aee5760018114610b0357610b2f565b60ff1984168752821515830287019450610b2f565b875f526020805f205f5b85811015610b265781548a820152908401908201610b0d565b50505082870194505b5092969550505050505056fea26469706673582212205b082aece96d2caac20ffe184e8ac9bac49b1f2c53e9a065fcfa6efe1449e8d264736f6c63430008180033",
					"opcodes": "PUSH1 0x80 PUSH1 0x40 MSTORE CALLVALUE DUP1 ISZERO PUSH2 0xF JUMPI PUSH0 DUP1 REVERT JUMPDEST POP PUSH1 0x40 MLOAD PUSH2 0xC83 CODESIZE SUB DUP1 PUSH2 0xC83 DUP4 CODECOPY DUP2 ADD PUSH1 0x40 DUP2 SWAP1 MSTORE PUSH2 0x2E SWAP2 PUSH2 0xD4 JUMP JUMPDEST PUSH1 0x1 PUSH1 0x1 PUSH1 0xA0 SHL SUB DUP3 AND PUSH2 0x88 JUMPI PUSH1 0x40 MLOAD PUSH3 0x461BCD PUSH1 0xE5 SHL DUP2 MSTORE PUSH1 0x20 PUSH1 0x4 DUP3 ADD MSTORE PUSH1 0x1C PUSH1 0x24 DUP3 ADD MSTORE PUSH32 0x4F776E657220616464726573732063616E6E6F74206265207A65726F00000000 PUSH1 0x44 DUP3 ADD MSTORE PUSH1 0x64 ADD PUSH1 0x40 MLOAD DUP1 SWAP2 SUB SWAP1 REVERT JUMPDEST PUSH1 0x2 DUP1 SLOAD PUSH1 0x1 PUSH1 0x1 PUSH1 0xA0 SHL SUB SWAP4 DUP5 AND PUSH1 0x1 PUSH1 0x1 PUSH1 0xA0 SHL SUB NOT SWAP2 DUP3 AND OR SWAP1 SWAP2 SSTORE PUSH1 0x3 DUP1 SLOAD SWAP3 SWAP1 SWAP4 AND SWAP2 AND OR SWAP1 SSTORE PUSH2 0x105 JUMP JUMPDEST DUP1 MLOAD PUSH1 0x1 PUSH1 0x1 PUSH1 0xA0 SHL SUB DUP2 AND DUP2 EQ PUSH2 0xCF JUMPI PUSH0 DUP1 REVERT JUMPDEST SWAP2 SWAP1 POP JUMP JUMPDEST PUSH0 DUP1 PUSH1 0x40 DUP4 DUP6 SUB SLT ISZERO PUSH2 0xE5 JUMPI PUSH0 DUP1 REVERT JUMPDEST PUSH2 0xEE DUP4 PUSH2 0xB9 JUMP JUMPDEST SWAP2 POP PUSH2 0xFC PUSH1 0x20 DUP5 ADD PUSH2 0xB9 JUMP JUMPDEST SWAP1 POP SWAP3 POP SWAP3 SWAP1 POP JUMP JUMPDEST PUSH2 0xB71 DUP1 PUSH2 0x112 PUSH0 CODECOPY PUSH0 RETURN INVALID PUSH1 0x80 PUSH1 0x40 MSTORE CALLVALUE DUP1 ISZERO PUSH2 0xF JUMPI PUSH0 DUP1 REVERT JUMPDEST POP PUSH1 0x4 CALLDATASIZE LT PUSH2 0x7A JUMPI PUSH0 CALLDATALOAD PUSH1 0xE0 SHR DUP1 PUSH4 0x8DA5CB5B GT PUSH2 0x58 JUMPI DUP1 PUSH4 0x8DA5CB5B EQ PUSH2 0xCF JUMPI DUP1 PUSH4 0x981F5499 EQ PUSH2 0xFA JUMPI DUP1 PUSH4 0xAC210CC7 EQ PUSH2 0x10F JUMPI DUP1 PUSH4 0xBC87EED3 EQ PUSH2 0x122 JUMPI PUSH0 DUP1 REVERT JUMPDEST DUP1 PUSH4 0x2559DDF5 EQ PUSH2 0x7E JUMPI DUP1 PUSH4 0x2E9C247B EQ PUSH2 0x93 JUMPI DUP1 PUSH4 0x88F8F424 EQ PUSH2 0xBC JUMPI JUMPDEST PUSH0 DUP1 REVERT JUMPDEST PUSH2 0x91 PUSH2 0x8C CALLDATASIZE PUSH1 0x4 PUSH2 0x70B JUMP JUMPDEST PUSH2 0x12A JUMP JUMPDEST STOP JUMPDEST PUSH2 0xA6 PUSH2 0xA1 CALLDATASIZE PUSH1 0x4 PUSH2 0x76B JUMP JUMPDEST PUSH2 0x239 JUMP JUMPDEST PUSH1 0x40 MLOAD PUSH2 0xB3 SWAP2 SWAP1 PUSH2 0x7F2 JUMP JUMPDEST PUSH1 0x40 MLOAD DUP1 SWAP2 SUB SWAP1 RETURN JUMPDEST PUSH2 0x91 PUSH2 0xCA CALLDATASIZE PUSH1 0x4 PUSH2 0x8A5 JUMP JUMPDEST PUSH2 0x2E6 JUMP JUMPDEST PUSH1 0x2 SLOAD PUSH2 0xE2 SWAP1 PUSH1 0x1 PUSH1 0x1 PUSH1 0xA0 SHL SUB AND DUP2 JUMP JUMPDEST PUSH1 0x40 MLOAD PUSH1 0x1 PUSH1 0x1 PUSH1 0xA0 SHL SUB SWAP1 SWAP2 AND DUP2 MSTORE PUSH1 0x20 ADD PUSH2 0xB3 JUMP JUMPDEST PUSH2 0x102 PUSH2 0x43B JUMP JUMPDEST PUSH1 0x40 MLOAD PUSH2 0xB3 SWAP2 SWAP1 PUSH2 0x8FB JUMP JUMPDEST PUSH1 0x3 SLOAD PUSH2 0xE2 SWAP1 PUSH1 0x1 PUSH1 0x1 PUSH1 0xA0 SHL SUB AND DUP2 JUMP JUMPDEST PUSH2 0x102 PUSH2 0x586 JUMP JUMPDEST PUSH1 0x2 SLOAD PUSH1 0x1 PUSH1 0x1 PUSH1 0xA0 SHL SUB AND CALLER EQ DUP1 PUSH2 0x14D JUMPI POP PUSH1 0x3 SLOAD PUSH1 0x1 PUSH1 0x1 PUSH1 0xA0 SHL SUB AND CALLER EQ JUMPDEST PUSH2 0x19E JUMPI PUSH1 0x40 MLOAD PUSH3 0x461BCD PUSH1 0xE5 SHL DUP2 MSTORE PUSH1 0x20 PUSH1 0x4 DUP3 ADD MSTORE PUSH1 0x1E PUSH1 0x24 DUP3 ADD MSTORE PUSH32 0x4F6E6C79207468652044414F2063616E20656469742072656769737472790000 PUSH1 0x44 DUP3 ADD MSTORE PUSH1 0x64 ADD JUMPDEST PUSH1 0x40 MLOAD DUP1 SWAP2 SUB SWAP1 REVERT JUMPDEST PUSH0 DUP3 PUSH1 0x40 MLOAD PUSH2 0x1AD SWAP2 SWAP1 PUSH2 0x95D JUMP JUMPDEST SWAP1 DUP2 MSTORE PUSH1 0x20 ADD PUSH1 0x40 MLOAD DUP1 SWAP2 SUB SWAP1 KECCAK256 DUP1 SLOAD PUSH2 0x1C6 SWAP1 PUSH2 0x978 JUMP JUMPDEST SWAP1 POP PUSH0 SUB PUSH2 0x20A JUMPI PUSH1 0x1 DUP1 SLOAD DUP1 DUP3 ADD DUP3 SSTORE PUSH0 SWAP2 SWAP1 SWAP2 MSTORE PUSH32 0xB10E2D527612073B26EECDFD717E6A320CF44B4AFAC2B0732D9FCBE2B7FA0CF6 ADD PUSH2 0x208 DUP4 DUP3 PUSH2 0x9F5 JUMP JUMPDEST POP JUMPDEST DUP1 PUSH0 DUP4 PUSH1 0x40 MLOAD PUSH2 0x21A SWAP2 SWAP1 PUSH2 0x95D JUMP JUMPDEST SWAP1 DUP2 MSTORE PUSH1 0x20 ADD PUSH1 0x40 MLOAD DUP1 SWAP2 SUB SWAP1 KECCAK256 SWAP1 DUP2 PUSH2 0x234 SWAP2 SWAP1 PUSH2 0x9F5 JUMP JUMPDEST POP POP POP JUMP JUMPDEST PUSH1 0x60 PUSH0 DUP3 PUSH1 0x40 MLOAD PUSH2 0x24A SWAP2 SWAP1 PUSH2 0x95D JUMP JUMPDEST SWAP1 DUP2 MSTORE PUSH1 0x20 ADD PUSH1 0x40 MLOAD DUP1 SWAP2 SUB SWAP1 KECCAK256 DUP1 SLOAD PUSH2 0x263 SWAP1 PUSH2 0x978 JUMP JUMPDEST DUP1 PUSH1 0x1F ADD PUSH1 0x20 DUP1 SWAP2 DIV MUL PUSH1 0x20 ADD PUSH1 0x40 MLOAD SWAP1 DUP2 ADD PUSH1 0x40 MSTORE DUP1 SWAP3 SWAP2 SWAP1 DUP2 DUP2 MSTORE PUSH1 0x20 ADD DUP3 DUP1 SLOAD PUSH2 0x28F SWAP1 PUSH2 0x978 JUMP JUMPDEST DUP1 ISZERO PUSH2 0x2DA JUMPI DUP1 PUSH1 0x1F LT PUSH2 0x2B1 JUMPI PUSH2 0x100 DUP1 DUP4 SLOAD DIV MUL DUP4 MSTORE SWAP2 PUSH1 0x20 ADD SWAP2 PUSH2 0x2DA JUMP JUMPDEST DUP3 ADD SWAP2 SWAP1 PUSH0 MSTORE PUSH1 0x20 PUSH0 KECCAK256 SWAP1 JUMPDEST DUP2 SLOAD DUP2 MSTORE SWAP1 PUSH1 0x1 ADD SWAP1 PUSH1 0x20 ADD DUP1 DUP4 GT PUSH2 0x2BD JUMPI DUP3 SWAP1 SUB PUSH1 0x1F AND DUP3 ADD SWAP2 JUMPDEST POP POP POP POP POP SWAP1 POP SWAP2 SWAP1 POP JUMP JUMPDEST PUSH1 0x2 SLOAD PUSH1 0x1 PUSH1 0x1 PUSH1 0xA0 SHL SUB AND CALLER EQ DUP1 PUSH2 0x309 JUMPI POP PUSH1 0x3 SLOAD PUSH1 0x1 PUSH1 0x1 PUSH1 0xA0 SHL SUB AND CALLER EQ JUMPDEST PUSH2 0x355 JUMPI PUSH1 0x40 MLOAD PUSH3 0x461BCD PUSH1 0xE5 SHL DUP2 MSTORE PUSH1 0x20 PUSH1 0x4 DUP3 ADD MSTORE PUSH1 0x1E PUSH1 0x24 DUP3 ADD MSTORE PUSH32 0x4F6E6C79207468652044414F2063616E20656469742072656769737472790000 PUSH1 0x44 DUP3 ADD MSTORE PUSH1 0x64 ADD PUSH2 0x195 JUMP JUMPDEST PUSH0 JUMPDEST DUP3 MLOAD DUP2 LT ISZERO PUSH2 0x234 JUMPI PUSH0 DUP4 DUP3 DUP2 MLOAD DUP2 LT PUSH2 0x373 JUMPI PUSH2 0x373 PUSH2 0xAB5 JUMP JUMPDEST PUSH1 0x20 MUL PUSH1 0x20 ADD ADD MLOAD SWAP1 POP PUSH0 DUP4 DUP4 DUP2 MLOAD DUP2 LT PUSH2 0x390 JUMPI PUSH2 0x390 PUSH2 0xAB5 JUMP JUMPDEST PUSH1 0x20 MUL PUSH1 0x20 ADD ADD MLOAD SWAP1 POP PUSH0 DUP3 PUSH1 0x40 MLOAD PUSH2 0x3A9 SWAP2 SWAP1 PUSH2 0x95D JUMP JUMPDEST SWAP1 DUP2 MSTORE PUSH1 0x20 ADD PUSH1 0x40 MLOAD DUP1 SWAP2 SUB SWAP1 KECCAK256 DUP1 SLOAD PUSH2 0x3C2 SWAP1 PUSH2 0x978 JUMP JUMPDEST SWAP1 POP PUSH0 SUB PUSH2 0x406 JUMPI PUSH1 0x1 DUP1 SLOAD DUP1 DUP3 ADD DUP3 SSTORE PUSH0 SWAP2 SWAP1 SWAP2 MSTORE PUSH32 0xB10E2D527612073B26EECDFD717E6A320CF44B4AFAC2B0732D9FCBE2B7FA0CF6 ADD PUSH2 0x404 DUP4 DUP3 PUSH2 0x9F5 JUMP JUMPDEST POP JUMPDEST DUP1 PUSH0 DUP4 PUSH1 0x40 MLOAD PUSH2 0x416 SWAP2 SWAP1 PUSH2 0x95D JUMP JUMPDEST SWAP1 DUP2 MSTORE PUSH1 0x20 ADD PUSH1 0x40 MLOAD DUP1 SWAP2 SUB SWAP1 KECCAK256 SWAP1 DUP2 PUSH2 0x430 SWAP2 SWAP1 PUSH2 0x9F5 JUMP JUMPDEST POP POP POP PUSH1 0x1 ADD PUSH2 0x357 JUMP JUMPDEST PUSH1 0x1 SLOAD PUSH1 0x60 SWAP1 PUSH0 SWAP1 PUSH8 0xFFFFFFFFFFFFFFFF DUP2 GT ISZERO PUSH2 0x45B JUMPI PUSH2 0x45B PUSH2 0x65A JUMP JUMPDEST PUSH1 0x40 MLOAD SWAP1 DUP1 DUP3 MSTORE DUP1 PUSH1 0x20 MUL PUSH1 0x20 ADD DUP3 ADD PUSH1 0x40 MSTORE DUP1 ISZERO PUSH2 0x48E JUMPI DUP2 PUSH1 0x20 ADD JUMPDEST PUSH1 0x60 DUP2 MSTORE PUSH1 0x20 ADD SWAP1 PUSH1 0x1 SWAP1 SUB SWAP1 DUP2 PUSH2 0x479 JUMPI SWAP1 POP JUMPDEST POP SWAP1 POP PUSH0 JUMPDEST PUSH1 0x1 SLOAD DUP2 LT ISZERO PUSH2 0x580 JUMPI PUSH0 PUSH1 0x1 DUP3 DUP2 SLOAD DUP2 LT PUSH2 0x4B1 JUMPI PUSH2 0x4B1 PUSH2 0xAB5 JUMP JUMPDEST SWAP1 PUSH0 MSTORE PUSH1 0x20 PUSH0 KECCAK256 ADD PUSH1 0x40 MLOAD PUSH2 0x4C6 SWAP2 SWAP1 PUSH2 0xAC9 JUMP JUMPDEST SWAP1 DUP2 MSTORE PUSH1 0x20 ADD PUSH1 0x40 MLOAD DUP1 SWAP2 SUB SWAP1 KECCAK256 DUP1 SLOAD PUSH2 0x4DF SWAP1 PUSH2 0x978 JUMP JUMPDEST DUP1 PUSH1 0x1F ADD PUSH1 0x20 DUP1 SWAP2 DIV MUL PUSH1 0x20 ADD PUSH1 0x40 MLOAD SWAP1 DUP2 ADD PUSH1 0x40 MSTORE DUP1 SWAP3 SWAP2 SWAP1 DUP2 DUP2 MSTORE PUSH1 0x20 ADD DUP3 DUP1 SLOAD PUSH2 0x50B SWAP1 PUSH2 0x978 JUMP JUMPDEST DUP1 ISZERO PUSH2 0x556 JUMPI DUP1 PUSH1 0x1F LT PUSH2 0x52D JUMPI PUSH2 0x100 DUP1 DUP4 SLOAD DIV MUL DUP4 MSTORE SWAP2 PUSH1 0x20 ADD SWAP2 PUSH2 0x556 JUMP JUMPDEST DUP3 ADD SWAP2 SWAP1 PUSH0 MSTORE PUSH1 0x20 PUSH0 KECCAK256 SWAP1 JUMPDEST DUP2 SLOAD DUP2 MSTORE SWAP1 PUSH1 0x1 ADD SWAP1 PUSH1 0x20 ADD DUP1 DUP4 GT PUSH2 0x539 JUMPI DUP3 SWAP1 SUB PUSH1 0x1F AND DUP3 ADD SWAP2 JUMPDEST POP POP POP POP POP DUP3 DUP3 DUP2 MLOAD DUP2 LT PUSH2 0x56D JUMPI PUSH2 0x56D PUSH2 0xAB5 JUMP JUMPDEST PUSH1 0x20 SWAP1 DUP2 MUL SWAP2 SWAP1 SWAP2 ADD ADD MSTORE PUSH1 0x1 ADD PUSH2 0x493 JUMP JUMPDEST POP SWAP2 SWAP1 POP JUMP JUMPDEST PUSH1 0x60 PUSH1 0x1 DUP1 SLOAD DUP1 PUSH1 0x20 MUL PUSH1 0x20 ADD PUSH1 0x40 MLOAD SWAP1 DUP2 ADD PUSH1 0x40 MSTORE DUP1 SWAP3 SWAP2 SWAP1 DUP2 DUP2 MSTORE PUSH1 0x20 ADD PUSH0 SWAP1 JUMPDEST DUP3 DUP3 LT ISZERO PUSH2 0x651 JUMPI DUP4 DUP3 SWAP1 PUSH0 MSTORE PUSH1 0x20 PUSH0 KECCAK256 ADD DUP1 SLOAD PUSH2 0x5C6 SWAP1 PUSH2 0x978 JUMP JUMPDEST DUP1 PUSH1 0x1F ADD PUSH1 0x20 DUP1 SWAP2 DIV MUL PUSH1 0x20 ADD PUSH1 0x40 MLOAD SWAP1 DUP2 ADD PUSH1 0x40 MSTORE DUP1 SWAP3 SWAP2 SWAP1 DUP2 DUP2 MSTORE PUSH1 0x20 ADD DUP3 DUP1 SLOAD PUSH2 0x5F2 SWAP1 PUSH2 0x978 JUMP JUMPDEST DUP1 ISZERO PUSH2 0x63D JUMPI DUP1 PUSH1 0x1F LT PUSH2 0x614 JUMPI PUSH2 0x100 DUP1 DUP4 SLOAD DIV MUL DUP4 MSTORE SWAP2 PUSH1 0x20 ADD SWAP2 PUSH2 0x63D JUMP JUMPDEST DUP3 ADD SWAP2 SWAP1 PUSH0 MSTORE PUSH1 0x20 PUSH0 KECCAK256 SWAP1 JUMPDEST DUP2 SLOAD DUP2 MSTORE SWAP1 PUSH1 0x1 ADD SWAP1 PUSH1 0x20 ADD DUP1 DUP4 GT PUSH2 0x620 JUMPI DUP3 SWAP1 SUB PUSH1 0x1F AND DUP3 ADD SWAP2 JUMPDEST POP POP POP POP POP DUP2 MSTORE PUSH1 0x20 ADD SWAP1 PUSH1 0x1 ADD SWAP1 PUSH2 0x5A9 JUMP JUMPDEST POP POP POP POP SWAP1 POP SWAP1 JUMP JUMPDEST PUSH4 0x4E487B71 PUSH1 0xE0 SHL PUSH0 MSTORE PUSH1 0x41 PUSH1 0x4 MSTORE PUSH1 0x24 PUSH0 REVERT JUMPDEST PUSH1 0x40 MLOAD PUSH1 0x1F DUP3 ADD PUSH1 0x1F NOT AND DUP2 ADD PUSH8 0xFFFFFFFFFFFFFFFF DUP2 GT DUP3 DUP3 LT OR ISZERO PUSH2 0x697 JUMPI PUSH2 0x697 PUSH2 0x65A JUMP JUMPDEST PUSH1 0x40 MSTORE SWAP2 SWAP1 POP JUMP JUMPDEST PUSH0 DUP3 PUSH1 0x1F DUP4 ADD SLT PUSH2 0x6AE JUMPI PUSH0 DUP1 REVERT JUMPDEST DUP2 CALLDATALOAD PUSH8 0xFFFFFFFFFFFFFFFF DUP2 GT ISZERO PUSH2 0x6C8 JUMPI PUSH2 0x6C8 PUSH2 0x65A JUMP JUMPDEST PUSH2 0x6DB PUSH1 0x1F DUP3 ADD PUSH1 0x1F NOT AND PUSH1 0x20 ADD PUSH2 0x66E JUMP JUMPDEST DUP2 DUP2 MSTORE DUP5 PUSH1 0x20 DUP4 DUP7 ADD ADD GT ISZERO PUSH2 0x6EF JUMPI PUSH0 DUP1 REVERT JUMPDEST DUP2 PUSH1 0x20 DUP6 ADD PUSH1 0x20 DUP4 ADD CALLDATACOPY PUSH0 SWAP2 DUP2 ADD PUSH1 0x20 ADD SWAP2 SWAP1 SWAP2 MSTORE SWAP4 SWAP3 POP POP POP JUMP JUMPDEST PUSH0 DUP1 PUSH1 0x40 DUP4 DUP6 SUB SLT ISZERO PUSH2 0x71C JUMPI PUSH0 DUP1 REVERT JUMPDEST DUP3 CALLDATALOAD PUSH8 0xFFFFFFFFFFFFFFFF DUP1 DUP3 GT ISZERO PUSH2 0x733 JUMPI PUSH0 DUP1 REVERT JUMPDEST PUSH2 0x73F DUP7 DUP4 DUP8 ADD PUSH2 0x69F JUMP JUMPDEST SWAP4 POP PUSH1 0x20 DUP6 ADD CALLDATALOAD SWAP2 POP DUP1 DUP3 GT ISZERO PUSH2 0x754 JUMPI PUSH0 DUP1 REVERT JUMPDEST POP PUSH2 0x761 DUP6 DUP3 DUP7 ADD PUSH2 0x69F JUMP JUMPDEST SWAP2 POP POP SWAP3 POP SWAP3 SWAP1 POP JUMP JUMPDEST PUSH0 PUSH1 0x20 DUP3 DUP5 SUB SLT ISZERO PUSH2 0x77B JUMPI PUSH0 DUP1 REVERT JUMPDEST DUP2 CALLDATALOAD PUSH8 0xFFFFFFFFFFFFFFFF DUP2 GT ISZERO PUSH2 0x791 JUMPI PUSH0 DUP1 REVERT JUMPDEST PUSH2 0x79D DUP5 DUP3 DUP6 ADD PUSH2 0x69F JUMP JUMPDEST SWAP5 SWAP4 POP POP POP POP JUMP JUMPDEST PUSH0 JUMPDEST DUP4 DUP2 LT ISZERO PUSH2 0x7BF JUMPI DUP2 DUP2 ADD MLOAD DUP4 DUP3 ADD MSTORE PUSH1 0x20 ADD PUSH2 0x7A7 JUMP JUMPDEST POP POP PUSH0 SWAP2 ADD MSTORE JUMP JUMPDEST PUSH0 DUP2 MLOAD DUP1 DUP5 MSTORE PUSH2 0x7DE DUP2 PUSH1 0x20 DUP7 ADD PUSH1 0x20 DUP7 ADD PUSH2 0x7A5 JUMP JUMPDEST PUSH1 0x1F ADD PUSH1 0x1F NOT AND SWAP3 SWAP1 SWAP3 ADD PUSH1 0x20 ADD SWAP3 SWAP2 POP POP JUMP JUMPDEST PUSH1 0x20 DUP2 MSTORE PUSH0 PUSH2 0x804 PUSH1 0x20 DUP4 ADD DUP5 PUSH2 0x7C7 JUMP JUMPDEST SWAP4 SWAP3 POP POP POP JUMP JUMPDEST PUSH0 DUP3 PUSH1 0x1F DUP4 ADD SLT PUSH2 0x81A JUMPI PUSH0 DUP1 REVERT JUMPDEST DUP2 CALLDATALOAD PUSH1 0x20 PUSH8 0xFFFFFFFFFFFFFFFF DUP1 DUP4 GT ISZERO PUSH2 0x837 JUMPI PUSH2 0x837 PUSH2 0x65A JUMP JUMPDEST DUP3 PUSH1 0x5 SHL PUSH2 0x846 DUP4 DUP3 ADD PUSH2 0x66E JUMP JUMPDEST SWAP4 DUP5 MSTORE DUP6 DUP2 ADD DUP4 ADD SWAP4 DUP4 DUP2 ADD SWAP1 DUP9 DUP7 GT ISZERO PUSH2 0x85F JUMPI PUSH0 DUP1 REVERT JUMPDEST DUP5 DUP9 ADD SWAP3 POP JUMPDEST DUP6 DUP4 LT ISZERO PUSH2 0x899 JUMPI DUP3 CALLDATALOAD DUP5 DUP2 GT ISZERO PUSH2 0x87B JUMPI PUSH0 DUP1 REVERT JUMPDEST PUSH2 0x889 DUP11 DUP8 DUP4 DUP13 ADD ADD PUSH2 0x69F JUMP JUMPDEST DUP4 MSTORE POP SWAP2 DUP5 ADD SWAP2 SWAP1 DUP5 ADD SWAP1 PUSH2 0x865 JUMP JUMPDEST SWAP9 SWAP8 POP POP POP POP POP POP POP POP JUMP JUMPDEST PUSH0 DUP1 PUSH1 0x40 DUP4 DUP6 SUB SLT ISZERO PUSH2 0x8B6 JUMPI PUSH0 DUP1 REVERT JUMPDEST DUP3 CALLDATALOAD PUSH8 0xFFFFFFFFFFFFFFFF DUP1 DUP3 GT ISZERO PUSH2 0x8CD JUMPI PUSH0 DUP1 REVERT JUMPDEST PUSH2 0x8D9 DUP7 DUP4 DUP8 ADD PUSH2 0x80B JUMP JUMPDEST SWAP4 POP PUSH1 0x20 DUP6 ADD CALLDATALOAD SWAP2 POP DUP1 DUP3 GT ISZERO PUSH2 0x8EE JUMPI PUSH0 DUP1 REVERT JUMPDEST POP PUSH2 0x761 DUP6 DUP3 DUP7 ADD PUSH2 0x80B JUMP JUMPDEST PUSH0 PUSH1 0x20 DUP1 DUP4 ADD PUSH1 0x20 DUP5 MSTORE DUP1 DUP6 MLOAD DUP1 DUP4 MSTORE PUSH1 0x40 DUP7 ADD SWAP2 POP PUSH1 0x40 DUP2 PUSH1 0x5 SHL DUP8 ADD ADD SWAP3 POP PUSH1 0x20 DUP8 ADD PUSH0 JUMPDEST DUP3 DUP2 LT ISZERO PUSH2 0x950 JUMPI PUSH1 0x3F NOT DUP9 DUP7 SUB ADD DUP5 MSTORE PUSH2 0x93E DUP6 DUP4 MLOAD PUSH2 0x7C7 JUMP JUMPDEST SWAP5 POP SWAP3 DUP6 ADD SWAP3 SWAP1 DUP6 ADD SWAP1 PUSH1 0x1 ADD PUSH2 0x922 JUMP JUMPDEST POP SWAP3 SWAP8 SWAP7 POP POP POP POP POP POP POP JUMP JUMPDEST PUSH0 DUP3 MLOAD PUSH2 0x96E DUP2 DUP5 PUSH1 0x20 DUP8 ADD PUSH2 0x7A5 JUMP JUMPDEST SWAP2 SWAP1 SWAP2 ADD SWAP3 SWAP2 POP POP JUMP JUMPDEST PUSH1 0x1 DUP2 DUP2 SHR SWAP1 DUP3 AND DUP1 PUSH2 0x98C JUMPI PUSH1 0x7F DUP3 AND SWAP2 POP JUMPDEST PUSH1 0x20 DUP3 LT DUP2 SUB PUSH2 0x580 JUMPI PUSH4 0x4E487B71 PUSH1 0xE0 SHL PUSH0 MSTORE PUSH1 0x22 PUSH1 0x4 MSTORE PUSH1 0x24 PUSH0 REVERT JUMPDEST PUSH1 0x1F DUP3 GT ISZERO PUSH2 0x234 JUMPI DUP1 PUSH0 MSTORE PUSH1 0x20 PUSH0 KECCAK256 PUSH1 0x1F DUP5 ADD PUSH1 0x5 SHR DUP2 ADD PUSH1 0x20 DUP6 LT ISZERO PUSH2 0x9CF JUMPI POP DUP1 JUMPDEST PUSH1 0x1F DUP5 ADD PUSH1 0x5 SHR DUP3 ADD SWAP2 POP JUMPDEST DUP2 DUP2 LT ISZERO PUSH2 0x9EE JUMPI PUSH0 DUP2 SSTORE PUSH1 0x1 ADD PUSH2 0x9DB JUMP JUMPDEST POP POP POP POP POP JUMP JUMPDEST DUP2 MLOAD PUSH8 0xFFFFFFFFFFFFFFFF DUP2 GT ISZERO PUSH2 0xA0F JUMPI PUSH2 0xA0F PUSH2 0x65A JUMP JUMPDEST PUSH2 0xA23 DUP2 PUSH2 0xA1D DUP5 SLOAD PUSH2 0x978 JUMP JUMPDEST DUP5 PUSH2 0x9AA JUMP JUMPDEST PUSH1 0x20 DUP1 PUSH1 0x1F DUP4 GT PUSH1 0x1 DUP2 EQ PUSH2 0xA56 JUMPI PUSH0 DUP5 ISZERO PUSH2 0xA3F JUMPI POP DUP6 DUP4 ADD MLOAD JUMPDEST PUSH0 NOT PUSH1 0x3 DUP7 SWAP1 SHL SHR NOT AND PUSH1 0x1 DUP6 SWAP1 SHL OR DUP6 SSTORE PUSH2 0xAAD JUMP JUMPDEST PUSH0 DUP6 DUP2 MSTORE PUSH1 0x20 DUP2 KECCAK256 PUSH1 0x1F NOT DUP7 AND SWAP2 JUMPDEST DUP3 DUP2 LT ISZERO PUSH2 0xA84 JUMPI DUP9 DUP7 ADD MLOAD DUP3 SSTORE SWAP5 DUP5 ADD SWAP5 PUSH1 0x1 SWAP1 SWAP2 ADD SWAP1 DUP5 ADD PUSH2 0xA65 JUMP JUMPDEST POP DUP6 DUP3 LT ISZERO PUSH2 0xAA1 JUMPI DUP8 DUP6 ADD MLOAD PUSH0 NOT PUSH1 0x3 DUP9 SWAP1 SHL PUSH1 0xF8 AND SHR NOT AND DUP2 SSTORE JUMPDEST POP POP PUSH1 0x1 DUP5 PUSH1 0x1 SHL ADD DUP6 SSTORE JUMPDEST POP POP POP POP POP POP JUMP JUMPDEST PUSH4 0x4E487B71 PUSH1 0xE0 SHL PUSH0 MSTORE PUSH1 0x32 PUSH1 0x4 MSTORE PUSH1 0x24 PUSH0 REVERT JUMPDEST PUSH0 DUP1 DUP4 SLOAD PUSH2 0xAD6 DUP2 PUSH2 0x978 JUMP JUMPDEST PUSH1 0x1 DUP3 DUP2 AND DUP1 ISZERO PUSH2 0xAEE JUMPI PUSH1 0x1 DUP2 EQ PUSH2 0xB03 JUMPI PUSH2 0xB2F JUMP JUMPDEST PUSH1 0xFF NOT DUP5 AND DUP8 MSTORE DUP3 ISZERO ISZERO DUP4 MUL DUP8 ADD SWAP5 POP PUSH2 0xB2F JUMP JUMPDEST DUP8 PUSH0 MSTORE PUSH1 0x20 DUP1 PUSH0 KECCAK256 PUSH0 JUMPDEST DUP6 DUP2 LT ISZERO PUSH2 0xB26 JUMPI DUP2 SLOAD DUP11 DUP3 ADD MSTORE SWAP1 DUP5 ADD SWAP1 DUP3 ADD PUSH2 0xB0D JUMP JUMPDEST POP POP POP DUP3 DUP8 ADD SWAP5 POP JUMPDEST POP SWAP3 SWAP7 SWAP6 POP POP POP POP POP POP JUMP INVALID LOG2 PUSH5 0x6970667358 0x22 SLT KECCAK256 JUMPDEST ADDMOD 0x2A 0xEC 0xE9 PUSH14 0x2CAAC20FFE184E8AC9BAC49B1F2C MSTORE8 0xE9 LOG0 PUSH6 0xFCFA6EFE1449 0xE8 0xD2 PUSH5 0x736F6C6343 STOP ADDMOD XOR STOP CALLER "
				},
				"gasEstimates": {
					"creation": {
						"codeDepositCost": "585800",
						"executionCost": "infinite",
						"totalCost": "infinite"
					},
					"external": {
						"batchEditRegistry(string[],string[])": "infinite",
						"editRegistry(string,string)": "infinite",
						"getAllKeys()": "infinite",
						"getAllValues()": "infinite",
						"getRegistryValue(string)": "infinite",
						"owner()": "2336",
						"wrapper()": "2380"
					}
				},
				"methodIdentifiers": {
					"batchEditRegistry(string[],string[])": "88f8f424",
					"editRegistry(string,string)": "2559ddf5",
					"getAllKeys()": "bc87eed3",
					"getAllValues()": "981f5499",
					"getRegistryValue(string)": "2e9c247b",
					"owner()": "8da5cb5b",
					"wrapper()": "ac210cc7"
				}
			},
			"storageLayout": {
				"storage": [
					{
						"astId": 5,
						"contract": "contracts/Registry.sol:Registry",
						"label": "reg",
						"offset": 0,
						"slot": "0",
						"type": "t_mapping(t_string_memory_ptr,t_string_storage)"
					},
					{
						"astId": 8,
						"contract": "contracts/Registry.sol:Registry",
						"label": "keys",
						"offset": 0,
						"slot": "1",
						"type": "t_array(t_string_storage)dyn_storage"
					},
					{
						"astId": 10,
						"contract": "contracts/Registry.sol:Registry",
						"label": "owner",
						"offset": 0,
						"slot": "2",
						"type": "t_address"
					},
					{
						"astId": 12,
						"contract": "contracts/Registry.sol:Registry",
						"label": "wrapper",
						"offset": 0,
						"slot": "3",
						"type": "t_address"
					}
				],
				"types": {
					"t_address": {
						"encoding": "inplace",
						"label": "address",
						"numberOfBytes": "20"
					},
					"t_array(t_string_storage)dyn_storage": {
						"base": "t_string_storage",
						"encoding": "dynamic_array",
						"label": "string[]",
						"numberOfBytes": "32"
					},
					"t_mapping(t_string_memory_ptr,t_string_storage)": {
						"encoding": "mapping",
						"key": "t_string_memory_ptr",
						"label": "mapping(string => string)",
						"numberOfBytes": "32",
						"value": "t_string_storage"
					},
					"t_string_memory_ptr": {
						"encoding": "bytes",
						"label": "string",
						"numberOfBytes": "32"
					},
					"t_string_storage": {
						"encoding": "bytes",
						"label": "string",
						"numberOfBytes": "32"
					}
				}
			},
			"userdoc": {
				"kind": "user",
				"methods": {},
				"version": 1
			}
		}
	}
}