{
	"data": {
		"bytecode": {
			"linkReferences": {},
			"object": "610180604052348015610010575f80fd5b5060405161819f38038061819f83398181016040528101906100329190610c83565b806004836078610e1060016040518060400160405280600a81526020017f4d79476f7665726e6f7200000000000000000000000000000000000000000000815250806100826101c960201b60201c565b6100955f8361020660201b90919060201c565b61012081815250506100b160018261020660201b90919060201c565b6101408181525050818051906020012060e08181525050808051906020012061010081815250504660a081815250506100ee61025360201b60201c565b608081815250503073ffffffffffffffffffffffffffffffffffffffff1660c08173ffffffffffffffffffffffffffffffffffffffff16815250505050806003908161013a9190610efb565b505061014b836102ad60201b60201c565b61015a8261032060201b60201c565b610169816103d960201b60201c565b5050508073ffffffffffffffffffffffffffffffffffffffff166101608173ffffffffffffffffffffffffffffffffffffffff1681525050506101b18161041e60201b60201c565b506101c1816104f860201b60201c565b505050611459565b60606040518060400160405280600181526020017f3100000000000000000000000000000000000000000000000000000000000000815250905090565b5f602083511015610227576102208361059560201b60201c565b905061024d565b82610237836105fa60201b60201c565b5f0190816102459190610efb565b5060ff5f1b90505b92915050565b5f7f8b73c3c69bb8fe3d512ecc4cf759cc79239f7b179b0ffacaa9a75d522b39400f60e051610100514630604051602001610292959493929190611000565b60405160208183030381529060405280519060200120905090565b7fc565b045403dc03c2eea82b81a0465edad9e2e7fc4d97e11421c209da93d7a9360085f9054906101000a900465ffffffffffff16826040516102f1929190611092565b60405180910390a18060085f6101000a81548165ffffffffffff021916908365ffffffffffff16021790555050565b5f8163ffffffff160361036a575f6040517ff1cfbf0500000000000000000000000000000000000000000000000000000000815260040161036191906110f2565b60405180910390fd5b7f7e3f7f0708a84de9203036abaa450dccc85ad5ff52f78c170f3edb55cf5e8828600860069054906101000a900463ffffffff16826040516103ad92919061114a565b60405180910390a180600860066101000a81548163ffffffff021916908363ffffffff16021790555050565b7fccb45da8d5717e6c4544694297c4ba5cf151d455c9bb0ed4fc7a38411bc054616007548260405161040c929190611171565b60405180910390a18060078190555050565b5f61042d61060360201b60201c565b9050808211156104765781816040517f243e544500000000000000000000000000000000000000000000000000000000815260040161046d929190611171565b60405180910390fd5b5f61048561060b60201b60201c565b90506104b861049861063d60201b60201c565b6104a7856106d460201b60201c565b600a61074160201b9092919060201c565b50507f0553476bf02ef2726e8ce5ced78d63e26e602e4a2257b1f559418e24b463399781846040516104eb929190611171565b60405180910390a1505050565b7f08f74ea46ef7894f65eabfb5e6e695de773a000b47c529ab559178069b226401600b5f9054906101000a900473ffffffffffffffffffffffffffffffffffffffff168260405161054a929190611198565b60405180910390a180600b5f6101000a81548173ffffffffffffffffffffffffffffffffffffffff021916908373ffffffffffffffffffffffffffffffffffffffff16021790555050565b5f80829050601f815111156105e157826040517f305a27a90000000000000000000000000000000000000000000000000000000081526004016105d89190611225565b60405180910390fd5b8051816105ed90611272565b5f1c175f1b915050919050565b5f819050919050565b5f6064905090565b5f61061c600a61076260201b60201c565b79ffffffffffffffffffffffffffffffffffffffffffffffffffff16905090565b5f61064c6107ca60201b60201c565b73ffffffffffffffffffffffffffffffffffffffff166391ddadf46040518163ffffffff1660e01b8152600401602060405180830381865afa9250505080156106b357506040513d601f19601f820116820180604052508101906106b09190611302565b60015b6106cc576106c56107d460201b60201c565b90506106d1565b809150505b90565b5f79ffffffffffffffffffffffffffffffffffffffffffffffffffff80168211156107395760d0826040517f6dfcc650000000000000000000000000000000000000000000000000000000008152600401610730929190611372565b60405180910390fd5b819050919050565b5f80610756855f0185856107e960201b60201c565b91509150935093915050565b5f80825f018054905090505f81146107c057610792835f0160018361078791906113c6565b610b5d60201b60201c565b5f0160069054906101000a900479ffffffffffffffffffffffffffffffffffffffffffffffffffff166107c2565b5f5b915050919050565b5f61016051905090565b5f6107e443610b6f60201b60201c565b905090565b5f805f858054905090505f811115610a75575f6108188760018461080d91906113c6565b610b5d60201b60201c565b6040518060400160405290815f82015f9054906101000a900465ffffffffffff1665ffffffffffff1665ffffffffffff1681526020015f820160069054906101000a900479ffffffffffffffffffffffffffffffffffffffffffffffffffff1679ffffffffffffffffffffffffffffffffffffffffffffffffffff1679ffffffffffffffffffffffffffffffffffffffffffffffffffff168152505090508565ffffffffffff16815f015165ffffffffffff161115610903576040517f2520601d00000000000000000000000000000000000000000000000000000000815260040160405180910390fd5b8565ffffffffffff16815f015165ffffffffffff160361098b578461093a8860018561092f91906113c6565b610b5d60201b60201c565b5f0160066101000a81548179ffffffffffffffffffffffffffffffffffffffffffffffffffff021916908379ffffffffffffffffffffffffffffffffffffffffffffffffffff160217905550610a64565b8660405180604001604052808865ffffffffffff1681526020018779ffffffffffffffffffffffffffffffffffffffffffffffffffff16815250908060018154018082558091505060019003905f5260205f20015f909190919091505f820151815f015f6101000a81548165ffffffffffff021916908365ffffffffffff1602179055506020820151815f0160066101000a81548179ffffffffffffffffffffffffffffffffffffffffffffffffffff021916908379ffffffffffffffffffffffffffffffffffffffffffffffffffff16021790555050505b806020015185935093505050610b55565b8560405180604001604052808765ffffffffffff1681526020018679ffffffffffffffffffffffffffffffffffffffffffffffffffff16815250908060018154018082558091505060019003905f5260205f20015f909190919091505f820151815f015f6101000a81548165ffffffffffff021916908365ffffffffffff1602179055506020820151815f0160066101000a81548179ffffffffffffffffffffffffffffffffffffffffffffffffffff021916908379ffffffffffffffffffffffffffffffffffffffffffffffffffff16021790555050505f8492509250505b935093915050565b5f825f528160205f2001905092915050565b5f65ffffffffffff8016821115610bc0576030826040517f6dfcc650000000000000000000000000000000000000000000000000000000008152600401610bb7929190611432565b60405180910390fd5b819050919050565b5f80fd5b5f73ffffffffffffffffffffffffffffffffffffffff82169050919050565b5f610bf582610bcc565b9050919050565b5f610c0682610beb565b9050919050565b610c1681610bfc565b8114610c20575f80fd5b50565b5f81519050610c3181610c0d565b92915050565b5f610c4182610bcc565b9050919050565b5f610c5282610c37565b9050919050565b610c6281610c48565b8114610c6c575f80fd5b50565b5f81519050610c7d81610c59565b92915050565b5f8060408385031215610c9957610c98610bc8565b5b5f610ca685828601610c23565b9250506020610cb785828601610c6f565b9150509250929050565b5f81519050919050565b7f4e487b71000000000000000000000000000000000000000000000000000000005f52604160045260245ffd5b7f4e487b71000000000000000000000000000000000000000000000000000000005f52602260045260245ffd5b5f6002820490506001821680610d3c57607f821691505b602082108103610d4f57610d4e610cf8565b5b50919050565b5f819050815f5260205f209050919050565b5f6020601f8301049050919050565b5f82821b905092915050565b5f60088302610db17fffffffffffffffffffffffffffffffffffffffffffffffffffffffffffffffff82610d76565b610dbb8683610d76565b95508019841693508086168417925050509392505050565b5f819050919050565b5f819050919050565b5f610dff610dfa610df584610dd3565b610ddc565b610dd3565b9050919050565b5f819050919050565b610e1883610de5565b610e2c610e2482610e06565b848454610d82565b825550505050565b5f90565b610e40610e34565b610e4b818484610e0f565b505050565b5b81811015610e6e57610e635f82610e38565b600181019050610e51565b5050565b601f821115610eb357610e8481610d55565b610e8d84610d67565b81016020851015610e9c578190505b610eb0610ea885610d67565b830182610e50565b50505b505050565b5f82821c905092915050565b5f610ed35f1984600802610eb8565b1980831691505092915050565b5f610eeb8383610ec4565b9150826002028217905092915050565b610f0482610cc1565b67ffffffffffffffff811115610f1d57610f1c610ccb565b5b610f278254610d25565b610f32828285610e72565b5f60209050601f831160018114610f63575f8415610f51578287015190505b610f5b8582610ee0565b865550610fc2565b601f198416610f7186610d55565b5f5b82811015610f9857848901518255600182019150602085019450602081019050610f73565b86831015610fb55784890151610fb1601f891682610ec4565b8355505b6001600288020188555050505b505050505050565b5f819050919050565b610fdc81610fca565b82525050565b610feb81610dd3565b82525050565b610ffa81610beb565b82525050565b5f60a0820190506110135f830188610fd3565b6110206020830187610fd3565b61102d6040830186610fd3565b61103a6060830185610fe2565b6110476080830184610ff1565b9695505050505050565b5f65ffffffffffff82169050919050565b5f61107c61107761107284611051565b610ddc565b610dd3565b9050919050565b61108c81611062565b82525050565b5f6040820190506110a55f830185611083565b6110b26020830184611083565b9392505050565b5f819050919050565b5f6110dc6110d76110d2846110b9565b610ddc565b610dd3565b9050919050565b6110ec816110c2565b82525050565b5f6020820190506111055f8301846110e3565b92915050565b5f63ffffffff82169050919050565b5f61113461112f61112a8461110b565b610ddc565b610dd3565b9050919050565b6111448161111a565b82525050565b5f60408201905061115d5f83018561113b565b61116a602083018461113b565b9392505050565b5f6040820190506111845f830185610fe2565b6111916020830184610fe2565b9392505050565b5f6040820190506111ab5f830185610ff1565b6111b86020830184610ff1565b9392505050565b5f82825260208201905092915050565b8281835e5f83830152505050565b5f601f19601f8301169050919050565b5f6111f782610cc1565b61120181856111bf565b93506112118185602086016111cf565b61121a816111dd565b840191505092915050565b5f6020820190508181035f83015261123d81846111ed565b905092915050565b5f81519050919050565b5f819050602082019050919050565b5f6112698251610fca565b80915050919050565b5f61127c82611245565b826112868461124f565b90506112918161125e565b925060208210156112d1576112cc7fffffffffffffffffffffffffffffffffffffffffffffffffffffffffffffffff83602003600802610d76565b831692505b5050919050565b6112e181611051565b81146112eb575f80fd5b50565b5f815190506112fc816112d8565b92915050565b5f6020828403121561131757611316610bc8565b5b5f611324848285016112ee565b91505092915050565b5f819050919050565b5f60ff82169050919050565b5f61135c6113576113528461132d565b610ddc565b611336565b9050919050565b61136c81611342565b82525050565b5f6040820190506113855f830185611363565b6113926020830184610fe2565b9392505050565b7f4e487b71000000000000000000000000000000000000000000000000000000005f52601160045260245ffd5b5f6113d082610dd3565b91506113db83610dd3565b92508282039050818111156113f3576113f2611399565b5b92915050565b5f819050919050565b5f61141c611417611412846113f9565b610ddc565b611336565b9050919050565b61142c81611402565b82525050565b5f6040820190506114455f830185611423565b6114526020830184610fe2565b9392505050565b60805160a05160c05160e05161010051610120516101405161016051616ceb6114b45f395f611edc01525f612df701525f612dbc01525f61455601525f61453501525f61388d01525f6138e301525f61390c0152616ceb5ff3fe608060405260043610610296575f3560e01c80637ecebe0011610159578063c01f9e37116100c0578063e540d01d11610079578063e540d01d14610b89578063eb9019d414610bb1578063ece40cc114610bed578063f23a6e6114610c15578063f8ce560a14610c51578063fc0c546a14610c8d57610309565b8063c01f9e3714610a77578063c28bc2fa14610ab3578063c59057e414610acf578063d33219b414610b0b578063dd4e2ba514610b35578063deaaa7cc14610b5f57610309565b8063a7713a7011610112578063a7713a7014610947578063a890c91014610971578063a9a9529414610999578063ab58fb8e146109d5578063b58131b014610a11578063bc197c8114610a3b57610309565b80637ecebe001461080f57806384b0196e1461084b5780638ff262e31461087b57806391ddadf4146108b757806397c3d334146108e15780639a802a6d1461090b57610309565b806343859632116101fd5780635b8d0e0d116101b65780635b8d0e0d146106bb5780635f398a14146106f757806360c4247f14610733578063790518871461076f5780637b3c71d3146107975780637d5e81e2146107d357610309565b80634385963214610575578063452115d6146105b15780634bf5d7e9146105ed578063544ffc9c1461061757806354fd4d5014610655578063567813881461067f57610309565b8063160cbed71161024f578063160cbed71461043d5780632656227d146104795780632d63f693146104a95780632fe3e261146104e55780633932abb11461050f5780633e4f49e61461053957610309565b806301ffc9a71461030d57806302a251a31461034957806306f3f9e61461037357806306fdde031461039b578063143489d0146103c5578063150b7a021461040157610309565b36610309573073ffffffffffffffffffffffffffffffffffffffff166102ba610cb7565b73ffffffffffffffffffffffffffffffffffffffff1614610307576040517fe90a651e00000000000000000000000000000000000000000000000000000000815260040160405180910390fd5b005b5f80fd5b348015610318575f80fd5b50610333600480360381019061032e91906148c7565b610cc5565b604051610340919061490c565b60405180910390f35b348015610354575f80fd5b5061035d610da6565b60405161036a919061493d565b60405180910390f35b34801561037e575f80fd5b5061039960048036038101906103949190614980565b610db4565b005b3480156103a6575f80fd5b506103af610dc8565b6040516103bc9190614a1b565b60405180910390f35b3480156103d0575f80fd5b506103eb60048036038101906103e69190614980565b610e58565b6040516103f89190614a7a565b60405180910390f35b34801561040c575f80fd5b5061042760048036038101906104229190614be9565b610e93565b6040516104349190614c78565b60405180910390f35b348015610448575f80fd5b50610463600480360381019061045e9190614f26565b610f12565b604051610470919061493d565b60405180910390f35b610493600480360381019061048e9190614f26565b611008565b6040516104a0919061493d565b60405180910390f35b3480156104b4575f80fd5b506104cf60048036038101906104ca9190614980565b6111e2565b6040516104dc919061493d565b60405180910390f35b3480156104f0575f80fd5b506104f9611218565b6040516105069190614fed565b60405180910390f35b34801561051a575f80fd5b5061052361123c565b604051610530919061493d565b60405180910390f35b348015610544575f80fd5b5061055f600480360381019061055a9190614980565b61124a565b60405161056c9190615079565b60405180910390f35b348015610580575f80fd5b5061059b60048036038101906105969190615092565b61125b565b6040516105a8919061490c565b60405180910390f35b3480156105bc575f80fd5b506105d760048036038101906105d29190614f26565b6112c0565b6040516105e4919061493d565b60405180910390f35b3480156105f8575f80fd5b50610601611380565b60405161060e9190614a1b565b60405180910390f35b348015610622575f80fd5b5061063d60048036038101906106389190614980565b61143d565b60405161064c939291906150d0565b60405180910390f35b348015610660575f80fd5b50610669611470565b6040516106769190614a1b565b60405180910390f35b34801561068a575f80fd5b506106a560048036038101906106a0919061513b565b6114ad565b6040516106b2919061493d565b60405180910390f35b3480156106c6575f80fd5b506106e160048036038101906106dc91906151d2565b6114dc565b6040516106ee919061493d565b60405180910390f35b348015610702575f80fd5b5061071d600480360381019061071891906152b4565b61160b565b60405161072a919061493d565b60405180910390f35b34801561073e575f80fd5b5061075960048036038101906107549190614980565b611673565b604051610766919061493d565b60405180910390f35b34801561077a575f80fd5b506107956004803603810190610790919061538f565b61176c565b005b3480156107a2575f80fd5b506107bd60048036038101906107b891906153ba565b611780565b6040516107ca919061493d565b60405180910390f35b3480156107de575f80fd5b506107f960048036038101906107f491906154c9565b6117e6565b604051610806919061493d565b60405180910390f35b34801561081a575f80fd5b506108356004803603810190610830919061559d565b6118d3565b604051610842919061493d565b60405180910390f35b348015610856575f80fd5b5061085f611919565b60405161087297969594939291906156b9565b60405180910390f35b348015610886575f80fd5b506108a1600480360381019061089c919061573b565b6119be565b6040516108ae919061493d565b60405180910390f35b3480156108c2575f80fd5b506108cb611a92565b6040516108d891906157ca565b60405180910390f35b3480156108ec575f80fd5b506108f5611b1d565b604051610902919061493d565b60405180910390f35b348015610916575f80fd5b50610931600480360381019061092c91906157e3565b611b25565b60405161093e919061493d565b60405180910390f35b348015610952575f80fd5b5061095b611b3a565b604051610968919061493d565b60405180910390f35b34801561097c575f80fd5b506109976004803603810190610992919061589b565b611b66565b005b3480156109a4575f80fd5b506109bf60048036038101906109ba9190614980565b611b7a565b6040516109cc919061490c565b60405180910390f35b3480156109e0575f80fd5b506109fb60048036038101906109f69190614980565b611b8b565b604051610a08919061493d565b60405180910390f35b348015610a1c575f80fd5b50610a25611bc1565b604051610a32919061493d565b60405180910390f35b348015610a46575f80fd5b50610a616004803603810190610a5c91906158c6565b611bcf565b604051610a6e9190614c78565b60405180910390f35b348015610a82575f80fd5b50610a9d6004803603810190610a989190614980565b611c4f565b604051610aaa919061493d565b60405180910390f35b610acd6004803603810190610ac891906159e6565b611cb9565b005b348015610ada575f80fd5b50610af56004803603810190610af09190614f26565b611d42565b604051610b02919061493d565b60405180910390f35b348015610b16575f80fd5b50610b1f611d7c565b604051610b2c9190614a7a565b60405180910390f35b348015610b40575f80fd5b50610b49611da4565b604051610b569190614a1b565b60405180910390f35b348015610b6a575f80fd5b50610b73611de1565b604051610b809190614fed565b60405180910390f35b348015610b94575f80fd5b50610baf6004803603810190610baa9190615a90565b611e05565b005b348015610bbc575f80fd5b50610bd76004803603810190610bd29190615abb565b611e19565b604051610be4919061493d565b60405180910390f35b348015610bf8575f80fd5b50610c136004803603810190610c0e9190614980565b611e34565b005b348015610c20575f80fd5b50610c3b6004803603810190610c369190615af9565b611e48565b604051610c489190614c78565b60405180910390f35b348015610c5c575f80fd5b50610c776004803603810190610c729190614980565b611ec8565b604051610c84919061493d565b60405180910390f35b348015610c98575f80fd5b50610ca1611ed9565b604051610cae9190615be7565b60405180910390f35b5f610cc0611f00565b905090565b5f7f65455a86000000000000000000000000000000000000000000000000000000007bffffffffffffffffffffffffffffffffffffffffffffffffffffffff1916827bffffffffffffffffffffffffffffffffffffffffffffffffffffffff19161480610d8f57507f4e2312e0000000000000000000000000000000000000000000000000000000007bffffffffffffffffffffffffffffffffffffffffffffffffffffffff1916827bffffffffffffffffffffffffffffffffffffffffffffffffffffffff1916145b80610d9f5750610d9e82611f28565b5b9050919050565b5f610daf611f91565b905090565b610dbc611fb0565b610dc5816120a5565b50565b606060038054610dd790615c2d565b80601f0160208091040260200160405190810160405280929190818152602001828054610e0390615c2d565b8015610e4e5780601f10610e2557610100808354040283529160200191610e4e565b820191905f5260205f20905b815481529060010190602001808311610e3157829003601f168201915b5050505050905090565b5f60045f8381526020019081526020015f205f015f9054906101000a900473ffffffffffffffffffffffffffffffffffffffff169050919050565b5f3073ffffffffffffffffffffffffffffffffffffffff16610eb3610cb7565b73ffffffffffffffffffffffffffffffffffffffff1614610f00576040517fe90a651e00000000000000000000000000000000000000000000000000000000815260040160405180910390fd5b63150b7a0260e01b9050949350505050565b5f80610f2086868686611d42565b9050610f3581610f306004612167565b61218b565b505f610f4482888888886121f6565b90505f8165ffffffffffff1614610fc9578060045f8481526020019081526020015f206001015f6101000a81548165ffffffffffff021916908365ffffffffffff1602179055507f9a2e42fd6722813d69113e7d0079d3d940171428df7373df9c7f7617cfda28928282604051610fbc929190615c8d565b60405180910390a1610ffb565b6040517f90884a4600000000000000000000000000000000000000000000000000000000815260040160405180910390fd5b8192505050949350505050565b5f8061101686868686611d42565b9050611036816110266005612167565b6110306004612167565b1761218b565b50600160045f8381526020019081526020015f205f01601e6101000a81548160ff0219169083151502179055503073ffffffffffffffffffffffffffffffffffffffff16611082610cb7565b73ffffffffffffffffffffffffffffffffffffffff1614611138575f5b8651811015611136573073ffffffffffffffffffffffffffffffffffffffff168782815181106110d2576110d1615cb4565b5b602002602001015173ffffffffffffffffffffffffffffffffffffffff160361112b5761112a85828151811061110b5761110a615cb4565b5b602002602001015180519060200120600561220f90919063ffffffff16565b5b80600101905061109f565b505b611145818787878761232e565b3073ffffffffffffffffffffffffffffffffffffffff16611164610cb7565b73ffffffffffffffffffffffffffffffffffffffff161415801561118f575061118d6005612342565b155b1561119f5761119e60056123ae565b5b7f712ae1383f79ac853f8d882153778e0260ef8f03b504e2866e0593e04d2b291f816040516111ce919061493d565b60405180910390a180915050949350505050565b5f60045f8381526020019081526020015f205f0160149054906101000a900465ffffffffffff1665ffffffffffff169050919050565b7f3e83946653575f9a39005e1545185629e92736b7528ab20ca3816f315424a81181565b5f611245612424565b905090565b5f61125482612446565b9050919050565b5f60095f8481526020019081526020015f206003015f8373ffffffffffffffffffffffffffffffffffffffff1673ffffffffffffffffffffffffffffffffffffffff1681526020019081526020015f205f9054906101000a900460ff16905092915050565b5f806112ce86868686611d42565b90506112e2816112dd5f612167565b61218b565b506112ec81610e58565b73ffffffffffffffffffffffffffffffffffffffff1661130a6125fb565b73ffffffffffffffffffffffffffffffffffffffff16146113695761132d6125fb565b6040517f233d98e30000000000000000000000000000000000000000000000000000000081526004016113609190614a7a565b60405180910390fd5b61137586868686612602565b915050949350505050565b606061138a611ed9565b73ffffffffffffffffffffffffffffffffffffffff16634bf5d7e96040518163ffffffff1660e01b81526004015f60405180830381865afa9250505080156113f457506040513d5f823e3d601f19601f820116820180604052508101906113f19190615d4f565b60015b611435576040518060400160405280601d81526020017f6d6f64653d626c6f636b6e756d6265722666726f6d3d64656661756c74000000815250905061143a565b809150505b90565b5f805f8060095f8681526020019081526020015f209050805f015481600101548260020154935093509350509193909250565b60606040518060400160405280600181526020017f3100000000000000000000000000000000000000000000000000000000000000815250905090565b5f806114b76125fb565b90506114d384828560405180602001604052805f815250612619565b91505092915050565b5f80611569876115637f3e83946653575f9a39005e1545185629e92736b7528ab20ca3816f315424a8118c8c8c6115128e612638565b8d8d604051611522929190615dc4565b60405180910390208c805190602001206040516020016115489796959493929190615deb565b6040516020818303038152906040528051906020012061268b565b856126a4565b9050806115ad57866040517f94ab6c070000000000000000000000000000000000000000000000000000000081526004016115a49190614a7a565b60405180910390fd5b6115fd89888a89898080601f0160208091040260200160405190810160405280939291908181526020018383808284375f81840152601f19601f8201169050808301925050505050505088612731565b915050979650505050505050565b5f806116156125fb565b905061166787828888888080601f0160208091040260200160405190810160405280939291908181526020018383808284375f81840152601f19601f8201169050808301925050505050505087612731565b91505095945050505050565b5f80600a5f018054905090505f600a5f016001836116919190615e85565b815481106116a2576116a1615cb4565b5b905f5260205f200190505f815f015f9054906101000a900465ffffffffffff1690505f825f0160069054906101000a900479ffffffffffffffffffffffffffffffffffffffffffffffffffff169050858265ffffffffffff1611611728578079ffffffffffffffffffffffffffffffffffffffffffffffffffff16945050505050611767565b6117446117348761282e565b600a61288790919063ffffffff16565b79ffffffffffffffffffffffffffffffffffffffffffffffffffff169450505050505b919050565b611774611fb0565b61177d81612974565b50565b5f8061178a6125fb565b90506117db86828787878080601f0160208091040260200160405190810160405280939291908181526020018383808284375f81840152601f19601f82011690508083019250505050505050612619565b915050949350505050565b5f806117f06125fb565b90506117fc81846129e7565b61183d57806040517fd9b395570000000000000000000000000000000000000000000000000000000081526004016118349190614a7a565b60405180910390fd5b5f61186382600161184c611a92565b6118569190615eb8565b65ffffffffffff16611e19565b90505f61186e611bc1565b9050808210156118b9578282826040517fc242ee160000000000000000000000000000000000000000000000000000000081526004016118b093929190615ef1565b60405180910390fd5b6118c68888888887612b2f565b9350505050949350505050565b5f60025f8373ffffffffffffffffffffffffffffffffffffffff1673ffffffffffffffffffffffffffffffffffffffff1681526020019081526020015f20549050919050565b5f6060805f805f606061192a612db4565b611932612dee565b46305f801b5f67ffffffffffffffff81111561195157611950614ac5565b5b60405190808252806020026020018201604052801561197f5781602001602082028036833780820191505090505b507f0f00000000000000000000000000000000000000000000000000000000000000959493929190965096509650965096509650965090919293949596565b5f80611a2984611a237ff2aad550cf55f045cb27e9c559f9889fdfb6e6cdaa032301d6ea397784ae51d78989896119f48b612638565b604051602001611a08959493929190615f26565b6040516020818303038152906040528051906020012061268b565b856126a4565b905080611a6d57836040517f94ab6c07000000000000000000000000000000000000000000000000000000008152600401611a649190614a7a565b60405180910390fd5b611a8786858760405180602001604052805f815250612619565b915050949350505050565b5f611a9b611ed9565b73ffffffffffffffffffffffffffffffffffffffff166391ddadf46040518163ffffffff1660e01b8152600401602060405180830381865afa925050508015611b0257506040513d601f19601f82011682018060405250810190611aff9190615f8b565b60015b611b1557611b0e612e29565b9050611b1a565b809150505b90565b5f6064905090565b5f611b31848484612e38565b90509392505050565b5f611b45600a612ec3565b79ffffffffffffffffffffffffffffffffffffffffffffffffffff16905090565b611b6e611fb0565b611b7781612f25565b50565b5f611b8482612fc2565b9050919050565b5f60045f8381526020019081526020015f206001015f9054906101000a900465ffffffffffff1665ffffffffffff169050919050565b5f611bca612fcc565b905090565b5f3073ffffffffffffffffffffffffffffffffffffffff16611bef610cb7565b73ffffffffffffffffffffffffffffffffffffffff1614611c3c576040517fe90a651e00000000000000000000000000000000000000000000000000000000815260040160405180910390fd5b63bc197c8160e01b905095945050505050565b5f60045f8381526020019081526020015f205f01601a9054906101000a900463ffffffff1663ffffffff1660045f8481526020019081526020015f205f0160149054906101000a900465ffffffffffff16611caa9190615fb6565b65ffffffffffff169050919050565b611cc1611fb0565b5f808573ffffffffffffffffffffffffffffffffffffffff16858585604051611ceb929190615dc4565b5f6040518083038185875af1925050503d805f8114611d25576040519150601f19603f3d011682016040523d82523d5f602084013e611d2a565b606091505b5091509150611d398282612fd5565b50505050505050565b5f84848484604051602001611d5a94939291906161b3565b604051602081830303815290604052805190602001205f1c9050949350505050565b5f600b5f9054906101000a900473ffffffffffffffffffffffffffffffffffffffff16905090565b60606040518060400160405280602081526020017f737570706f72743d627261766f2671756f72756d3d666f722c6162737461696e815250905090565b7ff2aad550cf55f045cb27e9c559f9889fdfb6e6cdaa032301d6ea397784ae51d781565b611e0d611fb0565b611e1681612ff9565b50565b5f611e2c8383611e276130b2565b612e38565b905092915050565b611e3c611fb0565b611e45816130c8565b50565b5f3073ffffffffffffffffffffffffffffffffffffffff16611e68610cb7565b73ffffffffffffffffffffffffffffffffffffffff1614611eb5576040517fe90a651e00000000000000000000000000000000000000000000000000000000815260040160405180910390fd5b63f23a6e6160e01b905095945050505050565b5f611ed28261310d565b9050919050565b5f7f0000000000000000000000000000000000000000000000000000000000000000905090565b5f600b5f9054906101000a900473ffffffffffffffffffffffffffffffffffffffff16905090565b5f7f01ffc9a7000000000000000000000000000000000000000000000000000000007bffffffffffffffffffffffffffffffffffffffffffffffffffffffff1916827bffffffffffffffffffffffffffffffffffffffffffffffffffffffff1916149050919050565b5f600860069054906101000a900463ffffffff1663ffffffff16905090565b611fb86125fb565b73ffffffffffffffffffffffffffffffffffffffff16611fd6610cb7565b73ffffffffffffffffffffffffffffffffffffffff161461203557611ff96125fb565b6040517f47096e4700000000000000000000000000000000000000000000000000000000815260040161202c9190614a7a565b60405180910390fd5b3073ffffffffffffffffffffffffffffffffffffffff16612054610cb7565b73ffffffffffffffffffffffffffffffffffffffff16146120a3575f6120786131b9565b604051612086929190615dc4565b604051809103902090505b8061209c60056131c5565b0361209157505b565b5f6120ae611b1d565b9050808211156120f75781816040517f243e54450000000000000000000000000000000000000000000000000000000081526004016120ee92919061620b565b60405180910390fd5b5f612100611b3a565b905061212761210d611a92565b6121168561331a565b600a6133879092919063ffffffff16565b50507f0553476bf02ef2726e8ce5ced78d63e26e602e4a2257b1f559418e24b4633997818460405161215a92919061620b565b60405180910390a1505050565b5f81600781111561217b5761217a615006565b5b60ff166001901b5f1b9050919050565b5f806121968461124a565b90505f801b836121a583612167565b16036121ec578381846040517f31b75e4d0000000000000000000000000000000000000000000000000000000081526004016121e393929190616232565b60405180910390fd5b8091505092915050565b5f61220486868686866133a2565b905095945050505050565b5f825f0160109054906101000a90046fffffffffffffffffffffffffffffffff169050825f015f9054906101000a90046fffffffffffffffffffffffffffffffff166fffffffffffffffffffffffffffffffff16600182016fffffffffffffffffffffffffffffffff16036122b0576040517f8acb5f2700000000000000000000000000000000000000000000000000000000815260040160405180910390fd5b81836001015f836fffffffffffffffffffffffffffffffff166fffffffffffffffffffffffffffffffff1681526020019081526020015f208190555060018101835f0160106101000a8154816fffffffffffffffffffffffffffffffff02191690836fffffffffffffffffffffffffffffffff160217905550505050565b61233b85858585856135a8565b5050505050565b5f815f015f9054906101000a90046fffffffffffffffffffffffffffffffff166fffffffffffffffffffffffffffffffff16825f0160109054906101000a90046fffffffffffffffffffffffffffffffff166fffffffffffffffffffffffffffffffff16149050919050565b5f815f015f6101000a8154816fffffffffffffffffffffffffffffffff02191690836fffffffffffffffffffffffffffffffff1602179055505f815f0160106101000a8154816fffffffffffffffffffffffffffffffff02191690836fffffffffffffffffffffffffffffffff16021790555050565b5f60085f9054906101000a900465ffffffffffff1665ffffffffffff16905090565b5f806124518361365c565b90506005600781111561246757612466615006565b5b81600781111561247a57612479615006565b5b1461248857809150506125f6565b5f600c5f8581526020019081526020015f20549050600b5f9054906101000a900473ffffffffffffffffffffffffffffffffffffffff1673ffffffffffffffffffffffffffffffffffffffff1663584b153e826040518263ffffffff1660e01b81526004016124f79190614fed565b602060405180830381865afa158015612512573d5f803e3d5ffd5b505050506040513d601f19601f820116820180604052508101906125369190616291565b15612546576005925050506125f6565b600b5f9054906101000a900473ffffffffffffffffffffffffffffffffffffffff1673ffffffffffffffffffffffffffffffffffffffff16632ab0f529826040518263ffffffff1660e01b81526004016125a09190614fed565b602060405180830381865afa1580156125bb573d5f803e3d5ffd5b505050506040513d601f19601f820116820180604052508101906125df9190616291565b156125ef576007925050506125f6565b6002925050505b919050565b5f33905090565b5f61260f858585856137b3565b9050949350505050565b5f61262e858585856126296130b2565b612731565b9050949350505050565b5f60025f8373ffffffffffffffffffffffffffffffffffffffff1673ffffffffffffffffffffffffffffffffffffffff1681526020019081526020015f205f815480929190600101919050559050919050565b5f61269d61269761388a565b83613940565b9050919050565b5f805f6126b18585613980565b50915091505f60038111156126c9576126c8615006565b5b8160038111156126dc576126db615006565b5b14801561271457508573ffffffffffffffffffffffffffffffffffffffff168273ffffffffffffffffffffffffffffffffffffffff16145b8061272657506127258686866139d5565b5b925050509392505050565b5f612745866127406001612167565b61218b565b505f61275a86612754896111e2565b85612e38565b90506127698787878487613af4565b5f8351036127ca578573ffffffffffffffffffffffffffffffffffffffff167fb8e138887d0aa13bab447e82de9d5c1777041ecd21ca36ba824ff1e6c07ddda4888784886040516127bd94939291906162bc565b60405180910390a2612821565b8573ffffffffffffffffffffffffffffffffffffffff167fe2babfbac5889a709b63bb7f598b324e08bc5a4fb9ec647fb3cbc9ec07eb8712888784888860405161281895949392919061634e565b60405180910390a25b8091505095945050505050565b5f65ffffffffffff801682111561287f576030826040517f6dfcc6500000000000000000000000000000000000000000000000000000000081526004016128769291906163e6565b60405180910390fd5b819050919050565b5f80835f018054905090505f808290506005831115612908575f6128aa84613ce3565b846128b59190615e85565b90506128c3875f0182613dd9565b5f015f9054906101000a900465ffffffffffff1665ffffffffffff168665ffffffffffff1610156128f657809150612906565b600181612903919061640d565b92505b505b5f612917875f01878585613deb565b90505f811461296657612938875f016001836129339190615e85565b613dd9565b5f0160069054906101000a900479ffffffffffffffffffffffffffffffffffffffffffffffffffff16612968565b5f5b94505050505092915050565b7fc565b045403dc03c2eea82b81a0465edad9e2e7fc4d97e11421c209da93d7a9360085f9054906101000a900465ffffffffffff16826040516129b8929190616440565b60405180910390a18060085f6101000a81548165ffffffffffff021916908365ffffffffffff16021790555050565b5f80825190506034811015612a00576001915050612b29565b5f6014820384015190507f2370726f706f7365723d3078000000000000000000000000000000000000000073ffffffffffffffffffffffffffffffffffffffff19168173ffffffffffffffffffffffffffffffffffffffff191614612a6a57600192505050612b29565b5f80602884612a799190615e85565b90505b83811015612af3575f80612aac888481518110612a9c57612a9b615cb4565b5b602001015160f81c60f81b613e60565b9150915081612ac45760019650505050505050612b29565b8060ff1660048573ffffffffffffffffffffffffffffffffffffffff16901b1793505050806001019050612a7c565b508573ffffffffffffffffffffffffffffffffffffffff168173ffffffffffffffffffffffffffffffffffffffff161493505050505b92915050565b5f612b438686868680519060200120611d42565b905084518651141580612b5857508351865114155b80612b6357505f8651145b15612bac578551845186516040517f447b05d0000000000000000000000000000000000000000000000000000000008152600401612ba3939291906150d0565b60405180910390fd5b5f60045f8381526020019081526020015f205f0160149054906101000a900465ffffffffffff1665ffffffffffff1614612c2b5780612bea8261124a565b5f801b6040517f31b75e4d000000000000000000000000000000000000000000000000000000008152600401612c2293929190616232565b60405180910390fd5b5f612c3461123c565b612c3c611a92565b65ffffffffffff16612c4e919061640d565b90505f612c59610da6565b90505f60045f8581526020019081526020015f20905084815f015f6101000a81548173ffffffffffffffffffffffffffffffffffffffff021916908373ffffffffffffffffffffffffffffffffffffffff160217905550612cb98361282e565b815f0160146101000a81548165ffffffffffff021916908365ffffffffffff160217905550612ce782613ef7565b815f01601a6101000a81548163ffffffff021916908363ffffffff1602179055507f7d84a6263ae0d98d3329bd7b46bb4e8d6f98cd35a7adb45c274c8b7fd5ebd5e084868b8b8d5167ffffffffffffffff811115612d4857612d47614ac5565b5b604051908082528060200260200182016040528015612d7b57816020015b6060815260200190600190039081612d665790505b508c89898b612d8a919061640d565b8e604051612da09998979695949392919061656a565b60405180910390a150505095945050505050565b6060612de95f7f0000000000000000000000000000000000000000000000000000000000000000613f4e90919063ffffffff16565b905090565b6060612e2460017f0000000000000000000000000000000000000000000000000000000000000000613f4e90919063ffffffff16565b905090565b5f612e334361282e565b905090565b5f612e41611ed9565b73ffffffffffffffffffffffffffffffffffffffff16633a46b1a885856040518363ffffffff1660e01b8152600401612e7b929190616618565b602060405180830381865afa158015612e96573d5f803e3d5ffd5b505050506040513d601f19601f82011682018060405250810190612eba9190616653565b90509392505050565b5f80825f018054905090505f8114612f1b57612eed835f01600183612ee89190615e85565b613dd9565b5f0160069054906101000a900479ffffffffffffffffffffffffffffffffffffffffffffffffffff16612f1d565b5f5b915050919050565b7f08f74ea46ef7894f65eabfb5e6e695de773a000b47c529ab559178069b226401600b5f9054906101000a900473ffffffffffffffffffffffffffffffffffffffff1682604051612f7792919061667e565b60405180910390a180600b5f6101000a81548173ffffffffffffffffffffffffffffffffffffffff021916908373ffffffffffffffffffffffffffffffffffffffff16021790555050565b5f60019050919050565b5f600754905090565b606082612fea57612fe582613ffb565b612ff2565b819050612ff3565b5b92915050565b5f8163ffffffff1603613043575f6040517ff1cfbf0500000000000000000000000000000000000000000000000000000000815260040161303a91906166de565b60405180910390fd5b7f7e3f7f0708a84de9203036abaa450dccc85ad5ff52f78c170f3edb55cf5e8828600860069054906101000a900463ffffffff1682604051613086929190616727565b60405180910390a180600860066101000a81548163ffffffff021916908363ffffffff16021790555050565b606060405180602001604052805f815250905090565b7fccb45da8d5717e6c4544694297c4ba5cf151d455c9bb0ed4fc7a38411bc05461600754826040516130fb92919061620b565b60405180910390a18060078190555050565b5f613116611b1d565b61311f83611673565b613127611ed9565b73ffffffffffffffffffffffffffffffffffffffff16638e539e8c856040518263ffffffff1660e01b815260040161315f919061493d565b602060405180830381865afa15801561317a573d5f803e3d5ffd5b505050506040513d601f19601f8201168201806040525081019061319e9190616653565b6131a8919061674e565b6131b291906167bc565b9050919050565b365f8036915091509091565b5f80825f015f9054906101000a90046fffffffffffffffffffffffffffffffff169050825f0160109054906101000a90046fffffffffffffffffffffffffffffffff166fffffffffffffffffffffffffffffffff16816fffffffffffffffffffffffffffffffff1603613264576040517f75e52f4f00000000000000000000000000000000000000000000000000000000815260040160405180910390fd5b826001015f826fffffffffffffffffffffffffffffffff166fffffffffffffffffffffffffffffffff1681526020019081526020015f20549150826001015f826fffffffffffffffffffffffffffffffff166fffffffffffffffffffffffffffffffff1681526020019081526020015f205f905560018101835f015f6101000a8154816fffffffffffffffffffffffffffffffff02191690836fffffffffffffffffffffffffffffffff16021790555050919050565b5f79ffffffffffffffffffffffffffffffffffffffffffffffffffff801682111561337f5760d0826040517f6dfcc650000000000000000000000000000000000000000000000000000000008152600401613376929190616825565b60405180910390fd5b819050919050565b5f80613396855f01858561403f565b91509150935093915050565b5f80600b5f9054906101000a900473ffffffffffffffffffffffffffffffffffffffff1673ffffffffffffffffffffffffffffffffffffffff1663f27a0c926040518163ffffffff1660e01b8152600401602060405180830381865afa15801561340e573d5f803e3d5ffd5b505050506040513d601f19601f820116820180604052508101906134329190616653565b90505f61343e846143a7565b9050600b5f9054906101000a900473ffffffffffffffffffffffffffffffffffffffff1673ffffffffffffffffffffffffffffffffffffffff1663b1c5f4278888885f866040518663ffffffff1660e01b81526004016134a2959493929190616887565b602060405180830381865afa1580156134bd573d5f803e3d5ffd5b505050506040513d601f19601f820116820180604052508101906134e19190616901565b600c5f8a81526020019081526020015f2081905550600b5f9054906101000a900473ffffffffffffffffffffffffffffffffffffffff1673ffffffffffffffffffffffffffffffffffffffff16638f2a0bb08888885f86886040518763ffffffff1660e01b815260040161355a9695949392919061692c565b5f604051808303815f87803b158015613571575f80fd5b505af1158015613583573d5f803e3d5ffd5b5050505061359b8242613596919061640d565b61282e565b9250505095945050505050565b600b5f9054906101000a900473ffffffffffffffffffffffffffffffffffffffff1673ffffffffffffffffffffffffffffffffffffffff1663e38335e5348686865f6135f3886143a7565b6040518763ffffffff1660e01b8152600401613613959493929190616887565b5f604051808303818588803b15801561362a575f80fd5b505af115801561363c573d5f803e3d5ffd5b5050505050600c5f8681526020019081526020015f205f90555050505050565b5f8060045f8481526020019081526020015f2090505f815f01601e9054906101000a900460ff1690505f825f01601f9054906101000a900460ff16905081156136ab57600793505050506137ae565b80156136bd57600293505050506137ae565b5f6136c7866111e2565b90505f810361370d57856040517f6ad06075000000000000000000000000000000000000000000000000000000008152600401613704919061493d565b60405180910390fd5b5f613716611a92565b65ffffffffffff169050808210613734575f955050505050506137ae565b5f61373e88611c4f565b905081811061375657600196505050505050506137ae565b61375f886143c4565b1580613771575061376f88614408565b155b1561378557600396505050505050506137ae565b5f61378f89611b8b565b036137a357600496505050505050506137ae565b600596505050505050505b919050565b5f806137c18686868661442f565b90505f600c5f8381526020019081526020015f205490505f801b811461387d57600b5f9054906101000a900473ffffffffffffffffffffffffffffffffffffffff1673ffffffffffffffffffffffffffffffffffffffff1663c4d252f5826040518263ffffffff1660e01b815260040161383b9190614fed565b5f604051808303815f87803b158015613852575f80fd5b505af1158015613864573d5f803e3d5ffd5b50505050600c5f8381526020019081526020015f205f90555b8192505050949350505050565b5f7f000000000000000000000000000000000000000000000000000000000000000073ffffffffffffffffffffffffffffffffffffffff163073ffffffffffffffffffffffffffffffffffffffff1614801561390557507f000000000000000000000000000000000000000000000000000000000000000046145b15613932577f0000000000000000000000000000000000000000000000000000000000000000905061393d565b61393a614511565b90505b90565b5f6040517f190100000000000000000000000000000000000000000000000000000000000081528360028201528260228201526042812091505092915050565b5f805f60418451036139c0575f805f602087015192506040870151915060608701515f1a90506139b2888285856145a6565b9550955095505050506139ce565b5f600285515f1b9250925092505b9250925092565b5f805f8573ffffffffffffffffffffffffffffffffffffffff168585604051602401613a029291906169a0565b604051602081830303815290604052631626ba7e60e01b6020820180517bffffffffffffffffffffffffffffffffffffffffffffffffffffffff8381831617835250505050604051613a5491906169fe565b5f60405180830381855afa9150503d805f8114613a8c576040519150601f19603f3d011682016040523d82523d5f602084013e613a91565b606091505b5091509150818015613aa557506020815110155b8015613ae95750631626ba7e60e01b7bffffffffffffffffffffffffffffffffffffffffffffffffffffffff191681806020019051810190613ae79190616901565b145b925050509392505050565b5f60095f8781526020019081526020015f209050806003015f8673ffffffffffffffffffffffffffffffffffffffff1673ffffffffffffffffffffffffffffffffffffffff1681526020019081526020015f205f9054906101000a900460ff1615613b9657846040517f71c6af49000000000000000000000000000000000000000000000000000000008152600401613b8d9190614a7a565b60405180910390fd5b6001816003015f8773ffffffffffffffffffffffffffffffffffffffff1673ffffffffffffffffffffffffffffffffffffffff1681526020019081526020015f205f6101000a81548160ff0219169083151502179055505f6002811115613c0057613bff615006565b5b60ff168460ff1603613c2a5782815f015f828254613c1e919061640d565b92505081905550613cdb565b60016002811115613c3e57613c3d615006565b5b60ff168460ff1603613c695782816001015f828254613c5d919061640d565b92505081905550613cda565b600280811115613c7c57613c7b615006565b5b60ff168460ff1603613ca75782816002015f828254613c9b919061640d565b92505081905550613cd9565b6040517f06b337c200000000000000000000000000000000000000000000000000000000815260040160405180910390fd5b5b5b505050505050565b5f808203613cf3575f9050613dd4565b5f6001613cff8461468d565b901c6001901b90506001818481613d1957613d1861678f565b5b048201901c90506001818481613d3257613d3161678f565b5b048201901c90506001818481613d4b57613d4a61678f565b5b048201901c90506001818481613d6457613d6361678f565b5b048201901c90506001818481613d7d57613d7c61678f565b5b048201901c90506001818481613d9657613d9561678f565b5b048201901c90506001818481613daf57613dae61678f565b5b048201901c9050613dd081828581613dca57613dc961678f565b5b04614764565b9150505b919050565b5f825f528160205f2001905092915050565b5f5b81831015613e55575f613e00848461477c565b90508465ffffffffffff16613e158783613dd9565b5f015f9054906101000a900465ffffffffffff1665ffffffffffff161115613e3f57809250613e4f565b600181613e4c919061640d565b93505b50613ded565b819050949350505050565b5f805f8360f81c90508060ff16602f108015613e7f5750603a8160ff16105b15613e94576001603082039250925050613ef2565b8060ff166040108015613eaa575060478160ff16105b15613ebf576001603782039250925050613ef2565b8060ff166060108015613ed5575060678160ff16105b15613eea576001605782039250925050613ef2565b5f8092509250505b915091565b5f63ffffffff8016821115613f46576020826040517f6dfcc650000000000000000000000000000000000000000000000000000000008152600401613f3d929190616a4d565b60405180910390fd5b819050919050565b606060ff5f1b8314613f6a57613f63836147a1565b9050613ff5565b818054613f7690615c2d565b80601f0160208091040260200160405190810160405280929190818152602001828054613fa290615c2d565b8015613fed5780601f10613fc457610100808354040283529160200191613fed565b820191905f5260205f20905b815481529060010190602001808311613fd057829003601f168201915b505050505090505b92915050565b5f8151111561400d5780518082602001fd5b6040517f1425ea4200000000000000000000000000000000000000000000000000000000815260040160405180910390fd5b5f805f858054905090505f8111156142bf575f614068876001846140639190615e85565b613dd9565b6040518060400160405290815f82015f9054906101000a900465ffffffffffff1665ffffffffffff1665ffffffffffff1681526020015f820160069054906101000a900479ffffffffffffffffffffffffffffffffffffffffffffffffffff1679ffffffffffffffffffffffffffffffffffffffffffffffffffff1679ffffffffffffffffffffffffffffffffffffffffffffffffffff168152505090508565ffffffffffff16815f015165ffffffffffff161115614153576040517f2520601d00000000000000000000000000000000000000000000000000000000815260040160405180910390fd5b8565ffffffffffff16815f015165ffffffffffff16036141d557846141848860018561417f9190615e85565b613dd9565b5f0160066101000a81548179ffffffffffffffffffffffffffffffffffffffffffffffffffff021916908379ffffffffffffffffffffffffffffffffffffffffffffffffffff1602179055506142ae565b8660405180604001604052808865ffffffffffff1681526020018779ffffffffffffffffffffffffffffffffffffffffffffffffffff16815250908060018154018082558091505060019003905f5260205f20015f909190919091505f820151815f015f6101000a81548165ffffffffffff021916908365ffffffffffff1602179055506020820151815f0160066101000a81548179ffffffffffffffffffffffffffffffffffffffffffffffffffff021916908379ffffffffffffffffffffffffffffffffffffffffffffffffffff16021790555050505b80602001518593509350505061439f565b8560405180604001604052808765ffffffffffff1681526020018679ffffffffffffffffffffffffffffffffffffffffffffffffffff16815250908060018154018082558091505060019003905f5260205f20015f909190919091505f820151815f015f6101000a81548165ffffffffffff021916908365ffffffffffff1602179055506020820151815f0160066101000a81548179ffffffffffffffffffffffffffffffffffffffffffffffffffff021916908379ffffffffffffffffffffffffffffffffffffffffffffffffffff16021790555050505f8492509250505b935093915050565b5f813060601b6bffffffffffffffffffffffff1916189050919050565b5f8060095f8481526020019081526020015f209050806002015481600101546143ed919061640d565b6143fe6143f9856111e2565b611ec8565b1115915050919050565b5f8060095f8481526020019081526020015f209050805f0154816001015411915050919050565b5f8061443d86868686611d42565b90506144a18161444d6007612167565b6144576006612167565b6144616002612167565b60018060078081111561447757614476615006565b5b6144819190616a74565b600261448d9190616bd7565b6144979190615e85565b5f1b18181861218b565b50600160045f8381526020019081526020015f205f01601f6101000a81548160ff0219169083151502179055507f789cf55be980739dad1d0699b93b58e806b51c9d96619bfa8fe0a28abaa7b30c816040516144fd919061493d565b60405180910390a180915050949350505050565b5f7f8b73c3c69bb8fe3d512ecc4cf759cc79239f7b179b0ffacaa9a75d522b39400f7f00000000000000000000000000000000000000000000000000000000000000007f0000000000000000000000000000000000000000000000000000000000000000463060405160200161458b959493929190616c21565b60405160208183030381529060405280519060200120905090565b5f805f7f7fffffffffffffffffffffffffffffff5d576e7357a4501ddfe92f46681b20a0845f1c11156145e2575f600385925092509250614683565b5f6001888888886040515f81526020016040526040516146059493929190616c72565b6020604051602081039080840390855afa158015614625573d5f803e3d5ffd5b5050506020604051035190505f73ffffffffffffffffffffffffffffffffffffffff168173ffffffffffffffffffffffffffffffffffffffff1603614676575f60015f801b93509350935050614683565b805f805f1b935093509350505b9450945094915050565b5f805f90505f608084901c11156146ac57608083901c92506080810190505b5f604084901c11156146c657604083901c92506040810190505b5f602084901c11156146e057602083901c92506020810190505b5f601084901c11156146fa57601083901c92506010810190505b5f600884901c111561471457600883901c92506008810190505b5f600484901c111561472e57600483901c92506004810190505b5f600284901c111561474857600283901c92506002810190505b5f600184901c111561475b576001810190505b80915050919050565b5f8183106147725781614774565b825b905092915050565b5f600282841861478c91906167bc565b828416614799919061640d565b905092915050565b60605f6147ad83614813565b90505f602067ffffffffffffffff8111156147cb576147ca614ac5565b5b6040519080825280601f01601f1916602001820160405280156147fd5781602001600182028036833780820191505090505b5090508181528360208201528092505050919050565b5f8060ff835f1c169050601f811115614858576040517fb3512b0c00000000000000000000000000000000000000000000000000000000815260040160405180910390fd5b80915050919050565b5f604051905090565b5f80fd5b5f80fd5b5f7fffffffff0000000000000000000000000000000000000000000000000000000082169050919050565b6148a681614872565b81146148b0575f80fd5b50565b5f813590506148c18161489d565b92915050565b5f602082840312156148dc576148db61486a565b5b5f6148e9848285016148b3565b91505092915050565b5f8115159050919050565b614906816148f2565b82525050565b5f60208201905061491f5f8301846148fd565b92915050565b5f819050919050565b61493781614925565b82525050565b5f6020820190506149505f83018461492e565b92915050565b61495f81614925565b8114614969575f80fd5b50565b5f8135905061497a81614956565b92915050565b5f602082840312156149955761499461486a565b5b5f6149a28482850161496c565b91505092915050565b5f81519050919050565b5f82825260208201905092915050565b8281835e5f83830152505050565b5f601f19601f8301169050919050565b5f6149ed826149ab565b6149f781856149b5565b9350614a078185602086016149c5565b614a10816149d3565b840191505092915050565b5f6020820190508181035f830152614a3381846149e3565b905092915050565b5f73ffffffffffffffffffffffffffffffffffffffff82169050919050565b5f614a6482614a3b565b9050919050565b614a7481614a5a565b82525050565b5f602082019050614a8d5f830184614a6b565b92915050565b614a9c81614a5a565b8114614aa6575f80fd5b50565b5f81359050614ab781614a93565b92915050565b5f80fd5b5f80fd5b7f4e487b71000000000000000000000000000000000000000000000000000000005f52604160045260245ffd5b614afb826149d3565b810181811067ffffffffffffffff82111715614b1a57614b19614ac5565b5b80604052505050565b5f614b2c614861565b9050614b388282614af2565b919050565b5f67ffffffffffffffff821115614b5757614b56614ac5565b5b614b60826149d3565b9050602081019050919050565b828183375f83830152505050565b5f614b8d614b8884614b3d565b614b23565b905082815260208101848484011115614ba957614ba8614ac1565b5b614bb4848285614b6d565b509392505050565b5f82601f830112614bd057614bcf614abd565b5b8135614be0848260208601614b7b565b91505092915050565b5f805f8060808587031215614c0157614c0061486a565b5b5f614c0e87828801614aa9565b9450506020614c1f87828801614aa9565b9350506040614c308782880161496c565b925050606085013567ffffffffffffffff811115614c5157614c5061486e565b5b614c5d87828801614bbc565b91505092959194509250565b614c7281614872565b82525050565b5f602082019050614c8b5f830184614c69565b92915050565b5f67ffffffffffffffff821115614cab57614caa614ac5565b5b602082029050602081019050919050565b5f80fd5b5f614cd2614ccd84614c91565b614b23565b90508083825260208201905060208402830185811115614cf557614cf4614cbc565b5b835b81811015614d1e5780614d0a8882614aa9565b845260208401935050602081019050614cf7565b5050509392505050565b5f82601f830112614d3c57614d3b614abd565b5b8135614d4c848260208601614cc0565b91505092915050565b5f67ffffffffffffffff821115614d6f57614d6e614ac5565b5b602082029050602081019050919050565b5f614d92614d8d84614d55565b614b23565b90508083825260208201905060208402830185811115614db557614db4614cbc565b5b835b81811015614dde5780614dca888261496c565b845260208401935050602081019050614db7565b5050509392505050565b5f82601f830112614dfc57614dfb614abd565b5b8135614e0c848260208601614d80565b91505092915050565b5f67ffffffffffffffff821115614e2f57614e2e614ac5565b5b602082029050602081019050919050565b5f614e52614e4d84614e15565b614b23565b90508083825260208201905060208402830185811115614e7557614e74614cbc565b5b835b81811015614ebc57803567ffffffffffffffff811115614e9a57614e99614abd565b5b808601614ea78982614bbc565b85526020850194505050602081019050614e77565b5050509392505050565b5f82601f830112614eda57614ed9614abd565b5b8135614eea848260208601614e40565b91505092915050565b5f819050919050565b614f0581614ef3565b8114614f0f575f80fd5b50565b5f81359050614f2081614efc565b92915050565b5f805f8060808587031215614f3e57614f3d61486a565b5b5f85013567ffffffffffffffff811115614f5b57614f5a61486e565b5b614f6787828801614d28565b945050602085013567ffffffffffffffff811115614f8857614f8761486e565b5b614f9487828801614de8565b935050604085013567ffffffffffffffff811115614fb557614fb461486e565b5b614fc187828801614ec6565b9250506060614fd287828801614f12565b91505092959194509250565b614fe781614ef3565b82525050565b5f6020820190506150005f830184614fde565b92915050565b7f4e487b71000000000000000000000000000000000000000000000000000000005f52602160045260245ffd5b6008811061504457615043615006565b5b50565b5f81905061505482615033565b919050565b5f61506382615047565b9050919050565b61507381615059565b82525050565b5f60208201905061508c5f83018461506a565b92915050565b5f80604083850312156150a8576150a761486a565b5b5f6150b58582860161496c565b92505060206150c685828601614aa9565b9150509250929050565b5f6060820190506150e35f83018661492e565b6150f0602083018561492e565b6150fd604083018461492e565b949350505050565b5f60ff82169050919050565b61511a81615105565b8114615124575f80fd5b50565b5f8135905061513581615111565b92915050565b5f80604083850312156151515761515061486a565b5b5f61515e8582860161496c565b925050602061516f85828601615127565b9150509250929050565b5f80fd5b5f8083601f84011261519257615191614abd565b5b8235905067ffffffffffffffff8111156151af576151ae615179565b5b6020830191508360018202830111156151cb576151ca614cbc565b5b9250929050565b5f805f805f805f60c0888a0312156151ed576151ec61486a565b5b5f6151fa8a828b0161496c565b975050602061520b8a828b01615127565b965050604061521c8a828b01614aa9565b955050606088013567ffffffffffffffff81111561523d5761523c61486e565b5b6152498a828b0161517d565b9450945050608088013567ffffffffffffffff81111561526c5761526b61486e565b5b6152788a828b01614bbc565b92505060a088013567ffffffffffffffff8111156152995761529861486e565b5b6152a58a828b01614bbc565b91505092959891949750929550565b5f805f805f608086880312156152cd576152cc61486a565b5b5f6152da8882890161496c565b95505060206152eb88828901615127565b945050604086013567ffffffffffffffff81111561530c5761530b61486e565b5b6153188882890161517d565b9350935050606086013567ffffffffffffffff81111561533b5761533a61486e565b5b61534788828901614bbc565b9150509295509295909350565b5f65ffffffffffff82169050919050565b61536e81615354565b8114615378575f80fd5b50565b5f8135905061538981615365565b92915050565b5f602082840312156153a4576153a361486a565b5b5f6153b18482850161537b565b91505092915050565b5f805f80606085870312156153d2576153d161486a565b5b5f6153df8782880161496c565b94505060206153f087828801615127565b935050604085013567ffffffffffffffff8111156154115761541061486e565b5b61541d8782880161517d565b925092505092959194509250565b5f67ffffffffffffffff82111561544557615444614ac5565b5b61544e826149d3565b9050602081019050919050565b5f61546d6154688461542b565b614b23565b90508281526020810184848401111561548957615488614ac1565b5b615494848285614b6d565b509392505050565b5f82601f8301126154b0576154af614abd565b5b81356154c084826020860161545b565b91505092915050565b5f805f80608085870312156154e1576154e061486a565b5b5f85013567ffffffffffffffff8111156154fe576154fd61486e565b5b61550a87828801614d28565b945050602085013567ffffffffffffffff81111561552b5761552a61486e565b5b61553787828801614de8565b935050604085013567ffffffffffffffff8111156155585761555761486e565b5b61556487828801614ec6565b925050606085013567ffffffffffffffff8111156155855761558461486e565b5b6155918782880161549c565b91505092959194509250565b5f602082840312156155b2576155b161486a565b5b5f6155bf84828501614aa9565b91505092915050565b5f7fff0000000000000000000000000000000000000000000000000000000000000082169050919050565b6155fc816155c8565b82525050565b5f81519050919050565b5f82825260208201905092915050565b5f819050602082019050919050565b61563481614925565b82525050565b5f615645838361562b565b60208301905092915050565b5f602082019050919050565b5f61566782615602565b615671818561560c565b935061567c8361561c565b805f5b838110156156ac578151615693888261563a565b975061569e83615651565b92505060018101905061567f565b5085935050505092915050565b5f60e0820190506156cc5f83018a6155f3565b81810360208301526156de81896149e3565b905081810360408301526156f281886149e3565b9050615701606083018761492e565b61570e6080830186614a6b565b61571b60a0830185614fde565b81810360c083015261572d818461565d565b905098975050505050505050565b5f805f80608085870312156157535761575261486a565b5b5f6157608782880161496c565b945050602061577187828801615127565b935050604061578287828801614aa9565b925050606085013567ffffffffffffffff8111156157a3576157a261486e565b5b6157af87828801614bbc565b91505092959194509250565b6157c481615354565b82525050565b5f6020820190506157dd5f8301846157bb565b92915050565b5f805f606084860312156157fa576157f961486a565b5b5f61580786828701614aa9565b93505060206158188682870161496c565b925050604084013567ffffffffffffffff8111156158395761583861486e565b5b61584586828701614bbc565b9150509250925092565b5f61585982614a3b565b9050919050565b5f61586a8261584f565b9050919050565b61587a81615860565b8114615884575f80fd5b50565b5f8135905061589581615871565b92915050565b5f602082840312156158b0576158af61486a565b5b5f6158bd84828501615887565b91505092915050565b5f805f805f60a086880312156158df576158de61486a565b5b5f6158ec88828901614aa9565b95505060206158fd88828901614aa9565b945050604086013567ffffffffffffffff81111561591e5761591d61486e565b5b61592a88828901614de8565b935050606086013567ffffffffffffffff81111561594b5761594a61486e565b5b61595788828901614de8565b925050608086013567ffffffffffffffff8111156159785761597761486e565b5b61598488828901614bbc565b9150509295509295909350565b5f8083601f8401126159a6576159a5614abd565b5b8235905067ffffffffffffffff8111156159c3576159c2615179565b5b6020830191508360018202830111156159df576159de614cbc565b5b9250929050565b5f805f80606085870312156159fe576159fd61486a565b5b5f615a0b87828801614aa9565b9450506020615a1c8782880161496c565b935050604085013567ffffffffffffffff811115615a3d57615a3c61486e565b5b615a4987828801615991565b925092505092959194509250565b5f63ffffffff82169050919050565b615a6f81615a57565b8114615a79575f80fd5b50565b5f81359050615a8a81615a66565b92915050565b5f60208284031215615aa557615aa461486a565b5b5f615ab284828501615a7c565b91505092915050565b5f8060408385031215615ad157615ad061486a565b5b5f615ade85828601614aa9565b9250506020615aef8582860161496c565b9150509250929050565b5f805f805f60a08688031215615b1257615b1161486a565b5b5f615b1f88828901614aa9565b9550506020615b3088828901614aa9565b9450506040615b418882890161496c565b9350506060615b528882890161496c565b925050608086013567ffffffffffffffff811115615b7357615b7261486e565b5b615b7f88828901614bbc565b9150509295509295909350565b5f819050919050565b5f615baf615baa615ba584614a3b565b615b8c565b614a3b565b9050919050565b5f615bc082615b95565b9050919050565b5f615bd182615bb6565b9050919050565b615be181615bc7565b82525050565b5f602082019050615bfa5f830184615bd8565b92915050565b7f4e487b71000000000000000000000000000000000000000000000000000000005f52602260045260245ffd5b5f6002820490506001821680615c4457607f821691505b602082108103615c5757615c56615c00565b5b50919050565b5f615c77615c72615c6d84615354565b615b8c565b614925565b9050919050565b615c8781615c5d565b82525050565b5f604082019050615ca05f83018561492e565b615cad6020830184615c7e565b9392505050565b7f4e487b71000000000000000000000000000000000000000000000000000000005f52603260045260245ffd5b5f615cf3615cee8461542b565b614b23565b905082815260208101848484011115615d0f57615d0e614ac1565b5b615d1a8482856149c5565b509392505050565b5f82601f830112615d3657615d35614abd565b5b8151615d46848260208601615ce1565b91505092915050565b5f60208284031215615d6457615d6361486a565b5b5f82015167ffffffffffffffff811115615d8157615d8061486e565b5b615d8d84828501615d22565b91505092915050565b5f81905092915050565b5f615dab8385615d96565b9350615db8838584614b6d565b82840190509392505050565b5f615dd0828486615da0565b91508190509392505050565b615de581615105565b82525050565b5f60e082019050615dfe5f83018a614fde565b615e0b602083018961492e565b615e186040830188615ddc565b615e256060830187614a6b565b615e32608083018661492e565b615e3f60a0830185614fde565b615e4c60c0830184614fde565b98975050505050505050565b7f4e487b71000000000000000000000000000000000000000000000000000000005f52601160045260245ffd5b5f615e8f82614925565b9150615e9a83614925565b9250828203905081811115615eb257615eb1615e58565b5b92915050565b5f615ec282615354565b9150615ecd83615354565b9250828203905065ffffffffffff811115615eeb57615eea615e58565b5b92915050565b5f606082019050615f045f830186614a6b565b615f11602083018561492e565b615f1e604083018461492e565b949350505050565b5f60a082019050615f395f830188614fde565b615f46602083018761492e565b615f536040830186615ddc565b615f606060830185614a6b565b615f6d608083018461492e565b9695505050505050565b5f81519050615f8581615365565b92915050565b5f60208284031215615fa057615f9f61486a565b5b5f615fad84828501615f77565b91505092915050565b5f615fc082615354565b9150615fcb83615354565b9250828201905065ffffffffffff811115615fe957615fe8615e58565b5b92915050565b5f81519050919050565b5f82825260208201905092915050565b5f819050602082019050919050565b61602181614a5a565b82525050565b5f6160328383616018565b60208301905092915050565b5f602082019050919050565b5f61605482615fef565b61605e8185615ff9565b935061606983616009565b805f5b838110156160995781516160808882616027565b975061608b8361603e565b92505060018101905061606c565b5085935050505092915050565b5f81519050919050565b5f82825260208201905092915050565b5f819050602082019050919050565b5f81519050919050565b5f82825260208201905092915050565b5f6160f3826160cf565b6160fd81856160d9565b935061610d8185602086016149c5565b616116816149d3565b840191505092915050565b5f61612c83836160e9565b905092915050565b5f602082019050919050565b5f61614a826160a6565b61615481856160b0565b935083602082028501616166856160c0565b805f5b858110156161a157848403895281516161828582616121565b945061618d83616134565b925060208a01995050600181019050616169565b50829750879550505050505092915050565b5f6080820190508181035f8301526161cb818761604a565b905081810360208301526161df818661565d565b905081810360408301526161f38185616140565b90506162026060830184614fde565b95945050505050565b5f60408201905061621e5f83018561492e565b61622b602083018461492e565b9392505050565b5f6060820190506162455f83018661492e565b616252602083018561506a565b61625f6040830184614fde565b949350505050565b616270816148f2565b811461627a575f80fd5b50565b5f8151905061628b81616267565b92915050565b5f602082840312156162a6576162a561486a565b5b5f6162b38482850161627d565b91505092915050565b5f6080820190506162cf5f83018761492e565b6162dc6020830186615ddc565b6162e9604083018561492e565b81810360608301526162fb81846149e3565b905095945050505050565b5f82825260208201905092915050565b5f616320826160cf565b61632a8185616306565b935061633a8185602086016149c5565b616343816149d3565b840191505092915050565b5f60a0820190506163615f83018861492e565b61636e6020830187615ddc565b61637b604083018661492e565b818103606083015261638d81856149e3565b905081810360808301526163a18184616316565b90509695505050505050565b5f819050919050565b5f6163d06163cb6163c6846163ad565b615b8c565b615105565b9050919050565b6163e0816163b6565b82525050565b5f6040820190506163f95f8301856163d7565b616406602083018461492e565b9392505050565b5f61641782614925565b915061642283614925565b925082820190508082111561643a57616439615e58565b5b92915050565b5f6040820190506164535f830185615c7e565b6164606020830184615c7e565b9392505050565b5f81519050919050565b5f82825260208201905092915050565b5f819050602082019050919050565b5f82825260208201905092915050565b5f6164aa826149ab565b6164b48185616490565b93506164c48185602086016149c5565b6164cd816149d3565b840191505092915050565b5f6164e383836164a0565b905092915050565b5f602082019050919050565b5f61650182616467565b61650b8185616471565b93508360208202850161651d85616481565b805f5b85811015616558578484038952815161653985826164d8565b9450616544836164eb565b925060208a01995050600181019050616520565b50829750879550505050505092915050565b5f6101208201905061657e5f83018c61492e565b61658b602083018b614a6b565b818103604083015261659d818a61604a565b905081810360608301526165b1818961565d565b905081810360808301526165c581886164f7565b905081810360a08301526165d98187616140565b90506165e860c083018661492e565b6165f560e083018561492e565b81810361010083015261660881846149e3565b90509a9950505050505050505050565b5f60408201905061662b5f830185614a6b565b616638602083018461492e565b9392505050565b5f8151905061664d81614956565b92915050565b5f602082840312156166685761666761486a565b5b5f6166758482850161663f565b91505092915050565b5f6040820190506166915f830185614a6b565b61669e6020830184614a6b565b9392505050565b5f819050919050565b5f6166c86166c36166be846166a5565b615b8c565b614925565b9050919050565b6166d8816166ae565b82525050565b5f6020820190506166f15f8301846166cf565b92915050565b5f61671161670c61670784615a57565b615b8c565b614925565b9050919050565b616721816166f7565b82525050565b5f60408201905061673a5f830185616718565b6167476020830184616718565b9392505050565b5f61675882614925565b915061676383614925565b925082820261677181614925565b9150828204841483151761678857616787615e58565b5b5092915050565b7f4e487b71000000000000000000000000000000000000000000000000000000005f52601260045260245ffd5b5f6167c682614925565b91506167d183614925565b9250826167e1576167e061678f565b5b828204905092915050565b5f819050919050565b5f61680f61680a616805846167ec565b615b8c565b615105565b9050919050565b61681f816167f5565b82525050565b5f6040820190506168385f830185616816565b616845602083018461492e565b9392505050565b5f815f1b9050919050565b5f61687161686c616867846166a5565b61684c565b614ef3565b9050919050565b61688181616857565b82525050565b5f60a0820190508181035f83015261689f818861604a565b905081810360208301526168b3818761565d565b905081810360408301526168c78186616140565b90506168d66060830185616878565b6168e36080830184614fde565b9695505050505050565b5f815190506168fb81614efc565b92915050565b5f602082840312156169165761691561486a565b5b5f616923848285016168ed565b91505092915050565b5f60c0820190508181035f830152616944818961604a565b90508181036020830152616958818861565d565b9050818103604083015261696c8187616140565b905061697b6060830186616878565b6169886080830185614fde565b61699560a083018461492e565b979650505050505050565b5f6040820190506169b35f830185614fde565b81810360208301526169c58184616316565b90509392505050565b5f6169d8826160cf565b6169e28185615d96565b93506169f28185602086016149c5565b80840191505092915050565b5f616a0982846169ce565b915081905092915050565b5f819050919050565b5f616a37616a32616a2d84616a14565b615b8c565b615105565b9050919050565b616a4781616a1d565b82525050565b5f604082019050616a605f830185616a3e565b616a6d602083018461492e565b9392505050565b5f616a7e82615105565b9150616a8983615105565b9250828201905060ff811115616aa257616aa1615e58565b5b92915050565b5f8160011c9050919050565b5f808291508390505b6001851115616afd57808604811115616ad957616ad8615e58565b5b6001851615616ae85780820291505b8081029050616af685616aa8565b9450616abd565b94509492505050565b5f82616b155760019050616bd0565b81616b22575f9050616bd0565b8160018114616b385760028114616b4257616b71565b6001915050616bd0565b60ff841115616b5457616b53615e58565b5b8360020a915084821115616b6b57616b6a615e58565b5b50616bd0565b5060208310610133831016604e8410600b8410161715616ba65782820a905083811115616ba157616ba0615e58565b5b616bd0565b616bb38484846001616ab4565b92509050818404811115616bca57616bc9615e58565b5b81810290505b9392505050565b5f616be182614925565b9150616bec83615105565b9250616c197fffffffffffffffffffffffffffffffffffffffffffffffffffffffffffffffff8484616b06565b905092915050565b5f60a082019050616c345f830188614fde565b616c416020830187614fde565b616c4e6040830186614fde565b616c5b606083018561492e565b616c686080830184614a6b565b9695505050505050565b5f608082019050616c855f830187614fde565b616c926020830186615ddc565b616c9f6040830185614fde565b616cac6060830184614fde565b9594505050505056fea2646970667358221220471c208304acea3054fd5039e7773c86282be71dcf4100ca1f8b478f208e066f64736f6c634300081a0033",
			"opcodes": "PUSH2 0x180 PUSH1 0x40 MSTORE CALLVALUE DUP1 ISZERO PUSH2 0x10 JUMPI PUSH0 DUP1 REVERT JUMPDEST POP PUSH1 0x40 MLOAD PUSH2 0x819F CODESIZE SUB DUP1 PUSH2 0x819F DUP4 CODECOPY DUP2 DUP2 ADD PUSH1 0x40 MSTORE DUP2 ADD SWAP1 PUSH2 0x32 SWAP2 SWAP1 PUSH2 0xC83 JUMP JUMPDEST DUP1 PUSH1 0x4 DUP4 PUSH1 0x78 PUSH2 0xE10 PUSH1 0x1 PUSH1 0x40 MLOAD DUP1 PUSH1 0x40 ADD PUSH1 0x40 MSTORE DUP1 PUSH1 0xA DUP2 MSTORE PUSH1 0x20 ADD PUSH32 0x4D79476F7665726E6F7200000000000000000000000000000000000000000000 DUP2 MSTORE POP DUP1 PUSH2 0x82 PUSH2 0x1C9 PUSH1 0x20 SHL PUSH1 0x20 SHR JUMP JUMPDEST PUSH2 0x95 PUSH0 DUP4 PUSH2 0x206 PUSH1 0x20 SHL SWAP1 SWAP2 SWAP1 PUSH1 0x20 SHR JUMP JUMPDEST PUSH2 0x120 DUP2 DUP2 MSTORE POP POP PUSH2 0xB1 PUSH1 0x1 DUP3 PUSH2 0x206 PUSH1 0x20 SHL SWAP1 SWAP2 SWAP1 PUSH1 0x20 SHR JUMP JUMPDEST PUSH2 0x140 DUP2 DUP2 MSTORE POP POP DUP2 DUP1 MLOAD SWAP1 PUSH1 0x20 ADD KECCAK256 PUSH1 0xE0 DUP2 DUP2 MSTORE POP POP DUP1 DUP1 MLOAD SWAP1 PUSH1 0x20 ADD KECCAK256 PUSH2 0x100 DUP2 DUP2 MSTORE POP POP CHAINID PUSH1 0xA0 DUP2 DUP2 MSTORE POP POP PUSH2 0xEE PUSH2 0x253 PUSH1 0x20 SHL PUSH1 0x20 SHR JUMP JUMPDEST PUSH1 0x80 DUP2 DUP2 MSTORE POP POP ADDRESS PUSH20 0xFFFFFFFFFFFFFFFFFFFFFFFFFFFFFFFFFFFFFFFF AND PUSH1 0xC0 DUP2 PUSH20 0xFFFFFFFFFFFFFFFFFFFFFFFFFFFFFFFFFFFFFFFF AND DUP2 MSTORE POP POP POP POP DUP1 PUSH1 0x3 SWAP1 DUP2 PUSH2 0x13A SWAP2 SWAP1 PUSH2 0xEFB JUMP JUMPDEST POP POP PUSH2 0x14B DUP4 PUSH2 0x2AD PUSH1 0x20 SHL PUSH1 0x20 SHR JUMP JUMPDEST PUSH2 0x15A DUP3 PUSH2 0x320 PUSH1 0x20 SHL PUSH1 0x20 SHR JUMP JUMPDEST PUSH2 0x169 DUP2 PUSH2 0x3D9 PUSH1 0x20 SHL PUSH1 0x20 SHR JUMP JUMPDEST POP POP POP DUP1 PUSH20 0xFFFFFFFFFFFFFFFFFFFFFFFFFFFFFFFFFFFFFFFF AND PUSH2 0x160 DUP2 PUSH20 0xFFFFFFFFFFFFFFFFFFFFFFFFFFFFFFFFFFFFFFFF AND DUP2 MSTORE POP POP POP PUSH2 0x1B1 DUP2 PUSH2 0x41E PUSH1 0x20 SHL PUSH1 0x20 SHR JUMP JUMPDEST POP PUSH2 0x1C1 DUP2 PUSH2 0x4F8 PUSH1 0x20 SHL PUSH1 0x20 SHR JUMP JUMPDEST POP POP POP PUSH2 0x1459 JUMP JUMPDEST PUSH1 0x60 PUSH1 0x40 MLOAD DUP1 PUSH1 0x40 ADD PUSH1 0x40 MSTORE DUP1 PUSH1 0x1 DUP2 MSTORE PUSH1 0x20 ADD PUSH32 0x3100000000000000000000000000000000000000000000000000000000000000 DUP2 MSTORE POP SWAP1 POP SWAP1 JUMP JUMPDEST PUSH0 PUSH1 0x20 DUP4 MLOAD LT ISZERO PUSH2 0x227 JUMPI PUSH2 0x220 DUP4 PUSH2 0x595 PUSH1 0x20 SHL PUSH1 0x20 SHR JUMP JUMPDEST SWAP1 POP PUSH2 0x24D JUMP JUMPDEST DUP3 PUSH2 0x237 DUP4 PUSH2 0x5FA PUSH1 0x20 SHL PUSH1 0x20 SHR JUMP JUMPDEST PUSH0 ADD SWAP1 DUP2 PUSH2 0x245 SWAP2 SWAP1 PUSH2 0xEFB JUMP JUMPDEST POP PUSH1 0xFF PUSH0 SHL SWAP1 POP JUMPDEST SWAP3 SWAP2 POP POP JUMP JUMPDEST PUSH0 PUSH32 0x8B73C3C69BB8FE3D512ECC4CF759CC79239F7B179B0FFACAA9A75D522B39400F PUSH1 0xE0 MLOAD PUSH2 0x100 MLOAD CHAINID ADDRESS PUSH1 0x40 MLOAD PUSH1 0x20 ADD PUSH2 0x292 SWAP6 SWAP5 SWAP4 SWAP3 SWAP2 SWAP1 PUSH2 0x1000 JUMP JUMPDEST PUSH1 0x40 MLOAD PUSH1 0x20 DUP2 DUP4 SUB SUB DUP2 MSTORE SWAP1 PUSH1 0x40 MSTORE DUP1 MLOAD SWAP1 PUSH1 0x20 ADD KECCAK256 SWAP1 POP SWAP1 JUMP JUMPDEST PUSH32 0xC565B045403DC03C2EEA82B81A0465EDAD9E2E7FC4D97E11421C209DA93D7A93 PUSH1 0x8 PUSH0 SWAP1 SLOAD SWAP1 PUSH2 0x100 EXP SWAP1 DIV PUSH6 0xFFFFFFFFFFFF AND DUP3 PUSH1 0x40 MLOAD PUSH2 0x2F1 SWAP3 SWAP2 SWAP1 PUSH2 0x1092 JUMP JUMPDEST PUSH1 0x40 MLOAD DUP1 SWAP2 SUB SWAP1 LOG1 DUP1 PUSH1 0x8 PUSH0 PUSH2 0x100 EXP DUP2 SLOAD DUP2 PUSH6 0xFFFFFFFFFFFF MUL NOT AND SWAP1 DUP4 PUSH6 0xFFFFFFFFFFFF AND MUL OR SWAP1 SSTORE POP POP JUMP JUMPDEST PUSH0 DUP2 PUSH4 0xFFFFFFFF AND SUB PUSH2 0x36A JUMPI PUSH0 PUSH1 0x40 MLOAD PUSH32 0xF1CFBF0500000000000000000000000000000000000000000000000000000000 DUP2 MSTORE PUSH1 0x4 ADD PUSH2 0x361 SWAP2 SWAP1 PUSH2 0x10F2 JUMP JUMPDEST PUSH1 0x40 MLOAD DUP1 SWAP2 SUB SWAP1 REVERT JUMPDEST PUSH32 0x7E3F7F0708A84DE9203036ABAA450DCCC85AD5FF52F78C170F3EDB55CF5E8828 PUSH1 0x8 PUSH1 0x6 SWAP1 SLOAD SWAP1 PUSH2 0x100 EXP SWAP1 DIV PUSH4 0xFFFFFFFF AND DUP3 PUSH1 0x40 MLOAD PUSH2 0x3AD SWAP3 SWAP2 SWAP1 PUSH2 0x114A JUMP JUMPDEST PUSH1 0x40 MLOAD DUP1 SWAP2 SUB SWAP1 LOG1 DUP1 PUSH1 0x8 PUSH1 0x6 PUSH2 0x100 EXP DUP2 SLOAD DUP2 PUSH4 0xFFFFFFFF MUL NOT AND SWAP1 DUP4 PUSH4 0xFFFFFFFF AND MUL OR SWAP1 SSTORE POP POP JUMP JUMPDEST PUSH32 0xCCB45DA8D5717E6C4544694297C4BA5CF151D455C9BB0ED4FC7A38411BC05461 PUSH1 0x7 SLOAD DUP3 PUSH1 0x40 MLOAD PUSH2 0x40C SWAP3 SWAP2 SWAP1 PUSH2 0x1171 JUMP JUMPDEST PUSH1 0x40 MLOAD DUP1 SWAP2 SUB SWAP1 LOG1 DUP1 PUSH1 0x7 DUP2 SWAP1 SSTORE POP POP JUMP JUMPDEST PUSH0 PUSH2 0x42D PUSH2 0x603 PUSH1 0x20 SHL PUSH1 0x20 SHR JUMP JUMPDEST SWAP1 POP DUP1 DUP3 GT ISZERO PUSH2 0x476 JUMPI DUP2 DUP2 PUSH1 0x40 MLOAD PUSH32 0x243E544500000000000000000000000000000000000000000000000000000000 DUP2 MSTORE PUSH1 0x4 ADD PUSH2 0x46D SWAP3 SWAP2 SWAP1 PUSH2 0x1171 JUMP JUMPDEST PUSH1 0x40 MLOAD DUP1 SWAP2 SUB SWAP1 REVERT JUMPDEST PUSH0 PUSH2 0x485 PUSH2 0x60B PUSH1 0x20 SHL PUSH1 0x20 SHR JUMP JUMPDEST SWAP1 POP PUSH2 0x4B8 PUSH2 0x498 PUSH2 0x63D PUSH1 0x20 SHL PUSH1 0x20 SHR JUMP JUMPDEST PUSH2 0x4A7 DUP6 PUSH2 0x6D4 PUSH1 0x20 SHL PUSH1 0x20 SHR JUMP JUMPDEST PUSH1 0xA PUSH2 0x741 PUSH1 0x20 SHL SWAP1 SWAP3 SWAP2 SWAP1 PUSH1 0x20 SHR JUMP JUMPDEST POP POP PUSH32 0x553476BF02EF2726E8CE5CED78D63E26E602E4A2257B1F559418E24B4633997 DUP2 DUP5 PUSH1 0x40 MLOAD PUSH2 0x4EB SWAP3 SWAP2 SWAP1 PUSH2 0x1171 JUMP JUMPDEST PUSH1 0x40 MLOAD DUP1 SWAP2 SUB SWAP1 LOG1 POP POP POP JUMP JUMPDEST PUSH32 0x8F74EA46EF7894F65EABFB5E6E695DE773A000B47C529AB559178069B226401 PUSH1 0xB PUSH0 SWAP1 SLOAD SWAP1 PUSH2 0x100 EXP SWAP1 DIV PUSH20 0xFFFFFFFFFFFFFFFFFFFFFFFFFFFFFFFFFFFFFFFF AND DUP3 PUSH1 0x40 MLOAD PUSH2 0x54A SWAP3 SWAP2 SWAP1 PUSH2 0x1198 JUMP JUMPDEST PUSH1 0x40 MLOAD DUP1 SWAP2 SUB SWAP1 LOG1 DUP1 PUSH1 0xB PUSH0 PUSH2 0x100 EXP DUP2 SLOAD DUP2 PUSH20 0xFFFFFFFFFFFFFFFFFFFFFFFFFFFFFFFFFFFFFFFF MUL NOT AND SWAP1 DUP4 PUSH20 0xFFFFFFFFFFFFFFFFFFFFFFFFFFFFFFFFFFFFFFFF AND MUL OR SWAP1 SSTORE POP POP JUMP JUMPDEST PUSH0 DUP1 DUP3 SWAP1 POP PUSH1 0x1F DUP2 MLOAD GT ISZERO PUSH2 0x5E1 JUMPI DUP3 PUSH1 0x40 MLOAD PUSH32 0x305A27A900000000000000000000000000000000000000000000000000000000 DUP2 MSTORE PUSH1 0x4 ADD PUSH2 0x5D8 SWAP2 SWAP1 PUSH2 0x1225 JUMP JUMPDEST PUSH1 0x40 MLOAD DUP1 SWAP2 SUB SWAP1 REVERT JUMPDEST DUP1 MLOAD DUP2 PUSH2 0x5ED SWAP1 PUSH2 0x1272 JUMP JUMPDEST PUSH0 SHR OR PUSH0 SHL SWAP2 POP POP SWAP2 SWAP1 POP JUMP JUMPDEST PUSH0 DUP2 SWAP1 POP SWAP2 SWAP1 POP JUMP JUMPDEST PUSH0 PUSH1 0x64 SWAP1 POP SWAP1 JUMP JUMPDEST PUSH0 PUSH2 0x61C PUSH1 0xA PUSH2 0x762 PUSH1 0x20 SHL PUSH1 0x20 SHR JUMP JUMPDEST PUSH26 0xFFFFFFFFFFFFFFFFFFFFFFFFFFFFFFFFFFFFFFFFFFFFFFFFFFFF AND SWAP1 POP SWAP1 JUMP JUMPDEST PUSH0 PUSH2 0x64C PUSH2 0x7CA PUSH1 0x20 SHL PUSH1 0x20 SHR JUMP JUMPDEST PUSH20 0xFFFFFFFFFFFFFFFFFFFFFFFFFFFFFFFFFFFFFFFF AND PUSH4 0x91DDADF4 PUSH1 0x40 MLOAD DUP2 PUSH4 0xFFFFFFFF AND PUSH1 0xE0 SHL DUP2 MSTORE PUSH1 0x4 ADD PUSH1 0x20 PUSH1 0x40 MLOAD DUP1 DUP4 SUB DUP2 DUP7 GAS STATICCALL SWAP3 POP POP POP DUP1 ISZERO PUSH2 0x6B3 JUMPI POP PUSH1 0x40 MLOAD RETURNDATASIZE PUSH1 0x1F NOT PUSH1 0x1F DUP3 ADD AND DUP3 ADD DUP1 PUSH1 0x40 MSTORE POP DUP2 ADD SWAP1 PUSH2 0x6B0 SWAP2 SWAP1 PUSH2 0x1302 JUMP JUMPDEST PUSH1 0x1 JUMPDEST PUSH2 0x6CC JUMPI PUSH2 0x6C5 PUSH2 0x7D4 PUSH1 0x20 SHL PUSH1 0x20 SHR JUMP JUMPDEST SWAP1 POP PUSH2 0x6D1 JUMP JUMPDEST DUP1 SWAP2 POP POP JUMPDEST SWAP1 JUMP JUMPDEST PUSH0 PUSH26 0xFFFFFFFFFFFFFFFFFFFFFFFFFFFFFFFFFFFFFFFFFFFFFFFFFFFF DUP1 AND DUP3 GT ISZERO PUSH2 0x739 JUMPI PUSH1 0xD0 DUP3 PUSH1 0x40 MLOAD PUSH32 0x6DFCC65000000000000000000000000000000000000000000000000000000000 DUP2 MSTORE PUSH1 0x4 ADD PUSH2 0x730 SWAP3 SWAP2 SWAP1 PUSH2 0x1372 JUMP JUMPDEST PUSH1 0x40 MLOAD DUP1 SWAP2 SUB SWAP1 REVERT JUMPDEST DUP2 SWAP1 POP SWAP2 SWAP1 POP JUMP JUMPDEST PUSH0 DUP1 PUSH2 0x756 DUP6 PUSH0 ADD DUP6 DUP6 PUSH2 0x7E9 PUSH1 0x20 SHL PUSH1 0x20 SHR JUMP JUMPDEST SWAP2 POP SWAP2 POP SWAP4 POP SWAP4 SWAP2 POP POP JUMP JUMPDEST PUSH0 DUP1 DUP3 PUSH0 ADD DUP1 SLOAD SWAP1 POP SWAP1 POP PUSH0 DUP2 EQ PUSH2 0x7C0 JUMPI PUSH2 0x792 DUP4 PUSH0 ADD PUSH1 0x1 DUP4 PUSH2 0x787 SWAP2 SWAP1 PUSH2 0x13C6 JUMP JUMPDEST PUSH2 0xB5D PUSH1 0x20 SHL PUSH1 0x20 SHR JUMP JUMPDEST PUSH0 ADD PUSH1 0x6 SWAP1 SLOAD SWAP1 PUSH2 0x100 EXP SWAP1 DIV PUSH26 0xFFFFFFFFFFFFFFFFFFFFFFFFFFFFFFFFFFFFFFFFFFFFFFFFFFFF AND PUSH2 0x7C2 JUMP JUMPDEST PUSH0 JUMPDEST SWAP2 POP POP SWAP2 SWAP1 POP JUMP JUMPDEST PUSH0 PUSH2 0x160 MLOAD SWAP1 POP SWAP1 JUMP JUMPDEST PUSH0 PUSH2 0x7E4 NUMBER PUSH2 0xB6F PUSH1 0x20 SHL PUSH1 0x20 SHR JUMP JUMPDEST SWAP1 POP SWAP1 JUMP JUMPDEST PUSH0 DUP1 PUSH0 DUP6 DUP1 SLOAD SWAP1 POP SWAP1 POP PUSH0 DUP2 GT ISZERO PUSH2 0xA75 JUMPI PUSH0 PUSH2 0x818 DUP8 PUSH1 0x1 DUP5 PUSH2 0x80D SWAP2 SWAP1 PUSH2 0x13C6 JUMP JUMPDEST PUSH2 0xB5D PUSH1 0x20 SHL PUSH1 0x20 SHR JUMP JUMPDEST PUSH1 0x40 MLOAD DUP1 PUSH1 0x40 ADD PUSH1 0x40 MSTORE SWAP1 DUP2 PUSH0 DUP3 ADD PUSH0 SWAP1 SLOAD SWAP1 PUSH2 0x100 EXP SWAP1 DIV PUSH6 0xFFFFFFFFFFFF AND PUSH6 0xFFFFFFFFFFFF AND PUSH6 0xFFFFFFFFFFFF AND DUP2 MSTORE PUSH1 0x20 ADD PUSH0 DUP3 ADD PUSH1 0x6 SWAP1 SLOAD SWAP1 PUSH2 0x100 EXP SWAP1 DIV PUSH26 0xFFFFFFFFFFFFFFFFFFFFFFFFFFFFFFFFFFFFFFFFFFFFFFFFFFFF AND PUSH26 0xFFFFFFFFFFFFFFFFFFFFFFFFFFFFFFFFFFFFFFFFFFFFFFFFFFFF AND PUSH26 0xFFFFFFFFFFFFFFFFFFFFFFFFFFFFFFFFFFFFFFFFFFFFFFFFFFFF AND DUP2 MSTORE POP POP SWAP1 POP DUP6 PUSH6 0xFFFFFFFFFFFF AND DUP2 PUSH0 ADD MLOAD PUSH6 0xFFFFFFFFFFFF AND GT ISZERO PUSH2 0x903 JUMPI PUSH1 0x40 MLOAD PUSH32 0x2520601D00000000000000000000000000000000000000000000000000000000 DUP2 MSTORE PUSH1 0x4 ADD PUSH1 0x40 MLOAD DUP1 SWAP2 SUB SWAP1 REVERT JUMPDEST DUP6 PUSH6 0xFFFFFFFFFFFF AND DUP2 PUSH0 ADD MLOAD PUSH6 0xFFFFFFFFFFFF AND SUB PUSH2 0x98B JUMPI DUP5 PUSH2 0x93A DUP9 PUSH1 0x1 DUP6 PUSH2 0x92F SWAP2 SWAP1 PUSH2 0x13C6 JUMP JUMPDEST PUSH2 0xB5D PUSH1 0x20 SHL PUSH1 0x20 SHR JUMP JUMPDEST PUSH0 ADD PUSH1 0x6 PUSH2 0x100 EXP DUP2 SLOAD DUP2 PUSH26 0xFFFFFFFFFFFFFFFFFFFFFFFFFFFFFFFFFFFFFFFFFFFFFFFFFFFF MUL NOT AND SWAP1 DUP4 PUSH26 0xFFFFFFFFFFFFFFFFFFFFFFFFFFFFFFFFFFFFFFFFFFFFFFFFFFFF AND MUL OR SWAP1 SSTORE POP PUSH2 0xA64 JUMP JUMPDEST DUP7 PUSH1 0x40 MLOAD DUP1 PUSH1 0x40 ADD PUSH1 0x40 MSTORE DUP1 DUP9 PUSH6 0xFFFFFFFFFFFF AND DUP2 MSTORE PUSH1 0x20 ADD DUP8 PUSH26 0xFFFFFFFFFFFFFFFFFFFFFFFFFFFFFFFFFFFFFFFFFFFFFFFFFFFF AND DUP2 MSTORE POP SWAP1 DUP1 PUSH1 0x1 DUP2 SLOAD ADD DUP1 DUP3 SSTORE DUP1 SWAP2 POP POP PUSH1 0x1 SWAP1 SUB SWAP1 PUSH0 MSTORE PUSH1 0x20 PUSH0 KECCAK256 ADD PUSH0 SWAP1 SWAP2 SWAP1 SWAP2 SWAP1 SWAP2 POP PUSH0 DUP3 ADD MLOAD DUP2 PUSH0 ADD PUSH0 PUSH2 0x100 EXP DUP2 SLOAD DUP2 PUSH6 0xFFFFFFFFFFFF MUL NOT AND SWAP1 DUP4 PUSH6 0xFFFFFFFFFFFF AND MUL OR SWAP1 SSTORE POP PUSH1 0x20 DUP3 ADD MLOAD DUP2 PUSH0 ADD PUSH1 0x6 PUSH2 0x100 EXP DUP2 SLOAD DUP2 PUSH26 0xFFFFFFFFFFFFFFFFFFFFFFFFFFFFFFFFFFFFFFFFFFFFFFFFFFFF MUL NOT AND SWAP1 DUP4 PUSH26 0xFFFFFFFFFFFFFFFFFFFFFFFFFFFFFFFFFFFFFFFFFFFFFFFFFFFF AND MUL OR SWAP1 SSTORE POP POP POP JUMPDEST DUP1 PUSH1 0x20 ADD MLOAD DUP6 SWAP4 POP SWAP4 POP POP POP PUSH2 0xB55 JUMP JUMPDEST DUP6 PUSH1 0x40 MLOAD DUP1 PUSH1 0x40 ADD PUSH1 0x40 MSTORE DUP1 DUP8 PUSH6 0xFFFFFFFFFFFF AND DUP2 MSTORE PUSH1 0x20 ADD DUP7 PUSH26 0xFFFFFFFFFFFFFFFFFFFFFFFFFFFFFFFFFFFFFFFFFFFFFFFFFFFF AND DUP2 MSTORE POP SWAP1 DUP1 PUSH1 0x1 DUP2 SLOAD ADD DUP1 DUP3 SSTORE DUP1 SWAP2 POP POP PUSH1 0x1 SWAP1 SUB SWAP1 PUSH0 MSTORE PUSH1 0x20 PUSH0 KECCAK256 ADD PUSH0 SWAP1 SWAP2 SWAP1 SWAP2 SWAP1 SWAP2 POP PUSH0 DUP3 ADD MLOAD DUP2 PUSH0 ADD PUSH0 PUSH2 0x100 EXP DUP2 SLOAD DUP2 PUSH6 0xFFFFFFFFFFFF MUL NOT AND SWAP1 DUP4 PUSH6 0xFFFFFFFFFFFF AND MUL OR SWAP1 SSTORE POP PUSH1 0x20 DUP3 ADD MLOAD DUP2 PUSH0 ADD PUSH1 0x6 PUSH2 0x100 EXP DUP2 SLOAD DUP2 PUSH26 0xFFFFFFFFFFFFFFFFFFFFFFFFFFFFFFFFFFFFFFFFFFFFFFFFFFFF MUL NOT AND SWAP1 DUP4 PUSH26 0xFFFFFFFFFFFFFFFFFFFFFFFFFFFFFFFFFFFFFFFFFFFFFFFFFFFF AND MUL OR SWAP1 SSTORE POP POP POP PUSH0 DUP5 SWAP3 POP SWAP3 POP POP JUMPDEST SWAP4 POP SWAP4 SWAP2 POP POP JUMP JUMPDEST PUSH0 DUP3 PUSH0 MSTORE DUP2 PUSH1 0x20 PUSH0 KECCAK256 ADD SWAP1 POP SWAP3 SWAP2 POP POP JUMP JUMPDEST PUSH0 PUSH6 0xFFFFFFFFFFFF DUP1 AND DUP3 GT ISZERO PUSH2 0xBC0 JUMPI PUSH1 0x30 DUP3 PUSH1 0x40 MLOAD PUSH32 0x6DFCC65000000000000000000000000000000000000000000000000000000000 DUP2 MSTORE PUSH1 0x4 ADD PUSH2 0xBB7 SWAP3 SWAP2 SWAP1 PUSH2 0x1432 JUMP JUMPDEST PUSH1 0x40 MLOAD DUP1 SWAP2 SUB SWAP1 REVERT JUMPDEST DUP2 SWAP1 POP SWAP2 SWAP1 POP JUMP JUMPDEST PUSH0 DUP1 REVERT JUMPDEST PUSH0 PUSH20 0xFFFFFFFFFFFFFFFFFFFFFFFFFFFFFFFFFFFFFFFF DUP3 AND SWAP1 POP SWAP2 SWAP1 POP JUMP JUMPDEST PUSH0 PUSH2 0xBF5 DUP3 PUSH2 0xBCC JUMP JUMPDEST SWAP1 POP SWAP2 SWAP1 POP JUMP JUMPDEST PUSH0 PUSH2 0xC06 DUP3 PUSH2 0xBEB JUMP JUMPDEST SWAP1 POP SWAP2 SWAP1 POP JUMP JUMPDEST PUSH2 0xC16 DUP2 PUSH2 0xBFC JUMP JUMPDEST DUP2 EQ PUSH2 0xC20 JUMPI PUSH0 DUP1 REVERT JUMPDEST POP JUMP JUMPDEST PUSH0 DUP2 MLOAD SWAP1 POP PUSH2 0xC31 DUP2 PUSH2 0xC0D JUMP JUMPDEST SWAP3 SWAP2 POP POP JUMP JUMPDEST PUSH0 PUSH2 0xC41 DUP3 PUSH2 0xBCC JUMP JUMPDEST SWAP1 POP SWAP2 SWAP1 POP JUMP JUMPDEST PUSH0 PUSH2 0xC52 DUP3 PUSH2 0xC37 JUMP JUMPDEST SWAP1 POP SWAP2 SWAP1 POP JUMP JUMPDEST PUSH2 0xC62 DUP2 PUSH2 0xC48 JUMP JUMPDEST DUP2 EQ PUSH2 0xC6C JUMPI PUSH0 DUP1 REVERT JUMPDEST POP JUMP JUMPDEST PUSH0 DUP2 MLOAD SWAP1 POP PUSH2 0xC7D DUP2 PUSH2 0xC59 JUMP JUMPDEST SWAP3 SWAP2 POP POP JUMP JUMPDEST PUSH0 DUP1 PUSH1 0x40 DUP4 DUP6 SUB SLT ISZERO PUSH2 0xC99 JUMPI PUSH2 0xC98 PUSH2 0xBC8 JUMP JUMPDEST JUMPDEST PUSH0 PUSH2 0xCA6 DUP6 DUP3 DUP7 ADD PUSH2 0xC23 JUMP JUMPDEST SWAP3 POP POP PUSH1 0x20 PUSH2 0xCB7 DUP6 DUP3 DUP7 ADD PUSH2 0xC6F JUMP JUMPDEST SWAP2 POP POP SWAP3 POP SWAP3 SWAP1 POP JUMP JUMPDEST PUSH0 DUP2 MLOAD SWAP1 POP SWAP2 SWAP1 POP JUMP JUMPDEST PUSH32 0x4E487B7100000000000000000000000000000000000000000000000000000000 PUSH0 MSTORE PUSH1 0x41 PUSH1 0x4 MSTORE PUSH1 0x24 PUSH0 REVERT JUMPDEST PUSH32 0x4E487B7100000000000000000000000000000000000000000000000000000000 PUSH0 MSTORE PUSH1 0x22 PUSH1 0x4 MSTORE PUSH1 0x24 PUSH0 REVERT JUMPDEST PUSH0 PUSH1 0x2 DUP3 DIV SWAP1 POP PUSH1 0x1 DUP3 AND DUP1 PUSH2 0xD3C JUMPI PUSH1 0x7F DUP3 AND SWAP2 POP JUMPDEST PUSH1 0x20 DUP3 LT DUP2 SUB PUSH2 0xD4F JUMPI PUSH2 0xD4E PUSH2 0xCF8 JUMP JUMPDEST JUMPDEST POP SWAP2 SWAP1 POP JUMP JUMPDEST PUSH0 DUP2 SWAP1 POP DUP2 PUSH0 MSTORE PUSH1 0x20 PUSH0 KECCAK256 SWAP1 POP SWAP2 SWAP1 POP JUMP JUMPDEST PUSH0 PUSH1 0x20 PUSH1 0x1F DUP4 ADD DIV SWAP1 POP SWAP2 SWAP1 POP JUMP JUMPDEST PUSH0 DUP3 DUP3 SHL SWAP1 POP SWAP3 SWAP2 POP POP JUMP JUMPDEST PUSH0 PUSH1 0x8 DUP4 MUL PUSH2 0xDB1 PUSH32 0xFFFFFFFFFFFFFFFFFFFFFFFFFFFFFFFFFFFFFFFFFFFFFFFFFFFFFFFFFFFFFFFF DUP3 PUSH2 0xD76 JUMP JUMPDEST PUSH2 0xDBB DUP7 DUP4 PUSH2 0xD76 JUMP JUMPDEST SWAP6 POP DUP1 NOT DUP5 AND SWAP4 POP DUP1 DUP7 AND DUP5 OR SWAP3 POP POP POP SWAP4 SWAP3 POP POP POP JUMP JUMPDEST PUSH0 DUP2 SWAP1 POP SWAP2 SWAP1 POP JUMP JUMPDEST PUSH0 DUP2 SWAP1 POP SWAP2 SWAP1 POP JUMP JUMPDEST PUSH0 PUSH2 0xDFF PUSH2 0xDFA PUSH2 0xDF5 DUP5 PUSH2 0xDD3 JUMP JUMPDEST PUSH2 0xDDC JUMP JUMPDEST PUSH2 0xDD3 JUMP JUMPDEST SWAP1 POP SWAP2 SWAP1 POP JUMP JUMPDEST PUSH0 DUP2 SWAP1 POP SWAP2 SWAP1 POP JUMP JUMPDEST PUSH2 0xE18 DUP4 PUSH2 0xDE5 JUMP JUMPDEST PUSH2 0xE2C PUSH2 0xE24 DUP3 PUSH2 0xE06 JUMP JUMPDEST DUP5 DUP5 SLOAD PUSH2 0xD82 JUMP JUMPDEST DUP3 SSTORE POP POP POP POP JUMP JUMPDEST PUSH0 SWAP1 JUMP JUMPDEST PUSH2 0xE40 PUSH2 0xE34 JUMP JUMPDEST PUSH2 0xE4B DUP2 DUP5 DUP5 PUSH2 0xE0F JUMP JUMPDEST POP POP POP JUMP JUMPDEST JUMPDEST DUP2 DUP2 LT ISZERO PUSH2 0xE6E JUMPI PUSH2 0xE63 PUSH0 DUP3 PUSH2 0xE38 JUMP JUMPDEST PUSH1 0x1 DUP2 ADD SWAP1 POP PUSH2 0xE51 JUMP JUMPDEST POP POP JUMP JUMPDEST PUSH1 0x1F DUP3 GT ISZERO PUSH2 0xEB3 JUMPI PUSH2 0xE84 DUP2 PUSH2 0xD55 JUMP JUMPDEST PUSH2 0xE8D DUP5 PUSH2 0xD67 JUMP JUMPDEST DUP2 ADD PUSH1 0x20 DUP6 LT ISZERO PUSH2 0xE9C JUMPI DUP2 SWAP1 POP JUMPDEST PUSH2 0xEB0 PUSH2 0xEA8 DUP6 PUSH2 0xD67 JUMP JUMPDEST DUP4 ADD DUP3 PUSH2 0xE50 JUMP JUMPDEST POP POP JUMPDEST POP POP POP JUMP JUMPDEST PUSH0 DUP3 DUP3 SHR SWAP1 POP SWAP3 SWAP2 POP POP JUMP JUMPDEST PUSH0 PUSH2 0xED3 PUSH0 NOT DUP5 PUSH1 0x8 MUL PUSH2 0xEB8 JUMP JUMPDEST NOT DUP1 DUP4 AND SWAP2 POP POP SWAP3 SWAP2 POP POP JUMP JUMPDEST PUSH0 PUSH2 0xEEB DUP4 DUP4 PUSH2 0xEC4 JUMP JUMPDEST SWAP2 POP DUP3 PUSH1 0x2 MUL DUP3 OR SWAP1 POP SWAP3 SWAP2 POP POP JUMP JUMPDEST PUSH2 0xF04 DUP3 PUSH2 0xCC1 JUMP JUMPDEST PUSH8 0xFFFFFFFFFFFFFFFF DUP2 GT ISZERO PUSH2 0xF1D JUMPI PUSH2 0xF1C PUSH2 0xCCB JUMP JUMPDEST JUMPDEST PUSH2 0xF27 DUP3 SLOAD PUSH2 0xD25 JUMP JUMPDEST PUSH2 0xF32 DUP3 DUP3 DUP6 PUSH2 0xE72 JUMP JUMPDEST PUSH0 PUSH1 0x20 SWAP1 POP PUSH1 0x1F DUP4 GT PUSH1 0x1 DUP2 EQ PUSH2 0xF63 JUMPI PUSH0 DUP5 ISZERO PUSH2 0xF51 JUMPI DUP3 DUP8 ADD MLOAD SWAP1 POP JUMPDEST PUSH2 0xF5B DUP6 DUP3 PUSH2 0xEE0 JUMP JUMPDEST DUP7 SSTORE POP PUSH2 0xFC2 JUMP JUMPDEST PUSH1 0x1F NOT DUP5 AND PUSH2 0xF71 DUP7 PUSH2 0xD55 JUMP JUMPDEST PUSH0 JUMPDEST DUP3 DUP2 LT ISZERO PUSH2 0xF98 JUMPI DUP5 DUP10 ADD MLOAD DUP3 SSTORE PUSH1 0x1 DUP3 ADD SWAP2 POP PUSH1 0x20 DUP6 ADD SWAP5 POP PUSH1 0x20 DUP2 ADD SWAP1 POP PUSH2 0xF73 JUMP JUMPDEST DUP7 DUP4 LT ISZERO PUSH2 0xFB5 JUMPI DUP5 DUP10 ADD MLOAD PUSH2 0xFB1 PUSH1 0x1F DUP10 AND DUP3 PUSH2 0xEC4 JUMP JUMPDEST DUP4 SSTORE POP JUMPDEST PUSH1 0x1 PUSH1 0x2 DUP9 MUL ADD DUP9 SSTORE POP POP POP JUMPDEST POP POP POP POP POP POP JUMP JUMPDEST PUSH0 DUP2 SWAP1 POP SWAP2 SWAP1 POP JUMP JUMPDEST PUSH2 0xFDC DUP2 PUSH2 0xFCA JUMP JUMPDEST DUP3 MSTORE POP POP JUMP JUMPDEST PUSH2 0xFEB DUP2 PUSH2 0xDD3 JUMP JUMPDEST DUP3 MSTORE POP POP JUMP JUMPDEST PUSH2 0xFFA DUP2 PUSH2 0xBEB JUMP JUMPDEST DUP3 MSTORE POP POP JUMP JUMPDEST PUSH0 PUSH1 0xA0 DUP3 ADD SWAP1 POP PUSH2 0x1013 PUSH0 DUP4 ADD DUP9 PUSH2 0xFD3 JUMP JUMPDEST PUSH2 0x1020 PUSH1 0x20 DUP4 ADD DUP8 PUSH2 0xFD3 JUMP JUMPDEST PUSH2 0x102D PUSH1 0x40 DUP4 ADD DUP7 PUSH2 0xFD3 JUMP JUMPDEST PUSH2 0x103A PUSH1 0x60 DUP4 ADD DUP6 PUSH2 0xFE2 JUMP JUMPDEST PUSH2 0x1047 PUSH1 0x80 DUP4 ADD DUP5 PUSH2 0xFF1 JUMP JUMPDEST SWAP7 SWAP6 POP POP POP POP POP POP JUMP JUMPDEST PUSH0 PUSH6 0xFFFFFFFFFFFF DUP3 AND SWAP1 POP SWAP2 SWAP1 POP JUMP JUMPDEST PUSH0 PUSH2 0x107C PUSH2 0x1077 PUSH2 0x1072 DUP5 PUSH2 0x1051 JUMP JUMPDEST PUSH2 0xDDC JUMP JUMPDEST PUSH2 0xDD3 JUMP JUMPDEST SWAP1 POP SWAP2 SWAP1 POP JUMP JUMPDEST PUSH2 0x108C DUP2 PUSH2 0x1062 JUMP JUMPDEST DUP3 MSTORE POP POP JUMP JUMPDEST PUSH0 PUSH1 0x40 DUP3 ADD SWAP1 POP PUSH2 0x10A5 PUSH0 DUP4 ADD DUP6 PUSH2 0x1083 JUMP JUMPDEST PUSH2 0x10B2 PUSH1 0x20 DUP4 ADD DUP5 PUSH2 0x1083 JUMP JUMPDEST SWAP4 SWAP3 POP POP POP JUMP JUMPDEST PUSH0 DUP2 SWAP1 POP SWAP2 SWAP1 POP JUMP JUMPDEST PUSH0 PUSH2 0x10DC PUSH2 0x10D7 PUSH2 0x10D2 DUP5 PUSH2 0x10B9 JUMP JUMPDEST PUSH2 0xDDC JUMP JUMPDEST PUSH2 0xDD3 JUMP JUMPDEST SWAP1 POP SWAP2 SWAP1 POP JUMP JUMPDEST PUSH2 0x10EC DUP2 PUSH2 0x10C2 JUMP JUMPDEST DUP3 MSTORE POP POP JUMP JUMPDEST PUSH0 PUSH1 0x20 DUP3 ADD SWAP1 POP PUSH2 0x1105 PUSH0 DUP4 ADD DUP5 PUSH2 0x10E3 JUMP JUMPDEST SWAP3 SWAP2 POP POP JUMP JUMPDEST PUSH0 PUSH4 0xFFFFFFFF DUP3 AND SWAP1 POP SWAP2 SWAP1 POP JUMP JUMPDEST PUSH0 PUSH2 0x1134 PUSH2 0x112F PUSH2 0x112A DUP5 PUSH2 0x110B JUMP JUMPDEST PUSH2 0xDDC JUMP JUMPDEST PUSH2 0xDD3 JUMP JUMPDEST SWAP1 POP SWAP2 SWAP1 POP JUMP JUMPDEST PUSH2 0x1144 DUP2 PUSH2 0x111A JUMP JUMPDEST DUP3 MSTORE POP POP JUMP JUMPDEST PUSH0 PUSH1 0x40 DUP3 ADD SWAP1 POP PUSH2 0x115D PUSH0 DUP4 ADD DUP6 PUSH2 0x113B JUMP JUMPDEST PUSH2 0x116A PUSH1 0x20 DUP4 ADD DUP5 PUSH2 0x113B JUMP JUMPDEST SWAP4 SWAP3 POP POP POP JUMP JUMPDEST PUSH0 PUSH1 0x40 DUP3 ADD SWAP1 POP PUSH2 0x1184 PUSH0 DUP4 ADD DUP6 PUSH2 0xFE2 JUMP JUMPDEST PUSH2 0x1191 PUSH1 0x20 DUP4 ADD DUP5 PUSH2 0xFE2 JUMP JUMPDEST SWAP4 SWAP3 POP POP POP JUMP JUMPDEST PUSH0 PUSH1 0x40 DUP3 ADD SWAP1 POP PUSH2 0x11AB PUSH0 DUP4 ADD DUP6 PUSH2 0xFF1 JUMP JUMPDEST PUSH2 0x11B8 PUSH1 0x20 DUP4 ADD DUP5 PUSH2 0xFF1 JUMP JUMPDEST SWAP4 SWAP3 POP POP POP JUMP JUMPDEST PUSH0 DUP3 DUP3 MSTORE PUSH1 0x20 DUP3 ADD SWAP1 POP SWAP3 SWAP2 POP POP JUMP JUMPDEST DUP3 DUP2 DUP4 MCOPY PUSH0 DUP4 DUP4 ADD MSTORE POP POP POP JUMP JUMPDEST PUSH0 PUSH1 0x1F NOT PUSH1 0x1F DUP4 ADD AND SWAP1 POP SWAP2 SWAP1 POP JUMP JUMPDEST PUSH0 PUSH2 0x11F7 DUP3 PUSH2 0xCC1 JUMP JUMPDEST PUSH2 0x1201 DUP2 DUP6 PUSH2 0x11BF JUMP JUMPDEST SWAP4 POP PUSH2 0x1211 DUP2 DUP6 PUSH1 0x20 DUP7 ADD PUSH2 0x11CF JUMP JUMPDEST PUSH2 0x121A DUP2 PUSH2 0x11DD JUMP JUMPDEST DUP5 ADD SWAP2 POP POP SWAP3 SWAP2 POP POP JUMP JUMPDEST PUSH0 PUSH1 0x20 DUP3 ADD SWAP1 POP DUP2 DUP2 SUB PUSH0 DUP4 ADD MSTORE PUSH2 0x123D DUP2 DUP5 PUSH2 0x11ED JUMP JUMPDEST SWAP1 POP SWAP3 SWAP2 POP POP JUMP JUMPDEST PUSH0 DUP2 MLOAD SWAP1 POP SWAP2 SWAP1 POP JUMP JUMPDEST PUSH0 DUP2 SWAP1 POP PUSH1 0x20 DUP3 ADD SWAP1 POP SWAP2 SWAP1 POP JUMP JUMPDEST PUSH0 PUSH2 0x1269 DUP3 MLOAD PUSH2 0xFCA JUMP JUMPDEST DUP1 SWAP2 POP POP SWAP2 SWAP1 POP JUMP JUMPDEST PUSH0 PUSH2 0x127C DUP3 PUSH2 0x1245 JUMP JUMPDEST DUP3 PUSH2 0x1286 DUP5 PUSH2 0x124F JUMP JUMPDEST SWAP1 POP PUSH2 0x1291 DUP2 PUSH2 0x125E JUMP JUMPDEST SWAP3 POP PUSH1 0x20 DUP3 LT ISZERO PUSH2 0x12D1 JUMPI PUSH2 0x12CC PUSH32 0xFFFFFFFFFFFFFFFFFFFFFFFFFFFFFFFFFFFFFFFFFFFFFFFFFFFFFFFFFFFFFFFF DUP4 PUSH1 0x20 SUB PUSH1 0x8 MUL PUSH2 0xD76 JUMP JUMPDEST DUP4 AND SWAP3 POP JUMPDEST POP POP SWAP2 SWAP1 POP JUMP JUMPDEST PUSH2 0x12E1 DUP2 PUSH2 0x1051 JUMP JUMPDEST DUP2 EQ PUSH2 0x12EB JUMPI PUSH0 DUP1 REVERT JUMPDEST POP JUMP JUMPDEST PUSH0 DUP2 MLOAD SWAP1 POP PUSH2 0x12FC DUP2 PUSH2 0x12D8 JUMP JUMPDEST SWAP3 SWAP2 POP POP JUMP JUMPDEST PUSH0 PUSH1 0x20 DUP3 DUP5 SUB SLT ISZERO PUSH2 0x1317 JUMPI PUSH2 0x1316 PUSH2 0xBC8 JUMP JUMPDEST JUMPDEST PUSH0 PUSH2 0x1324 DUP5 DUP3 DUP6 ADD PUSH2 0x12EE JUMP JUMPDEST SWAP2 POP POP SWAP3 SWAP2 POP POP JUMP JUMPDEST PUSH0 DUP2 SWAP1 POP SWAP2 SWAP1 POP JUMP JUMPDEST PUSH0 PUSH1 0xFF DUP3 AND SWAP1 POP SWAP2 SWAP1 POP JUMP JUMPDEST PUSH0 PUSH2 0x135C PUSH2 0x1357 PUSH2 0x1352 DUP5 PUSH2 0x132D JUMP JUMPDEST PUSH2 0xDDC JUMP JUMPDEST PUSH2 0x1336 JUMP JUMPDEST SWAP1 POP SWAP2 SWAP1 POP JUMP JUMPDEST PUSH2 0x136C DUP2 PUSH2 0x1342 JUMP JUMPDEST DUP3 MSTORE POP POP JUMP JUMPDEST PUSH0 PUSH1 0x40 DUP3 ADD SWAP1 POP PUSH2 0x1385 PUSH0 DUP4 ADD DUP6 PUSH2 0x1363 JUMP JUMPDEST PUSH2 0x1392 PUSH1 0x20 DUP4 ADD DUP5 PUSH2 0xFE2 JUMP JUMPDEST SWAP4 SWAP3 POP POP POP JUMP JUMPDEST PUSH32 0x4E487B7100000000000000000000000000000000000000000000000000000000 PUSH0 MSTORE PUSH1 0x11 PUSH1 0x4 MSTORE PUSH1 0x24 PUSH0 REVERT JUMPDEST PUSH0 PUSH2 0x13D0 DUP3 PUSH2 0xDD3 JUMP JUMPDEST SWAP2 POP PUSH2 0x13DB DUP4 PUSH2 0xDD3 JUMP JUMPDEST SWAP3 POP DUP3 DUP3 SUB SWAP1 POP DUP2 DUP2 GT ISZERO PUSH2 0x13F3 JUMPI PUSH2 0x13F2 PUSH2 0x1399 JUMP JUMPDEST JUMPDEST SWAP3 SWAP2 POP POP JUMP JUMPDEST PUSH0 DUP2 SWAP1 POP SWAP2 SWAP1 POP JUMP JUMPDEST PUSH0 PUSH2 0x141C PUSH2 0x1417 PUSH2 0x1412 DUP5 PUSH2 0x13F9 JUMP JUMPDEST PUSH2 0xDDC JUMP JUMPDEST PUSH2 0x1336 JUMP JUMPDEST SWAP1 POP SWAP2 SWAP1 POP JUMP JUMPDEST PUSH2 0x142C DUP2 PUSH2 0x1402 JUMP JUMPDEST DUP3 MSTORE POP POP JUMP JUMPDEST PUSH0 PUSH1 0x40 DUP3 ADD SWAP1 POP PUSH2 0x1445 PUSH0 DUP4 ADD DUP6 PUSH2 0x1423 JUMP JUMPDEST PUSH2 0x1452 PUSH1 0x20 DUP4 ADD DUP5 PUSH2 0xFE2 JUMP JUMPDEST SWAP4 SWAP3 POP POP POP JUMP JUMPDEST PUSH1 0x80 MLOAD PUSH1 0xA0 MLOAD PUSH1 0xC0 MLOAD PUSH1 0xE0 MLOAD PUSH2 0x100 MLOAD PUSH2 0x120 MLOAD PUSH2 0x140 MLOAD PUSH2 0x160 MLOAD PUSH2 0x6CEB PUSH2 0x14B4 PUSH0 CODECOPY PUSH0 PUSH2 0x1EDC ADD MSTORE PUSH0 PUSH2 0x2DF7 ADD MSTORE PUSH0 PUSH2 0x2DBC ADD MSTORE PUSH0 PUSH2 0x4556 ADD MSTORE PUSH0 PUSH2 0x4535 ADD MSTORE PUSH0 PUSH2 0x388D ADD MSTORE PUSH0 PUSH2 0x38E3 ADD MSTORE PUSH0 PUSH2 0x390C ADD MSTORE PUSH2 0x6CEB PUSH0 RETURN INVALID PUSH1 0x80 PUSH1 0x40 MSTORE PUSH1 0x4 CALLDATASIZE LT PUSH2 0x296 JUMPI PUSH0 CALLDATALOAD PUSH1 0xE0 SHR DUP1 PUSH4 0x7ECEBE00 GT PUSH2 0x159 JUMPI DUP1 PUSH4 0xC01F9E37 GT PUSH2 0xC0 JUMPI DUP1 PUSH4 0xE540D01D GT PUSH2 0x79 JUMPI DUP1 PUSH4 0xE540D01D EQ PUSH2 0xB89 JUMPI DUP1 PUSH4 0xEB9019D4 EQ PUSH2 0xBB1 JUMPI DUP1 PUSH4 0xECE40CC1 EQ PUSH2 0xBED JUMPI DUP1 PUSH4 0xF23A6E61 EQ PUSH2 0xC15 JUMPI DUP1 PUSH4 0xF8CE560A EQ PUSH2 0xC51 JUMPI DUP1 PUSH4 0xFC0C546A EQ PUSH2 0xC8D JUMPI PUSH2 0x309 JUMP JUMPDEST DUP1 PUSH4 0xC01F9E37 EQ PUSH2 0xA77 JUMPI DUP1 PUSH4 0xC28BC2FA EQ PUSH2 0xAB3 JUMPI DUP1 PUSH4 0xC59057E4 EQ PUSH2 0xACF JUMPI DUP1 PUSH4 0xD33219B4 EQ PUSH2 0xB0B JUMPI DUP1 PUSH4 0xDD4E2BA5 EQ PUSH2 0xB35 JUMPI DUP1 PUSH4 0xDEAAA7CC EQ PUSH2 0xB5F JUMPI PUSH2 0x309 JUMP JUMPDEST DUP1 PUSH4 0xA7713A70 GT PUSH2 0x112 JUMPI DUP1 PUSH4 0xA7713A70 EQ PUSH2 0x947 JUMPI DUP1 PUSH4 0xA890C910 EQ PUSH2 0x971 JUMPI DUP1 PUSH4 0xA9A95294 EQ PUSH2 0x999 JUMPI DUP1 PUSH4 0xAB58FB8E EQ PUSH2 0x9D5 JUMPI DUP1 PUSH4 0xB58131B0 EQ PUSH2 0xA11 JUMPI DUP1 PUSH4 0xBC197C81 EQ PUSH2 0xA3B JUMPI PUSH2 0x309 JUMP JUMPDEST DUP1 PUSH4 0x7ECEBE00 EQ PUSH2 0x80F JUMPI DUP1 PUSH4 0x84B0196E EQ PUSH2 0x84B JUMPI DUP1 PUSH4 0x8FF262E3 EQ PUSH2 0x87B JUMPI DUP1 PUSH4 0x91DDADF4 EQ PUSH2 0x8B7 JUMPI DUP1 PUSH4 0x97C3D334 EQ PUSH2 0x8E1 JUMPI DUP1 PUSH4 0x9A802A6D EQ PUSH2 0x90B JUMPI PUSH2 0x309 JUMP JUMPDEST DUP1 PUSH4 0x43859632 GT PUSH2 0x1FD JUMPI DUP1 PUSH4 0x5B8D0E0D GT PUSH2 0x1B6 JUMPI DUP1 PUSH4 0x5B8D0E0D EQ PUSH2 0x6BB JUMPI DUP1 PUSH4 0x5F398A14 EQ PUSH2 0x6F7 JUMPI DUP1 PUSH4 0x60C4247F EQ PUSH2 0x733 JUMPI DUP1 PUSH4 0x79051887 EQ PUSH2 0x76F JUMPI DUP1 PUSH4 0x7B3C71D3 EQ PUSH2 0x797 JUMPI DUP1 PUSH4 0x7D5E81E2 EQ PUSH2 0x7D3 JUMPI PUSH2 0x309 JUMP JUMPDEST DUP1 PUSH4 0x43859632 EQ PUSH2 0x575 JUMPI DUP1 PUSH4 0x452115D6 EQ PUSH2 0x5B1 JUMPI DUP1 PUSH4 0x4BF5D7E9 EQ PUSH2 0x5ED JUMPI DUP1 PUSH4 0x544FFC9C EQ PUSH2 0x617 JUMPI DUP1 PUSH4 0x54FD4D50 EQ PUSH2 0x655 JUMPI DUP1 PUSH4 0x56781388 EQ PUSH2 0x67F JUMPI PUSH2 0x309 JUMP JUMPDEST DUP1 PUSH4 0x160CBED7 GT PUSH2 0x24F JUMPI DUP1 PUSH4 0x160CBED7 EQ PUSH2 0x43D JUMPI DUP1 PUSH4 0x2656227D EQ PUSH2 0x479 JUMPI DUP1 PUSH4 0x2D63F693 EQ PUSH2 0x4A9 JUMPI DUP1 PUSH4 0x2FE3E261 EQ PUSH2 0x4E5 JUMPI DUP1 PUSH4 0x3932ABB1 EQ PUSH2 0x50F JUMPI DUP1 PUSH4 0x3E4F49E6 EQ PUSH2 0x539 JUMPI PUSH2 0x309 JUMP JUMPDEST DUP1 PUSH4 0x1FFC9A7 EQ PUSH2 0x30D JUMPI DUP1 PUSH4 0x2A251A3 EQ PUSH2 0x349 JUMPI DUP1 PUSH4 0x6F3F9E6 EQ PUSH2 0x373 JUMPI DUP1 PUSH4 0x6FDDE03 EQ PUSH2 0x39B JUMPI DUP1 PUSH4 0x143489D0 EQ PUSH2 0x3C5 JUMPI DUP1 PUSH4 0x150B7A02 EQ PUSH2 0x401 JUMPI PUSH2 0x309 JUMP JUMPDEST CALLDATASIZE PUSH2 0x309 JUMPI ADDRESS PUSH20 0xFFFFFFFFFFFFFFFFFFFFFFFFFFFFFFFFFFFFFFFF AND PUSH2 0x2BA PUSH2 0xCB7 JUMP JUMPDEST PUSH20 0xFFFFFFFFFFFFFFFFFFFFFFFFFFFFFFFFFFFFFFFF AND EQ PUSH2 0x307 JUMPI PUSH1 0x40 MLOAD PUSH32 0xE90A651E00000000000000000000000000000000000000000000000000000000 DUP2 MSTORE PUSH1 0x4 ADD PUSH1 0x40 MLOAD DUP1 SWAP2 SUB SWAP1 REVERT JUMPDEST STOP JUMPDEST PUSH0 DUP1 REVERT JUMPDEST CALLVALUE DUP1 ISZERO PUSH2 0x318 JUMPI PUSH0 DUP1 REVERT JUMPDEST POP PUSH2 0x333 PUSH1 0x4 DUP1 CALLDATASIZE SUB DUP2 ADD SWAP1 PUSH2 0x32E SWAP2 SWAP1 PUSH2 0x48C7 JUMP JUMPDEST PUSH2 0xCC5 JUMP JUMPDEST PUSH1 0x40 MLOAD PUSH2 0x340 SWAP2 SWAP1 PUSH2 0x490C JUMP JUMPDEST PUSH1 0x40 MLOAD DUP1 SWAP2 SUB SWAP1 RETURN JUMPDEST CALLVALUE DUP1 ISZERO PUSH2 0x354 JUMPI PUSH0 DUP1 REVERT JUMPDEST POP PUSH2 0x35D PUSH2 0xDA6 JUMP JUMPDEST PUSH1 0x40 MLOAD PUSH2 0x36A SWAP2 SWAP1 PUSH2 0x493D JUMP JUMPDEST PUSH1 0x40 MLOAD DUP1 SWAP2 SUB SWAP1 RETURN JUMPDEST CALLVALUE DUP1 ISZERO PUSH2 0x37E JUMPI PUSH0 DUP1 REVERT JUMPDEST POP PUSH2 0x399 PUSH1 0x4 DUP1 CALLDATASIZE SUB DUP2 ADD SWAP1 PUSH2 0x394 SWAP2 SWAP1 PUSH2 0x4980 JUMP JUMPDEST PUSH2 0xDB4 JUMP JUMPDEST STOP JUMPDEST CALLVALUE DUP1 ISZERO PUSH2 0x3A6 JUMPI PUSH0 DUP1 REVERT JUMPDEST POP PUSH2 0x3AF PUSH2 0xDC8 JUMP JUMPDEST PUSH1 0x40 MLOAD PUSH2 0x3BC SWAP2 SWAP1 PUSH2 0x4A1B JUMP JUMPDEST PUSH1 0x40 MLOAD DUP1 SWAP2 SUB SWAP1 RETURN JUMPDEST CALLVALUE DUP1 ISZERO PUSH2 0x3D0 JUMPI PUSH0 DUP1 REVERT JUMPDEST POP PUSH2 0x3EB PUSH1 0x4 DUP1 CALLDATASIZE SUB DUP2 ADD SWAP1 PUSH2 0x3E6 SWAP2 SWAP1 PUSH2 0x4980 JUMP JUMPDEST PUSH2 0xE58 JUMP JUMPDEST PUSH1 0x40 MLOAD PUSH2 0x3F8 SWAP2 SWAP1 PUSH2 0x4A7A JUMP JUMPDEST PUSH1 0x40 MLOAD DUP1 SWAP2 SUB SWAP1 RETURN JUMPDEST CALLVALUE DUP1 ISZERO PUSH2 0x40C JUMPI PUSH0 DUP1 REVERT JUMPDEST POP PUSH2 0x427 PUSH1 0x4 DUP1 CALLDATASIZE SUB DUP2 ADD SWAP1 PUSH2 0x422 SWAP2 SWAP1 PUSH2 0x4BE9 JUMP JUMPDEST PUSH2 0xE93 JUMP JUMPDEST PUSH1 0x40 MLOAD PUSH2 0x434 SWAP2 SWAP1 PUSH2 0x4C78 JUMP JUMPDEST PUSH1 0x40 MLOAD DUP1 SWAP2 SUB SWAP1 RETURN JUMPDEST CALLVALUE DUP1 ISZERO PUSH2 0x448 JUMPI PUSH0 DUP1 REVERT JUMPDEST POP PUSH2 0x463 PUSH1 0x4 DUP1 CALLDATASIZE SUB DUP2 ADD SWAP1 PUSH2 0x45E SWAP2 SWAP1 PUSH2 0x4F26 JUMP JUMPDEST PUSH2 0xF12 JUMP JUMPDEST PUSH1 0x40 MLOAD PUSH2 0x470 SWAP2 SWAP1 PUSH2 0x493D JUMP JUMPDEST PUSH1 0x40 MLOAD DUP1 SWAP2 SUB SWAP1 RETURN JUMPDEST PUSH2 0x493 PUSH1 0x4 DUP1 CALLDATASIZE SUB DUP2 ADD SWAP1 PUSH2 0x48E SWAP2 SWAP1 PUSH2 0x4F26 JUMP JUMPDEST PUSH2 0x1008 JUMP JUMPDEST PUSH1 0x40 MLOAD PUSH2 0x4A0 SWAP2 SWAP1 PUSH2 0x493D JUMP JUMPDEST PUSH1 0x40 MLOAD DUP1 SWAP2 SUB SWAP1 RETURN JUMPDEST CALLVALUE DUP1 ISZERO PUSH2 0x4B4 JUMPI PUSH0 DUP1 REVERT JUMPDEST POP PUSH2 0x4CF PUSH1 0x4 DUP1 CALLDATASIZE SUB DUP2 ADD SWAP1 PUSH2 0x4CA SWAP2 SWAP1 PUSH2 0x4980 JUMP JUMPDEST PUSH2 0x11E2 JUMP JUMPDEST PUSH1 0x40 MLOAD PUSH2 0x4DC SWAP2 SWAP1 PUSH2 0x493D JUMP JUMPDEST PUSH1 0x40 MLOAD DUP1 SWAP2 SUB SWAP1 RETURN JUMPDEST CALLVALUE DUP1 ISZERO PUSH2 0x4F0 JUMPI PUSH0 DUP1 REVERT JUMPDEST POP PUSH2 0x4F9 PUSH2 0x1218 JUMP JUMPDEST PUSH1 0x40 MLOAD PUSH2 0x506 SWAP2 SWAP1 PUSH2 0x4FED JUMP JUMPDEST PUSH1 0x40 MLOAD DUP1 SWAP2 SUB SWAP1 RETURN JUMPDEST CALLVALUE DUP1 ISZERO PUSH2 0x51A JUMPI PUSH0 DUP1 REVERT JUMPDEST POP PUSH2 0x523 PUSH2 0x123C JUMP JUMPDEST PUSH1 0x40 MLOAD PUSH2 0x530 SWAP2 SWAP1 PUSH2 0x493D JUMP JUMPDEST PUSH1 0x40 MLOAD DUP1 SWAP2 SUB SWAP1 RETURN JUMPDEST CALLVALUE DUP1 ISZERO PUSH2 0x544 JUMPI PUSH0 DUP1 REVERT JUMPDEST POP PUSH2 0x55F PUSH1 0x4 DUP1 CALLDATASIZE SUB DUP2 ADD SWAP1 PUSH2 0x55A SWAP2 SWAP1 PUSH2 0x4980 JUMP JUMPDEST PUSH2 0x124A JUMP JUMPDEST PUSH1 0x40 MLOAD PUSH2 0x56C SWAP2 SWAP1 PUSH2 0x5079 JUMP JUMPDEST PUSH1 0x40 MLOAD DUP1 SWAP2 SUB SWAP1 RETURN JUMPDEST CALLVALUE DUP1 ISZERO PUSH2 0x580 JUMPI PUSH0 DUP1 REVERT JUMPDEST POP PUSH2 0x59B PUSH1 0x4 DUP1 CALLDATASIZE SUB DUP2 ADD SWAP1 PUSH2 0x596 SWAP2 SWAP1 PUSH2 0x5092 JUMP JUMPDEST PUSH2 0x125B JUMP JUMPDEST PUSH1 0x40 MLOAD PUSH2 0x5A8 SWAP2 SWAP1 PUSH2 0x490C JUMP JUMPDEST PUSH1 0x40 MLOAD DUP1 SWAP2 SUB SWAP1 RETURN JUMPDEST CALLVALUE DUP1 ISZERO PUSH2 0x5BC JUMPI PUSH0 DUP1 REVERT JUMPDEST POP PUSH2 0x5D7 PUSH1 0x4 DUP1 CALLDATASIZE SUB DUP2 ADD SWAP1 PUSH2 0x5D2 SWAP2 SWAP1 PUSH2 0x4F26 JUMP JUMPDEST PUSH2 0x12C0 JUMP JUMPDEST PUSH1 0x40 MLOAD PUSH2 0x5E4 SWAP2 SWAP1 PUSH2 0x493D JUMP JUMPDEST PUSH1 0x40 MLOAD DUP1 SWAP2 SUB SWAP1 RETURN JUMPDEST CALLVALUE DUP1 ISZERO PUSH2 0x5F8 JUMPI PUSH0 DUP1 REVERT JUMPDEST POP PUSH2 0x601 PUSH2 0x1380 JUMP JUMPDEST PUSH1 0x40 MLOAD PUSH2 0x60E SWAP2 SWAP1 PUSH2 0x4A1B JUMP JUMPDEST PUSH1 0x40 MLOAD DUP1 SWAP2 SUB SWAP1 RETURN JUMPDEST CALLVALUE DUP1 ISZERO PUSH2 0x622 JUMPI PUSH0 DUP1 REVERT JUMPDEST POP PUSH2 0x63D PUSH1 0x4 DUP1 CALLDATASIZE SUB DUP2 ADD SWAP1 PUSH2 0x638 SWAP2 SWAP1 PUSH2 0x4980 JUMP JUMPDEST PUSH2 0x143D JUMP JUMPDEST PUSH1 0x40 MLOAD PUSH2 0x64C SWAP4 SWAP3 SWAP2 SWAP1 PUSH2 0x50D0 JUMP JUMPDEST PUSH1 0x40 MLOAD DUP1 SWAP2 SUB SWAP1 RETURN JUMPDEST CALLVALUE DUP1 ISZERO PUSH2 0x660 JUMPI PUSH0 DUP1 REVERT JUMPDEST POP PUSH2 0x669 PUSH2 0x1470 JUMP JUMPDEST PUSH1 0x40 MLOAD PUSH2 0x676 SWAP2 SWAP1 PUSH2 0x4A1B JUMP JUMPDEST PUSH1 0x40 MLOAD DUP1 SWAP2 SUB SWAP1 RETURN JUMPDEST CALLVALUE DUP1 ISZERO PUSH2 0x68A JUMPI PUSH0 DUP1 REVERT JUMPDEST POP PUSH2 0x6A5 PUSH1 0x4 DUP1 CALLDATASIZE SUB DUP2 ADD SWAP1 PUSH2 0x6A0 SWAP2 SWAP1 PUSH2 0x513B JUMP JUMPDEST PUSH2 0x14AD JUMP JUMPDEST PUSH1 0x40 MLOAD PUSH2 0x6B2 SWAP2 SWAP1 PUSH2 0x493D JUMP JUMPDEST PUSH1 0x40 MLOAD DUP1 SWAP2 SUB SWAP1 RETURN JUMPDEST CALLVALUE DUP1 ISZERO PUSH2 0x6C6 JUMPI PUSH0 DUP1 REVERT JUMPDEST POP PUSH2 0x6E1 PUSH1 0x4 DUP1 CALLDATASIZE SUB DUP2 ADD SWAP1 PUSH2 0x6DC SWAP2 SWAP1 PUSH2 0x51D2 JUMP JUMPDEST PUSH2 0x14DC JUMP JUMPDEST PUSH1 0x40 MLOAD PUSH2 0x6EE SWAP2 SWAP1 PUSH2 0x493D JUMP JUMPDEST PUSH1 0x40 MLOAD DUP1 SWAP2 SUB SWAP1 RETURN JUMPDEST CALLVALUE DUP1 ISZERO PUSH2 0x702 JUMPI PUSH0 DUP1 REVERT JUMPDEST POP PUSH2 0x71D PUSH1 0x4 DUP1 CALLDATASIZE SUB DUP2 ADD SWAP1 PUSH2 0x718 SWAP2 SWAP1 PUSH2 0x52B4 JUMP JUMPDEST PUSH2 0x160B JUMP JUMPDEST PUSH1 0x40 MLOAD PUSH2 0x72A SWAP2 SWAP1 PUSH2 0x493D JUMP JUMPDEST PUSH1 0x40 MLOAD DUP1 SWAP2 SUB SWAP1 RETURN JUMPDEST CALLVALUE DUP1 ISZERO PUSH2 0x73E JUMPI PUSH0 DUP1 REVERT JUMPDEST POP PUSH2 0x759 PUSH1 0x4 DUP1 CALLDATASIZE SUB DUP2 ADD SWAP1 PUSH2 0x754 SWAP2 SWAP1 PUSH2 0x4980 JUMP JUMPDEST PUSH2 0x1673 JUMP JUMPDEST PUSH1 0x40 MLOAD PUSH2 0x766 SWAP2 SWAP1 PUSH2 0x493D JUMP JUMPDEST PUSH1 0x40 MLOAD DUP1 SWAP2 SUB SWAP1 RETURN JUMPDEST CALLVALUE DUP1 ISZERO PUSH2 0x77A JUMPI PUSH0 DUP1 REVERT JUMPDEST POP PUSH2 0x795 PUSH1 0x4 DUP1 CALLDATASIZE SUB DUP2 ADD SWAP1 PUSH2 0x790 SWAP2 SWAP1 PUSH2 0x538F JUMP JUMPDEST PUSH2 0x176C JUMP JUMPDEST STOP JUMPDEST CALLVALUE DUP1 ISZERO PUSH2 0x7A2 JUMPI PUSH0 DUP1 REVERT JUMPDEST POP PUSH2 0x7BD PUSH1 0x4 DUP1 CALLDATASIZE SUB DUP2 ADD SWAP1 PUSH2 0x7B8 SWAP2 SWAP1 PUSH2 0x53BA JUMP JUMPDEST PUSH2 0x1780 JUMP JUMPDEST PUSH1 0x40 MLOAD PUSH2 0x7CA SWAP2 SWAP1 PUSH2 0x493D JUMP JUMPDEST PUSH1 0x40 MLOAD DUP1 SWAP2 SUB SWAP1 RETURN JUMPDEST CALLVALUE DUP1 ISZERO PUSH2 0x7DE JUMPI PUSH0 DUP1 REVERT JUMPDEST POP PUSH2 0x7F9 PUSH1 0x4 DUP1 CALLDATASIZE SUB DUP2 ADD SWAP1 PUSH2 0x7F4 SWAP2 SWAP1 PUSH2 0x54C9 JUMP JUMPDEST PUSH2 0x17E6 JUMP JUMPDEST PUSH1 0x40 MLOAD PUSH2 0x806 SWAP2 SWAP1 PUSH2 0x493D JUMP JUMPDEST PUSH1 0x40 MLOAD DUP1 SWAP2 SUB SWAP1 RETURN JUMPDEST CALLVALUE DUP1 ISZERO PUSH2 0x81A JUMPI PUSH0 DUP1 REVERT JUMPDEST POP PUSH2 0x835 PUSH1 0x4 DUP1 CALLDATASIZE SUB DUP2 ADD SWAP1 PUSH2 0x830 SWAP2 SWAP1 PUSH2 0x559D JUMP JUMPDEST PUSH2 0x18D3 JUMP JUMPDEST PUSH1 0x40 MLOAD PUSH2 0x842 SWAP2 SWAP1 PUSH2 0x493D JUMP JUMPDEST PUSH1 0x40 MLOAD DUP1 SWAP2 SUB SWAP1 RETURN JUMPDEST CALLVALUE DUP1 ISZERO PUSH2 0x856 JUMPI PUSH0 DUP1 REVERT JUMPDEST POP PUSH2 0x85F PUSH2 0x1919 JUMP JUMPDEST PUSH1 0x40 MLOAD PUSH2 0x872 SWAP8 SWAP7 SWAP6 SWAP5 SWAP4 SWAP3 SWAP2 SWAP1 PUSH2 0x56B9 JUMP JUMPDEST PUSH1 0x40 MLOAD DUP1 SWAP2 SUB SWAP1 RETURN JUMPDEST CALLVALUE DUP1 ISZERO PUSH2 0x886 JUMPI PUSH0 DUP1 REVERT JUMPDEST POP PUSH2 0x8A1 PUSH1 0x4 DUP1 CALLDATASIZE SUB DUP2 ADD SWAP1 PUSH2 0x89C SWAP2 SWAP1 PUSH2 0x573B JUMP JUMPDEST PUSH2 0x19BE JUMP JUMPDEST PUSH1 0x40 MLOAD PUSH2 0x8AE SWAP2 SWAP1 PUSH2 0x493D JUMP JUMPDEST PUSH1 0x40 MLOAD DUP1 SWAP2 SUB SWAP1 RETURN JUMPDEST CALLVALUE DUP1 ISZERO PUSH2 0x8C2 JUMPI PUSH0 DUP1 REVERT JUMPDEST POP PUSH2 0x8CB PUSH2 0x1A92 JUMP JUMPDEST PUSH1 0x40 MLOAD PUSH2 0x8D8 SWAP2 SWAP1 PUSH2 0x57CA JUMP JUMPDEST PUSH1 0x40 MLOAD DUP1 SWAP2 SUB SWAP1 RETURN JUMPDEST CALLVALUE DUP1 ISZERO PUSH2 0x8EC JUMPI PUSH0 DUP1 REVERT JUMPDEST POP PUSH2 0x8F5 PUSH2 0x1B1D JUMP JUMPDEST PUSH1 0x40 MLOAD PUSH2 0x902 SWAP2 SWAP1 PUSH2 0x493D JUMP JUMPDEST PUSH1 0x40 MLOAD DUP1 SWAP2 SUB SWAP1 RETURN JUMPDEST CALLVALUE DUP1 ISZERO PUSH2 0x916 JUMPI PUSH0 DUP1 REVERT JUMPDEST POP PUSH2 0x931 PUSH1 0x4 DUP1 CALLDATASIZE SUB DUP2 ADD SWAP1 PUSH2 0x92C SWAP2 SWAP1 PUSH2 0x57E3 JUMP JUMPDEST PUSH2 0x1B25 JUMP JUMPDEST PUSH1 0x40 MLOAD PUSH2 0x93E SWAP2 SWAP1 PUSH2 0x493D JUMP JUMPDEST PUSH1 0x40 MLOAD DUP1 SWAP2 SUB SWAP1 RETURN JUMPDEST CALLVALUE DUP1 ISZERO PUSH2 0x952 JUMPI PUSH0 DUP1 REVERT JUMPDEST POP PUSH2 0x95B PUSH2 0x1B3A JUMP JUMPDEST PUSH1 0x40 MLOAD PUSH2 0x968 SWAP2 SWAP1 PUSH2 0x493D JUMP JUMPDEST PUSH1 0x40 MLOAD DUP1 SWAP2 SUB SWAP1 RETURN JUMPDEST CALLVALUE DUP1 ISZERO PUSH2 0x97C JUMPI PUSH0 DUP1 REVERT JUMPDEST POP PUSH2 0x997 PUSH1 0x4 DUP1 CALLDATASIZE SUB DUP2 ADD SWAP1 PUSH2 0x992 SWAP2 SWAP1 PUSH2 0x589B JUMP JUMPDEST PUSH2 0x1B66 JUMP JUMPDEST STOP JUMPDEST CALLVALUE DUP1 ISZERO PUSH2 0x9A4 JUMPI PUSH0 DUP1 REVERT JUMPDEST POP PUSH2 0x9BF PUSH1 0x4 DUP1 CALLDATASIZE SUB DUP2 ADD SWAP1 PUSH2 0x9BA SWAP2 SWAP1 PUSH2 0x4980 JUMP JUMPDEST PUSH2 0x1B7A JUMP JUMPDEST PUSH1 0x40 MLOAD PUSH2 0x9CC SWAP2 SWAP1 PUSH2 0x490C JUMP JUMPDEST PUSH1 0x40 MLOAD DUP1 SWAP2 SUB SWAP1 RETURN JUMPDEST CALLVALUE DUP1 ISZERO PUSH2 0x9E0 JUMPI PUSH0 DUP1 REVERT JUMPDEST POP PUSH2 0x9FB PUSH1 0x4 DUP1 CALLDATASIZE SUB DUP2 ADD SWAP1 PUSH2 0x9F6 SWAP2 SWAP1 PUSH2 0x4980 JUMP JUMPDEST PUSH2 0x1B8B JUMP JUMPDEST PUSH1 0x40 MLOAD PUSH2 0xA08 SWAP2 SWAP1 PUSH2 0x493D JUMP JUMPDEST PUSH1 0x40 MLOAD DUP1 SWAP2 SUB SWAP1 RETURN JUMPDEST CALLVALUE DUP1 ISZERO PUSH2 0xA1C JUMPI PUSH0 DUP1 REVERT JUMPDEST POP PUSH2 0xA25 PUSH2 0x1BC1 JUMP JUMPDEST PUSH1 0x40 MLOAD PUSH2 0xA32 SWAP2 SWAP1 PUSH2 0x493D JUMP JUMPDEST PUSH1 0x40 MLOAD DUP1 SWAP2 SUB SWAP1 RETURN JUMPDEST CALLVALUE DUP1 ISZERO PUSH2 0xA46 JUMPI PUSH0 DUP1 REVERT JUMPDEST POP PUSH2 0xA61 PUSH1 0x4 DUP1 CALLDATASIZE SUB DUP2 ADD SWAP1 PUSH2 0xA5C SWAP2 SWAP1 PUSH2 0x58C6 JUMP JUMPDEST PUSH2 0x1BCF JUMP JUMPDEST PUSH1 0x40 MLOAD PUSH2 0xA6E SWAP2 SWAP1 PUSH2 0x4C78 JUMP JUMPDEST PUSH1 0x40 MLOAD DUP1 SWAP2 SUB SWAP1 RETURN JUMPDEST CALLVALUE DUP1 ISZERO PUSH2 0xA82 JUMPI PUSH0 DUP1 REVERT JUMPDEST POP PUSH2 0xA9D PUSH1 0x4 DUP1 CALLDATASIZE SUB DUP2 ADD SWAP1 PUSH2 0xA98 SWAP2 SWAP1 PUSH2 0x4980 JUMP JUMPDEST PUSH2 0x1C4F JUMP JUMPDEST PUSH1 0x40 MLOAD PUSH2 0xAAA SWAP2 SWAP1 PUSH2 0x493D JUMP JUMPDEST PUSH1 0x40 MLOAD DUP1 SWAP2 SUB SWAP1 RETURN JUMPDEST PUSH2 0xACD PUSH1 0x4 DUP1 CALLDATASIZE SUB DUP2 ADD SWAP1 PUSH2 0xAC8 SWAP2 SWAP1 PUSH2 0x59E6 JUMP JUMPDEST PUSH2 0x1CB9 JUMP JUMPDEST STOP JUMPDEST CALLVALUE DUP1 ISZERO PUSH2 0xADA JUMPI PUSH0 DUP1 REVERT JUMPDEST POP PUSH2 0xAF5 PUSH1 0x4 DUP1 CALLDATASIZE SUB DUP2 ADD SWAP1 PUSH2 0xAF0 SWAP2 SWAP1 PUSH2 0x4F26 JUMP JUMPDEST PUSH2 0x1D42 JUMP JUMPDEST PUSH1 0x40 MLOAD PUSH2 0xB02 SWAP2 SWAP1 PUSH2 0x493D JUMP JUMPDEST PUSH1 0x40 MLOAD DUP1 SWAP2 SUB SWAP1 RETURN JUMPDEST CALLVALUE DUP1 ISZERO PUSH2 0xB16 JUMPI PUSH0 DUP1 REVERT JUMPDEST POP PUSH2 0xB1F PUSH2 0x1D7C JUMP JUMPDEST PUSH1 0x40 MLOAD PUSH2 0xB2C SWAP2 SWAP1 PUSH2 0x4A7A JUMP JUMPDEST PUSH1 0x40 MLOAD DUP1 SWAP2 SUB SWAP1 RETURN JUMPDEST CALLVALUE DUP1 ISZERO PUSH2 0xB40 JUMPI PUSH0 DUP1 REVERT JUMPDEST POP PUSH2 0xB49 PUSH2 0x1DA4 JUMP JUMPDEST PUSH1 0x40 MLOAD PUSH2 0xB56 SWAP2 SWAP1 PUSH2 0x4A1B JUMP JUMPDEST PUSH1 0x40 MLOAD DUP1 SWAP2 SUB SWAP1 RETURN JUMPDEST CALLVALUE DUP1 ISZERO PUSH2 0xB6A JUMPI PUSH0 DUP1 REVERT JUMPDEST POP PUSH2 0xB73 PUSH2 0x1DE1 JUMP JUMPDEST PUSH1 0x40 MLOAD PUSH2 0xB80 SWAP2 SWAP1 PUSH2 0x4FED JUMP JUMPDEST PUSH1 0x40 MLOAD DUP1 SWAP2 SUB SWAP1 RETURN JUMPDEST CALLVALUE DUP1 ISZERO PUSH2 0xB94 JUMPI PUSH0 DUP1 REVERT JUMPDEST POP PUSH2 0xBAF PUSH1 0x4 DUP1 CALLDATASIZE SUB DUP2 ADD SWAP1 PUSH2 0xBAA SWAP2 SWAP1 PUSH2 0x5A90 JUMP JUMPDEST PUSH2 0x1E05 JUMP JUMPDEST STOP JUMPDEST CALLVALUE DUP1 ISZERO PUSH2 0xBBC JUMPI PUSH0 DUP1 REVERT JUMPDEST POP PUSH2 0xBD7 PUSH1 0x4 DUP1 CALLDATASIZE SUB DUP2 ADD SWAP1 PUSH2 0xBD2 SWAP2 SWAP1 PUSH2 0x5ABB JUMP JUMPDEST PUSH2 0x1E19 JUMP JUMPDEST PUSH1 0x40 MLOAD PUSH2 0xBE4 SWAP2 SWAP1 PUSH2 0x493D JUMP JUMPDEST PUSH1 0x40 MLOAD DUP1 SWAP2 SUB SWAP1 RETURN JUMPDEST CALLVALUE DUP1 ISZERO PUSH2 0xBF8 JUMPI PUSH0 DUP1 REVERT JUMPDEST POP PUSH2 0xC13 PUSH1 0x4 DUP1 CALLDATASIZE SUB DUP2 ADD SWAP1 PUSH2 0xC0E SWAP2 SWAP1 PUSH2 0x4980 JUMP JUMPDEST PUSH2 0x1E34 JUMP JUMPDEST STOP JUMPDEST CALLVALUE DUP1 ISZERO PUSH2 0xC20 JUMPI PUSH0 DUP1 REVERT JUMPDEST POP PUSH2 0xC3B PUSH1 0x4 DUP1 CALLDATASIZE SUB DUP2 ADD SWAP1 PUSH2 0xC36 SWAP2 SWAP1 PUSH2 0x5AF9 JUMP JUMPDEST PUSH2 0x1E48 JUMP JUMPDEST PUSH1 0x40 MLOAD PUSH2 0xC48 SWAP2 SWAP1 PUSH2 0x4C78 JUMP JUMPDEST PUSH1 0x40 MLOAD DUP1 SWAP2 SUB SWAP1 RETURN JUMPDEST CALLVALUE DUP1 ISZERO PUSH2 0xC5C JUMPI PUSH0 DUP1 REVERT JUMPDEST POP PUSH2 0xC77 PUSH1 0x4 DUP1 CALLDATASIZE SUB DUP2 ADD SWAP1 PUSH2 0xC72 SWAP2 SWAP1 PUSH2 0x4980 JUMP JUMPDEST PUSH2 0x1EC8 JUMP JUMPDEST PUSH1 0x40 MLOAD PUSH2 0xC84 SWAP2 SWAP1 PUSH2 0x493D JUMP JUMPDEST PUSH1 0x40 MLOAD DUP1 SWAP2 SUB SWAP1 RETURN JUMPDEST CALLVALUE DUP1 ISZERO PUSH2 0xC98 JUMPI PUSH0 DUP1 REVERT JUMPDEST POP PUSH2 0xCA1 PUSH2 0x1ED9 JUMP JUMPDEST PUSH1 0x40 MLOAD PUSH2 0xCAE SWAP2 SWAP1 PUSH2 0x5BE7 JUMP JUMPDEST PUSH1 0x40 MLOAD DUP1 SWAP2 SUB SWAP1 RETURN JUMPDEST PUSH0 PUSH2 0xCC0 PUSH2 0x1F00 JUMP JUMPDEST SWAP1 POP SWAP1 JUMP JUMPDEST PUSH0 PUSH32 0x65455A8600000000000000000000000000000000000000000000000000000000 PUSH28 0xFFFFFFFFFFFFFFFFFFFFFFFFFFFFFFFFFFFFFFFFFFFFFFFFFFFFFFFF NOT AND DUP3 PUSH28 0xFFFFFFFFFFFFFFFFFFFFFFFFFFFFFFFFFFFFFFFFFFFFFFFFFFFFFFFF NOT AND EQ DUP1 PUSH2 0xD8F JUMPI POP PUSH32 0x4E2312E000000000000000000000000000000000000000000000000000000000 PUSH28 0xFFFFFFFFFFFFFFFFFFFFFFFFFFFFFFFFFFFFFFFFFFFFFFFFFFFFFFFF NOT AND DUP3 PUSH28 0xFFFFFFFFFFFFFFFFFFFFFFFFFFFFFFFFFFFFFFFFFFFFFFFFFFFFFFFF NOT AND EQ JUMPDEST DUP1 PUSH2 0xD9F JUMPI POP PUSH2 0xD9E DUP3 PUSH2 0x1F28 JUMP JUMPDEST JUMPDEST SWAP1 POP SWAP2 SWAP1 POP JUMP JUMPDEST PUSH0 PUSH2 0xDAF PUSH2 0x1F91 JUMP JUMPDEST SWAP1 POP SWAP1 JUMP JUMPDEST PUSH2 0xDBC PUSH2 0x1FB0 JUMP JUMPDEST PUSH2 0xDC5 DUP2 PUSH2 0x20A5 JUMP JUMPDEST POP JUMP JUMPDEST PUSH1 0x60 PUSH1 0x3 DUP1 SLOAD PUSH2 0xDD7 SWAP1 PUSH2 0x5C2D JUMP JUMPDEST DUP1 PUSH1 0x1F ADD PUSH1 0x20 DUP1 SWAP2 DIV MUL PUSH1 0x20 ADD PUSH1 0x40 MLOAD SWAP1 DUP2 ADD PUSH1 0x40 MSTORE DUP1 SWAP3 SWAP2 SWAP1 DUP2 DUP2 MSTORE PUSH1 0x20 ADD DUP3 DUP1 SLOAD PUSH2 0xE03 SWAP1 PUSH2 0x5C2D JUMP JUMPDEST DUP1 ISZERO PUSH2 0xE4E JUMPI DUP1 PUSH1 0x1F LT PUSH2 0xE25 JUMPI PUSH2 0x100 DUP1 DUP4 SLOAD DIV MUL DUP4 MSTORE SWAP2 PUSH1 0x20 ADD SWAP2 PUSH2 0xE4E JUMP JUMPDEST DUP3 ADD SWAP2 SWAP1 PUSH0 MSTORE PUSH1 0x20 PUSH0 KECCAK256 SWAP1 JUMPDEST DUP2 SLOAD DUP2 MSTORE SWAP1 PUSH1 0x1 ADD SWAP1 PUSH1 0x20 ADD DUP1 DUP4 GT PUSH2 0xE31 JUMPI DUP3 SWAP1 SUB PUSH1 0x1F AND DUP3 ADD SWAP2 JUMPDEST POP POP POP POP POP SWAP1 POP SWAP1 JUMP JUMPDEST PUSH0 PUSH1 0x4 PUSH0 DUP4 DUP2 MSTORE PUSH1 0x20 ADD SWAP1 DUP2 MSTORE PUSH1 0x20 ADD PUSH0 KECCAK256 PUSH0 ADD PUSH0 SWAP1 SLOAD SWAP1 PUSH2 0x100 EXP SWAP1 DIV PUSH20 0xFFFFFFFFFFFFFFFFFFFFFFFFFFFFFFFFFFFFFFFF AND SWAP1 POP SWAP2 SWAP1 POP JUMP JUMPDEST PUSH0 ADDRESS PUSH20 0xFFFFFFFFFFFFFFFFFFFFFFFFFFFFFFFFFFFFFFFF AND PUSH2 0xEB3 PUSH2 0xCB7 JUMP JUMPDEST PUSH20 0xFFFFFFFFFFFFFFFFFFFFFFFFFFFFFFFFFFFFFFFF AND EQ PUSH2 0xF00 JUMPI PUSH1 0x40 MLOAD PUSH32 0xE90A651E00000000000000000000000000000000000000000000000000000000 DUP2 MSTORE PUSH1 0x4 ADD PUSH1 0x40 MLOAD DUP1 SWAP2 SUB SWAP1 REVERT JUMPDEST PUSH4 0x150B7A02 PUSH1 0xE0 SHL SWAP1 POP SWAP5 SWAP4 POP POP POP POP JUMP JUMPDEST PUSH0 DUP1 PUSH2 0xF20 DUP7 DUP7 DUP7 DUP7 PUSH2 0x1D42 JUMP JUMPDEST SWAP1 POP PUSH2 0xF35 DUP2 PUSH2 0xF30 PUSH1 0x4 PUSH2 0x2167 JUMP JUMPDEST PUSH2 0x218B JUMP JUMPDEST POP PUSH0 PUSH2 0xF44 DUP3 DUP9 DUP9 DUP9 DUP9 PUSH2 0x21F6 JUMP JUMPDEST SWAP1 POP PUSH0 DUP2 PUSH6 0xFFFFFFFFFFFF AND EQ PUSH2 0xFC9 JUMPI DUP1 PUSH1 0x4 PUSH0 DUP5 DUP2 MSTORE PUSH1 0x20 ADD SWAP1 DUP2 MSTORE PUSH1 0x20 ADD PUSH0 KECCAK256 PUSH1 0x1 ADD PUSH0 PUSH2 0x100 EXP DUP2 SLOAD DUP2 PUSH6 0xFFFFFFFFFFFF MUL NOT AND SWAP1 DUP4 PUSH6 0xFFFFFFFFFFFF AND MUL OR SWAP1 SSTORE POP PUSH32 0x9A2E42FD6722813D69113E7D0079D3D940171428DF7373DF9C7F7617CFDA2892 DUP3 DUP3 PUSH1 0x40 MLOAD PUSH2 0xFBC SWAP3 SWAP2 SWAP1 PUSH2 0x5C8D JUMP JUMPDEST PUSH1 0x40 MLOAD DUP1 SWAP2 SUB SWAP1 LOG1 PUSH2 0xFFB JUMP JUMPDEST PUSH1 0x40 MLOAD PUSH32 0x90884A4600000000000000000000000000000000000000000000000000000000 DUP2 MSTORE PUSH1 0x4 ADD PUSH1 0x40 MLOAD DUP1 SWAP2 SUB SWAP1 REVERT JUMPDEST DUP2 SWAP3 POP POP POP SWAP5 SWAP4 POP POP POP POP JUMP JUMPDEST PUSH0 DUP1 PUSH2 0x1016 DUP7 DUP7 DUP7 DUP7 PUSH2 0x1D42 JUMP JUMPDEST SWAP1 POP PUSH2 0x1036 DUP2 PUSH2 0x1026 PUSH1 0x5 PUSH2 0x2167 JUMP JUMPDEST PUSH2 0x1030 PUSH1 0x4 PUSH2 0x2167 JUMP JUMPDEST OR PUSH2 0x218B JUMP JUMPDEST POP PUSH1 0x1 PUSH1 0x4 PUSH0 DUP4 DUP2 MSTORE PUSH1 0x20 ADD SWAP1 DUP2 MSTORE PUSH1 0x20 ADD PUSH0 KECCAK256 PUSH0 ADD PUSH1 0x1E PUSH2 0x100 EXP DUP2 SLOAD DUP2 PUSH1 0xFF MUL NOT AND SWAP1 DUP4 ISZERO ISZERO MUL OR SWAP1 SSTORE POP ADDRESS PUSH20 0xFFFFFFFFFFFFFFFFFFFFFFFFFFFFFFFFFFFFFFFF AND PUSH2 0x1082 PUSH2 0xCB7 JUMP JUMPDEST PUSH20 0xFFFFFFFFFFFFFFFFFFFFFFFFFFFFFFFFFFFFFFFF AND EQ PUSH2 0x1138 JUMPI PUSH0 JUMPDEST DUP7 MLOAD DUP2 LT ISZERO PUSH2 0x1136 JUMPI ADDRESS PUSH20 0xFFFFFFFFFFFFFFFFFFFFFFFFFFFFFFFFFFFFFFFF AND DUP8 DUP3 DUP2 MLOAD DUP2 LT PUSH2 0x10D2 JUMPI PUSH2 0x10D1 PUSH2 0x5CB4 JUMP JUMPDEST JUMPDEST PUSH1 0x20 MUL PUSH1 0x20 ADD ADD MLOAD PUSH20 0xFFFFFFFFFFFFFFFFFFFFFFFFFFFFFFFFFFFFFFFF AND SUB PUSH2 0x112B JUMPI PUSH2 0x112A DUP6 DUP3 DUP2 MLOAD DUP2 LT PUSH2 0x110B JUMPI PUSH2 0x110A PUSH2 0x5CB4 JUMP JUMPDEST JUMPDEST PUSH1 0x20 MUL PUSH1 0x20 ADD ADD MLOAD DUP1 MLOAD SWAP1 PUSH1 0x20 ADD KECCAK256 PUSH1 0x5 PUSH2 0x220F SWAP1 SWAP2 SWAP1 PUSH4 0xFFFFFFFF AND JUMP JUMPDEST JUMPDEST DUP1 PUSH1 0x1 ADD SWAP1 POP PUSH2 0x109F JUMP JUMPDEST POP JUMPDEST PUSH2 0x1145 DUP2 DUP8 DUP8 DUP8 DUP8 PUSH2 0x232E JUMP JUMPDEST ADDRESS PUSH20 0xFFFFFFFFFFFFFFFFFFFFFFFFFFFFFFFFFFFFFFFF AND PUSH2 0x1164 PUSH2 0xCB7 JUMP JUMPDEST PUSH20 0xFFFFFFFFFFFFFFFFFFFFFFFFFFFFFFFFFFFFFFFF AND EQ ISZERO DUP1 ISZERO PUSH2 0x118F JUMPI POP PUSH2 0x118D PUSH1 0x5 PUSH2 0x2342 JUMP JUMPDEST ISZERO JUMPDEST ISZERO PUSH2 0x119F JUMPI PUSH2 0x119E PUSH1 0x5 PUSH2 0x23AE JUMP JUMPDEST JUMPDEST PUSH32 0x712AE1383F79AC853F8D882153778E0260EF8F03B504E2866E0593E04D2B291F DUP2 PUSH1 0x40 MLOAD PUSH2 0x11CE SWAP2 SWAP1 PUSH2 0x493D JUMP JUMPDEST PUSH1 0x40 MLOAD DUP1 SWAP2 SUB SWAP1 LOG1 DUP1 SWAP2 POP POP SWAP5 SWAP4 POP POP POP POP JUMP JUMPDEST PUSH0 PUSH1 0x4 PUSH0 DUP4 DUP2 MSTORE PUSH1 0x20 ADD SWAP1 DUP2 MSTORE PUSH1 0x20 ADD PUSH0 KECCAK256 PUSH0 ADD PUSH1 0x14 SWAP1 SLOAD SWAP1 PUSH2 0x100 EXP SWAP1 DIV PUSH6 0xFFFFFFFFFFFF AND PUSH6 0xFFFFFFFFFFFF AND SWAP1 POP SWAP2 SWAP1 POP JUMP JUMPDEST PUSH32 0x3E83946653575F9A39005E1545185629E92736B7528AB20CA3816F315424A811 DUP2 JUMP JUMPDEST PUSH0 PUSH2 0x1245 PUSH2 0x2424 JUMP JUMPDEST SWAP1 POP SWAP1 JUMP JUMPDEST PUSH0 PUSH2 0x1254 DUP3 PUSH2 0x2446 JUMP JUMPDEST SWAP1 POP SWAP2 SWAP1 POP JUMP JUMPDEST PUSH0 PUSH1 0x9 PUSH0 DUP5 DUP2 MSTORE PUSH1 0x20 ADD SWAP1 DUP2 MSTORE PUSH1 0x20 ADD PUSH0 KECCAK256 PUSH1 0x3 ADD PUSH0 DUP4 PUSH20 0xFFFFFFFFFFFFFFFFFFFFFFFFFFFFFFFFFFFFFFFF AND PUSH20 0xFFFFFFFFFFFFFFFFFFFFFFFFFFFFFFFFFFFFFFFF AND DUP2 MSTORE PUSH1 0x20 ADD SWAP1 DUP2 MSTORE PUSH1 0x20 ADD PUSH0 KECCAK256 PUSH0 SWAP1 SLOAD SWAP1 PUSH2 0x100 EXP SWAP1 DIV PUSH1 0xFF AND SWAP1 POP SWAP3 SWAP2 POP POP JUMP JUMPDEST PUSH0 DUP1 PUSH2 0x12CE DUP7 DUP7 DUP7 DUP7 PUSH2 0x1D42 JUMP JUMPDEST SWAP1 POP PUSH2 0x12E2 DUP2 PUSH2 0x12DD PUSH0 PUSH2 0x2167 JUMP JUMPDEST PUSH2 0x218B JUMP JUMPDEST POP PUSH2 0x12EC DUP2 PUSH2 0xE58 JUMP JUMPDEST PUSH20 0xFFFFFFFFFFFFFFFFFFFFFFFFFFFFFFFFFFFFFFFF AND PUSH2 0x130A PUSH2 0x25FB JUMP JUMPDEST PUSH20 0xFFFFFFFFFFFFFFFFFFFFFFFFFFFFFFFFFFFFFFFF AND EQ PUSH2 0x1369 JUMPI PUSH2 0x132D PUSH2 0x25FB JUMP JUMPDEST PUSH1 0x40 MLOAD PUSH32 0x233D98E300000000000000000000000000000000000000000000000000000000 DUP2 MSTORE PUSH1 0x4 ADD PUSH2 0x1360 SWAP2 SWAP1 PUSH2 0x4A7A JUMP JUMPDEST PUSH1 0x40 MLOAD DUP1 SWAP2 SUB SWAP1 REVERT JUMPDEST PUSH2 0x1375 DUP7 DUP7 DUP7 DUP7 PUSH2 0x2602 JUMP JUMPDEST SWAP2 POP POP SWAP5 SWAP4 POP POP POP POP JUMP JUMPDEST PUSH1 0x60 PUSH2 0x138A PUSH2 0x1ED9 JUMP JUMPDEST PUSH20 0xFFFFFFFFFFFFFFFFFFFFFFFFFFFFFFFFFFFFFFFF AND PUSH4 0x4BF5D7E9 PUSH1 0x40 MLOAD DUP2 PUSH4 0xFFFFFFFF AND PUSH1 0xE0 SHL DUP2 MSTORE PUSH1 0x4 ADD PUSH0 PUSH1 0x40 MLOAD DUP1 DUP4 SUB DUP2 DUP7 GAS STATICCALL SWAP3 POP POP POP DUP1 ISZERO PUSH2 0x13F4 JUMPI POP PUSH1 0x40 MLOAD RETURNDATASIZE PUSH0 DUP3 RETURNDATACOPY RETURNDATASIZE PUSH1 0x1F NOT PUSH1 0x1F DUP3 ADD AND DUP3 ADD DUP1 PUSH1 0x40 MSTORE POP DUP2 ADD SWAP1 PUSH2 0x13F1 SWAP2 SWAP1 PUSH2 0x5D4F JUMP JUMPDEST PUSH1 0x1 JUMPDEST PUSH2 0x1435 JUMPI PUSH1 0x40 MLOAD DUP1 PUSH1 0x40 ADD PUSH1 0x40 MSTORE DUP1 PUSH1 0x1D DUP2 MSTORE PUSH1 0x20 ADD PUSH32 0x6D6F64653D626C6F636B6E756D6265722666726F6D3D64656661756C74000000 DUP2 MSTORE POP SWAP1 POP PUSH2 0x143A JUMP JUMPDEST DUP1 SWAP2 POP POP JUMPDEST SWAP1 JUMP JUMPDEST PUSH0 DUP1 PUSH0 DUP1 PUSH1 0x9 PUSH0 DUP7 DUP2 MSTORE PUSH1 0x20 ADD SWAP1 DUP2 MSTORE PUSH1 0x20 ADD PUSH0 KECCAK256 SWAP1 POP DUP1 PUSH0 ADD SLOAD DUP2 PUSH1 0x1 ADD SLOAD DUP3 PUSH1 0x2 ADD SLOAD SWAP4 POP SWAP4 POP SWAP4 POP POP SWAP2 SWAP4 SWAP1 SWAP3 POP JUMP JUMPDEST PUSH1 0x60 PUSH1 0x40 MLOAD DUP1 PUSH1 0x40 ADD PUSH1 0x40 MSTORE DUP1 PUSH1 0x1 DUP2 MSTORE PUSH1 0x20 ADD PUSH32 0x3100000000000000000000000000000000000000000000000000000000000000 DUP2 MSTORE POP SWAP1 POP SWAP1 JUMP JUMPDEST PUSH0 DUP1 PUSH2 0x14B7 PUSH2 0x25FB JUMP JUMPDEST SWAP1 POP PUSH2 0x14D3 DUP5 DUP3 DUP6 PUSH1 0x40 MLOAD DUP1 PUSH1 0x20 ADD PUSH1 0x40 MSTORE DUP1 PUSH0 DUP2 MSTORE POP PUSH2 0x2619 JUMP JUMPDEST SWAP2 POP POP SWAP3 SWAP2 POP POP JUMP JUMPDEST PUSH0 DUP1 PUSH2 0x1569 DUP8 PUSH2 0x1563 PUSH32 0x3E83946653575F9A39005E1545185629E92736B7528AB20CA3816F315424A811 DUP13 DUP13 DUP13 PUSH2 0x1512 DUP15 PUSH2 0x2638 JUMP JUMPDEST DUP14 DUP14 PUSH1 0x40 MLOAD PUSH2 0x1522 SWAP3 SWAP2 SWAP1 PUSH2 0x5DC4 JUMP JUMPDEST PUSH1 0x40 MLOAD DUP1 SWAP2 SUB SWAP1 KECCAK256 DUP13 DUP1 MLOAD SWAP1 PUSH1 0x20 ADD KECCAK256 PUSH1 0x40 MLOAD PUSH1 0x20 ADD PUSH2 0x1548 SWAP8 SWAP7 SWAP6 SWAP5 SWAP4 SWAP3 SWAP2 SWAP1 PUSH2 0x5DEB JUMP JUMPDEST PUSH1 0x40 MLOAD PUSH1 0x20 DUP2 DUP4 SUB SUB DUP2 MSTORE SWAP1 PUSH1 0x40 MSTORE DUP1 MLOAD SWAP1 PUSH1 0x20 ADD KECCAK256 PUSH2 0x268B JUMP JUMPDEST DUP6 PUSH2 0x26A4 JUMP JUMPDEST SWAP1 POP DUP1 PUSH2 0x15AD JUMPI DUP7 PUSH1 0x40 MLOAD PUSH32 0x94AB6C0700000000000000000000000000000000000000000000000000000000 DUP2 MSTORE PUSH1 0x4 ADD PUSH2 0x15A4 SWAP2 SWAP1 PUSH2 0x4A7A JUMP JUMPDEST PUSH1 0x40 MLOAD DUP1 SWAP2 SUB SWAP1 REVERT JUMPDEST PUSH2 0x15FD DUP10 DUP9 DUP11 DUP10 DUP10 DUP1 DUP1 PUSH1 0x1F ADD PUSH1 0x20 DUP1 SWAP2 DIV MUL PUSH1 0x20 ADD PUSH1 0x40 MLOAD SWAP1 DUP2 ADD PUSH1 0x40 MSTORE DUP1 SWAP4 SWAP3 SWAP2 SWAP1 DUP2 DUP2 MSTORE PUSH1 0x20 ADD DUP4 DUP4 DUP1 DUP3 DUP5 CALLDATACOPY PUSH0 DUP2 DUP5 ADD MSTORE PUSH1 0x1F NOT PUSH1 0x1F DUP3 ADD AND SWAP1 POP DUP1 DUP4 ADD SWAP3 POP POP POP POP POP POP POP DUP9 PUSH2 0x2731 JUMP JUMPDEST SWAP2 POP POP SWAP8 SWAP7 POP POP POP POP POP POP POP JUMP JUMPDEST PUSH0 DUP1 PUSH2 0x1615 PUSH2 0x25FB JUMP JUMPDEST SWAP1 POP PUSH2 0x1667 DUP8 DUP3 DUP9 DUP9 DUP9 DUP1 DUP1 PUSH1 0x1F ADD PUSH1 0x20 DUP1 SWAP2 DIV MUL PUSH1 0x20 ADD PUSH1 0x40 MLOAD SWAP1 DUP2 ADD PUSH1 0x40 MSTORE DUP1 SWAP4 SWAP3 SWAP2 SWAP1 DUP2 DUP2 MSTORE PUSH1 0x20 ADD DUP4 DUP4 DUP1 DUP3 DUP5 CALLDATACOPY PUSH0 DUP2 DUP5 ADD MSTORE PUSH1 0x1F NOT PUSH1 0x1F DUP3 ADD AND SWAP1 POP DUP1 DUP4 ADD SWAP3 POP POP POP POP POP POP POP DUP8 PUSH2 0x2731 JUMP JUMPDEST SWAP2 POP POP SWAP6 SWAP5 POP POP POP POP POP JUMP JUMPDEST PUSH0 DUP1 PUSH1 0xA PUSH0 ADD DUP1 SLOAD SWAP1 POP SWAP1 POP PUSH0 PUSH1 0xA PUSH0 ADD PUSH1 0x1 DUP4 PUSH2 0x1691 SWAP2 SWAP1 PUSH2 0x5E85 JUMP JUMPDEST DUP2 SLOAD DUP2 LT PUSH2 0x16A2 JUMPI PUSH2 0x16A1 PUSH2 0x5CB4 JUMP JUMPDEST JUMPDEST SWAP1 PUSH0 MSTORE PUSH1 0x20 PUSH0 KECCAK256 ADD SWAP1 POP PUSH0 DUP2 PUSH0 ADD PUSH0 SWAP1 SLOAD SWAP1 PUSH2 0x100 EXP SWAP1 DIV PUSH6 0xFFFFFFFFFFFF AND SWAP1 POP PUSH0 DUP3 PUSH0 ADD PUSH1 0x6 SWAP1 SLOAD SWAP1 PUSH2 0x100 EXP SWAP1 DIV PUSH26 0xFFFFFFFFFFFFFFFFFFFFFFFFFFFFFFFFFFFFFFFFFFFFFFFFFFFF AND SWAP1 POP DUP6 DUP3 PUSH6 0xFFFFFFFFFFFF AND GT PUSH2 0x1728 JUMPI DUP1 PUSH26 0xFFFFFFFFFFFFFFFFFFFFFFFFFFFFFFFFFFFFFFFFFFFFFFFFFFFF AND SWAP5 POP POP POP POP POP PUSH2 0x1767 JUMP JUMPDEST PUSH2 0x1744 PUSH2 0x1734 DUP8 PUSH2 0x282E JUMP JUMPDEST PUSH1 0xA PUSH2 0x2887 SWAP1 SWAP2 SWAP1 PUSH4 0xFFFFFFFF AND JUMP JUMPDEST PUSH26 0xFFFFFFFFFFFFFFFFFFFFFFFFFFFFFFFFFFFFFFFFFFFFFFFFFFFF AND SWAP5 POP POP POP POP POP JUMPDEST SWAP2 SWAP1 POP JUMP JUMPDEST PUSH2 0x1774 PUSH2 0x1FB0 JUMP JUMPDEST PUSH2 0x177D DUP2 PUSH2 0x2974 JUMP JUMPDEST POP JUMP JUMPDEST PUSH0 DUP1 PUSH2 0x178A PUSH2 0x25FB JUMP JUMPDEST SWAP1 POP PUSH2 0x17DB DUP7 DUP3 DUP8 DUP8 DUP8 DUP1 DUP1 PUSH1 0x1F ADD PUSH1 0x20 DUP1 SWAP2 DIV MUL PUSH1 0x20 ADD PUSH1 0x40 MLOAD SWAP1 DUP2 ADD PUSH1 0x40 MSTORE DUP1 SWAP4 SWAP3 SWAP2 SWAP1 DUP2 DUP2 MSTORE PUSH1 0x20 ADD DUP4 DUP4 DUP1 DUP3 DUP5 CALLDATACOPY PUSH0 DUP2 DUP5 ADD MSTORE PUSH1 0x1F NOT PUSH1 0x1F DUP3 ADD AND SWAP1 POP DUP1 DUP4 ADD SWAP3 POP POP POP POP POP POP POP PUSH2 0x2619 JUMP JUMPDEST SWAP2 POP POP SWAP5 SWAP4 POP POP POP POP JUMP JUMPDEST PUSH0 DUP1 PUSH2 0x17F0 PUSH2 0x25FB JUMP JUMPDEST SWAP1 POP PUSH2 0x17FC DUP2 DUP5 PUSH2 0x29E7 JUMP JUMPDEST PUSH2 0x183D JUMPI DUP1 PUSH1 0x40 MLOAD PUSH32 0xD9B3955700000000000000000000000000000000000000000000000000000000 DUP2 MSTORE PUSH1 0x4 ADD PUSH2 0x1834 SWAP2 SWAP1 PUSH2 0x4A7A JUMP JUMPDEST PUSH1 0x40 MLOAD DUP1 SWAP2 SUB SWAP1 REVERT JUMPDEST PUSH0 PUSH2 0x1863 DUP3 PUSH1 0x1 PUSH2 0x184C PUSH2 0x1A92 JUMP JUMPDEST PUSH2 0x1856 SWAP2 SWAP1 PUSH2 0x5EB8 JUMP JUMPDEST PUSH6 0xFFFFFFFFFFFF AND PUSH2 0x1E19 JUMP JUMPDEST SWAP1 POP PUSH0 PUSH2 0x186E PUSH2 0x1BC1 JUMP JUMPDEST SWAP1 POP DUP1 DUP3 LT ISZERO PUSH2 0x18B9 JUMPI DUP3 DUP3 DUP3 PUSH1 0x40 MLOAD PUSH32 0xC242EE1600000000000000000000000000000000000000000000000000000000 DUP2 MSTORE PUSH1 0x4 ADD PUSH2 0x18B0 SWAP4 SWAP3 SWAP2 SWAP1 PUSH2 0x5EF1 JUMP JUMPDEST PUSH1 0x40 MLOAD DUP1 SWAP2 SUB SWAP1 REVERT JUMPDEST PUSH2 0x18C6 DUP9 DUP9 DUP9 DUP9 DUP8 PUSH2 0x2B2F JUMP JUMPDEST SWAP4 POP POP POP POP SWAP5 SWAP4 POP POP POP POP JUMP JUMPDEST PUSH0 PUSH1 0x2 PUSH0 DUP4 PUSH20 0xFFFFFFFFFFFFFFFFFFFFFFFFFFFFFFFFFFFFFFFF AND PUSH20 0xFFFFFFFFFFFFFFFFFFFFFFFFFFFFFFFFFFFFFFFF AND DUP2 MSTORE PUSH1 0x20 ADD SWAP1 DUP2 MSTORE PUSH1 0x20 ADD PUSH0 KECCAK256 SLOAD SWAP1 POP SWAP2 SWAP1 POP JUMP JUMPDEST PUSH0 PUSH1 0x60 DUP1 PUSH0 DUP1 PUSH0 PUSH1 0x60 PUSH2 0x192A PUSH2 0x2DB4 JUMP JUMPDEST PUSH2 0x1932 PUSH2 0x2DEE JUMP JUMPDEST CHAINID ADDRESS PUSH0 DUP1 SHL PUSH0 PUSH8 0xFFFFFFFFFFFFFFFF DUP2 GT ISZERO PUSH2 0x1951 JUMPI PUSH2 0x1950 PUSH2 0x4AC5 JUMP JUMPDEST JUMPDEST PUSH1 0x40 MLOAD SWAP1 DUP1 DUP3 MSTORE DUP1 PUSH1 0x20 MUL PUSH1 0x20 ADD DUP3 ADD PUSH1 0x40 MSTORE DUP1 ISZERO PUSH2 0x197F JUMPI DUP2 PUSH1 0x20 ADD PUSH1 0x20 DUP3 MUL DUP1 CALLDATASIZE DUP4 CALLDATACOPY DUP1 DUP3 ADD SWAP2 POP POP SWAP1 POP JUMPDEST POP PUSH32 0xF00000000000000000000000000000000000000000000000000000000000000 SWAP6 SWAP5 SWAP4 SWAP3 SWAP2 SWAP1 SWAP7 POP SWAP7 POP SWAP7 POP SWAP7 POP SWAP7 POP SWAP7 POP SWAP7 POP SWAP1 SWAP2 SWAP3 SWAP4 SWAP5 SWAP6 SWAP7 JUMP JUMPDEST PUSH0 DUP1 PUSH2 0x1A29 DUP5 PUSH2 0x1A23 PUSH32 0xF2AAD550CF55F045CB27E9C559F9889FDFB6E6CDAA032301D6EA397784AE51D7 DUP10 DUP10 DUP10 PUSH2 0x19F4 DUP12 PUSH2 0x2638 JUMP JUMPDEST PUSH1 0x40 MLOAD PUSH1 0x20 ADD PUSH2 0x1A08 SWAP6 SWAP5 SWAP4 SWAP3 SWAP2 SWAP1 PUSH2 0x5F26 JUMP JUMPDEST PUSH1 0x40 MLOAD PUSH1 0x20 DUP2 DUP4 SUB SUB DUP2 MSTORE SWAP1 PUSH1 0x40 MSTORE DUP1 MLOAD SWAP1 PUSH1 0x20 ADD KECCAK256 PUSH2 0x268B JUMP JUMPDEST DUP6 PUSH2 0x26A4 JUMP JUMPDEST SWAP1 POP DUP1 PUSH2 0x1A6D JUMPI DUP4 PUSH1 0x40 MLOAD PUSH32 0x94AB6C0700000000000000000000000000000000000000000000000000000000 DUP2 MSTORE PUSH1 0x4 ADD PUSH2 0x1A64 SWAP2 SWAP1 PUSH2 0x4A7A JUMP JUMPDEST PUSH1 0x40 MLOAD DUP1 SWAP2 SUB SWAP1 REVERT JUMPDEST PUSH2 0x1A87 DUP7 DUP6 DUP8 PUSH1 0x40 MLOAD DUP1 PUSH1 0x20 ADD PUSH1 0x40 MSTORE DUP1 PUSH0 DUP2 MSTORE POP PUSH2 0x2619 JUMP JUMPDEST SWAP2 POP POP SWAP5 SWAP4 POP POP POP POP JUMP JUMPDEST PUSH0 PUSH2 0x1A9B PUSH2 0x1ED9 JUMP JUMPDEST PUSH20 0xFFFFFFFFFFFFFFFFFFFFFFFFFFFFFFFFFFFFFFFF AND PUSH4 0x91DDADF4 PUSH1 0x40 MLOAD DUP2 PUSH4 0xFFFFFFFF AND PUSH1 0xE0 SHL DUP2 MSTORE PUSH1 0x4 ADD PUSH1 0x20 PUSH1 0x40 MLOAD DUP1 DUP4 SUB DUP2 DUP7 GAS STATICCALL SWAP3 POP POP POP DUP1 ISZERO PUSH2 0x1B02 JUMPI POP PUSH1 0x40 MLOAD RETURNDATASIZE PUSH1 0x1F NOT PUSH1 0x1F DUP3 ADD AND DUP3 ADD DUP1 PUSH1 0x40 MSTORE POP DUP2 ADD SWAP1 PUSH2 0x1AFF SWAP2 SWAP1 PUSH2 0x5F8B JUMP JUMPDEST PUSH1 0x1 JUMPDEST PUSH2 0x1B15 JUMPI PUSH2 0x1B0E PUSH2 0x2E29 JUMP JUMPDEST SWAP1 POP PUSH2 0x1B1A JUMP JUMPDEST DUP1 SWAP2 POP POP JUMPDEST SWAP1 JUMP JUMPDEST PUSH0 PUSH1 0x64 SWAP1 POP SWAP1 JUMP JUMPDEST PUSH0 PUSH2 0x1B31 DUP5 DUP5 DUP5 PUSH2 0x2E38 JUMP JUMPDEST SWAP1 POP SWAP4 SWAP3 POP POP POP JUMP JUMPDEST PUSH0 PUSH2 0x1B45 PUSH1 0xA PUSH2 0x2EC3 JUMP JUMPDEST PUSH26 0xFFFFFFFFFFFFFFFFFFFFFFFFFFFFFFFFFFFFFFFFFFFFFFFFFFFF AND SWAP1 POP SWAP1 JUMP JUMPDEST PUSH2 0x1B6E PUSH2 0x1FB0 JUMP JUMPDEST PUSH2 0x1B77 DUP2 PUSH2 0x2F25 JUMP JUMPDEST POP JUMP JUMPDEST PUSH0 PUSH2 0x1B84 DUP3 PUSH2 0x2FC2 JUMP JUMPDEST SWAP1 POP SWAP2 SWAP1 POP JUMP JUMPDEST PUSH0 PUSH1 0x4 PUSH0 DUP4 DUP2 MSTORE PUSH1 0x20 ADD SWAP1 DUP2 MSTORE PUSH1 0x20 ADD PUSH0 KECCAK256 PUSH1 0x1 ADD PUSH0 SWAP1 SLOAD SWAP1 PUSH2 0x100 EXP SWAP1 DIV PUSH6 0xFFFFFFFFFFFF AND PUSH6 0xFFFFFFFFFFFF AND SWAP1 POP SWAP2 SWAP1 POP JUMP JUMPDEST PUSH0 PUSH2 0x1BCA PUSH2 0x2FCC JUMP JUMPDEST SWAP1 POP SWAP1 JUMP JUMPDEST PUSH0 ADDRESS PUSH20 0xFFFFFFFFFFFFFFFFFFFFFFFFFFFFFFFFFFFFFFFF AND PUSH2 0x1BEF PUSH2 0xCB7 JUMP JUMPDEST PUSH20 0xFFFFFFFFFFFFFFFFFFFFFFFFFFFFFFFFFFFFFFFF AND EQ PUSH2 0x1C3C JUMPI PUSH1 0x40 MLOAD PUSH32 0xE90A651E00000000000000000000000000000000000000000000000000000000 DUP2 MSTORE PUSH1 0x4 ADD PUSH1 0x40 MLOAD DUP1 SWAP2 SUB SWAP1 REVERT JUMPDEST PUSH4 0xBC197C81 PUSH1 0xE0 SHL SWAP1 POP SWAP6 SWAP5 POP POP POP POP POP JUMP JUMPDEST PUSH0 PUSH1 0x4 PUSH0 DUP4 DUP2 MSTORE PUSH1 0x20 ADD SWAP1 DUP2 MSTORE PUSH1 0x20 ADD PUSH0 KECCAK256 PUSH0 ADD PUSH1 0x1A SWAP1 SLOAD SWAP1 PUSH2 0x100 EXP SWAP1 DIV PUSH4 0xFFFFFFFF AND PUSH4 0xFFFFFFFF AND PUSH1 0x4 PUSH0 DUP5 DUP2 MSTORE PUSH1 0x20 ADD SWAP1 DUP2 MSTORE PUSH1 0x20 ADD PUSH0 KECCAK256 PUSH0 ADD PUSH1 0x14 SWAP1 SLOAD SWAP1 PUSH2 0x100 EXP SWAP1 DIV PUSH6 0xFFFFFFFFFFFF AND PUSH2 0x1CAA SWAP2 SWAP1 PUSH2 0x5FB6 JUMP JUMPDEST PUSH6 0xFFFFFFFFFFFF AND SWAP1 POP SWAP2 SWAP1 POP JUMP JUMPDEST PUSH2 0x1CC1 PUSH2 0x1FB0 JUMP JUMPDEST PUSH0 DUP1 DUP6 PUSH20 0xFFFFFFFFFFFFFFFFFFFFFFFFFFFFFFFFFFFFFFFF AND DUP6 DUP6 DUP6 PUSH1 0x40 MLOAD PUSH2 0x1CEB SWAP3 SWAP2 SWAP1 PUSH2 0x5DC4 JUMP JUMPDEST PUSH0 PUSH1 0x40 MLOAD DUP1 DUP4 SUB DUP2 DUP6 DUP8 GAS CALL SWAP3 POP POP POP RETURNDATASIZE DUP1 PUSH0 DUP2 EQ PUSH2 0x1D25 JUMPI PUSH1 0x40 MLOAD SWAP2 POP PUSH1 0x1F NOT PUSH1 0x3F RETURNDATASIZE ADD AND DUP3 ADD PUSH1 0x40 MSTORE RETURNDATASIZE DUP3 MSTORE RETURNDATASIZE PUSH0 PUSH1 0x20 DUP5 ADD RETURNDATACOPY PUSH2 0x1D2A JUMP JUMPDEST PUSH1 0x60 SWAP2 POP JUMPDEST POP SWAP2 POP SWAP2 POP PUSH2 0x1D39 DUP3 DUP3 PUSH2 0x2FD5 JUMP JUMPDEST POP POP POP POP POP POP POP JUMP JUMPDEST PUSH0 DUP5 DUP5 DUP5 DUP5 PUSH1 0x40 MLOAD PUSH1 0x20 ADD PUSH2 0x1D5A SWAP5 SWAP4 SWAP3 SWAP2 SWAP1 PUSH2 0x61B3 JUMP JUMPDEST PUSH1 0x40 MLOAD PUSH1 0x20 DUP2 DUP4 SUB SUB DUP2 MSTORE SWAP1 PUSH1 0x40 MSTORE DUP1 MLOAD SWAP1 PUSH1 0x20 ADD KECCAK256 PUSH0 SHR SWAP1 POP SWAP5 SWAP4 POP POP POP POP JUMP JUMPDEST PUSH0 PUSH1 0xB PUSH0 SWAP1 SLOAD SWAP1 PUSH2 0x100 EXP SWAP1 DIV PUSH20 0xFFFFFFFFFFFFFFFFFFFFFFFFFFFFFFFFFFFFFFFF AND SWAP1 POP SWAP1 JUMP JUMPDEST PUSH1 0x60 PUSH1 0x40 MLOAD DUP1 PUSH1 0x40 ADD PUSH1 0x40 MSTORE DUP1 PUSH1 0x20 DUP2 MSTORE PUSH1 0x20 ADD PUSH32 0x737570706F72743D627261766F2671756F72756D3D666F722C6162737461696E DUP2 MSTORE POP SWAP1 POP SWAP1 JUMP JUMPDEST PUSH32 0xF2AAD550CF55F045CB27E9C559F9889FDFB6E6CDAA032301D6EA397784AE51D7 DUP2 JUMP JUMPDEST PUSH2 0x1E0D PUSH2 0x1FB0 JUMP JUMPDEST PUSH2 0x1E16 DUP2 PUSH2 0x2FF9 JUMP JUMPDEST POP JUMP JUMPDEST PUSH0 PUSH2 0x1E2C DUP4 DUP4 PUSH2 0x1E27 PUSH2 0x30B2 JUMP JUMPDEST PUSH2 0x2E38 JUMP JUMPDEST SWAP1 POP SWAP3 SWAP2 POP POP JUMP JUMPDEST PUSH2 0x1E3C PUSH2 0x1FB0 JUMP JUMPDEST PUSH2 0x1E45 DUP2 PUSH2 0x30C8 JUMP JUMPDEST POP JUMP JUMPDEST PUSH0 ADDRESS PUSH20 0xFFFFFFFFFFFFFFFFFFFFFFFFFFFFFFFFFFFFFFFF AND PUSH2 0x1E68 PUSH2 0xCB7 JUMP JUMPDEST PUSH20 0xFFFFFFFFFFFFFFFFFFFFFFFFFFFFFFFFFFFFFFFF AND EQ PUSH2 0x1EB5 JUMPI PUSH1 0x40 MLOAD PUSH32 0xE90A651E00000000000000000000000000000000000000000000000000000000 DUP2 MSTORE PUSH1 0x4 ADD PUSH1 0x40 MLOAD DUP1 SWAP2 SUB SWAP1 REVERT JUMPDEST PUSH4 0xF23A6E61 PUSH1 0xE0 SHL SWAP1 POP SWAP6 SWAP5 POP POP POP POP POP JUMP JUMPDEST PUSH0 PUSH2 0x1ED2 DUP3 PUSH2 0x310D JUMP JUMPDEST SWAP1 POP SWAP2 SWAP1 POP JUMP JUMPDEST PUSH0 PUSH32 0x0 SWAP1 POP SWAP1 JUMP JUMPDEST PUSH0 PUSH1 0xB PUSH0 SWAP1 SLOAD SWAP1 PUSH2 0x100 EXP SWAP1 DIV PUSH20 0xFFFFFFFFFFFFFFFFFFFFFFFFFFFFFFFFFFFFFFFF AND SWAP1 POP SWAP1 JUMP JUMPDEST PUSH0 PUSH32 0x1FFC9A700000000000000000000000000000000000000000000000000000000 PUSH28 0xFFFFFFFFFFFFFFFFFFFFFFFFFFFFFFFFFFFFFFFFFFFFFFFFFFFFFFFF NOT AND DUP3 PUSH28 0xFFFFFFFFFFFFFFFFFFFFFFFFFFFFFFFFFFFFFFFFFFFFFFFFFFFFFFFF NOT AND EQ SWAP1 POP SWAP2 SWAP1 POP JUMP JUMPDEST PUSH0 PUSH1 0x8 PUSH1 0x6 SWAP1 SLOAD SWAP1 PUSH2 0x100 EXP SWAP1 DIV PUSH4 0xFFFFFFFF AND PUSH4 0xFFFFFFFF AND SWAP1 POP SWAP1 JUMP JUMPDEST PUSH2 0x1FB8 PUSH2 0x25FB JUMP JUMPDEST PUSH20 0xFFFFFFFFFFFFFFFFFFFFFFFFFFFFFFFFFFFFFFFF AND PUSH2 0x1FD6 PUSH2 0xCB7 JUMP JUMPDEST PUSH20 0xFFFFFFFFFFFFFFFFFFFFFFFFFFFFFFFFFFFFFFFF AND EQ PUSH2 0x2035 JUMPI PUSH2 0x1FF9 PUSH2 0x25FB JUMP JUMPDEST PUSH1 0x40 MLOAD PUSH32 0x47096E4700000000000000000000000000000000000000000000000000000000 DUP2 MSTORE PUSH1 0x4 ADD PUSH2 0x202C SWAP2 SWAP1 PUSH2 0x4A7A JUMP JUMPDEST PUSH1 0x40 MLOAD DUP1 SWAP2 SUB SWAP1 REVERT JUMPDEST ADDRESS PUSH20 0xFFFFFFFFFFFFFFFFFFFFFFFFFFFFFFFFFFFFFFFF AND PUSH2 0x2054 PUSH2 0xCB7 JUMP JUMPDEST PUSH20 0xFFFFFFFFFFFFFFFFFFFFFFFFFFFFFFFFFFFFFFFF AND EQ PUSH2 0x20A3 JUMPI PUSH0 PUSH2 0x2078 PUSH2 0x31B9 JUMP JUMPDEST PUSH1 0x40 MLOAD PUSH2 0x2086 SWAP3 SWAP2 SWAP1 PUSH2 0x5DC4 JUMP JUMPDEST PUSH1 0x40 MLOAD DUP1 SWAP2 SUB SWAP1 KECCAK256 SWAP1 POP JUMPDEST DUP1 PUSH2 0x209C PUSH1 0x5 PUSH2 0x31C5 JUMP JUMPDEST SUB PUSH2 0x2091 JUMPI POP JUMPDEST JUMP JUMPDEST PUSH0 PUSH2 0x20AE PUSH2 0x1B1D JUMP JUMPDEST SWAP1 POP DUP1 DUP3 GT ISZERO PUSH2 0x20F7 JUMPI DUP2 DUP2 PUSH1 0x40 MLOAD PUSH32 0x243E544500000000000000000000000000000000000000000000000000000000 DUP2 MSTORE PUSH1 0x4 ADD PUSH2 0x20EE SWAP3 SWAP2 SWAP1 PUSH2 0x620B JUMP JUMPDEST PUSH1 0x40 MLOAD DUP1 SWAP2 SUB SWAP1 REVERT JUMPDEST PUSH0 PUSH2 0x2100 PUSH2 0x1B3A JUMP JUMPDEST SWAP1 POP PUSH2 0x2127 PUSH2 0x210D PUSH2 0x1A92 JUMP JUMPDEST PUSH2 0x2116 DUP6 PUSH2 0x331A JUMP JUMPDEST PUSH1 0xA PUSH2 0x3387 SWAP1 SWAP3 SWAP2 SWAP1 PUSH4 0xFFFFFFFF AND JUMP JUMPDEST POP POP PUSH32 0x553476BF02EF2726E8CE5CED78D63E26E602E4A2257B1F559418E24B4633997 DUP2 DUP5 PUSH1 0x40 MLOAD PUSH2 0x215A SWAP3 SWAP2 SWAP1 PUSH2 0x620B JUMP JUMPDEST PUSH1 0x40 MLOAD DUP1 SWAP2 SUB SWAP1 LOG1 POP POP POP JUMP JUMPDEST PUSH0 DUP2 PUSH1 0x7 DUP2 GT ISZERO PUSH2 0x217B JUMPI PUSH2 0x217A PUSH2 0x5006 JUMP JUMPDEST JUMPDEST PUSH1 0xFF AND PUSH1 0x1 SWAP1 SHL PUSH0 SHL SWAP1 POP SWAP2 SWAP1 POP JUMP JUMPDEST PUSH0 DUP1 PUSH2 0x2196 DUP5 PUSH2 0x124A JUMP JUMPDEST SWAP1 POP PUSH0 DUP1 SHL DUP4 PUSH2 0x21A5 DUP4 PUSH2 0x2167 JUMP JUMPDEST AND SUB PUSH2 0x21EC JUMPI DUP4 DUP2 DUP5 PUSH1 0x40 MLOAD PUSH32 0x31B75E4D00000000000000000000000000000000000000000000000000000000 DUP2 MSTORE PUSH1 0x4 ADD PUSH2 0x21E3 SWAP4 SWAP3 SWAP2 SWAP1 PUSH2 0x6232 JUMP JUMPDEST PUSH1 0x40 MLOAD DUP1 SWAP2 SUB SWAP1 REVERT JUMPDEST DUP1 SWAP2 POP POP SWAP3 SWAP2 POP POP JUMP JUMPDEST PUSH0 PUSH2 0x2204 DUP7 DUP7 DUP7 DUP7 DUP7 PUSH2 0x33A2 JUMP JUMPDEST SWAP1 POP SWAP6 SWAP5 POP POP POP POP POP JUMP JUMPDEST PUSH0 DUP3 PUSH0 ADD PUSH1 0x10 SWAP1 SLOAD SWAP1 PUSH2 0x100 EXP SWAP1 DIV PUSH16 0xFFFFFFFFFFFFFFFFFFFFFFFFFFFFFFFF AND SWAP1 POP DUP3 PUSH0 ADD PUSH0 SWAP1 SLOAD SWAP1 PUSH2 0x100 EXP SWAP1 DIV PUSH16 0xFFFFFFFFFFFFFFFFFFFFFFFFFFFFFFFF AND PUSH16 0xFFFFFFFFFFFFFFFFFFFFFFFFFFFFFFFF AND PUSH1 0x1 DUP3 ADD PUSH16 0xFFFFFFFFFFFFFFFFFFFFFFFFFFFFFFFF AND SUB PUSH2 0x22B0 JUMPI PUSH1 0x40 MLOAD PUSH32 0x8ACB5F2700000000000000000000000000000000000000000000000000000000 DUP2 MSTORE PUSH1 0x4 ADD PUSH1 0x40 MLOAD DUP1 SWAP2 SUB SWAP1 REVERT JUMPDEST DUP2 DUP4 PUSH1 0x1 ADD PUSH0 DUP4 PUSH16 0xFFFFFFFFFFFFFFFFFFFFFFFFFFFFFFFF AND PUSH16 0xFFFFFFFFFFFFFFFFFFFFFFFFFFFFFFFF AND DUP2 MSTORE PUSH1 0x20 ADD SWAP1 DUP2 MSTORE PUSH1 0x20 ADD PUSH0 KECCAK256 DUP2 SWAP1 SSTORE POP PUSH1 0x1 DUP2 ADD DUP4 PUSH0 ADD PUSH1 0x10 PUSH2 0x100 EXP DUP2 SLOAD DUP2 PUSH16 0xFFFFFFFFFFFFFFFFFFFFFFFFFFFFFFFF MUL NOT AND SWAP1 DUP4 PUSH16 0xFFFFFFFFFFFFFFFFFFFFFFFFFFFFFFFF AND MUL OR SWAP1 SSTORE POP POP POP POP JUMP JUMPDEST PUSH2 0x233B DUP6 DUP6 DUP6 DUP6 DUP6 PUSH2 0x35A8 JUMP JUMPDEST POP POP POP POP POP JUMP JUMPDEST PUSH0 DUP2 PUSH0 ADD PUSH0 SWAP1 SLOAD SWAP1 PUSH2 0x100 EXP SWAP1 DIV PUSH16 0xFFFFFFFFFFFFFFFFFFFFFFFFFFFFFFFF AND PUSH16 0xFFFFFFFFFFFFFFFFFFFFFFFFFFFFFFFF AND DUP3 PUSH0 ADD PUSH1 0x10 SWAP1 SLOAD SWAP1 PUSH2 0x100 EXP SWAP1 DIV PUSH16 0xFFFFFFFFFFFFFFFFFFFFFFFFFFFFFFFF AND PUSH16 0xFFFFFFFFFFFFFFFFFFFFFFFFFFFFFFFF AND EQ SWAP1 POP SWAP2 SWAP1 POP JUMP JUMPDEST PUSH0 DUP2 PUSH0 ADD PUSH0 PUSH2 0x100 EXP DUP2 SLOAD DUP2 PUSH16 0xFFFFFFFFFFFFFFFFFFFFFFFFFFFFFFFF MUL NOT AND SWAP1 DUP4 PUSH16 0xFFFFFFFFFFFFFFFFFFFFFFFFFFFFFFFF AND MUL OR SWAP1 SSTORE POP PUSH0 DUP2 PUSH0 ADD PUSH1 0x10 PUSH2 0x100 EXP DUP2 SLOAD DUP2 PUSH16 0xFFFFFFFFFFFFFFFFFFFFFFFFFFFFFFFF MUL NOT AND SWAP1 DUP4 PUSH16 0xFFFFFFFFFFFFFFFFFFFFFFFFFFFFFFFF AND MUL OR SWAP1 SSTORE POP POP JUMP JUMPDEST PUSH0 PUSH1 0x8 PUSH0 SWAP1 SLOAD SWAP1 PUSH2 0x100 EXP SWAP1 DIV PUSH6 0xFFFFFFFFFFFF AND PUSH6 0xFFFFFFFFFFFF AND SWAP1 POP SWAP1 JUMP JUMPDEST PUSH0 DUP1 PUSH2 0x2451 DUP4 PUSH2 0x365C JUMP JUMPDEST SWAP1 POP PUSH1 0x5 PUSH1 0x7 DUP2 GT ISZERO PUSH2 0x2467 JUMPI PUSH2 0x2466 PUSH2 0x5006 JUMP JUMPDEST JUMPDEST DUP2 PUSH1 0x7 DUP2 GT ISZERO PUSH2 0x247A JUMPI PUSH2 0x2479 PUSH2 0x5006 JUMP JUMPDEST JUMPDEST EQ PUSH2 0x2488 JUMPI DUP1 SWAP2 POP POP PUSH2 0x25F6 JUMP JUMPDEST PUSH0 PUSH1 0xC PUSH0 DUP6 DUP2 MSTORE PUSH1 0x20 ADD SWAP1 DUP2 MSTORE PUSH1 0x20 ADD PUSH0 KECCAK256 SLOAD SWAP1 POP PUSH1 0xB PUSH0 SWAP1 SLOAD SWAP1 PUSH2 0x100 EXP SWAP1 DIV PUSH20 0xFFFFFFFFFFFFFFFFFFFFFFFFFFFFFFFFFFFFFFFF AND PUSH20 0xFFFFFFFFFFFFFFFFFFFFFFFFFFFFFFFFFFFFFFFF AND PUSH4 0x584B153E DUP3 PUSH1 0x40 MLOAD DUP3 PUSH4 0xFFFFFFFF AND PUSH1 0xE0 SHL DUP2 MSTORE PUSH1 0x4 ADD PUSH2 0x24F7 SWAP2 SWAP1 PUSH2 0x4FED JUMP JUMPDEST PUSH1 0x20 PUSH1 0x40 MLOAD DUP1 DUP4 SUB DUP2 DUP7 GAS STATICCALL ISZERO DUP1 ISZERO PUSH2 0x2512 JUMPI RETURNDATASIZE PUSH0 DUP1 RETURNDATACOPY RETURNDATASIZE PUSH0 REVERT JUMPDEST POP POP POP POP PUSH1 0x40 MLOAD RETURNDATASIZE PUSH1 0x1F NOT PUSH1 0x1F DUP3 ADD AND DUP3 ADD DUP1 PUSH1 0x40 MSTORE POP DUP2 ADD SWAP1 PUSH2 0x2536 SWAP2 SWAP1 PUSH2 0x6291 JUMP JUMPDEST ISZERO PUSH2 0x2546 JUMPI PUSH1 0x5 SWAP3 POP POP POP PUSH2 0x25F6 JUMP JUMPDEST PUSH1 0xB PUSH0 SWAP1 SLOAD SWAP1 PUSH2 0x100 EXP SWAP1 DIV PUSH20 0xFFFFFFFFFFFFFFFFFFFFFFFFFFFFFFFFFFFFFFFF AND PUSH20 0xFFFFFFFFFFFFFFFFFFFFFFFFFFFFFFFFFFFFFFFF AND PUSH4 0x2AB0F529 DUP3 PUSH1 0x40 MLOAD DUP3 PUSH4 0xFFFFFFFF AND PUSH1 0xE0 SHL DUP2 MSTORE PUSH1 0x4 ADD PUSH2 0x25A0 SWAP2 SWAP1 PUSH2 0x4FED JUMP JUMPDEST PUSH1 0x20 PUSH1 0x40 MLOAD DUP1 DUP4 SUB DUP2 DUP7 GAS STATICCALL ISZERO DUP1 ISZERO PUSH2 0x25BB JUMPI RETURNDATASIZE PUSH0 DUP1 RETURNDATACOPY RETURNDATASIZE PUSH0 REVERT JUMPDEST POP POP POP POP PUSH1 0x40 MLOAD RETURNDATASIZE PUSH1 0x1F NOT PUSH1 0x1F DUP3 ADD AND DUP3 ADD DUP1 PUSH1 0x40 MSTORE POP DUP2 ADD SWAP1 PUSH2 0x25DF SWAP2 SWAP1 PUSH2 0x6291 JUMP JUMPDEST ISZERO PUSH2 0x25EF JUMPI PUSH1 0x7 SWAP3 POP POP POP PUSH2 0x25F6 JUMP JUMPDEST PUSH1 0x2 SWAP3 POP POP POP JUMPDEST SWAP2 SWAP1 POP JUMP JUMPDEST PUSH0 CALLER SWAP1 POP SWAP1 JUMP JUMPDEST PUSH0 PUSH2 0x260F DUP6 DUP6 DUP6 DUP6 PUSH2 0x37B3 JUMP JUMPDEST SWAP1 POP SWAP5 SWAP4 POP POP POP POP JUMP JUMPDEST PUSH0 PUSH2 0x262E DUP6 DUP6 DUP6 DUP6 PUSH2 0x2629 PUSH2 0x30B2 JUMP JUMPDEST PUSH2 0x2731 JUMP JUMPDEST SWAP1 POP SWAP5 SWAP4 POP POP POP POP JUMP JUMPDEST PUSH0 PUSH1 0x2 PUSH0 DUP4 PUSH20 0xFFFFFFFFFFFFFFFFFFFFFFFFFFFFFFFFFFFFFFFF AND PUSH20 0xFFFFFFFFFFFFFFFFFFFFFFFFFFFFFFFFFFFFFFFF AND DUP2 MSTORE PUSH1 0x20 ADD SWAP1 DUP2 MSTORE PUSH1 0x20 ADD PUSH0 KECCAK256 PUSH0 DUP2 SLOAD DUP1 SWAP3 SWAP2 SWAP1 PUSH1 0x1 ADD SWAP2 SWAP1 POP SSTORE SWAP1 POP SWAP2 SWAP1 POP JUMP JUMPDEST PUSH0 PUSH2 0x269D PUSH2 0x2697 PUSH2 0x388A JUMP JUMPDEST DUP4 PUSH2 0x3940 JUMP JUMPDEST SWAP1 POP SWAP2 SWAP1 POP JUMP JUMPDEST PUSH0 DUP1 PUSH0 PUSH2 0x26B1 DUP6 DUP6 PUSH2 0x3980 JUMP JUMPDEST POP SWAP2 POP SWAP2 POP PUSH0 PUSH1 0x3 DUP2 GT ISZERO PUSH2 0x26C9 JUMPI PUSH2 0x26C8 PUSH2 0x5006 JUMP JUMPDEST JUMPDEST DUP2 PUSH1 0x3 DUP2 GT ISZERO PUSH2 0x26DC JUMPI PUSH2 0x26DB PUSH2 0x5006 JUMP JUMPDEST JUMPDEST EQ DUP1 ISZERO PUSH2 0x2714 JUMPI POP DUP6 PUSH20 0xFFFFFFFFFFFFFFFFFFFFFFFFFFFFFFFFFFFFFFFF AND DUP3 PUSH20 0xFFFFFFFFFFFFFFFFFFFFFFFFFFFFFFFFFFFFFFFF AND EQ JUMPDEST DUP1 PUSH2 0x2726 JUMPI POP PUSH2 0x2725 DUP7 DUP7 DUP7 PUSH2 0x39D5 JUMP JUMPDEST JUMPDEST SWAP3 POP POP POP SWAP4 SWAP3 POP POP POP JUMP JUMPDEST PUSH0 PUSH2 0x2745 DUP7 PUSH2 0x2740 PUSH1 0x1 PUSH2 0x2167 JUMP JUMPDEST PUSH2 0x218B JUMP JUMPDEST POP PUSH0 PUSH2 0x275A DUP7 PUSH2 0x2754 DUP10 PUSH2 0x11E2 JUMP JUMPDEST DUP6 PUSH2 0x2E38 JUMP JUMPDEST SWAP1 POP PUSH2 0x2769 DUP8 DUP8 DUP8 DUP5 DUP8 PUSH2 0x3AF4 JUMP JUMPDEST PUSH0 DUP4 MLOAD SUB PUSH2 0x27CA JUMPI DUP6 PUSH20 0xFFFFFFFFFFFFFFFFFFFFFFFFFFFFFFFFFFFFFFFF AND PUSH32 0xB8E138887D0AA13BAB447E82DE9D5C1777041ECD21CA36BA824FF1E6C07DDDA4 DUP9 DUP8 DUP5 DUP9 PUSH1 0x40 MLOAD PUSH2 0x27BD SWAP5 SWAP4 SWAP3 SWAP2 SWAP1 PUSH2 0x62BC JUMP JUMPDEST PUSH1 0x40 MLOAD DUP1 SWAP2 SUB SWAP1 LOG2 PUSH2 0x2821 JUMP JUMPDEST DUP6 PUSH20 0xFFFFFFFFFFFFFFFFFFFFFFFFFFFFFFFFFFFFFFFF AND PUSH32 0xE2BABFBAC5889A709B63BB7F598B324E08BC5A4FB9EC647FB3CBC9EC07EB8712 DUP9 DUP8 DUP5 DUP9 DUP9 PUSH1 0x40 MLOAD PUSH2 0x2818 SWAP6 SWAP5 SWAP4 SWAP3 SWAP2 SWAP1 PUSH2 0x634E JUMP JUMPDEST PUSH1 0x40 MLOAD DUP1 SWAP2 SUB SWAP1 LOG2 JUMPDEST DUP1 SWAP2 POP POP SWAP6 SWAP5 POP POP POP POP POP JUMP JUMPDEST PUSH0 PUSH6 0xFFFFFFFFFFFF DUP1 AND DUP3 GT ISZERO PUSH2 0x287F JUMPI PUSH1 0x30 DUP3 PUSH1 0x40 MLOAD PUSH32 0x6DFCC65000000000000000000000000000000000000000000000000000000000 DUP2 MSTORE PUSH1 0x4 ADD PUSH2 0x2876 SWAP3 SWAP2 SWAP1 PUSH2 0x63E6 JUMP JUMPDEST PUSH1 0x40 MLOAD DUP1 SWAP2 SUB SWAP1 REVERT JUMPDEST DUP2 SWAP1 POP SWAP2 SWAP1 POP JUMP JUMPDEST PUSH0 DUP1 DUP4 PUSH0 ADD DUP1 SLOAD SWAP1 POP SWAP1 POP PUSH0 DUP1 DUP3 SWAP1 POP PUSH1 0x5 DUP4 GT ISZERO PUSH2 0x2908 JUMPI PUSH0 PUSH2 0x28AA DUP5 PUSH2 0x3CE3 JUMP JUMPDEST DUP5 PUSH2 0x28B5 SWAP2 SWAP1 PUSH2 0x5E85 JUMP JUMPDEST SWAP1 POP PUSH2 0x28C3 DUP8 PUSH0 ADD DUP3 PUSH2 0x3DD9 JUMP JUMPDEST PUSH0 ADD PUSH0 SWAP1 SLOAD SWAP1 PUSH2 0x100 EXP SWAP1 DIV PUSH6 0xFFFFFFFFFFFF AND PUSH6 0xFFFFFFFFFFFF AND DUP7 PUSH6 0xFFFFFFFFFFFF AND LT ISZERO PUSH2 0x28F6 JUMPI DUP1 SWAP2 POP PUSH2 0x2906 JUMP JUMPDEST PUSH1 0x1 DUP2 PUSH2 0x2903 SWAP2 SWAP1 PUSH2 0x640D JUMP JUMPDEST SWAP3 POP JUMPDEST POP JUMPDEST PUSH0 PUSH2 0x2917 DUP8 PUSH0 ADD DUP8 DUP6 DUP6 PUSH2 0x3DEB JUMP JUMPDEST SWAP1 POP PUSH0 DUP2 EQ PUSH2 0x2966 JUMPI PUSH2 0x2938 DUP8 PUSH0 ADD PUSH1 0x1 DUP4 PUSH2 0x2933 SWAP2 SWAP1 PUSH2 0x5E85 JUMP JUMPDEST PUSH2 0x3DD9 JUMP JUMPDEST PUSH0 ADD PUSH1 0x6 SWAP1 SLOAD SWAP1 PUSH2 0x100 EXP SWAP1 DIV PUSH26 0xFFFFFFFFFFFFFFFFFFFFFFFFFFFFFFFFFFFFFFFFFFFFFFFFFFFF AND PUSH2 0x2968 JUMP JUMPDEST PUSH0 JUMPDEST SWAP5 POP POP POP POP POP SWAP3 SWAP2 POP POP JUMP JUMPDEST PUSH32 0xC565B045403DC03C2EEA82B81A0465EDAD9E2E7FC4D97E11421C209DA93D7A93 PUSH1 0x8 PUSH0 SWAP1 SLOAD SWAP1 PUSH2 0x100 EXP SWAP1 DIV PUSH6 0xFFFFFFFFFFFF AND DUP3 PUSH1 0x40 MLOAD PUSH2 0x29B8 SWAP3 SWAP2 SWAP1 PUSH2 0x6440 JUMP JUMPDEST PUSH1 0x40 MLOAD DUP1 SWAP2 SUB SWAP1 LOG1 DUP1 PUSH1 0x8 PUSH0 PUSH2 0x100 EXP DUP2 SLOAD DUP2 PUSH6 0xFFFFFFFFFFFF MUL NOT AND SWAP1 DUP4 PUSH6 0xFFFFFFFFFFFF AND MUL OR SWAP1 SSTORE POP POP JUMP JUMPDEST PUSH0 DUP1 DUP3 MLOAD SWAP1 POP PUSH1 0x34 DUP2 LT ISZERO PUSH2 0x2A00 JUMPI PUSH1 0x1 SWAP2 POP POP PUSH2 0x2B29 JUMP JUMPDEST PUSH0 PUSH1 0x14 DUP3 SUB DUP5 ADD MLOAD SWAP1 POP PUSH32 0x2370726F706F7365723D30780000000000000000000000000000000000000000 PUSH20 0xFFFFFFFFFFFFFFFFFFFFFFFFFFFFFFFFFFFFFFFF NOT AND DUP2 PUSH20 0xFFFFFFFFFFFFFFFFFFFFFFFFFFFFFFFFFFFFFFFF NOT AND EQ PUSH2 0x2A6A JUMPI PUSH1 0x1 SWAP3 POP POP POP PUSH2 0x2B29 JUMP JUMPDEST PUSH0 DUP1 PUSH1 0x28 DUP5 PUSH2 0x2A79 SWAP2 SWAP1 PUSH2 0x5E85 JUMP JUMPDEST SWAP1 POP JUMPDEST DUP4 DUP2 LT ISZERO PUSH2 0x2AF3 JUMPI PUSH0 DUP1 PUSH2 0x2AAC DUP9 DUP5 DUP2 MLOAD DUP2 LT PUSH2 0x2A9C JUMPI PUSH2 0x2A9B PUSH2 0x5CB4 JUMP JUMPDEST JUMPDEST PUSH1 0x20 ADD ADD MLOAD PUSH1 0xF8 SHR PUSH1 0xF8 SHL PUSH2 0x3E60 JUMP JUMPDEST SWAP2 POP SWAP2 POP DUP2 PUSH2 0x2AC4 JUMPI PUSH1 0x1 SWAP7 POP POP POP POP POP POP POP PUSH2 0x2B29 JUMP JUMPDEST DUP1 PUSH1 0xFF AND PUSH1 0x4 DUP6 PUSH20 0xFFFFFFFFFFFFFFFFFFFFFFFFFFFFFFFFFFFFFFFF AND SWAP1 SHL OR SWAP4 POP POP POP DUP1 PUSH1 0x1 ADD SWAP1 POP PUSH2 0x2A7C JUMP JUMPDEST POP DUP6 PUSH20 0xFFFFFFFFFFFFFFFFFFFFFFFFFFFFFFFFFFFFFFFF AND DUP2 PUSH20 0xFFFFFFFFFFFFFFFFFFFFFFFFFFFFFFFFFFFFFFFF AND EQ SWAP4 POP POP POP POP JUMPDEST SWAP3 SWAP2 POP POP JUMP JUMPDEST PUSH0 PUSH2 0x2B43 DUP7 DUP7 DUP7 DUP7 DUP1 MLOAD SWAP1 PUSH1 0x20 ADD KECCAK256 PUSH2 0x1D42 JUMP JUMPDEST SWAP1 POP DUP5 MLOAD DUP7 MLOAD EQ ISZERO DUP1 PUSH2 0x2B58 JUMPI POP DUP4 MLOAD DUP7 MLOAD EQ ISZERO JUMPDEST DUP1 PUSH2 0x2B63 JUMPI POP PUSH0 DUP7 MLOAD EQ JUMPDEST ISZERO PUSH2 0x2BAC JUMPI DUP6 MLOAD DUP5 MLOAD DUP7 MLOAD PUSH1 0x40 MLOAD PUSH32 0x447B05D000000000000000000000000000000000000000000000000000000000 DUP2 MSTORE PUSH1 0x4 ADD PUSH2 0x2BA3 SWAP4 SWAP3 SWAP2 SWAP1 PUSH2 0x50D0 JUMP JUMPDEST PUSH1 0x40 MLOAD DUP1 SWAP2 SUB SWAP1 REVERT JUMPDEST PUSH0 PUSH1 0x4 PUSH0 DUP4 DUP2 MSTORE PUSH1 0x20 ADD SWAP1 DUP2 MSTORE PUSH1 0x20 ADD PUSH0 KECCAK256 PUSH0 ADD PUSH1 0x14 SWAP1 SLOAD SWAP1 PUSH2 0x100 EXP SWAP1 DIV PUSH6 0xFFFFFFFFFFFF AND PUSH6 0xFFFFFFFFFFFF AND EQ PUSH2 0x2C2B JUMPI DUP1 PUSH2 0x2BEA DUP3 PUSH2 0x124A JUMP JUMPDEST PUSH0 DUP1 SHL PUSH1 0x40 MLOAD PUSH32 0x31B75E4D00000000000000000000000000000000000000000000000000000000 DUP2 MSTORE PUSH1 0x4 ADD PUSH2 0x2C22 SWAP4 SWAP3 SWAP2 SWAP1 PUSH2 0x6232 JUMP JUMPDEST PUSH1 0x40 MLOAD DUP1 SWAP2 SUB SWAP1 REVERT JUMPDEST PUSH0 PUSH2 0x2C34 PUSH2 0x123C JUMP JUMPDEST PUSH2 0x2C3C PUSH2 0x1A92 JUMP JUMPDEST PUSH6 0xFFFFFFFFFFFF AND PUSH2 0x2C4E SWAP2 SWAP1 PUSH2 0x640D JUMP JUMPDEST SWAP1 POP PUSH0 PUSH2 0x2C59 PUSH2 0xDA6 JUMP JUMPDEST SWAP1 POP PUSH0 PUSH1 0x4 PUSH0 DUP6 DUP2 MSTORE PUSH1 0x20 ADD SWAP1 DUP2 MSTORE PUSH1 0x20 ADD PUSH0 KECCAK256 SWAP1 POP DUP5 DUP2 PUSH0 ADD PUSH0 PUSH2 0x100 EXP DUP2 SLOAD DUP2 PUSH20 0xFFFFFFFFFFFFFFFFFFFFFFFFFFFFFFFFFFFFFFFF MUL NOT AND SWAP1 DUP4 PUSH20 0xFFFFFFFFFFFFFFFFFFFFFFFFFFFFFFFFFFFFFFFF AND MUL OR SWAP1 SSTORE POP PUSH2 0x2CB9 DUP4 PUSH2 0x282E JUMP JUMPDEST DUP2 PUSH0 ADD PUSH1 0x14 PUSH2 0x100 EXP DUP2 SLOAD DUP2 PUSH6 0xFFFFFFFFFFFF MUL NOT AND SWAP1 DUP4 PUSH6 0xFFFFFFFFFFFF AND MUL OR SWAP1 SSTORE POP PUSH2 0x2CE7 DUP3 PUSH2 0x3EF7 JUMP JUMPDEST DUP2 PUSH0 ADD PUSH1 0x1A PUSH2 0x100 EXP DUP2 SLOAD DUP2 PUSH4 0xFFFFFFFF MUL NOT AND SWAP1 DUP4 PUSH4 0xFFFFFFFF AND MUL OR SWAP1 SSTORE POP PUSH32 0x7D84A6263AE0D98D3329BD7B46BB4E8D6F98CD35A7ADB45C274C8B7FD5EBD5E0 DUP5 DUP7 DUP12 DUP12 DUP14 MLOAD PUSH8 0xFFFFFFFFFFFFFFFF DUP2 GT ISZERO PUSH2 0x2D48 JUMPI PUSH2 0x2D47 PUSH2 0x4AC5 JUMP JUMPDEST JUMPDEST PUSH1 0x40 MLOAD SWAP1 DUP1 DUP3 MSTORE DUP1 PUSH1 0x20 MUL PUSH1 0x20 ADD DUP3 ADD PUSH1 0x40 MSTORE DUP1 ISZERO PUSH2 0x2D7B JUMPI DUP2 PUSH1 0x20 ADD JUMPDEST PUSH1 0x60 DUP2 MSTORE PUSH1 0x20 ADD SWAP1 PUSH1 0x1 SWAP1 SUB SWAP1 DUP2 PUSH2 0x2D66 JUMPI SWAP1 POP JUMPDEST POP DUP13 DUP10 DUP10 DUP12 PUSH2 0x2D8A SWAP2 SWAP1 PUSH2 0x640D JUMP JUMPDEST DUP15 PUSH1 0x40 MLOAD PUSH2 0x2DA0 SWAP10 SWAP9 SWAP8 SWAP7 SWAP6 SWAP5 SWAP4 SWAP3 SWAP2 SWAP1 PUSH2 0x656A JUMP JUMPDEST PUSH1 0x40 MLOAD DUP1 SWAP2 SUB SWAP1 LOG1 POP POP POP SWAP6 SWAP5 POP POP POP POP POP JUMP JUMPDEST PUSH1 0x60 PUSH2 0x2DE9 PUSH0 PUSH32 0x0 PUSH2 0x3F4E SWAP1 SWAP2 SWAP1 PUSH4 0xFFFFFFFF AND JUMP JUMPDEST SWAP1 POP SWAP1 JUMP JUMPDEST PUSH1 0x60 PUSH2 0x2E24 PUSH1 0x1 PUSH32 0x0 PUSH2 0x3F4E SWAP1 SWAP2 SWAP1 PUSH4 0xFFFFFFFF AND JUMP JUMPDEST SWAP1 POP SWAP1 JUMP JUMPDEST PUSH0 PUSH2 0x2E33 NUMBER PUSH2 0x282E JUMP JUMPDEST SWAP1 POP SWAP1 JUMP JUMPDEST PUSH0 PUSH2 0x2E41 PUSH2 0x1ED9 JUMP JUMPDEST PUSH20 0xFFFFFFFFFFFFFFFFFFFFFFFFFFFFFFFFFFFFFFFF AND PUSH4 0x3A46B1A8 DUP6 DUP6 PUSH1 0x40 MLOAD DUP4 PUSH4 0xFFFFFFFF AND PUSH1 0xE0 SHL DUP2 MSTORE PUSH1 0x4 ADD PUSH2 0x2E7B SWAP3 SWAP2 SWAP1 PUSH2 0x6618 JUMP JUMPDEST PUSH1 0x20 PUSH1 0x40 MLOAD DUP1 DUP4 SUB DUP2 DUP7 GAS STATICCALL ISZERO DUP1 ISZERO PUSH2 0x2E96 JUMPI RETURNDATASIZE PUSH0 DUP1 RETURNDATACOPY RETURNDATASIZE PUSH0 REVERT JUMPDEST POP POP POP POP PUSH1 0x40 MLOAD RETURNDATASIZE PUSH1 0x1F NOT PUSH1 0x1F DUP3 ADD AND DUP3 ADD DUP1 PUSH1 0x40 MSTORE POP DUP2 ADD SWAP1 PUSH2 0x2EBA SWAP2 SWAP1 PUSH2 0x6653 JUMP JUMPDEST SWAP1 POP SWAP4 SWAP3 POP POP POP JUMP JUMPDEST PUSH0 DUP1 DUP3 PUSH0 ADD DUP1 SLOAD SWAP1 POP SWAP1 POP PUSH0 DUP2 EQ PUSH2 0x2F1B JUMPI PUSH2 0x2EED DUP4 PUSH0 ADD PUSH1 0x1 DUP4 PUSH2 0x2EE8 SWAP2 SWAP1 PUSH2 0x5E85 JUMP JUMPDEST PUSH2 0x3DD9 JUMP JUMPDEST PUSH0 ADD PUSH1 0x6 SWAP1 SLOAD SWAP1 PUSH2 0x100 EXP SWAP1 DIV PUSH26 0xFFFFFFFFFFFFFFFFFFFFFFFFFFFFFFFFFFFFFFFFFFFFFFFFFFFF AND PUSH2 0x2F1D JUMP JUMPDEST PUSH0 JUMPDEST SWAP2 POP POP SWAP2 SWAP1 POP JUMP JUMPDEST PUSH32 0x8F74EA46EF7894F65EABFB5E6E695DE773A000B47C529AB559178069B226401 PUSH1 0xB PUSH0 SWAP1 SLOAD SWAP1 PUSH2 0x100 EXP SWAP1 DIV PUSH20 0xFFFFFFFFFFFFFFFFFFFFFFFFFFFFFFFFFFFFFFFF AND DUP3 PUSH1 0x40 MLOAD PUSH2 0x2F77 SWAP3 SWAP2 SWAP1 PUSH2 0x667E JUMP JUMPDEST PUSH1 0x40 MLOAD DUP1 SWAP2 SUB SWAP1 LOG1 DUP1 PUSH1 0xB PUSH0 PUSH2 0x100 EXP DUP2 SLOAD DUP2 PUSH20 0xFFFFFFFFFFFFFFFFFFFFFFFFFFFFFFFFFFFFFFFF MUL NOT AND SWAP1 DUP4 PUSH20 0xFFFFFFFFFFFFFFFFFFFFFFFFFFFFFFFFFFFFFFFF AND MUL OR SWAP1 SSTORE POP POP JUMP JUMPDEST PUSH0 PUSH1 0x1 SWAP1 POP SWAP2 SWAP1 POP JUMP JUMPDEST PUSH0 PUSH1 0x7 SLOAD SWAP1 POP SWAP1 JUMP JUMPDEST PUSH1 0x60 DUP3 PUSH2 0x2FEA JUMPI PUSH2 0x2FE5 DUP3 PUSH2 0x3FFB JUMP JUMPDEST PUSH2 0x2FF2 JUMP JUMPDEST DUP2 SWAP1 POP PUSH2 0x2FF3 JUMP JUMPDEST JUMPDEST SWAP3 SWAP2 POP POP JUMP JUMPDEST PUSH0 DUP2 PUSH4 0xFFFFFFFF AND SUB PUSH2 0x3043 JUMPI PUSH0 PUSH1 0x40 MLOAD PUSH32 0xF1CFBF0500000000000000000000000000000000000000000000000000000000 DUP2 MSTORE PUSH1 0x4 ADD PUSH2 0x303A SWAP2 SWAP1 PUSH2 0x66DE JUMP JUMPDEST PUSH1 0x40 MLOAD DUP1 SWAP2 SUB SWAP1 REVERT JUMPDEST PUSH32 0x7E3F7F0708A84DE9203036ABAA450DCCC85AD5FF52F78C170F3EDB55CF5E8828 PUSH1 0x8 PUSH1 0x6 SWAP1 SLOAD SWAP1 PUSH2 0x100 EXP SWAP1 DIV PUSH4 0xFFFFFFFF AND DUP3 PUSH1 0x40 MLOAD PUSH2 0x3086 SWAP3 SWAP2 SWAP1 PUSH2 0x6727 JUMP JUMPDEST PUSH1 0x40 MLOAD DUP1 SWAP2 SUB SWAP1 LOG1 DUP1 PUSH1 0x8 PUSH1 0x6 PUSH2 0x100 EXP DUP2 SLOAD DUP2 PUSH4 0xFFFFFFFF MUL NOT AND SWAP1 DUP4 PUSH4 0xFFFFFFFF AND MUL OR SWAP1 SSTORE POP POP JUMP JUMPDEST PUSH1 0x60 PUSH1 0x40 MLOAD DUP1 PUSH1 0x20 ADD PUSH1 0x40 MSTORE DUP1 PUSH0 DUP2 MSTORE POP SWAP1 POP SWAP1 JUMP JUMPDEST PUSH32 0xCCB45DA8D5717E6C4544694297C4BA5CF151D455C9BB0ED4FC7A38411BC05461 PUSH1 0x7 SLOAD DUP3 PUSH1 0x40 MLOAD PUSH2 0x30FB SWAP3 SWAP2 SWAP1 PUSH2 0x620B JUMP JUMPDEST PUSH1 0x40 MLOAD DUP1 SWAP2 SUB SWAP1 LOG1 DUP1 PUSH1 0x7 DUP2 SWAP1 SSTORE POP POP JUMP JUMPDEST PUSH0 PUSH2 0x3116 PUSH2 0x1B1D JUMP JUMPDEST PUSH2 0x311F DUP4 PUSH2 0x1673 JUMP JUMPDEST PUSH2 0x3127 PUSH2 0x1ED9 JUMP JUMPDEST PUSH20 0xFFFFFFFFFFFFFFFFFFFFFFFFFFFFFFFFFFFFFFFF AND PUSH4 0x8E539E8C DUP6 PUSH1 0x40 MLOAD DUP3 PUSH4 0xFFFFFFFF AND PUSH1 0xE0 SHL DUP2 MSTORE PUSH1 0x4 ADD PUSH2 0x315F SWAP2 SWAP1 PUSH2 0x493D JUMP JUMPDEST PUSH1 0x20 PUSH1 0x40 MLOAD DUP1 DUP4 SUB DUP2 DUP7 GAS STATICCALL ISZERO DUP1 ISZERO PUSH2 0x317A JUMPI RETURNDATASIZE PUSH0 DUP1 RETURNDATACOPY RETURNDATASIZE PUSH0 REVERT JUMPDEST POP POP POP POP PUSH1 0x40 MLOAD RETURNDATASIZE PUSH1 0x1F NOT PUSH1 0x1F DUP3 ADD AND DUP3 ADD DUP1 PUSH1 0x40 MSTORE POP DUP2 ADD SWAP1 PUSH2 0x319E SWAP2 SWAP1 PUSH2 0x6653 JUMP JUMPDEST PUSH2 0x31A8 SWAP2 SWAP1 PUSH2 0x674E JUMP JUMPDEST PUSH2 0x31B2 SWAP2 SWAP1 PUSH2 0x67BC JUMP JUMPDEST SWAP1 POP SWAP2 SWAP1 POP JUMP JUMPDEST CALLDATASIZE PUSH0 DUP1 CALLDATASIZE SWAP2 POP SWAP2 POP SWAP1 SWAP2 JUMP JUMPDEST PUSH0 DUP1 DUP3 PUSH0 ADD PUSH0 SWAP1 SLOAD SWAP1 PUSH2 0x100 EXP SWAP1 DIV PUSH16 0xFFFFFFFFFFFFFFFFFFFFFFFFFFFFFFFF AND SWAP1 POP DUP3 PUSH0 ADD PUSH1 0x10 SWAP1 SLOAD SWAP1 PUSH2 0x100 EXP SWAP1 DIV PUSH16 0xFFFFFFFFFFFFFFFFFFFFFFFFFFFFFFFF AND PUSH16 0xFFFFFFFFFFFFFFFFFFFFFFFFFFFFFFFF AND DUP2 PUSH16 0xFFFFFFFFFFFFFFFFFFFFFFFFFFFFFFFF AND SUB PUSH2 0x3264 JUMPI PUSH1 0x40 MLOAD PUSH32 0x75E52F4F00000000000000000000000000000000000000000000000000000000 DUP2 MSTORE PUSH1 0x4 ADD PUSH1 0x40 MLOAD DUP1 SWAP2 SUB SWAP1 REVERT JUMPDEST DUP3 PUSH1 0x1 ADD PUSH0 DUP3 PUSH16 0xFFFFFFFFFFFFFFFFFFFFFFFFFFFFFFFF AND PUSH16 0xFFFFFFFFFFFFFFFFFFFFFFFFFFFFFFFF AND DUP2 MSTORE PUSH1 0x20 ADD SWAP1 DUP2 MSTORE PUSH1 0x20 ADD PUSH0 KECCAK256 SLOAD SWAP2 POP DUP3 PUSH1 0x1 ADD PUSH0 DUP3 PUSH16 0xFFFFFFFFFFFFFFFFFFFFFFFFFFFFFFFF AND PUSH16 0xFFFFFFFFFFFFFFFFFFFFFFFFFFFFFFFF AND DUP2 MSTORE PUSH1 0x20 ADD SWAP1 DUP2 MSTORE PUSH1 0x20 ADD PUSH0 KECCAK256 PUSH0 SWAP1 SSTORE PUSH1 0x1 DUP2 ADD DUP4 PUSH0 ADD PUSH0 PUSH2 0x100 EXP DUP2 SLOAD DUP2 PUSH16 0xFFFFFFFFFFFFFFFFFFFFFFFFFFFFFFFF MUL NOT AND SWAP1 DUP4 PUSH16 0xFFFFFFFFFFFFFFFFFFFFFFFFFFFFFFFF AND MUL OR SWAP1 SSTORE POP POP SWAP2 SWAP1 POP JUMP JUMPDEST PUSH0 PUSH26 0xFFFFFFFFFFFFFFFFFFFFFFFFFFFFFFFFFFFFFFFFFFFFFFFFFFFF DUP1 AND DUP3 GT ISZERO PUSH2 0x337F JUMPI PUSH1 0xD0 DUP3 PUSH1 0x40 MLOAD PUSH32 0x6DFCC65000000000000000000000000000000000000000000000000000000000 DUP2 MSTORE PUSH1 0x4 ADD PUSH2 0x3376 SWAP3 SWAP2 SWAP1 PUSH2 0x6825 JUMP JUMPDEST PUSH1 0x40 MLOAD DUP1 SWAP2 SUB SWAP1 REVERT JUMPDEST DUP2 SWAP1 POP SWAP2 SWAP1 POP JUMP JUMPDEST PUSH0 DUP1 PUSH2 0x3396 DUP6 PUSH0 ADD DUP6 DUP6 PUSH2 0x403F JUMP JUMPDEST SWAP2 POP SWAP2 POP SWAP4 POP SWAP4 SWAP2 POP POP JUMP JUMPDEST PUSH0 DUP1 PUSH1 0xB PUSH0 SWAP1 SLOAD SWAP1 PUSH2 0x100 EXP SWAP1 DIV PUSH20 0xFFFFFFFFFFFFFFFFFFFFFFFFFFFFFFFFFFFFFFFF AND PUSH20 0xFFFFFFFFFFFFFFFFFFFFFFFFFFFFFFFFFFFFFFFF AND PUSH4 0xF27A0C92 PUSH1 0x40 MLOAD DUP2 PUSH4 0xFFFFFFFF AND PUSH1 0xE0 SHL DUP2 MSTORE PUSH1 0x4 ADD PUSH1 0x20 PUSH1 0x40 MLOAD DUP1 DUP4 SUB DUP2 DUP7 GAS STATICCALL ISZERO DUP1 ISZERO PUSH2 0x340E JUMPI RETURNDATASIZE PUSH0 DUP1 RETURNDATACOPY RETURNDATASIZE PUSH0 REVERT JUMPDEST POP POP POP POP PUSH1 0x40 MLOAD RETURNDATASIZE PUSH1 0x1F NOT PUSH1 0x1F DUP3 ADD AND DUP3 ADD DUP1 PUSH1 0x40 MSTORE POP DUP2 ADD SWAP1 PUSH2 0x3432 SWAP2 SWAP1 PUSH2 0x6653 JUMP JUMPDEST SWAP1 POP PUSH0 PUSH2 0x343E DUP5 PUSH2 0x43A7 JUMP JUMPDEST SWAP1 POP PUSH1 0xB PUSH0 SWAP1 SLOAD SWAP1 PUSH2 0x100 EXP SWAP1 DIV PUSH20 0xFFFFFFFFFFFFFFFFFFFFFFFFFFFFFFFFFFFFFFFF AND PUSH20 0xFFFFFFFFFFFFFFFFFFFFFFFFFFFFFFFFFFFFFFFF AND PUSH4 0xB1C5F427 DUP9 DUP9 DUP9 PUSH0 DUP7 PUSH1 0x40 MLOAD DUP7 PUSH4 0xFFFFFFFF AND PUSH1 0xE0 SHL DUP2 MSTORE PUSH1 0x4 ADD PUSH2 0x34A2 SWAP6 SWAP5 SWAP4 SWAP3 SWAP2 SWAP1 PUSH2 0x6887 JUMP JUMPDEST PUSH1 0x20 PUSH1 0x40 MLOAD DUP1 DUP4 SUB DUP2 DUP7 GAS STATICCALL ISZERO DUP1 ISZERO PUSH2 0x34BD JUMPI RETURNDATASIZE PUSH0 DUP1 RETURNDATACOPY RETURNDATASIZE PUSH0 REVERT JUMPDEST POP POP POP POP PUSH1 0x40 MLOAD RETURNDATASIZE PUSH1 0x1F NOT PUSH1 0x1F DUP3 ADD AND DUP3 ADD DUP1 PUSH1 0x40 MSTORE POP DUP2 ADD SWAP1 PUSH2 0x34E1 SWAP2 SWAP1 PUSH2 0x6901 JUMP JUMPDEST PUSH1 0xC PUSH0 DUP11 DUP2 MSTORE PUSH1 0x20 ADD SWAP1 DUP2 MSTORE PUSH1 0x20 ADD PUSH0 KECCAK256 DUP2 SWAP1 SSTORE POP PUSH1 0xB PUSH0 SWAP1 SLOAD SWAP1 PUSH2 0x100 EXP SWAP1 DIV PUSH20 0xFFFFFFFFFFFFFFFFFFFFFFFFFFFFFFFFFFFFFFFF AND PUSH20 0xFFFFFFFFFFFFFFFFFFFFFFFFFFFFFFFFFFFFFFFF AND PUSH4 0x8F2A0BB0 DUP9 DUP9 DUP9 PUSH0 DUP7 DUP9 PUSH1 0x40 MLOAD DUP8 PUSH4 0xFFFFFFFF AND PUSH1 0xE0 SHL DUP2 MSTORE PUSH1 0x4 ADD PUSH2 0x355A SWAP7 SWAP6 SWAP5 SWAP4 SWAP3 SWAP2 SWAP1 PUSH2 0x692C JUMP JUMPDEST PUSH0 PUSH1 0x40 MLOAD DUP1 DUP4 SUB DUP2 PUSH0 DUP8 DUP1 EXTCODESIZE ISZERO DUP1 ISZERO PUSH2 0x3571 JUMPI PUSH0 DUP1 REVERT JUMPDEST POP GAS CALL ISZERO DUP1 ISZERO PUSH2 0x3583 JUMPI RETURNDATASIZE PUSH0 DUP1 RETURNDATACOPY RETURNDATASIZE PUSH0 REVERT JUMPDEST POP POP POP POP PUSH2 0x359B DUP3 TIMESTAMP PUSH2 0x3596 SWAP2 SWAP1 PUSH2 0x640D JUMP JUMPDEST PUSH2 0x282E JUMP JUMPDEST SWAP3 POP POP POP SWAP6 SWAP5 POP POP POP POP POP JUMP JUMPDEST PUSH1 0xB PUSH0 SWAP1 SLOAD SWAP1 PUSH2 0x100 EXP SWAP1 DIV PUSH20 0xFFFFFFFFFFFFFFFFFFFFFFFFFFFFFFFFFFFFFFFF AND PUSH20 0xFFFFFFFFFFFFFFFFFFFFFFFFFFFFFFFFFFFFFFFF AND PUSH4 0xE38335E5 CALLVALUE DUP7 DUP7 DUP7 PUSH0 PUSH2 0x35F3 DUP9 PUSH2 0x43A7 JUMP JUMPDEST PUSH1 0x40 MLOAD DUP8 PUSH4 0xFFFFFFFF AND PUSH1 0xE0 SHL DUP2 MSTORE PUSH1 0x4 ADD PUSH2 0x3613 SWAP6 SWAP5 SWAP4 SWAP3 SWAP2 SWAP1 PUSH2 0x6887 JUMP JUMPDEST PUSH0 PUSH1 0x40 MLOAD DUP1 DUP4 SUB DUP2 DUP6 DUP9 DUP1 EXTCODESIZE ISZERO DUP1 ISZERO PUSH2 0x362A JUMPI PUSH0 DUP1 REVERT JUMPDEST POP GAS CALL ISZERO DUP1 ISZERO PUSH2 0x363C JUMPI RETURNDATASIZE PUSH0 DUP1 RETURNDATACOPY RETURNDATASIZE PUSH0 REVERT JUMPDEST POP POP POP POP POP PUSH1 0xC PUSH0 DUP7 DUP2 MSTORE PUSH1 0x20 ADD SWAP1 DUP2 MSTORE PUSH1 0x20 ADD PUSH0 KECCAK256 PUSH0 SWAP1 SSTORE POP POP POP POP POP JUMP JUMPDEST PUSH0 DUP1 PUSH1 0x4 PUSH0 DUP5 DUP2 MSTORE PUSH1 0x20 ADD SWAP1 DUP2 MSTORE PUSH1 0x20 ADD PUSH0 KECCAK256 SWAP1 POP PUSH0 DUP2 PUSH0 ADD PUSH1 0x1E SWAP1 SLOAD SWAP1 PUSH2 0x100 EXP SWAP1 DIV PUSH1 0xFF AND SWAP1 POP PUSH0 DUP3 PUSH0 ADD PUSH1 0x1F SWAP1 SLOAD SWAP1 PUSH2 0x100 EXP SWAP1 DIV PUSH1 0xFF AND SWAP1 POP DUP2 ISZERO PUSH2 0x36AB JUMPI PUSH1 0x7 SWAP4 POP POP POP POP PUSH2 0x37AE JUMP JUMPDEST DUP1 ISZERO PUSH2 0x36BD JUMPI PUSH1 0x2 SWAP4 POP POP POP POP PUSH2 0x37AE JUMP JUMPDEST PUSH0 PUSH2 0x36C7 DUP7 PUSH2 0x11E2 JUMP JUMPDEST SWAP1 POP PUSH0 DUP2 SUB PUSH2 0x370D JUMPI DUP6 PUSH1 0x40 MLOAD PUSH32 0x6AD0607500000000000000000000000000000000000000000000000000000000 DUP2 MSTORE PUSH1 0x4 ADD PUSH2 0x3704 SWAP2 SWAP1 PUSH2 0x493D JUMP JUMPDEST PUSH1 0x40 MLOAD DUP1 SWAP2 SUB SWAP1 REVERT JUMPDEST PUSH0 PUSH2 0x3716 PUSH2 0x1A92 JUMP JUMPDEST PUSH6 0xFFFFFFFFFFFF AND SWAP1 POP DUP1 DUP3 LT PUSH2 0x3734 JUMPI PUSH0 SWAP6 POP POP POP POP POP POP PUSH2 0x37AE JUMP JUMPDEST PUSH0 PUSH2 0x373E DUP9 PUSH2 0x1C4F JUMP JUMPDEST SWAP1 POP DUP2 DUP2 LT PUSH2 0x3756 JUMPI PUSH1 0x1 SWAP7 POP POP POP POP POP POP POP PUSH2 0x37AE JUMP JUMPDEST PUSH2 0x375F DUP9 PUSH2 0x43C4 JUMP JUMPDEST ISZERO DUP1 PUSH2 0x3771 JUMPI POP PUSH2 0x376F DUP9 PUSH2 0x4408 JUMP JUMPDEST ISZERO JUMPDEST ISZERO PUSH2 0x3785 JUMPI PUSH1 0x3 SWAP7 POP POP POP POP POP POP POP PUSH2 0x37AE JUMP JUMPDEST PUSH0 PUSH2 0x378F DUP10 PUSH2 0x1B8B JUMP JUMPDEST SUB PUSH2 0x37A3 JUMPI PUSH1 0x4 SWAP7 POP POP POP POP POP POP POP PUSH2 0x37AE JUMP JUMPDEST PUSH1 0x5 SWAP7 POP POP POP POP POP POP POP JUMPDEST SWAP2 SWAP1 POP JUMP JUMPDEST PUSH0 DUP1 PUSH2 0x37C1 DUP7 DUP7 DUP7 DUP7 PUSH2 0x442F JUMP JUMPDEST SWAP1 POP PUSH0 PUSH1 0xC PUSH0 DUP4 DUP2 MSTORE PUSH1 0x20 ADD SWAP1 DUP2 MSTORE PUSH1 0x20 ADD PUSH0 KECCAK256 SLOAD SWAP1 POP PUSH0 DUP1 SHL DUP2 EQ PUSH2 0x387D JUMPI PUSH1 0xB PUSH0 SWAP1 SLOAD SWAP1 PUSH2 0x100 EXP SWAP1 DIV PUSH20 0xFFFFFFFFFFFFFFFFFFFFFFFFFFFFFFFFFFFFFFFF AND PUSH20 0xFFFFFFFFFFFFFFFFFFFFFFFFFFFFFFFFFFFFFFFF AND PUSH4 0xC4D252F5 DUP3 PUSH1 0x40 MLOAD DUP3 PUSH4 0xFFFFFFFF AND PUSH1 0xE0 SHL DUP2 MSTORE PUSH1 0x4 ADD PUSH2 0x383B SWAP2 SWAP1 PUSH2 0x4FED JUMP JUMPDEST PUSH0 PUSH1 0x40 MLOAD DUP1 DUP4 SUB DUP2 PUSH0 DUP8 DUP1 EXTCODESIZE ISZERO DUP1 ISZERO PUSH2 0x3852 JUMPI PUSH0 DUP1 REVERT JUMPDEST POP GAS CALL ISZERO DUP1 ISZERO PUSH2 0x3864 JUMPI RETURNDATASIZE PUSH0 DUP1 RETURNDATACOPY RETURNDATASIZE PUSH0 REVERT JUMPDEST POP POP POP POP PUSH1 0xC PUSH0 DUP4 DUP2 MSTORE PUSH1 0x20 ADD SWAP1 DUP2 MSTORE PUSH1 0x20 ADD PUSH0 KECCAK256 PUSH0 SWAP1 SSTORE JUMPDEST DUP2 SWAP3 POP POP POP SWAP5 SWAP4 POP POP POP POP JUMP JUMPDEST PUSH0 PUSH32 0x0 PUSH20 0xFFFFFFFFFFFFFFFFFFFFFFFFFFFFFFFFFFFFFFFF AND ADDRESS PUSH20 0xFFFFFFFFFFFFFFFFFFFFFFFFFFFFFFFFFFFFFFFF AND EQ DUP1 ISZERO PUSH2 0x3905 JUMPI POP PUSH32 0x0 CHAINID EQ JUMPDEST ISZERO PUSH2 0x3932 JUMPI PUSH32 0x0 SWAP1 POP PUSH2 0x393D JUMP JUMPDEST PUSH2 0x393A PUSH2 0x4511 JUMP JUMPDEST SWAP1 POP JUMPDEST SWAP1 JUMP JUMPDEST PUSH0 PUSH1 0x40 MLOAD PUSH32 0x1901000000000000000000000000000000000000000000000000000000000000 DUP2 MSTORE DUP4 PUSH1 0x2 DUP3 ADD MSTORE DUP3 PUSH1 0x22 DUP3 ADD MSTORE PUSH1 0x42 DUP2 KECCAK256 SWAP2 POP POP SWAP3 SWAP2 POP POP JUMP JUMPDEST PUSH0 DUP1 PUSH0 PUSH1 0x41 DUP5 MLOAD SUB PUSH2 0x39C0 JUMPI PUSH0 DUP1 PUSH0 PUSH1 0x20 DUP8 ADD MLOAD SWAP3 POP PUSH1 0x40 DUP8 ADD MLOAD SWAP2 POP PUSH1 0x60 DUP8 ADD MLOAD PUSH0 BYTE SWAP1 POP PUSH2 0x39B2 DUP9 DUP3 DUP6 DUP6 PUSH2 0x45A6 JUMP JUMPDEST SWAP6 POP SWAP6 POP SWAP6 POP POP POP POP PUSH2 0x39CE JUMP JUMPDEST PUSH0 PUSH1 0x2 DUP6 MLOAD PUSH0 SHL SWAP3 POP SWAP3 POP SWAP3 POP JUMPDEST SWAP3 POP SWAP3 POP SWAP3 JUMP JUMPDEST PUSH0 DUP1 PUSH0 DUP6 PUSH20 0xFFFFFFFFFFFFFFFFFFFFFFFFFFFFFFFFFFFFFFFF AND DUP6 DUP6 PUSH1 0x40 MLOAD PUSH1 0x24 ADD PUSH2 0x3A02 SWAP3 SWAP2 SWAP1 PUSH2 0x69A0 JUMP JUMPDEST PUSH1 0x40 MLOAD PUSH1 0x20 DUP2 DUP4 SUB SUB DUP2 MSTORE SWAP1 PUSH1 0x40 MSTORE PUSH4 0x1626BA7E PUSH1 0xE0 SHL PUSH1 0x20 DUP3 ADD DUP1 MLOAD PUSH28 0xFFFFFFFFFFFFFFFFFFFFFFFFFFFFFFFFFFFFFFFFFFFFFFFFFFFFFFFF DUP4 DUP2 DUP4 AND OR DUP4 MSTORE POP POP POP POP PUSH1 0x40 MLOAD PUSH2 0x3A54 SWAP2 SWAP1 PUSH2 0x69FE JUMP JUMPDEST PUSH0 PUSH1 0x40 MLOAD DUP1 DUP4 SUB DUP2 DUP6 GAS STATICCALL SWAP2 POP POP RETURNDATASIZE DUP1 PUSH0 DUP2 EQ PUSH2 0x3A8C JUMPI PUSH1 0x40 MLOAD SWAP2 POP PUSH1 0x1F NOT PUSH1 0x3F RETURNDATASIZE ADD AND DUP3 ADD PUSH1 0x40 MSTORE RETURNDATASIZE DUP3 MSTORE RETURNDATASIZE PUSH0 PUSH1 0x20 DUP5 ADD RETURNDATACOPY PUSH2 0x3A91 JUMP JUMPDEST PUSH1 0x60 SWAP2 POP JUMPDEST POP SWAP2 POP SWAP2 POP DUP2 DUP1 ISZERO PUSH2 0x3AA5 JUMPI POP PUSH1 0x20 DUP2 MLOAD LT ISZERO JUMPDEST DUP1 ISZERO PUSH2 0x3AE9 JUMPI POP PUSH4 0x1626BA7E PUSH1 0xE0 SHL PUSH28 0xFFFFFFFFFFFFFFFFFFFFFFFFFFFFFFFFFFFFFFFFFFFFFFFFFFFFFFFF NOT AND DUP2 DUP1 PUSH1 0x20 ADD SWAP1 MLOAD DUP2 ADD SWAP1 PUSH2 0x3AE7 SWAP2 SWAP1 PUSH2 0x6901 JUMP JUMPDEST EQ JUMPDEST SWAP3 POP POP POP SWAP4 SWAP3 POP POP POP JUMP JUMPDEST PUSH0 PUSH1 0x9 PUSH0 DUP8 DUP2 MSTORE PUSH1 0x20 ADD SWAP1 DUP2 MSTORE PUSH1 0x20 ADD PUSH0 KECCAK256 SWAP1 POP DUP1 PUSH1 0x3 ADD PUSH0 DUP7 PUSH20 0xFFFFFFFFFFFFFFFFFFFFFFFFFFFFFFFFFFFFFFFF AND PUSH20 0xFFFFFFFFFFFFFFFFFFFFFFFFFFFFFFFFFFFFFFFF AND DUP2 MSTORE PUSH1 0x20 ADD SWAP1 DUP2 MSTORE PUSH1 0x20 ADD PUSH0 KECCAK256 PUSH0 SWAP1 SLOAD SWAP1 PUSH2 0x100 EXP SWAP1 DIV PUSH1 0xFF AND ISZERO PUSH2 0x3B96 JUMPI DUP5 PUSH1 0x40 MLOAD PUSH32 0x71C6AF4900000000000000000000000000000000000000000000000000000000 DUP2 MSTORE PUSH1 0x4 ADD PUSH2 0x3B8D SWAP2 SWAP1 PUSH2 0x4A7A JUMP JUMPDEST PUSH1 0x40 MLOAD DUP1 SWAP2 SUB SWAP1 REVERT JUMPDEST PUSH1 0x1 DUP2 PUSH1 0x3 ADD PUSH0 DUP8 PUSH20 0xFFFFFFFFFFFFFFFFFFFFFFFFFFFFFFFFFFFFFFFF AND PUSH20 0xFFFFFFFFFFFFFFFFFFFFFFFFFFFFFFFFFFFFFFFF AND DUP2 MSTORE PUSH1 0x20 ADD SWAP1 DUP2 MSTORE PUSH1 0x20 ADD PUSH0 KECCAK256 PUSH0 PUSH2 0x100 EXP DUP2 SLOAD DUP2 PUSH1 0xFF MUL NOT AND SWAP1 DUP4 ISZERO ISZERO MUL OR SWAP1 SSTORE POP PUSH0 PUSH1 0x2 DUP2 GT ISZERO PUSH2 0x3C00 JUMPI PUSH2 0x3BFF PUSH2 0x5006 JUMP JUMPDEST JUMPDEST PUSH1 0xFF AND DUP5 PUSH1 0xFF AND SUB PUSH2 0x3C2A JUMPI DUP3 DUP2 PUSH0 ADD PUSH0 DUP3 DUP3 SLOAD PUSH2 0x3C1E SWAP2 SWAP1 PUSH2 0x640D JUMP JUMPDEST SWAP3 POP POP DUP2 SWAP1 SSTORE POP PUSH2 0x3CDB JUMP JUMPDEST PUSH1 0x1 PUSH1 0x2 DUP2 GT ISZERO PUSH2 0x3C3E JUMPI PUSH2 0x3C3D PUSH2 0x5006 JUMP JUMPDEST JUMPDEST PUSH1 0xFF AND DUP5 PUSH1 0xFF AND SUB PUSH2 0x3C69 JUMPI DUP3 DUP2 PUSH1 0x1 ADD PUSH0 DUP3 DUP3 SLOAD PUSH2 0x3C5D SWAP2 SWAP1 PUSH2 0x640D JUMP JUMPDEST SWAP3 POP POP DUP2 SWAP1 SSTORE POP PUSH2 0x3CDA JUMP JUMPDEST PUSH1 0x2 DUP1 DUP2 GT ISZERO PUSH2 0x3C7C JUMPI PUSH2 0x3C7B PUSH2 0x5006 JUMP JUMPDEST JUMPDEST PUSH1 0xFF AND DUP5 PUSH1 0xFF AND SUB PUSH2 0x3CA7 JUMPI DUP3 DUP2 PUSH1 0x2 ADD PUSH0 DUP3 DUP3 SLOAD PUSH2 0x3C9B SWAP2 SWAP1 PUSH2 0x640D JUMP JUMPDEST SWAP3 POP POP DUP2 SWAP1 SSTORE POP PUSH2 0x3CD9 JUMP JUMPDEST PUSH1 0x40 MLOAD PUSH32 0x6B337C200000000000000000000000000000000000000000000000000000000 DUP2 MSTORE PUSH1 0x4 ADD PUSH1 0x40 MLOAD DUP1 SWAP2 SUB SWAP1 REVERT JUMPDEST JUMPDEST JUMPDEST POP POP POP POP POP POP JUMP JUMPDEST PUSH0 DUP1 DUP3 SUB PUSH2 0x3CF3 JUMPI PUSH0 SWAP1 POP PUSH2 0x3DD4 JUMP JUMPDEST PUSH0 PUSH1 0x1 PUSH2 0x3CFF DUP5 PUSH2 0x468D JUMP JUMPDEST SWAP1 SHR PUSH1 0x1 SWAP1 SHL SWAP1 POP PUSH1 0x1 DUP2 DUP5 DUP2 PUSH2 0x3D19 JUMPI PUSH2 0x3D18 PUSH2 0x678F JUMP JUMPDEST JUMPDEST DIV DUP3 ADD SWAP1 SHR SWAP1 POP PUSH1 0x1 DUP2 DUP5 DUP2 PUSH2 0x3D32 JUMPI PUSH2 0x3D31 PUSH2 0x678F JUMP JUMPDEST JUMPDEST DIV DUP3 ADD SWAP1 SHR SWAP1 POP PUSH1 0x1 DUP2 DUP5 DUP2 PUSH2 0x3D4B JUMPI PUSH2 0x3D4A PUSH2 0x678F JUMP JUMPDEST JUMPDEST DIV DUP3 ADD SWAP1 SHR SWAP1 POP PUSH1 0x1 DUP2 DUP5 DUP2 PUSH2 0x3D64 JUMPI PUSH2 0x3D63 PUSH2 0x678F JUMP JUMPDEST JUMPDEST DIV DUP3 ADD SWAP1 SHR SWAP1 POP PUSH1 0x1 DUP2 DUP5 DUP2 PUSH2 0x3D7D JUMPI PUSH2 0x3D7C PUSH2 0x678F JUMP JUMPDEST JUMPDEST DIV DUP3 ADD SWAP1 SHR SWAP1 POP PUSH1 0x1 DUP2 DUP5 DUP2 PUSH2 0x3D96 JUMPI PUSH2 0x3D95 PUSH2 0x678F JUMP JUMPDEST JUMPDEST DIV DUP3 ADD SWAP1 SHR SWAP1 POP PUSH1 0x1 DUP2 DUP5 DUP2 PUSH2 0x3DAF JUMPI PUSH2 0x3DAE PUSH2 0x678F JUMP JUMPDEST JUMPDEST DIV DUP3 ADD SWAP1 SHR SWAP1 POP PUSH2 0x3DD0 DUP2 DUP3 DUP6 DUP2 PUSH2 0x3DCA JUMPI PUSH2 0x3DC9 PUSH2 0x678F JUMP JUMPDEST JUMPDEST DIV PUSH2 0x4764 JUMP JUMPDEST SWAP2 POP POP JUMPDEST SWAP2 SWAP1 POP JUMP JUMPDEST PUSH0 DUP3 PUSH0 MSTORE DUP2 PUSH1 0x20 PUSH0 KECCAK256 ADD SWAP1 POP SWAP3 SWAP2 POP POP JUMP JUMPDEST PUSH0 JUMPDEST DUP2 DUP4 LT ISZERO PUSH2 0x3E55 JUMPI PUSH0 PUSH2 0x3E00 DUP5 DUP5 PUSH2 0x477C JUMP JUMPDEST SWAP1 POP DUP5 PUSH6 0xFFFFFFFFFFFF AND PUSH2 0x3E15 DUP8 DUP4 PUSH2 0x3DD9 JUMP JUMPDEST PUSH0 ADD PUSH0 SWAP1 SLOAD SWAP1 PUSH2 0x100 EXP SWAP1 DIV PUSH6 0xFFFFFFFFFFFF AND PUSH6 0xFFFFFFFFFFFF AND GT ISZERO PUSH2 0x3E3F JUMPI DUP1 SWAP3 POP PUSH2 0x3E4F JUMP JUMPDEST PUSH1 0x1 DUP2 PUSH2 0x3E4C SWAP2 SWAP1 PUSH2 0x640D JUMP JUMPDEST SWAP4 POP JUMPDEST POP PUSH2 0x3DED JUMP JUMPDEST DUP2 SWAP1 POP SWAP5 SWAP4 POP POP POP POP JUMP JUMPDEST PUSH0 DUP1 PUSH0 DUP4 PUSH1 0xF8 SHR SWAP1 POP DUP1 PUSH1 0xFF AND PUSH1 0x2F LT DUP1 ISZERO PUSH2 0x3E7F JUMPI POP PUSH1 0x3A DUP2 PUSH1 0xFF AND LT JUMPDEST ISZERO PUSH2 0x3E94 JUMPI PUSH1 0x1 PUSH1 0x30 DUP3 SUB SWAP3 POP SWAP3 POP POP PUSH2 0x3EF2 JUMP JUMPDEST DUP1 PUSH1 0xFF AND PUSH1 0x40 LT DUP1 ISZERO PUSH2 0x3EAA JUMPI POP PUSH1 0x47 DUP2 PUSH1 0xFF AND LT JUMPDEST ISZERO PUSH2 0x3EBF JUMPI PUSH1 0x1 PUSH1 0x37 DUP3 SUB SWAP3 POP SWAP3 POP POP PUSH2 0x3EF2 JUMP JUMPDEST DUP1 PUSH1 0xFF AND PUSH1 0x60 LT DUP1 ISZERO PUSH2 0x3ED5 JUMPI POP PUSH1 0x67 DUP2 PUSH1 0xFF AND LT JUMPDEST ISZERO PUSH2 0x3EEA JUMPI PUSH1 0x1 PUSH1 0x57 DUP3 SUB SWAP3 POP SWAP3 POP POP PUSH2 0x3EF2 JUMP JUMPDEST PUSH0 DUP1 SWAP3 POP SWAP3 POP POP JUMPDEST SWAP2 POP SWAP2 JUMP JUMPDEST PUSH0 PUSH4 0xFFFFFFFF DUP1 AND DUP3 GT ISZERO PUSH2 0x3F46 JUMPI PUSH1 0x20 DUP3 PUSH1 0x40 MLOAD PUSH32 0x6DFCC65000000000000000000000000000000000000000000000000000000000 DUP2 MSTORE PUSH1 0x4 ADD PUSH2 0x3F3D SWAP3 SWAP2 SWAP1 PUSH2 0x6A4D JUMP JUMPDEST PUSH1 0x40 MLOAD DUP1 SWAP2 SUB SWAP1 REVERT JUMPDEST DUP2 SWAP1 POP SWAP2 SWAP1 POP JUMP JUMPDEST PUSH1 0x60 PUSH1 0xFF PUSH0 SHL DUP4 EQ PUSH2 0x3F6A JUMPI PUSH2 0x3F63 DUP4 PUSH2 0x47A1 JUMP JUMPDEST SWAP1 POP PUSH2 0x3FF5 JUMP JUMPDEST DUP2 DUP1 SLOAD PUSH2 0x3F76 SWAP1 PUSH2 0x5C2D JUMP JUMPDEST DUP1 PUSH1 0x1F ADD PUSH1 0x20 DUP1 SWAP2 DIV MUL PUSH1 0x20 ADD PUSH1 0x40 MLOAD SWAP1 DUP2 ADD PUSH1 0x40 MSTORE DUP1 SWAP3 SWAP2 SWAP1 DUP2 DUP2 MSTORE PUSH1 0x20 ADD DUP3 DUP1 SLOAD PUSH2 0x3FA2 SWAP1 PUSH2 0x5C2D JUMP JUMPDEST DUP1 ISZERO PUSH2 0x3FED JUMPI DUP1 PUSH1 0x1F LT PUSH2 0x3FC4 JUMPI PUSH2 0x100 DUP1 DUP4 SLOAD DIV MUL DUP4 MSTORE SWAP2 PUSH1 0x20 ADD SWAP2 PUSH2 0x3FED JUMP JUMPDEST DUP3 ADD SWAP2 SWAP1 PUSH0 MSTORE PUSH1 0x20 PUSH0 KECCAK256 SWAP1 JUMPDEST DUP2 SLOAD DUP2 MSTORE SWAP1 PUSH1 0x1 ADD SWAP1 PUSH1 0x20 ADD DUP1 DUP4 GT PUSH2 0x3FD0 JUMPI DUP3 SWAP1 SUB PUSH1 0x1F AND DUP3 ADD SWAP2 JUMPDEST POP POP POP POP POP SWAP1 POP JUMPDEST SWAP3 SWAP2 POP POP JUMP JUMPDEST PUSH0 DUP2 MLOAD GT ISZERO PUSH2 0x400D JUMPI DUP1 MLOAD DUP1 DUP3 PUSH1 0x20 ADD REVERT JUMPDEST PUSH1 0x40 MLOAD PUSH32 0x1425EA4200000000000000000000000000000000000000000000000000000000 DUP2 MSTORE PUSH1 0x4 ADD PUSH1 0x40 MLOAD DUP1 SWAP2 SUB SWAP1 REVERT JUMPDEST PUSH0 DUP1 PUSH0 DUP6 DUP1 SLOAD SWAP1 POP SWAP1 POP PUSH0 DUP2 GT ISZERO PUSH2 0x42BF JUMPI PUSH0 PUSH2 0x4068 DUP8 PUSH1 0x1 DUP5 PUSH2 0x4063 SWAP2 SWAP1 PUSH2 0x5E85 JUMP JUMPDEST PUSH2 0x3DD9 JUMP JUMPDEST PUSH1 0x40 MLOAD DUP1 PUSH1 0x40 ADD PUSH1 0x40 MSTORE SWAP1 DUP2 PUSH0 DUP3 ADD PUSH0 SWAP1 SLOAD SWAP1 PUSH2 0x100 EXP SWAP1 DIV PUSH6 0xFFFFFFFFFFFF AND PUSH6 0xFFFFFFFFFFFF AND PUSH6 0xFFFFFFFFFFFF AND DUP2 MSTORE PUSH1 0x20 ADD PUSH0 DUP3 ADD PUSH1 0x6 SWAP1 SLOAD SWAP1 PUSH2 0x100 EXP SWAP1 DIV PUSH26 0xFFFFFFFFFFFFFFFFFFFFFFFFFFFFFFFFFFFFFFFFFFFFFFFFFFFF AND PUSH26 0xFFFFFFFFFFFFFFFFFFFFFFFFFFFFFFFFFFFFFFFFFFFFFFFFFFFF AND PUSH26 0xFFFFFFFFFFFFFFFFFFFFFFFFFFFFFFFFFFFFFFFFFFFFFFFFFFFF AND DUP2 MSTORE POP POP SWAP1 POP DUP6 PUSH6 0xFFFFFFFFFFFF AND DUP2 PUSH0 ADD MLOAD PUSH6 0xFFFFFFFFFFFF AND GT ISZERO PUSH2 0x4153 JUMPI PUSH1 0x40 MLOAD PUSH32 0x2520601D00000000000000000000000000000000000000000000000000000000 DUP2 MSTORE PUSH1 0x4 ADD PUSH1 0x40 MLOAD DUP1 SWAP2 SUB SWAP1 REVERT JUMPDEST DUP6 PUSH6 0xFFFFFFFFFFFF AND DUP2 PUSH0 ADD MLOAD PUSH6 0xFFFFFFFFFFFF AND SUB PUSH2 0x41D5 JUMPI DUP5 PUSH2 0x4184 DUP9 PUSH1 0x1 DUP6 PUSH2 0x417F SWAP2 SWAP1 PUSH2 0x5E85 JUMP JUMPDEST PUSH2 0x3DD9 JUMP JUMPDEST PUSH0 ADD PUSH1 0x6 PUSH2 0x100 EXP DUP2 SLOAD DUP2 PUSH26 0xFFFFFFFFFFFFFFFFFFFFFFFFFFFFFFFFFFFFFFFFFFFFFFFFFFFF MUL NOT AND SWAP1 DUP4 PUSH26 0xFFFFFFFFFFFFFFFFFFFFFFFFFFFFFFFFFFFFFFFFFFFFFFFFFFFF AND MUL OR SWAP1 SSTORE POP PUSH2 0x42AE JUMP JUMPDEST DUP7 PUSH1 0x40 MLOAD DUP1 PUSH1 0x40 ADD PUSH1 0x40 MSTORE DUP1 DUP9 PUSH6 0xFFFFFFFFFFFF AND DUP2 MSTORE PUSH1 0x20 ADD DUP8 PUSH26 0xFFFFFFFFFFFFFFFFFFFFFFFFFFFFFFFFFFFFFFFFFFFFFFFFFFFF AND DUP2 MSTORE POP SWAP1 DUP1 PUSH1 0x1 DUP2 SLOAD ADD DUP1 DUP3 SSTORE DUP1 SWAP2 POP POP PUSH1 0x1 SWAP1 SUB SWAP1 PUSH0 MSTORE PUSH1 0x20 PUSH0 KECCAK256 ADD PUSH0 SWAP1 SWAP2 SWAP1 SWAP2 SWAP1 SWAP2 POP PUSH0 DUP3 ADD MLOAD DUP2 PUSH0 ADD PUSH0 PUSH2 0x100 EXP DUP2 SLOAD DUP2 PUSH6 0xFFFFFFFFFFFF MUL NOT AND SWAP1 DUP4 PUSH6 0xFFFFFFFFFFFF AND MUL OR SWAP1 SSTORE POP PUSH1 0x20 DUP3 ADD MLOAD DUP2 PUSH0 ADD PUSH1 0x6 PUSH2 0x100 EXP DUP2 SLOAD DUP2 PUSH26 0xFFFFFFFFFFFFFFFFFFFFFFFFFFFFFFFFFFFFFFFFFFFFFFFFFFFF MUL NOT AND SWAP1 DUP4 PUSH26 0xFFFFFFFFFFFFFFFFFFFFFFFFFFFFFFFFFFFFFFFFFFFFFFFFFFFF AND MUL OR SWAP1 SSTORE POP POP POP JUMPDEST DUP1 PUSH1 0x20 ADD MLOAD DUP6 SWAP4 POP SWAP4 POP POP POP PUSH2 0x439F JUMP JUMPDEST DUP6 PUSH1 0x40 MLOAD DUP1 PUSH1 0x40 ADD PUSH1 0x40 MSTORE DUP1 DUP8 PUSH6 0xFFFFFFFFFFFF AND DUP2 MSTORE PUSH1 0x20 ADD DUP7 PUSH26 0xFFFFFFFFFFFFFFFFFFFFFFFFFFFFFFFFFFFFFFFFFFFFFFFFFFFF AND DUP2 MSTORE POP SWAP1 DUP1 PUSH1 0x1 DUP2 SLOAD ADD DUP1 DUP3 SSTORE DUP1 SWAP2 POP POP PUSH1 0x1 SWAP1 SUB SWAP1 PUSH0 MSTORE PUSH1 0x20 PUSH0 KECCAK256 ADD PUSH0 SWAP1 SWAP2 SWAP1 SWAP2 SWAP1 SWAP2 POP PUSH0 DUP3 ADD MLOAD DUP2 PUSH0 ADD PUSH0 PUSH2 0x100 EXP DUP2 SLOAD DUP2 PUSH6 0xFFFFFFFFFFFF MUL NOT AND SWAP1 DUP4 PUSH6 0xFFFFFFFFFFFF AND MUL OR SWAP1 SSTORE POP PUSH1 0x20 DUP3 ADD MLOAD DUP2 PUSH0 ADD PUSH1 0x6 PUSH2 0x100 EXP DUP2 SLOAD DUP2 PUSH26 0xFFFFFFFFFFFFFFFFFFFFFFFFFFFFFFFFFFFFFFFFFFFFFFFFFFFF MUL NOT AND SWAP1 DUP4 PUSH26 0xFFFFFFFFFFFFFFFFFFFFFFFFFFFFFFFFFFFFFFFFFFFFFFFFFFFF AND MUL OR SWAP1 SSTORE POP POP POP PUSH0 DUP5 SWAP3 POP SWAP3 POP POP JUMPDEST SWAP4 POP SWAP4 SWAP2 POP POP JUMP JUMPDEST PUSH0 DUP2 ADDRESS PUSH1 0x60 SHL PUSH12 0xFFFFFFFFFFFFFFFFFFFFFFFF NOT AND XOR SWAP1 POP SWAP2 SWAP1 POP JUMP JUMPDEST PUSH0 DUP1 PUSH1 0x9 PUSH0 DUP5 DUP2 MSTORE PUSH1 0x20 ADD SWAP1 DUP2 MSTORE PUSH1 0x20 ADD PUSH0 KECCAK256 SWAP1 POP DUP1 PUSH1 0x2 ADD SLOAD DUP2 PUSH1 0x1 ADD SLOAD PUSH2 0x43ED SWAP2 SWAP1 PUSH2 0x640D JUMP JUMPDEST PUSH2 0x43FE PUSH2 0x43F9 DUP6 PUSH2 0x11E2 JUMP JUMPDEST PUSH2 0x1EC8 JUMP JUMPDEST GT ISZERO SWAP2 POP POP SWAP2 SWAP1 POP JUMP JUMPDEST PUSH0 DUP1 PUSH1 0x9 PUSH0 DUP5 DUP2 MSTORE PUSH1 0x20 ADD SWAP1 DUP2 MSTORE PUSH1 0x20 ADD PUSH0 KECCAK256 SWAP1 POP DUP1 PUSH0 ADD SLOAD DUP2 PUSH1 0x1 ADD SLOAD GT SWAP2 POP POP SWAP2 SWAP1 POP JUMP JUMPDEST PUSH0 DUP1 PUSH2 0x443D DUP7 DUP7 DUP7 DUP7 PUSH2 0x1D42 JUMP JUMPDEST SWAP1 POP PUSH2 0x44A1 DUP2 PUSH2 0x444D PUSH1 0x7 PUSH2 0x2167 JUMP JUMPDEST PUSH2 0x4457 PUSH1 0x6 PUSH2 0x2167 JUMP JUMPDEST PUSH2 0x4461 PUSH1 0x2 PUSH2 0x2167 JUMP JUMPDEST PUSH1 0x1 DUP1 PUSH1 0x7 DUP1 DUP2 GT ISZERO PUSH2 0x4477 JUMPI PUSH2 0x4476 PUSH2 0x5006 JUMP JUMPDEST JUMPDEST PUSH2 0x4481 SWAP2 SWAP1 PUSH2 0x6A74 JUMP JUMPDEST PUSH1 0x2 PUSH2 0x448D SWAP2 SWAP1 PUSH2 0x6BD7 JUMP JUMPDEST PUSH2 0x4497 SWAP2 SWAP1 PUSH2 0x5E85 JUMP JUMPDEST PUSH0 SHL XOR XOR XOR PUSH2 0x218B JUMP JUMPDEST POP PUSH1 0x1 PUSH1 0x4 PUSH0 DUP4 DUP2 MSTORE PUSH1 0x20 ADD SWAP1 DUP2 MSTORE PUSH1 0x20 ADD PUSH0 KECCAK256 PUSH0 ADD PUSH1 0x1F PUSH2 0x100 EXP DUP2 SLOAD DUP2 PUSH1 0xFF MUL NOT AND SWAP1 DUP4 ISZERO ISZERO MUL OR SWAP1 SSTORE POP PUSH32 0x789CF55BE980739DAD1D0699B93B58E806B51C9D96619BFA8FE0A28ABAA7B30C DUP2 PUSH1 0x40 MLOAD PUSH2 0x44FD SWAP2 SWAP1 PUSH2 0x493D JUMP JUMPDEST PUSH1 0x40 MLOAD DUP1 SWAP2 SUB SWAP1 LOG1 DUP1 SWAP2 POP POP SWAP5 SWAP4 POP POP POP POP JUMP JUMPDEST PUSH0 PUSH32 0x8B73C3C69BB8FE3D512ECC4CF759CC79239F7B179B0FFACAA9A75D522B39400F PUSH32 0x0 PUSH32 0x0 CHAINID ADDRESS PUSH1 0x40 MLOAD PUSH1 0x20 ADD PUSH2 0x458B SWAP6 SWAP5 SWAP4 SWAP3 SWAP2 SWAP1 PUSH2 0x6C21 JUMP JUMPDEST PUSH1 0x40 MLOAD PUSH1 0x20 DUP2 DUP4 SUB SUB DUP2 MSTORE SWAP1 PUSH1 0x40 MSTORE DUP1 MLOAD SWAP1 PUSH1 0x20 ADD KECCAK256 SWAP1 POP SWAP1 JUMP JUMPDEST PUSH0 DUP1 PUSH0 PUSH32 0x7FFFFFFFFFFFFFFFFFFFFFFFFFFFFFFF5D576E7357A4501DDFE92F46681B20A0 DUP5 PUSH0 SHR GT ISZERO PUSH2 0x45E2 JUMPI PUSH0 PUSH1 0x3 DUP6 SWAP3 POP SWAP3 POP SWAP3 POP PUSH2 0x4683 JUMP JUMPDEST PUSH0 PUSH1 0x1 DUP9 DUP9 DUP9 DUP9 PUSH1 0x40 MLOAD PUSH0 DUP2 MSTORE PUSH1 0x20 ADD PUSH1 0x40 MSTORE PUSH1 0x40 MLOAD PUSH2 0x4605 SWAP5 SWAP4 SWAP3 SWAP2 SWAP1 PUSH2 0x6C72 JUMP JUMPDEST PUSH1 0x20 PUSH1 0x40 MLOAD PUSH1 0x20 DUP2 SUB SWAP1 DUP1 DUP5 SUB SWAP1 DUP6 GAS STATICCALL ISZERO DUP1 ISZERO PUSH2 0x4625 JUMPI RETURNDATASIZE PUSH0 DUP1 RETURNDATACOPY RETURNDATASIZE PUSH0 REVERT JUMPDEST POP POP POP PUSH1 0x20 PUSH1 0x40 MLOAD SUB MLOAD SWAP1 POP PUSH0 PUSH20 0xFFFFFFFFFFFFFFFFFFFFFFFFFFFFFFFFFFFFFFFF AND DUP2 PUSH20 0xFFFFFFFFFFFFFFFFFFFFFFFFFFFFFFFFFFFFFFFF AND SUB PUSH2 0x4676 JUMPI PUSH0 PUSH1 0x1 PUSH0 DUP1 SHL SWAP4 POP SWAP4 POP SWAP4 POP POP PUSH2 0x4683 JUMP JUMPDEST DUP1 PUSH0 DUP1 PUSH0 SHL SWAP4 POP SWAP4 POP SWAP4 POP POP JUMPDEST SWAP5 POP SWAP5 POP SWAP5 SWAP2 POP POP JUMP JUMPDEST PUSH0 DUP1 PUSH0 SWAP1 POP PUSH0 PUSH1 0x80 DUP5 SWAP1 SHR GT ISZERO PUSH2 0x46AC JUMPI PUSH1 0x80 DUP4 SWAP1 SHR SWAP3 POP PUSH1 0x80 DUP2 ADD SWAP1 POP JUMPDEST PUSH0 PUSH1 0x40 DUP5 SWAP1 SHR GT ISZERO PUSH2 0x46C6 JUMPI PUSH1 0x40 DUP4 SWAP1 SHR SWAP3 POP PUSH1 0x40 DUP2 ADD SWAP1 POP JUMPDEST PUSH0 PUSH1 0x20 DUP5 SWAP1 SHR GT ISZERO PUSH2 0x46E0 JUMPI PUSH1 0x20 DUP4 SWAP1 SHR SWAP3 POP PUSH1 0x20 DUP2 ADD SWAP1 POP JUMPDEST PUSH0 PUSH1 0x10 DUP5 SWAP1 SHR GT ISZERO PUSH2 0x46FA JUMPI PUSH1 0x10 DUP4 SWAP1 SHR SWAP3 POP PUSH1 0x10 DUP2 ADD SWAP1 POP JUMPDEST PUSH0 PUSH1 0x8 DUP5 SWAP1 SHR GT ISZERO PUSH2 0x4714 JUMPI PUSH1 0x8 DUP4 SWAP1 SHR SWAP3 POP PUSH1 0x8 DUP2 ADD SWAP1 POP JUMPDEST PUSH0 PUSH1 0x4 DUP5 SWAP1 SHR GT ISZERO PUSH2 0x472E JUMPI PUSH1 0x4 DUP4 SWAP1 SHR SWAP3 POP PUSH1 0x4 DUP2 ADD SWAP1 POP JUMPDEST PUSH0 PUSH1 0x2 DUP5 SWAP1 SHR GT ISZERO PUSH2 0x4748 JUMPI PUSH1 0x2 DUP4 SWAP1 SHR SWAP3 POP PUSH1 0x2 DUP2 ADD SWAP1 POP JUMPDEST PUSH0 PUSH1 0x1 DUP5 SWAP1 SHR GT ISZERO PUSH2 0x475B JUMPI PUSH1 0x1 DUP2 ADD SWAP1 POP JUMPDEST DUP1 SWAP2 POP POP SWAP2 SWAP1 POP JUMP JUMPDEST PUSH0 DUP2 DUP4 LT PUSH2 0x4772 JUMPI DUP2 PUSH2 0x4774 JUMP JUMPDEST DUP3 JUMPDEST SWAP1 POP SWAP3 SWAP2 POP POP JUMP JUMPDEST PUSH0 PUSH1 0x2 DUP3 DUP5 XOR PUSH2 0x478C SWAP2 SWAP1 PUSH2 0x67BC JUMP JUMPDEST DUP3 DUP5 AND PUSH2 0x4799 SWAP2 SWAP1 PUSH2 0x640D JUMP JUMPDEST SWAP1 POP SWAP3 SWAP2 POP POP JUMP JUMPDEST PUSH1 0x60 PUSH0 PUSH2 0x47AD DUP4 PUSH2 0x4813 JUMP JUMPDEST SWAP1 POP PUSH0 PUSH1 0x20 PUSH8 0xFFFFFFFFFFFFFFFF DUP2 GT ISZERO PUSH2 0x47CB JUMPI PUSH2 0x47CA PUSH2 0x4AC5 JUMP JUMPDEST JUMPDEST PUSH1 0x40 MLOAD SWAP1 DUP1 DUP3 MSTORE DUP1 PUSH1 0x1F ADD PUSH1 0x1F NOT AND PUSH1 0x20 ADD DUP3 ADD PUSH1 0x40 MSTORE DUP1 ISZERO PUSH2 0x47FD JUMPI DUP2 PUSH1 0x20 ADD PUSH1 0x1 DUP3 MUL DUP1 CALLDATASIZE DUP4 CALLDATACOPY DUP1 DUP3 ADD SWAP2 POP POP SWAP1 POP JUMPDEST POP SWAP1 POP DUP2 DUP2 MSTORE DUP4 PUSH1 0x20 DUP3 ADD MSTORE DUP1 SWAP3 POP POP POP SWAP2 SWAP1 POP JUMP JUMPDEST PUSH0 DUP1 PUSH1 0xFF DUP4 PUSH0 SHR AND SWAP1 POP PUSH1 0x1F DUP2 GT ISZERO PUSH2 0x4858 JUMPI PUSH1 0x40 MLOAD PUSH32 0xB3512B0C00000000000000000000000000000000000000000000000000000000 DUP2 MSTORE PUSH1 0x4 ADD PUSH1 0x40 MLOAD DUP1 SWAP2 SUB SWAP1 REVERT JUMPDEST DUP1 SWAP2 POP POP SWAP2 SWAP1 POP JUMP JUMPDEST PUSH0 PUSH1 0x40 MLOAD SWAP1 POP SWAP1 JUMP JUMPDEST PUSH0 DUP1 REVERT JUMPDEST PUSH0 DUP1 REVERT JUMPDEST PUSH0 PUSH32 0xFFFFFFFF00000000000000000000000000000000000000000000000000000000 DUP3 AND SWAP1 POP SWAP2 SWAP1 POP JUMP JUMPDEST PUSH2 0x48A6 DUP2 PUSH2 0x4872 JUMP JUMPDEST DUP2 EQ PUSH2 0x48B0 JUMPI PUSH0 DUP1 REVERT JUMPDEST POP JUMP JUMPDEST PUSH0 DUP2 CALLDATALOAD SWAP1 POP PUSH2 0x48C1 DUP2 PUSH2 0x489D JUMP JUMPDEST SWAP3 SWAP2 POP POP JUMP JUMPDEST PUSH0 PUSH1 0x20 DUP3 DUP5 SUB SLT ISZERO PUSH2 0x48DC JUMPI PUSH2 0x48DB PUSH2 0x486A JUMP JUMPDEST JUMPDEST PUSH0 PUSH2 0x48E9 DUP5 DUP3 DUP6 ADD PUSH2 0x48B3 JUMP JUMPDEST SWAP2 POP POP SWAP3 SWAP2 POP POP JUMP JUMPDEST PUSH0 DUP2 ISZERO ISZERO SWAP1 POP SWAP2 SWAP1 POP JUMP JUMPDEST PUSH2 0x4906 DUP2 PUSH2 0x48F2 JUMP JUMPDEST DUP3 MSTORE POP POP JUMP JUMPDEST PUSH0 PUSH1 0x20 DUP3 ADD SWAP1 POP PUSH2 0x491F PUSH0 DUP4 ADD DUP5 PUSH2 0x48FD JUMP JUMPDEST SWAP3 SWAP2 POP POP JUMP JUMPDEST PUSH0 DUP2 SWAP1 POP SWAP2 SWAP1 POP JUMP JUMPDEST PUSH2 0x4937 DUP2 PUSH2 0x4925 JUMP JUMPDEST DUP3 MSTORE POP POP JUMP JUMPDEST PUSH0 PUSH1 0x20 DUP3 ADD SWAP1 POP PUSH2 0x4950 PUSH0 DUP4 ADD DUP5 PUSH2 0x492E JUMP JUMPDEST SWAP3 SWAP2 POP POP JUMP JUMPDEST PUSH2 0x495F DUP2 PUSH2 0x4925 JUMP JUMPDEST DUP2 EQ PUSH2 0x4969 JUMPI PUSH0 DUP1 REVERT JUMPDEST POP JUMP JUMPDEST PUSH0 DUP2 CALLDATALOAD SWAP1 POP PUSH2 0x497A DUP2 PUSH2 0x4956 JUMP JUMPDEST SWAP3 SWAP2 POP POP JUMP JUMPDEST PUSH0 PUSH1 0x20 DUP3 DUP5 SUB SLT ISZERO PUSH2 0x4995 JUMPI PUSH2 0x4994 PUSH2 0x486A JUMP JUMPDEST JUMPDEST PUSH0 PUSH2 0x49A2 DUP5 DUP3 DUP6 ADD PUSH2 0x496C JUMP JUMPDEST SWAP2 POP POP SWAP3 SWAP2 POP POP JUMP JUMPDEST PUSH0 DUP2 MLOAD SWAP1 POP SWAP2 SWAP1 POP JUMP JUMPDEST PUSH0 DUP3 DUP3 MSTORE PUSH1 0x20 DUP3 ADD SWAP1 POP SWAP3 SWAP2 POP POP JUMP JUMPDEST DUP3 DUP2 DUP4 MCOPY PUSH0 DUP4 DUP4 ADD MSTORE POP POP POP JUMP JUMPDEST PUSH0 PUSH1 0x1F NOT PUSH1 0x1F DUP4 ADD AND SWAP1 POP SWAP2 SWAP1 POP JUMP JUMPDEST PUSH0 PUSH2 0x49ED DUP3 PUSH2 0x49AB JUMP JUMPDEST PUSH2 0x49F7 DUP2 DUP6 PUSH2 0x49B5 JUMP JUMPDEST SWAP4 POP PUSH2 0x4A07 DUP2 DUP6 PUSH1 0x20 DUP7 ADD PUSH2 0x49C5 JUMP JUMPDEST PUSH2 0x4A10 DUP2 PUSH2 0x49D3 JUMP JUMPDEST DUP5 ADD SWAP2 POP POP SWAP3 SWAP2 POP POP JUMP JUMPDEST PUSH0 PUSH1 0x20 DUP3 ADD SWAP1 POP DUP2 DUP2 SUB PUSH0 DUP4 ADD MSTORE PUSH2 0x4A33 DUP2 DUP5 PUSH2 0x49E3 JUMP JUMPDEST SWAP1 POP SWAP3 SWAP2 POP POP JUMP JUMPDEST PUSH0 PUSH20 0xFFFFFFFFFFFFFFFFFFFFFFFFFFFFFFFFFFFFFFFF DUP3 AND SWAP1 POP SWAP2 SWAP1 POP JUMP JUMPDEST PUSH0 PUSH2 0x4A64 DUP3 PUSH2 0x4A3B JUMP JUMPDEST SWAP1 POP SWAP2 SWAP1 POP JUMP JUMPDEST PUSH2 0x4A74 DUP2 PUSH2 0x4A5A JUMP JUMPDEST DUP3 MSTORE POP POP JUMP JUMPDEST PUSH0 PUSH1 0x20 DUP3 ADD SWAP1 POP PUSH2 0x4A8D PUSH0 DUP4 ADD DUP5 PUSH2 0x4A6B JUMP JUMPDEST SWAP3 SWAP2 POP POP JUMP JUMPDEST PUSH2 0x4A9C DUP2 PUSH2 0x4A5A JUMP JUMPDEST DUP2 EQ PUSH2 0x4AA6 JUMPI PUSH0 DUP1 REVERT JUMPDEST POP JUMP JUMPDEST PUSH0 DUP2 CALLDATALOAD SWAP1 POP PUSH2 0x4AB7 DUP2 PUSH2 0x4A93 JUMP JUMPDEST SWAP3 SWAP2 POP POP JUMP JUMPDEST PUSH0 DUP1 REVERT JUMPDEST PUSH0 DUP1 REVERT JUMPDEST PUSH32 0x4E487B7100000000000000000000000000000000000000000000000000000000 PUSH0 MSTORE PUSH1 0x41 PUSH1 0x4 MSTORE PUSH1 0x24 PUSH0 REVERT JUMPDEST PUSH2 0x4AFB DUP3 PUSH2 0x49D3 JUMP JUMPDEST DUP2 ADD DUP2 DUP2 LT PUSH8 0xFFFFFFFFFFFFFFFF DUP3 GT OR ISZERO PUSH2 0x4B1A JUMPI PUSH2 0x4B19 PUSH2 0x4AC5 JUMP JUMPDEST JUMPDEST DUP1 PUSH1 0x40 MSTORE POP POP POP JUMP JUMPDEST PUSH0 PUSH2 0x4B2C PUSH2 0x4861 JUMP JUMPDEST SWAP1 POP PUSH2 0x4B38 DUP3 DUP3 PUSH2 0x4AF2 JUMP JUMPDEST SWAP2 SWAP1 POP JUMP JUMPDEST PUSH0 PUSH8 0xFFFFFFFFFFFFFFFF DUP3 GT ISZERO PUSH2 0x4B57 JUMPI PUSH2 0x4B56 PUSH2 0x4AC5 JUMP JUMPDEST JUMPDEST PUSH2 0x4B60 DUP3 PUSH2 0x49D3 JUMP JUMPDEST SWAP1 POP PUSH1 0x20 DUP2 ADD SWAP1 POP SWAP2 SWAP1 POP JUMP JUMPDEST DUP3 DUP2 DUP4 CALLDATACOPY PUSH0 DUP4 DUP4 ADD MSTORE POP POP POP JUMP JUMPDEST PUSH0 PUSH2 0x4B8D PUSH2 0x4B88 DUP5 PUSH2 0x4B3D JUMP JUMPDEST PUSH2 0x4B23 JUMP JUMPDEST SWAP1 POP DUP3 DUP2 MSTORE PUSH1 0x20 DUP2 ADD DUP5 DUP5 DUP5 ADD GT ISZERO PUSH2 0x4BA9 JUMPI PUSH2 0x4BA8 PUSH2 0x4AC1 JUMP JUMPDEST JUMPDEST PUSH2 0x4BB4 DUP5 DUP3 DUP6 PUSH2 0x4B6D JUMP JUMPDEST POP SWAP4 SWAP3 POP POP POP JUMP JUMPDEST PUSH0 DUP3 PUSH1 0x1F DUP4 ADD SLT PUSH2 0x4BD0 JUMPI PUSH2 0x4BCF PUSH2 0x4ABD JUMP JUMPDEST JUMPDEST DUP2 CALLDATALOAD PUSH2 0x4BE0 DUP5 DUP3 PUSH1 0x20 DUP7 ADD PUSH2 0x4B7B JUMP JUMPDEST SWAP2 POP POP SWAP3 SWAP2 POP POP JUMP JUMPDEST PUSH0 DUP1 PUSH0 DUP1 PUSH1 0x80 DUP6 DUP8 SUB SLT ISZERO PUSH2 0x4C01 JUMPI PUSH2 0x4C00 PUSH2 0x486A JUMP JUMPDEST JUMPDEST PUSH0 PUSH2 0x4C0E DUP8 DUP3 DUP9 ADD PUSH2 0x4AA9 JUMP JUMPDEST SWAP5 POP POP PUSH1 0x20 PUSH2 0x4C1F DUP8 DUP3 DUP9 ADD PUSH2 0x4AA9 JUMP JUMPDEST SWAP4 POP POP PUSH1 0x40 PUSH2 0x4C30 DUP8 DUP3 DUP9 ADD PUSH2 0x496C JUMP JUMPDEST SWAP3 POP POP PUSH1 0x60 DUP6 ADD CALLDATALOAD PUSH8 0xFFFFFFFFFFFFFFFF DUP2 GT ISZERO PUSH2 0x4C51 JUMPI PUSH2 0x4C50 PUSH2 0x486E JUMP JUMPDEST JUMPDEST PUSH2 0x4C5D DUP8 DUP3 DUP9 ADD PUSH2 0x4BBC JUMP JUMPDEST SWAP2 POP POP SWAP3 SWAP6 SWAP2 SWAP5 POP SWAP3 POP JUMP JUMPDEST PUSH2 0x4C72 DUP2 PUSH2 0x4872 JUMP JUMPDEST DUP3 MSTORE POP POP JUMP JUMPDEST PUSH0 PUSH1 0x20 DUP3 ADD SWAP1 POP PUSH2 0x4C8B PUSH0 DUP4 ADD DUP5 PUSH2 0x4C69 JUMP JUMPDEST SWAP3 SWAP2 POP POP JUMP JUMPDEST PUSH0 PUSH8 0xFFFFFFFFFFFFFFFF DUP3 GT ISZERO PUSH2 0x4CAB JUMPI PUSH2 0x4CAA PUSH2 0x4AC5 JUMP JUMPDEST JUMPDEST PUSH1 0x20 DUP3 MUL SWAP1 POP PUSH1 0x20 DUP2 ADD SWAP1 POP SWAP2 SWAP1 POP JUMP JUMPDEST PUSH0 DUP1 REVERT JUMPDEST PUSH0 PUSH2 0x4CD2 PUSH2 0x4CCD DUP5 PUSH2 0x4C91 JUMP JUMPDEST PUSH2 0x4B23 JUMP JUMPDEST SWAP1 POP DUP1 DUP4 DUP3 MSTORE PUSH1 0x20 DUP3 ADD SWAP1 POP PUSH1 0x20 DUP5 MUL DUP4 ADD DUP6 DUP2 GT ISZERO PUSH2 0x4CF5 JUMPI PUSH2 0x4CF4 PUSH2 0x4CBC JUMP JUMPDEST JUMPDEST DUP4 JUMPDEST DUP2 DUP2 LT ISZERO PUSH2 0x4D1E JUMPI DUP1 PUSH2 0x4D0A DUP9 DUP3 PUSH2 0x4AA9 JUMP JUMPDEST DUP5 MSTORE PUSH1 0x20 DUP5 ADD SWAP4 POP POP PUSH1 0x20 DUP2 ADD SWAP1 POP PUSH2 0x4CF7 JUMP JUMPDEST POP POP POP SWAP4 SWAP3 POP POP POP JUMP JUMPDEST PUSH0 DUP3 PUSH1 0x1F DUP4 ADD SLT PUSH2 0x4D3C JUMPI PUSH2 0x4D3B PUSH2 0x4ABD JUMP JUMPDEST JUMPDEST DUP2 CALLDATALOAD PUSH2 0x4D4C DUP5 DUP3 PUSH1 0x20 DUP7 ADD PUSH2 0x4CC0 JUMP JUMPDEST SWAP2 POP POP SWAP3 SWAP2 POP POP JUMP JUMPDEST PUSH0 PUSH8 0xFFFFFFFFFFFFFFFF DUP3 GT ISZERO PUSH2 0x4D6F JUMPI PUSH2 0x4D6E PUSH2 0x4AC5 JUMP JUMPDEST JUMPDEST PUSH1 0x20 DUP3 MUL SWAP1 POP PUSH1 0x20 DUP2 ADD SWAP1 POP SWAP2 SWAP1 POP JUMP JUMPDEST PUSH0 PUSH2 0x4D92 PUSH2 0x4D8D DUP5 PUSH2 0x4D55 JUMP JUMPDEST PUSH2 0x4B23 JUMP JUMPDEST SWAP1 POP DUP1 DUP4 DUP3 MSTORE PUSH1 0x20 DUP3 ADD SWAP1 POP PUSH1 0x20 DUP5 MUL DUP4 ADD DUP6 DUP2 GT ISZERO PUSH2 0x4DB5 JUMPI PUSH2 0x4DB4 PUSH2 0x4CBC JUMP JUMPDEST JUMPDEST DUP4 JUMPDEST DUP2 DUP2 LT ISZERO PUSH2 0x4DDE JUMPI DUP1 PUSH2 0x4DCA DUP9 DUP3 PUSH2 0x496C JUMP JUMPDEST DUP5 MSTORE PUSH1 0x20 DUP5 ADD SWAP4 POP POP PUSH1 0x20 DUP2 ADD SWAP1 POP PUSH2 0x4DB7 JUMP JUMPDEST POP POP POP SWAP4 SWAP3 POP POP POP JUMP JUMPDEST PUSH0 DUP3 PUSH1 0x1F DUP4 ADD SLT PUSH2 0x4DFC JUMPI PUSH2 0x4DFB PUSH2 0x4ABD JUMP JUMPDEST JUMPDEST DUP2 CALLDATALOAD PUSH2 0x4E0C DUP5 DUP3 PUSH1 0x20 DUP7 ADD PUSH2 0x4D80 JUMP JUMPDEST SWAP2 POP POP SWAP3 SWAP2 POP POP JUMP JUMPDEST PUSH0 PUSH8 0xFFFFFFFFFFFFFFFF DUP3 GT ISZERO PUSH2 0x4E2F JUMPI PUSH2 0x4E2E PUSH2 0x4AC5 JUMP JUMPDEST JUMPDEST PUSH1 0x20 DUP3 MUL SWAP1 POP PUSH1 0x20 DUP2 ADD SWAP1 POP SWAP2 SWAP1 POP JUMP JUMPDEST PUSH0 PUSH2 0x4E52 PUSH2 0x4E4D DUP5 PUSH2 0x4E15 JUMP JUMPDEST PUSH2 0x4B23 JUMP JUMPDEST SWAP1 POP DUP1 DUP4 DUP3 MSTORE PUSH1 0x20 DUP3 ADD SWAP1 POP PUSH1 0x20 DUP5 MUL DUP4 ADD DUP6 DUP2 GT ISZERO PUSH2 0x4E75 JUMPI PUSH2 0x4E74 PUSH2 0x4CBC JUMP JUMPDEST JUMPDEST DUP4 JUMPDEST DUP2 DUP2 LT ISZERO PUSH2 0x4EBC JUMPI DUP1 CALLDATALOAD PUSH8 0xFFFFFFFFFFFFFFFF DUP2 GT ISZERO PUSH2 0x4E9A JUMPI PUSH2 0x4E99 PUSH2 0x4ABD JUMP JUMPDEST JUMPDEST DUP1 DUP7 ADD PUSH2 0x4EA7 DUP10 DUP3 PUSH2 0x4BBC JUMP JUMPDEST DUP6 MSTORE PUSH1 0x20 DUP6 ADD SWAP5 POP POP POP PUSH1 0x20 DUP2 ADD SWAP1 POP PUSH2 0x4E77 JUMP JUMPDEST POP POP POP SWAP4 SWAP3 POP POP POP JUMP JUMPDEST PUSH0 DUP3 PUSH1 0x1F DUP4 ADD SLT PUSH2 0x4EDA JUMPI PUSH2 0x4ED9 PUSH2 0x4ABD JUMP JUMPDEST JUMPDEST DUP2 CALLDATALOAD PUSH2 0x4EEA DUP5 DUP3 PUSH1 0x20 DUP7 ADD PUSH2 0x4E40 JUMP JUMPDEST SWAP2 POP POP SWAP3 SWAP2 POP POP JUMP JUMPDEST PUSH0 DUP2 SWAP1 POP SWAP2 SWAP1 POP JUMP JUMPDEST PUSH2 0x4F05 DUP2 PUSH2 0x4EF3 JUMP JUMPDEST DUP2 EQ PUSH2 0x4F0F JUMPI PUSH0 DUP1 REVERT JUMPDEST POP JUMP JUMPDEST PUSH0 DUP2 CALLDATALOAD SWAP1 POP PUSH2 0x4F20 DUP2 PUSH2 0x4EFC JUMP JUMPDEST SWAP3 SWAP2 POP POP JUMP JUMPDEST PUSH0 DUP1 PUSH0 DUP1 PUSH1 0x80 DUP6 DUP8 SUB SLT ISZERO PUSH2 0x4F3E JUMPI PUSH2 0x4F3D PUSH2 0x486A JUMP JUMPDEST JUMPDEST PUSH0 DUP6 ADD CALLDATALOAD PUSH8 0xFFFFFFFFFFFFFFFF DUP2 GT ISZERO PUSH2 0x4F5B JUMPI PUSH2 0x4F5A PUSH2 0x486E JUMP JUMPDEST JUMPDEST PUSH2 0x4F67 DUP8 DUP3 DUP9 ADD PUSH2 0x4D28 JUMP JUMPDEST SWAP5 POP POP PUSH1 0x20 DUP6 ADD CALLDATALOAD PUSH8 0xFFFFFFFFFFFFFFFF DUP2 GT ISZERO PUSH2 0x4F88 JUMPI PUSH2 0x4F87 PUSH2 0x486E JUMP JUMPDEST JUMPDEST PUSH2 0x4F94 DUP8 DUP3 DUP9 ADD PUSH2 0x4DE8 JUMP JUMPDEST SWAP4 POP POP PUSH1 0x40 DUP6 ADD CALLDATALOAD PUSH8 0xFFFFFFFFFFFFFFFF DUP2 GT ISZERO PUSH2 0x4FB5 JUMPI PUSH2 0x4FB4 PUSH2 0x486E JUMP JUMPDEST JUMPDEST PUSH2 0x4FC1 DUP8 DUP3 DUP9 ADD PUSH2 0x4EC6 JUMP JUMPDEST SWAP3 POP POP PUSH1 0x60 PUSH2 0x4FD2 DUP8 DUP3 DUP9 ADD PUSH2 0x4F12 JUMP JUMPDEST SWAP2 POP POP SWAP3 SWAP6 SWAP2 SWAP5 POP SWAP3 POP JUMP JUMPDEST PUSH2 0x4FE7 DUP2 PUSH2 0x4EF3 JUMP JUMPDEST DUP3 MSTORE POP POP JUMP JUMPDEST PUSH0 PUSH1 0x20 DUP3 ADD SWAP1 POP PUSH2 0x5000 PUSH0 DUP4 ADD DUP5 PUSH2 0x4FDE JUMP JUMPDEST SWAP3 SWAP2 POP POP JUMP JUMPDEST PUSH32 0x4E487B7100000000000000000000000000000000000000000000000000000000 PUSH0 MSTORE PUSH1 0x21 PUSH1 0x4 MSTORE PUSH1 0x24 PUSH0 REVERT JUMPDEST PUSH1 0x8 DUP2 LT PUSH2 0x5044 JUMPI PUSH2 0x5043 PUSH2 0x5006 JUMP JUMPDEST JUMPDEST POP JUMP JUMPDEST PUSH0 DUP2 SWAP1 POP PUSH2 0x5054 DUP3 PUSH2 0x5033 JUMP JUMPDEST SWAP2 SWAP1 POP JUMP JUMPDEST PUSH0 PUSH2 0x5063 DUP3 PUSH2 0x5047 JUMP JUMPDEST SWAP1 POP SWAP2 SWAP1 POP JUMP JUMPDEST PUSH2 0x5073 DUP2 PUSH2 0x5059 JUMP JUMPDEST DUP3 MSTORE POP POP JUMP JUMPDEST PUSH0 PUSH1 0x20 DUP3 ADD SWAP1 POP PUSH2 0x508C PUSH0 DUP4 ADD DUP5 PUSH2 0x506A JUMP JUMPDEST SWAP3 SWAP2 POP POP JUMP JUMPDEST PUSH0 DUP1 PUSH1 0x40 DUP4 DUP6 SUB SLT ISZERO PUSH2 0x50A8 JUMPI PUSH2 0x50A7 PUSH2 0x486A JUMP JUMPDEST JUMPDEST PUSH0 PUSH2 0x50B5 DUP6 DUP3 DUP7 ADD PUSH2 0x496C JUMP JUMPDEST SWAP3 POP POP PUSH1 0x20 PUSH2 0x50C6 DUP6 DUP3 DUP7 ADD PUSH2 0x4AA9 JUMP JUMPDEST SWAP2 POP POP SWAP3 POP SWAP3 SWAP1 POP JUMP JUMPDEST PUSH0 PUSH1 0x60 DUP3 ADD SWAP1 POP PUSH2 0x50E3 PUSH0 DUP4 ADD DUP7 PUSH2 0x492E JUMP JUMPDEST PUSH2 0x50F0 PUSH1 0x20 DUP4 ADD DUP6 PUSH2 0x492E JUMP JUMPDEST PUSH2 0x50FD PUSH1 0x40 DUP4 ADD DUP5 PUSH2 0x492E JUMP JUMPDEST SWAP5 SWAP4 POP POP POP POP JUMP JUMPDEST PUSH0 PUSH1 0xFF DUP3 AND SWAP1 POP SWAP2 SWAP1 POP JUMP JUMPDEST PUSH2 0x511A DUP2 PUSH2 0x5105 JUMP JUMPDEST DUP2 EQ PUSH2 0x5124 JUMPI PUSH0 DUP1 REVERT JUMPDEST POP JUMP JUMPDEST PUSH0 DUP2 CALLDATALOAD SWAP1 POP PUSH2 0x5135 DUP2 PUSH2 0x5111 JUMP JUMPDEST SWAP3 SWAP2 POP POP JUMP JUMPDEST PUSH0 DUP1 PUSH1 0x40 DUP4 DUP6 SUB SLT ISZERO PUSH2 0x5151 JUMPI PUSH2 0x5150 PUSH2 0x486A JUMP JUMPDEST JUMPDEST PUSH0 PUSH2 0x515E DUP6 DUP3 DUP7 ADD PUSH2 0x496C JUMP JUMPDEST SWAP3 POP POP PUSH1 0x20 PUSH2 0x516F DUP6 DUP3 DUP7 ADD PUSH2 0x5127 JUMP JUMPDEST SWAP2 POP POP SWAP3 POP SWAP3 SWAP1 POP JUMP JUMPDEST PUSH0 DUP1 REVERT JUMPDEST PUSH0 DUP1 DUP4 PUSH1 0x1F DUP5 ADD SLT PUSH2 0x5192 JUMPI PUSH2 0x5191 PUSH2 0x4ABD JUMP JUMPDEST JUMPDEST DUP3 CALLDATALOAD SWAP1 POP PUSH8 0xFFFFFFFFFFFFFFFF DUP2 GT ISZERO PUSH2 0x51AF JUMPI PUSH2 0x51AE PUSH2 0x5179 JUMP JUMPDEST JUMPDEST PUSH1 0x20 DUP4 ADD SWAP2 POP DUP4 PUSH1 0x1 DUP3 MUL DUP4 ADD GT ISZERO PUSH2 0x51CB JUMPI PUSH2 0x51CA PUSH2 0x4CBC JUMP JUMPDEST JUMPDEST SWAP3 POP SWAP3 SWAP1 POP JUMP JUMPDEST PUSH0 DUP1 PUSH0 DUP1 PUSH0 DUP1 PUSH0 PUSH1 0xC0 DUP9 DUP11 SUB SLT ISZERO PUSH2 0x51ED JUMPI PUSH2 0x51EC PUSH2 0x486A JUMP JUMPDEST JUMPDEST PUSH0 PUSH2 0x51FA DUP11 DUP3 DUP12 ADD PUSH2 0x496C JUMP JUMPDEST SWAP8 POP POP PUSH1 0x20 PUSH2 0x520B DUP11 DUP3 DUP12 ADD PUSH2 0x5127 JUMP JUMPDEST SWAP7 POP POP PUSH1 0x40 PUSH2 0x521C DUP11 DUP3 DUP12 ADD PUSH2 0x4AA9 JUMP JUMPDEST SWAP6 POP POP PUSH1 0x60 DUP9 ADD CALLDATALOAD PUSH8 0xFFFFFFFFFFFFFFFF DUP2 GT ISZERO PUSH2 0x523D JUMPI PUSH2 0x523C PUSH2 0x486E JUMP JUMPDEST JUMPDEST PUSH2 0x5249 DUP11 DUP3 DUP12 ADD PUSH2 0x517D JUMP JUMPDEST SWAP5 POP SWAP5 POP POP PUSH1 0x80 DUP9 ADD CALLDATALOAD PUSH8 0xFFFFFFFFFFFFFFFF DUP2 GT ISZERO PUSH2 0x526C JUMPI PUSH2 0x526B PUSH2 0x486E JUMP JUMPDEST JUMPDEST PUSH2 0x5278 DUP11 DUP3 DUP12 ADD PUSH2 0x4BBC JUMP JUMPDEST SWAP3 POP POP PUSH1 0xA0 DUP9 ADD CALLDATALOAD PUSH8 0xFFFFFFFFFFFFFFFF DUP2 GT ISZERO PUSH2 0x5299 JUMPI PUSH2 0x5298 PUSH2 0x486E JUMP JUMPDEST JUMPDEST PUSH2 0x52A5 DUP11 DUP3 DUP12 ADD PUSH2 0x4BBC JUMP JUMPDEST SWAP2 POP POP SWAP3 SWAP6 SWAP9 SWAP2 SWAP5 SWAP8 POP SWAP3 SWAP6 POP JUMP JUMPDEST PUSH0 DUP1 PUSH0 DUP1 PUSH0 PUSH1 0x80 DUP7 DUP9 SUB SLT ISZERO PUSH2 0x52CD JUMPI PUSH2 0x52CC PUSH2 0x486A JUMP JUMPDEST JUMPDEST PUSH0 PUSH2 0x52DA DUP9 DUP3 DUP10 ADD PUSH2 0x496C JUMP JUMPDEST SWAP6 POP POP PUSH1 0x20 PUSH2 0x52EB DUP9 DUP3 DUP10 ADD PUSH2 0x5127 JUMP JUMPDEST SWAP5 POP POP PUSH1 0x40 DUP7 ADD CALLDATALOAD PUSH8 0xFFFFFFFFFFFFFFFF DUP2 GT ISZERO PUSH2 0x530C JUMPI PUSH2 0x530B PUSH2 0x486E JUMP JUMPDEST JUMPDEST PUSH2 0x5318 DUP9 DUP3 DUP10 ADD PUSH2 0x517D JUMP JUMPDEST SWAP4 POP SWAP4 POP POP PUSH1 0x60 DUP7 ADD CALLDATALOAD PUSH8 0xFFFFFFFFFFFFFFFF DUP2 GT ISZERO PUSH2 0x533B JUMPI PUSH2 0x533A PUSH2 0x486E JUMP JUMPDEST JUMPDEST PUSH2 0x5347 DUP9 DUP3 DUP10 ADD PUSH2 0x4BBC JUMP JUMPDEST SWAP2 POP POP SWAP3 SWAP6 POP SWAP3 SWAP6 SWAP1 SWAP4 POP JUMP JUMPDEST PUSH0 PUSH6 0xFFFFFFFFFFFF DUP3 AND SWAP1 POP SWAP2 SWAP1 POP JUMP JUMPDEST PUSH2 0x536E DUP2 PUSH2 0x5354 JUMP JUMPDEST DUP2 EQ PUSH2 0x5378 JUMPI PUSH0 DUP1 REVERT JUMPDEST POP JUMP JUMPDEST PUSH0 DUP2 CALLDATALOAD SWAP1 POP PUSH2 0x5389 DUP2 PUSH2 0x5365 JUMP JUMPDEST SWAP3 SWAP2 POP POP JUMP JUMPDEST PUSH0 PUSH1 0x20 DUP3 DUP5 SUB SLT ISZERO PUSH2 0x53A4 JUMPI PUSH2 0x53A3 PUSH2 0x486A JUMP JUMPDEST JUMPDEST PUSH0 PUSH2 0x53B1 DUP5 DUP3 DUP6 ADD PUSH2 0x537B JUMP JUMPDEST SWAP2 POP POP SWAP3 SWAP2 POP POP JUMP JUMPDEST PUSH0 DUP1 PUSH0 DUP1 PUSH1 0x60 DUP6 DUP8 SUB SLT ISZERO PUSH2 0x53D2 JUMPI PUSH2 0x53D1 PUSH2 0x486A JUMP JUMPDEST JUMPDEST PUSH0 PUSH2 0x53DF DUP8 DUP3 DUP9 ADD PUSH2 0x496C JUMP JUMPDEST SWAP5 POP POP PUSH1 0x20 PUSH2 0x53F0 DUP8 DUP3 DUP9 ADD PUSH2 0x5127 JUMP JUMPDEST SWAP4 POP POP PUSH1 0x40 DUP6 ADD CALLDATALOAD PUSH8 0xFFFFFFFFFFFFFFFF DUP2 GT ISZERO PUSH2 0x5411 JUMPI PUSH2 0x5410 PUSH2 0x486E JUMP JUMPDEST JUMPDEST PUSH2 0x541D DUP8 DUP3 DUP9 ADD PUSH2 0x517D JUMP JUMPDEST SWAP3 POP SWAP3 POP POP SWAP3 SWAP6 SWAP2 SWAP5 POP SWAP3 POP JUMP JUMPDEST PUSH0 PUSH8 0xFFFFFFFFFFFFFFFF DUP3 GT ISZERO PUSH2 0x5445 JUMPI PUSH2 0x5444 PUSH2 0x4AC5 JUMP JUMPDEST JUMPDEST PUSH2 0x544E DUP3 PUSH2 0x49D3 JUMP JUMPDEST SWAP1 POP PUSH1 0x20 DUP2 ADD SWAP1 POP SWAP2 SWAP1 POP JUMP JUMPDEST PUSH0 PUSH2 0x546D PUSH2 0x5468 DUP5 PUSH2 0x542B JUMP JUMPDEST PUSH2 0x4B23 JUMP JUMPDEST SWAP1 POP DUP3 DUP2 MSTORE PUSH1 0x20 DUP2 ADD DUP5 DUP5 DUP5 ADD GT ISZERO PUSH2 0x5489 JUMPI PUSH2 0x5488 PUSH2 0x4AC1 JUMP JUMPDEST JUMPDEST PUSH2 0x5494 DUP5 DUP3 DUP6 PUSH2 0x4B6D JUMP JUMPDEST POP SWAP4 SWAP3 POP POP POP JUMP JUMPDEST PUSH0 DUP3 PUSH1 0x1F DUP4 ADD SLT PUSH2 0x54B0 JUMPI PUSH2 0x54AF PUSH2 0x4ABD JUMP JUMPDEST JUMPDEST DUP2 CALLDATALOAD PUSH2 0x54C0 DUP5 DUP3 PUSH1 0x20 DUP7 ADD PUSH2 0x545B JUMP JUMPDEST SWAP2 POP POP SWAP3 SWAP2 POP POP JUMP JUMPDEST PUSH0 DUP1 PUSH0 DUP1 PUSH1 0x80 DUP6 DUP8 SUB SLT ISZERO PUSH2 0x54E1 JUMPI PUSH2 0x54E0 PUSH2 0x486A JUMP JUMPDEST JUMPDEST PUSH0 DUP6 ADD CALLDATALOAD PUSH8 0xFFFFFFFFFFFFFFFF DUP2 GT ISZERO PUSH2 0x54FE JUMPI PUSH2 0x54FD PUSH2 0x486E JUMP JUMPDEST JUMPDEST PUSH2 0x550A DUP8 DUP3 DUP9 ADD PUSH2 0x4D28 JUMP JUMPDEST SWAP5 POP POP PUSH1 0x20 DUP6 ADD CALLDATALOAD PUSH8 0xFFFFFFFFFFFFFFFF DUP2 GT ISZERO PUSH2 0x552B JUMPI PUSH2 0x552A PUSH2 0x486E JUMP JUMPDEST JUMPDEST PUSH2 0x5537 DUP8 DUP3 DUP9 ADD PUSH2 0x4DE8 JUMP JUMPDEST SWAP4 POP POP PUSH1 0x40 DUP6 ADD CALLDATALOAD PUSH8 0xFFFFFFFFFFFFFFFF DUP2 GT ISZERO PUSH2 0x5558 JUMPI PUSH2 0x5557 PUSH2 0x486E JUMP JUMPDEST JUMPDEST PUSH2 0x5564 DUP8 DUP3 DUP9 ADD PUSH2 0x4EC6 JUMP JUMPDEST SWAP3 POP POP PUSH1 0x60 DUP6 ADD CALLDATALOAD PUSH8 0xFFFFFFFFFFFFFFFF DUP2 GT ISZERO PUSH2 0x5585 JUMPI PUSH2 0x5584 PUSH2 0x486E JUMP JUMPDEST JUMPDEST PUSH2 0x5591 DUP8 DUP3 DUP9 ADD PUSH2 0x549C JUMP JUMPDEST SWAP2 POP POP SWAP3 SWAP6 SWAP2 SWAP5 POP SWAP3 POP JUMP JUMPDEST PUSH0 PUSH1 0x20 DUP3 DUP5 SUB SLT ISZERO PUSH2 0x55B2 JUMPI PUSH2 0x55B1 PUSH2 0x486A JUMP JUMPDEST JUMPDEST PUSH0 PUSH2 0x55BF DUP5 DUP3 DUP6 ADD PUSH2 0x4AA9 JUMP JUMPDEST SWAP2 POP POP SWAP3 SWAP2 POP POP JUMP JUMPDEST PUSH0 PUSH32 0xFF00000000000000000000000000000000000000000000000000000000000000 DUP3 AND SWAP1 POP SWAP2 SWAP1 POP JUMP JUMPDEST PUSH2 0x55FC DUP2 PUSH2 0x55C8 JUMP JUMPDEST DUP3 MSTORE POP POP JUMP JUMPDEST PUSH0 DUP2 MLOAD SWAP1 POP SWAP2 SWAP1 POP JUMP JUMPDEST PUSH0 DUP3 DUP3 MSTORE PUSH1 0x20 DUP3 ADD SWAP1 POP SWAP3 SWAP2 POP POP JUMP JUMPDEST PUSH0 DUP2 SWAP1 POP PUSH1 0x20 DUP3 ADD SWAP1 POP SWAP2 SWAP1 POP JUMP JUMPDEST PUSH2 0x5634 DUP2 PUSH2 0x4925 JUMP JUMPDEST DUP3 MSTORE POP POP JUMP JUMPDEST PUSH0 PUSH2 0x5645 DUP4 DUP4 PUSH2 0x562B JUMP JUMPDEST PUSH1 0x20 DUP4 ADD SWAP1 POP SWAP3 SWAP2 POP POP JUMP JUMPDEST PUSH0 PUSH1 0x20 DUP3 ADD SWAP1 POP SWAP2 SWAP1 POP JUMP JUMPDEST PUSH0 PUSH2 0x5667 DUP3 PUSH2 0x5602 JUMP JUMPDEST PUSH2 0x5671 DUP2 DUP6 PUSH2 0x560C JUMP JUMPDEST SWAP4 POP PUSH2 0x567C DUP4 PUSH2 0x561C JUMP JUMPDEST DUP1 PUSH0 JUMPDEST DUP4 DUP2 LT ISZERO PUSH2 0x56AC JUMPI DUP2 MLOAD PUSH2 0x5693 DUP9 DUP3 PUSH2 0x563A JUMP JUMPDEST SWAP8 POP PUSH2 0x569E DUP4 PUSH2 0x5651 JUMP JUMPDEST SWAP3 POP POP PUSH1 0x1 DUP2 ADD SWAP1 POP PUSH2 0x567F JUMP JUMPDEST POP DUP6 SWAP4 POP POP POP POP SWAP3 SWAP2 POP POP JUMP JUMPDEST PUSH0 PUSH1 0xE0 DUP3 ADD SWAP1 POP PUSH2 0x56CC PUSH0 DUP4 ADD DUP11 PUSH2 0x55F3 JUMP JUMPDEST DUP2 DUP2 SUB PUSH1 0x20 DUP4 ADD MSTORE PUSH2 0x56DE DUP2 DUP10 PUSH2 0x49E3 JUMP JUMPDEST SWAP1 POP DUP2 DUP2 SUB PUSH1 0x40 DUP4 ADD MSTORE PUSH2 0x56F2 DUP2 DUP9 PUSH2 0x49E3 JUMP JUMPDEST SWAP1 POP PUSH2 0x5701 PUSH1 0x60 DUP4 ADD DUP8 PUSH2 0x492E JUMP JUMPDEST PUSH2 0x570E PUSH1 0x80 DUP4 ADD DUP7 PUSH2 0x4A6B JUMP JUMPDEST PUSH2 0x571B PUSH1 0xA0 DUP4 ADD DUP6 PUSH2 0x4FDE JUMP JUMPDEST DUP2 DUP2 SUB PUSH1 0xC0 DUP4 ADD MSTORE PUSH2 0x572D DUP2 DUP5 PUSH2 0x565D JUMP JUMPDEST SWAP1 POP SWAP9 SWAP8 POP POP POP POP POP POP POP POP JUMP JUMPDEST PUSH0 DUP1 PUSH0 DUP1 PUSH1 0x80 DUP6 DUP8 SUB SLT ISZERO PUSH2 0x5753 JUMPI PUSH2 0x5752 PUSH2 0x486A JUMP JUMPDEST JUMPDEST PUSH0 PUSH2 0x5760 DUP8 DUP3 DUP9 ADD PUSH2 0x496C JUMP JUMPDEST SWAP5 POP POP PUSH1 0x20 PUSH2 0x5771 DUP8 DUP3 DUP9 ADD PUSH2 0x5127 JUMP JUMPDEST SWAP4 POP POP PUSH1 0x40 PUSH2 0x5782 DUP8 DUP3 DUP9 ADD PUSH2 0x4AA9 JUMP JUMPDEST SWAP3 POP POP PUSH1 0x60 DUP6 ADD CALLDATALOAD PUSH8 0xFFFFFFFFFFFFFFFF DUP2 GT ISZERO PUSH2 0x57A3 JUMPI PUSH2 0x57A2 PUSH2 0x486E JUMP JUMPDEST JUMPDEST PUSH2 0x57AF DUP8 DUP3 DUP9 ADD PUSH2 0x4BBC JUMP JUMPDEST SWAP2 POP POP SWAP3 SWAP6 SWAP2 SWAP5 POP SWAP3 POP JUMP JUMPDEST PUSH2 0x57C4 DUP2 PUSH2 0x5354 JUMP JUMPDEST DUP3 MSTORE POP POP JUMP JUMPDEST PUSH0 PUSH1 0x20 DUP3 ADD SWAP1 POP PUSH2 0x57DD PUSH0 DUP4 ADD DUP5 PUSH2 0x57BB JUMP JUMPDEST SWAP3 SWAP2 POP POP JUMP JUMPDEST PUSH0 DUP1 PUSH0 PUSH1 0x60 DUP5 DUP7 SUB SLT ISZERO PUSH2 0x57FA JUMPI PUSH2 0x57F9 PUSH2 0x486A JUMP JUMPDEST JUMPDEST PUSH0 PUSH2 0x5807 DUP7 DUP3 DUP8 ADD PUSH2 0x4AA9 JUMP JUMPDEST SWAP4 POP POP PUSH1 0x20 PUSH2 0x5818 DUP7 DUP3 DUP8 ADD PUSH2 0x496C JUMP JUMPDEST SWAP3 POP POP PUSH1 0x40 DUP5 ADD CALLDATALOAD PUSH8 0xFFFFFFFFFFFFFFFF DUP2 GT ISZERO PUSH2 0x5839 JUMPI PUSH2 0x5838 PUSH2 0x486E JUMP JUMPDEST JUMPDEST PUSH2 0x5845 DUP7 DUP3 DUP8 ADD PUSH2 0x4BBC JUMP JUMPDEST SWAP2 POP POP SWAP3 POP SWAP3 POP SWAP3 JUMP JUMPDEST PUSH0 PUSH2 0x5859 DUP3 PUSH2 0x4A3B JUMP JUMPDEST SWAP1 POP SWAP2 SWAP1 POP JUMP JUMPDEST PUSH0 PUSH2 0x586A DUP3 PUSH2 0x584F JUMP JUMPDEST SWAP1 POP SWAP2 SWAP1 POP JUMP JUMPDEST PUSH2 0x587A DUP2 PUSH2 0x5860 JUMP JUMPDEST DUP2 EQ PUSH2 0x5884 JUMPI PUSH0 DUP1 REVERT JUMPDEST POP JUMP JUMPDEST PUSH0 DUP2 CALLDATALOAD SWAP1 POP PUSH2 0x5895 DUP2 PUSH2 0x5871 JUMP JUMPDEST SWAP3 SWAP2 POP POP JUMP JUMPDEST PUSH0 PUSH1 0x20 DUP3 DUP5 SUB SLT ISZERO PUSH2 0x58B0 JUMPI PUSH2 0x58AF PUSH2 0x486A JUMP JUMPDEST JUMPDEST PUSH0 PUSH2 0x58BD DUP5 DUP3 DUP6 ADD PUSH2 0x5887 JUMP JUMPDEST SWAP2 POP POP SWAP3 SWAP2 POP POP JUMP JUMPDEST PUSH0 DUP1 PUSH0 DUP1 PUSH0 PUSH1 0xA0 DUP7 DUP9 SUB SLT ISZERO PUSH2 0x58DF JUMPI PUSH2 0x58DE PUSH2 0x486A JUMP JUMPDEST JUMPDEST PUSH0 PUSH2 0x58EC DUP9 DUP3 DUP10 ADD PUSH2 0x4AA9 JUMP JUMPDEST SWAP6 POP POP PUSH1 0x20 PUSH2 0x58FD DUP9 DUP3 DUP10 ADD PUSH2 0x4AA9 JUMP JUMPDEST SWAP5 POP POP PUSH1 0x40 DUP7 ADD CALLDATALOAD PUSH8 0xFFFFFFFFFFFFFFFF DUP2 GT ISZERO PUSH2 0x591E JUMPI PUSH2 0x591D PUSH2 0x486E JUMP JUMPDEST JUMPDEST PUSH2 0x592A DUP9 DUP3 DUP10 ADD PUSH2 0x4DE8 JUMP JUMPDEST SWAP4 POP POP PUSH1 0x60 DUP7 ADD CALLDATALOAD PUSH8 0xFFFFFFFFFFFFFFFF DUP2 GT ISZERO PUSH2 0x594B JUMPI PUSH2 0x594A PUSH2 0x486E JUMP JUMPDEST JUMPDEST PUSH2 0x5957 DUP9 DUP3 DUP10 ADD PUSH2 0x4DE8 JUMP JUMPDEST SWAP3 POP POP PUSH1 0x80 DUP7 ADD CALLDATALOAD PUSH8 0xFFFFFFFFFFFFFFFF DUP2 GT ISZERO PUSH2 0x5978 JUMPI PUSH2 0x5977 PUSH2 0x486E JUMP JUMPDEST JUMPDEST PUSH2 0x5984 DUP9 DUP3 DUP10 ADD PUSH2 0x4BBC JUMP JUMPDEST SWAP2 POP POP SWAP3 SWAP6 POP SWAP3 SWAP6 SWAP1 SWAP4 POP JUMP JUMPDEST PUSH0 DUP1 DUP4 PUSH1 0x1F DUP5 ADD SLT PUSH2 0x59A6 JUMPI PUSH2 0x59A5 PUSH2 0x4ABD JUMP JUMPDEST JUMPDEST DUP3 CALLDATALOAD SWAP1 POP PUSH8 0xFFFFFFFFFFFFFFFF DUP2 GT ISZERO PUSH2 0x59C3 JUMPI PUSH2 0x59C2 PUSH2 0x5179 JUMP JUMPDEST JUMPDEST PUSH1 0x20 DUP4 ADD SWAP2 POP DUP4 PUSH1 0x1 DUP3 MUL DUP4 ADD GT ISZERO PUSH2 0x59DF JUMPI PUSH2 0x59DE PUSH2 0x4CBC JUMP JUMPDEST JUMPDEST SWAP3 POP SWAP3 SWAP1 POP JUMP JUMPDEST PUSH0 DUP1 PUSH0 DUP1 PUSH1 0x60 DUP6 DUP8 SUB SLT ISZERO PUSH2 0x59FE JUMPI PUSH2 0x59FD PUSH2 0x486A JUMP JUMPDEST JUMPDEST PUSH0 PUSH2 0x5A0B DUP8 DUP3 DUP9 ADD PUSH2 0x4AA9 JUMP JUMPDEST SWAP5 POP POP PUSH1 0x20 PUSH2 0x5A1C DUP8 DUP3 DUP9 ADD PUSH2 0x496C JUMP JUMPDEST SWAP4 POP POP PUSH1 0x40 DUP6 ADD CALLDATALOAD PUSH8 0xFFFFFFFFFFFFFFFF DUP2 GT ISZERO PUSH2 0x5A3D JUMPI PUSH2 0x5A3C PUSH2 0x486E JUMP JUMPDEST JUMPDEST PUSH2 0x5A49 DUP8 DUP3 DUP9 ADD PUSH2 0x5991 JUMP JUMPDEST SWAP3 POP SWAP3 POP POP SWAP3 SWAP6 SWAP2 SWAP5 POP SWAP3 POP JUMP JUMPDEST PUSH0 PUSH4 0xFFFFFFFF DUP3 AND SWAP1 POP SWAP2 SWAP1 POP JUMP JUMPDEST PUSH2 0x5A6F DUP2 PUSH2 0x5A57 JUMP JUMPDEST DUP2 EQ PUSH2 0x5A79 JUMPI PUSH0 DUP1 REVERT JUMPDEST POP JUMP JUMPDEST PUSH0 DUP2 CALLDATALOAD SWAP1 POP PUSH2 0x5A8A DUP2 PUSH2 0x5A66 JUMP JUMPDEST SWAP3 SWAP2 POP POP JUMP JUMPDEST PUSH0 PUSH1 0x20 DUP3 DUP5 SUB SLT ISZERO PUSH2 0x5AA5 JUMPI PUSH2 0x5AA4 PUSH2 0x486A JUMP JUMPDEST JUMPDEST PUSH0 PUSH2 0x5AB2 DUP5 DUP3 DUP6 ADD PUSH2 0x5A7C JUMP JUMPDEST SWAP2 POP POP SWAP3 SWAP2 POP POP JUMP JUMPDEST PUSH0 DUP1 PUSH1 0x40 DUP4 DUP6 SUB SLT ISZERO PUSH2 0x5AD1 JUMPI PUSH2 0x5AD0 PUSH2 0x486A JUMP JUMPDEST JUMPDEST PUSH0 PUSH2 0x5ADE DUP6 DUP3 DUP7 ADD PUSH2 0x4AA9 JUMP JUMPDEST SWAP3 POP POP PUSH1 0x20 PUSH2 0x5AEF DUP6 DUP3 DUP7 ADD PUSH2 0x496C JUMP JUMPDEST SWAP2 POP POP SWAP3 POP SWAP3 SWAP1 POP JUMP JUMPDEST PUSH0 DUP1 PUSH0 DUP1 PUSH0 PUSH1 0xA0 DUP7 DUP9 SUB SLT ISZERO PUSH2 0x5B12 JUMPI PUSH2 0x5B11 PUSH2 0x486A JUMP JUMPDEST JUMPDEST PUSH0 PUSH2 0x5B1F DUP9 DUP3 DUP10 ADD PUSH2 0x4AA9 JUMP JUMPDEST SWAP6 POP POP PUSH1 0x20 PUSH2 0x5B30 DUP9 DUP3 DUP10 ADD PUSH2 0x4AA9 JUMP JUMPDEST SWAP5 POP POP PUSH1 0x40 PUSH2 0x5B41 DUP9 DUP3 DUP10 ADD PUSH2 0x496C JUMP JUMPDEST SWAP4 POP POP PUSH1 0x60 PUSH2 0x5B52 DUP9 DUP3 DUP10 ADD PUSH2 0x496C JUMP JUMPDEST SWAP3 POP POP PUSH1 0x80 DUP7 ADD CALLDATALOAD PUSH8 0xFFFFFFFFFFFFFFFF DUP2 GT ISZERO PUSH2 0x5B73 JUMPI PUSH2 0x5B72 PUSH2 0x486E JUMP JUMPDEST JUMPDEST PUSH2 0x5B7F DUP9 DUP3 DUP10 ADD PUSH2 0x4BBC JUMP JUMPDEST SWAP2 POP POP SWAP3 SWAP6 POP SWAP3 SWAP6 SWAP1 SWAP4 POP JUMP JUMPDEST PUSH0 DUP2 SWAP1 POP SWAP2 SWAP1 POP JUMP JUMPDEST PUSH0 PUSH2 0x5BAF PUSH2 0x5BAA PUSH2 0x5BA5 DUP5 PUSH2 0x4A3B JUMP JUMPDEST PUSH2 0x5B8C JUMP JUMPDEST PUSH2 0x4A3B JUMP JUMPDEST SWAP1 POP SWAP2 SWAP1 POP JUMP JUMPDEST PUSH0 PUSH2 0x5BC0 DUP3 PUSH2 0x5B95 JUMP JUMPDEST SWAP1 POP SWAP2 SWAP1 POP JUMP JUMPDEST PUSH0 PUSH2 0x5BD1 DUP3 PUSH2 0x5BB6 JUMP JUMPDEST SWAP1 POP SWAP2 SWAP1 POP JUMP JUMPDEST PUSH2 0x5BE1 DUP2 PUSH2 0x5BC7 JUMP JUMPDEST DUP3 MSTORE POP POP JUMP JUMPDEST PUSH0 PUSH1 0x20 DUP3 ADD SWAP1 POP PUSH2 0x5BFA PUSH0 DUP4 ADD DUP5 PUSH2 0x5BD8 JUMP JUMPDEST SWAP3 SWAP2 POP POP JUMP JUMPDEST PUSH32 0x4E487B7100000000000000000000000000000000000000000000000000000000 PUSH0 MSTORE PUSH1 0x22 PUSH1 0x4 MSTORE PUSH1 0x24 PUSH0 REVERT JUMPDEST PUSH0 PUSH1 0x2 DUP3 DIV SWAP1 POP PUSH1 0x1 DUP3 AND DUP1 PUSH2 0x5C44 JUMPI PUSH1 0x7F DUP3 AND SWAP2 POP JUMPDEST PUSH1 0x20 DUP3 LT DUP2 SUB PUSH2 0x5C57 JUMPI PUSH2 0x5C56 PUSH2 0x5C00 JUMP JUMPDEST JUMPDEST POP SWAP2 SWAP1 POP JUMP JUMPDEST PUSH0 PUSH2 0x5C77 PUSH2 0x5C72 PUSH2 0x5C6D DUP5 PUSH2 0x5354 JUMP JUMPDEST PUSH2 0x5B8C JUMP JUMPDEST PUSH2 0x4925 JUMP JUMPDEST SWAP1 POP SWAP2 SWAP1 POP JUMP JUMPDEST PUSH2 0x5C87 DUP2 PUSH2 0x5C5D JUMP JUMPDEST DUP3 MSTORE POP POP JUMP JUMPDEST PUSH0 PUSH1 0x40 DUP3 ADD SWAP1 POP PUSH2 0x5CA0 PUSH0 DUP4 ADD DUP6 PUSH2 0x492E JUMP JUMPDEST PUSH2 0x5CAD PUSH1 0x20 DUP4 ADD DUP5 PUSH2 0x5C7E JUMP JUMPDEST SWAP4 SWAP3 POP POP POP JUMP JUMPDEST PUSH32 0x4E487B7100000000000000000000000000000000000000000000000000000000 PUSH0 MSTORE PUSH1 0x32 PUSH1 0x4 MSTORE PUSH1 0x24 PUSH0 REVERT JUMPDEST PUSH0 PUSH2 0x5CF3 PUSH2 0x5CEE DUP5 PUSH2 0x542B JUMP JUMPDEST PUSH2 0x4B23 JUMP JUMPDEST SWAP1 POP DUP3 DUP2 MSTORE PUSH1 0x20 DUP2 ADD DUP5 DUP5 DUP5 ADD GT ISZERO PUSH2 0x5D0F JUMPI PUSH2 0x5D0E PUSH2 0x4AC1 JUMP JUMPDEST JUMPDEST PUSH2 0x5D1A DUP5 DUP3 DUP6 PUSH2 0x49C5 JUMP JUMPDEST POP SWAP4 SWAP3 POP POP POP JUMP JUMPDEST PUSH0 DUP3 PUSH1 0x1F DUP4 ADD SLT PUSH2 0x5D36 JUMPI PUSH2 0x5D35 PUSH2 0x4ABD JUMP JUMPDEST JUMPDEST DUP2 MLOAD PUSH2 0x5D46 DUP5 DUP3 PUSH1 0x20 DUP7 ADD PUSH2 0x5CE1 JUMP JUMPDEST SWAP2 POP POP SWAP3 SWAP2 POP POP JUMP JUMPDEST PUSH0 PUSH1 0x20 DUP3 DUP5 SUB SLT ISZERO PUSH2 0x5D64 JUMPI PUSH2 0x5D63 PUSH2 0x486A JUMP JUMPDEST JUMPDEST PUSH0 DUP3 ADD MLOAD PUSH8 0xFFFFFFFFFFFFFFFF DUP2 GT ISZERO PUSH2 0x5D81 JUMPI PUSH2 0x5D80 PUSH2 0x486E JUMP JUMPDEST JUMPDEST PUSH2 0x5D8D DUP5 DUP3 DUP6 ADD PUSH2 0x5D22 JUMP JUMPDEST SWAP2 POP POP SWAP3 SWAP2 POP POP JUMP JUMPDEST PUSH0 DUP2 SWAP1 POP SWAP3 SWAP2 POP POP JUMP JUMPDEST PUSH0 PUSH2 0x5DAB DUP4 DUP6 PUSH2 0x5D96 JUMP JUMPDEST SWAP4 POP PUSH2 0x5DB8 DUP4 DUP6 DUP5 PUSH2 0x4B6D JUMP JUMPDEST DUP3 DUP5 ADD SWAP1 POP SWAP4 SWAP3 POP POP POP JUMP JUMPDEST PUSH0 PUSH2 0x5DD0 DUP3 DUP5 DUP7 PUSH2 0x5DA0 JUMP JUMPDEST SWAP2 POP DUP2 SWAP1 POP SWAP4 SWAP3 POP POP POP JUMP JUMPDEST PUSH2 0x5DE5 DUP2 PUSH2 0x5105 JUMP JUMPDEST DUP3 MSTORE POP POP JUMP JUMPDEST PUSH0 PUSH1 0xE0 DUP3 ADD SWAP1 POP PUSH2 0x5DFE PUSH0 DUP4 ADD DUP11 PUSH2 0x4FDE JUMP JUMPDEST PUSH2 0x5E0B PUSH1 0x20 DUP4 ADD DUP10 PUSH2 0x492E JUMP JUMPDEST PUSH2 0x5E18 PUSH1 0x40 DUP4 ADD DUP9 PUSH2 0x5DDC JUMP JUMPDEST PUSH2 0x5E25 PUSH1 0x60 DUP4 ADD DUP8 PUSH2 0x4A6B JUMP JUMPDEST PUSH2 0x5E32 PUSH1 0x80 DUP4 ADD DUP7 PUSH2 0x492E JUMP JUMPDEST PUSH2 0x5E3F PUSH1 0xA0 DUP4 ADD DUP6 PUSH2 0x4FDE JUMP JUMPDEST PUSH2 0x5E4C PUSH1 0xC0 DUP4 ADD DUP5 PUSH2 0x4FDE JUMP JUMPDEST SWAP9 SWAP8 POP POP POP POP POP POP POP POP JUMP JUMPDEST PUSH32 0x4E487B7100000000000000000000000000000000000000000000000000000000 PUSH0 MSTORE PUSH1 0x11 PUSH1 0x4 MSTORE PUSH1 0x24 PUSH0 REVERT JUMPDEST PUSH0 PUSH2 0x5E8F DUP3 PUSH2 0x4925 JUMP JUMPDEST SWAP2 POP PUSH2 0x5E9A DUP4 PUSH2 0x4925 JUMP JUMPDEST SWAP3 POP DUP3 DUP3 SUB SWAP1 POP DUP2 DUP2 GT ISZERO PUSH2 0x5EB2 JUMPI PUSH2 0x5EB1 PUSH2 0x5E58 JUMP JUMPDEST JUMPDEST SWAP3 SWAP2 POP POP JUMP JUMPDEST PUSH0 PUSH2 0x5EC2 DUP3 PUSH2 0x5354 JUMP JUMPDEST SWAP2 POP PUSH2 0x5ECD DUP4 PUSH2 0x5354 JUMP JUMPDEST SWAP3 POP DUP3 DUP3 SUB SWAP1 POP PUSH6 0xFFFFFFFFFFFF DUP2 GT ISZERO PUSH2 0x5EEB JUMPI PUSH2 0x5EEA PUSH2 0x5E58 JUMP JUMPDEST JUMPDEST SWAP3 SWAP2 POP POP JUMP JUMPDEST PUSH0 PUSH1 0x60 DUP3 ADD SWAP1 POP PUSH2 0x5F04 PUSH0 DUP4 ADD DUP7 PUSH2 0x4A6B JUMP JUMPDEST PUSH2 0x5F11 PUSH1 0x20 DUP4 ADD DUP6 PUSH2 0x492E JUMP JUMPDEST PUSH2 0x5F1E PUSH1 0x40 DUP4 ADD DUP5 PUSH2 0x492E JUMP JUMPDEST SWAP5 SWAP4 POP POP POP POP JUMP JUMPDEST PUSH0 PUSH1 0xA0 DUP3 ADD SWAP1 POP PUSH2 0x5F39 PUSH0 DUP4 ADD DUP9 PUSH2 0x4FDE JUMP JUMPDEST PUSH2 0x5F46 PUSH1 0x20 DUP4 ADD DUP8 PUSH2 0x492E JUMP JUMPDEST PUSH2 0x5F53 PUSH1 0x40 DUP4 ADD DUP7 PUSH2 0x5DDC JUMP JUMPDEST PUSH2 0x5F60 PUSH1 0x60 DUP4 ADD DUP6 PUSH2 0x4A6B JUMP JUMPDEST PUSH2 0x5F6D PUSH1 0x80 DUP4 ADD DUP5 PUSH2 0x492E JUMP JUMPDEST SWAP7 SWAP6 POP POP POP POP POP POP JUMP JUMPDEST PUSH0 DUP2 MLOAD SWAP1 POP PUSH2 0x5F85 DUP2 PUSH2 0x5365 JUMP JUMPDEST SWAP3 SWAP2 POP POP JUMP JUMPDEST PUSH0 PUSH1 0x20 DUP3 DUP5 SUB SLT ISZERO PUSH2 0x5FA0 JUMPI PUSH2 0x5F9F PUSH2 0x486A JUMP JUMPDEST JUMPDEST PUSH0 PUSH2 0x5FAD DUP5 DUP3 DUP6 ADD PUSH2 0x5F77 JUMP JUMPDEST SWAP2 POP POP SWAP3 SWAP2 POP POP JUMP JUMPDEST PUSH0 PUSH2 0x5FC0 DUP3 PUSH2 0x5354 JUMP JUMPDEST SWAP2 POP PUSH2 0x5FCB DUP4 PUSH2 0x5354 JUMP JUMPDEST SWAP3 POP DUP3 DUP3 ADD SWAP1 POP PUSH6 0xFFFFFFFFFFFF DUP2 GT ISZERO PUSH2 0x5FE9 JUMPI PUSH2 0x5FE8 PUSH2 0x5E58 JUMP JUMPDEST JUMPDEST SWAP3 SWAP2 POP POP JUMP JUMPDEST PUSH0 DUP2 MLOAD SWAP1 POP SWAP2 SWAP1 POP JUMP JUMPDEST PUSH0 DUP3 DUP3 MSTORE PUSH1 0x20 DUP3 ADD SWAP1 POP SWAP3 SWAP2 POP POP JUMP JUMPDEST PUSH0 DUP2 SWAP1 POP PUSH1 0x20 DUP3 ADD SWAP1 POP SWAP2 SWAP1 POP JUMP JUMPDEST PUSH2 0x6021 DUP2 PUSH2 0x4A5A JUMP JUMPDEST DUP3 MSTORE POP POP JUMP JUMPDEST PUSH0 PUSH2 0x6032 DUP4 DUP4 PUSH2 0x6018 JUMP JUMPDEST PUSH1 0x20 DUP4 ADD SWAP1 POP SWAP3 SWAP2 POP POP JUMP JUMPDEST PUSH0 PUSH1 0x20 DUP3 ADD SWAP1 POP SWAP2 SWAP1 POP JUMP JUMPDEST PUSH0 PUSH2 0x6054 DUP3 PUSH2 0x5FEF JUMP JUMPDEST PUSH2 0x605E DUP2 DUP6 PUSH2 0x5FF9 JUMP JUMPDEST SWAP4 POP PUSH2 0x6069 DUP4 PUSH2 0x6009 JUMP JUMPDEST DUP1 PUSH0 JUMPDEST DUP4 DUP2 LT ISZERO PUSH2 0x6099 JUMPI DUP2 MLOAD PUSH2 0x6080 DUP9 DUP3 PUSH2 0x6027 JUMP JUMPDEST SWAP8 POP PUSH2 0x608B DUP4 PUSH2 0x603E JUMP JUMPDEST SWAP3 POP POP PUSH1 0x1 DUP2 ADD SWAP1 POP PUSH2 0x606C JUMP JUMPDEST POP DUP6 SWAP4 POP POP POP POP SWAP3 SWAP2 POP POP JUMP JUMPDEST PUSH0 DUP2 MLOAD SWAP1 POP SWAP2 SWAP1 POP JUMP JUMPDEST PUSH0 DUP3 DUP3 MSTORE PUSH1 0x20 DUP3 ADD SWAP1 POP SWAP3 SWAP2 POP POP JUMP JUMPDEST PUSH0 DUP2 SWAP1 POP PUSH1 0x20 DUP3 ADD SWAP1 POP SWAP2 SWAP1 POP JUMP JUMPDEST PUSH0 DUP2 MLOAD SWAP1 POP SWAP2 SWAP1 POP JUMP JUMPDEST PUSH0 DUP3 DUP3 MSTORE PUSH1 0x20 DUP3 ADD SWAP1 POP SWAP3 SWAP2 POP POP JUMP JUMPDEST PUSH0 PUSH2 0x60F3 DUP3 PUSH2 0x60CF JUMP JUMPDEST PUSH2 0x60FD DUP2 DUP6 PUSH2 0x60D9 JUMP JUMPDEST SWAP4 POP PUSH2 0x610D DUP2 DUP6 PUSH1 0x20 DUP7 ADD PUSH2 0x49C5 JUMP JUMPDEST PUSH2 0x6116 DUP2 PUSH2 0x49D3 JUMP JUMPDEST DUP5 ADD SWAP2 POP POP SWAP3 SWAP2 POP POP JUMP JUMPDEST PUSH0 PUSH2 0x612C DUP4 DUP4 PUSH2 0x60E9 JUMP JUMPDEST SWAP1 POP SWAP3 SWAP2 POP POP JUMP JUMPDEST PUSH0 PUSH1 0x20 DUP3 ADD SWAP1 POP SWAP2 SWAP1 POP JUMP JUMPDEST PUSH0 PUSH2 0x614A DUP3 PUSH2 0x60A6 JUMP JUMPDEST PUSH2 0x6154 DUP2 DUP6 PUSH2 0x60B0 JUMP JUMPDEST SWAP4 POP DUP4 PUSH1 0x20 DUP3 MUL DUP6 ADD PUSH2 0x6166 DUP6 PUSH2 0x60C0 JUMP JUMPDEST DUP1 PUSH0 JUMPDEST DUP6 DUP2 LT ISZERO PUSH2 0x61A1 JUMPI DUP5 DUP5 SUB DUP10 MSTORE DUP2 MLOAD PUSH2 0x6182 DUP6 DUP3 PUSH2 0x6121 JUMP JUMPDEST SWAP5 POP PUSH2 0x618D DUP4 PUSH2 0x6134 JUMP JUMPDEST SWAP3 POP PUSH1 0x20 DUP11 ADD SWAP10 POP POP PUSH1 0x1 DUP2 ADD SWAP1 POP PUSH2 0x6169 JUMP JUMPDEST POP DUP3 SWAP8 POP DUP8 SWAP6 POP POP POP POP POP POP SWAP3 SWAP2 POP POP JUMP JUMPDEST PUSH0 PUSH1 0x80 DUP3 ADD SWAP1 POP DUP2 DUP2 SUB PUSH0 DUP4 ADD MSTORE PUSH2 0x61CB DUP2 DUP8 PUSH2 0x604A JUMP JUMPDEST SWAP1 POP DUP2 DUP2 SUB PUSH1 0x20 DUP4 ADD MSTORE PUSH2 0x61DF DUP2 DUP7 PUSH2 0x565D JUMP JUMPDEST SWAP1 POP DUP2 DUP2 SUB PUSH1 0x40 DUP4 ADD MSTORE PUSH2 0x61F3 DUP2 DUP6 PUSH2 0x6140 JUMP JUMPDEST SWAP1 POP PUSH2 0x6202 PUSH1 0x60 DUP4 ADD DUP5 PUSH2 0x4FDE JUMP JUMPDEST SWAP6 SWAP5 POP POP POP POP POP JUMP JUMPDEST PUSH0 PUSH1 0x40 DUP3 ADD SWAP1 POP PUSH2 0x621E PUSH0 DUP4 ADD DUP6 PUSH2 0x492E JUMP JUMPDEST PUSH2 0x622B PUSH1 0x20 DUP4 ADD DUP5 PUSH2 0x492E JUMP JUMPDEST SWAP4 SWAP3 POP POP POP JUMP JUMPDEST PUSH0 PUSH1 0x60 DUP3 ADD SWAP1 POP PUSH2 0x6245 PUSH0 DUP4 ADD DUP7 PUSH2 0x492E JUMP JUMPDEST PUSH2 0x6252 PUSH1 0x20 DUP4 ADD DUP6 PUSH2 0x506A JUMP JUMPDEST PUSH2 0x625F PUSH1 0x40 DUP4 ADD DUP5 PUSH2 0x4FDE JUMP JUMPDEST SWAP5 SWAP4 POP POP POP POP JUMP JUMPDEST PUSH2 0x6270 DUP2 PUSH2 0x48F2 JUMP JUMPDEST DUP2 EQ PUSH2 0x627A JUMPI PUSH0 DUP1 REVERT JUMPDEST POP JUMP JUMPDEST PUSH0 DUP2 MLOAD SWAP1 POP PUSH2 0x628B DUP2 PUSH2 0x6267 JUMP JUMPDEST SWAP3 SWAP2 POP POP JUMP JUMPDEST PUSH0 PUSH1 0x20 DUP3 DUP5 SUB SLT ISZERO PUSH2 0x62A6 JUMPI PUSH2 0x62A5 PUSH2 0x486A JUMP JUMPDEST JUMPDEST PUSH0 PUSH2 0x62B3 DUP5 DUP3 DUP6 ADD PUSH2 0x627D JUMP JUMPDEST SWAP2 POP POP SWAP3 SWAP2 POP POP JUMP JUMPDEST PUSH0 PUSH1 0x80 DUP3 ADD SWAP1 POP PUSH2 0x62CF PUSH0 DUP4 ADD DUP8 PUSH2 0x492E JUMP JUMPDEST PUSH2 0x62DC PUSH1 0x20 DUP4 ADD DUP7 PUSH2 0x5DDC JUMP JUMPDEST PUSH2 0x62E9 PUSH1 0x40 DUP4 ADD DUP6 PUSH2 0x492E JUMP JUMPDEST DUP2 DUP2 SUB PUSH1 0x60 DUP4 ADD MSTORE PUSH2 0x62FB DUP2 DUP5 PUSH2 0x49E3 JUMP JUMPDEST SWAP1 POP SWAP6 SWAP5 POP POP POP POP POP JUMP JUMPDEST PUSH0 DUP3 DUP3 MSTORE PUSH1 0x20 DUP3 ADD SWAP1 POP SWAP3 SWAP2 POP POP JUMP JUMPDEST PUSH0 PUSH2 0x6320 DUP3 PUSH2 0x60CF JUMP JUMPDEST PUSH2 0x632A DUP2 DUP6 PUSH2 0x6306 JUMP JUMPDEST SWAP4 POP PUSH2 0x633A DUP2 DUP6 PUSH1 0x20 DUP7 ADD PUSH2 0x49C5 JUMP JUMPDEST PUSH2 0x6343 DUP2 PUSH2 0x49D3 JUMP JUMPDEST DUP5 ADD SWAP2 POP POP SWAP3 SWAP2 POP POP JUMP JUMPDEST PUSH0 PUSH1 0xA0 DUP3 ADD SWAP1 POP PUSH2 0x6361 PUSH0 DUP4 ADD DUP9 PUSH2 0x492E JUMP JUMPDEST PUSH2 0x636E PUSH1 0x20 DUP4 ADD DUP8 PUSH2 0x5DDC JUMP JUMPDEST PUSH2 0x637B PUSH1 0x40 DUP4 ADD DUP7 PUSH2 0x492E JUMP JUMPDEST DUP2 DUP2 SUB PUSH1 0x60 DUP4 ADD MSTORE PUSH2 0x638D DUP2 DUP6 PUSH2 0x49E3 JUMP JUMPDEST SWAP1 POP DUP2 DUP2 SUB PUSH1 0x80 DUP4 ADD MSTORE PUSH2 0x63A1 DUP2 DUP5 PUSH2 0x6316 JUMP JUMPDEST SWAP1 POP SWAP7 SWAP6 POP POP POP POP POP POP JUMP JUMPDEST PUSH0 DUP2 SWAP1 POP SWAP2 SWAP1 POP JUMP JUMPDEST PUSH0 PUSH2 0x63D0 PUSH2 0x63CB PUSH2 0x63C6 DUP5 PUSH2 0x63AD JUMP JUMPDEST PUSH2 0x5B8C JUMP JUMPDEST PUSH2 0x5105 JUMP JUMPDEST SWAP1 POP SWAP2 SWAP1 POP JUMP JUMPDEST PUSH2 0x63E0 DUP2 PUSH2 0x63B6 JUMP JUMPDEST DUP3 MSTORE POP POP JUMP JUMPDEST PUSH0 PUSH1 0x40 DUP3 ADD SWAP1 POP PUSH2 0x63F9 PUSH0 DUP4 ADD DUP6 PUSH2 0x63D7 JUMP JUMPDEST PUSH2 0x6406 PUSH1 0x20 DUP4 ADD DUP5 PUSH2 0x492E JUMP JUMPDEST SWAP4 SWAP3 POP POP POP JUMP JUMPDEST PUSH0 PUSH2 0x6417 DUP3 PUSH2 0x4925 JUMP JUMPDEST SWAP2 POP PUSH2 0x6422 DUP4 PUSH2 0x4925 JUMP JUMPDEST SWAP3 POP DUP3 DUP3 ADD SWAP1 POP DUP1 DUP3 GT ISZERO PUSH2 0x643A JUMPI PUSH2 0x6439 PUSH2 0x5E58 JUMP JUMPDEST JUMPDEST SWAP3 SWAP2 POP POP JUMP JUMPDEST PUSH0 PUSH1 0x40 DUP3 ADD SWAP1 POP PUSH2 0x6453 PUSH0 DUP4 ADD DUP6 PUSH2 0x5C7E JUMP JUMPDEST PUSH2 0x6460 PUSH1 0x20 DUP4 ADD DUP5 PUSH2 0x5C7E JUMP JUMPDEST SWAP4 SWAP3 POP POP POP JUMP JUMPDEST PUSH0 DUP2 MLOAD SWAP1 POP SWAP2 SWAP1 POP JUMP JUMPDEST PUSH0 DUP3 DUP3 MSTORE PUSH1 0x20 DUP3 ADD SWAP1 POP SWAP3 SWAP2 POP POP JUMP JUMPDEST PUSH0 DUP2 SWAP1 POP PUSH1 0x20 DUP3 ADD SWAP1 POP SWAP2 SWAP1 POP JUMP JUMPDEST PUSH0 DUP3 DUP3 MSTORE PUSH1 0x20 DUP3 ADD SWAP1 POP SWAP3 SWAP2 POP POP JUMP JUMPDEST PUSH0 PUSH2 0x64AA DUP3 PUSH2 0x49AB JUMP JUMPDEST PUSH2 0x64B4 DUP2 DUP6 PUSH2 0x6490 JUMP JUMPDEST SWAP4 POP PUSH2 0x64C4 DUP2 DUP6 PUSH1 0x20 DUP7 ADD PUSH2 0x49C5 JUMP JUMPDEST PUSH2 0x64CD DUP2 PUSH2 0x49D3 JUMP JUMPDEST DUP5 ADD SWAP2 POP POP SWAP3 SWAP2 POP POP JUMP JUMPDEST PUSH0 PUSH2 0x64E3 DUP4 DUP4 PUSH2 0x64A0 JUMP JUMPDEST SWAP1 POP SWAP3 SWAP2 POP POP JUMP JUMPDEST PUSH0 PUSH1 0x20 DUP3 ADD SWAP1 POP SWAP2 SWAP1 POP JUMP JUMPDEST PUSH0 PUSH2 0x6501 DUP3 PUSH2 0x6467 JUMP JUMPDEST PUSH2 0x650B DUP2 DUP6 PUSH2 0x6471 JUMP JUMPDEST SWAP4 POP DUP4 PUSH1 0x20 DUP3 MUL DUP6 ADD PUSH2 0x651D DUP6 PUSH2 0x6481 JUMP JUMPDEST DUP1 PUSH0 JUMPDEST DUP6 DUP2 LT ISZERO PUSH2 0x6558 JUMPI DUP5 DUP5 SUB DUP10 MSTORE DUP2 MLOAD PUSH2 0x6539 DUP6 DUP3 PUSH2 0x64D8 JUMP JUMPDEST SWAP5 POP PUSH2 0x6544 DUP4 PUSH2 0x64EB JUMP JUMPDEST SWAP3 POP PUSH1 0x20 DUP11 ADD SWAP10 POP POP PUSH1 0x1 DUP2 ADD SWAP1 POP PUSH2 0x6520 JUMP JUMPDEST POP DUP3 SWAP8 POP DUP8 SWAP6 POP POP POP POP POP POP SWAP3 SWAP2 POP POP JUMP JUMPDEST PUSH0 PUSH2 0x120 DUP3 ADD SWAP1 POP PUSH2 0x657E PUSH0 DUP4 ADD DUP13 PUSH2 0x492E JUMP JUMPDEST PUSH2 0x658B PUSH1 0x20 DUP4 ADD DUP12 PUSH2 0x4A6B JUMP JUMPDEST DUP2 DUP2 SUB PUSH1 0x40 DUP4 ADD MSTORE PUSH2 0x659D DUP2 DUP11 PUSH2 0x604A JUMP JUMPDEST SWAP1 POP DUP2 DUP2 SUB PUSH1 0x60 DUP4 ADD MSTORE PUSH2 0x65B1 DUP2 DUP10 PUSH2 0x565D JUMP JUMPDEST SWAP1 POP DUP2 DUP2 SUB PUSH1 0x80 DUP4 ADD MSTORE PUSH2 0x65C5 DUP2 DUP9 PUSH2 0x64F7 JUMP JUMPDEST SWAP1 POP DUP2 DUP2 SUB PUSH1 0xA0 DUP4 ADD MSTORE PUSH2 0x65D9 DUP2 DUP8 PUSH2 0x6140 JUMP JUMPDEST SWAP1 POP PUSH2 0x65E8 PUSH1 0xC0 DUP4 ADD DUP7 PUSH2 0x492E JUMP JUMPDEST PUSH2 0x65F5 PUSH1 0xE0 DUP4 ADD DUP6 PUSH2 0x492E JUMP JUMPDEST DUP2 DUP2 SUB PUSH2 0x100 DUP4 ADD MSTORE PUSH2 0x6608 DUP2 DUP5 PUSH2 0x49E3 JUMP JUMPDEST SWAP1 POP SWAP11 SWAP10 POP POP POP POP POP POP POP POP POP POP JUMP JUMPDEST PUSH0 PUSH1 0x40 DUP3 ADD SWAP1 POP PUSH2 0x662B PUSH0 DUP4 ADD DUP6 PUSH2 0x4A6B JUMP JUMPDEST PUSH2 0x6638 PUSH1 0x20 DUP4 ADD DUP5 PUSH2 0x492E JUMP JUMPDEST SWAP4 SWAP3 POP POP POP JUMP JUMPDEST PUSH0 DUP2 MLOAD SWAP1 POP PUSH2 0x664D DUP2 PUSH2 0x4956 JUMP JUMPDEST SWAP3 SWAP2 POP POP JUMP JUMPDEST PUSH0 PUSH1 0x20 DUP3 DUP5 SUB SLT ISZERO PUSH2 0x6668 JUMPI PUSH2 0x6667 PUSH2 0x486A JUMP JUMPDEST JUMPDEST PUSH0 PUSH2 0x6675 DUP5 DUP3 DUP6 ADD PUSH2 0x663F JUMP JUMPDEST SWAP2 POP POP SWAP3 SWAP2 POP POP JUMP JUMPDEST PUSH0 PUSH1 0x40 DUP3 ADD SWAP1 POP PUSH2 0x6691 PUSH0 DUP4 ADD DUP6 PUSH2 0x4A6B JUMP JUMPDEST PUSH2 0x669E PUSH1 0x20 DUP4 ADD DUP5 PUSH2 0x4A6B JUMP JUMPDEST SWAP4 SWAP3 POP POP POP JUMP JUMPDEST PUSH0 DUP2 SWAP1 POP SWAP2 SWAP1 POP JUMP JUMPDEST PUSH0 PUSH2 0x66C8 PUSH2 0x66C3 PUSH2 0x66BE DUP5 PUSH2 0x66A5 JUMP JUMPDEST PUSH2 0x5B8C JUMP JUMPDEST PUSH2 0x4925 JUMP JUMPDEST SWAP1 POP SWAP2 SWAP1 POP JUMP JUMPDEST PUSH2 0x66D8 DUP2 PUSH2 0x66AE JUMP JUMPDEST DUP3 MSTORE POP POP JUMP JUMPDEST PUSH0 PUSH1 0x20 DUP3 ADD SWAP1 POP PUSH2 0x66F1 PUSH0 DUP4 ADD DUP5 PUSH2 0x66CF JUMP JUMPDEST SWAP3 SWAP2 POP POP JUMP JUMPDEST PUSH0 PUSH2 0x6711 PUSH2 0x670C PUSH2 0x6707 DUP5 PUSH2 0x5A57 JUMP JUMPDEST PUSH2 0x5B8C JUMP JUMPDEST PUSH2 0x4925 JUMP JUMPDEST SWAP1 POP SWAP2 SWAP1 POP JUMP JUMPDEST PUSH2 0x6721 DUP2 PUSH2 0x66F7 JUMP JUMPDEST DUP3 MSTORE POP POP JUMP JUMPDEST PUSH0 PUSH1 0x40 DUP3 ADD SWAP1 POP PUSH2 0x673A PUSH0 DUP4 ADD DUP6 PUSH2 0x6718 JUMP JUMPDEST PUSH2 0x6747 PUSH1 0x20 DUP4 ADD DUP5 PUSH2 0x6718 JUMP JUMPDEST SWAP4 SWAP3 POP POP POP JUMP JUMPDEST PUSH0 PUSH2 0x6758 DUP3 PUSH2 0x4925 JUMP JUMPDEST SWAP2 POP PUSH2 0x6763 DUP4 PUSH2 0x4925 JUMP JUMPDEST SWAP3 POP DUP3 DUP3 MUL PUSH2 0x6771 DUP2 PUSH2 0x4925 JUMP JUMPDEST SWAP2 POP DUP3 DUP3 DIV DUP5 EQ DUP4 ISZERO OR PUSH2 0x6788 JUMPI PUSH2 0x6787 PUSH2 0x5E58 JUMP JUMPDEST JUMPDEST POP SWAP3 SWAP2 POP POP JUMP JUMPDEST PUSH32 0x4E487B7100000000000000000000000000000000000000000000000000000000 PUSH0 MSTORE PUSH1 0x12 PUSH1 0x4 MSTORE PUSH1 0x24 PUSH0 REVERT JUMPDEST PUSH0 PUSH2 0x67C6 DUP3 PUSH2 0x4925 JUMP JUMPDEST SWAP2 POP PUSH2 0x67D1 DUP4 PUSH2 0x4925 JUMP JUMPDEST SWAP3 POP DUP3 PUSH2 0x67E1 JUMPI PUSH2 0x67E0 PUSH2 0x678F JUMP JUMPDEST JUMPDEST DUP3 DUP3 DIV SWAP1 POP SWAP3 SWAP2 POP POP JUMP JUMPDEST PUSH0 DUP2 SWAP1 POP SWAP2 SWAP1 POP JUMP JUMPDEST PUSH0 PUSH2 0x680F PUSH2 0x680A PUSH2 0x6805 DUP5 PUSH2 0x67EC JUMP JUMPDEST PUSH2 0x5B8C JUMP JUMPDEST PUSH2 0x5105 JUMP JUMPDEST SWAP1 POP SWAP2 SWAP1 POP JUMP JUMPDEST PUSH2 0x681F DUP2 PUSH2 0x67F5 JUMP JUMPDEST DUP3 MSTORE POP POP JUMP JUMPDEST PUSH0 PUSH1 0x40 DUP3 ADD SWAP1 POP PUSH2 0x6838 PUSH0 DUP4 ADD DUP6 PUSH2 0x6816 JUMP JUMPDEST PUSH2 0x6845 PUSH1 0x20 DUP4 ADD DUP5 PUSH2 0x492E JUMP JUMPDEST SWAP4 SWAP3 POP POP POP JUMP JUMPDEST PUSH0 DUP2 PUSH0 SHL SWAP1 POP SWAP2 SWAP1 POP JUMP JUMPDEST PUSH0 PUSH2 0x6871 PUSH2 0x686C PUSH2 0x6867 DUP5 PUSH2 0x66A5 JUMP JUMPDEST PUSH2 0x684C JUMP JUMPDEST PUSH2 0x4EF3 JUMP JUMPDEST SWAP1 POP SWAP2 SWAP1 POP JUMP JUMPDEST PUSH2 0x6881 DUP2 PUSH2 0x6857 JUMP JUMPDEST DUP3 MSTORE POP POP JUMP JUMPDEST PUSH0 PUSH1 0xA0 DUP3 ADD SWAP1 POP DUP2 DUP2 SUB PUSH0 DUP4 ADD MSTORE PUSH2 0x689F DUP2 DUP9 PUSH2 0x604A JUMP JUMPDEST SWAP1 POP DUP2 DUP2 SUB PUSH1 0x20 DUP4 ADD MSTORE PUSH2 0x68B3 DUP2 DUP8 PUSH2 0x565D JUMP JUMPDEST SWAP1 POP DUP2 DUP2 SUB PUSH1 0x40 DUP4 ADD MSTORE PUSH2 0x68C7 DUP2 DUP7 PUSH2 0x6140 JUMP JUMPDEST SWAP1 POP PUSH2 0x68D6 PUSH1 0x60 DUP4 ADD DUP6 PUSH2 0x6878 JUMP JUMPDEST PUSH2 0x68E3 PUSH1 0x80 DUP4 ADD DUP5 PUSH2 0x4FDE JUMP JUMPDEST SWAP7 SWAP6 POP POP POP POP POP POP JUMP JUMPDEST PUSH0 DUP2 MLOAD SWAP1 POP PUSH2 0x68FB DUP2 PUSH2 0x4EFC JUMP JUMPDEST SWAP3 SWAP2 POP POP JUMP JUMPDEST PUSH0 PUSH1 0x20 DUP3 DUP5 SUB SLT ISZERO PUSH2 0x6916 JUMPI PUSH2 0x6915 PUSH2 0x486A JUMP JUMPDEST JUMPDEST PUSH0 PUSH2 0x6923 DUP5 DUP3 DUP6 ADD PUSH2 0x68ED JUMP JUMPDEST SWAP2 POP POP SWAP3 SWAP2 POP POP JUMP JUMPDEST PUSH0 PUSH1 0xC0 DUP3 ADD SWAP1 POP DUP2 DUP2 SUB PUSH0 DUP4 ADD MSTORE PUSH2 0x6944 DUP2 DUP10 PUSH2 0x604A JUMP JUMPDEST SWAP1 POP DUP2 DUP2 SUB PUSH1 0x20 DUP4 ADD MSTORE PUSH2 0x6958 DUP2 DUP9 PUSH2 0x565D JUMP JUMPDEST SWAP1 POP DUP2 DUP2 SUB PUSH1 0x40 DUP4 ADD MSTORE PUSH2 0x696C DUP2 DUP8 PUSH2 0x6140 JUMP JUMPDEST SWAP1 POP PUSH2 0x697B PUSH1 0x60 DUP4 ADD DUP7 PUSH2 0x6878 JUMP JUMPDEST PUSH2 0x6988 PUSH1 0x80 DUP4 ADD DUP6 PUSH2 0x4FDE JUMP JUMPDEST PUSH2 0x6995 PUSH1 0xA0 DUP4 ADD DUP5 PUSH2 0x492E JUMP JUMPDEST SWAP8 SWAP7 POP POP POP POP POP POP POP JUMP JUMPDEST PUSH0 PUSH1 0x40 DUP3 ADD SWAP1 POP PUSH2 0x69B3 PUSH0 DUP4 ADD DUP6 PUSH2 0x4FDE JUMP JUMPDEST DUP2 DUP2 SUB PUSH1 0x20 DUP4 ADD MSTORE PUSH2 0x69C5 DUP2 DUP5 PUSH2 0x6316 JUMP JUMPDEST SWAP1 POP SWAP4 SWAP3 POP POP POP JUMP JUMPDEST PUSH0 PUSH2 0x69D8 DUP3 PUSH2 0x60CF JUMP JUMPDEST PUSH2 0x69E2 DUP2 DUP6 PUSH2 0x5D96 JUMP JUMPDEST SWAP4 POP PUSH2 0x69F2 DUP2 DUP6 PUSH1 0x20 DUP7 ADD PUSH2 0x49C5 JUMP JUMPDEST DUP1 DUP5 ADD SWAP2 POP POP SWAP3 SWAP2 POP POP JUMP JUMPDEST PUSH0 PUSH2 0x6A09 DUP3 DUP5 PUSH2 0x69CE JUMP JUMPDEST SWAP2 POP DUP2 SWAP1 POP SWAP3 SWAP2 POP POP JUMP JUMPDEST PUSH0 DUP2 SWAP1 POP SWAP2 SWAP1 POP JUMP JUMPDEST PUSH0 PUSH2 0x6A37 PUSH2 0x6A32 PUSH2 0x6A2D DUP5 PUSH2 0x6A14 JUMP JUMPDEST PUSH2 0x5B8C JUMP JUMPDEST PUSH2 0x5105 JUMP JUMPDEST SWAP1 POP SWAP2 SWAP1 POP JUMP JUMPDEST PUSH2 0x6A47 DUP2 PUSH2 0x6A1D JUMP JUMPDEST DUP3 MSTORE POP POP JUMP JUMPDEST PUSH0 PUSH1 0x40 DUP3 ADD SWAP1 POP PUSH2 0x6A60 PUSH0 DUP4 ADD DUP6 PUSH2 0x6A3E JUMP JUMPDEST PUSH2 0x6A6D PUSH1 0x20 DUP4 ADD DUP5 PUSH2 0x492E JUMP JUMPDEST SWAP4 SWAP3 POP POP POP JUMP JUMPDEST PUSH0 PUSH2 0x6A7E DUP3 PUSH2 0x5105 JUMP JUMPDEST SWAP2 POP PUSH2 0x6A89 DUP4 PUSH2 0x5105 JUMP JUMPDEST SWAP3 POP DUP3 DUP3 ADD SWAP1 POP PUSH1 0xFF DUP2 GT ISZERO PUSH2 0x6AA2 JUMPI PUSH2 0x6AA1 PUSH2 0x5E58 JUMP JUMPDEST JUMPDEST SWAP3 SWAP2 POP POP JUMP JUMPDEST PUSH0 DUP2 PUSH1 0x1 SHR SWAP1 POP SWAP2 SWAP1 POP JUMP JUMPDEST PUSH0 DUP1 DUP3 SWAP2 POP DUP4 SWAP1 POP JUMPDEST PUSH1 0x1 DUP6 GT ISZERO PUSH2 0x6AFD JUMPI DUP1 DUP7 DIV DUP2 GT ISZERO PUSH2 0x6AD9 JUMPI PUSH2 0x6AD8 PUSH2 0x5E58 JUMP JUMPDEST JUMPDEST PUSH1 0x1 DUP6 AND ISZERO PUSH2 0x6AE8 JUMPI DUP1 DUP3 MUL SWAP2 POP JUMPDEST DUP1 DUP2 MUL SWAP1 POP PUSH2 0x6AF6 DUP6 PUSH2 0x6AA8 JUMP JUMPDEST SWAP5 POP PUSH2 0x6ABD JUMP JUMPDEST SWAP5 POP SWAP5 SWAP3 POP POP POP JUMP JUMPDEST PUSH0 DUP3 PUSH2 0x6B15 JUMPI PUSH1 0x1 SWAP1 POP PUSH2 0x6BD0 JUMP JUMPDEST DUP2 PUSH2 0x6B22 JUMPI PUSH0 SWAP1 POP PUSH2 0x6BD0 JUMP JUMPDEST DUP2 PUSH1 0x1 DUP2 EQ PUSH2 0x6B38 JUMPI PUSH1 0x2 DUP2 EQ PUSH2 0x6B42 JUMPI PUSH2 0x6B71 JUMP JUMPDEST PUSH1 0x1 SWAP2 POP POP PUSH2 0x6BD0 JUMP JUMPDEST PUSH1 0xFF DUP5 GT ISZERO PUSH2 0x6B54 JUMPI PUSH2 0x6B53 PUSH2 0x5E58 JUMP JUMPDEST JUMPDEST DUP4 PUSH1 0x2 EXP SWAP2 POP DUP5 DUP3 GT ISZERO PUSH2 0x6B6B JUMPI PUSH2 0x6B6A PUSH2 0x5E58 JUMP JUMPDEST JUMPDEST POP PUSH2 0x6BD0 JUMP JUMPDEST POP PUSH1 0x20 DUP4 LT PUSH2 0x133 DUP4 LT AND PUSH1 0x4E DUP5 LT PUSH1 0xB DUP5 LT AND OR ISZERO PUSH2 0x6BA6 JUMPI DUP3 DUP3 EXP SWAP1 POP DUP4 DUP2 GT ISZERO PUSH2 0x6BA1 JUMPI PUSH2 0x6BA0 PUSH2 0x5E58 JUMP JUMPDEST JUMPDEST PUSH2 0x6BD0 JUMP JUMPDEST PUSH2 0x6BB3 DUP5 DUP5 DUP5 PUSH1 0x1 PUSH2 0x6AB4 JUMP JUMPDEST SWAP3 POP SWAP1 POP DUP2 DUP5 DIV DUP2 GT ISZERO PUSH2 0x6BCA JUMPI PUSH2 0x6BC9 PUSH2 0x5E58 JUMP JUMPDEST JUMPDEST DUP2 DUP2 MUL SWAP1 POP JUMPDEST SWAP4 SWAP3 POP POP POP JUMP JUMPDEST PUSH0 PUSH2 0x6BE1 DUP3 PUSH2 0x4925 JUMP JUMPDEST SWAP2 POP PUSH2 0x6BEC DUP4 PUSH2 0x5105 JUMP JUMPDEST SWAP3 POP PUSH2 0x6C19 PUSH32 0xFFFFFFFFFFFFFFFFFFFFFFFFFFFFFFFFFFFFFFFFFFFFFFFFFFFFFFFFFFFFFFFF DUP5 DUP5 PUSH2 0x6B06 JUMP JUMPDEST SWAP1 POP SWAP3 SWAP2 POP POP JUMP JUMPDEST PUSH0 PUSH1 0xA0 DUP3 ADD SWAP1 POP PUSH2 0x6C34 PUSH0 DUP4 ADD DUP9 PUSH2 0x4FDE JUMP JUMPDEST PUSH2 0x6C41 PUSH1 0x20 DUP4 ADD DUP8 PUSH2 0x4FDE JUMP JUMPDEST PUSH2 0x6C4E PUSH1 0x40 DUP4 ADD DUP7 PUSH2 0x4FDE JUMP JUMPDEST PUSH2 0x6C5B PUSH1 0x60 DUP4 ADD DUP6 PUSH2 0x492E JUMP JUMPDEST PUSH2 0x6C68 PUSH1 0x80 DUP4 ADD DUP5 PUSH2 0x4A6B JUMP JUMPDEST SWAP7 SWAP6 POP POP POP POP POP POP JUMP JUMPDEST PUSH0 PUSH1 0x80 DUP3 ADD SWAP1 POP PUSH2 0x6C85 PUSH0 DUP4 ADD DUP8 PUSH2 0x4FDE JUMP JUMPDEST PUSH2 0x6C92 PUSH1 0x20 DUP4 ADD DUP7 PUSH2 0x5DDC JUMP JUMPDEST PUSH2 0x6C9F PUSH1 0x40 DUP4 ADD DUP6 PUSH2 0x4FDE JUMP JUMPDEST PUSH2 0x6CAC PUSH1 0x60 DUP4 ADD DUP5 PUSH2 0x4FDE JUMP JUMPDEST SWAP6 SWAP5 POP POP POP POP POP JUMP INVALID LOG2 PUSH5 0x6970667358 0x22 SLT KECCAK256 SELFBALANCE SHR KECCAK256 DUP4 DIV 0xAC 0xEA ADDRESS SLOAD REVERT POP CODECOPY 0xE7 PUSH24 0x3C86282BE71DCF4100CA1F8B478F208E066F64736F6C6343 STOP ADDMOD BYTE STOP CALLER "
		},
		"gasEstimates": {
			"creation": {
				"codeDepositCost": "5576600",
				"executionCost": "infinite",
				"totalCost": "infinite"
			},
			"external": {
				"BALLOT_TYPEHASH()": "480",
				"CLOCK_MODE()": "infinite",
				"COUNTING_MODE()": "infinite",
				"EXTENDED_BALLOT_TYPEHASH()": "437",
				"cancel(address[],uint256[],bytes[],bytes32)": "infinite",
				"castVote(uint256,uint8)": "infinite",
				"castVoteBySig(uint256,uint8,address,bytes)": "infinite",
				"castVoteWithReason(uint256,uint8,string)": "infinite",
				"castVoteWithReasonAndParams(uint256,uint8,string,bytes)": "infinite",
				"castVoteWithReasonAndParamsBySig(uint256,uint8,address,string,bytes,bytes)": "infinite",
				"clock()": "infinite",
				"eip712Domain()": "infinite",
				"execute(address[],uint256[],bytes[],bytes32)": "infinite",
				"getVotes(address,uint256)": "infinite",
				"getVotesWithParams(address,uint256,bytes)": "infinite",
				"hasVoted(uint256,address)": "3169",
				"hashProposal(address[],uint256[],bytes[],bytes32)": "infinite",
				"name()": "infinite",
				"nonces(address)": "2875",
				"onERC1155BatchReceived(address,address,uint256[],uint256[],bytes)": "infinite",
				"onERC1155Received(address,address,uint256,uint256,bytes)": "infinite",
				"onERC721Received(address,address,uint256,bytes)": "infinite",
				"proposalDeadline(uint256)": "infinite",
				"proposalEta(uint256)": "infinite",
				"proposalNeedsQueuing(uint256)": "730",
				"proposalProposer(uint256)": "2992",
				"proposalSnapshot(uint256)": "infinite",
				"proposalThreshold()": "2599",
				"proposalVotes(uint256)": "infinite",
				"propose(address[],uint256[],bytes[],string)": "infinite",
				"queue(address[],uint256[],bytes[],bytes32)": "infinite",
				"quorum(uint256)": "infinite",
				"quorumDenominator()": "466",
				"quorumNumerator()": "infinite",
				"quorumNumerator(uint256)": "infinite",
				"relay(address,uint256,bytes)": "infinite",
				"setProposalThreshold(uint256)": "infinite",
				"setVotingDelay(uint48)": "infinite",
				"setVotingPeriod(uint32)": "infinite",
				"state(uint256)": "infinite",
				"supportsInterface(bytes4)": "810",
				"timelock()": "2626",
				"token()": "infinite",
				"updateQuorumNumerator(uint256)": "infinite",
				"updateTimelock(address)": "infinite",
				"version()": "infinite",
				"votingDelay()": "2641",
				"votingPeriod()": "2627"
			},
			"internal": {
				"_cancel(address[] memory,uint256[] memory,bytes memory[] memory,bytes32)": "infinite",
				"_executeOperations(uint256,address[] memory,uint256[] memory,bytes memory[] memory,bytes32)": "infinite",
				"_executor()": "2191",
				"_queueOperations(uint256,address[] memory,uint256[] memory,bytes memory[] memory,bytes32)": "infinite"
			}
		},
		"methodIdentifiers": {
			"BALLOT_TYPEHASH()": "deaaa7cc",
			"CLOCK_MODE()": "4bf5d7e9",
			"COUNTING_MODE()": "dd4e2ba5",
			"EXTENDED_BALLOT_TYPEHASH()": "2fe3e261",
			"cancel(address[],uint256[],bytes[],bytes32)": "452115d6",
			"castVote(uint256,uint8)": "56781388",
			"castVoteBySig(uint256,uint8,address,bytes)": "8ff262e3",
			"castVoteWithReason(uint256,uint8,string)": "7b3c71d3",
			"castVoteWithReasonAndParams(uint256,uint8,string,bytes)": "5f398a14",
			"castVoteWithReasonAndParamsBySig(uint256,uint8,address,string,bytes,bytes)": "5b8d0e0d",
			"clock()": "91ddadf4",
			"eip712Domain()": "84b0196e",
			"execute(address[],uint256[],bytes[],bytes32)": "2656227d",
			"getVotes(address,uint256)": "eb9019d4",
			"getVotesWithParams(address,uint256,bytes)": "9a802a6d",
			"hasVoted(uint256,address)": "43859632",
			"hashProposal(address[],uint256[],bytes[],bytes32)": "c59057e4",
			"name()": "06fdde03",
			"nonces(address)": "7ecebe00",
			"onERC1155BatchReceived(address,address,uint256[],uint256[],bytes)": "bc197c81",
			"onERC1155Received(address,address,uint256,uint256,bytes)": "f23a6e61",
			"onERC721Received(address,address,uint256,bytes)": "150b7a02",
			"proposalDeadline(uint256)": "c01f9e37",
			"proposalEta(uint256)": "ab58fb8e",
			"proposalNeedsQueuing(uint256)": "a9a95294",
			"proposalProposer(uint256)": "143489d0",
			"proposalSnapshot(uint256)": "2d63f693",
			"proposalThreshold()": "b58131b0",
			"proposalVotes(uint256)": "544ffc9c",
			"propose(address[],uint256[],bytes[],string)": "7d5e81e2",
			"queue(address[],uint256[],bytes[],bytes32)": "160cbed7",
			"quorum(uint256)": "f8ce560a",
			"quorumDenominator()": "97c3d334",
			"quorumNumerator()": "a7713a70",
			"quorumNumerator(uint256)": "60c4247f",
			"relay(address,uint256,bytes)": "c28bc2fa",
			"setProposalThreshold(uint256)": "ece40cc1",
			"setVotingDelay(uint48)": "79051887",
			"setVotingPeriod(uint32)": "e540d01d",
			"state(uint256)": "3e4f49e6",
			"supportsInterface(bytes4)": "01ffc9a7",
			"timelock()": "d33219b4",
			"token()": "fc0c546a",
			"updateQuorumNumerator(uint256)": "06f3f9e6",
			"updateTimelock(address)": "a890c910",
			"version()": "54fd4d50",
			"votingDelay()": "3932abb1",
			"votingPeriod()": "02a251a3"
		}
	},
	"abi": [
		{
			"inputs": [
				{
					"internalType": "contract IVotes",
					"name": "_token",
					"type": "address"
				},
				{
					"internalType": "contract TimelockController",
					"name": "_timelock",
					"type": "address"
				}
			],
			"stateMutability": "nonpayable",
			"type": "constructor"
		},
		{
			"inputs": [],
			"name": "CheckpointUnorderedInsertion",
			"type": "error"
		},
		{
			"inputs": [],
			"name": "FailedInnerCall",
			"type": "error"
		},
		{
			"inputs": [
				{
					"internalType": "address",
					"name": "voter",
					"type": "address"
				}
			],
			"name": "GovernorAlreadyCastVote",
			"type": "error"
		},
		{
			"inputs": [
				{
					"internalType": "uint256",
					"name": "proposalId",
					"type": "uint256"
				}
			],
			"name": "GovernorAlreadyQueuedProposal",
			"type": "error"
		},
		{
			"inputs": [],
			"name": "GovernorDisabledDeposit",
			"type": "error"
		},
		{
			"inputs": [
				{
					"internalType": "address",
					"name": "proposer",
					"type": "address"
				},
				{
					"internalType": "uint256",
					"name": "votes",
					"type": "uint256"
				},
				{
					"internalType": "uint256",
					"name": "threshold",
					"type": "uint256"
				}
			],
			"name": "GovernorInsufficientProposerVotes",
			"type": "error"
		},
		{
			"inputs": [
				{
					"internalType": "uint256",
					"name": "targets",
					"type": "uint256"
				},
				{
					"internalType": "uint256",
					"name": "calldatas",
					"type": "uint256"
				},
				{
					"internalType": "uint256",
					"name": "values",
					"type": "uint256"
				}
			],
			"name": "GovernorInvalidProposalLength",
			"type": "error"
		},
		{
			"inputs": [
				{
					"internalType": "uint256",
					"name": "quorumNumerator",
					"type": "uint256"
				},
				{
					"internalType": "uint256",
					"name": "quorumDenominator",
					"type": "uint256"
				}
			],
			"name": "GovernorInvalidQuorumFraction",
			"type": "error"
		},
		{
			"inputs": [
				{
					"internalType": "address",
					"name": "voter",
					"type": "address"
				}
			],
			"name": "GovernorInvalidSignature",
			"type": "error"
		},
		{
			"inputs": [],
			"name": "GovernorInvalidVoteType",
			"type": "error"
		},
		{
			"inputs": [
				{
					"internalType": "uint256",
					"name": "votingPeriod",
					"type": "uint256"
				}
			],
			"name": "GovernorInvalidVotingPeriod",
			"type": "error"
		},
		{
			"inputs": [
				{
					"internalType": "uint256",
					"name": "proposalId",
					"type": "uint256"
				}
			],
			"name": "GovernorNonexistentProposal",
			"type": "error"
		},
		{
			"inputs": [
				{
					"internalType": "uint256",
					"name": "proposalId",
					"type": "uint256"
				}
			],
			"name": "GovernorNotQueuedProposal",
			"type": "error"
		},
		{
			"inputs": [
				{
					"internalType": "address",
					"name": "account",
					"type": "address"
				}
			],
			"name": "GovernorOnlyExecutor",
			"type": "error"
		},
		{
			"inputs": [
				{
					"internalType": "address",
					"name": "account",
					"type": "address"
				}
			],
			"name": "GovernorOnlyProposer",
			"type": "error"
		},
		{
			"inputs": [],
			"name": "GovernorQueueNotImplemented",
			"type": "error"
		},
		{
			"inputs": [
				{
					"internalType": "address",
					"name": "proposer",
					"type": "address"
				}
			],
			"name": "GovernorRestrictedProposer",
			"type": "error"
		},
		{
			"inputs": [
				{
					"internalType": "uint256",
					"name": "proposalId",
					"type": "uint256"
				},
				{
					"internalType": "enum IGovernor.ProposalState",
					"name": "current",
					"type": "uint8"
				},
				{
					"internalType": "bytes32",
					"name": "expectedStates",
					"type": "bytes32"
				}
			],
			"name": "GovernorUnexpectedProposalState",
			"type": "error"
		},
		{
			"inputs": [
				{
					"internalType": "address",
					"name": "account",
					"type": "address"
				},
				{
					"internalType": "uint256",
					"name": "currentNonce",
					"type": "uint256"
				}
			],
			"name": "InvalidAccountNonce",
			"type": "error"
		},
		{
			"inputs": [],
			"name": "InvalidShortString",
			"type": "error"
		},
		{
			"inputs": [],
			"name": "QueueEmpty",
			"type": "error"
		},
		{
			"inputs": [],
			"name": "QueueFull",
			"type": "error"
		},
		{
			"inputs": [
				{
					"internalType": "uint8",
					"name": "bits",
					"type": "uint8"
				},
				{
					"internalType": "uint256",
					"name": "value",
					"type": "uint256"
				}
			],
			"name": "SafeCastOverflowedUintDowncast",
			"type": "error"
		},
		{
			"inputs": [
				{
					"internalType": "string",
					"name": "str",
					"type": "string"
				}
			],
			"name": "StringTooLong",
			"type": "error"
		},
		{
			"anonymous": false,
			"inputs": [],
			"name": "EIP712DomainChanged",
			"type": "event"
		},
		{
			"anonymous": false,
			"inputs": [
				{
					"indexed": false,
					"internalType": "uint256",
					"name": "proposalId",
					"type": "uint256"
				}
			],
			"name": "ProposalCanceled",
			"type": "event"
		},
		{
			"anonymous": false,
			"inputs": [
				{
					"indexed": false,
					"internalType": "uint256",
					"name": "proposalId",
					"type": "uint256"
				},
				{
					"indexed": false,
					"internalType": "address",
					"name": "proposer",
					"type": "address"
				},
				{
					"indexed": false,
					"internalType": "address[]",
					"name": "targets",
					"type": "address[]"
				},
				{
					"indexed": false,
					"internalType": "uint256[]",
					"name": "values",
					"type": "uint256[]"
				},
				{
					"indexed": false,
					"internalType": "string[]",
					"name": "signatures",
					"type": "string[]"
				},
				{
					"indexed": false,
					"internalType": "bytes[]",
					"name": "calldatas",
					"type": "bytes[]"
				},
				{
					"indexed": false,
					"internalType": "uint256",
					"name": "voteStart",
					"type": "uint256"
				},
				{
					"indexed": false,
					"internalType": "uint256",
					"name": "voteEnd",
					"type": "uint256"
				},
				{
					"indexed": false,
					"internalType": "string",
					"name": "description",
					"type": "string"
				}
			],
			"name": "ProposalCreated",
			"type": "event"
		},
		{
			"anonymous": false,
			"inputs": [
				{
					"indexed": false,
					"internalType": "uint256",
					"name": "proposalId",
					"type": "uint256"
				}
			],
			"name": "ProposalExecuted",
			"type": "event"
		},
		{
			"anonymous": false,
			"inputs": [
				{
					"indexed": false,
					"internalType": "uint256",
					"name": "proposalId",
					"type": "uint256"
				},
				{
					"indexed": false,
					"internalType": "uint256",
					"name": "etaSeconds",
					"type": "uint256"
				}
			],
			"name": "ProposalQueued",
			"type": "event"
		},
		{
			"anonymous": false,
			"inputs": [
				{
					"indexed": false,
					"internalType": "uint256",
					"name": "oldProposalThreshold",
					"type": "uint256"
				},
				{
					"indexed": false,
					"internalType": "uint256",
					"name": "newProposalThreshold",
					"type": "uint256"
				}
			],
			"name": "ProposalThresholdSet",
			"type": "event"
		},
		{
			"anonymous": false,
			"inputs": [
				{
					"indexed": false,
					"internalType": "uint256",
					"name": "oldQuorumNumerator",
					"type": "uint256"
				},
				{
					"indexed": false,
					"internalType": "uint256",
					"name": "newQuorumNumerator",
					"type": "uint256"
				}
			],
			"name": "QuorumNumeratorUpdated",
			"type": "event"
		},
		{
			"anonymous": false,
			"inputs": [
				{
					"indexed": false,
					"internalType": "address",
					"name": "oldTimelock",
					"type": "address"
				},
				{
					"indexed": false,
					"internalType": "address",
					"name": "newTimelock",
					"type": "address"
				}
			],
			"name": "TimelockChange",
			"type": "event"
		},
		{
			"anonymous": false,
			"inputs": [
				{
					"indexed": true,
					"internalType": "address",
					"name": "voter",
					"type": "address"
				},
				{
					"indexed": false,
					"internalType": "uint256",
					"name": "proposalId",
					"type": "uint256"
				},
				{
					"indexed": false,
					"internalType": "uint8",
					"name": "support",
					"type": "uint8"
				},
				{
					"indexed": false,
					"internalType": "uint256",
					"name": "weight",
					"type": "uint256"
				},
				{
					"indexed": false,
					"internalType": "string",
					"name": "reason",
					"type": "string"
				}
			],
			"name": "VoteCast",
			"type": "event"
		},
		{
			"anonymous": false,
			"inputs": [
				{
					"indexed": true,
					"internalType": "address",
					"name": "voter",
					"type": "address"
				},
				{
					"indexed": false,
					"internalType": "uint256",
					"name": "proposalId",
					"type": "uint256"
				},
				{
					"indexed": false,
					"internalType": "uint8",
					"name": "support",
					"type": "uint8"
				},
				{
					"indexed": false,
					"internalType": "uint256",
					"name": "weight",
					"type": "uint256"
				},
				{
					"indexed": false,
					"internalType": "string",
					"name": "reason",
					"type": "string"
				},
				{
					"indexed": false,
					"internalType": "bytes",
					"name": "params",
					"type": "bytes"
				}
			],
			"name": "VoteCastWithParams",
			"type": "event"
		},
		{
			"anonymous": false,
			"inputs": [
				{
					"indexed": false,
					"internalType": "uint256",
					"name": "oldVotingDelay",
					"type": "uint256"
				},
				{
					"indexed": false,
					"internalType": "uint256",
					"name": "newVotingDelay",
					"type": "uint256"
				}
			],
			"name": "VotingDelaySet",
			"type": "event"
		},
		{
			"anonymous": false,
			"inputs": [
				{
					"indexed": false,
					"internalType": "uint256",
					"name": "oldVotingPeriod",
					"type": "uint256"
				},
				{
					"indexed": false,
					"internalType": "uint256",
					"name": "newVotingPeriod",
					"type": "uint256"
				}
			],
			"name": "VotingPeriodSet",
			"type": "event"
		},
		{
			"inputs": [],
			"name": "BALLOT_TYPEHASH",
			"outputs": [
				{
					"internalType": "bytes32",
					"name": "",
					"type": "bytes32"
				}
			],
			"stateMutability": "view",
			"type": "function"
		},
		{
			"inputs": [],
			"name": "CLOCK_MODE",
			"outputs": [
				{
					"internalType": "string",
					"name": "",
					"type": "string"
				}
			],
			"stateMutability": "view",
			"type": "function"
		},
		{
			"inputs": [],
			"name": "COUNTING_MODE",
			"outputs": [
				{
					"internalType": "string",
					"name": "",
					"type": "string"
				}
			],
			"stateMutability": "pure",
			"type": "function"
		},
		{
			"inputs": [],
			"name": "EXTENDED_BALLOT_TYPEHASH",
			"outputs": [
				{
					"internalType": "bytes32",
					"name": "",
					"type": "bytes32"
				}
			],
			"stateMutability": "view",
			"type": "function"
		},
		{
			"inputs": [
				{
					"internalType": "address[]",
					"name": "targets",
					"type": "address[]"
				},
				{
					"internalType": "uint256[]",
					"name": "values",
					"type": "uint256[]"
				},
				{
					"internalType": "bytes[]",
					"name": "calldatas",
					"type": "bytes[]"
				},
				{
					"internalType": "bytes32",
					"name": "descriptionHash",
					"type": "bytes32"
				}
			],
			"name": "cancel",
			"outputs": [
				{
					"internalType": "uint256",
					"name": "",
					"type": "uint256"
				}
			],
			"stateMutability": "nonpayable",
			"type": "function"
		},
		{
			"inputs": [
				{
					"internalType": "uint256",
					"name": "proposalId",
					"type": "uint256"
				},
				{
					"internalType": "uint8",
					"name": "support",
					"type": "uint8"
				}
			],
			"name": "castVote",
			"outputs": [
				{
					"internalType": "uint256",
					"name": "",
					"type": "uint256"
				}
			],
			"stateMutability": "nonpayable",
			"type": "function"
		},
		{
			"inputs": [
				{
					"internalType": "uint256",
					"name": "proposalId",
					"type": "uint256"
				},
				{
					"internalType": "uint8",
					"name": "support",
					"type": "uint8"
				},
				{
					"internalType": "address",
					"name": "voter",
					"type": "address"
				},
				{
					"internalType": "bytes",
					"name": "signature",
					"type": "bytes"
				}
			],
			"name": "castVoteBySig",
			"outputs": [
				{
					"internalType": "uint256",
					"name": "",
					"type": "uint256"
				}
			],
			"stateMutability": "nonpayable",
			"type": "function"
		},
		{
			"inputs": [
				{
					"internalType": "uint256",
					"name": "proposalId",
					"type": "uint256"
				},
				{
					"internalType": "uint8",
					"name": "support",
					"type": "uint8"
				},
				{
					"internalType": "string",
					"name": "reason",
					"type": "string"
				}
			],
			"name": "castVoteWithReason",
			"outputs": [
				{
					"internalType": "uint256",
					"name": "",
					"type": "uint256"
				}
			],
			"stateMutability": "nonpayable",
			"type": "function"
		},
		{
			"inputs": [
				{
					"internalType": "uint256",
					"name": "proposalId",
					"type": "uint256"
				},
				{
					"internalType": "uint8",
					"name": "support",
					"type": "uint8"
				},
				{
					"internalType": "string",
					"name": "reason",
					"type": "string"
				},
				{
					"internalType": "bytes",
					"name": "params",
					"type": "bytes"
				}
			],
			"name": "castVoteWithReasonAndParams",
			"outputs": [
				{
					"internalType": "uint256",
					"name": "",
					"type": "uint256"
				}
			],
			"stateMutability": "nonpayable",
			"type": "function"
		},
		{
			"inputs": [
				{
					"internalType": "uint256",
					"name": "proposalId",
					"type": "uint256"
				},
				{
					"internalType": "uint8",
					"name": "support",
					"type": "uint8"
				},
				{
					"internalType": "address",
					"name": "voter",
					"type": "address"
				},
				{
					"internalType": "string",
					"name": "reason",
					"type": "string"
				},
				{
					"internalType": "bytes",
					"name": "params",
					"type": "bytes"
				},
				{
					"internalType": "bytes",
					"name": "signature",
					"type": "bytes"
				}
			],
			"name": "castVoteWithReasonAndParamsBySig",
			"outputs": [
				{
					"internalType": "uint256",
					"name": "",
					"type": "uint256"
				}
			],
			"stateMutability": "nonpayable",
			"type": "function"
		},
		{
			"inputs": [],
			"name": "clock",
			"outputs": [
				{
					"internalType": "uint48",
					"name": "",
					"type": "uint48"
				}
			],
			"stateMutability": "view",
			"type": "function"
		},
		{
			"inputs": [],
			"name": "eip712Domain",
			"outputs": [
				{
					"internalType": "bytes1",
					"name": "fields",
					"type": "bytes1"
				},
				{
					"internalType": "string",
					"name": "name",
					"type": "string"
				},
				{
					"internalType": "string",
					"name": "version",
					"type": "string"
				},
				{
					"internalType": "uint256",
					"name": "chainId",
					"type": "uint256"
				},
				{
					"internalType": "address",
					"name": "verifyingContract",
					"type": "address"
				},
				{
					"internalType": "bytes32",
					"name": "salt",
					"type": "bytes32"
				},
				{
					"internalType": "uint256[]",
					"name": "extensions",
					"type": "uint256[]"
				}
			],
			"stateMutability": "view",
			"type": "function"
		},
		{
			"inputs": [
				{
					"internalType": "address[]",
					"name": "targets",
					"type": "address[]"
				},
				{
					"internalType": "uint256[]",
					"name": "values",
					"type": "uint256[]"
				},
				{
					"internalType": "bytes[]",
					"name": "calldatas",
					"type": "bytes[]"
				},
				{
					"internalType": "bytes32",
					"name": "descriptionHash",
					"type": "bytes32"
				}
			],
			"name": "execute",
			"outputs": [
				{
					"internalType": "uint256",
					"name": "",
					"type": "uint256"
				}
			],
			"stateMutability": "payable",
			"type": "function"
		},
		{
			"inputs": [
				{
					"internalType": "address",
					"name": "account",
					"type": "address"
				},
				{
					"internalType": "uint256",
					"name": "timepoint",
					"type": "uint256"
				}
			],
			"name": "getVotes",
			"outputs": [
				{
					"internalType": "uint256",
					"name": "",
					"type": "uint256"
				}
			],
			"stateMutability": "view",
			"type": "function"
		},
		{
			"inputs": [
				{
					"internalType": "address",
					"name": "account",
					"type": "address"
				},
				{
					"internalType": "uint256",
					"name": "timepoint",
					"type": "uint256"
				},
				{
					"internalType": "bytes",
					"name": "params",
					"type": "bytes"
				}
			],
			"name": "getVotesWithParams",
			"outputs": [
				{
					"internalType": "uint256",
					"name": "",
					"type": "uint256"
				}
			],
			"stateMutability": "view",
			"type": "function"
		},
		{
			"inputs": [
				{
					"internalType": "uint256",
					"name": "proposalId",
					"type": "uint256"
				},
				{
					"internalType": "address",
					"name": "account",
					"type": "address"
				}
			],
			"name": "hasVoted",
			"outputs": [
				{
					"internalType": "bool",
					"name": "",
					"type": "bool"
				}
			],
			"stateMutability": "view",
			"type": "function"
		},
		{
			"inputs": [
				{
					"internalType": "address[]",
					"name": "targets",
					"type": "address[]"
				},
				{
					"internalType": "uint256[]",
					"name": "values",
					"type": "uint256[]"
				},
				{
					"internalType": "bytes[]",
					"name": "calldatas",
					"type": "bytes[]"
				},
				{
					"internalType": "bytes32",
					"name": "descriptionHash",
					"type": "bytes32"
				}
			],
			"name": "hashProposal",
			"outputs": [
				{
					"internalType": "uint256",
					"name": "",
					"type": "uint256"
				}
			],
			"stateMutability": "pure",
			"type": "function"
		},
		{
			"inputs": [],
			"name": "name",
			"outputs": [
				{
					"internalType": "string",
					"name": "",
					"type": "string"
				}
			],
			"stateMutability": "view",
			"type": "function"
		},
		{
			"inputs": [
				{
					"internalType": "address",
					"name": "owner",
					"type": "address"
				}
			],
			"name": "nonces",
			"outputs": [
				{
					"internalType": "uint256",
					"name": "",
					"type": "uint256"
				}
			],
			"stateMutability": "view",
			"type": "function"
		},
		{
			"inputs": [
				{
					"internalType": "address",
					"name": "",
					"type": "address"
				},
				{
					"internalType": "address",
					"name": "",
					"type": "address"
				},
				{
					"internalType": "uint256[]",
					"name": "",
					"type": "uint256[]"
				},
				{
					"internalType": "uint256[]",
					"name": "",
					"type": "uint256[]"
				},
				{
					"internalType": "bytes",
					"name": "",
					"type": "bytes"
				}
			],
			"name": "onERC1155BatchReceived",
			"outputs": [
				{
					"internalType": "bytes4",
					"name": "",
					"type": "bytes4"
				}
			],
			"stateMutability": "nonpayable",
			"type": "function"
		},
		{
			"inputs": [
				{
					"internalType": "address",
					"name": "",
					"type": "address"
				},
				{
					"internalType": "address",
					"name": "",
					"type": "address"
				},
				{
					"internalType": "uint256",
					"name": "",
					"type": "uint256"
				},
				{
					"internalType": "uint256",
					"name": "",
					"type": "uint256"
				},
				{
					"internalType": "bytes",
					"name": "",
					"type": "bytes"
				}
			],
			"name": "onERC1155Received",
			"outputs": [
				{
					"internalType": "bytes4",
					"name": "",
					"type": "bytes4"
				}
			],
			"stateMutability": "nonpayable",
			"type": "function"
		},
		{
			"inputs": [
				{
					"internalType": "address",
					"name": "",
					"type": "address"
				},
				{
					"internalType": "address",
					"name": "",
					"type": "address"
				},
				{
					"internalType": "uint256",
					"name": "",
					"type": "uint256"
				},
				{
					"internalType": "bytes",
					"name": "",
					"type": "bytes"
				}
			],
			"name": "onERC721Received",
			"outputs": [
				{
					"internalType": "bytes4",
					"name": "",
					"type": "bytes4"
				}
			],
			"stateMutability": "nonpayable",
			"type": "function"
		},
		{
			"inputs": [
				{
					"internalType": "uint256",
					"name": "proposalId",
					"type": "uint256"
				}
			],
			"name": "proposalDeadline",
			"outputs": [
				{
					"internalType": "uint256",
					"name": "",
					"type": "uint256"
				}
			],
			"stateMutability": "view",
			"type": "function"
		},
		{
			"inputs": [
				{
					"internalType": "uint256",
					"name": "proposalId",
					"type": "uint256"
				}
			],
			"name": "proposalEta",
			"outputs": [
				{
					"internalType": "uint256",
					"name": "",
					"type": "uint256"
				}
			],
			"stateMutability": "view",
			"type": "function"
		},
		{
			"inputs": [
				{
					"internalType": "uint256",
					"name": "proposalId",
					"type": "uint256"
				}
			],
			"name": "proposalNeedsQueuing",
			"outputs": [
				{
					"internalType": "bool",
					"name": "",
					"type": "bool"
				}
			],
			"stateMutability": "view",
			"type": "function"
		},
		{
			"inputs": [
				{
					"internalType": "uint256",
					"name": "proposalId",
					"type": "uint256"
				}
			],
			"name": "proposalProposer",
			"outputs": [
				{
					"internalType": "address",
					"name": "",
					"type": "address"
				}
			],
			"stateMutability": "view",
			"type": "function"
		},
		{
			"inputs": [
				{
					"internalType": "uint256",
					"name": "proposalId",
					"type": "uint256"
				}
			],
			"name": "proposalSnapshot",
			"outputs": [
				{
					"internalType": "uint256",
					"name": "",
					"type": "uint256"
				}
			],
			"stateMutability": "view",
			"type": "function"
		},
		{
			"inputs": [],
			"name": "proposalThreshold",
			"outputs": [
				{
					"internalType": "uint256",
					"name": "",
					"type": "uint256"
				}
			],
			"stateMutability": "view",
			"type": "function"
		},
		{
			"inputs": [
				{
					"internalType": "uint256",
					"name": "proposalId",
					"type": "uint256"
				}
			],
			"name": "proposalVotes",
			"outputs": [
				{
					"internalType": "uint256",
					"name": "againstVotes",
					"type": "uint256"
				},
				{
					"internalType": "uint256",
					"name": "forVotes",
					"type": "uint256"
				},
				{
					"internalType": "uint256",
					"name": "abstainVotes",
					"type": "uint256"
				}
			],
			"stateMutability": "view",
			"type": "function"
		},
		{
			"inputs": [
				{
					"internalType": "address[]",
					"name": "targets",
					"type": "address[]"
				},
				{
					"internalType": "uint256[]",
					"name": "values",
					"type": "uint256[]"
				},
				{
					"internalType": "bytes[]",
					"name": "calldatas",
					"type": "bytes[]"
				},
				{
					"internalType": "string",
					"name": "description",
					"type": "string"
				}
			],
			"name": "propose",
			"outputs": [
				{
					"internalType": "uint256",
					"name": "",
					"type": "uint256"
				}
			],
			"stateMutability": "nonpayable",
			"type": "function"
		},
		{
			"inputs": [
				{
					"internalType": "address[]",
					"name": "targets",
					"type": "address[]"
				},
				{
					"internalType": "uint256[]",
					"name": "values",
					"type": "uint256[]"
				},
				{
					"internalType": "bytes[]",
					"name": "calldatas",
					"type": "bytes[]"
				},
				{
					"internalType": "bytes32",
					"name": "descriptionHash",
					"type": "bytes32"
				}
			],
			"name": "queue",
			"outputs": [
				{
					"internalType": "uint256",
					"name": "",
					"type": "uint256"
				}
			],
			"stateMutability": "nonpayable",
			"type": "function"
		},
		{
			"inputs": [
				{
					"internalType": "uint256",
					"name": "blockNumber",
					"type": "uint256"
				}
			],
			"name": "quorum",
			"outputs": [
				{
					"internalType": "uint256",
					"name": "",
					"type": "uint256"
				}
			],
			"stateMutability": "view",
			"type": "function"
		},
		{
			"inputs": [],
			"name": "quorumDenominator",
			"outputs": [
				{
					"internalType": "uint256",
					"name": "",
					"type": "uint256"
				}
			],
			"stateMutability": "view",
			"type": "function"
		},
		{
			"inputs": [
				{
					"internalType": "uint256",
					"name": "timepoint",
					"type": "uint256"
				}
			],
			"name": "quorumNumerator",
			"outputs": [
				{
					"internalType": "uint256",
					"name": "",
					"type": "uint256"
				}
			],
			"stateMutability": "view",
			"type": "function"
		},
		{
			"inputs": [],
			"name": "quorumNumerator",
			"outputs": [
				{
					"internalType": "uint256",
					"name": "",
					"type": "uint256"
				}
			],
			"stateMutability": "view",
			"type": "function"
		},
		{
			"inputs": [
				{
					"internalType": "address",
					"name": "target",
					"type": "address"
				},
				{
					"internalType": "uint256",
					"name": "value",
					"type": "uint256"
				},
				{
					"internalType": "bytes",
					"name": "data",
					"type": "bytes"
				}
			],
			"name": "relay",
			"outputs": [],
			"stateMutability": "payable",
			"type": "function"
		},
		{
			"inputs": [
				{
					"internalType": "uint256",
					"name": "newProposalThreshold",
					"type": "uint256"
				}
			],
			"name": "setProposalThreshold",
			"outputs": [],
			"stateMutability": "nonpayable",
			"type": "function"
		},
		{
			"inputs": [
				{
					"internalType": "uint48",
					"name": "newVotingDelay",
					"type": "uint48"
				}
			],
			"name": "setVotingDelay",
			"outputs": [],
			"stateMutability": "nonpayable",
			"type": "function"
		},
		{
			"inputs": [
				{
					"internalType": "uint32",
					"name": "newVotingPeriod",
					"type": "uint32"
				}
			],
			"name": "setVotingPeriod",
			"outputs": [],
			"stateMutability": "nonpayable",
			"type": "function"
		},
		{
			"inputs": [
				{
					"internalType": "uint256",
					"name": "proposalId",
					"type": "uint256"
				}
			],
			"name": "state",
			"outputs": [
				{
					"internalType": "enum IGovernor.ProposalState",
					"name": "",
					"type": "uint8"
				}
			],
			"stateMutability": "view",
			"type": "function"
		},
		{
			"inputs": [
				{
					"internalType": "bytes4",
					"name": "interfaceId",
					"type": "bytes4"
				}
			],
			"name": "supportsInterface",
			"outputs": [
				{
					"internalType": "bool",
					"name": "",
					"type": "bool"
				}
			],
			"stateMutability": "view",
			"type": "function"
		},
		{
			"inputs": [],
			"name": "timelock",
			"outputs": [
				{
					"internalType": "address",
					"name": "",
					"type": "address"
				}
			],
			"stateMutability": "view",
			"type": "function"
		},
		{
			"inputs": [],
			"name": "token",
			"outputs": [
				{
					"internalType": "contract IERC5805",
					"name": "",
					"type": "address"
				}
			],
			"stateMutability": "view",
			"type": "function"
		},
		{
			"inputs": [
				{
					"internalType": "uint256",
					"name": "newQuorumNumerator",
					"type": "uint256"
				}
			],
			"name": "updateQuorumNumerator",
			"outputs": [],
			"stateMutability": "nonpayable",
			"type": "function"
		},
		{
			"inputs": [
				{
					"internalType": "contract TimelockController",
					"name": "newTimelock",
					"type": "address"
				}
			],
			"name": "updateTimelock",
			"outputs": [],
			"stateMutability": "nonpayable",
			"type": "function"
		},
		{
			"inputs": [],
			"name": "version",
			"outputs": [
				{
					"internalType": "string",
					"name": "",
					"type": "string"
				}
			],
			"stateMutability": "view",
			"type": "function"
		},
		{
			"inputs": [],
			"name": "votingDelay",
			"outputs": [
				{
					"internalType": "uint256",
					"name": "",
					"type": "uint256"
				}
			],
			"stateMutability": "view",
			"type": "function"
		},
		{
			"inputs": [],
			"name": "votingPeriod",
			"outputs": [
				{
					"internalType": "uint256",
					"name": "",
					"type": "uint256"
				}
			],
			"stateMutability": "view",
			"type": "function"
		},
		{
			"stateMutability": "payable",
			"type": "receive"
		}
	]
}