{
	"data": {
		"bytecode": {
			"linkReferences": {},
			"object": "61018060405262278d00600b55348015610017575f80fd5b50604051617a52380380617a5283398181016040528101906100399190610aaa565b6004826040518060400160405280601481526020017f496e63656e746976697a6564476f7665726e6f720000000000000000000000008152508061008161020f60201b60201c565b6100945f8361024c60201b90919060201c565b61012081815250506100b060018261024c60201b90919060201c565b6101408181525050818051906020012060e08181525050808051906020012061010081815250504660a081815250506100ed61029960201b60201c565b608081815250503073ffffffffffffffffffffffffffffffffffffffff1660c08173ffffffffffffffffffffffffffffffffffffffff1681525050505080600390816101399190610d22565b50508073ffffffffffffffffffffffffffffffffffffffff166101608173ffffffffffffffffffffffffffffffffffffffff168152505050610180816102f360201b60201c565b508060095f6101000a81548173ffffffffffffffffffffffffffffffffffffffff021916908373ffffffffffffffffffffffffffffffffffffffff16021790555081600e5f6101000a81548173ffffffffffffffffffffffffffffffffffffffff021916908373ffffffffffffffffffffffffffffffffffffffff16021790555042600a81905550505061114a565b60606040518060400160405280600181526020017f3100000000000000000000000000000000000000000000000000000000000000815250905090565b5f60208351101561026d57610266836103cd60201b60201c565b9050610293565b8261027d8361043260201b60201c565b5f01908161028b9190610d22565b5060ff5f1b90505b92915050565b5f7f8b73c3c69bb8fe3d512ecc4cf759cc79239f7b179b0ffacaa9a75d522b39400f60e0516101005146306040516020016102d8959493929190610e27565b60405160208183030381529060405280519060200120905090565b5f61030261043b60201b60201c565b90508082111561034b5781816040517f243e5445000000000000000000000000000000000000000000000000000000008152600401610342929190610e78565b60405180910390fd5b5f61035a61044360201b60201c565b905061038d61036d61047560201b60201c565b61037c8561050c60201b60201c565b600861057960201b9092919060201c565b50507f0553476bf02ef2726e8ce5ced78d63e26e602e4a2257b1f559418e24b463399781846040516103c0929190610e78565b60405180910390a1505050565b5f80829050601f8151111561041957826040517f305a27a90000000000000000000000000000000000000000000000000000000081526004016104109190610f05565b60405180910390fd5b80518161042590610f52565b5f1c175f1b915050919050565b5f819050919050565b5f6064905090565b5f610454600861059a60201b60201c565b79ffffffffffffffffffffffffffffffffffffffffffffffffffff16905090565b5f61048461060260201b60201c565b73ffffffffffffffffffffffffffffffffffffffff166391ddadf46040518163ffffffff1660e01b8152600401602060405180830381865afa9250505080156104eb57506040513d601f19601f820116820180604052508101906104e89190610ff3565b60015b610504576104fd61060c60201b60201c565b9050610509565b809150505b90565b5f79ffffffffffffffffffffffffffffffffffffffffffffffffffff80168211156105715760d0826040517f6dfcc650000000000000000000000000000000000000000000000000000000008152600401610568929190611063565b60405180910390fd5b819050919050565b5f8061058e855f01858561062160201b60201c565b91509150935093915050565b5f80825f018054905090505f81146105f8576105ca835f016001836105bf91906110b7565b61099560201b60201c565b5f0160069054906101000a900479ffffffffffffffffffffffffffffffffffffffffffffffffffff166105fa565b5f5b915050919050565b5f61016051905090565b5f61061c436109a760201b60201c565b905090565b5f805f858054905090505f8111156108ad575f6106508760018461064591906110b7565b61099560201b60201c565b6040518060400160405290815f82015f9054906101000a900465ffffffffffff1665ffffffffffff1665ffffffffffff1681526020015f820160069054906101000a900479ffffffffffffffffffffffffffffffffffffffffffffffffffff1679ffffffffffffffffffffffffffffffffffffffffffffffffffff1679ffffffffffffffffffffffffffffffffffffffffffffffffffff168152505090508565ffffffffffff16815f015165ffffffffffff16111561073b576040517f2520601d00000000000000000000000000000000000000000000000000000000815260040160405180910390fd5b8565ffffffffffff16815f015165ffffffffffff16036107c357846107728860018561076791906110b7565b61099560201b60201c565b5f0160066101000a81548179ffffffffffffffffffffffffffffffffffffffffffffffffffff021916908379ffffffffffffffffffffffffffffffffffffffffffffffffffff16021790555061089c565b8660405180604001604052808865ffffffffffff1681526020018779ffffffffffffffffffffffffffffffffffffffffffffffffffff16815250908060018154018082558091505060019003905f5260205f20015f909190919091505f820151815f015f6101000a81548165ffffffffffff021916908365ffffffffffff1602179055506020820151815f0160066101000a81548179ffffffffffffffffffffffffffffffffffffffffffffffffffff021916908379ffffffffffffffffffffffffffffffffffffffffffffffffffff16021790555050505b80602001518593509350505061098d565b8560405180604001604052808765ffffffffffff1681526020018679ffffffffffffffffffffffffffffffffffffffffffffffffffff16815250908060018154018082558091505060019003905f5260205f20015f909190919091505f820151815f015f6101000a81548165ffffffffffff021916908365ffffffffffff1602179055506020820151815f0160066101000a81548179ffffffffffffffffffffffffffffffffffffffffffffffffffff021916908379ffffffffffffffffffffffffffffffffffffffffffffffffffff16021790555050505f8492509250505b935093915050565b5f825f528160205f2001905092915050565b5f65ffffffffffff80168211156109f8576030826040517f6dfcc6500000000000000000000000000000000000000000000000000000000081526004016109ef929190611123565b60405180910390fd5b819050919050565b5f80fd5b5f73ffffffffffffffffffffffffffffffffffffffff82169050919050565b5f610a2d82610a04565b9050919050565b5f610a3e82610a23565b9050919050565b610a4e81610a34565b8114610a58575f80fd5b50565b5f81519050610a6981610a45565b92915050565b5f610a7982610a23565b9050919050565b610a8981610a6f565b8114610a93575f80fd5b50565b5f81519050610aa481610a80565b92915050565b5f8060408385031215610ac057610abf610a00565b5b5f610acd85828601610a5b565b9250506020610ade85828601610a96565b9150509250929050565b5f81519050919050565b7f4e487b71000000000000000000000000000000000000000000000000000000005f52604160045260245ffd5b7f4e487b71000000000000000000000000000000000000000000000000000000005f52602260045260245ffd5b5f6002820490506001821680610b6357607f821691505b602082108103610b7657610b75610b1f565b5b50919050565b5f819050815f5260205f209050919050565b5f6020601f8301049050919050565b5f82821b905092915050565b5f60088302610bd87fffffffffffffffffffffffffffffffffffffffffffffffffffffffffffffffff82610b9d565b610be28683610b9d565b95508019841693508086168417925050509392505050565b5f819050919050565b5f819050919050565b5f610c26610c21610c1c84610bfa565b610c03565b610bfa565b9050919050565b5f819050919050565b610c3f83610c0c565b610c53610c4b82610c2d565b848454610ba9565b825550505050565b5f90565b610c67610c5b565b610c72818484610c36565b505050565b5b81811015610c9557610c8a5f82610c5f565b600181019050610c78565b5050565b601f821115610cda57610cab81610b7c565b610cb484610b8e565b81016020851015610cc3578190505b610cd7610ccf85610b8e565b830182610c77565b50505b505050565b5f82821c905092915050565b5f610cfa5f1984600802610cdf565b1980831691505092915050565b5f610d128383610ceb565b9150826002028217905092915050565b610d2b82610ae8565b67ffffffffffffffff811115610d4457610d43610af2565b5b610d4e8254610b4c565b610d59828285610c99565b5f60209050601f831160018114610d8a575f8415610d78578287015190505b610d828582610d07565b865550610de9565b601f198416610d9886610b7c565b5f5b82811015610dbf57848901518255600182019150602085019450602081019050610d9a565b86831015610ddc5784890151610dd8601f891682610ceb565b8355505b6001600288020188555050505b505050505050565b5f819050919050565b610e0381610df1565b82525050565b610e1281610bfa565b82525050565b610e2181610a23565b82525050565b5f60a082019050610e3a5f830188610dfa565b610e476020830187610dfa565b610e546040830186610dfa565b610e616060830185610e09565b610e6e6080830184610e18565b9695505050505050565b5f604082019050610e8b5f830185610e09565b610e986020830184610e09565b9392505050565b5f82825260208201905092915050565b8281835e5f83830152505050565b5f601f19601f8301169050919050565b5f610ed782610ae8565b610ee18185610e9f565b9350610ef1818560208601610eaf565b610efa81610ebd565b840191505092915050565b5f6020820190508181035f830152610f1d8184610ecd565b905092915050565b5f81519050919050565b5f819050602082019050919050565b5f610f498251610df1565b80915050919050565b5f610f5c82610f25565b82610f6684610f2f565b9050610f7181610f3e565b92506020821015610fb157610fac7fffffffffffffffffffffffffffffffffffffffffffffffffffffffffffffffff83602003600802610b9d565b831692505b5050919050565b5f65ffffffffffff82169050919050565b610fd281610fb8565b8114610fdc575f80fd5b50565b5f81519050610fed81610fc9565b92915050565b5f6020828403121561100857611007610a00565b5b5f61101584828501610fdf565b91505092915050565b5f819050919050565b5f60ff82169050919050565b5f61104d6110486110438461101e565b610c03565b611027565b9050919050565b61105d81611033565b82525050565b5f6040820190506110765f830185611054565b6110836020830184610e09565b9392505050565b7f4e487b71000000000000000000000000000000000000000000000000000000005f52601160045260245ffd5b5f6110c182610bfa565b91506110cc83610bfa565b92508282039050818111156110e4576110e361108a565b5b92915050565b5f819050919050565b5f61110d611108611103846110ea565b610c03565b611027565b9050919050565b61111d816110f3565b82525050565b5f6040820190506111365f830185611114565b6111436020830184610e09565b9392505050565b60805160a05160c05160e051610100516101205161014051610160516168ad6111a55f395f61257401525f6133f601525f6133bb01525f6142a901525f61428801525f61374a01525f6137a001525f6137c901526168ad5ff3fe608060405260043610610302575f3560e01c80637b3c71d31161018f578063bc197c81116100db578063dd4e2ba511610094578063ec1cc6951161006e578063ec1cc69514610cef578063f23a6e6114610d2b578063f8ce560a14610d67578063fc0c546a14610da357610375565b8063dd4e2ba514610c5f578063deaaa7cc14610c89578063eb9019d414610cb357610375565b8063bc197c8114610b4f578063bec4de3f14610b8b578063c01f9e3714610bb5578063c28bc2fa14610bf1578063c59057e414610c0d578063c7b8981c14610c4957610375565b80639231cf7411610148578063a7713a7011610122578063a7713a7014610a83578063a9a9529414610aad578063ab58fb8e14610ae9578063b58131b014610b2557610375565b80639231cf74146109f357806397c3d33414610a1d5780639a802a6d14610a4757610375565b80637b3c71d3146108a95780637d5e81e2146108e55780637ecebe001461092157806384b0196e1461095d5780638ff262e31461098d57806391ddadf4146109c957610375565b80633932abb11161024e57806354fd4d50116102075780635f398a14116101e15780635f398a14146107cd57806360c4247f146108095780636a326ab114610845578063709863e31461086d57610375565b806354fd4d501461072b57806356781388146107555780635b8d0e0d1461079157610375565b80633932abb1146105e55780633e4f49e61461060f578063438596321461064b578063452115d6146106875780634bf5d7e9146106c3578063544ffc9c146106ed57610375565b8063160cbed7116102bb5780632d63f693116102955780632d63f6931461053f5780632fe3e2611461057b5780633013ce29146105a5578063372500ab146105cf57610375565b8063160cbed7146104a957806318160ddd146104e55780632656227d1461050f57610375565b806301ffc9a71461037957806302a251a3146103b557806306f3f9e6146103df57806306fdde0314610407578063143489d014610431578063150b7a021461046d57610375565b36610375573073ffffffffffffffffffffffffffffffffffffffff16610326610dcd565b73ffffffffffffffffffffffffffffffffffffffff1614610373576040517fe90a651e00000000000000000000000000000000000000000000000000000000815260040160405180910390fd5b005b5f80fd5b348015610384575f80fd5b5061039f600480360381019061039a919061461a565b610dd4565b6040516103ac919061465f565b60405180910390f35b3480156103c0575f80fd5b506103c9610eb5565b6040516103d69190614690565b60405180910390f35b3480156103ea575f80fd5b50610405600480360381019061040091906146d3565b610ebf565b005b348015610412575f80fd5b5061041b610ed3565b604051610428919061476e565b60405180910390f35b34801561043c575f80fd5b50610457600480360381019061045291906146d3565b610f63565b60405161046491906147cd565b60405180910390f35b348015610478575f80fd5b50610493600480360381019061048e919061493c565b610f9e565b6040516104a091906149cb565b60405180910390f35b3480156104b4575f80fd5b506104cf60048036038101906104ca9190614c79565b61101d565b6040516104dc9190614690565b60405180910390f35b3480156104f0575f80fd5b506104f9611113565b6040516105069190614690565b60405180910390f35b61052960048036038101906105249190614c79565b6111be565b6040516105369190614690565b60405180910390f35b34801561054a575f80fd5b50610565600480360381019061056091906146d3565b611398565b6040516105729190614690565b60405180910390f35b348015610586575f80fd5b5061058f6113ce565b60405161059c9190614d40565b60405180910390f35b3480156105b0575f80fd5b506105b96113f2565b6040516105c69190614db4565b60405180910390f35b3480156105da575f80fd5b506105e3611417565b005b3480156105f0575f80fd5b506105f961159e565b6040516106069190614690565b60405180910390f35b34801561061a575f80fd5b50610635600480360381019061063091906146d3565b6115a8565b6040516106429190614e40565b60405180910390f35b348015610656575f80fd5b50610671600480360381019061066c9190614e59565b6116ff565b60405161067e919061465f565b60405180910390f35b348015610692575f80fd5b506106ad60048036038101906106a89190614c79565b611764565b6040516106ba9190614690565b60405180910390f35b3480156106ce575f80fd5b506106d7611824565b6040516106e4919061476e565b60405180910390f35b3480156106f8575f80fd5b50610713600480360381019061070e91906146d3565b6118e1565b60405161072293929190614e97565b60405180910390f35b348015610736575f80fd5b5061073f611914565b60405161074c919061476e565b60405180910390f35b348015610760575f80fd5b5061077b60048036038101906107769190614f02565b611951565b6040516107889190614690565b60405180910390f35b34801561079c575f80fd5b506107b760048036038101906107b29190614f99565b611980565b6040516107c49190614690565b60405180910390f35b3480156107d8575f80fd5b506107f360048036038101906107ee919061507b565b611aaf565b6040516108009190614690565b60405180910390f35b348015610814575f80fd5b5061082f600480360381019061082a91906146d3565b611b17565b60405161083c9190614690565b60405180910390f35b348015610850575f80fd5b5061086b60048036038101906108669190615156565b611c10565b005b348015610878575f80fd5b50610893600480360381019061088e9190615181565b611c5b565b6040516108a09190614690565b60405180910390f35b3480156108b4575f80fd5b506108cf60048036038101906108ca91906151ac565b611c70565b6040516108dc9190614690565b60405180910390f35b3480156108f0575f80fd5b5061090b600480360381019061090691906152bb565b611cd6565b6040516109189190614690565b60405180910390f35b34801561092c575f80fd5b5061094760048036038101906109429190615181565b611dc3565b6040516109549190614690565b60405180910390f35b348015610968575f80fd5b50610971611e09565b6040516109849796959493929190615480565b60405180910390f35b348015610998575f80fd5b506109b360048036038101906109ae9190615502565b611eae565b6040516109c09190614690565b60405180910390f35b3480156109d4575f80fd5b506109dd611f82565b6040516109ea91906155a2565b60405180910390f35b3480156109fe575f80fd5b50610a0761200d565b604051610a149190614690565b60405180910390f35b348015610a28575f80fd5b50610a31612013565b604051610a3e9190614690565b60405180910390f35b348015610a52575f80fd5b50610a6d6004803603810190610a6891906155bb565b61201b565b604051610a7a9190614690565b60405180910390f35b348015610a8e575f80fd5b50610a97612030565b604051610aa49190614690565b60405180910390f35b348015610ab8575f80fd5b50610ad36004803603810190610ace91906146d3565b61205c565b604051610ae0919061465f565b60405180910390f35b348015610af4575f80fd5b50610b0f6004803603810190610b0a91906146d3565b612062565b604051610b1c9190614690565b60405180910390f35b348015610b30575f80fd5b50610b39612098565b604051610b469190614690565b60405180910390f35b348015610b5a575f80fd5b50610b756004803603810190610b709190615627565b61209c565b604051610b8291906149cb565b60405180910390f35b348015610b96575f80fd5b50610b9f61211c565b604051610bac9190614690565b60405180910390f35b348015610bc0575f80fd5b50610bdb6004803603810190610bd691906146d3565b612122565b604051610be89190614690565b60405180910390f35b610c0b6004803603810190610c069190615747565b61218c565b005b348015610c18575f80fd5b50610c336004803603810190610c2e9190614c79565b612215565b604051610c409190614690565b60405180910390f35b348015610c54575f80fd5b50610c5d61224f565b005b348015610c6a575f80fd5b50610c736123b4565b604051610c80919061476e565b60405180910390f35b348015610c94575f80fd5b50610c9d6123f1565b604051610caa9190614d40565b60405180910390f35b348015610cbe575f80fd5b50610cd96004803603810190610cd491906157b8565b612415565b604051610ce69190614690565b60405180910390f35b348015610cfa575f80fd5b50610d156004803603810190610d109190615181565b612430565b604051610d229190614690565b60405180910390f35b348015610d36575f80fd5b50610d516004803603810190610d4c91906157f6565b612445565b604051610d5e91906149cb565b60405180910390f35b348015610d72575f80fd5b50610d8d6004803603810190610d8891906146d3565b6124c5565b604051610d9a9190614690565b60405180910390f35b348015610dae575f80fd5b50610db7612571565b604051610dc491906158a9565b60405180910390f35b5f30905090565b5f7f65455a86000000000000000000000000000000000000000000000000000000007bffffffffffffffffffffffffffffffffffffffffffffffffffffffff1916827bffffffffffffffffffffffffffffffffffffffffffffffffffffffff19161480610e9e57507f4e2312e0000000000000000000000000000000000000000000000000000000007bffffffffffffffffffffffffffffffffffffffffffffffffffffffff1916827bffffffffffffffffffffffffffffffffffffffffffffffffffffffff1916145b80610eae5750610ead82612598565b5b9050919050565b5f62093a80905090565b610ec7612601565b610ed0816126f6565b50565b606060038054610ee2906158ef565b80601f0160208091040260200160405190810160405280929190818152602001828054610f0e906158ef565b8015610f595780601f10610f3057610100808354040283529160200191610f59565b820191905f5260205f20905b815481529060010190602001808311610f3c57829003601f168201915b5050505050905090565b5f60045f8381526020019081526020015f205f015f9054906101000a900473ffffffffffffffffffffffffffffffffffffffff169050919050565b5f3073ffffffffffffffffffffffffffffffffffffffff16610fbe610dcd565b73ffffffffffffffffffffffffffffffffffffffff161461100b576040517fe90a651e00000000000000000000000000000000000000000000000000000000815260040160405180910390fd5b63150b7a0260e01b9050949350505050565b5f8061102b86868686612215565b90506110408161103b60046127b8565b6127dc565b505f61104f8288888888612847565b90505f8165ffffffffffff16146110d4578060045f8481526020019081526020015f206001015f6101000a81548165ffffffffffff021916908365ffffffffffff1602179055507f9a2e42fd6722813d69113e7d0079d3d940171428df7373df9c7f7617cfda289282826040516110c792919061594f565b60405180910390a1611106565b6040517f90884a4600000000000000000000000000000000000000000000000000000000815260040160405180910390fd5b8192505050949350505050565b5f600e5f9054906101000a900473ffffffffffffffffffffffffffffffffffffffff1673ffffffffffffffffffffffffffffffffffffffff16638e539e8c60014361115e91906159a3565b6040518263ffffffff1660e01b815260040161117a9190614690565b602060405180830381865afa158015611195573d5f803e3d5ffd5b505050506040513d601f19601f820116820180604052508101906111b991906159ea565b905090565b5f806111cc86868686612215565b90506111ec816111dc60056127b8565b6111e660046127b8565b176127dc565b50600160045f8381526020019081526020015f205f01601e6101000a81548160ff0219169083151502179055503073ffffffffffffffffffffffffffffffffffffffff16611238610dcd565b73ffffffffffffffffffffffffffffffffffffffff16146112ee575f5b86518110156112ec573073ffffffffffffffffffffffffffffffffffffffff1687828151811061128857611287615a15565b5b602002602001015173ffffffffffffffffffffffffffffffffffffffff16036112e1576112e08582815181106112c1576112c0615a15565b5b602002602001015180519060200120600561285190919063ffffffff16565b5b806001019050611255565b505b6112fb8187878787612970565b3073ffffffffffffffffffffffffffffffffffffffff1661131a610dcd565b73ffffffffffffffffffffffffffffffffffffffff161415801561134557506113436005612a55565b155b15611355576113546005612ac1565b5b7f712ae1383f79ac853f8d882153778e0260ef8f03b504e2866e0593e04d2b291f816040516113849190614690565b60405180910390a180915050949350505050565b5f60045f8381526020019081526020015f205f0160149054906101000a900465ffffffffffff1665ffffffffffff169050919050565b7f3e83946653575f9a39005e1545185629e92736b7528ab20ca3816f315424a81181565b60095f9054906101000a900473ffffffffffffffffffffffffffffffffffffffff1681565b600b54600a546114279190615a42565b421015611469576040517f08c379a000000000000000000000000000000000000000000000000000000000815260040161146090615ae5565b60405180910390fd5b5f6114803360014361147b91906159a3565b612415565b90505f60095f9054906101000a900473ffffffffffffffffffffffffffffffffffffffff1673ffffffffffffffffffffffffffffffffffffffff166370a08231306040518263ffffffff1660e01b81526004016114dd91906147cd565b602060405180830381865afa1580156114f8573d5f803e3d5ffd5b505050506040513d601f19601f8201168201806040525081019061151c91906159ea565b90505f611527611113565b82846115339190615b03565b61153d9190615b71565b905080600c5f3373ffffffffffffffffffffffffffffffffffffffff1673ffffffffffffffffffffffffffffffffffffffff1681526020019081526020015f205f82825461158b9190615a42565b9250508190555042600a81905550505050565b5f62015180905090565b5f8060045f8481526020019081526020015f2090505f815f01601e9054906101000a900460ff1690505f825f01601f9054906101000a900460ff16905081156115f757600793505050506116fa565b801561160957600293505050506116fa565b5f61161386611398565b90505f810361165957856040517f6ad060750000000000000000000000000000000000000000000000000000000081526004016116509190614690565b60405180910390fd5b5f611662611f82565b65ffffffffffff169050808210611680575f955050505050506116fa565b5f61168a88612122565b90508181106116a257600196505050505050506116fa565b6116ab88612b37565b15806116bd57506116bb88612b7b565b155b156116d157600396505050505050506116fa565b5f6116db89612062565b036116ef57600496505050505050506116fa565b600596505050505050505b919050565b5f60075f8481526020019081526020015f206003015f8373ffffffffffffffffffffffffffffffffffffffff1673ffffffffffffffffffffffffffffffffffffffff1681526020019081526020015f205f9054906101000a900460ff16905092915050565b5f8061177286868686612215565b9050611786816117815f6127b8565b6127dc565b5061179081610f63565b73ffffffffffffffffffffffffffffffffffffffff166117ae612ba2565b73ffffffffffffffffffffffffffffffffffffffff161461180d576117d1612ba2565b6040517f233d98e300000000000000000000000000000000000000000000000000000000815260040161180491906147cd565b60405180910390fd5b61181986868686612ba9565b915050949350505050565b606061182e612571565b73ffffffffffffffffffffffffffffffffffffffff16634bf5d7e96040518163ffffffff1660e01b81526004015f60405180830381865afa92505050801561189857506040513d5f823e3d601f19601f820116820180604052508101906118959190615c0f565b60015b6118d9576040518060400160405280601d81526020017f6d6f64653d626c6f636b6e756d6265722666726f6d3d64656661756c7400000081525090506118de565b809150505b90565b5f805f8060075f8681526020019081526020015f209050805f015481600101548260020154935093509350509193909250565b60606040518060400160405280600181526020017f3100000000000000000000000000000000000000000000000000000000000000815250905090565b5f8061195b612ba2565b905061197784828560405180602001604052805f815250612c8b565b91505092915050565b5f80611a0d87611a077f3e83946653575f9a39005e1545185629e92736b7528ab20ca3816f315424a8118c8c8c6119b68e612caa565b8d8d6040516119c6929190615c84565b60405180910390208c805190602001206040516020016119ec9796959493929190615cab565b60405160208183030381529060405280519060200120612cfd565b85612d16565b905080611a5157866040517f94ab6c07000000000000000000000000000000000000000000000000000000008152600401611a4891906147cd565b60405180910390fd5b611aa189888a89898080601f0160208091040260200160405190810160405280939291908181526020018383808284375f81840152601f19601f8201169050808301925050505050505088612da3565b915050979650505050505050565b5f80611ab9612ba2565b9050611b0b87828888888080601f0160208091040260200160405190810160405280939291908181526020018383808284375f81840152601f19601f8201169050808301925050505050505087612da3565b91505095945050505050565b5f8060085f018054905090505f60085f01600183611b3591906159a3565b81548110611b4657611b45615a15565b5b905f5260205f200190505f815f015f9054906101000a900465ffffffffffff1690505f825f0160069054906101000a900479ffffffffffffffffffffffffffffffffffffffffffffffffffff169050858265ffffffffffff1611611bcc578079ffffffffffffffffffffffffffffffffffffffffffffffffffff16945050505050611c0b565b611be8611bd887612ea0565b6008612ef990919063ffffffff16565b79ffffffffffffffffffffffffffffffffffffffffffffffffffff169450505050505b919050565b611c18612601565b8060095f6101000a81548173ffffffffffffffffffffffffffffffffffffffff021916908373ffffffffffffffffffffffffffffffffffffffff16021790555050565b600d602052805f5260405f205f915090505481565b5f80611c7a612ba2565b9050611ccb86828787878080601f0160208091040260200160405190810160405280939291908181526020018383808284375f81840152601f19601f82011690508083019250505050505050612c8b565b915050949350505050565b5f80611ce0612ba2565b9050611cec8184612fe6565b611d2d57806040517fd9b39557000000000000000000000000000000000000000000000000000000008152600401611d2491906147cd565b60405180910390fd5b5f611d53826001611d3c611f82565b611d469190615d18565b65ffffffffffff16612415565b90505f611d5e612098565b905080821015611da9578282826040517fc242ee16000000000000000000000000000000000000000000000000000000008152600401611da093929190615d51565b60405180910390fd5b611db6888888888761312e565b9350505050949350505050565b5f60025f8373ffffffffffffffffffffffffffffffffffffffff1673ffffffffffffffffffffffffffffffffffffffff1681526020019081526020015f20549050919050565b5f6060805f805f6060611e1a6133b3565b611e226133ed565b46305f801b5f67ffffffffffffffff811115611e4157611e40614818565b5b604051908082528060200260200182016040528015611e6f5781602001602082028036833780820191505090505b507f0f00000000000000000000000000000000000000000000000000000000000000959493929190965096509650965096509650965090919293949596565b5f80611f1984611f137ff2aad550cf55f045cb27e9c559f9889fdfb6e6cdaa032301d6ea397784ae51d7898989611ee48b612caa565b604051602001611ef8959493929190615d86565b60405160208183030381529060405280519060200120612cfd565b85612d16565b905080611f5d57836040517f94ab6c07000000000000000000000000000000000000000000000000000000008152600401611f5491906147cd565b60405180910390fd5b611f7786858760405180602001604052805f815250612c8b565b915050949350505050565b5f611f8b612571565b73ffffffffffffffffffffffffffffffffffffffff166391ddadf46040518163ffffffff1660e01b8152600401602060405180830381865afa925050508015611ff257506040513d601f19601f82011682018060405250810190611fef9190615e01565b60015b61200557611ffe613428565b905061200a565b809150505b90565b600a5481565b5f6064905090565b5f612027848484613437565b90509392505050565b5f61203b60086134c2565b79ffffffffffffffffffffffffffffffffffffffffffffffffffff16905090565b5f919050565b5f60045f8381526020019081526020015f206001015f9054906101000a900465ffffffffffff1665ffffffffffff169050919050565b5f90565b5f3073ffffffffffffffffffffffffffffffffffffffff166120bc610dcd565b73ffffffffffffffffffffffffffffffffffffffff1614612109576040517fe90a651e00000000000000000000000000000000000000000000000000000000815260040160405180910390fd5b63bc197c8160e01b905095945050505050565b600b5481565b5f60045f8381526020019081526020015f205f01601a9054906101000a900463ffffffff1663ffffffff1660045f8481526020019081526020015f205f0160149054906101000a900465ffffffffffff1661217d9190615e2c565b65ffffffffffff169050919050565b612194612601565b5f808573ffffffffffffffffffffffffffffffffffffffff168585856040516121be929190615c84565b5f6040518083038185875af1925050503d805f81146121f8576040519150601f19603f3d011682016040523d82523d5f602084013e6121fd565b606091505b509150915061220c8282613524565b50505050505050565b5f8484848460405160200161222d9493929190616029565b604051602081830303815290604052805190602001205f1c9050949350505050565b5f600c5f3373ffffffffffffffffffffffffffffffffffffffff1673ffffffffffffffffffffffffffffffffffffffff1681526020019081526020015f205490505f81116122d2576040517f08c379a00000000000000000000000000000000000000000000000000000000081526004016122c9906160cb565b60405180910390fd5b5f600c5f3373ffffffffffffffffffffffffffffffffffffffff1673ffffffffffffffffffffffffffffffffffffffff1681526020019081526020015f208190555060095f9054906101000a900473ffffffffffffffffffffffffffffffffffffffff1673ffffffffffffffffffffffffffffffffffffffff1663a9059cbb33836040518363ffffffff1660e01b81526004016123709291906160e9565b6020604051808303815f875af115801561238c573d5f803e3d5ffd5b505050506040513d601f19601f820116820180604052508101906123b0919061613a565b5050565b60606040518060400160405280602081526020017f737570706f72743d627261766f2671756f72756d3d666f722c6162737461696e815250905090565b7ff2aad550cf55f045cb27e9c559f9889fdfb6e6cdaa032301d6ea397784ae51d781565b5f6124288383612423613548565b613437565b905092915050565b600c602052805f5260405f205f915090505481565b5f3073ffffffffffffffffffffffffffffffffffffffff16612465610dcd565b73ffffffffffffffffffffffffffffffffffffffff16146124b2576040517fe90a651e00000000000000000000000000000000000000000000000000000000815260040160405180910390fd5b63f23a6e6160e01b905095945050505050565b5f6124ce612013565b6124d783611b17565b6124df612571565b73ffffffffffffffffffffffffffffffffffffffff16638e539e8c856040518263ffffffff1660e01b81526004016125179190614690565b602060405180830381865afa158015612532573d5f803e3d5ffd5b505050506040513d601f19601f8201168201806040525081019061255691906159ea565b6125609190615b03565b61256a9190615b71565b9050919050565b5f7f0000000000000000000000000000000000000000000000000000000000000000905090565b5f7f01ffc9a7000000000000000000000000000000000000000000000000000000007bffffffffffffffffffffffffffffffffffffffffffffffffffffffff1916827bffffffffffffffffffffffffffffffffffffffffffffffffffffffff1916149050919050565b612609612ba2565b73ffffffffffffffffffffffffffffffffffffffff16612627610dcd565b73ffffffffffffffffffffffffffffffffffffffff16146126865761264a612ba2565b6040517f47096e4700000000000000000000000000000000000000000000000000000000815260040161267d91906147cd565b60405180910390fd5b3073ffffffffffffffffffffffffffffffffffffffff166126a5610dcd565b73ffffffffffffffffffffffffffffffffffffffff16146126f4575f6126c961355e565b6040516126d7929190615c84565b604051809103902090505b806126ed600561356a565b036126e257505b565b5f6126ff612013565b9050808211156127485781816040517f243e544500000000000000000000000000000000000000000000000000000000815260040161273f929190616165565b60405180910390fd5b5f612751612030565b905061277861275e611f82565b612767856136bf565b600861372c9092919063ffffffff16565b50507f0553476bf02ef2726e8ce5ced78d63e26e602e4a2257b1f559418e24b463399781846040516127ab929190616165565b60405180910390a1505050565b5f8160078111156127cc576127cb614dcd565b5b60ff166001901b5f1b9050919050565b5f806127e7846115a8565b90505f801b836127f6836127b8565b160361283d578381846040517f31b75e4d0000000000000000000000000000000000000000000000000000000081526004016128349392919061618c565b60405180910390fd5b8091505092915050565b5f95945050505050565b5f825f0160109054906101000a90046fffffffffffffffffffffffffffffffff169050825f015f9054906101000a90046fffffffffffffffffffffffffffffffff166fffffffffffffffffffffffffffffffff16600182016fffffffffffffffffffffffffffffffff16036128f2576040517f8acb5f2700000000000000000000000000000000000000000000000000000000815260040160405180910390fd5b81836001015f836fffffffffffffffffffffffffffffffff166fffffffffffffffffffffffffffffffff1681526020019081526020015f208190555060018101835f0160106101000a8154816fffffffffffffffffffffffffffffffff02191690836fffffffffffffffffffffffffffffffff160217905550505050565b5f5b8451811015612a4d575f808683815181106129905761298f615a15565b5b602002602001015173ffffffffffffffffffffffffffffffffffffffff168684815181106129c1576129c0615a15565b5b60200260200101518685815181106129dc576129db615a15565b5b60200260200101516040516129f191906161f1565b5f6040518083038185875af1925050503d805f8114612a2b576040519150601f19603f3d011682016040523d82523d5f602084013e612a30565b606091505b5091509150612a3f8282613524565b505050806001019050612972565b505050505050565b5f815f015f9054906101000a90046fffffffffffffffffffffffffffffffff166fffffffffffffffffffffffffffffffff16825f0160109054906101000a90046fffffffffffffffffffffffffffffffff166fffffffffffffffffffffffffffffffff16149050919050565b5f815f015f6101000a8154816fffffffffffffffffffffffffffffffff02191690836fffffffffffffffffffffffffffffffff1602179055505f815f0160106101000a8154816fffffffffffffffffffffffffffffffff02191690836fffffffffffffffffffffffffffffffff16021790555050565b5f8060075f8481526020019081526020015f20905080600201548160010154612b609190615a42565b612b71612b6c85611398565b6124c5565b1115915050919050565b5f8060075f8481526020019081526020015f209050805f0154816001015411915050919050565b5f33905090565b5f80612bb786868686612215565b9050612c1b81612bc760076127b8565b612bd160066127b8565b612bdb60026127b8565b600180600780811115612bf157612bf0614dcd565b5b612bfb9190616207565b6002612c07919061636a565b612c1191906159a3565b5f1b1818186127dc565b50600160045f8381526020019081526020015f205f01601f6101000a81548160ff0219169083151502179055507f789cf55be980739dad1d0699b93b58e806b51c9d96619bfa8fe0a28abaa7b30c81604051612c779190614690565b60405180910390a180915050949350505050565b5f612ca085858585612c9b613548565b612da3565b9050949350505050565b5f60025f8373ffffffffffffffffffffffffffffffffffffffff1673ffffffffffffffffffffffffffffffffffffffff1681526020019081526020015f205f815480929190600101919050559050919050565b5f612d0f612d09613747565b836137fd565b9050919050565b5f805f612d23858561383d565b50915091505f6003811115612d3b57612d3a614dcd565b5b816003811115612d4e57612d4d614dcd565b5b148015612d8657508573ffffffffffffffffffffffffffffffffffffffff168273ffffffffffffffffffffffffffffffffffffffff16145b80612d985750612d97868686613892565b5b925050509392505050565b5f612db786612db260016127b8565b6127dc565b505f612dcc86612dc689611398565b85613437565b9050612ddb87878784876139b1565b5f835103612e3c578573ffffffffffffffffffffffffffffffffffffffff167fb8e138887d0aa13bab447e82de9d5c1777041ecd21ca36ba824ff1e6c07ddda488878488604051612e2f94939291906163b4565b60405180910390a2612e93565b8573ffffffffffffffffffffffffffffffffffffffff167fe2babfbac5889a709b63bb7f598b324e08bc5a4fb9ec647fb3cbc9ec07eb87128887848888604051612e8a959493929190616446565b60405180910390a25b8091505095945050505050565b5f65ffffffffffff8016821115612ef1576030826040517f6dfcc650000000000000000000000000000000000000000000000000000000008152600401612ee89291906164de565b60405180910390fd5b819050919050565b5f80835f018054905090505f808290506005831115612f7a575f612f1c84613ba0565b84612f2791906159a3565b9050612f35875f0182613c96565b5f015f9054906101000a900465ffffffffffff1665ffffffffffff168665ffffffffffff161015612f6857809150612f78565b600181612f759190615a42565b92505b505b5f612f89875f01878585613ca8565b90505f8114612fd857612faa875f01600183612fa591906159a3565b613c96565b5f0160069054906101000a900479ffffffffffffffffffffffffffffffffffffffffffffffffffff16612fda565b5f5b94505050505092915050565b5f80825190506034811015612fff576001915050613128565b5f6014820384015190507f2370726f706f7365723d3078000000000000000000000000000000000000000073ffffffffffffffffffffffffffffffffffffffff19168173ffffffffffffffffffffffffffffffffffffffff19161461306957600192505050613128565b5f8060288461307891906159a3565b90505b838110156130f2575f806130ab88848151811061309b5761309a615a15565b5b602001015160f81c60f81b613d1d565b91509150816130c35760019650505050505050613128565b8060ff1660048573ffffffffffffffffffffffffffffffffffffffff16901b179350505080600101905061307b565b508573ffffffffffffffffffffffffffffffffffffffff168173ffffffffffffffffffffffffffffffffffffffff161493505050505b92915050565b5f6131428686868680519060200120612215565b90508451865114158061315757508351865114155b8061316257505f8651145b156131ab578551845186516040517f447b05d00000000000000000000000000000000000000000000000000000000081526004016131a293929190614e97565b60405180910390fd5b5f60045f8381526020019081526020015f205f0160149054906101000a900465ffffffffffff1665ffffffffffff161461322a57806131e9826115a8565b5f801b6040517f31b75e4d0000000000000000000000000000000000000000000000000000000081526004016132219392919061618c565b60405180910390fd5b5f61323361159e565b61323b611f82565b65ffffffffffff1661324d9190615a42565b90505f613258610eb5565b90505f60045f8581526020019081526020015f20905084815f015f6101000a81548173ffffffffffffffffffffffffffffffffffffffff021916908373ffffffffffffffffffffffffffffffffffffffff1602179055506132b883612ea0565b815f0160146101000a81548165ffffffffffff021916908365ffffffffffff1602179055506132e682613db4565b815f01601a6101000a81548163ffffffff021916908363ffffffff1602179055507f7d84a6263ae0d98d3329bd7b46bb4e8d6f98cd35a7adb45c274c8b7fd5ebd5e084868b8b8d5167ffffffffffffffff81111561334757613346614818565b5b60405190808252806020026020018201604052801561337a57816020015b60608152602001906001900390816133655790505b508c89898b6133899190615a42565b8e60405161339f99989796959493929190616608565b60405180910390a150505095945050505050565b60606133e85f7f0000000000000000000000000000000000000000000000000000000000000000613e0b90919063ffffffff16565b905090565b606061342360017f0000000000000000000000000000000000000000000000000000000000000000613e0b90919063ffffffff16565b905090565b5f61343243612ea0565b905090565b5f613440612571565b73ffffffffffffffffffffffffffffffffffffffff16633a46b1a885856040518363ffffffff1660e01b815260040161347a9291906160e9565b602060405180830381865afa158015613495573d5f803e3d5ffd5b505050506040513d601f19601f820116820180604052508101906134b991906159ea565b90509392505050565b5f80825f018054905090505f811461351a576134ec835f016001836134e791906159a3565b613c96565b5f0160069054906101000a900479ffffffffffffffffffffffffffffffffffffffffffffffffffff1661351c565b5f5b915050919050565b6060826135395761353482613eb8565b613541565b819050613542565b5b92915050565b606060405180602001604052805f815250905090565b365f8036915091509091565b5f80825f015f9054906101000a90046fffffffffffffffffffffffffffffffff169050825f0160109054906101000a90046fffffffffffffffffffffffffffffffff166fffffffffffffffffffffffffffffffff16816fffffffffffffffffffffffffffffffff1603613609576040517f75e52f4f00000000000000000000000000000000000000000000000000000000815260040160405180910390fd5b826001015f826fffffffffffffffffffffffffffffffff166fffffffffffffffffffffffffffffffff1681526020019081526020015f20549150826001015f826fffffffffffffffffffffffffffffffff166fffffffffffffffffffffffffffffffff1681526020019081526020015f205f905560018101835f015f6101000a8154816fffffffffffffffffffffffffffffffff02191690836fffffffffffffffffffffffffffffffff16021790555050919050565b5f79ffffffffffffffffffffffffffffffffffffffffffffffffffff80168211156137245760d0826040517f6dfcc65000000000000000000000000000000000000000000000000000000000815260040161371b9291906166ef565b60405180910390fd5b819050919050565b5f8061373b855f018585613efc565b91509150935093915050565b5f7f000000000000000000000000000000000000000000000000000000000000000073ffffffffffffffffffffffffffffffffffffffff163073ffffffffffffffffffffffffffffffffffffffff161480156137c257507f000000000000000000000000000000000000000000000000000000000000000046145b156137ef577f000000000000000000000000000000000000000000000000000000000000000090506137fa565b6137f7614264565b90505b90565b5f6040517f190100000000000000000000000000000000000000000000000000000000000081528360028201528260228201526042812091505092915050565b5f805f604184510361387d575f805f602087015192506040870151915060608701515f1a905061386f888285856142f9565b95509550955050505061388b565b5f600285515f1b9250925092505b9250925092565b5f805f8573ffffffffffffffffffffffffffffffffffffffff1685856040516024016138bf929190616716565b604051602081830303815290604052631626ba7e60e01b6020820180517bffffffffffffffffffffffffffffffffffffffffffffffffffffffff838183161783525050505060405161391191906161f1565b5f60405180830381855afa9150503d805f8114613949576040519150601f19603f3d011682016040523d82523d5f602084013e61394e565b606091505b509150915081801561396257506020815110155b80156139a65750631626ba7e60e01b7bffffffffffffffffffffffffffffffffffffffffffffffffffffffff1916818060200190518101906139a49190616758565b145b925050509392505050565b5f60075f8781526020019081526020015f209050806003015f8673ffffffffffffffffffffffffffffffffffffffff1673ffffffffffffffffffffffffffffffffffffffff1681526020019081526020015f205f9054906101000a900460ff1615613a5357846040517f71c6af49000000000000000000000000000000000000000000000000000000008152600401613a4a91906147cd565b60405180910390fd5b6001816003015f8773ffffffffffffffffffffffffffffffffffffffff1673ffffffffffffffffffffffffffffffffffffffff1681526020019081526020015f205f6101000a81548160ff0219169083151502179055505f6002811115613abd57613abc614dcd565b5b60ff168460ff1603613ae75782815f015f828254613adb9190615a42565b92505081905550613b98565b60016002811115613afb57613afa614dcd565b5b60ff168460ff1603613b265782816001015f828254613b1a9190615a42565b92505081905550613b97565b600280811115613b3957613b38614dcd565b5b60ff168460ff1603613b645782816002015f828254613b589190615a42565b92505081905550613b96565b6040517f06b337c200000000000000000000000000000000000000000000000000000000815260040160405180910390fd5b5b5b505050505050565b5f808203613bb0575f9050613c91565b5f6001613bbc846143e0565b901c6001901b90506001818481613bd657613bd5615b44565b5b048201901c90506001818481613bef57613bee615b44565b5b048201901c90506001818481613c0857613c07615b44565b5b048201901c90506001818481613c2157613c20615b44565b5b048201901c90506001818481613c3a57613c39615b44565b5b048201901c90506001818481613c5357613c52615b44565b5b048201901c90506001818481613c6c57613c6b615b44565b5b048201901c9050613c8d81828581613c8757613c86615b44565b5b046144b7565b9150505b919050565b5f825f528160205f2001905092915050565b5f5b81831015613d12575f613cbd84846144cf565b90508465ffffffffffff16613cd28783613c96565b5f015f9054906101000a900465ffffffffffff1665ffffffffffff161115613cfc57809250613d0c565b600181613d099190615a42565b93505b50613caa565b819050949350505050565b5f805f8360f81c90508060ff16602f108015613d3c5750603a8160ff16105b15613d51576001603082039250925050613daf565b8060ff166040108015613d67575060478160ff16105b15613d7c576001603782039250925050613daf565b8060ff166060108015613d92575060678160ff16105b15613da7576001605782039250925050613daf565b5f8092509250505b915091565b5f63ffffffff8016821115613e03576020826040517f6dfcc650000000000000000000000000000000000000000000000000000000008152600401613dfa9291906167bc565b60405180910390fd5b819050919050565b606060ff5f1b8314613e2757613e20836144f4565b9050613eb2565b818054613e33906158ef565b80601f0160208091040260200160405190810160405280929190818152602001828054613e5f906158ef565b8015613eaa5780601f10613e8157610100808354040283529160200191613eaa565b820191905f5260205f20905b815481529060010190602001808311613e8d57829003601f168201915b505050505090505b92915050565b5f81511115613eca5780518082602001fd5b6040517f1425ea4200000000000000000000000000000000000000000000000000000000815260040160405180910390fd5b5f805f858054905090505f81111561417c575f613f2587600184613f2091906159a3565b613c96565b6040518060400160405290815f82015f9054906101000a900465ffffffffffff1665ffffffffffff1665ffffffffffff1681526020015f820160069054906101000a900479ffffffffffffffffffffffffffffffffffffffffffffffffffff1679ffffffffffffffffffffffffffffffffffffffffffffffffffff1679ffffffffffffffffffffffffffffffffffffffffffffffffffff168152505090508565ffffffffffff16815f015165ffffffffffff161115614010576040517f2520601d00000000000000000000000000000000000000000000000000000000815260040160405180910390fd5b8565ffffffffffff16815f015165ffffffffffff160361409257846140418860018561403c91906159a3565b613c96565b5f0160066101000a81548179ffffffffffffffffffffffffffffffffffffffffffffffffffff021916908379ffffffffffffffffffffffffffffffffffffffffffffffffffff16021790555061416b565b8660405180604001604052808865ffffffffffff1681526020018779ffffffffffffffffffffffffffffffffffffffffffffffffffff16815250908060018154018082558091505060019003905f5260205f20015f909190919091505f820151815f015f6101000a81548165ffffffffffff021916908365ffffffffffff1602179055506020820151815f0160066101000a81548179ffffffffffffffffffffffffffffffffffffffffffffffffffff021916908379ffffffffffffffffffffffffffffffffffffffffffffffffffff16021790555050505b80602001518593509350505061425c565b8560405180604001604052808765ffffffffffff1681526020018679ffffffffffffffffffffffffffffffffffffffffffffffffffff16815250908060018154018082558091505060019003905f5260205f20015f909190919091505f820151815f015f6101000a81548165ffffffffffff021916908365ffffffffffff1602179055506020820151815f0160066101000a81548179ffffffffffffffffffffffffffffffffffffffffffffffffffff021916908379ffffffffffffffffffffffffffffffffffffffffffffffffffff16021790555050505f8492509250505b935093915050565b5f7f8b73c3c69bb8fe3d512ecc4cf759cc79239f7b179b0ffacaa9a75d522b39400f7f00000000000000000000000000000000000000000000000000000000000000007f000000000000000000000000000000000000000000000000000000000000000046306040516020016142de9594939291906167e3565b60405160208183030381529060405280519060200120905090565b5f805f7f7fffffffffffffffffffffffffffffff5d576e7357a4501ddfe92f46681b20a0845f1c1115614335575f6003859250925092506143d6565b5f6001888888886040515f81526020016040526040516143589493929190616834565b6020604051602081039080840390855afa158015614378573d5f803e3d5ffd5b5050506020604051035190505f73ffffffffffffffffffffffffffffffffffffffff168173ffffffffffffffffffffffffffffffffffffffff16036143c9575f60015f801b935093509350506143d6565b805f805f1b935093509350505b9450945094915050565b5f805f90505f608084901c11156143ff57608083901c92506080810190505b5f604084901c111561441957604083901c92506040810190505b5f602084901c111561443357602083901c92506020810190505b5f601084901c111561444d57601083901c92506010810190505b5f600884901c111561446757600883901c92506008810190505b5f600484901c111561448157600483901c92506004810190505b5f600284901c111561449b57600283901c92506002810190505b5f600184901c11156144ae576001810190505b80915050919050565b5f8183106144c557816144c7565b825b905092915050565b5f60028284186144df9190615b71565b8284166144ec9190615a42565b905092915050565b60605f61450083614566565b90505f602067ffffffffffffffff81111561451e5761451d614818565b5b6040519080825280601f01601f1916602001820160405280156145505781602001600182028036833780820191505090505b5090508181528360208201528092505050919050565b5f8060ff835f1c169050601f8111156145ab576040517fb3512b0c00000000000000000000000000000000000000000000000000000000815260040160405180910390fd5b80915050919050565b5f604051905090565b5f80fd5b5f80fd5b5f7fffffffff0000000000000000000000000000000000000000000000000000000082169050919050565b6145f9816145c5565b8114614603575f80fd5b50565b5f81359050614614816145f0565b92915050565b5f6020828403121561462f5761462e6145bd565b5b5f61463c84828501614606565b91505092915050565b5f8115159050919050565b61465981614645565b82525050565b5f6020820190506146725f830184614650565b92915050565b5f819050919050565b61468a81614678565b82525050565b5f6020820190506146a35f830184614681565b92915050565b6146b281614678565b81146146bc575f80fd5b50565b5f813590506146cd816146a9565b92915050565b5f602082840312156146e8576146e76145bd565b5b5f6146f5848285016146bf565b91505092915050565b5f81519050919050565b5f82825260208201905092915050565b8281835e5f83830152505050565b5f601f19601f8301169050919050565b5f614740826146fe565b61474a8185614708565b935061475a818560208601614718565b61476381614726565b840191505092915050565b5f6020820190508181035f8301526147868184614736565b905092915050565b5f73ffffffffffffffffffffffffffffffffffffffff82169050919050565b5f6147b78261478e565b9050919050565b6147c7816147ad565b82525050565b5f6020820190506147e05f8301846147be565b92915050565b6147ef816147ad565b81146147f9575f80fd5b50565b5f8135905061480a816147e6565b92915050565b5f80fd5b5f80fd5b7f4e487b71000000000000000000000000000000000000000000000000000000005f52604160045260245ffd5b61484e82614726565b810181811067ffffffffffffffff8211171561486d5761486c614818565b5b80604052505050565b5f61487f6145b4565b905061488b8282614845565b919050565b5f67ffffffffffffffff8211156148aa576148a9614818565b5b6148b382614726565b9050602081019050919050565b828183375f83830152505050565b5f6148e06148db84614890565b614876565b9050828152602081018484840111156148fc576148fb614814565b5b6149078482856148c0565b509392505050565b5f82601f83011261492357614922614810565b5b81356149338482602086016148ce565b91505092915050565b5f805f8060808587031215614954576149536145bd565b5b5f614961878288016147fc565b9450506020614972878288016147fc565b9350506040614983878288016146bf565b925050606085013567ffffffffffffffff8111156149a4576149a36145c1565b5b6149b08782880161490f565b91505092959194509250565b6149c5816145c5565b82525050565b5f6020820190506149de5f8301846149bc565b92915050565b5f67ffffffffffffffff8211156149fe576149fd614818565b5b602082029050602081019050919050565b5f80fd5b5f614a25614a20846149e4565b614876565b90508083825260208201905060208402830185811115614a4857614a47614a0f565b5b835b81811015614a715780614a5d88826147fc565b845260208401935050602081019050614a4a565b5050509392505050565b5f82601f830112614a8f57614a8e614810565b5b8135614a9f848260208601614a13565b91505092915050565b5f67ffffffffffffffff821115614ac257614ac1614818565b5b602082029050602081019050919050565b5f614ae5614ae084614aa8565b614876565b90508083825260208201905060208402830185811115614b0857614b07614a0f565b5b835b81811015614b315780614b1d88826146bf565b845260208401935050602081019050614b0a565b5050509392505050565b5f82601f830112614b4f57614b4e614810565b5b8135614b5f848260208601614ad3565b91505092915050565b5f67ffffffffffffffff821115614b8257614b81614818565b5b602082029050602081019050919050565b5f614ba5614ba084614b68565b614876565b90508083825260208201905060208402830185811115614bc857614bc7614a0f565b5b835b81811015614c0f57803567ffffffffffffffff811115614bed57614bec614810565b5b808601614bfa898261490f565b85526020850194505050602081019050614bca565b5050509392505050565b5f82601f830112614c2d57614c2c614810565b5b8135614c3d848260208601614b93565b91505092915050565b5f819050919050565b614c5881614c46565b8114614c62575f80fd5b50565b5f81359050614c7381614c4f565b92915050565b5f805f8060808587031215614c9157614c906145bd565b5b5f85013567ffffffffffffffff811115614cae57614cad6145c1565b5b614cba87828801614a7b565b945050602085013567ffffffffffffffff811115614cdb57614cda6145c1565b5b614ce787828801614b3b565b935050604085013567ffffffffffffffff811115614d0857614d076145c1565b5b614d1487828801614c19565b9250506060614d2587828801614c65565b91505092959194509250565b614d3a81614c46565b82525050565b5f602082019050614d535f830184614d31565b92915050565b5f819050919050565b5f614d7c614d77614d728461478e565b614d59565b61478e565b9050919050565b5f614d8d82614d62565b9050919050565b5f614d9e82614d83565b9050919050565b614dae81614d94565b82525050565b5f602082019050614dc75f830184614da5565b92915050565b7f4e487b71000000000000000000000000000000000000000000000000000000005f52602160045260245ffd5b60088110614e0b57614e0a614dcd565b5b50565b5f819050614e1b82614dfa565b919050565b5f614e2a82614e0e565b9050919050565b614e3a81614e20565b82525050565b5f602082019050614e535f830184614e31565b92915050565b5f8060408385031215614e6f57614e6e6145bd565b5b5f614e7c858286016146bf565b9250506020614e8d858286016147fc565b9150509250929050565b5f606082019050614eaa5f830186614681565b614eb76020830185614681565b614ec46040830184614681565b949350505050565b5f60ff82169050919050565b614ee181614ecc565b8114614eeb575f80fd5b50565b5f81359050614efc81614ed8565b92915050565b5f8060408385031215614f1857614f176145bd565b5b5f614f25858286016146bf565b9250506020614f3685828601614eee565b9150509250929050565b5f80fd5b5f8083601f840112614f5957614f58614810565b5b8235905067ffffffffffffffff811115614f7657614f75614f40565b5b602083019150836001820283011115614f9257614f91614a0f565b5b9250929050565b5f805f805f805f60c0888a031215614fb457614fb36145bd565b5b5f614fc18a828b016146bf565b9750506020614fd28a828b01614eee565b9650506040614fe38a828b016147fc565b955050606088013567ffffffffffffffff811115615004576150036145c1565b5b6150108a828b01614f44565b9450945050608088013567ffffffffffffffff811115615033576150326145c1565b5b61503f8a828b0161490f565b92505060a088013567ffffffffffffffff8111156150605761505f6145c1565b5b61506c8a828b0161490f565b91505092959891949750929550565b5f805f805f60808688031215615094576150936145bd565b5b5f6150a1888289016146bf565b95505060206150b288828901614eee565b945050604086013567ffffffffffffffff8111156150d3576150d26145c1565b5b6150df88828901614f44565b9350935050606086013567ffffffffffffffff811115615102576151016145c1565b5b61510e8882890161490f565b9150509295509295909350565b5f615125826147ad565b9050919050565b6151358161511b565b811461513f575f80fd5b50565b5f813590506151508161512c565b92915050565b5f6020828403121561516b5761516a6145bd565b5b5f61517884828501615142565b91505092915050565b5f60208284031215615196576151956145bd565b5b5f6151a3848285016147fc565b91505092915050565b5f805f80606085870312156151c4576151c36145bd565b5b5f6151d1878288016146bf565b94505060206151e287828801614eee565b935050604085013567ffffffffffffffff811115615203576152026145c1565b5b61520f87828801614f44565b925092505092959194509250565b5f67ffffffffffffffff82111561523757615236614818565b5b61524082614726565b9050602081019050919050565b5f61525f61525a8461521d565b614876565b90508281526020810184848401111561527b5761527a614814565b5b6152868482856148c0565b509392505050565b5f82601f8301126152a2576152a1614810565b5b81356152b284826020860161524d565b91505092915050565b5f805f80608085870312156152d3576152d26145bd565b5b5f85013567ffffffffffffffff8111156152f0576152ef6145c1565b5b6152fc87828801614a7b565b945050602085013567ffffffffffffffff81111561531d5761531c6145c1565b5b61532987828801614b3b565b935050604085013567ffffffffffffffff81111561534a576153496145c1565b5b61535687828801614c19565b925050606085013567ffffffffffffffff811115615377576153766145c1565b5b6153838782880161528e565b91505092959194509250565b5f7fff0000000000000000000000000000000000000000000000000000000000000082169050919050565b6153c38161538f565b82525050565b5f81519050919050565b5f82825260208201905092915050565b5f819050602082019050919050565b6153fb81614678565b82525050565b5f61540c83836153f2565b60208301905092915050565b5f602082019050919050565b5f61542e826153c9565b61543881856153d3565b9350615443836153e3565b805f5b8381101561547357815161545a8882615401565b975061546583615418565b925050600181019050615446565b5085935050505092915050565b5f60e0820190506154935f83018a6153ba565b81810360208301526154a58189614736565b905081810360408301526154b98188614736565b90506154c86060830187614681565b6154d560808301866147be565b6154e260a0830185614d31565b81810360c08301526154f48184615424565b905098975050505050505050565b5f805f806080858703121561551a576155196145bd565b5b5f615527878288016146bf565b945050602061553887828801614eee565b9350506040615549878288016147fc565b925050606085013567ffffffffffffffff81111561556a576155696145c1565b5b6155768782880161490f565b91505092959194509250565b5f65ffffffffffff82169050919050565b61559c81615582565b82525050565b5f6020820190506155b55f830184615593565b92915050565b5f805f606084860312156155d2576155d16145bd565b5b5f6155df868287016147fc565b93505060206155f0868287016146bf565b925050604084013567ffffffffffffffff811115615611576156106145c1565b5b61561d8682870161490f565b9150509250925092565b5f805f805f60a086880312156156405761563f6145bd565b5b5f61564d888289016147fc565b955050602061565e888289016147fc565b945050604086013567ffffffffffffffff81111561567f5761567e6145c1565b5b61568b88828901614b3b565b935050606086013567ffffffffffffffff8111156156ac576156ab6145c1565b5b6156b888828901614b3b565b925050608086013567ffffffffffffffff8111156156d9576156d86145c1565b5b6156e58882890161490f565b9150509295509295909350565b5f8083601f84011261570757615706614810565b5b8235905067ffffffffffffffff81111561572457615723614f40565b5b6020830191508360018202830111156157405761573f614a0f565b5b9250929050565b5f805f806060858703121561575f5761575e6145bd565b5b5f61576c878288016147fc565b945050602061577d878288016146bf565b935050604085013567ffffffffffffffff81111561579e5761579d6145c1565b5b6157aa878288016156f2565b925092505092959194509250565b5f80604083850312156157ce576157cd6145bd565b5b5f6157db858286016147fc565b92505060206157ec858286016146bf565b9150509250929050565b5f805f805f60a0868803121561580f5761580e6145bd565b5b5f61581c888289016147fc565b955050602061582d888289016147fc565b945050604061583e888289016146bf565b935050606061584f888289016146bf565b925050608086013567ffffffffffffffff8111156158705761586f6145c1565b5b61587c8882890161490f565b9150509295509295909350565b5f61589382614d83565b9050919050565b6158a381615889565b82525050565b5f6020820190506158bc5f83018461589a565b92915050565b7f4e487b71000000000000000000000000000000000000000000000000000000005f52602260045260245ffd5b5f600282049050600182168061590657607f821691505b602082108103615919576159186158c2565b5b50919050565b5f61593961593461592f84615582565b614d59565b614678565b9050919050565b6159498161591f565b82525050565b5f6040820190506159625f830185614681565b61596f6020830184615940565b9392505050565b7f4e487b71000000000000000000000000000000000000000000000000000000005f52601160045260245ffd5b5f6159ad82614678565b91506159b883614678565b92508282039050818111156159d0576159cf615976565b5b92915050565b5f815190506159e4816146a9565b92915050565b5f602082840312156159ff576159fe6145bd565b5b5f615a0c848285016159d6565b91505092915050565b7f4e487b71000000000000000000000000000000000000000000000000000000005f52603260045260245ffd5b5f615a4c82614678565b9150615a5783614678565b9250828201905080821115615a6f57615a6e615976565b5b92915050565b7f52657761726420696e74657276616c20686173206e6f742070617373656420795f8201527f6574000000000000000000000000000000000000000000000000000000000000602082015250565b5f615acf602283614708565b9150615ada82615a75565b604082019050919050565b5f6020820190508181035f830152615afc81615ac3565b9050919050565b5f615b0d82614678565b9150615b1883614678565b9250828202615b2681614678565b91508282048414831517615b3d57615b3c615976565b5b5092915050565b7f4e487b71000000000000000000000000000000000000000000000000000000005f52601260045260245ffd5b5f615b7b82614678565b9150615b8683614678565b925082615b9657615b95615b44565b5b828204905092915050565b5f615bb3615bae8461521d565b614876565b905082815260208101848484011115615bcf57615bce614814565b5b615bda848285614718565b509392505050565b5f82601f830112615bf657615bf5614810565b5b8151615c06848260208601615ba1565b91505092915050565b5f60208284031215615c2457615c236145bd565b5b5f82015167ffffffffffffffff811115615c4157615c406145c1565b5b615c4d84828501615be2565b91505092915050565b5f81905092915050565b5f615c6b8385615c56565b9350615c788385846148c0565b82840190509392505050565b5f615c90828486615c60565b91508190509392505050565b615ca581614ecc565b82525050565b5f60e082019050615cbe5f83018a614d31565b615ccb6020830189614681565b615cd86040830188615c9c565b615ce560608301876147be565b615cf26080830186614681565b615cff60a0830185614d31565b615d0c60c0830184614d31565b98975050505050505050565b5f615d2282615582565b9150615d2d83615582565b9250828203905065ffffffffffff811115615d4b57615d4a615976565b5b92915050565b5f606082019050615d645f8301866147be565b615d716020830185614681565b615d7e6040830184614681565b949350505050565b5f60a082019050615d995f830188614d31565b615da66020830187614681565b615db36040830186615c9c565b615dc060608301856147be565b615dcd6080830184614681565b9695505050505050565b615de081615582565b8114615dea575f80fd5b50565b5f81519050615dfb81615dd7565b92915050565b5f60208284031215615e1657615e156145bd565b5b5f615e2384828501615ded565b91505092915050565b5f615e3682615582565b9150615e4183615582565b9250828201905065ffffffffffff811115615e5f57615e5e615976565b5b92915050565b5f81519050919050565b5f82825260208201905092915050565b5f819050602082019050919050565b615e97816147ad565b82525050565b5f615ea88383615e8e565b60208301905092915050565b5f602082019050919050565b5f615eca82615e65565b615ed48185615e6f565b9350615edf83615e7f565b805f5b83811015615f0f578151615ef68882615e9d565b9750615f0183615eb4565b925050600181019050615ee2565b5085935050505092915050565b5f81519050919050565b5f82825260208201905092915050565b5f819050602082019050919050565b5f81519050919050565b5f82825260208201905092915050565b5f615f6982615f45565b615f738185615f4f565b9350615f83818560208601614718565b615f8c81614726565b840191505092915050565b5f615fa28383615f5f565b905092915050565b5f602082019050919050565b5f615fc082615f1c565b615fca8185615f26565b935083602082028501615fdc85615f36565b805f5b858110156160175784840389528151615ff88582615f97565b945061600383615faa565b925060208a01995050600181019050615fdf565b50829750879550505050505092915050565b5f6080820190508181035f8301526160418187615ec0565b905081810360208301526160558186615424565b905081810360408301526160698185615fb6565b90506160786060830184614d31565b95945050505050565b7f4e6f207265776172647320746f207769746864726177000000000000000000005f82015250565b5f6160b5601683614708565b91506160c082616081565b602082019050919050565b5f6020820190508181035f8301526160e2816160a9565b9050919050565b5f6040820190506160fc5f8301856147be565b6161096020830184614681565b9392505050565b61611981614645565b8114616123575f80fd5b50565b5f8151905061613481616110565b92915050565b5f6020828403121561614f5761614e6145bd565b5b5f61615c84828501616126565b91505092915050565b5f6040820190506161785f830185614681565b6161856020830184614681565b9392505050565b5f60608201905061619f5f830186614681565b6161ac6020830185614e31565b6161b96040830184614d31565b949350505050565b5f6161cb82615f45565b6161d58185615c56565b93506161e5818560208601614718565b80840191505092915050565b5f6161fc82846161c1565b915081905092915050565b5f61621182614ecc565b915061621c83614ecc565b9250828201905060ff81111561623557616234615976565b5b92915050565b5f8160011c9050919050565b5f808291508390505b60018511156162905780860481111561626c5761626b615976565b5b600185161561627b5780820291505b80810290506162898561623b565b9450616250565b94509492505050565b5f826162a85760019050616363565b816162b5575f9050616363565b81600181146162cb57600281146162d557616304565b6001915050616363565b60ff8411156162e7576162e6615976565b5b8360020a9150848211156162fe576162fd615976565b5b50616363565b5060208310610133831016604e8410600b84101617156163395782820a90508381111561633457616333615976565b5b616363565b6163468484846001616247565b9250905081840481111561635d5761635c615976565b5b81810290505b9392505050565b5f61637482614678565b915061637f83614ecc565b92506163ac7fffffffffffffffffffffffffffffffffffffffffffffffffffffffffffffffff8484616299565b905092915050565b5f6080820190506163c75f830187614681565b6163d46020830186615c9c565b6163e16040830185614681565b81810360608301526163f38184614736565b905095945050505050565b5f82825260208201905092915050565b5f61641882615f45565b61642281856163fe565b9350616432818560208601614718565b61643b81614726565b840191505092915050565b5f60a0820190506164595f830188614681565b6164666020830187615c9c565b6164736040830186614681565b81810360608301526164858185614736565b90508181036080830152616499818461640e565b90509695505050505050565b5f819050919050565b5f6164c86164c36164be846164a5565b614d59565b614ecc565b9050919050565b6164d8816164ae565b82525050565b5f6040820190506164f15f8301856164cf565b6164fe6020830184614681565b9392505050565b5f81519050919050565b5f82825260208201905092915050565b5f819050602082019050919050565b5f82825260208201905092915050565b5f616548826146fe565b616552818561652e565b9350616562818560208601614718565b61656b81614726565b840191505092915050565b5f616581838361653e565b905092915050565b5f602082019050919050565b5f61659f82616505565b6165a9818561650f565b9350836020820285016165bb8561651f565b805f5b858110156165f657848403895281516165d78582616576565b94506165e283616589565b925060208a019950506001810190506165be565b50829750879550505050505092915050565b5f6101208201905061661c5f83018c614681565b616629602083018b6147be565b818103604083015261663b818a615ec0565b9050818103606083015261664f8189615424565b905081810360808301526166638188616595565b905081810360a08301526166778187615fb6565b905061668660c0830186614681565b61669360e0830185614681565b8181036101008301526166a68184614736565b90509a9950505050505050505050565b5f819050919050565b5f6166d96166d46166cf846166b6565b614d59565b614ecc565b9050919050565b6166e9816166bf565b82525050565b5f6040820190506167025f8301856166e0565b61670f6020830184614681565b9392505050565b5f6040820190506167295f830185614d31565b818103602083015261673b818461640e565b90509392505050565b5f8151905061675281614c4f565b92915050565b5f6020828403121561676d5761676c6145bd565b5b5f61677a84828501616744565b91505092915050565b5f819050919050565b5f6167a66167a161679c84616783565b614d59565b614ecc565b9050919050565b6167b68161678c565b82525050565b5f6040820190506167cf5f8301856167ad565b6167dc6020830184614681565b9392505050565b5f60a0820190506167f65f830188614d31565b6168036020830187614d31565b6168106040830186614d31565b61681d6060830185614681565b61682a60808301846147be565b9695505050505050565b5f6080820190506168475f830187614d31565b6168546020830186615c9c565b6168616040830185614d31565b61686e6060830184614d31565b9594505050505056fea2646970667358221220d5892c4f2847424b7fdf6674c83d4743497cd14bc6e45b3bfc3c43dd4df7d3c264736f6c634300081a0033",
			"opcodes": "PUSH2 0x180 PUSH1 0x40 MSTORE PUSH3 0x278D00 PUSH1 0xB SSTORE CALLVALUE DUP1 ISZERO PUSH2 0x17 JUMPI PUSH0 DUP1 REVERT JUMPDEST POP PUSH1 0x40 MLOAD PUSH2 0x7A52 CODESIZE SUB DUP1 PUSH2 0x7A52 DUP4 CODECOPY DUP2 DUP2 ADD PUSH1 0x40 MSTORE DUP2 ADD SWAP1 PUSH2 0x39 SWAP2 SWAP1 PUSH2 0xAAA JUMP JUMPDEST PUSH1 0x4 DUP3 PUSH1 0x40 MLOAD DUP1 PUSH1 0x40 ADD PUSH1 0x40 MSTORE DUP1 PUSH1 0x14 DUP2 MSTORE PUSH1 0x20 ADD PUSH32 0x496E63656E746976697A6564476F7665726E6F72000000000000000000000000 DUP2 MSTORE POP DUP1 PUSH2 0x81 PUSH2 0x20F PUSH1 0x20 SHL PUSH1 0x20 SHR JUMP JUMPDEST PUSH2 0x94 PUSH0 DUP4 PUSH2 0x24C PUSH1 0x20 SHL SWAP1 SWAP2 SWAP1 PUSH1 0x20 SHR JUMP JUMPDEST PUSH2 0x120 DUP2 DUP2 MSTORE POP POP PUSH2 0xB0 PUSH1 0x1 DUP3 PUSH2 0x24C PUSH1 0x20 SHL SWAP1 SWAP2 SWAP1 PUSH1 0x20 SHR JUMP JUMPDEST PUSH2 0x140 DUP2 DUP2 MSTORE POP POP DUP2 DUP1 MLOAD SWAP1 PUSH1 0x20 ADD KECCAK256 PUSH1 0xE0 DUP2 DUP2 MSTORE POP POP DUP1 DUP1 MLOAD SWAP1 PUSH1 0x20 ADD KECCAK256 PUSH2 0x100 DUP2 DUP2 MSTORE POP POP CHAINID PUSH1 0xA0 DUP2 DUP2 MSTORE POP POP PUSH2 0xED PUSH2 0x299 PUSH1 0x20 SHL PUSH1 0x20 SHR JUMP JUMPDEST PUSH1 0x80 DUP2 DUP2 MSTORE POP POP ADDRESS PUSH20 0xFFFFFFFFFFFFFFFFFFFFFFFFFFFFFFFFFFFFFFFF AND PUSH1 0xC0 DUP2 PUSH20 0xFFFFFFFFFFFFFFFFFFFFFFFFFFFFFFFFFFFFFFFF AND DUP2 MSTORE POP POP POP POP DUP1 PUSH1 0x3 SWAP1 DUP2 PUSH2 0x139 SWAP2 SWAP1 PUSH2 0xD22 JUMP JUMPDEST POP POP DUP1 PUSH20 0xFFFFFFFFFFFFFFFFFFFFFFFFFFFFFFFFFFFFFFFF AND PUSH2 0x160 DUP2 PUSH20 0xFFFFFFFFFFFFFFFFFFFFFFFFFFFFFFFFFFFFFFFF AND DUP2 MSTORE POP POP POP PUSH2 0x180 DUP2 PUSH2 0x2F3 PUSH1 0x20 SHL PUSH1 0x20 SHR JUMP JUMPDEST POP DUP1 PUSH1 0x9 PUSH0 PUSH2 0x100 EXP DUP2 SLOAD DUP2 PUSH20 0xFFFFFFFFFFFFFFFFFFFFFFFFFFFFFFFFFFFFFFFF MUL NOT AND SWAP1 DUP4 PUSH20 0xFFFFFFFFFFFFFFFFFFFFFFFFFFFFFFFFFFFFFFFF AND MUL OR SWAP1 SSTORE POP DUP2 PUSH1 0xE PUSH0 PUSH2 0x100 EXP DUP2 SLOAD DUP2 PUSH20 0xFFFFFFFFFFFFFFFFFFFFFFFFFFFFFFFFFFFFFFFF MUL NOT AND SWAP1 DUP4 PUSH20 0xFFFFFFFFFFFFFFFFFFFFFFFFFFFFFFFFFFFFFFFF AND MUL OR SWAP1 SSTORE POP TIMESTAMP PUSH1 0xA DUP2 SWAP1 SSTORE POP POP POP PUSH2 0x114A JUMP JUMPDEST PUSH1 0x60 PUSH1 0x40 MLOAD DUP1 PUSH1 0x40 ADD PUSH1 0x40 MSTORE DUP1 PUSH1 0x1 DUP2 MSTORE PUSH1 0x20 ADD PUSH32 0x3100000000000000000000000000000000000000000000000000000000000000 DUP2 MSTORE POP SWAP1 POP SWAP1 JUMP JUMPDEST PUSH0 PUSH1 0x20 DUP4 MLOAD LT ISZERO PUSH2 0x26D JUMPI PUSH2 0x266 DUP4 PUSH2 0x3CD PUSH1 0x20 SHL PUSH1 0x20 SHR JUMP JUMPDEST SWAP1 POP PUSH2 0x293 JUMP JUMPDEST DUP3 PUSH2 0x27D DUP4 PUSH2 0x432 PUSH1 0x20 SHL PUSH1 0x20 SHR JUMP JUMPDEST PUSH0 ADD SWAP1 DUP2 PUSH2 0x28B SWAP2 SWAP1 PUSH2 0xD22 JUMP JUMPDEST POP PUSH1 0xFF PUSH0 SHL SWAP1 POP JUMPDEST SWAP3 SWAP2 POP POP JUMP JUMPDEST PUSH0 PUSH32 0x8B73C3C69BB8FE3D512ECC4CF759CC79239F7B179B0FFACAA9A75D522B39400F PUSH1 0xE0 MLOAD PUSH2 0x100 MLOAD CHAINID ADDRESS PUSH1 0x40 MLOAD PUSH1 0x20 ADD PUSH2 0x2D8 SWAP6 SWAP5 SWAP4 SWAP3 SWAP2 SWAP1 PUSH2 0xE27 JUMP JUMPDEST PUSH1 0x40 MLOAD PUSH1 0x20 DUP2 DUP4 SUB SUB DUP2 MSTORE SWAP1 PUSH1 0x40 MSTORE DUP1 MLOAD SWAP1 PUSH1 0x20 ADD KECCAK256 SWAP1 POP SWAP1 JUMP JUMPDEST PUSH0 PUSH2 0x302 PUSH2 0x43B PUSH1 0x20 SHL PUSH1 0x20 SHR JUMP JUMPDEST SWAP1 POP DUP1 DUP3 GT ISZERO PUSH2 0x34B JUMPI DUP2 DUP2 PUSH1 0x40 MLOAD PUSH32 0x243E544500000000000000000000000000000000000000000000000000000000 DUP2 MSTORE PUSH1 0x4 ADD PUSH2 0x342 SWAP3 SWAP2 SWAP1 PUSH2 0xE78 JUMP JUMPDEST PUSH1 0x40 MLOAD DUP1 SWAP2 SUB SWAP1 REVERT JUMPDEST PUSH0 PUSH2 0x35A PUSH2 0x443 PUSH1 0x20 SHL PUSH1 0x20 SHR JUMP JUMPDEST SWAP1 POP PUSH2 0x38D PUSH2 0x36D PUSH2 0x475 PUSH1 0x20 SHL PUSH1 0x20 SHR JUMP JUMPDEST PUSH2 0x37C DUP6 PUSH2 0x50C PUSH1 0x20 SHL PUSH1 0x20 SHR JUMP JUMPDEST PUSH1 0x8 PUSH2 0x579 PUSH1 0x20 SHL SWAP1 SWAP3 SWAP2 SWAP1 PUSH1 0x20 SHR JUMP JUMPDEST POP POP PUSH32 0x553476BF02EF2726E8CE5CED78D63E26E602E4A2257B1F559418E24B4633997 DUP2 DUP5 PUSH1 0x40 MLOAD PUSH2 0x3C0 SWAP3 SWAP2 SWAP1 PUSH2 0xE78 JUMP JUMPDEST PUSH1 0x40 MLOAD DUP1 SWAP2 SUB SWAP1 LOG1 POP POP POP JUMP JUMPDEST PUSH0 DUP1 DUP3 SWAP1 POP PUSH1 0x1F DUP2 MLOAD GT ISZERO PUSH2 0x419 JUMPI DUP3 PUSH1 0x40 MLOAD PUSH32 0x305A27A900000000000000000000000000000000000000000000000000000000 DUP2 MSTORE PUSH1 0x4 ADD PUSH2 0x410 SWAP2 SWAP1 PUSH2 0xF05 JUMP JUMPDEST PUSH1 0x40 MLOAD DUP1 SWAP2 SUB SWAP1 REVERT JUMPDEST DUP1 MLOAD DUP2 PUSH2 0x425 SWAP1 PUSH2 0xF52 JUMP JUMPDEST PUSH0 SHR OR PUSH0 SHL SWAP2 POP POP SWAP2 SWAP1 POP JUMP JUMPDEST PUSH0 DUP2 SWAP1 POP SWAP2 SWAP1 POP JUMP JUMPDEST PUSH0 PUSH1 0x64 SWAP1 POP SWAP1 JUMP JUMPDEST PUSH0 PUSH2 0x454 PUSH1 0x8 PUSH2 0x59A PUSH1 0x20 SHL PUSH1 0x20 SHR JUMP JUMPDEST PUSH26 0xFFFFFFFFFFFFFFFFFFFFFFFFFFFFFFFFFFFFFFFFFFFFFFFFFFFF AND SWAP1 POP SWAP1 JUMP JUMPDEST PUSH0 PUSH2 0x484 PUSH2 0x602 PUSH1 0x20 SHL PUSH1 0x20 SHR JUMP JUMPDEST PUSH20 0xFFFFFFFFFFFFFFFFFFFFFFFFFFFFFFFFFFFFFFFF AND PUSH4 0x91DDADF4 PUSH1 0x40 MLOAD DUP2 PUSH4 0xFFFFFFFF AND PUSH1 0xE0 SHL DUP2 MSTORE PUSH1 0x4 ADD PUSH1 0x20 PUSH1 0x40 MLOAD DUP1 DUP4 SUB DUP2 DUP7 GAS STATICCALL SWAP3 POP POP POP DUP1 ISZERO PUSH2 0x4EB JUMPI POP PUSH1 0x40 MLOAD RETURNDATASIZE PUSH1 0x1F NOT PUSH1 0x1F DUP3 ADD AND DUP3 ADD DUP1 PUSH1 0x40 MSTORE POP DUP2 ADD SWAP1 PUSH2 0x4E8 SWAP2 SWAP1 PUSH2 0xFF3 JUMP JUMPDEST PUSH1 0x1 JUMPDEST PUSH2 0x504 JUMPI PUSH2 0x4FD PUSH2 0x60C PUSH1 0x20 SHL PUSH1 0x20 SHR JUMP JUMPDEST SWAP1 POP PUSH2 0x509 JUMP JUMPDEST DUP1 SWAP2 POP POP JUMPDEST SWAP1 JUMP JUMPDEST PUSH0 PUSH26 0xFFFFFFFFFFFFFFFFFFFFFFFFFFFFFFFFFFFFFFFFFFFFFFFFFFFF DUP1 AND DUP3 GT ISZERO PUSH2 0x571 JUMPI PUSH1 0xD0 DUP3 PUSH1 0x40 MLOAD PUSH32 0x6DFCC65000000000000000000000000000000000000000000000000000000000 DUP2 MSTORE PUSH1 0x4 ADD PUSH2 0x568 SWAP3 SWAP2 SWAP1 PUSH2 0x1063 JUMP JUMPDEST PUSH1 0x40 MLOAD DUP1 SWAP2 SUB SWAP1 REVERT JUMPDEST DUP2 SWAP1 POP SWAP2 SWAP1 POP JUMP JUMPDEST PUSH0 DUP1 PUSH2 0x58E DUP6 PUSH0 ADD DUP6 DUP6 PUSH2 0x621 PUSH1 0x20 SHL PUSH1 0x20 SHR JUMP JUMPDEST SWAP2 POP SWAP2 POP SWAP4 POP SWAP4 SWAP2 POP POP JUMP JUMPDEST PUSH0 DUP1 DUP3 PUSH0 ADD DUP1 SLOAD SWAP1 POP SWAP1 POP PUSH0 DUP2 EQ PUSH2 0x5F8 JUMPI PUSH2 0x5CA DUP4 PUSH0 ADD PUSH1 0x1 DUP4 PUSH2 0x5BF SWAP2 SWAP1 PUSH2 0x10B7 JUMP JUMPDEST PUSH2 0x995 PUSH1 0x20 SHL PUSH1 0x20 SHR JUMP JUMPDEST PUSH0 ADD PUSH1 0x6 SWAP1 SLOAD SWAP1 PUSH2 0x100 EXP SWAP1 DIV PUSH26 0xFFFFFFFFFFFFFFFFFFFFFFFFFFFFFFFFFFFFFFFFFFFFFFFFFFFF AND PUSH2 0x5FA JUMP JUMPDEST PUSH0 JUMPDEST SWAP2 POP POP SWAP2 SWAP1 POP JUMP JUMPDEST PUSH0 PUSH2 0x160 MLOAD SWAP1 POP SWAP1 JUMP JUMPDEST PUSH0 PUSH2 0x61C NUMBER PUSH2 0x9A7 PUSH1 0x20 SHL PUSH1 0x20 SHR JUMP JUMPDEST SWAP1 POP SWAP1 JUMP JUMPDEST PUSH0 DUP1 PUSH0 DUP6 DUP1 SLOAD SWAP1 POP SWAP1 POP PUSH0 DUP2 GT ISZERO PUSH2 0x8AD JUMPI PUSH0 PUSH2 0x650 DUP8 PUSH1 0x1 DUP5 PUSH2 0x645 SWAP2 SWAP1 PUSH2 0x10B7 JUMP JUMPDEST PUSH2 0x995 PUSH1 0x20 SHL PUSH1 0x20 SHR JUMP JUMPDEST PUSH1 0x40 MLOAD DUP1 PUSH1 0x40 ADD PUSH1 0x40 MSTORE SWAP1 DUP2 PUSH0 DUP3 ADD PUSH0 SWAP1 SLOAD SWAP1 PUSH2 0x100 EXP SWAP1 DIV PUSH6 0xFFFFFFFFFFFF AND PUSH6 0xFFFFFFFFFFFF AND PUSH6 0xFFFFFFFFFFFF AND DUP2 MSTORE PUSH1 0x20 ADD PUSH0 DUP3 ADD PUSH1 0x6 SWAP1 SLOAD SWAP1 PUSH2 0x100 EXP SWAP1 DIV PUSH26 0xFFFFFFFFFFFFFFFFFFFFFFFFFFFFFFFFFFFFFFFFFFFFFFFFFFFF AND PUSH26 0xFFFFFFFFFFFFFFFFFFFFFFFFFFFFFFFFFFFFFFFFFFFFFFFFFFFF AND PUSH26 0xFFFFFFFFFFFFFFFFFFFFFFFFFFFFFFFFFFFFFFFFFFFFFFFFFFFF AND DUP2 MSTORE POP POP SWAP1 POP DUP6 PUSH6 0xFFFFFFFFFFFF AND DUP2 PUSH0 ADD MLOAD PUSH6 0xFFFFFFFFFFFF AND GT ISZERO PUSH2 0x73B JUMPI PUSH1 0x40 MLOAD PUSH32 0x2520601D00000000000000000000000000000000000000000000000000000000 DUP2 MSTORE PUSH1 0x4 ADD PUSH1 0x40 MLOAD DUP1 SWAP2 SUB SWAP1 REVERT JUMPDEST DUP6 PUSH6 0xFFFFFFFFFFFF AND DUP2 PUSH0 ADD MLOAD PUSH6 0xFFFFFFFFFFFF AND SUB PUSH2 0x7C3 JUMPI DUP5 PUSH2 0x772 DUP9 PUSH1 0x1 DUP6 PUSH2 0x767 SWAP2 SWAP1 PUSH2 0x10B7 JUMP JUMPDEST PUSH2 0x995 PUSH1 0x20 SHL PUSH1 0x20 SHR JUMP JUMPDEST PUSH0 ADD PUSH1 0x6 PUSH2 0x100 EXP DUP2 SLOAD DUP2 PUSH26 0xFFFFFFFFFFFFFFFFFFFFFFFFFFFFFFFFFFFFFFFFFFFFFFFFFFFF MUL NOT AND SWAP1 DUP4 PUSH26 0xFFFFFFFFFFFFFFFFFFFFFFFFFFFFFFFFFFFFFFFFFFFFFFFFFFFF AND MUL OR SWAP1 SSTORE POP PUSH2 0x89C JUMP JUMPDEST DUP7 PUSH1 0x40 MLOAD DUP1 PUSH1 0x40 ADD PUSH1 0x40 MSTORE DUP1 DUP9 PUSH6 0xFFFFFFFFFFFF AND DUP2 MSTORE PUSH1 0x20 ADD DUP8 PUSH26 0xFFFFFFFFFFFFFFFFFFFFFFFFFFFFFFFFFFFFFFFFFFFFFFFFFFFF AND DUP2 MSTORE POP SWAP1 DUP1 PUSH1 0x1 DUP2 SLOAD ADD DUP1 DUP3 SSTORE DUP1 SWAP2 POP POP PUSH1 0x1 SWAP1 SUB SWAP1 PUSH0 MSTORE PUSH1 0x20 PUSH0 KECCAK256 ADD PUSH0 SWAP1 SWAP2 SWAP1 SWAP2 SWAP1 SWAP2 POP PUSH0 DUP3 ADD MLOAD DUP2 PUSH0 ADD PUSH0 PUSH2 0x100 EXP DUP2 SLOAD DUP2 PUSH6 0xFFFFFFFFFFFF MUL NOT AND SWAP1 DUP4 PUSH6 0xFFFFFFFFFFFF AND MUL OR SWAP1 SSTORE POP PUSH1 0x20 DUP3 ADD MLOAD DUP2 PUSH0 ADD PUSH1 0x6 PUSH2 0x100 EXP DUP2 SLOAD DUP2 PUSH26 0xFFFFFFFFFFFFFFFFFFFFFFFFFFFFFFFFFFFFFFFFFFFFFFFFFFFF MUL NOT AND SWAP1 DUP4 PUSH26 0xFFFFFFFFFFFFFFFFFFFFFFFFFFFFFFFFFFFFFFFFFFFFFFFFFFFF AND MUL OR SWAP1 SSTORE POP POP POP JUMPDEST DUP1 PUSH1 0x20 ADD MLOAD DUP6 SWAP4 POP SWAP4 POP POP POP PUSH2 0x98D JUMP JUMPDEST DUP6 PUSH1 0x40 MLOAD DUP1 PUSH1 0x40 ADD PUSH1 0x40 MSTORE DUP1 DUP8 PUSH6 0xFFFFFFFFFFFF AND DUP2 MSTORE PUSH1 0x20 ADD DUP7 PUSH26 0xFFFFFFFFFFFFFFFFFFFFFFFFFFFFFFFFFFFFFFFFFFFFFFFFFFFF AND DUP2 MSTORE POP SWAP1 DUP1 PUSH1 0x1 DUP2 SLOAD ADD DUP1 DUP3 SSTORE DUP1 SWAP2 POP POP PUSH1 0x1 SWAP1 SUB SWAP1 PUSH0 MSTORE PUSH1 0x20 PUSH0 KECCAK256 ADD PUSH0 SWAP1 SWAP2 SWAP1 SWAP2 SWAP1 SWAP2 POP PUSH0 DUP3 ADD MLOAD DUP2 PUSH0 ADD PUSH0 PUSH2 0x100 EXP DUP2 SLOAD DUP2 PUSH6 0xFFFFFFFFFFFF MUL NOT AND SWAP1 DUP4 PUSH6 0xFFFFFFFFFFFF AND MUL OR SWAP1 SSTORE POP PUSH1 0x20 DUP3 ADD MLOAD DUP2 PUSH0 ADD PUSH1 0x6 PUSH2 0x100 EXP DUP2 SLOAD DUP2 PUSH26 0xFFFFFFFFFFFFFFFFFFFFFFFFFFFFFFFFFFFFFFFFFFFFFFFFFFFF MUL NOT AND SWAP1 DUP4 PUSH26 0xFFFFFFFFFFFFFFFFFFFFFFFFFFFFFFFFFFFFFFFFFFFFFFFFFFFF AND MUL OR SWAP1 SSTORE POP POP POP PUSH0 DUP5 SWAP3 POP SWAP3 POP POP JUMPDEST SWAP4 POP SWAP4 SWAP2 POP POP JUMP JUMPDEST PUSH0 DUP3 PUSH0 MSTORE DUP2 PUSH1 0x20 PUSH0 KECCAK256 ADD SWAP1 POP SWAP3 SWAP2 POP POP JUMP JUMPDEST PUSH0 PUSH6 0xFFFFFFFFFFFF DUP1 AND DUP3 GT ISZERO PUSH2 0x9F8 JUMPI PUSH1 0x30 DUP3 PUSH1 0x40 MLOAD PUSH32 0x6DFCC65000000000000000000000000000000000000000000000000000000000 DUP2 MSTORE PUSH1 0x4 ADD PUSH2 0x9EF SWAP3 SWAP2 SWAP1 PUSH2 0x1123 JUMP JUMPDEST PUSH1 0x40 MLOAD DUP1 SWAP2 SUB SWAP1 REVERT JUMPDEST DUP2 SWAP1 POP SWAP2 SWAP1 POP JUMP JUMPDEST PUSH0 DUP1 REVERT JUMPDEST PUSH0 PUSH20 0xFFFFFFFFFFFFFFFFFFFFFFFFFFFFFFFFFFFFFFFF DUP3 AND SWAP1 POP SWAP2 SWAP1 POP JUMP JUMPDEST PUSH0 PUSH2 0xA2D DUP3 PUSH2 0xA04 JUMP JUMPDEST SWAP1 POP SWAP2 SWAP1 POP JUMP JUMPDEST PUSH0 PUSH2 0xA3E DUP3 PUSH2 0xA23 JUMP JUMPDEST SWAP1 POP SWAP2 SWAP1 POP JUMP JUMPDEST PUSH2 0xA4E DUP2 PUSH2 0xA34 JUMP JUMPDEST DUP2 EQ PUSH2 0xA58 JUMPI PUSH0 DUP1 REVERT JUMPDEST POP JUMP JUMPDEST PUSH0 DUP2 MLOAD SWAP1 POP PUSH2 0xA69 DUP2 PUSH2 0xA45 JUMP JUMPDEST SWAP3 SWAP2 POP POP JUMP JUMPDEST PUSH0 PUSH2 0xA79 DUP3 PUSH2 0xA23 JUMP JUMPDEST SWAP1 POP SWAP2 SWAP1 POP JUMP JUMPDEST PUSH2 0xA89 DUP2 PUSH2 0xA6F JUMP JUMPDEST DUP2 EQ PUSH2 0xA93 JUMPI PUSH0 DUP1 REVERT JUMPDEST POP JUMP JUMPDEST PUSH0 DUP2 MLOAD SWAP1 POP PUSH2 0xAA4 DUP2 PUSH2 0xA80 JUMP JUMPDEST SWAP3 SWAP2 POP POP JUMP JUMPDEST PUSH0 DUP1 PUSH1 0x40 DUP4 DUP6 SUB SLT ISZERO PUSH2 0xAC0 JUMPI PUSH2 0xABF PUSH2 0xA00 JUMP JUMPDEST JUMPDEST PUSH0 PUSH2 0xACD DUP6 DUP3 DUP7 ADD PUSH2 0xA5B JUMP JUMPDEST SWAP3 POP POP PUSH1 0x20 PUSH2 0xADE DUP6 DUP3 DUP7 ADD PUSH2 0xA96 JUMP JUMPDEST SWAP2 POP POP SWAP3 POP SWAP3 SWAP1 POP JUMP JUMPDEST PUSH0 DUP2 MLOAD SWAP1 POP SWAP2 SWAP1 POP JUMP JUMPDEST PUSH32 0x4E487B7100000000000000000000000000000000000000000000000000000000 PUSH0 MSTORE PUSH1 0x41 PUSH1 0x4 MSTORE PUSH1 0x24 PUSH0 REVERT JUMPDEST PUSH32 0x4E487B7100000000000000000000000000000000000000000000000000000000 PUSH0 MSTORE PUSH1 0x22 PUSH1 0x4 MSTORE PUSH1 0x24 PUSH0 REVERT JUMPDEST PUSH0 PUSH1 0x2 DUP3 DIV SWAP1 POP PUSH1 0x1 DUP3 AND DUP1 PUSH2 0xB63 JUMPI PUSH1 0x7F DUP3 AND SWAP2 POP JUMPDEST PUSH1 0x20 DUP3 LT DUP2 SUB PUSH2 0xB76 JUMPI PUSH2 0xB75 PUSH2 0xB1F JUMP JUMPDEST JUMPDEST POP SWAP2 SWAP1 POP JUMP JUMPDEST PUSH0 DUP2 SWAP1 POP DUP2 PUSH0 MSTORE PUSH1 0x20 PUSH0 KECCAK256 SWAP1 POP SWAP2 SWAP1 POP JUMP JUMPDEST PUSH0 PUSH1 0x20 PUSH1 0x1F DUP4 ADD DIV SWAP1 POP SWAP2 SWAP1 POP JUMP JUMPDEST PUSH0 DUP3 DUP3 SHL SWAP1 POP SWAP3 SWAP2 POP POP JUMP JUMPDEST PUSH0 PUSH1 0x8 DUP4 MUL PUSH2 0xBD8 PUSH32 0xFFFFFFFFFFFFFFFFFFFFFFFFFFFFFFFFFFFFFFFFFFFFFFFFFFFFFFFFFFFFFFFF DUP3 PUSH2 0xB9D JUMP JUMPDEST PUSH2 0xBE2 DUP7 DUP4 PUSH2 0xB9D JUMP JUMPDEST SWAP6 POP DUP1 NOT DUP5 AND SWAP4 POP DUP1 DUP7 AND DUP5 OR SWAP3 POP POP POP SWAP4 SWAP3 POP POP POP JUMP JUMPDEST PUSH0 DUP2 SWAP1 POP SWAP2 SWAP1 POP JUMP JUMPDEST PUSH0 DUP2 SWAP1 POP SWAP2 SWAP1 POP JUMP JUMPDEST PUSH0 PUSH2 0xC26 PUSH2 0xC21 PUSH2 0xC1C DUP5 PUSH2 0xBFA JUMP JUMPDEST PUSH2 0xC03 JUMP JUMPDEST PUSH2 0xBFA JUMP JUMPDEST SWAP1 POP SWAP2 SWAP1 POP JUMP JUMPDEST PUSH0 DUP2 SWAP1 POP SWAP2 SWAP1 POP JUMP JUMPDEST PUSH2 0xC3F DUP4 PUSH2 0xC0C JUMP JUMPDEST PUSH2 0xC53 PUSH2 0xC4B DUP3 PUSH2 0xC2D JUMP JUMPDEST DUP5 DUP5 SLOAD PUSH2 0xBA9 JUMP JUMPDEST DUP3 SSTORE POP POP POP POP JUMP JUMPDEST PUSH0 SWAP1 JUMP JUMPDEST PUSH2 0xC67 PUSH2 0xC5B JUMP JUMPDEST PUSH2 0xC72 DUP2 DUP5 DUP5 PUSH2 0xC36 JUMP JUMPDEST POP POP POP JUMP JUMPDEST JUMPDEST DUP2 DUP2 LT ISZERO PUSH2 0xC95 JUMPI PUSH2 0xC8A PUSH0 DUP3 PUSH2 0xC5F JUMP JUMPDEST PUSH1 0x1 DUP2 ADD SWAP1 POP PUSH2 0xC78 JUMP JUMPDEST POP POP JUMP JUMPDEST PUSH1 0x1F DUP3 GT ISZERO PUSH2 0xCDA JUMPI PUSH2 0xCAB DUP2 PUSH2 0xB7C JUMP JUMPDEST PUSH2 0xCB4 DUP5 PUSH2 0xB8E JUMP JUMPDEST DUP2 ADD PUSH1 0x20 DUP6 LT ISZERO PUSH2 0xCC3 JUMPI DUP2 SWAP1 POP JUMPDEST PUSH2 0xCD7 PUSH2 0xCCF DUP6 PUSH2 0xB8E JUMP JUMPDEST DUP4 ADD DUP3 PUSH2 0xC77 JUMP JUMPDEST POP POP JUMPDEST POP POP POP JUMP JUMPDEST PUSH0 DUP3 DUP3 SHR SWAP1 POP SWAP3 SWAP2 POP POP JUMP JUMPDEST PUSH0 PUSH2 0xCFA PUSH0 NOT DUP5 PUSH1 0x8 MUL PUSH2 0xCDF JUMP JUMPDEST NOT DUP1 DUP4 AND SWAP2 POP POP SWAP3 SWAP2 POP POP JUMP JUMPDEST PUSH0 PUSH2 0xD12 DUP4 DUP4 PUSH2 0xCEB JUMP JUMPDEST SWAP2 POP DUP3 PUSH1 0x2 MUL DUP3 OR SWAP1 POP SWAP3 SWAP2 POP POP JUMP JUMPDEST PUSH2 0xD2B DUP3 PUSH2 0xAE8 JUMP JUMPDEST PUSH8 0xFFFFFFFFFFFFFFFF DUP2 GT ISZERO PUSH2 0xD44 JUMPI PUSH2 0xD43 PUSH2 0xAF2 JUMP JUMPDEST JUMPDEST PUSH2 0xD4E DUP3 SLOAD PUSH2 0xB4C JUMP JUMPDEST PUSH2 0xD59 DUP3 DUP3 DUP6 PUSH2 0xC99 JUMP JUMPDEST PUSH0 PUSH1 0x20 SWAP1 POP PUSH1 0x1F DUP4 GT PUSH1 0x1 DUP2 EQ PUSH2 0xD8A JUMPI PUSH0 DUP5 ISZERO PUSH2 0xD78 JUMPI DUP3 DUP8 ADD MLOAD SWAP1 POP JUMPDEST PUSH2 0xD82 DUP6 DUP3 PUSH2 0xD07 JUMP JUMPDEST DUP7 SSTORE POP PUSH2 0xDE9 JUMP JUMPDEST PUSH1 0x1F NOT DUP5 AND PUSH2 0xD98 DUP7 PUSH2 0xB7C JUMP JUMPDEST PUSH0 JUMPDEST DUP3 DUP2 LT ISZERO PUSH2 0xDBF JUMPI DUP5 DUP10 ADD MLOAD DUP3 SSTORE PUSH1 0x1 DUP3 ADD SWAP2 POP PUSH1 0x20 DUP6 ADD SWAP5 POP PUSH1 0x20 DUP2 ADD SWAP1 POP PUSH2 0xD9A JUMP JUMPDEST DUP7 DUP4 LT ISZERO PUSH2 0xDDC JUMPI DUP5 DUP10 ADD MLOAD PUSH2 0xDD8 PUSH1 0x1F DUP10 AND DUP3 PUSH2 0xCEB JUMP JUMPDEST DUP4 SSTORE POP JUMPDEST PUSH1 0x1 PUSH1 0x2 DUP9 MUL ADD DUP9 SSTORE POP POP POP JUMPDEST POP POP POP POP POP POP JUMP JUMPDEST PUSH0 DUP2 SWAP1 POP SWAP2 SWAP1 POP JUMP JUMPDEST PUSH2 0xE03 DUP2 PUSH2 0xDF1 JUMP JUMPDEST DUP3 MSTORE POP POP JUMP JUMPDEST PUSH2 0xE12 DUP2 PUSH2 0xBFA JUMP JUMPDEST DUP3 MSTORE POP POP JUMP JUMPDEST PUSH2 0xE21 DUP2 PUSH2 0xA23 JUMP JUMPDEST DUP3 MSTORE POP POP JUMP JUMPDEST PUSH0 PUSH1 0xA0 DUP3 ADD SWAP1 POP PUSH2 0xE3A PUSH0 DUP4 ADD DUP9 PUSH2 0xDFA JUMP JUMPDEST PUSH2 0xE47 PUSH1 0x20 DUP4 ADD DUP8 PUSH2 0xDFA JUMP JUMPDEST PUSH2 0xE54 PUSH1 0x40 DUP4 ADD DUP7 PUSH2 0xDFA JUMP JUMPDEST PUSH2 0xE61 PUSH1 0x60 DUP4 ADD DUP6 PUSH2 0xE09 JUMP JUMPDEST PUSH2 0xE6E PUSH1 0x80 DUP4 ADD DUP5 PUSH2 0xE18 JUMP JUMPDEST SWAP7 SWAP6 POP POP POP POP POP POP JUMP JUMPDEST PUSH0 PUSH1 0x40 DUP3 ADD SWAP1 POP PUSH2 0xE8B PUSH0 DUP4 ADD DUP6 PUSH2 0xE09 JUMP JUMPDEST PUSH2 0xE98 PUSH1 0x20 DUP4 ADD DUP5 PUSH2 0xE09 JUMP JUMPDEST SWAP4 SWAP3 POP POP POP JUMP JUMPDEST PUSH0 DUP3 DUP3 MSTORE PUSH1 0x20 DUP3 ADD SWAP1 POP SWAP3 SWAP2 POP POP JUMP JUMPDEST DUP3 DUP2 DUP4 MCOPY PUSH0 DUP4 DUP4 ADD MSTORE POP POP POP JUMP JUMPDEST PUSH0 PUSH1 0x1F NOT PUSH1 0x1F DUP4 ADD AND SWAP1 POP SWAP2 SWAP1 POP JUMP JUMPDEST PUSH0 PUSH2 0xED7 DUP3 PUSH2 0xAE8 JUMP JUMPDEST PUSH2 0xEE1 DUP2 DUP6 PUSH2 0xE9F JUMP JUMPDEST SWAP4 POP PUSH2 0xEF1 DUP2 DUP6 PUSH1 0x20 DUP7 ADD PUSH2 0xEAF JUMP JUMPDEST PUSH2 0xEFA DUP2 PUSH2 0xEBD JUMP JUMPDEST DUP5 ADD SWAP2 POP POP SWAP3 SWAP2 POP POP JUMP JUMPDEST PUSH0 PUSH1 0x20 DUP3 ADD SWAP1 POP DUP2 DUP2 SUB PUSH0 DUP4 ADD MSTORE PUSH2 0xF1D DUP2 DUP5 PUSH2 0xECD JUMP JUMPDEST SWAP1 POP SWAP3 SWAP2 POP POP JUMP JUMPDEST PUSH0 DUP2 MLOAD SWAP1 POP SWAP2 SWAP1 POP JUMP JUMPDEST PUSH0 DUP2 SWAP1 POP PUSH1 0x20 DUP3 ADD SWAP1 POP SWAP2 SWAP1 POP JUMP JUMPDEST PUSH0 PUSH2 0xF49 DUP3 MLOAD PUSH2 0xDF1 JUMP JUMPDEST DUP1 SWAP2 POP POP SWAP2 SWAP1 POP JUMP JUMPDEST PUSH0 PUSH2 0xF5C DUP3 PUSH2 0xF25 JUMP JUMPDEST DUP3 PUSH2 0xF66 DUP5 PUSH2 0xF2F JUMP JUMPDEST SWAP1 POP PUSH2 0xF71 DUP2 PUSH2 0xF3E JUMP JUMPDEST SWAP3 POP PUSH1 0x20 DUP3 LT ISZERO PUSH2 0xFB1 JUMPI PUSH2 0xFAC PUSH32 0xFFFFFFFFFFFFFFFFFFFFFFFFFFFFFFFFFFFFFFFFFFFFFFFFFFFFFFFFFFFFFFFF DUP4 PUSH1 0x20 SUB PUSH1 0x8 MUL PUSH2 0xB9D JUMP JUMPDEST DUP4 AND SWAP3 POP JUMPDEST POP POP SWAP2 SWAP1 POP JUMP JUMPDEST PUSH0 PUSH6 0xFFFFFFFFFFFF DUP3 AND SWAP1 POP SWAP2 SWAP1 POP JUMP JUMPDEST PUSH2 0xFD2 DUP2 PUSH2 0xFB8 JUMP JUMPDEST DUP2 EQ PUSH2 0xFDC JUMPI PUSH0 DUP1 REVERT JUMPDEST POP JUMP JUMPDEST PUSH0 DUP2 MLOAD SWAP1 POP PUSH2 0xFED DUP2 PUSH2 0xFC9 JUMP JUMPDEST SWAP3 SWAP2 POP POP JUMP JUMPDEST PUSH0 PUSH1 0x20 DUP3 DUP5 SUB SLT ISZERO PUSH2 0x1008 JUMPI PUSH2 0x1007 PUSH2 0xA00 JUMP JUMPDEST JUMPDEST PUSH0 PUSH2 0x1015 DUP5 DUP3 DUP6 ADD PUSH2 0xFDF JUMP JUMPDEST SWAP2 POP POP SWAP3 SWAP2 POP POP JUMP JUMPDEST PUSH0 DUP2 SWAP1 POP SWAP2 SWAP1 POP JUMP JUMPDEST PUSH0 PUSH1 0xFF DUP3 AND SWAP1 POP SWAP2 SWAP1 POP JUMP JUMPDEST PUSH0 PUSH2 0x104D PUSH2 0x1048 PUSH2 0x1043 DUP5 PUSH2 0x101E JUMP JUMPDEST PUSH2 0xC03 JUMP JUMPDEST PUSH2 0x1027 JUMP JUMPDEST SWAP1 POP SWAP2 SWAP1 POP JUMP JUMPDEST PUSH2 0x105D DUP2 PUSH2 0x1033 JUMP JUMPDEST DUP3 MSTORE POP POP JUMP JUMPDEST PUSH0 PUSH1 0x40 DUP3 ADD SWAP1 POP PUSH2 0x1076 PUSH0 DUP4 ADD DUP6 PUSH2 0x1054 JUMP JUMPDEST PUSH2 0x1083 PUSH1 0x20 DUP4 ADD DUP5 PUSH2 0xE09 JUMP JUMPDEST SWAP4 SWAP3 POP POP POP JUMP JUMPDEST PUSH32 0x4E487B7100000000000000000000000000000000000000000000000000000000 PUSH0 MSTORE PUSH1 0x11 PUSH1 0x4 MSTORE PUSH1 0x24 PUSH0 REVERT JUMPDEST PUSH0 PUSH2 0x10C1 DUP3 PUSH2 0xBFA JUMP JUMPDEST SWAP2 POP PUSH2 0x10CC DUP4 PUSH2 0xBFA JUMP JUMPDEST SWAP3 POP DUP3 DUP3 SUB SWAP1 POP DUP2 DUP2 GT ISZERO PUSH2 0x10E4 JUMPI PUSH2 0x10E3 PUSH2 0x108A JUMP JUMPDEST JUMPDEST SWAP3 SWAP2 POP POP JUMP JUMPDEST PUSH0 DUP2 SWAP1 POP SWAP2 SWAP1 POP JUMP JUMPDEST PUSH0 PUSH2 0x110D PUSH2 0x1108 PUSH2 0x1103 DUP5 PUSH2 0x10EA JUMP JUMPDEST PUSH2 0xC03 JUMP JUMPDEST PUSH2 0x1027 JUMP JUMPDEST SWAP1 POP SWAP2 SWAP1 POP JUMP JUMPDEST PUSH2 0x111D DUP2 PUSH2 0x10F3 JUMP JUMPDEST DUP3 MSTORE POP POP JUMP JUMPDEST PUSH0 PUSH1 0x40 DUP3 ADD SWAP1 POP PUSH2 0x1136 PUSH0 DUP4 ADD DUP6 PUSH2 0x1114 JUMP JUMPDEST PUSH2 0x1143 PUSH1 0x20 DUP4 ADD DUP5 PUSH2 0xE09 JUMP JUMPDEST SWAP4 SWAP3 POP POP POP JUMP JUMPDEST PUSH1 0x80 MLOAD PUSH1 0xA0 MLOAD PUSH1 0xC0 MLOAD PUSH1 0xE0 MLOAD PUSH2 0x100 MLOAD PUSH2 0x120 MLOAD PUSH2 0x140 MLOAD PUSH2 0x160 MLOAD PUSH2 0x68AD PUSH2 0x11A5 PUSH0 CODECOPY PUSH0 PUSH2 0x2574 ADD MSTORE PUSH0 PUSH2 0x33F6 ADD MSTORE PUSH0 PUSH2 0x33BB ADD MSTORE PUSH0 PUSH2 0x42A9 ADD MSTORE PUSH0 PUSH2 0x4288 ADD MSTORE PUSH0 PUSH2 0x374A ADD MSTORE PUSH0 PUSH2 0x37A0 ADD MSTORE PUSH0 PUSH2 0x37C9 ADD MSTORE PUSH2 0x68AD PUSH0 RETURN INVALID PUSH1 0x80 PUSH1 0x40 MSTORE PUSH1 0x4 CALLDATASIZE LT PUSH2 0x302 JUMPI PUSH0 CALLDATALOAD PUSH1 0xE0 SHR DUP1 PUSH4 0x7B3C71D3 GT PUSH2 0x18F JUMPI DUP1 PUSH4 0xBC197C81 GT PUSH2 0xDB JUMPI DUP1 PUSH4 0xDD4E2BA5 GT PUSH2 0x94 JUMPI DUP1 PUSH4 0xEC1CC695 GT PUSH2 0x6E JUMPI DUP1 PUSH4 0xEC1CC695 EQ PUSH2 0xCEF JUMPI DUP1 PUSH4 0xF23A6E61 EQ PUSH2 0xD2B JUMPI DUP1 PUSH4 0xF8CE560A EQ PUSH2 0xD67 JUMPI DUP1 PUSH4 0xFC0C546A EQ PUSH2 0xDA3 JUMPI PUSH2 0x375 JUMP JUMPDEST DUP1 PUSH4 0xDD4E2BA5 EQ PUSH2 0xC5F JUMPI DUP1 PUSH4 0xDEAAA7CC EQ PUSH2 0xC89 JUMPI DUP1 PUSH4 0xEB9019D4 EQ PUSH2 0xCB3 JUMPI PUSH2 0x375 JUMP JUMPDEST DUP1 PUSH4 0xBC197C81 EQ PUSH2 0xB4F JUMPI DUP1 PUSH4 0xBEC4DE3F EQ PUSH2 0xB8B JUMPI DUP1 PUSH4 0xC01F9E37 EQ PUSH2 0xBB5 JUMPI DUP1 PUSH4 0xC28BC2FA EQ PUSH2 0xBF1 JUMPI DUP1 PUSH4 0xC59057E4 EQ PUSH2 0xC0D JUMPI DUP1 PUSH4 0xC7B8981C EQ PUSH2 0xC49 JUMPI PUSH2 0x375 JUMP JUMPDEST DUP1 PUSH4 0x9231CF74 GT PUSH2 0x148 JUMPI DUP1 PUSH4 0xA7713A70 GT PUSH2 0x122 JUMPI DUP1 PUSH4 0xA7713A70 EQ PUSH2 0xA83 JUMPI DUP1 PUSH4 0xA9A95294 EQ PUSH2 0xAAD JUMPI DUP1 PUSH4 0xAB58FB8E EQ PUSH2 0xAE9 JUMPI DUP1 PUSH4 0xB58131B0 EQ PUSH2 0xB25 JUMPI PUSH2 0x375 JUMP JUMPDEST DUP1 PUSH4 0x9231CF74 EQ PUSH2 0x9F3 JUMPI DUP1 PUSH4 0x97C3D334 EQ PUSH2 0xA1D JUMPI DUP1 PUSH4 0x9A802A6D EQ PUSH2 0xA47 JUMPI PUSH2 0x375 JUMP JUMPDEST DUP1 PUSH4 0x7B3C71D3 EQ PUSH2 0x8A9 JUMPI DUP1 PUSH4 0x7D5E81E2 EQ PUSH2 0x8E5 JUMPI DUP1 PUSH4 0x7ECEBE00 EQ PUSH2 0x921 JUMPI DUP1 PUSH4 0x84B0196E EQ PUSH2 0x95D JUMPI DUP1 PUSH4 0x8FF262E3 EQ PUSH2 0x98D JUMPI DUP1 PUSH4 0x91DDADF4 EQ PUSH2 0x9C9 JUMPI PUSH2 0x375 JUMP JUMPDEST DUP1 PUSH4 0x3932ABB1 GT PUSH2 0x24E JUMPI DUP1 PUSH4 0x54FD4D50 GT PUSH2 0x207 JUMPI DUP1 PUSH4 0x5F398A14 GT PUSH2 0x1E1 JUMPI DUP1 PUSH4 0x5F398A14 EQ PUSH2 0x7CD JUMPI DUP1 PUSH4 0x60C4247F EQ PUSH2 0x809 JUMPI DUP1 PUSH4 0x6A326AB1 EQ PUSH2 0x845 JUMPI DUP1 PUSH4 0x709863E3 EQ PUSH2 0x86D JUMPI PUSH2 0x375 JUMP JUMPDEST DUP1 PUSH4 0x54FD4D50 EQ PUSH2 0x72B JUMPI DUP1 PUSH4 0x56781388 EQ PUSH2 0x755 JUMPI DUP1 PUSH4 0x5B8D0E0D EQ PUSH2 0x791 JUMPI PUSH2 0x375 JUMP JUMPDEST DUP1 PUSH4 0x3932ABB1 EQ PUSH2 0x5E5 JUMPI DUP1 PUSH4 0x3E4F49E6 EQ PUSH2 0x60F JUMPI DUP1 PUSH4 0x43859632 EQ PUSH2 0x64B JUMPI DUP1 PUSH4 0x452115D6 EQ PUSH2 0x687 JUMPI DUP1 PUSH4 0x4BF5D7E9 EQ PUSH2 0x6C3 JUMPI DUP1 PUSH4 0x544FFC9C EQ PUSH2 0x6ED JUMPI PUSH2 0x375 JUMP JUMPDEST DUP1 PUSH4 0x160CBED7 GT PUSH2 0x2BB JUMPI DUP1 PUSH4 0x2D63F693 GT PUSH2 0x295 JUMPI DUP1 PUSH4 0x2D63F693 EQ PUSH2 0x53F JUMPI DUP1 PUSH4 0x2FE3E261 EQ PUSH2 0x57B JUMPI DUP1 PUSH4 0x3013CE29 EQ PUSH2 0x5A5 JUMPI DUP1 PUSH4 0x372500AB EQ PUSH2 0x5CF JUMPI PUSH2 0x375 JUMP JUMPDEST DUP1 PUSH4 0x160CBED7 EQ PUSH2 0x4A9 JUMPI DUP1 PUSH4 0x18160DDD EQ PUSH2 0x4E5 JUMPI DUP1 PUSH4 0x2656227D EQ PUSH2 0x50F JUMPI PUSH2 0x375 JUMP JUMPDEST DUP1 PUSH4 0x1FFC9A7 EQ PUSH2 0x379 JUMPI DUP1 PUSH4 0x2A251A3 EQ PUSH2 0x3B5 JUMPI DUP1 PUSH4 0x6F3F9E6 EQ PUSH2 0x3DF JUMPI DUP1 PUSH4 0x6FDDE03 EQ PUSH2 0x407 JUMPI DUP1 PUSH4 0x143489D0 EQ PUSH2 0x431 JUMPI DUP1 PUSH4 0x150B7A02 EQ PUSH2 0x46D JUMPI PUSH2 0x375 JUMP JUMPDEST CALLDATASIZE PUSH2 0x375 JUMPI ADDRESS PUSH20 0xFFFFFFFFFFFFFFFFFFFFFFFFFFFFFFFFFFFFFFFF AND PUSH2 0x326 PUSH2 0xDCD JUMP JUMPDEST PUSH20 0xFFFFFFFFFFFFFFFFFFFFFFFFFFFFFFFFFFFFFFFF AND EQ PUSH2 0x373 JUMPI PUSH1 0x40 MLOAD PUSH32 0xE90A651E00000000000000000000000000000000000000000000000000000000 DUP2 MSTORE PUSH1 0x4 ADD PUSH1 0x40 MLOAD DUP1 SWAP2 SUB SWAP1 REVERT JUMPDEST STOP JUMPDEST PUSH0 DUP1 REVERT JUMPDEST CALLVALUE DUP1 ISZERO PUSH2 0x384 JUMPI PUSH0 DUP1 REVERT JUMPDEST POP PUSH2 0x39F PUSH1 0x4 DUP1 CALLDATASIZE SUB DUP2 ADD SWAP1 PUSH2 0x39A SWAP2 SWAP1 PUSH2 0x461A JUMP JUMPDEST PUSH2 0xDD4 JUMP JUMPDEST PUSH1 0x40 MLOAD PUSH2 0x3AC SWAP2 SWAP1 PUSH2 0x465F JUMP JUMPDEST PUSH1 0x40 MLOAD DUP1 SWAP2 SUB SWAP1 RETURN JUMPDEST CALLVALUE DUP1 ISZERO PUSH2 0x3C0 JUMPI PUSH0 DUP1 REVERT JUMPDEST POP PUSH2 0x3C9 PUSH2 0xEB5 JUMP JUMPDEST PUSH1 0x40 MLOAD PUSH2 0x3D6 SWAP2 SWAP1 PUSH2 0x4690 JUMP JUMPDEST PUSH1 0x40 MLOAD DUP1 SWAP2 SUB SWAP1 RETURN JUMPDEST CALLVALUE DUP1 ISZERO PUSH2 0x3EA JUMPI PUSH0 DUP1 REVERT JUMPDEST POP PUSH2 0x405 PUSH1 0x4 DUP1 CALLDATASIZE SUB DUP2 ADD SWAP1 PUSH2 0x400 SWAP2 SWAP1 PUSH2 0x46D3 JUMP JUMPDEST PUSH2 0xEBF JUMP JUMPDEST STOP JUMPDEST CALLVALUE DUP1 ISZERO PUSH2 0x412 JUMPI PUSH0 DUP1 REVERT JUMPDEST POP PUSH2 0x41B PUSH2 0xED3 JUMP JUMPDEST PUSH1 0x40 MLOAD PUSH2 0x428 SWAP2 SWAP1 PUSH2 0x476E JUMP JUMPDEST PUSH1 0x40 MLOAD DUP1 SWAP2 SUB SWAP1 RETURN JUMPDEST CALLVALUE DUP1 ISZERO PUSH2 0x43C JUMPI PUSH0 DUP1 REVERT JUMPDEST POP PUSH2 0x457 PUSH1 0x4 DUP1 CALLDATASIZE SUB DUP2 ADD SWAP1 PUSH2 0x452 SWAP2 SWAP1 PUSH2 0x46D3 JUMP JUMPDEST PUSH2 0xF63 JUMP JUMPDEST PUSH1 0x40 MLOAD PUSH2 0x464 SWAP2 SWAP1 PUSH2 0x47CD JUMP JUMPDEST PUSH1 0x40 MLOAD DUP1 SWAP2 SUB SWAP1 RETURN JUMPDEST CALLVALUE DUP1 ISZERO PUSH2 0x478 JUMPI PUSH0 DUP1 REVERT JUMPDEST POP PUSH2 0x493 PUSH1 0x4 DUP1 CALLDATASIZE SUB DUP2 ADD SWAP1 PUSH2 0x48E SWAP2 SWAP1 PUSH2 0x493C JUMP JUMPDEST PUSH2 0xF9E JUMP JUMPDEST PUSH1 0x40 MLOAD PUSH2 0x4A0 SWAP2 SWAP1 PUSH2 0x49CB JUMP JUMPDEST PUSH1 0x40 MLOAD DUP1 SWAP2 SUB SWAP1 RETURN JUMPDEST CALLVALUE DUP1 ISZERO PUSH2 0x4B4 JUMPI PUSH0 DUP1 REVERT JUMPDEST POP PUSH2 0x4CF PUSH1 0x4 DUP1 CALLDATASIZE SUB DUP2 ADD SWAP1 PUSH2 0x4CA SWAP2 SWAP1 PUSH2 0x4C79 JUMP JUMPDEST PUSH2 0x101D JUMP JUMPDEST PUSH1 0x40 MLOAD PUSH2 0x4DC SWAP2 SWAP1 PUSH2 0x4690 JUMP JUMPDEST PUSH1 0x40 MLOAD DUP1 SWAP2 SUB SWAP1 RETURN JUMPDEST CALLVALUE DUP1 ISZERO PUSH2 0x4F0 JUMPI PUSH0 DUP1 REVERT JUMPDEST POP PUSH2 0x4F9 PUSH2 0x1113 JUMP JUMPDEST PUSH1 0x40 MLOAD PUSH2 0x506 SWAP2 SWAP1 PUSH2 0x4690 JUMP JUMPDEST PUSH1 0x40 MLOAD DUP1 SWAP2 SUB SWAP1 RETURN JUMPDEST PUSH2 0x529 PUSH1 0x4 DUP1 CALLDATASIZE SUB DUP2 ADD SWAP1 PUSH2 0x524 SWAP2 SWAP1 PUSH2 0x4C79 JUMP JUMPDEST PUSH2 0x11BE JUMP JUMPDEST PUSH1 0x40 MLOAD PUSH2 0x536 SWAP2 SWAP1 PUSH2 0x4690 JUMP JUMPDEST PUSH1 0x40 MLOAD DUP1 SWAP2 SUB SWAP1 RETURN JUMPDEST CALLVALUE DUP1 ISZERO PUSH2 0x54A JUMPI PUSH0 DUP1 REVERT JUMPDEST POP PUSH2 0x565 PUSH1 0x4 DUP1 CALLDATASIZE SUB DUP2 ADD SWAP1 PUSH2 0x560 SWAP2 SWAP1 PUSH2 0x46D3 JUMP JUMPDEST PUSH2 0x1398 JUMP JUMPDEST PUSH1 0x40 MLOAD PUSH2 0x572 SWAP2 SWAP1 PUSH2 0x4690 JUMP JUMPDEST PUSH1 0x40 MLOAD DUP1 SWAP2 SUB SWAP1 RETURN JUMPDEST CALLVALUE DUP1 ISZERO PUSH2 0x586 JUMPI PUSH0 DUP1 REVERT JUMPDEST POP PUSH2 0x58F PUSH2 0x13CE JUMP JUMPDEST PUSH1 0x40 MLOAD PUSH2 0x59C SWAP2 SWAP1 PUSH2 0x4D40 JUMP JUMPDEST PUSH1 0x40 MLOAD DUP1 SWAP2 SUB SWAP1 RETURN JUMPDEST CALLVALUE DUP1 ISZERO PUSH2 0x5B0 JUMPI PUSH0 DUP1 REVERT JUMPDEST POP PUSH2 0x5B9 PUSH2 0x13F2 JUMP JUMPDEST PUSH1 0x40 MLOAD PUSH2 0x5C6 SWAP2 SWAP1 PUSH2 0x4DB4 JUMP JUMPDEST PUSH1 0x40 MLOAD DUP1 SWAP2 SUB SWAP1 RETURN JUMPDEST CALLVALUE DUP1 ISZERO PUSH2 0x5DA JUMPI PUSH0 DUP1 REVERT JUMPDEST POP PUSH2 0x5E3 PUSH2 0x1417 JUMP JUMPDEST STOP JUMPDEST CALLVALUE DUP1 ISZERO PUSH2 0x5F0 JUMPI PUSH0 DUP1 REVERT JUMPDEST POP PUSH2 0x5F9 PUSH2 0x159E JUMP JUMPDEST PUSH1 0x40 MLOAD PUSH2 0x606 SWAP2 SWAP1 PUSH2 0x4690 JUMP JUMPDEST PUSH1 0x40 MLOAD DUP1 SWAP2 SUB SWAP1 RETURN JUMPDEST CALLVALUE DUP1 ISZERO PUSH2 0x61A JUMPI PUSH0 DUP1 REVERT JUMPDEST POP PUSH2 0x635 PUSH1 0x4 DUP1 CALLDATASIZE SUB DUP2 ADD SWAP1 PUSH2 0x630 SWAP2 SWAP1 PUSH2 0x46D3 JUMP JUMPDEST PUSH2 0x15A8 JUMP JUMPDEST PUSH1 0x40 MLOAD PUSH2 0x642 SWAP2 SWAP1 PUSH2 0x4E40 JUMP JUMPDEST PUSH1 0x40 MLOAD DUP1 SWAP2 SUB SWAP1 RETURN JUMPDEST CALLVALUE DUP1 ISZERO PUSH2 0x656 JUMPI PUSH0 DUP1 REVERT JUMPDEST POP PUSH2 0x671 PUSH1 0x4 DUP1 CALLDATASIZE SUB DUP2 ADD SWAP1 PUSH2 0x66C SWAP2 SWAP1 PUSH2 0x4E59 JUMP JUMPDEST PUSH2 0x16FF JUMP JUMPDEST PUSH1 0x40 MLOAD PUSH2 0x67E SWAP2 SWAP1 PUSH2 0x465F JUMP JUMPDEST PUSH1 0x40 MLOAD DUP1 SWAP2 SUB SWAP1 RETURN JUMPDEST CALLVALUE DUP1 ISZERO PUSH2 0x692 JUMPI PUSH0 DUP1 REVERT JUMPDEST POP PUSH2 0x6AD PUSH1 0x4 DUP1 CALLDATASIZE SUB DUP2 ADD SWAP1 PUSH2 0x6A8 SWAP2 SWAP1 PUSH2 0x4C79 JUMP JUMPDEST PUSH2 0x1764 JUMP JUMPDEST PUSH1 0x40 MLOAD PUSH2 0x6BA SWAP2 SWAP1 PUSH2 0x4690 JUMP JUMPDEST PUSH1 0x40 MLOAD DUP1 SWAP2 SUB SWAP1 RETURN JUMPDEST CALLVALUE DUP1 ISZERO PUSH2 0x6CE JUMPI PUSH0 DUP1 REVERT JUMPDEST POP PUSH2 0x6D7 PUSH2 0x1824 JUMP JUMPDEST PUSH1 0x40 MLOAD PUSH2 0x6E4 SWAP2 SWAP1 PUSH2 0x476E JUMP JUMPDEST PUSH1 0x40 MLOAD DUP1 SWAP2 SUB SWAP1 RETURN JUMPDEST CALLVALUE DUP1 ISZERO PUSH2 0x6F8 JUMPI PUSH0 DUP1 REVERT JUMPDEST POP PUSH2 0x713 PUSH1 0x4 DUP1 CALLDATASIZE SUB DUP2 ADD SWAP1 PUSH2 0x70E SWAP2 SWAP1 PUSH2 0x46D3 JUMP JUMPDEST PUSH2 0x18E1 JUMP JUMPDEST PUSH1 0x40 MLOAD PUSH2 0x722 SWAP4 SWAP3 SWAP2 SWAP1 PUSH2 0x4E97 JUMP JUMPDEST PUSH1 0x40 MLOAD DUP1 SWAP2 SUB SWAP1 RETURN JUMPDEST CALLVALUE DUP1 ISZERO PUSH2 0x736 JUMPI PUSH0 DUP1 REVERT JUMPDEST POP PUSH2 0x73F PUSH2 0x1914 JUMP JUMPDEST PUSH1 0x40 MLOAD PUSH2 0x74C SWAP2 SWAP1 PUSH2 0x476E JUMP JUMPDEST PUSH1 0x40 MLOAD DUP1 SWAP2 SUB SWAP1 RETURN JUMPDEST CALLVALUE DUP1 ISZERO PUSH2 0x760 JUMPI PUSH0 DUP1 REVERT JUMPDEST POP PUSH2 0x77B PUSH1 0x4 DUP1 CALLDATASIZE SUB DUP2 ADD SWAP1 PUSH2 0x776 SWAP2 SWAP1 PUSH2 0x4F02 JUMP JUMPDEST PUSH2 0x1951 JUMP JUMPDEST PUSH1 0x40 MLOAD PUSH2 0x788 SWAP2 SWAP1 PUSH2 0x4690 JUMP JUMPDEST PUSH1 0x40 MLOAD DUP1 SWAP2 SUB SWAP1 RETURN JUMPDEST CALLVALUE DUP1 ISZERO PUSH2 0x79C JUMPI PUSH0 DUP1 REVERT JUMPDEST POP PUSH2 0x7B7 PUSH1 0x4 DUP1 CALLDATASIZE SUB DUP2 ADD SWAP1 PUSH2 0x7B2 SWAP2 SWAP1 PUSH2 0x4F99 JUMP JUMPDEST PUSH2 0x1980 JUMP JUMPDEST PUSH1 0x40 MLOAD PUSH2 0x7C4 SWAP2 SWAP1 PUSH2 0x4690 JUMP JUMPDEST PUSH1 0x40 MLOAD DUP1 SWAP2 SUB SWAP1 RETURN JUMPDEST CALLVALUE DUP1 ISZERO PUSH2 0x7D8 JUMPI PUSH0 DUP1 REVERT JUMPDEST POP PUSH2 0x7F3 PUSH1 0x4 DUP1 CALLDATASIZE SUB DUP2 ADD SWAP1 PUSH2 0x7EE SWAP2 SWAP1 PUSH2 0x507B JUMP JUMPDEST PUSH2 0x1AAF JUMP JUMPDEST PUSH1 0x40 MLOAD PUSH2 0x800 SWAP2 SWAP1 PUSH2 0x4690 JUMP JUMPDEST PUSH1 0x40 MLOAD DUP1 SWAP2 SUB SWAP1 RETURN JUMPDEST CALLVALUE DUP1 ISZERO PUSH2 0x814 JUMPI PUSH0 DUP1 REVERT JUMPDEST POP PUSH2 0x82F PUSH1 0x4 DUP1 CALLDATASIZE SUB DUP2 ADD SWAP1 PUSH2 0x82A SWAP2 SWAP1 PUSH2 0x46D3 JUMP JUMPDEST PUSH2 0x1B17 JUMP JUMPDEST PUSH1 0x40 MLOAD PUSH2 0x83C SWAP2 SWAP1 PUSH2 0x4690 JUMP JUMPDEST PUSH1 0x40 MLOAD DUP1 SWAP2 SUB SWAP1 RETURN JUMPDEST CALLVALUE DUP1 ISZERO PUSH2 0x850 JUMPI PUSH0 DUP1 REVERT JUMPDEST POP PUSH2 0x86B PUSH1 0x4 DUP1 CALLDATASIZE SUB DUP2 ADD SWAP1 PUSH2 0x866 SWAP2 SWAP1 PUSH2 0x5156 JUMP JUMPDEST PUSH2 0x1C10 JUMP JUMPDEST STOP JUMPDEST CALLVALUE DUP1 ISZERO PUSH2 0x878 JUMPI PUSH0 DUP1 REVERT JUMPDEST POP PUSH2 0x893 PUSH1 0x4 DUP1 CALLDATASIZE SUB DUP2 ADD SWAP1 PUSH2 0x88E SWAP2 SWAP1 PUSH2 0x5181 JUMP JUMPDEST PUSH2 0x1C5B JUMP JUMPDEST PUSH1 0x40 MLOAD PUSH2 0x8A0 SWAP2 SWAP1 PUSH2 0x4690 JUMP JUMPDEST PUSH1 0x40 MLOAD DUP1 SWAP2 SUB SWAP1 RETURN JUMPDEST CALLVALUE DUP1 ISZERO PUSH2 0x8B4 JUMPI PUSH0 DUP1 REVERT JUMPDEST POP PUSH2 0x8CF PUSH1 0x4 DUP1 CALLDATASIZE SUB DUP2 ADD SWAP1 PUSH2 0x8CA SWAP2 SWAP1 PUSH2 0x51AC JUMP JUMPDEST PUSH2 0x1C70 JUMP JUMPDEST PUSH1 0x40 MLOAD PUSH2 0x8DC SWAP2 SWAP1 PUSH2 0x4690 JUMP JUMPDEST PUSH1 0x40 MLOAD DUP1 SWAP2 SUB SWAP1 RETURN JUMPDEST CALLVALUE DUP1 ISZERO PUSH2 0x8F0 JUMPI PUSH0 DUP1 REVERT JUMPDEST POP PUSH2 0x90B PUSH1 0x4 DUP1 CALLDATASIZE SUB DUP2 ADD SWAP1 PUSH2 0x906 SWAP2 SWAP1 PUSH2 0x52BB JUMP JUMPDEST PUSH2 0x1CD6 JUMP JUMPDEST PUSH1 0x40 MLOAD PUSH2 0x918 SWAP2 SWAP1 PUSH2 0x4690 JUMP JUMPDEST PUSH1 0x40 MLOAD DUP1 SWAP2 SUB SWAP1 RETURN JUMPDEST CALLVALUE DUP1 ISZERO PUSH2 0x92C JUMPI PUSH0 DUP1 REVERT JUMPDEST POP PUSH2 0x947 PUSH1 0x4 DUP1 CALLDATASIZE SUB DUP2 ADD SWAP1 PUSH2 0x942 SWAP2 SWAP1 PUSH2 0x5181 JUMP JUMPDEST PUSH2 0x1DC3 JUMP JUMPDEST PUSH1 0x40 MLOAD PUSH2 0x954 SWAP2 SWAP1 PUSH2 0x4690 JUMP JUMPDEST PUSH1 0x40 MLOAD DUP1 SWAP2 SUB SWAP1 RETURN JUMPDEST CALLVALUE DUP1 ISZERO PUSH2 0x968 JUMPI PUSH0 DUP1 REVERT JUMPDEST POP PUSH2 0x971 PUSH2 0x1E09 JUMP JUMPDEST PUSH1 0x40 MLOAD PUSH2 0x984 SWAP8 SWAP7 SWAP6 SWAP5 SWAP4 SWAP3 SWAP2 SWAP1 PUSH2 0x5480 JUMP JUMPDEST PUSH1 0x40 MLOAD DUP1 SWAP2 SUB SWAP1 RETURN JUMPDEST CALLVALUE DUP1 ISZERO PUSH2 0x998 JUMPI PUSH0 DUP1 REVERT JUMPDEST POP PUSH2 0x9B3 PUSH1 0x4 DUP1 CALLDATASIZE SUB DUP2 ADD SWAP1 PUSH2 0x9AE SWAP2 SWAP1 PUSH2 0x5502 JUMP JUMPDEST PUSH2 0x1EAE JUMP JUMPDEST PUSH1 0x40 MLOAD PUSH2 0x9C0 SWAP2 SWAP1 PUSH2 0x4690 JUMP JUMPDEST PUSH1 0x40 MLOAD DUP1 SWAP2 SUB SWAP1 RETURN JUMPDEST CALLVALUE DUP1 ISZERO PUSH2 0x9D4 JUMPI PUSH0 DUP1 REVERT JUMPDEST POP PUSH2 0x9DD PUSH2 0x1F82 JUMP JUMPDEST PUSH1 0x40 MLOAD PUSH2 0x9EA SWAP2 SWAP1 PUSH2 0x55A2 JUMP JUMPDEST PUSH1 0x40 MLOAD DUP1 SWAP2 SUB SWAP1 RETURN JUMPDEST CALLVALUE DUP1 ISZERO PUSH2 0x9FE JUMPI PUSH0 DUP1 REVERT JUMPDEST POP PUSH2 0xA07 PUSH2 0x200D JUMP JUMPDEST PUSH1 0x40 MLOAD PUSH2 0xA14 SWAP2 SWAP1 PUSH2 0x4690 JUMP JUMPDEST PUSH1 0x40 MLOAD DUP1 SWAP2 SUB SWAP1 RETURN JUMPDEST CALLVALUE DUP1 ISZERO PUSH2 0xA28 JUMPI PUSH0 DUP1 REVERT JUMPDEST POP PUSH2 0xA31 PUSH2 0x2013 JUMP JUMPDEST PUSH1 0x40 MLOAD PUSH2 0xA3E SWAP2 SWAP1 PUSH2 0x4690 JUMP JUMPDEST PUSH1 0x40 MLOAD DUP1 SWAP2 SUB SWAP1 RETURN JUMPDEST CALLVALUE DUP1 ISZERO PUSH2 0xA52 JUMPI PUSH0 DUP1 REVERT JUMPDEST POP PUSH2 0xA6D PUSH1 0x4 DUP1 CALLDATASIZE SUB DUP2 ADD SWAP1 PUSH2 0xA68 SWAP2 SWAP1 PUSH2 0x55BB JUMP JUMPDEST PUSH2 0x201B JUMP JUMPDEST PUSH1 0x40 MLOAD PUSH2 0xA7A SWAP2 SWAP1 PUSH2 0x4690 JUMP JUMPDEST PUSH1 0x40 MLOAD DUP1 SWAP2 SUB SWAP1 RETURN JUMPDEST CALLVALUE DUP1 ISZERO PUSH2 0xA8E JUMPI PUSH0 DUP1 REVERT JUMPDEST POP PUSH2 0xA97 PUSH2 0x2030 JUMP JUMPDEST PUSH1 0x40 MLOAD PUSH2 0xAA4 SWAP2 SWAP1 PUSH2 0x4690 JUMP JUMPDEST PUSH1 0x40 MLOAD DUP1 SWAP2 SUB SWAP1 RETURN JUMPDEST CALLVALUE DUP1 ISZERO PUSH2 0xAB8 JUMPI PUSH0 DUP1 REVERT JUMPDEST POP PUSH2 0xAD3 PUSH1 0x4 DUP1 CALLDATASIZE SUB DUP2 ADD SWAP1 PUSH2 0xACE SWAP2 SWAP1 PUSH2 0x46D3 JUMP JUMPDEST PUSH2 0x205C JUMP JUMPDEST PUSH1 0x40 MLOAD PUSH2 0xAE0 SWAP2 SWAP1 PUSH2 0x465F JUMP JUMPDEST PUSH1 0x40 MLOAD DUP1 SWAP2 SUB SWAP1 RETURN JUMPDEST CALLVALUE DUP1 ISZERO PUSH2 0xAF4 JUMPI PUSH0 DUP1 REVERT JUMPDEST POP PUSH2 0xB0F PUSH1 0x4 DUP1 CALLDATASIZE SUB DUP2 ADD SWAP1 PUSH2 0xB0A SWAP2 SWAP1 PUSH2 0x46D3 JUMP JUMPDEST PUSH2 0x2062 JUMP JUMPDEST PUSH1 0x40 MLOAD PUSH2 0xB1C SWAP2 SWAP1 PUSH2 0x4690 JUMP JUMPDEST PUSH1 0x40 MLOAD DUP1 SWAP2 SUB SWAP1 RETURN JUMPDEST CALLVALUE DUP1 ISZERO PUSH2 0xB30 JUMPI PUSH0 DUP1 REVERT JUMPDEST POP PUSH2 0xB39 PUSH2 0x2098 JUMP JUMPDEST PUSH1 0x40 MLOAD PUSH2 0xB46 SWAP2 SWAP1 PUSH2 0x4690 JUMP JUMPDEST PUSH1 0x40 MLOAD DUP1 SWAP2 SUB SWAP1 RETURN JUMPDEST CALLVALUE DUP1 ISZERO PUSH2 0xB5A JUMPI PUSH0 DUP1 REVERT JUMPDEST POP PUSH2 0xB75 PUSH1 0x4 DUP1 CALLDATASIZE SUB DUP2 ADD SWAP1 PUSH2 0xB70 SWAP2 SWAP1 PUSH2 0x5627 JUMP JUMPDEST PUSH2 0x209C JUMP JUMPDEST PUSH1 0x40 MLOAD PUSH2 0xB82 SWAP2 SWAP1 PUSH2 0x49CB JUMP JUMPDEST PUSH1 0x40 MLOAD DUP1 SWAP2 SUB SWAP1 RETURN JUMPDEST CALLVALUE DUP1 ISZERO PUSH2 0xB96 JUMPI PUSH0 DUP1 REVERT JUMPDEST POP PUSH2 0xB9F PUSH2 0x211C JUMP JUMPDEST PUSH1 0x40 MLOAD PUSH2 0xBAC SWAP2 SWAP1 PUSH2 0x4690 JUMP JUMPDEST PUSH1 0x40 MLOAD DUP1 SWAP2 SUB SWAP1 RETURN JUMPDEST CALLVALUE DUP1 ISZERO PUSH2 0xBC0 JUMPI PUSH0 DUP1 REVERT JUMPDEST POP PUSH2 0xBDB PUSH1 0x4 DUP1 CALLDATASIZE SUB DUP2 ADD SWAP1 PUSH2 0xBD6 SWAP2 SWAP1 PUSH2 0x46D3 JUMP JUMPDEST PUSH2 0x2122 JUMP JUMPDEST PUSH1 0x40 MLOAD PUSH2 0xBE8 SWAP2 SWAP1 PUSH2 0x4690 JUMP JUMPDEST PUSH1 0x40 MLOAD DUP1 SWAP2 SUB SWAP1 RETURN JUMPDEST PUSH2 0xC0B PUSH1 0x4 DUP1 CALLDATASIZE SUB DUP2 ADD SWAP1 PUSH2 0xC06 SWAP2 SWAP1 PUSH2 0x5747 JUMP JUMPDEST PUSH2 0x218C JUMP JUMPDEST STOP JUMPDEST CALLVALUE DUP1 ISZERO PUSH2 0xC18 JUMPI PUSH0 DUP1 REVERT JUMPDEST POP PUSH2 0xC33 PUSH1 0x4 DUP1 CALLDATASIZE SUB DUP2 ADD SWAP1 PUSH2 0xC2E SWAP2 SWAP1 PUSH2 0x4C79 JUMP JUMPDEST PUSH2 0x2215 JUMP JUMPDEST PUSH1 0x40 MLOAD PUSH2 0xC40 SWAP2 SWAP1 PUSH2 0x4690 JUMP JUMPDEST PUSH1 0x40 MLOAD DUP1 SWAP2 SUB SWAP1 RETURN JUMPDEST CALLVALUE DUP1 ISZERO PUSH2 0xC54 JUMPI PUSH0 DUP1 REVERT JUMPDEST POP PUSH2 0xC5D PUSH2 0x224F JUMP JUMPDEST STOP JUMPDEST CALLVALUE DUP1 ISZERO PUSH2 0xC6A JUMPI PUSH0 DUP1 REVERT JUMPDEST POP PUSH2 0xC73 PUSH2 0x23B4 JUMP JUMPDEST PUSH1 0x40 MLOAD PUSH2 0xC80 SWAP2 SWAP1 PUSH2 0x476E JUMP JUMPDEST PUSH1 0x40 MLOAD DUP1 SWAP2 SUB SWAP1 RETURN JUMPDEST CALLVALUE DUP1 ISZERO PUSH2 0xC94 JUMPI PUSH0 DUP1 REVERT JUMPDEST POP PUSH2 0xC9D PUSH2 0x23F1 JUMP JUMPDEST PUSH1 0x40 MLOAD PUSH2 0xCAA SWAP2 SWAP1 PUSH2 0x4D40 JUMP JUMPDEST PUSH1 0x40 MLOAD DUP1 SWAP2 SUB SWAP1 RETURN JUMPDEST CALLVALUE DUP1 ISZERO PUSH2 0xCBE JUMPI PUSH0 DUP1 REVERT JUMPDEST POP PUSH2 0xCD9 PUSH1 0x4 DUP1 CALLDATASIZE SUB DUP2 ADD SWAP1 PUSH2 0xCD4 SWAP2 SWAP1 PUSH2 0x57B8 JUMP JUMPDEST PUSH2 0x2415 JUMP JUMPDEST PUSH1 0x40 MLOAD PUSH2 0xCE6 SWAP2 SWAP1 PUSH2 0x4690 JUMP JUMPDEST PUSH1 0x40 MLOAD DUP1 SWAP2 SUB SWAP1 RETURN JUMPDEST CALLVALUE DUP1 ISZERO PUSH2 0xCFA JUMPI PUSH0 DUP1 REVERT JUMPDEST POP PUSH2 0xD15 PUSH1 0x4 DUP1 CALLDATASIZE SUB DUP2 ADD SWAP1 PUSH2 0xD10 SWAP2 SWAP1 PUSH2 0x5181 JUMP JUMPDEST PUSH2 0x2430 JUMP JUMPDEST PUSH1 0x40 MLOAD PUSH2 0xD22 SWAP2 SWAP1 PUSH2 0x4690 JUMP JUMPDEST PUSH1 0x40 MLOAD DUP1 SWAP2 SUB SWAP1 RETURN JUMPDEST CALLVALUE DUP1 ISZERO PUSH2 0xD36 JUMPI PUSH0 DUP1 REVERT JUMPDEST POP PUSH2 0xD51 PUSH1 0x4 DUP1 CALLDATASIZE SUB DUP2 ADD SWAP1 PUSH2 0xD4C SWAP2 SWAP1 PUSH2 0x57F6 JUMP JUMPDEST PUSH2 0x2445 JUMP JUMPDEST PUSH1 0x40 MLOAD PUSH2 0xD5E SWAP2 SWAP1 PUSH2 0x49CB JUMP JUMPDEST PUSH1 0x40 MLOAD DUP1 SWAP2 SUB SWAP1 RETURN JUMPDEST CALLVALUE DUP1 ISZERO PUSH2 0xD72 JUMPI PUSH0 DUP1 REVERT JUMPDEST POP PUSH2 0xD8D PUSH1 0x4 DUP1 CALLDATASIZE SUB DUP2 ADD SWAP1 PUSH2 0xD88 SWAP2 SWAP1 PUSH2 0x46D3 JUMP JUMPDEST PUSH2 0x24C5 JUMP JUMPDEST PUSH1 0x40 MLOAD PUSH2 0xD9A SWAP2 SWAP1 PUSH2 0x4690 JUMP JUMPDEST PUSH1 0x40 MLOAD DUP1 SWAP2 SUB SWAP1 RETURN JUMPDEST CALLVALUE DUP1 ISZERO PUSH2 0xDAE JUMPI PUSH0 DUP1 REVERT JUMPDEST POP PUSH2 0xDB7 PUSH2 0x2571 JUMP JUMPDEST PUSH1 0x40 MLOAD PUSH2 0xDC4 SWAP2 SWAP1 PUSH2 0x58A9 JUMP JUMPDEST PUSH1 0x40 MLOAD DUP1 SWAP2 SUB SWAP1 RETURN JUMPDEST PUSH0 ADDRESS SWAP1 POP SWAP1 JUMP JUMPDEST PUSH0 PUSH32 0x65455A8600000000000000000000000000000000000000000000000000000000 PUSH28 0xFFFFFFFFFFFFFFFFFFFFFFFFFFFFFFFFFFFFFFFFFFFFFFFFFFFFFFFF NOT AND DUP3 PUSH28 0xFFFFFFFFFFFFFFFFFFFFFFFFFFFFFFFFFFFFFFFFFFFFFFFFFFFFFFFF NOT AND EQ DUP1 PUSH2 0xE9E JUMPI POP PUSH32 0x4E2312E000000000000000000000000000000000000000000000000000000000 PUSH28 0xFFFFFFFFFFFFFFFFFFFFFFFFFFFFFFFFFFFFFFFFFFFFFFFFFFFFFFFF NOT AND DUP3 PUSH28 0xFFFFFFFFFFFFFFFFFFFFFFFFFFFFFFFFFFFFFFFFFFFFFFFFFFFFFFFF NOT AND EQ JUMPDEST DUP1 PUSH2 0xEAE JUMPI POP PUSH2 0xEAD DUP3 PUSH2 0x2598 JUMP JUMPDEST JUMPDEST SWAP1 POP SWAP2 SWAP1 POP JUMP JUMPDEST PUSH0 PUSH3 0x93A80 SWAP1 POP SWAP1 JUMP JUMPDEST PUSH2 0xEC7 PUSH2 0x2601 JUMP JUMPDEST PUSH2 0xED0 DUP2 PUSH2 0x26F6 JUMP JUMPDEST POP JUMP JUMPDEST PUSH1 0x60 PUSH1 0x3 DUP1 SLOAD PUSH2 0xEE2 SWAP1 PUSH2 0x58EF JUMP JUMPDEST DUP1 PUSH1 0x1F ADD PUSH1 0x20 DUP1 SWAP2 DIV MUL PUSH1 0x20 ADD PUSH1 0x40 MLOAD SWAP1 DUP2 ADD PUSH1 0x40 MSTORE DUP1 SWAP3 SWAP2 SWAP1 DUP2 DUP2 MSTORE PUSH1 0x20 ADD DUP3 DUP1 SLOAD PUSH2 0xF0E SWAP1 PUSH2 0x58EF JUMP JUMPDEST DUP1 ISZERO PUSH2 0xF59 JUMPI DUP1 PUSH1 0x1F LT PUSH2 0xF30 JUMPI PUSH2 0x100 DUP1 DUP4 SLOAD DIV MUL DUP4 MSTORE SWAP2 PUSH1 0x20 ADD SWAP2 PUSH2 0xF59 JUMP JUMPDEST DUP3 ADD SWAP2 SWAP1 PUSH0 MSTORE PUSH1 0x20 PUSH0 KECCAK256 SWAP1 JUMPDEST DUP2 SLOAD DUP2 MSTORE SWAP1 PUSH1 0x1 ADD SWAP1 PUSH1 0x20 ADD DUP1 DUP4 GT PUSH2 0xF3C JUMPI DUP3 SWAP1 SUB PUSH1 0x1F AND DUP3 ADD SWAP2 JUMPDEST POP POP POP POP POP SWAP1 POP SWAP1 JUMP JUMPDEST PUSH0 PUSH1 0x4 PUSH0 DUP4 DUP2 MSTORE PUSH1 0x20 ADD SWAP1 DUP2 MSTORE PUSH1 0x20 ADD PUSH0 KECCAK256 PUSH0 ADD PUSH0 SWAP1 SLOAD SWAP1 PUSH2 0x100 EXP SWAP1 DIV PUSH20 0xFFFFFFFFFFFFFFFFFFFFFFFFFFFFFFFFFFFFFFFF AND SWAP1 POP SWAP2 SWAP1 POP JUMP JUMPDEST PUSH0 ADDRESS PUSH20 0xFFFFFFFFFFFFFFFFFFFFFFFFFFFFFFFFFFFFFFFF AND PUSH2 0xFBE PUSH2 0xDCD JUMP JUMPDEST PUSH20 0xFFFFFFFFFFFFFFFFFFFFFFFFFFFFFFFFFFFFFFFF AND EQ PUSH2 0x100B JUMPI PUSH1 0x40 MLOAD PUSH32 0xE90A651E00000000000000000000000000000000000000000000000000000000 DUP2 MSTORE PUSH1 0x4 ADD PUSH1 0x40 MLOAD DUP1 SWAP2 SUB SWAP1 REVERT JUMPDEST PUSH4 0x150B7A02 PUSH1 0xE0 SHL SWAP1 POP SWAP5 SWAP4 POP POP POP POP JUMP JUMPDEST PUSH0 DUP1 PUSH2 0x102B DUP7 DUP7 DUP7 DUP7 PUSH2 0x2215 JUMP JUMPDEST SWAP1 POP PUSH2 0x1040 DUP2 PUSH2 0x103B PUSH1 0x4 PUSH2 0x27B8 JUMP JUMPDEST PUSH2 0x27DC JUMP JUMPDEST POP PUSH0 PUSH2 0x104F DUP3 DUP9 DUP9 DUP9 DUP9 PUSH2 0x2847 JUMP JUMPDEST SWAP1 POP PUSH0 DUP2 PUSH6 0xFFFFFFFFFFFF AND EQ PUSH2 0x10D4 JUMPI DUP1 PUSH1 0x4 PUSH0 DUP5 DUP2 MSTORE PUSH1 0x20 ADD SWAP1 DUP2 MSTORE PUSH1 0x20 ADD PUSH0 KECCAK256 PUSH1 0x1 ADD PUSH0 PUSH2 0x100 EXP DUP2 SLOAD DUP2 PUSH6 0xFFFFFFFFFFFF MUL NOT AND SWAP1 DUP4 PUSH6 0xFFFFFFFFFFFF AND MUL OR SWAP1 SSTORE POP PUSH32 0x9A2E42FD6722813D69113E7D0079D3D940171428DF7373DF9C7F7617CFDA2892 DUP3 DUP3 PUSH1 0x40 MLOAD PUSH2 0x10C7 SWAP3 SWAP2 SWAP1 PUSH2 0x594F JUMP JUMPDEST PUSH1 0x40 MLOAD DUP1 SWAP2 SUB SWAP1 LOG1 PUSH2 0x1106 JUMP JUMPDEST PUSH1 0x40 MLOAD PUSH32 0x90884A4600000000000000000000000000000000000000000000000000000000 DUP2 MSTORE PUSH1 0x4 ADD PUSH1 0x40 MLOAD DUP1 SWAP2 SUB SWAP1 REVERT JUMPDEST DUP2 SWAP3 POP POP POP SWAP5 SWAP4 POP POP POP POP JUMP JUMPDEST PUSH0 PUSH1 0xE PUSH0 SWAP1 SLOAD SWAP1 PUSH2 0x100 EXP SWAP1 DIV PUSH20 0xFFFFFFFFFFFFFFFFFFFFFFFFFFFFFFFFFFFFFFFF AND PUSH20 0xFFFFFFFFFFFFFFFFFFFFFFFFFFFFFFFFFFFFFFFF AND PUSH4 0x8E539E8C PUSH1 0x1 NUMBER PUSH2 0x115E SWAP2 SWAP1 PUSH2 0x59A3 JUMP JUMPDEST PUSH1 0x40 MLOAD DUP3 PUSH4 0xFFFFFFFF AND PUSH1 0xE0 SHL DUP2 MSTORE PUSH1 0x4 ADD PUSH2 0x117A SWAP2 SWAP1 PUSH2 0x4690 JUMP JUMPDEST PUSH1 0x20 PUSH1 0x40 MLOAD DUP1 DUP4 SUB DUP2 DUP7 GAS STATICCALL ISZERO DUP1 ISZERO PUSH2 0x1195 JUMPI RETURNDATASIZE PUSH0 DUP1 RETURNDATACOPY RETURNDATASIZE PUSH0 REVERT JUMPDEST POP POP POP POP PUSH1 0x40 MLOAD RETURNDATASIZE PUSH1 0x1F NOT PUSH1 0x1F DUP3 ADD AND DUP3 ADD DUP1 PUSH1 0x40 MSTORE POP DUP2 ADD SWAP1 PUSH2 0x11B9 SWAP2 SWAP1 PUSH2 0x59EA JUMP JUMPDEST SWAP1 POP SWAP1 JUMP JUMPDEST PUSH0 DUP1 PUSH2 0x11CC DUP7 DUP7 DUP7 DUP7 PUSH2 0x2215 JUMP JUMPDEST SWAP1 POP PUSH2 0x11EC DUP2 PUSH2 0x11DC PUSH1 0x5 PUSH2 0x27B8 JUMP JUMPDEST PUSH2 0x11E6 PUSH1 0x4 PUSH2 0x27B8 JUMP JUMPDEST OR PUSH2 0x27DC JUMP JUMPDEST POP PUSH1 0x1 PUSH1 0x4 PUSH0 DUP4 DUP2 MSTORE PUSH1 0x20 ADD SWAP1 DUP2 MSTORE PUSH1 0x20 ADD PUSH0 KECCAK256 PUSH0 ADD PUSH1 0x1E PUSH2 0x100 EXP DUP2 SLOAD DUP2 PUSH1 0xFF MUL NOT AND SWAP1 DUP4 ISZERO ISZERO MUL OR SWAP1 SSTORE POP ADDRESS PUSH20 0xFFFFFFFFFFFFFFFFFFFFFFFFFFFFFFFFFFFFFFFF AND PUSH2 0x1238 PUSH2 0xDCD JUMP JUMPDEST PUSH20 0xFFFFFFFFFFFFFFFFFFFFFFFFFFFFFFFFFFFFFFFF AND EQ PUSH2 0x12EE JUMPI PUSH0 JUMPDEST DUP7 MLOAD DUP2 LT ISZERO PUSH2 0x12EC JUMPI ADDRESS PUSH20 0xFFFFFFFFFFFFFFFFFFFFFFFFFFFFFFFFFFFFFFFF AND DUP8 DUP3 DUP2 MLOAD DUP2 LT PUSH2 0x1288 JUMPI PUSH2 0x1287 PUSH2 0x5A15 JUMP JUMPDEST JUMPDEST PUSH1 0x20 MUL PUSH1 0x20 ADD ADD MLOAD PUSH20 0xFFFFFFFFFFFFFFFFFFFFFFFFFFFFFFFFFFFFFFFF AND SUB PUSH2 0x12E1 JUMPI PUSH2 0x12E0 DUP6 DUP3 DUP2 MLOAD DUP2 LT PUSH2 0x12C1 JUMPI PUSH2 0x12C0 PUSH2 0x5A15 JUMP JUMPDEST JUMPDEST PUSH1 0x20 MUL PUSH1 0x20 ADD ADD MLOAD DUP1 MLOAD SWAP1 PUSH1 0x20 ADD KECCAK256 PUSH1 0x5 PUSH2 0x2851 SWAP1 SWAP2 SWAP1 PUSH4 0xFFFFFFFF AND JUMP JUMPDEST JUMPDEST DUP1 PUSH1 0x1 ADD SWAP1 POP PUSH2 0x1255 JUMP JUMPDEST POP JUMPDEST PUSH2 0x12FB DUP2 DUP8 DUP8 DUP8 DUP8 PUSH2 0x2970 JUMP JUMPDEST ADDRESS PUSH20 0xFFFFFFFFFFFFFFFFFFFFFFFFFFFFFFFFFFFFFFFF AND PUSH2 0x131A PUSH2 0xDCD JUMP JUMPDEST PUSH20 0xFFFFFFFFFFFFFFFFFFFFFFFFFFFFFFFFFFFFFFFF AND EQ ISZERO DUP1 ISZERO PUSH2 0x1345 JUMPI POP PUSH2 0x1343 PUSH1 0x5 PUSH2 0x2A55 JUMP JUMPDEST ISZERO JUMPDEST ISZERO PUSH2 0x1355 JUMPI PUSH2 0x1354 PUSH1 0x5 PUSH2 0x2AC1 JUMP JUMPDEST JUMPDEST PUSH32 0x712AE1383F79AC853F8D882153778E0260EF8F03B504E2866E0593E04D2B291F DUP2 PUSH1 0x40 MLOAD PUSH2 0x1384 SWAP2 SWAP1 PUSH2 0x4690 JUMP JUMPDEST PUSH1 0x40 MLOAD DUP1 SWAP2 SUB SWAP1 LOG1 DUP1 SWAP2 POP POP SWAP5 SWAP4 POP POP POP POP JUMP JUMPDEST PUSH0 PUSH1 0x4 PUSH0 DUP4 DUP2 MSTORE PUSH1 0x20 ADD SWAP1 DUP2 MSTORE PUSH1 0x20 ADD PUSH0 KECCAK256 PUSH0 ADD PUSH1 0x14 SWAP1 SLOAD SWAP1 PUSH2 0x100 EXP SWAP1 DIV PUSH6 0xFFFFFFFFFFFF AND PUSH6 0xFFFFFFFFFFFF AND SWAP1 POP SWAP2 SWAP1 POP JUMP JUMPDEST PUSH32 0x3E83946653575F9A39005E1545185629E92736B7528AB20CA3816F315424A811 DUP2 JUMP JUMPDEST PUSH1 0x9 PUSH0 SWAP1 SLOAD SWAP1 PUSH2 0x100 EXP SWAP1 DIV PUSH20 0xFFFFFFFFFFFFFFFFFFFFFFFFFFFFFFFFFFFFFFFF AND DUP2 JUMP JUMPDEST PUSH1 0xB SLOAD PUSH1 0xA SLOAD PUSH2 0x1427 SWAP2 SWAP1 PUSH2 0x5A42 JUMP JUMPDEST TIMESTAMP LT ISZERO PUSH2 0x1469 JUMPI PUSH1 0x40 MLOAD PUSH32 0x8C379A000000000000000000000000000000000000000000000000000000000 DUP2 MSTORE PUSH1 0x4 ADD PUSH2 0x1460 SWAP1 PUSH2 0x5AE5 JUMP JUMPDEST PUSH1 0x40 MLOAD DUP1 SWAP2 SUB SWAP1 REVERT JUMPDEST PUSH0 PUSH2 0x1480 CALLER PUSH1 0x1 NUMBER PUSH2 0x147B SWAP2 SWAP1 PUSH2 0x59A3 JUMP JUMPDEST PUSH2 0x2415 JUMP JUMPDEST SWAP1 POP PUSH0 PUSH1 0x9 PUSH0 SWAP1 SLOAD SWAP1 PUSH2 0x100 EXP SWAP1 DIV PUSH20 0xFFFFFFFFFFFFFFFFFFFFFFFFFFFFFFFFFFFFFFFF AND PUSH20 0xFFFFFFFFFFFFFFFFFFFFFFFFFFFFFFFFFFFFFFFF AND PUSH4 0x70A08231 ADDRESS PUSH1 0x40 MLOAD DUP3 PUSH4 0xFFFFFFFF AND PUSH1 0xE0 SHL DUP2 MSTORE PUSH1 0x4 ADD PUSH2 0x14DD SWAP2 SWAP1 PUSH2 0x47CD JUMP JUMPDEST PUSH1 0x20 PUSH1 0x40 MLOAD DUP1 DUP4 SUB DUP2 DUP7 GAS STATICCALL ISZERO DUP1 ISZERO PUSH2 0x14F8 JUMPI RETURNDATASIZE PUSH0 DUP1 RETURNDATACOPY RETURNDATASIZE PUSH0 REVERT JUMPDEST POP POP POP POP PUSH1 0x40 MLOAD RETURNDATASIZE PUSH1 0x1F NOT PUSH1 0x1F DUP3 ADD AND DUP3 ADD DUP1 PUSH1 0x40 MSTORE POP DUP2 ADD SWAP1 PUSH2 0x151C SWAP2 SWAP1 PUSH2 0x59EA JUMP JUMPDEST SWAP1 POP PUSH0 PUSH2 0x1527 PUSH2 0x1113 JUMP JUMPDEST DUP3 DUP5 PUSH2 0x1533 SWAP2 SWAP1 PUSH2 0x5B03 JUMP JUMPDEST PUSH2 0x153D SWAP2 SWAP1 PUSH2 0x5B71 JUMP JUMPDEST SWAP1 POP DUP1 PUSH1 0xC PUSH0 CALLER PUSH20 0xFFFFFFFFFFFFFFFFFFFFFFFFFFFFFFFFFFFFFFFF AND PUSH20 0xFFFFFFFFFFFFFFFFFFFFFFFFFFFFFFFFFFFFFFFF AND DUP2 MSTORE PUSH1 0x20 ADD SWAP1 DUP2 MSTORE PUSH1 0x20 ADD PUSH0 KECCAK256 PUSH0 DUP3 DUP3 SLOAD PUSH2 0x158B SWAP2 SWAP1 PUSH2 0x5A42 JUMP JUMPDEST SWAP3 POP POP DUP2 SWAP1 SSTORE POP TIMESTAMP PUSH1 0xA DUP2 SWAP1 SSTORE POP POP POP POP JUMP JUMPDEST PUSH0 PUSH3 0x15180 SWAP1 POP SWAP1 JUMP JUMPDEST PUSH0 DUP1 PUSH1 0x4 PUSH0 DUP5 DUP2 MSTORE PUSH1 0x20 ADD SWAP1 DUP2 MSTORE PUSH1 0x20 ADD PUSH0 KECCAK256 SWAP1 POP PUSH0 DUP2 PUSH0 ADD PUSH1 0x1E SWAP1 SLOAD SWAP1 PUSH2 0x100 EXP SWAP1 DIV PUSH1 0xFF AND SWAP1 POP PUSH0 DUP3 PUSH0 ADD PUSH1 0x1F SWAP1 SLOAD SWAP1 PUSH2 0x100 EXP SWAP1 DIV PUSH1 0xFF AND SWAP1 POP DUP2 ISZERO PUSH2 0x15F7 JUMPI PUSH1 0x7 SWAP4 POP POP POP POP PUSH2 0x16FA JUMP JUMPDEST DUP1 ISZERO PUSH2 0x1609 JUMPI PUSH1 0x2 SWAP4 POP POP POP POP PUSH2 0x16FA JUMP JUMPDEST PUSH0 PUSH2 0x1613 DUP7 PUSH2 0x1398 JUMP JUMPDEST SWAP1 POP PUSH0 DUP2 SUB PUSH2 0x1659 JUMPI DUP6 PUSH1 0x40 MLOAD PUSH32 0x6AD0607500000000000000000000000000000000000000000000000000000000 DUP2 MSTORE PUSH1 0x4 ADD PUSH2 0x1650 SWAP2 SWAP1 PUSH2 0x4690 JUMP JUMPDEST PUSH1 0x40 MLOAD DUP1 SWAP2 SUB SWAP1 REVERT JUMPDEST PUSH0 PUSH2 0x1662 PUSH2 0x1F82 JUMP JUMPDEST PUSH6 0xFFFFFFFFFFFF AND SWAP1 POP DUP1 DUP3 LT PUSH2 0x1680 JUMPI PUSH0 SWAP6 POP POP POP POP POP POP PUSH2 0x16FA JUMP JUMPDEST PUSH0 PUSH2 0x168A DUP9 PUSH2 0x2122 JUMP JUMPDEST SWAP1 POP DUP2 DUP2 LT PUSH2 0x16A2 JUMPI PUSH1 0x1 SWAP7 POP POP POP POP POP POP POP PUSH2 0x16FA JUMP JUMPDEST PUSH2 0x16AB DUP9 PUSH2 0x2B37 JUMP JUMPDEST ISZERO DUP1 PUSH2 0x16BD JUMPI POP PUSH2 0x16BB DUP9 PUSH2 0x2B7B JUMP JUMPDEST ISZERO JUMPDEST ISZERO PUSH2 0x16D1 JUMPI PUSH1 0x3 SWAP7 POP POP POP POP POP POP POP PUSH2 0x16FA JUMP JUMPDEST PUSH0 PUSH2 0x16DB DUP10 PUSH2 0x2062 JUMP JUMPDEST SUB PUSH2 0x16EF JUMPI PUSH1 0x4 SWAP7 POP POP POP POP POP POP POP PUSH2 0x16FA JUMP JUMPDEST PUSH1 0x5 SWAP7 POP POP POP POP POP POP POP JUMPDEST SWAP2 SWAP1 POP JUMP JUMPDEST PUSH0 PUSH1 0x7 PUSH0 DUP5 DUP2 MSTORE PUSH1 0x20 ADD SWAP1 DUP2 MSTORE PUSH1 0x20 ADD PUSH0 KECCAK256 PUSH1 0x3 ADD PUSH0 DUP4 PUSH20 0xFFFFFFFFFFFFFFFFFFFFFFFFFFFFFFFFFFFFFFFF AND PUSH20 0xFFFFFFFFFFFFFFFFFFFFFFFFFFFFFFFFFFFFFFFF AND DUP2 MSTORE PUSH1 0x20 ADD SWAP1 DUP2 MSTORE PUSH1 0x20 ADD PUSH0 KECCAK256 PUSH0 SWAP1 SLOAD SWAP1 PUSH2 0x100 EXP SWAP1 DIV PUSH1 0xFF AND SWAP1 POP SWAP3 SWAP2 POP POP JUMP JUMPDEST PUSH0 DUP1 PUSH2 0x1772 DUP7 DUP7 DUP7 DUP7 PUSH2 0x2215 JUMP JUMPDEST SWAP1 POP PUSH2 0x1786 DUP2 PUSH2 0x1781 PUSH0 PUSH2 0x27B8 JUMP JUMPDEST PUSH2 0x27DC JUMP JUMPDEST POP PUSH2 0x1790 DUP2 PUSH2 0xF63 JUMP JUMPDEST PUSH20 0xFFFFFFFFFFFFFFFFFFFFFFFFFFFFFFFFFFFFFFFF AND PUSH2 0x17AE PUSH2 0x2BA2 JUMP JUMPDEST PUSH20 0xFFFFFFFFFFFFFFFFFFFFFFFFFFFFFFFFFFFFFFFF AND EQ PUSH2 0x180D JUMPI PUSH2 0x17D1 PUSH2 0x2BA2 JUMP JUMPDEST PUSH1 0x40 MLOAD PUSH32 0x233D98E300000000000000000000000000000000000000000000000000000000 DUP2 MSTORE PUSH1 0x4 ADD PUSH2 0x1804 SWAP2 SWAP1 PUSH2 0x47CD JUMP JUMPDEST PUSH1 0x40 MLOAD DUP1 SWAP2 SUB SWAP1 REVERT JUMPDEST PUSH2 0x1819 DUP7 DUP7 DUP7 DUP7 PUSH2 0x2BA9 JUMP JUMPDEST SWAP2 POP POP SWAP5 SWAP4 POP POP POP POP JUMP JUMPDEST PUSH1 0x60 PUSH2 0x182E PUSH2 0x2571 JUMP JUMPDEST PUSH20 0xFFFFFFFFFFFFFFFFFFFFFFFFFFFFFFFFFFFFFFFF AND PUSH4 0x4BF5D7E9 PUSH1 0x40 MLOAD DUP2 PUSH4 0xFFFFFFFF AND PUSH1 0xE0 SHL DUP2 MSTORE PUSH1 0x4 ADD PUSH0 PUSH1 0x40 MLOAD DUP1 DUP4 SUB DUP2 DUP7 GAS STATICCALL SWAP3 POP POP POP DUP1 ISZERO PUSH2 0x1898 JUMPI POP PUSH1 0x40 MLOAD RETURNDATASIZE PUSH0 DUP3 RETURNDATACOPY RETURNDATASIZE PUSH1 0x1F NOT PUSH1 0x1F DUP3 ADD AND DUP3 ADD DUP1 PUSH1 0x40 MSTORE POP DUP2 ADD SWAP1 PUSH2 0x1895 SWAP2 SWAP1 PUSH2 0x5C0F JUMP JUMPDEST PUSH1 0x1 JUMPDEST PUSH2 0x18D9 JUMPI PUSH1 0x40 MLOAD DUP1 PUSH1 0x40 ADD PUSH1 0x40 MSTORE DUP1 PUSH1 0x1D DUP2 MSTORE PUSH1 0x20 ADD PUSH32 0x6D6F64653D626C6F636B6E756D6265722666726F6D3D64656661756C74000000 DUP2 MSTORE POP SWAP1 POP PUSH2 0x18DE JUMP JUMPDEST DUP1 SWAP2 POP POP JUMPDEST SWAP1 JUMP JUMPDEST PUSH0 DUP1 PUSH0 DUP1 PUSH1 0x7 PUSH0 DUP7 DUP2 MSTORE PUSH1 0x20 ADD SWAP1 DUP2 MSTORE PUSH1 0x20 ADD PUSH0 KECCAK256 SWAP1 POP DUP1 PUSH0 ADD SLOAD DUP2 PUSH1 0x1 ADD SLOAD DUP3 PUSH1 0x2 ADD SLOAD SWAP4 POP SWAP4 POP SWAP4 POP POP SWAP2 SWAP4 SWAP1 SWAP3 POP JUMP JUMPDEST PUSH1 0x60 PUSH1 0x40 MLOAD DUP1 PUSH1 0x40 ADD PUSH1 0x40 MSTORE DUP1 PUSH1 0x1 DUP2 MSTORE PUSH1 0x20 ADD PUSH32 0x3100000000000000000000000000000000000000000000000000000000000000 DUP2 MSTORE POP SWAP1 POP SWAP1 JUMP JUMPDEST PUSH0 DUP1 PUSH2 0x195B PUSH2 0x2BA2 JUMP JUMPDEST SWAP1 POP PUSH2 0x1977 DUP5 DUP3 DUP6 PUSH1 0x40 MLOAD DUP1 PUSH1 0x20 ADD PUSH1 0x40 MSTORE DUP1 PUSH0 DUP2 MSTORE POP PUSH2 0x2C8B JUMP JUMPDEST SWAP2 POP POP SWAP3 SWAP2 POP POP JUMP JUMPDEST PUSH0 DUP1 PUSH2 0x1A0D DUP8 PUSH2 0x1A07 PUSH32 0x3E83946653575F9A39005E1545185629E92736B7528AB20CA3816F315424A811 DUP13 DUP13 DUP13 PUSH2 0x19B6 DUP15 PUSH2 0x2CAA JUMP JUMPDEST DUP14 DUP14 PUSH1 0x40 MLOAD PUSH2 0x19C6 SWAP3 SWAP2 SWAP1 PUSH2 0x5C84 JUMP JUMPDEST PUSH1 0x40 MLOAD DUP1 SWAP2 SUB SWAP1 KECCAK256 DUP13 DUP1 MLOAD SWAP1 PUSH1 0x20 ADD KECCAK256 PUSH1 0x40 MLOAD PUSH1 0x20 ADD PUSH2 0x19EC SWAP8 SWAP7 SWAP6 SWAP5 SWAP4 SWAP3 SWAP2 SWAP1 PUSH2 0x5CAB JUMP JUMPDEST PUSH1 0x40 MLOAD PUSH1 0x20 DUP2 DUP4 SUB SUB DUP2 MSTORE SWAP1 PUSH1 0x40 MSTORE DUP1 MLOAD SWAP1 PUSH1 0x20 ADD KECCAK256 PUSH2 0x2CFD JUMP JUMPDEST DUP6 PUSH2 0x2D16 JUMP JUMPDEST SWAP1 POP DUP1 PUSH2 0x1A51 JUMPI DUP7 PUSH1 0x40 MLOAD PUSH32 0x94AB6C0700000000000000000000000000000000000000000000000000000000 DUP2 MSTORE PUSH1 0x4 ADD PUSH2 0x1A48 SWAP2 SWAP1 PUSH2 0x47CD JUMP JUMPDEST PUSH1 0x40 MLOAD DUP1 SWAP2 SUB SWAP1 REVERT JUMPDEST PUSH2 0x1AA1 DUP10 DUP9 DUP11 DUP10 DUP10 DUP1 DUP1 PUSH1 0x1F ADD PUSH1 0x20 DUP1 SWAP2 DIV MUL PUSH1 0x20 ADD PUSH1 0x40 MLOAD SWAP1 DUP2 ADD PUSH1 0x40 MSTORE DUP1 SWAP4 SWAP3 SWAP2 SWAP1 DUP2 DUP2 MSTORE PUSH1 0x20 ADD DUP4 DUP4 DUP1 DUP3 DUP5 CALLDATACOPY PUSH0 DUP2 DUP5 ADD MSTORE PUSH1 0x1F NOT PUSH1 0x1F DUP3 ADD AND SWAP1 POP DUP1 DUP4 ADD SWAP3 POP POP POP POP POP POP POP DUP9 PUSH2 0x2DA3 JUMP JUMPDEST SWAP2 POP POP SWAP8 SWAP7 POP POP POP POP POP POP POP JUMP JUMPDEST PUSH0 DUP1 PUSH2 0x1AB9 PUSH2 0x2BA2 JUMP JUMPDEST SWAP1 POP PUSH2 0x1B0B DUP8 DUP3 DUP9 DUP9 DUP9 DUP1 DUP1 PUSH1 0x1F ADD PUSH1 0x20 DUP1 SWAP2 DIV MUL PUSH1 0x20 ADD PUSH1 0x40 MLOAD SWAP1 DUP2 ADD PUSH1 0x40 MSTORE DUP1 SWAP4 SWAP3 SWAP2 SWAP1 DUP2 DUP2 MSTORE PUSH1 0x20 ADD DUP4 DUP4 DUP1 DUP3 DUP5 CALLDATACOPY PUSH0 DUP2 DUP5 ADD MSTORE PUSH1 0x1F NOT PUSH1 0x1F DUP3 ADD AND SWAP1 POP DUP1 DUP4 ADD SWAP3 POP POP POP POP POP POP POP DUP8 PUSH2 0x2DA3 JUMP JUMPDEST SWAP2 POP POP SWAP6 SWAP5 POP POP POP POP POP JUMP JUMPDEST PUSH0 DUP1 PUSH1 0x8 PUSH0 ADD DUP1 SLOAD SWAP1 POP SWAP1 POP PUSH0 PUSH1 0x8 PUSH0 ADD PUSH1 0x1 DUP4 PUSH2 0x1B35 SWAP2 SWAP1 PUSH2 0x59A3 JUMP JUMPDEST DUP2 SLOAD DUP2 LT PUSH2 0x1B46 JUMPI PUSH2 0x1B45 PUSH2 0x5A15 JUMP JUMPDEST JUMPDEST SWAP1 PUSH0 MSTORE PUSH1 0x20 PUSH0 KECCAK256 ADD SWAP1 POP PUSH0 DUP2 PUSH0 ADD PUSH0 SWAP1 SLOAD SWAP1 PUSH2 0x100 EXP SWAP1 DIV PUSH6 0xFFFFFFFFFFFF AND SWAP1 POP PUSH0 DUP3 PUSH0 ADD PUSH1 0x6 SWAP1 SLOAD SWAP1 PUSH2 0x100 EXP SWAP1 DIV PUSH26 0xFFFFFFFFFFFFFFFFFFFFFFFFFFFFFFFFFFFFFFFFFFFFFFFFFFFF AND SWAP1 POP DUP6 DUP3 PUSH6 0xFFFFFFFFFFFF AND GT PUSH2 0x1BCC JUMPI DUP1 PUSH26 0xFFFFFFFFFFFFFFFFFFFFFFFFFFFFFFFFFFFFFFFFFFFFFFFFFFFF AND SWAP5 POP POP POP POP POP PUSH2 0x1C0B JUMP JUMPDEST PUSH2 0x1BE8 PUSH2 0x1BD8 DUP8 PUSH2 0x2EA0 JUMP JUMPDEST PUSH1 0x8 PUSH2 0x2EF9 SWAP1 SWAP2 SWAP1 PUSH4 0xFFFFFFFF AND JUMP JUMPDEST PUSH26 0xFFFFFFFFFFFFFFFFFFFFFFFFFFFFFFFFFFFFFFFFFFFFFFFFFFFF AND SWAP5 POP POP POP POP POP JUMPDEST SWAP2 SWAP1 POP JUMP JUMPDEST PUSH2 0x1C18 PUSH2 0x2601 JUMP JUMPDEST DUP1 PUSH1 0x9 PUSH0 PUSH2 0x100 EXP DUP2 SLOAD DUP2 PUSH20 0xFFFFFFFFFFFFFFFFFFFFFFFFFFFFFFFFFFFFFFFF MUL NOT AND SWAP1 DUP4 PUSH20 0xFFFFFFFFFFFFFFFFFFFFFFFFFFFFFFFFFFFFFFFF AND MUL OR SWAP1 SSTORE POP POP JUMP JUMPDEST PUSH1 0xD PUSH1 0x20 MSTORE DUP1 PUSH0 MSTORE PUSH1 0x40 PUSH0 KECCAK256 PUSH0 SWAP2 POP SWAP1 POP SLOAD DUP2 JUMP JUMPDEST PUSH0 DUP1 PUSH2 0x1C7A PUSH2 0x2BA2 JUMP JUMPDEST SWAP1 POP PUSH2 0x1CCB DUP7 DUP3 DUP8 DUP8 DUP8 DUP1 DUP1 PUSH1 0x1F ADD PUSH1 0x20 DUP1 SWAP2 DIV MUL PUSH1 0x20 ADD PUSH1 0x40 MLOAD SWAP1 DUP2 ADD PUSH1 0x40 MSTORE DUP1 SWAP4 SWAP3 SWAP2 SWAP1 DUP2 DUP2 MSTORE PUSH1 0x20 ADD DUP4 DUP4 DUP1 DUP3 DUP5 CALLDATACOPY PUSH0 DUP2 DUP5 ADD MSTORE PUSH1 0x1F NOT PUSH1 0x1F DUP3 ADD AND SWAP1 POP DUP1 DUP4 ADD SWAP3 POP POP POP POP POP POP POP PUSH2 0x2C8B JUMP JUMPDEST SWAP2 POP POP SWAP5 SWAP4 POP POP POP POP JUMP JUMPDEST PUSH0 DUP1 PUSH2 0x1CE0 PUSH2 0x2BA2 JUMP JUMPDEST SWAP1 POP PUSH2 0x1CEC DUP2 DUP5 PUSH2 0x2FE6 JUMP JUMPDEST PUSH2 0x1D2D JUMPI DUP1 PUSH1 0x40 MLOAD PUSH32 0xD9B3955700000000000000000000000000000000000000000000000000000000 DUP2 MSTORE PUSH1 0x4 ADD PUSH2 0x1D24 SWAP2 SWAP1 PUSH2 0x47CD JUMP JUMPDEST PUSH1 0x40 MLOAD DUP1 SWAP2 SUB SWAP1 REVERT JUMPDEST PUSH0 PUSH2 0x1D53 DUP3 PUSH1 0x1 PUSH2 0x1D3C PUSH2 0x1F82 JUMP JUMPDEST PUSH2 0x1D46 SWAP2 SWAP1 PUSH2 0x5D18 JUMP JUMPDEST PUSH6 0xFFFFFFFFFFFF AND PUSH2 0x2415 JUMP JUMPDEST SWAP1 POP PUSH0 PUSH2 0x1D5E PUSH2 0x2098 JUMP JUMPDEST SWAP1 POP DUP1 DUP3 LT ISZERO PUSH2 0x1DA9 JUMPI DUP3 DUP3 DUP3 PUSH1 0x40 MLOAD PUSH32 0xC242EE1600000000000000000000000000000000000000000000000000000000 DUP2 MSTORE PUSH1 0x4 ADD PUSH2 0x1DA0 SWAP4 SWAP3 SWAP2 SWAP1 PUSH2 0x5D51 JUMP JUMPDEST PUSH1 0x40 MLOAD DUP1 SWAP2 SUB SWAP1 REVERT JUMPDEST PUSH2 0x1DB6 DUP9 DUP9 DUP9 DUP9 DUP8 PUSH2 0x312E JUMP JUMPDEST SWAP4 POP POP POP POP SWAP5 SWAP4 POP POP POP POP JUMP JUMPDEST PUSH0 PUSH1 0x2 PUSH0 DUP4 PUSH20 0xFFFFFFFFFFFFFFFFFFFFFFFFFFFFFFFFFFFFFFFF AND PUSH20 0xFFFFFFFFFFFFFFFFFFFFFFFFFFFFFFFFFFFFFFFF AND DUP2 MSTORE PUSH1 0x20 ADD SWAP1 DUP2 MSTORE PUSH1 0x20 ADD PUSH0 KECCAK256 SLOAD SWAP1 POP SWAP2 SWAP1 POP JUMP JUMPDEST PUSH0 PUSH1 0x60 DUP1 PUSH0 DUP1 PUSH0 PUSH1 0x60 PUSH2 0x1E1A PUSH2 0x33B3 JUMP JUMPDEST PUSH2 0x1E22 PUSH2 0x33ED JUMP JUMPDEST CHAINID ADDRESS PUSH0 DUP1 SHL PUSH0 PUSH8 0xFFFFFFFFFFFFFFFF DUP2 GT ISZERO PUSH2 0x1E41 JUMPI PUSH2 0x1E40 PUSH2 0x4818 JUMP JUMPDEST JUMPDEST PUSH1 0x40 MLOAD SWAP1 DUP1 DUP3 MSTORE DUP1 PUSH1 0x20 MUL PUSH1 0x20 ADD DUP3 ADD PUSH1 0x40 MSTORE DUP1 ISZERO PUSH2 0x1E6F JUMPI DUP2 PUSH1 0x20 ADD PUSH1 0x20 DUP3 MUL DUP1 CALLDATASIZE DUP4 CALLDATACOPY DUP1 DUP3 ADD SWAP2 POP POP SWAP1 POP JUMPDEST POP PUSH32 0xF00000000000000000000000000000000000000000000000000000000000000 SWAP6 SWAP5 SWAP4 SWAP3 SWAP2 SWAP1 SWAP7 POP SWAP7 POP SWAP7 POP SWAP7 POP SWAP7 POP SWAP7 POP SWAP7 POP SWAP1 SWAP2 SWAP3 SWAP4 SWAP5 SWAP6 SWAP7 JUMP JUMPDEST PUSH0 DUP1 PUSH2 0x1F19 DUP5 PUSH2 0x1F13 PUSH32 0xF2AAD550CF55F045CB27E9C559F9889FDFB6E6CDAA032301D6EA397784AE51D7 DUP10 DUP10 DUP10 PUSH2 0x1EE4 DUP12 PUSH2 0x2CAA JUMP JUMPDEST PUSH1 0x40 MLOAD PUSH1 0x20 ADD PUSH2 0x1EF8 SWAP6 SWAP5 SWAP4 SWAP3 SWAP2 SWAP1 PUSH2 0x5D86 JUMP JUMPDEST PUSH1 0x40 MLOAD PUSH1 0x20 DUP2 DUP4 SUB SUB DUP2 MSTORE SWAP1 PUSH1 0x40 MSTORE DUP1 MLOAD SWAP1 PUSH1 0x20 ADD KECCAK256 PUSH2 0x2CFD JUMP JUMPDEST DUP6 PUSH2 0x2D16 JUMP JUMPDEST SWAP1 POP DUP1 PUSH2 0x1F5D JUMPI DUP4 PUSH1 0x40 MLOAD PUSH32 0x94AB6C0700000000000000000000000000000000000000000000000000000000 DUP2 MSTORE PUSH1 0x4 ADD PUSH2 0x1F54 SWAP2 SWAP1 PUSH2 0x47CD JUMP JUMPDEST PUSH1 0x40 MLOAD DUP1 SWAP2 SUB SWAP1 REVERT JUMPDEST PUSH2 0x1F77 DUP7 DUP6 DUP8 PUSH1 0x40 MLOAD DUP1 PUSH1 0x20 ADD PUSH1 0x40 MSTORE DUP1 PUSH0 DUP2 MSTORE POP PUSH2 0x2C8B JUMP JUMPDEST SWAP2 POP POP SWAP5 SWAP4 POP POP POP POP JUMP JUMPDEST PUSH0 PUSH2 0x1F8B PUSH2 0x2571 JUMP JUMPDEST PUSH20 0xFFFFFFFFFFFFFFFFFFFFFFFFFFFFFFFFFFFFFFFF AND PUSH4 0x91DDADF4 PUSH1 0x40 MLOAD DUP2 PUSH4 0xFFFFFFFF AND PUSH1 0xE0 SHL DUP2 MSTORE PUSH1 0x4 ADD PUSH1 0x20 PUSH1 0x40 MLOAD DUP1 DUP4 SUB DUP2 DUP7 GAS STATICCALL SWAP3 POP POP POP DUP1 ISZERO PUSH2 0x1FF2 JUMPI POP PUSH1 0x40 MLOAD RETURNDATASIZE PUSH1 0x1F NOT PUSH1 0x1F DUP3 ADD AND DUP3 ADD DUP1 PUSH1 0x40 MSTORE POP DUP2 ADD SWAP1 PUSH2 0x1FEF SWAP2 SWAP1 PUSH2 0x5E01 JUMP JUMPDEST PUSH1 0x1 JUMPDEST PUSH2 0x2005 JUMPI PUSH2 0x1FFE PUSH2 0x3428 JUMP JUMPDEST SWAP1 POP PUSH2 0x200A JUMP JUMPDEST DUP1 SWAP2 POP POP JUMPDEST SWAP1 JUMP JUMPDEST PUSH1 0xA SLOAD DUP2 JUMP JUMPDEST PUSH0 PUSH1 0x64 SWAP1 POP SWAP1 JUMP JUMPDEST PUSH0 PUSH2 0x2027 DUP5 DUP5 DUP5 PUSH2 0x3437 JUMP JUMPDEST SWAP1 POP SWAP4 SWAP3 POP POP POP JUMP JUMPDEST PUSH0 PUSH2 0x203B PUSH1 0x8 PUSH2 0x34C2 JUMP JUMPDEST PUSH26 0xFFFFFFFFFFFFFFFFFFFFFFFFFFFFFFFFFFFFFFFFFFFFFFFFFFFF AND SWAP1 POP SWAP1 JUMP JUMPDEST PUSH0 SWAP2 SWAP1 POP JUMP JUMPDEST PUSH0 PUSH1 0x4 PUSH0 DUP4 DUP2 MSTORE PUSH1 0x20 ADD SWAP1 DUP2 MSTORE PUSH1 0x20 ADD PUSH0 KECCAK256 PUSH1 0x1 ADD PUSH0 SWAP1 SLOAD SWAP1 PUSH2 0x100 EXP SWAP1 DIV PUSH6 0xFFFFFFFFFFFF AND PUSH6 0xFFFFFFFFFFFF AND SWAP1 POP SWAP2 SWAP1 POP JUMP JUMPDEST PUSH0 SWAP1 JUMP JUMPDEST PUSH0 ADDRESS PUSH20 0xFFFFFFFFFFFFFFFFFFFFFFFFFFFFFFFFFFFFFFFF AND PUSH2 0x20BC PUSH2 0xDCD JUMP JUMPDEST PUSH20 0xFFFFFFFFFFFFFFFFFFFFFFFFFFFFFFFFFFFFFFFF AND EQ PUSH2 0x2109 JUMPI PUSH1 0x40 MLOAD PUSH32 0xE90A651E00000000000000000000000000000000000000000000000000000000 DUP2 MSTORE PUSH1 0x4 ADD PUSH1 0x40 MLOAD DUP1 SWAP2 SUB SWAP1 REVERT JUMPDEST PUSH4 0xBC197C81 PUSH1 0xE0 SHL SWAP1 POP SWAP6 SWAP5 POP POP POP POP POP JUMP JUMPDEST PUSH1 0xB SLOAD DUP2 JUMP JUMPDEST PUSH0 PUSH1 0x4 PUSH0 DUP4 DUP2 MSTORE PUSH1 0x20 ADD SWAP1 DUP2 MSTORE PUSH1 0x20 ADD PUSH0 KECCAK256 PUSH0 ADD PUSH1 0x1A SWAP1 SLOAD SWAP1 PUSH2 0x100 EXP SWAP1 DIV PUSH4 0xFFFFFFFF AND PUSH4 0xFFFFFFFF AND PUSH1 0x4 PUSH0 DUP5 DUP2 MSTORE PUSH1 0x20 ADD SWAP1 DUP2 MSTORE PUSH1 0x20 ADD PUSH0 KECCAK256 PUSH0 ADD PUSH1 0x14 SWAP1 SLOAD SWAP1 PUSH2 0x100 EXP SWAP1 DIV PUSH6 0xFFFFFFFFFFFF AND PUSH2 0x217D SWAP2 SWAP1 PUSH2 0x5E2C JUMP JUMPDEST PUSH6 0xFFFFFFFFFFFF AND SWAP1 POP SWAP2 SWAP1 POP JUMP JUMPDEST PUSH2 0x2194 PUSH2 0x2601 JUMP JUMPDEST PUSH0 DUP1 DUP6 PUSH20 0xFFFFFFFFFFFFFFFFFFFFFFFFFFFFFFFFFFFFFFFF AND DUP6 DUP6 DUP6 PUSH1 0x40 MLOAD PUSH2 0x21BE SWAP3 SWAP2 SWAP1 PUSH2 0x5C84 JUMP JUMPDEST PUSH0 PUSH1 0x40 MLOAD DUP1 DUP4 SUB DUP2 DUP6 DUP8 GAS CALL SWAP3 POP POP POP RETURNDATASIZE DUP1 PUSH0 DUP2 EQ PUSH2 0x21F8 JUMPI PUSH1 0x40 MLOAD SWAP2 POP PUSH1 0x1F NOT PUSH1 0x3F RETURNDATASIZE ADD AND DUP3 ADD PUSH1 0x40 MSTORE RETURNDATASIZE DUP3 MSTORE RETURNDATASIZE PUSH0 PUSH1 0x20 DUP5 ADD RETURNDATACOPY PUSH2 0x21FD JUMP JUMPDEST PUSH1 0x60 SWAP2 POP JUMPDEST POP SWAP2 POP SWAP2 POP PUSH2 0x220C DUP3 DUP3 PUSH2 0x3524 JUMP JUMPDEST POP POP POP POP POP POP POP JUMP JUMPDEST PUSH0 DUP5 DUP5 DUP5 DUP5 PUSH1 0x40 MLOAD PUSH1 0x20 ADD PUSH2 0x222D SWAP5 SWAP4 SWAP3 SWAP2 SWAP1 PUSH2 0x6029 JUMP JUMPDEST PUSH1 0x40 MLOAD PUSH1 0x20 DUP2 DUP4 SUB SUB DUP2 MSTORE SWAP1 PUSH1 0x40 MSTORE DUP1 MLOAD SWAP1 PUSH1 0x20 ADD KECCAK256 PUSH0 SHR SWAP1 POP SWAP5 SWAP4 POP POP POP POP JUMP JUMPDEST PUSH0 PUSH1 0xC PUSH0 CALLER PUSH20 0xFFFFFFFFFFFFFFFFFFFFFFFFFFFFFFFFFFFFFFFF AND PUSH20 0xFFFFFFFFFFFFFFFFFFFFFFFFFFFFFFFFFFFFFFFF AND DUP2 MSTORE PUSH1 0x20 ADD SWAP1 DUP2 MSTORE PUSH1 0x20 ADD PUSH0 KECCAK256 SLOAD SWAP1 POP PUSH0 DUP2 GT PUSH2 0x22D2 JUMPI PUSH1 0x40 MLOAD PUSH32 0x8C379A000000000000000000000000000000000000000000000000000000000 DUP2 MSTORE PUSH1 0x4 ADD PUSH2 0x22C9 SWAP1 PUSH2 0x60CB JUMP JUMPDEST PUSH1 0x40 MLOAD DUP1 SWAP2 SUB SWAP1 REVERT JUMPDEST PUSH0 PUSH1 0xC PUSH0 CALLER PUSH20 0xFFFFFFFFFFFFFFFFFFFFFFFFFFFFFFFFFFFFFFFF AND PUSH20 0xFFFFFFFFFFFFFFFFFFFFFFFFFFFFFFFFFFFFFFFF AND DUP2 MSTORE PUSH1 0x20 ADD SWAP1 DUP2 MSTORE PUSH1 0x20 ADD PUSH0 KECCAK256 DUP2 SWAP1 SSTORE POP PUSH1 0x9 PUSH0 SWAP1 SLOAD SWAP1 PUSH2 0x100 EXP SWAP1 DIV PUSH20 0xFFFFFFFFFFFFFFFFFFFFFFFFFFFFFFFFFFFFFFFF AND PUSH20 0xFFFFFFFFFFFFFFFFFFFFFFFFFFFFFFFFFFFFFFFF AND PUSH4 0xA9059CBB CALLER DUP4 PUSH1 0x40 MLOAD DUP4 PUSH4 0xFFFFFFFF AND PUSH1 0xE0 SHL DUP2 MSTORE PUSH1 0x4 ADD PUSH2 0x2370 SWAP3 SWAP2 SWAP1 PUSH2 0x60E9 JUMP JUMPDEST PUSH1 0x20 PUSH1 0x40 MLOAD DUP1 DUP4 SUB DUP2 PUSH0 DUP8 GAS CALL ISZERO DUP1 ISZERO PUSH2 0x238C JUMPI RETURNDATASIZE PUSH0 DUP1 RETURNDATACOPY RETURNDATASIZE PUSH0 REVERT JUMPDEST POP POP POP POP PUSH1 0x40 MLOAD RETURNDATASIZE PUSH1 0x1F NOT PUSH1 0x1F DUP3 ADD AND DUP3 ADD DUP1 PUSH1 0x40 MSTORE POP DUP2 ADD SWAP1 PUSH2 0x23B0 SWAP2 SWAP1 PUSH2 0x613A JUMP JUMPDEST POP POP JUMP JUMPDEST PUSH1 0x60 PUSH1 0x40 MLOAD DUP1 PUSH1 0x40 ADD PUSH1 0x40 MSTORE DUP1 PUSH1 0x20 DUP2 MSTORE PUSH1 0x20 ADD PUSH32 0x737570706F72743D627261766F2671756F72756D3D666F722C6162737461696E DUP2 MSTORE POP SWAP1 POP SWAP1 JUMP JUMPDEST PUSH32 0xF2AAD550CF55F045CB27E9C559F9889FDFB6E6CDAA032301D6EA397784AE51D7 DUP2 JUMP JUMPDEST PUSH0 PUSH2 0x2428 DUP4 DUP4 PUSH2 0x2423 PUSH2 0x3548 JUMP JUMPDEST PUSH2 0x3437 JUMP JUMPDEST SWAP1 POP SWAP3 SWAP2 POP POP JUMP JUMPDEST PUSH1 0xC PUSH1 0x20 MSTORE DUP1 PUSH0 MSTORE PUSH1 0x40 PUSH0 KECCAK256 PUSH0 SWAP2 POP SWAP1 POP SLOAD DUP2 JUMP JUMPDEST PUSH0 ADDRESS PUSH20 0xFFFFFFFFFFFFFFFFFFFFFFFFFFFFFFFFFFFFFFFF AND PUSH2 0x2465 PUSH2 0xDCD JUMP JUMPDEST PUSH20 0xFFFFFFFFFFFFFFFFFFFFFFFFFFFFFFFFFFFFFFFF AND EQ PUSH2 0x24B2 JUMPI PUSH1 0x40 MLOAD PUSH32 0xE90A651E00000000000000000000000000000000000000000000000000000000 DUP2 MSTORE PUSH1 0x4 ADD PUSH1 0x40 MLOAD DUP1 SWAP2 SUB SWAP1 REVERT JUMPDEST PUSH4 0xF23A6E61 PUSH1 0xE0 SHL SWAP1 POP SWAP6 SWAP5 POP POP POP POP POP JUMP JUMPDEST PUSH0 PUSH2 0x24CE PUSH2 0x2013 JUMP JUMPDEST PUSH2 0x24D7 DUP4 PUSH2 0x1B17 JUMP JUMPDEST PUSH2 0x24DF PUSH2 0x2571 JUMP JUMPDEST PUSH20 0xFFFFFFFFFFFFFFFFFFFFFFFFFFFFFFFFFFFFFFFF AND PUSH4 0x8E539E8C DUP6 PUSH1 0x40 MLOAD DUP3 PUSH4 0xFFFFFFFF AND PUSH1 0xE0 SHL DUP2 MSTORE PUSH1 0x4 ADD PUSH2 0x2517 SWAP2 SWAP1 PUSH2 0x4690 JUMP JUMPDEST PUSH1 0x20 PUSH1 0x40 MLOAD DUP1 DUP4 SUB DUP2 DUP7 GAS STATICCALL ISZERO DUP1 ISZERO PUSH2 0x2532 JUMPI RETURNDATASIZE PUSH0 DUP1 RETURNDATACOPY RETURNDATASIZE PUSH0 REVERT JUMPDEST POP POP POP POP PUSH1 0x40 MLOAD RETURNDATASIZE PUSH1 0x1F NOT PUSH1 0x1F DUP3 ADD AND DUP3 ADD DUP1 PUSH1 0x40 MSTORE POP DUP2 ADD SWAP1 PUSH2 0x2556 SWAP2 SWAP1 PUSH2 0x59EA JUMP JUMPDEST PUSH2 0x2560 SWAP2 SWAP1 PUSH2 0x5B03 JUMP JUMPDEST PUSH2 0x256A SWAP2 SWAP1 PUSH2 0x5B71 JUMP JUMPDEST SWAP1 POP SWAP2 SWAP1 POP JUMP JUMPDEST PUSH0 PUSH32 0x0 SWAP1 POP SWAP1 JUMP JUMPDEST PUSH0 PUSH32 0x1FFC9A700000000000000000000000000000000000000000000000000000000 PUSH28 0xFFFFFFFFFFFFFFFFFFFFFFFFFFFFFFFFFFFFFFFFFFFFFFFFFFFFFFFF NOT AND DUP3 PUSH28 0xFFFFFFFFFFFFFFFFFFFFFFFFFFFFFFFFFFFFFFFFFFFFFFFFFFFFFFFF NOT AND EQ SWAP1 POP SWAP2 SWAP1 POP JUMP JUMPDEST PUSH2 0x2609 PUSH2 0x2BA2 JUMP JUMPDEST PUSH20 0xFFFFFFFFFFFFFFFFFFFFFFFFFFFFFFFFFFFFFFFF AND PUSH2 0x2627 PUSH2 0xDCD JUMP JUMPDEST PUSH20 0xFFFFFFFFFFFFFFFFFFFFFFFFFFFFFFFFFFFFFFFF AND EQ PUSH2 0x2686 JUMPI PUSH2 0x264A PUSH2 0x2BA2 JUMP JUMPDEST PUSH1 0x40 MLOAD PUSH32 0x47096E4700000000000000000000000000000000000000000000000000000000 DUP2 MSTORE PUSH1 0x4 ADD PUSH2 0x267D SWAP2 SWAP1 PUSH2 0x47CD JUMP JUMPDEST PUSH1 0x40 MLOAD DUP1 SWAP2 SUB SWAP1 REVERT JUMPDEST ADDRESS PUSH20 0xFFFFFFFFFFFFFFFFFFFFFFFFFFFFFFFFFFFFFFFF AND PUSH2 0x26A5 PUSH2 0xDCD JUMP JUMPDEST PUSH20 0xFFFFFFFFFFFFFFFFFFFFFFFFFFFFFFFFFFFFFFFF AND EQ PUSH2 0x26F4 JUMPI PUSH0 PUSH2 0x26C9 PUSH2 0x355E JUMP JUMPDEST PUSH1 0x40 MLOAD PUSH2 0x26D7 SWAP3 SWAP2 SWAP1 PUSH2 0x5C84 JUMP JUMPDEST PUSH1 0x40 MLOAD DUP1 SWAP2 SUB SWAP1 KECCAK256 SWAP1 POP JUMPDEST DUP1 PUSH2 0x26ED PUSH1 0x5 PUSH2 0x356A JUMP JUMPDEST SUB PUSH2 0x26E2 JUMPI POP JUMPDEST JUMP JUMPDEST PUSH0 PUSH2 0x26FF PUSH2 0x2013 JUMP JUMPDEST SWAP1 POP DUP1 DUP3 GT ISZERO PUSH2 0x2748 JUMPI DUP2 DUP2 PUSH1 0x40 MLOAD PUSH32 0x243E544500000000000000000000000000000000000000000000000000000000 DUP2 MSTORE PUSH1 0x4 ADD PUSH2 0x273F SWAP3 SWAP2 SWAP1 PUSH2 0x6165 JUMP JUMPDEST PUSH1 0x40 MLOAD DUP1 SWAP2 SUB SWAP1 REVERT JUMPDEST PUSH0 PUSH2 0x2751 PUSH2 0x2030 JUMP JUMPDEST SWAP1 POP PUSH2 0x2778 PUSH2 0x275E PUSH2 0x1F82 JUMP JUMPDEST PUSH2 0x2767 DUP6 PUSH2 0x36BF JUMP JUMPDEST PUSH1 0x8 PUSH2 0x372C SWAP1 SWAP3 SWAP2 SWAP1 PUSH4 0xFFFFFFFF AND JUMP JUMPDEST POP POP PUSH32 0x553476BF02EF2726E8CE5CED78D63E26E602E4A2257B1F559418E24B4633997 DUP2 DUP5 PUSH1 0x40 MLOAD PUSH2 0x27AB SWAP3 SWAP2 SWAP1 PUSH2 0x6165 JUMP JUMPDEST PUSH1 0x40 MLOAD DUP1 SWAP2 SUB SWAP1 LOG1 POP POP POP JUMP JUMPDEST PUSH0 DUP2 PUSH1 0x7 DUP2 GT ISZERO PUSH2 0x27CC JUMPI PUSH2 0x27CB PUSH2 0x4DCD JUMP JUMPDEST JUMPDEST PUSH1 0xFF AND PUSH1 0x1 SWAP1 SHL PUSH0 SHL SWAP1 POP SWAP2 SWAP1 POP JUMP JUMPDEST PUSH0 DUP1 PUSH2 0x27E7 DUP5 PUSH2 0x15A8 JUMP JUMPDEST SWAP1 POP PUSH0 DUP1 SHL DUP4 PUSH2 0x27F6 DUP4 PUSH2 0x27B8 JUMP JUMPDEST AND SUB PUSH2 0x283D JUMPI DUP4 DUP2 DUP5 PUSH1 0x40 MLOAD PUSH32 0x31B75E4D00000000000000000000000000000000000000000000000000000000 DUP2 MSTORE PUSH1 0x4 ADD PUSH2 0x2834 SWAP4 SWAP3 SWAP2 SWAP1 PUSH2 0x618C JUMP JUMPDEST PUSH1 0x40 MLOAD DUP1 SWAP2 SUB SWAP1 REVERT JUMPDEST DUP1 SWAP2 POP POP SWAP3 SWAP2 POP POP JUMP JUMPDEST PUSH0 SWAP6 SWAP5 POP POP POP POP POP JUMP JUMPDEST PUSH0 DUP3 PUSH0 ADD PUSH1 0x10 SWAP1 SLOAD SWAP1 PUSH2 0x100 EXP SWAP1 DIV PUSH16 0xFFFFFFFFFFFFFFFFFFFFFFFFFFFFFFFF AND SWAP1 POP DUP3 PUSH0 ADD PUSH0 SWAP1 SLOAD SWAP1 PUSH2 0x100 EXP SWAP1 DIV PUSH16 0xFFFFFFFFFFFFFFFFFFFFFFFFFFFFFFFF AND PUSH16 0xFFFFFFFFFFFFFFFFFFFFFFFFFFFFFFFF AND PUSH1 0x1 DUP3 ADD PUSH16 0xFFFFFFFFFFFFFFFFFFFFFFFFFFFFFFFF AND SUB PUSH2 0x28F2 JUMPI PUSH1 0x40 MLOAD PUSH32 0x8ACB5F2700000000000000000000000000000000000000000000000000000000 DUP2 MSTORE PUSH1 0x4 ADD PUSH1 0x40 MLOAD DUP1 SWAP2 SUB SWAP1 REVERT JUMPDEST DUP2 DUP4 PUSH1 0x1 ADD PUSH0 DUP4 PUSH16 0xFFFFFFFFFFFFFFFFFFFFFFFFFFFFFFFF AND PUSH16 0xFFFFFFFFFFFFFFFFFFFFFFFFFFFFFFFF AND DUP2 MSTORE PUSH1 0x20 ADD SWAP1 DUP2 MSTORE PUSH1 0x20 ADD PUSH0 KECCAK256 DUP2 SWAP1 SSTORE POP PUSH1 0x1 DUP2 ADD DUP4 PUSH0 ADD PUSH1 0x10 PUSH2 0x100 EXP DUP2 SLOAD DUP2 PUSH16 0xFFFFFFFFFFFFFFFFFFFFFFFFFFFFFFFF MUL NOT AND SWAP1 DUP4 PUSH16 0xFFFFFFFFFFFFFFFFFFFFFFFFFFFFFFFF AND MUL OR SWAP1 SSTORE POP POP POP POP JUMP JUMPDEST PUSH0 JUMPDEST DUP5 MLOAD DUP2 LT ISZERO PUSH2 0x2A4D JUMPI PUSH0 DUP1 DUP7 DUP4 DUP2 MLOAD DUP2 LT PUSH2 0x2990 JUMPI PUSH2 0x298F PUSH2 0x5A15 JUMP JUMPDEST JUMPDEST PUSH1 0x20 MUL PUSH1 0x20 ADD ADD MLOAD PUSH20 0xFFFFFFFFFFFFFFFFFFFFFFFFFFFFFFFFFFFFFFFF AND DUP7 DUP5 DUP2 MLOAD DUP2 LT PUSH2 0x29C1 JUMPI PUSH2 0x29C0 PUSH2 0x5A15 JUMP JUMPDEST JUMPDEST PUSH1 0x20 MUL PUSH1 0x20 ADD ADD MLOAD DUP7 DUP6 DUP2 MLOAD DUP2 LT PUSH2 0x29DC JUMPI PUSH2 0x29DB PUSH2 0x5A15 JUMP JUMPDEST JUMPDEST PUSH1 0x20 MUL PUSH1 0x20 ADD ADD MLOAD PUSH1 0x40 MLOAD PUSH2 0x29F1 SWAP2 SWAP1 PUSH2 0x61F1 JUMP JUMPDEST PUSH0 PUSH1 0x40 MLOAD DUP1 DUP4 SUB DUP2 DUP6 DUP8 GAS CALL SWAP3 POP POP POP RETURNDATASIZE DUP1 PUSH0 DUP2 EQ PUSH2 0x2A2B JUMPI PUSH1 0x40 MLOAD SWAP2 POP PUSH1 0x1F NOT PUSH1 0x3F RETURNDATASIZE ADD AND DUP3 ADD PUSH1 0x40 MSTORE RETURNDATASIZE DUP3 MSTORE RETURNDATASIZE PUSH0 PUSH1 0x20 DUP5 ADD RETURNDATACOPY PUSH2 0x2A30 JUMP JUMPDEST PUSH1 0x60 SWAP2 POP JUMPDEST POP SWAP2 POP SWAP2 POP PUSH2 0x2A3F DUP3 DUP3 PUSH2 0x3524 JUMP JUMPDEST POP POP POP DUP1 PUSH1 0x1 ADD SWAP1 POP PUSH2 0x2972 JUMP JUMPDEST POP POP POP POP POP POP JUMP JUMPDEST PUSH0 DUP2 PUSH0 ADD PUSH0 SWAP1 SLOAD SWAP1 PUSH2 0x100 EXP SWAP1 DIV PUSH16 0xFFFFFFFFFFFFFFFFFFFFFFFFFFFFFFFF AND PUSH16 0xFFFFFFFFFFFFFFFFFFFFFFFFFFFFFFFF AND DUP3 PUSH0 ADD PUSH1 0x10 SWAP1 SLOAD SWAP1 PUSH2 0x100 EXP SWAP1 DIV PUSH16 0xFFFFFFFFFFFFFFFFFFFFFFFFFFFFFFFF AND PUSH16 0xFFFFFFFFFFFFFFFFFFFFFFFFFFFFFFFF AND EQ SWAP1 POP SWAP2 SWAP1 POP JUMP JUMPDEST PUSH0 DUP2 PUSH0 ADD PUSH0 PUSH2 0x100 EXP DUP2 SLOAD DUP2 PUSH16 0xFFFFFFFFFFFFFFFFFFFFFFFFFFFFFFFF MUL NOT AND SWAP1 DUP4 PUSH16 0xFFFFFFFFFFFFFFFFFFFFFFFFFFFFFFFF AND MUL OR SWAP1 SSTORE POP PUSH0 DUP2 PUSH0 ADD PUSH1 0x10 PUSH2 0x100 EXP DUP2 SLOAD DUP2 PUSH16 0xFFFFFFFFFFFFFFFFFFFFFFFFFFFFFFFF MUL NOT AND SWAP1 DUP4 PUSH16 0xFFFFFFFFFFFFFFFFFFFFFFFFFFFFFFFF AND MUL OR SWAP1 SSTORE POP POP JUMP JUMPDEST PUSH0 DUP1 PUSH1 0x7 PUSH0 DUP5 DUP2 MSTORE PUSH1 0x20 ADD SWAP1 DUP2 MSTORE PUSH1 0x20 ADD PUSH0 KECCAK256 SWAP1 POP DUP1 PUSH1 0x2 ADD SLOAD DUP2 PUSH1 0x1 ADD SLOAD PUSH2 0x2B60 SWAP2 SWAP1 PUSH2 0x5A42 JUMP JUMPDEST PUSH2 0x2B71 PUSH2 0x2B6C DUP6 PUSH2 0x1398 JUMP JUMPDEST PUSH2 0x24C5 JUMP JUMPDEST GT ISZERO SWAP2 POP POP SWAP2 SWAP1 POP JUMP JUMPDEST PUSH0 DUP1 PUSH1 0x7 PUSH0 DUP5 DUP2 MSTORE PUSH1 0x20 ADD SWAP1 DUP2 MSTORE PUSH1 0x20 ADD PUSH0 KECCAK256 SWAP1 POP DUP1 PUSH0 ADD SLOAD DUP2 PUSH1 0x1 ADD SLOAD GT SWAP2 POP POP SWAP2 SWAP1 POP JUMP JUMPDEST PUSH0 CALLER SWAP1 POP SWAP1 JUMP JUMPDEST PUSH0 DUP1 PUSH2 0x2BB7 DUP7 DUP7 DUP7 DUP7 PUSH2 0x2215 JUMP JUMPDEST SWAP1 POP PUSH2 0x2C1B DUP2 PUSH2 0x2BC7 PUSH1 0x7 PUSH2 0x27B8 JUMP JUMPDEST PUSH2 0x2BD1 PUSH1 0x6 PUSH2 0x27B8 JUMP JUMPDEST PUSH2 0x2BDB PUSH1 0x2 PUSH2 0x27B8 JUMP JUMPDEST PUSH1 0x1 DUP1 PUSH1 0x7 DUP1 DUP2 GT ISZERO PUSH2 0x2BF1 JUMPI PUSH2 0x2BF0 PUSH2 0x4DCD JUMP JUMPDEST JUMPDEST PUSH2 0x2BFB SWAP2 SWAP1 PUSH2 0x6207 JUMP JUMPDEST PUSH1 0x2 PUSH2 0x2C07 SWAP2 SWAP1 PUSH2 0x636A JUMP JUMPDEST PUSH2 0x2C11 SWAP2 SWAP1 PUSH2 0x59A3 JUMP JUMPDEST PUSH0 SHL XOR XOR XOR PUSH2 0x27DC JUMP JUMPDEST POP PUSH1 0x1 PUSH1 0x4 PUSH0 DUP4 DUP2 MSTORE PUSH1 0x20 ADD SWAP1 DUP2 MSTORE PUSH1 0x20 ADD PUSH0 KECCAK256 PUSH0 ADD PUSH1 0x1F PUSH2 0x100 EXP DUP2 SLOAD DUP2 PUSH1 0xFF MUL NOT AND SWAP1 DUP4 ISZERO ISZERO MUL OR SWAP1 SSTORE POP PUSH32 0x789CF55BE980739DAD1D0699B93B58E806B51C9D96619BFA8FE0A28ABAA7B30C DUP2 PUSH1 0x40 MLOAD PUSH2 0x2C77 SWAP2 SWAP1 PUSH2 0x4690 JUMP JUMPDEST PUSH1 0x40 MLOAD DUP1 SWAP2 SUB SWAP1 LOG1 DUP1 SWAP2 POP POP SWAP5 SWAP4 POP POP POP POP JUMP JUMPDEST PUSH0 PUSH2 0x2CA0 DUP6 DUP6 DUP6 DUP6 PUSH2 0x2C9B PUSH2 0x3548 JUMP JUMPDEST PUSH2 0x2DA3 JUMP JUMPDEST SWAP1 POP SWAP5 SWAP4 POP POP POP POP JUMP JUMPDEST PUSH0 PUSH1 0x2 PUSH0 DUP4 PUSH20 0xFFFFFFFFFFFFFFFFFFFFFFFFFFFFFFFFFFFFFFFF AND PUSH20 0xFFFFFFFFFFFFFFFFFFFFFFFFFFFFFFFFFFFFFFFF AND DUP2 MSTORE PUSH1 0x20 ADD SWAP1 DUP2 MSTORE PUSH1 0x20 ADD PUSH0 KECCAK256 PUSH0 DUP2 SLOAD DUP1 SWAP3 SWAP2 SWAP1 PUSH1 0x1 ADD SWAP2 SWAP1 POP SSTORE SWAP1 POP SWAP2 SWAP1 POP JUMP JUMPDEST PUSH0 PUSH2 0x2D0F PUSH2 0x2D09 PUSH2 0x3747 JUMP JUMPDEST DUP4 PUSH2 0x37FD JUMP JUMPDEST SWAP1 POP SWAP2 SWAP1 POP JUMP JUMPDEST PUSH0 DUP1 PUSH0 PUSH2 0x2D23 DUP6 DUP6 PUSH2 0x383D JUMP JUMPDEST POP SWAP2 POP SWAP2 POP PUSH0 PUSH1 0x3 DUP2 GT ISZERO PUSH2 0x2D3B JUMPI PUSH2 0x2D3A PUSH2 0x4DCD JUMP JUMPDEST JUMPDEST DUP2 PUSH1 0x3 DUP2 GT ISZERO PUSH2 0x2D4E JUMPI PUSH2 0x2D4D PUSH2 0x4DCD JUMP JUMPDEST JUMPDEST EQ DUP1 ISZERO PUSH2 0x2D86 JUMPI POP DUP6 PUSH20 0xFFFFFFFFFFFFFFFFFFFFFFFFFFFFFFFFFFFFFFFF AND DUP3 PUSH20 0xFFFFFFFFFFFFFFFFFFFFFFFFFFFFFFFFFFFFFFFF AND EQ JUMPDEST DUP1 PUSH2 0x2D98 JUMPI POP PUSH2 0x2D97 DUP7 DUP7 DUP7 PUSH2 0x3892 JUMP JUMPDEST JUMPDEST SWAP3 POP POP POP SWAP4 SWAP3 POP POP POP JUMP JUMPDEST PUSH0 PUSH2 0x2DB7 DUP7 PUSH2 0x2DB2 PUSH1 0x1 PUSH2 0x27B8 JUMP JUMPDEST PUSH2 0x27DC JUMP JUMPDEST POP PUSH0 PUSH2 0x2DCC DUP7 PUSH2 0x2DC6 DUP10 PUSH2 0x1398 JUMP JUMPDEST DUP6 PUSH2 0x3437 JUMP JUMPDEST SWAP1 POP PUSH2 0x2DDB DUP8 DUP8 DUP8 DUP5 DUP8 PUSH2 0x39B1 JUMP JUMPDEST PUSH0 DUP4 MLOAD SUB PUSH2 0x2E3C JUMPI DUP6 PUSH20 0xFFFFFFFFFFFFFFFFFFFFFFFFFFFFFFFFFFFFFFFF AND PUSH32 0xB8E138887D0AA13BAB447E82DE9D5C1777041ECD21CA36BA824FF1E6C07DDDA4 DUP9 DUP8 DUP5 DUP9 PUSH1 0x40 MLOAD PUSH2 0x2E2F SWAP5 SWAP4 SWAP3 SWAP2 SWAP1 PUSH2 0x63B4 JUMP JUMPDEST PUSH1 0x40 MLOAD DUP1 SWAP2 SUB SWAP1 LOG2 PUSH2 0x2E93 JUMP JUMPDEST DUP6 PUSH20 0xFFFFFFFFFFFFFFFFFFFFFFFFFFFFFFFFFFFFFFFF AND PUSH32 0xE2BABFBAC5889A709B63BB7F598B324E08BC5A4FB9EC647FB3CBC9EC07EB8712 DUP9 DUP8 DUP5 DUP9 DUP9 PUSH1 0x40 MLOAD PUSH2 0x2E8A SWAP6 SWAP5 SWAP4 SWAP3 SWAP2 SWAP1 PUSH2 0x6446 JUMP JUMPDEST PUSH1 0x40 MLOAD DUP1 SWAP2 SUB SWAP1 LOG2 JUMPDEST DUP1 SWAP2 POP POP SWAP6 SWAP5 POP POP POP POP POP JUMP JUMPDEST PUSH0 PUSH6 0xFFFFFFFFFFFF DUP1 AND DUP3 GT ISZERO PUSH2 0x2EF1 JUMPI PUSH1 0x30 DUP3 PUSH1 0x40 MLOAD PUSH32 0x6DFCC65000000000000000000000000000000000000000000000000000000000 DUP2 MSTORE PUSH1 0x4 ADD PUSH2 0x2EE8 SWAP3 SWAP2 SWAP1 PUSH2 0x64DE JUMP JUMPDEST PUSH1 0x40 MLOAD DUP1 SWAP2 SUB SWAP1 REVERT JUMPDEST DUP2 SWAP1 POP SWAP2 SWAP1 POP JUMP JUMPDEST PUSH0 DUP1 DUP4 PUSH0 ADD DUP1 SLOAD SWAP1 POP SWAP1 POP PUSH0 DUP1 DUP3 SWAP1 POP PUSH1 0x5 DUP4 GT ISZERO PUSH2 0x2F7A JUMPI PUSH0 PUSH2 0x2F1C DUP5 PUSH2 0x3BA0 JUMP JUMPDEST DUP5 PUSH2 0x2F27 SWAP2 SWAP1 PUSH2 0x59A3 JUMP JUMPDEST SWAP1 POP PUSH2 0x2F35 DUP8 PUSH0 ADD DUP3 PUSH2 0x3C96 JUMP JUMPDEST PUSH0 ADD PUSH0 SWAP1 SLOAD SWAP1 PUSH2 0x100 EXP SWAP1 DIV PUSH6 0xFFFFFFFFFFFF AND PUSH6 0xFFFFFFFFFFFF AND DUP7 PUSH6 0xFFFFFFFFFFFF AND LT ISZERO PUSH2 0x2F68 JUMPI DUP1 SWAP2 POP PUSH2 0x2F78 JUMP JUMPDEST PUSH1 0x1 DUP2 PUSH2 0x2F75 SWAP2 SWAP1 PUSH2 0x5A42 JUMP JUMPDEST SWAP3 POP JUMPDEST POP JUMPDEST PUSH0 PUSH2 0x2F89 DUP8 PUSH0 ADD DUP8 DUP6 DUP6 PUSH2 0x3CA8 JUMP JUMPDEST SWAP1 POP PUSH0 DUP2 EQ PUSH2 0x2FD8 JUMPI PUSH2 0x2FAA DUP8 PUSH0 ADD PUSH1 0x1 DUP4 PUSH2 0x2FA5 SWAP2 SWAP1 PUSH2 0x59A3 JUMP JUMPDEST PUSH2 0x3C96 JUMP JUMPDEST PUSH0 ADD PUSH1 0x6 SWAP1 SLOAD SWAP1 PUSH2 0x100 EXP SWAP1 DIV PUSH26 0xFFFFFFFFFFFFFFFFFFFFFFFFFFFFFFFFFFFFFFFFFFFFFFFFFFFF AND PUSH2 0x2FDA JUMP JUMPDEST PUSH0 JUMPDEST SWAP5 POP POP POP POP POP SWAP3 SWAP2 POP POP JUMP JUMPDEST PUSH0 DUP1 DUP3 MLOAD SWAP1 POP PUSH1 0x34 DUP2 LT ISZERO PUSH2 0x2FFF JUMPI PUSH1 0x1 SWAP2 POP POP PUSH2 0x3128 JUMP JUMPDEST PUSH0 PUSH1 0x14 DUP3 SUB DUP5 ADD MLOAD SWAP1 POP PUSH32 0x2370726F706F7365723D30780000000000000000000000000000000000000000 PUSH20 0xFFFFFFFFFFFFFFFFFFFFFFFFFFFFFFFFFFFFFFFF NOT AND DUP2 PUSH20 0xFFFFFFFFFFFFFFFFFFFFFFFFFFFFFFFFFFFFFFFF NOT AND EQ PUSH2 0x3069 JUMPI PUSH1 0x1 SWAP3 POP POP POP PUSH2 0x3128 JUMP JUMPDEST PUSH0 DUP1 PUSH1 0x28 DUP5 PUSH2 0x3078 SWAP2 SWAP1 PUSH2 0x59A3 JUMP JUMPDEST SWAP1 POP JUMPDEST DUP4 DUP2 LT ISZERO PUSH2 0x30F2 JUMPI PUSH0 DUP1 PUSH2 0x30AB DUP9 DUP5 DUP2 MLOAD DUP2 LT PUSH2 0x309B JUMPI PUSH2 0x309A PUSH2 0x5A15 JUMP JUMPDEST JUMPDEST PUSH1 0x20 ADD ADD MLOAD PUSH1 0xF8 SHR PUSH1 0xF8 SHL PUSH2 0x3D1D JUMP JUMPDEST SWAP2 POP SWAP2 POP DUP2 PUSH2 0x30C3 JUMPI PUSH1 0x1 SWAP7 POP POP POP POP POP POP POP PUSH2 0x3128 JUMP JUMPDEST DUP1 PUSH1 0xFF AND PUSH1 0x4 DUP6 PUSH20 0xFFFFFFFFFFFFFFFFFFFFFFFFFFFFFFFFFFFFFFFF AND SWAP1 SHL OR SWAP4 POP POP POP DUP1 PUSH1 0x1 ADD SWAP1 POP PUSH2 0x307B JUMP JUMPDEST POP DUP6 PUSH20 0xFFFFFFFFFFFFFFFFFFFFFFFFFFFFFFFFFFFFFFFF AND DUP2 PUSH20 0xFFFFFFFFFFFFFFFFFFFFFFFFFFFFFFFFFFFFFFFF AND EQ SWAP4 POP POP POP POP JUMPDEST SWAP3 SWAP2 POP POP JUMP JUMPDEST PUSH0 PUSH2 0x3142 DUP7 DUP7 DUP7 DUP7 DUP1 MLOAD SWAP1 PUSH1 0x20 ADD KECCAK256 PUSH2 0x2215 JUMP JUMPDEST SWAP1 POP DUP5 MLOAD DUP7 MLOAD EQ ISZERO DUP1 PUSH2 0x3157 JUMPI POP DUP4 MLOAD DUP7 MLOAD EQ ISZERO JUMPDEST DUP1 PUSH2 0x3162 JUMPI POP PUSH0 DUP7 MLOAD EQ JUMPDEST ISZERO PUSH2 0x31AB JUMPI DUP6 MLOAD DUP5 MLOAD DUP7 MLOAD PUSH1 0x40 MLOAD PUSH32 0x447B05D000000000000000000000000000000000000000000000000000000000 DUP2 MSTORE PUSH1 0x4 ADD PUSH2 0x31A2 SWAP4 SWAP3 SWAP2 SWAP1 PUSH2 0x4E97 JUMP JUMPDEST PUSH1 0x40 MLOAD DUP1 SWAP2 SUB SWAP1 REVERT JUMPDEST PUSH0 PUSH1 0x4 PUSH0 DUP4 DUP2 MSTORE PUSH1 0x20 ADD SWAP1 DUP2 MSTORE PUSH1 0x20 ADD PUSH0 KECCAK256 PUSH0 ADD PUSH1 0x14 SWAP1 SLOAD SWAP1 PUSH2 0x100 EXP SWAP1 DIV PUSH6 0xFFFFFFFFFFFF AND PUSH6 0xFFFFFFFFFFFF AND EQ PUSH2 0x322A JUMPI DUP1 PUSH2 0x31E9 DUP3 PUSH2 0x15A8 JUMP JUMPDEST PUSH0 DUP1 SHL PUSH1 0x40 MLOAD PUSH32 0x31B75E4D00000000000000000000000000000000000000000000000000000000 DUP2 MSTORE PUSH1 0x4 ADD PUSH2 0x3221 SWAP4 SWAP3 SWAP2 SWAP1 PUSH2 0x618C JUMP JUMPDEST PUSH1 0x40 MLOAD DUP1 SWAP2 SUB SWAP1 REVERT JUMPDEST PUSH0 PUSH2 0x3233 PUSH2 0x159E JUMP JUMPDEST PUSH2 0x323B PUSH2 0x1F82 JUMP JUMPDEST PUSH6 0xFFFFFFFFFFFF AND PUSH2 0x324D SWAP2 SWAP1 PUSH2 0x5A42 JUMP JUMPDEST SWAP1 POP PUSH0 PUSH2 0x3258 PUSH2 0xEB5 JUMP JUMPDEST SWAP1 POP PUSH0 PUSH1 0x4 PUSH0 DUP6 DUP2 MSTORE PUSH1 0x20 ADD SWAP1 DUP2 MSTORE PUSH1 0x20 ADD PUSH0 KECCAK256 SWAP1 POP DUP5 DUP2 PUSH0 ADD PUSH0 PUSH2 0x100 EXP DUP2 SLOAD DUP2 PUSH20 0xFFFFFFFFFFFFFFFFFFFFFFFFFFFFFFFFFFFFFFFF MUL NOT AND SWAP1 DUP4 PUSH20 0xFFFFFFFFFFFFFFFFFFFFFFFFFFFFFFFFFFFFFFFF AND MUL OR SWAP1 SSTORE POP PUSH2 0x32B8 DUP4 PUSH2 0x2EA0 JUMP JUMPDEST DUP2 PUSH0 ADD PUSH1 0x14 PUSH2 0x100 EXP DUP2 SLOAD DUP2 PUSH6 0xFFFFFFFFFFFF MUL NOT AND SWAP1 DUP4 PUSH6 0xFFFFFFFFFFFF AND MUL OR SWAP1 SSTORE POP PUSH2 0x32E6 DUP3 PUSH2 0x3DB4 JUMP JUMPDEST DUP2 PUSH0 ADD PUSH1 0x1A PUSH2 0x100 EXP DUP2 SLOAD DUP2 PUSH4 0xFFFFFFFF MUL NOT AND SWAP1 DUP4 PUSH4 0xFFFFFFFF AND MUL OR SWAP1 SSTORE POP PUSH32 0x7D84A6263AE0D98D3329BD7B46BB4E8D6F98CD35A7ADB45C274C8B7FD5EBD5E0 DUP5 DUP7 DUP12 DUP12 DUP14 MLOAD PUSH8 0xFFFFFFFFFFFFFFFF DUP2 GT ISZERO PUSH2 0x3347 JUMPI PUSH2 0x3346 PUSH2 0x4818 JUMP JUMPDEST JUMPDEST PUSH1 0x40 MLOAD SWAP1 DUP1 DUP3 MSTORE DUP1 PUSH1 0x20 MUL PUSH1 0x20 ADD DUP3 ADD PUSH1 0x40 MSTORE DUP1 ISZERO PUSH2 0x337A JUMPI DUP2 PUSH1 0x20 ADD JUMPDEST PUSH1 0x60 DUP2 MSTORE PUSH1 0x20 ADD SWAP1 PUSH1 0x1 SWAP1 SUB SWAP1 DUP2 PUSH2 0x3365 JUMPI SWAP1 POP JUMPDEST POP DUP13 DUP10 DUP10 DUP12 PUSH2 0x3389 SWAP2 SWAP1 PUSH2 0x5A42 JUMP JUMPDEST DUP15 PUSH1 0x40 MLOAD PUSH2 0x339F SWAP10 SWAP9 SWAP8 SWAP7 SWAP6 SWAP5 SWAP4 SWAP3 SWAP2 SWAP1 PUSH2 0x6608 JUMP JUMPDEST PUSH1 0x40 MLOAD DUP1 SWAP2 SUB SWAP1 LOG1 POP POP POP SWAP6 SWAP5 POP POP POP POP POP JUMP JUMPDEST PUSH1 0x60 PUSH2 0x33E8 PUSH0 PUSH32 0x0 PUSH2 0x3E0B SWAP1 SWAP2 SWAP1 PUSH4 0xFFFFFFFF AND JUMP JUMPDEST SWAP1 POP SWAP1 JUMP JUMPDEST PUSH1 0x60 PUSH2 0x3423 PUSH1 0x1 PUSH32 0x0 PUSH2 0x3E0B SWAP1 SWAP2 SWAP1 PUSH4 0xFFFFFFFF AND JUMP JUMPDEST SWAP1 POP SWAP1 JUMP JUMPDEST PUSH0 PUSH2 0x3432 NUMBER PUSH2 0x2EA0 JUMP JUMPDEST SWAP1 POP SWAP1 JUMP JUMPDEST PUSH0 PUSH2 0x3440 PUSH2 0x2571 JUMP JUMPDEST PUSH20 0xFFFFFFFFFFFFFFFFFFFFFFFFFFFFFFFFFFFFFFFF AND PUSH4 0x3A46B1A8 DUP6 DUP6 PUSH1 0x40 MLOAD DUP4 PUSH4 0xFFFFFFFF AND PUSH1 0xE0 SHL DUP2 MSTORE PUSH1 0x4 ADD PUSH2 0x347A SWAP3 SWAP2 SWAP1 PUSH2 0x60E9 JUMP JUMPDEST PUSH1 0x20 PUSH1 0x40 MLOAD DUP1 DUP4 SUB DUP2 DUP7 GAS STATICCALL ISZERO DUP1 ISZERO PUSH2 0x3495 JUMPI RETURNDATASIZE PUSH0 DUP1 RETURNDATACOPY RETURNDATASIZE PUSH0 REVERT JUMPDEST POP POP POP POP PUSH1 0x40 MLOAD RETURNDATASIZE PUSH1 0x1F NOT PUSH1 0x1F DUP3 ADD AND DUP3 ADD DUP1 PUSH1 0x40 MSTORE POP DUP2 ADD SWAP1 PUSH2 0x34B9 SWAP2 SWAP1 PUSH2 0x59EA JUMP JUMPDEST SWAP1 POP SWAP4 SWAP3 POP POP POP JUMP JUMPDEST PUSH0 DUP1 DUP3 PUSH0 ADD DUP1 SLOAD SWAP1 POP SWAP1 POP PUSH0 DUP2 EQ PUSH2 0x351A JUMPI PUSH2 0x34EC DUP4 PUSH0 ADD PUSH1 0x1 DUP4 PUSH2 0x34E7 SWAP2 SWAP1 PUSH2 0x59A3 JUMP JUMPDEST PUSH2 0x3C96 JUMP JUMPDEST PUSH0 ADD PUSH1 0x6 SWAP1 SLOAD SWAP1 PUSH2 0x100 EXP SWAP1 DIV PUSH26 0xFFFFFFFFFFFFFFFFFFFFFFFFFFFFFFFFFFFFFFFFFFFFFFFFFFFF AND PUSH2 0x351C JUMP JUMPDEST PUSH0 JUMPDEST SWAP2 POP POP SWAP2 SWAP1 POP JUMP JUMPDEST PUSH1 0x60 DUP3 PUSH2 0x3539 JUMPI PUSH2 0x3534 DUP3 PUSH2 0x3EB8 JUMP JUMPDEST PUSH2 0x3541 JUMP JUMPDEST DUP2 SWAP1 POP PUSH2 0x3542 JUMP JUMPDEST JUMPDEST SWAP3 SWAP2 POP POP JUMP JUMPDEST PUSH1 0x60 PUSH1 0x40 MLOAD DUP1 PUSH1 0x20 ADD PUSH1 0x40 MSTORE DUP1 PUSH0 DUP2 MSTORE POP SWAP1 POP SWAP1 JUMP JUMPDEST CALLDATASIZE PUSH0 DUP1 CALLDATASIZE SWAP2 POP SWAP2 POP SWAP1 SWAP2 JUMP JUMPDEST PUSH0 DUP1 DUP3 PUSH0 ADD PUSH0 SWAP1 SLOAD SWAP1 PUSH2 0x100 EXP SWAP1 DIV PUSH16 0xFFFFFFFFFFFFFFFFFFFFFFFFFFFFFFFF AND SWAP1 POP DUP3 PUSH0 ADD PUSH1 0x10 SWAP1 SLOAD SWAP1 PUSH2 0x100 EXP SWAP1 DIV PUSH16 0xFFFFFFFFFFFFFFFFFFFFFFFFFFFFFFFF AND PUSH16 0xFFFFFFFFFFFFFFFFFFFFFFFFFFFFFFFF AND DUP2 PUSH16 0xFFFFFFFFFFFFFFFFFFFFFFFFFFFFFFFF AND SUB PUSH2 0x3609 JUMPI PUSH1 0x40 MLOAD PUSH32 0x75E52F4F00000000000000000000000000000000000000000000000000000000 DUP2 MSTORE PUSH1 0x4 ADD PUSH1 0x40 MLOAD DUP1 SWAP2 SUB SWAP1 REVERT JUMPDEST DUP3 PUSH1 0x1 ADD PUSH0 DUP3 PUSH16 0xFFFFFFFFFFFFFFFFFFFFFFFFFFFFFFFF AND PUSH16 0xFFFFFFFFFFFFFFFFFFFFFFFFFFFFFFFF AND DUP2 MSTORE PUSH1 0x20 ADD SWAP1 DUP2 MSTORE PUSH1 0x20 ADD PUSH0 KECCAK256 SLOAD SWAP2 POP DUP3 PUSH1 0x1 ADD PUSH0 DUP3 PUSH16 0xFFFFFFFFFFFFFFFFFFFFFFFFFFFFFFFF AND PUSH16 0xFFFFFFFFFFFFFFFFFFFFFFFFFFFFFFFF AND DUP2 MSTORE PUSH1 0x20 ADD SWAP1 DUP2 MSTORE PUSH1 0x20 ADD PUSH0 KECCAK256 PUSH0 SWAP1 SSTORE PUSH1 0x1 DUP2 ADD DUP4 PUSH0 ADD PUSH0 PUSH2 0x100 EXP DUP2 SLOAD DUP2 PUSH16 0xFFFFFFFFFFFFFFFFFFFFFFFFFFFFFFFF MUL NOT AND SWAP1 DUP4 PUSH16 0xFFFFFFFFFFFFFFFFFFFFFFFFFFFFFFFF AND MUL OR SWAP1 SSTORE POP POP SWAP2 SWAP1 POP JUMP JUMPDEST PUSH0 PUSH26 0xFFFFFFFFFFFFFFFFFFFFFFFFFFFFFFFFFFFFFFFFFFFFFFFFFFFF DUP1 AND DUP3 GT ISZERO PUSH2 0x3724 JUMPI PUSH1 0xD0 DUP3 PUSH1 0x40 MLOAD PUSH32 0x6DFCC65000000000000000000000000000000000000000000000000000000000 DUP2 MSTORE PUSH1 0x4 ADD PUSH2 0x371B SWAP3 SWAP2 SWAP1 PUSH2 0x66EF JUMP JUMPDEST PUSH1 0x40 MLOAD DUP1 SWAP2 SUB SWAP1 REVERT JUMPDEST DUP2 SWAP1 POP SWAP2 SWAP1 POP JUMP JUMPDEST PUSH0 DUP1 PUSH2 0x373B DUP6 PUSH0 ADD DUP6 DUP6 PUSH2 0x3EFC JUMP JUMPDEST SWAP2 POP SWAP2 POP SWAP4 POP SWAP4 SWAP2 POP POP JUMP JUMPDEST PUSH0 PUSH32 0x0 PUSH20 0xFFFFFFFFFFFFFFFFFFFFFFFFFFFFFFFFFFFFFFFF AND ADDRESS PUSH20 0xFFFFFFFFFFFFFFFFFFFFFFFFFFFFFFFFFFFFFFFF AND EQ DUP1 ISZERO PUSH2 0x37C2 JUMPI POP PUSH32 0x0 CHAINID EQ JUMPDEST ISZERO PUSH2 0x37EF JUMPI PUSH32 0x0 SWAP1 POP PUSH2 0x37FA JUMP JUMPDEST PUSH2 0x37F7 PUSH2 0x4264 JUMP JUMPDEST SWAP1 POP JUMPDEST SWAP1 JUMP JUMPDEST PUSH0 PUSH1 0x40 MLOAD PUSH32 0x1901000000000000000000000000000000000000000000000000000000000000 DUP2 MSTORE DUP4 PUSH1 0x2 DUP3 ADD MSTORE DUP3 PUSH1 0x22 DUP3 ADD MSTORE PUSH1 0x42 DUP2 KECCAK256 SWAP2 POP POP SWAP3 SWAP2 POP POP JUMP JUMPDEST PUSH0 DUP1 PUSH0 PUSH1 0x41 DUP5 MLOAD SUB PUSH2 0x387D JUMPI PUSH0 DUP1 PUSH0 PUSH1 0x20 DUP8 ADD MLOAD SWAP3 POP PUSH1 0x40 DUP8 ADD MLOAD SWAP2 POP PUSH1 0x60 DUP8 ADD MLOAD PUSH0 BYTE SWAP1 POP PUSH2 0x386F DUP9 DUP3 DUP6 DUP6 PUSH2 0x42F9 JUMP JUMPDEST SWAP6 POP SWAP6 POP SWAP6 POP POP POP POP PUSH2 0x388B JUMP JUMPDEST PUSH0 PUSH1 0x2 DUP6 MLOAD PUSH0 SHL SWAP3 POP SWAP3 POP SWAP3 POP JUMPDEST SWAP3 POP SWAP3 POP SWAP3 JUMP JUMPDEST PUSH0 DUP1 PUSH0 DUP6 PUSH20 0xFFFFFFFFFFFFFFFFFFFFFFFFFFFFFFFFFFFFFFFF AND DUP6 DUP6 PUSH1 0x40 MLOAD PUSH1 0x24 ADD PUSH2 0x38BF SWAP3 SWAP2 SWAP1 PUSH2 0x6716 JUMP JUMPDEST PUSH1 0x40 MLOAD PUSH1 0x20 DUP2 DUP4 SUB SUB DUP2 MSTORE SWAP1 PUSH1 0x40 MSTORE PUSH4 0x1626BA7E PUSH1 0xE0 SHL PUSH1 0x20 DUP3 ADD DUP1 MLOAD PUSH28 0xFFFFFFFFFFFFFFFFFFFFFFFFFFFFFFFFFFFFFFFFFFFFFFFFFFFFFFFF DUP4 DUP2 DUP4 AND OR DUP4 MSTORE POP POP POP POP PUSH1 0x40 MLOAD PUSH2 0x3911 SWAP2 SWAP1 PUSH2 0x61F1 JUMP JUMPDEST PUSH0 PUSH1 0x40 MLOAD DUP1 DUP4 SUB DUP2 DUP6 GAS STATICCALL SWAP2 POP POP RETURNDATASIZE DUP1 PUSH0 DUP2 EQ PUSH2 0x3949 JUMPI PUSH1 0x40 MLOAD SWAP2 POP PUSH1 0x1F NOT PUSH1 0x3F RETURNDATASIZE ADD AND DUP3 ADD PUSH1 0x40 MSTORE RETURNDATASIZE DUP3 MSTORE RETURNDATASIZE PUSH0 PUSH1 0x20 DUP5 ADD RETURNDATACOPY PUSH2 0x394E JUMP JUMPDEST PUSH1 0x60 SWAP2 POP JUMPDEST POP SWAP2 POP SWAP2 POP DUP2 DUP1 ISZERO PUSH2 0x3962 JUMPI POP PUSH1 0x20 DUP2 MLOAD LT ISZERO JUMPDEST DUP1 ISZERO PUSH2 0x39A6 JUMPI POP PUSH4 0x1626BA7E PUSH1 0xE0 SHL PUSH28 0xFFFFFFFFFFFFFFFFFFFFFFFFFFFFFFFFFFFFFFFFFFFFFFFFFFFFFFFF NOT AND DUP2 DUP1 PUSH1 0x20 ADD SWAP1 MLOAD DUP2 ADD SWAP1 PUSH2 0x39A4 SWAP2 SWAP1 PUSH2 0x6758 JUMP JUMPDEST EQ JUMPDEST SWAP3 POP POP POP SWAP4 SWAP3 POP POP POP JUMP JUMPDEST PUSH0 PUSH1 0x7 PUSH0 DUP8 DUP2 MSTORE PUSH1 0x20 ADD SWAP1 DUP2 MSTORE PUSH1 0x20 ADD PUSH0 KECCAK256 SWAP1 POP DUP1 PUSH1 0x3 ADD PUSH0 DUP7 PUSH20 0xFFFFFFFFFFFFFFFFFFFFFFFFFFFFFFFFFFFFFFFF AND PUSH20 0xFFFFFFFFFFFFFFFFFFFFFFFFFFFFFFFFFFFFFFFF AND DUP2 MSTORE PUSH1 0x20 ADD SWAP1 DUP2 MSTORE PUSH1 0x20 ADD PUSH0 KECCAK256 PUSH0 SWAP1 SLOAD SWAP1 PUSH2 0x100 EXP SWAP1 DIV PUSH1 0xFF AND ISZERO PUSH2 0x3A53 JUMPI DUP5 PUSH1 0x40 MLOAD PUSH32 0x71C6AF4900000000000000000000000000000000000000000000000000000000 DUP2 MSTORE PUSH1 0x4 ADD PUSH2 0x3A4A SWAP2 SWAP1 PUSH2 0x47CD JUMP JUMPDEST PUSH1 0x40 MLOAD DUP1 SWAP2 SUB SWAP1 REVERT JUMPDEST PUSH1 0x1 DUP2 PUSH1 0x3 ADD PUSH0 DUP8 PUSH20 0xFFFFFFFFFFFFFFFFFFFFFFFFFFFFFFFFFFFFFFFF AND PUSH20 0xFFFFFFFFFFFFFFFFFFFFFFFFFFFFFFFFFFFFFFFF AND DUP2 MSTORE PUSH1 0x20 ADD SWAP1 DUP2 MSTORE PUSH1 0x20 ADD PUSH0 KECCAK256 PUSH0 PUSH2 0x100 EXP DUP2 SLOAD DUP2 PUSH1 0xFF MUL NOT AND SWAP1 DUP4 ISZERO ISZERO MUL OR SWAP1 SSTORE POP PUSH0 PUSH1 0x2 DUP2 GT ISZERO PUSH2 0x3ABD JUMPI PUSH2 0x3ABC PUSH2 0x4DCD JUMP JUMPDEST JUMPDEST PUSH1 0xFF AND DUP5 PUSH1 0xFF AND SUB PUSH2 0x3AE7 JUMPI DUP3 DUP2 PUSH0 ADD PUSH0 DUP3 DUP3 SLOAD PUSH2 0x3ADB SWAP2 SWAP1 PUSH2 0x5A42 JUMP JUMPDEST SWAP3 POP POP DUP2 SWAP1 SSTORE POP PUSH2 0x3B98 JUMP JUMPDEST PUSH1 0x1 PUSH1 0x2 DUP2 GT ISZERO PUSH2 0x3AFB JUMPI PUSH2 0x3AFA PUSH2 0x4DCD JUMP JUMPDEST JUMPDEST PUSH1 0xFF AND DUP5 PUSH1 0xFF AND SUB PUSH2 0x3B26 JUMPI DUP3 DUP2 PUSH1 0x1 ADD PUSH0 DUP3 DUP3 SLOAD PUSH2 0x3B1A SWAP2 SWAP1 PUSH2 0x5A42 JUMP JUMPDEST SWAP3 POP POP DUP2 SWAP1 SSTORE POP PUSH2 0x3B97 JUMP JUMPDEST PUSH1 0x2 DUP1 DUP2 GT ISZERO PUSH2 0x3B39 JUMPI PUSH2 0x3B38 PUSH2 0x4DCD JUMP JUMPDEST JUMPDEST PUSH1 0xFF AND DUP5 PUSH1 0xFF AND SUB PUSH2 0x3B64 JUMPI DUP3 DUP2 PUSH1 0x2 ADD PUSH0 DUP3 DUP3 SLOAD PUSH2 0x3B58 SWAP2 SWAP1 PUSH2 0x5A42 JUMP JUMPDEST SWAP3 POP POP DUP2 SWAP1 SSTORE POP PUSH2 0x3B96 JUMP JUMPDEST PUSH1 0x40 MLOAD PUSH32 0x6B337C200000000000000000000000000000000000000000000000000000000 DUP2 MSTORE PUSH1 0x4 ADD PUSH1 0x40 MLOAD DUP1 SWAP2 SUB SWAP1 REVERT JUMPDEST JUMPDEST JUMPDEST POP POP POP POP POP POP JUMP JUMPDEST PUSH0 DUP1 DUP3 SUB PUSH2 0x3BB0 JUMPI PUSH0 SWAP1 POP PUSH2 0x3C91 JUMP JUMPDEST PUSH0 PUSH1 0x1 PUSH2 0x3BBC DUP5 PUSH2 0x43E0 JUMP JUMPDEST SWAP1 SHR PUSH1 0x1 SWAP1 SHL SWAP1 POP PUSH1 0x1 DUP2 DUP5 DUP2 PUSH2 0x3BD6 JUMPI PUSH2 0x3BD5 PUSH2 0x5B44 JUMP JUMPDEST JUMPDEST DIV DUP3 ADD SWAP1 SHR SWAP1 POP PUSH1 0x1 DUP2 DUP5 DUP2 PUSH2 0x3BEF JUMPI PUSH2 0x3BEE PUSH2 0x5B44 JUMP JUMPDEST JUMPDEST DIV DUP3 ADD SWAP1 SHR SWAP1 POP PUSH1 0x1 DUP2 DUP5 DUP2 PUSH2 0x3C08 JUMPI PUSH2 0x3C07 PUSH2 0x5B44 JUMP JUMPDEST JUMPDEST DIV DUP3 ADD SWAP1 SHR SWAP1 POP PUSH1 0x1 DUP2 DUP5 DUP2 PUSH2 0x3C21 JUMPI PUSH2 0x3C20 PUSH2 0x5B44 JUMP JUMPDEST JUMPDEST DIV DUP3 ADD SWAP1 SHR SWAP1 POP PUSH1 0x1 DUP2 DUP5 DUP2 PUSH2 0x3C3A JUMPI PUSH2 0x3C39 PUSH2 0x5B44 JUMP JUMPDEST JUMPDEST DIV DUP3 ADD SWAP1 SHR SWAP1 POP PUSH1 0x1 DUP2 DUP5 DUP2 PUSH2 0x3C53 JUMPI PUSH2 0x3C52 PUSH2 0x5B44 JUMP JUMPDEST JUMPDEST DIV DUP3 ADD SWAP1 SHR SWAP1 POP PUSH1 0x1 DUP2 DUP5 DUP2 PUSH2 0x3C6C JUMPI PUSH2 0x3C6B PUSH2 0x5B44 JUMP JUMPDEST JUMPDEST DIV DUP3 ADD SWAP1 SHR SWAP1 POP PUSH2 0x3C8D DUP2 DUP3 DUP6 DUP2 PUSH2 0x3C87 JUMPI PUSH2 0x3C86 PUSH2 0x5B44 JUMP JUMPDEST JUMPDEST DIV PUSH2 0x44B7 JUMP JUMPDEST SWAP2 POP POP JUMPDEST SWAP2 SWAP1 POP JUMP JUMPDEST PUSH0 DUP3 PUSH0 MSTORE DUP2 PUSH1 0x20 PUSH0 KECCAK256 ADD SWAP1 POP SWAP3 SWAP2 POP POP JUMP JUMPDEST PUSH0 JUMPDEST DUP2 DUP4 LT ISZERO PUSH2 0x3D12 JUMPI PUSH0 PUSH2 0x3CBD DUP5 DUP5 PUSH2 0x44CF JUMP JUMPDEST SWAP1 POP DUP5 PUSH6 0xFFFFFFFFFFFF AND PUSH2 0x3CD2 DUP8 DUP4 PUSH2 0x3C96 JUMP JUMPDEST PUSH0 ADD PUSH0 SWAP1 SLOAD SWAP1 PUSH2 0x100 EXP SWAP1 DIV PUSH6 0xFFFFFFFFFFFF AND PUSH6 0xFFFFFFFFFFFF AND GT ISZERO PUSH2 0x3CFC JUMPI DUP1 SWAP3 POP PUSH2 0x3D0C JUMP JUMPDEST PUSH1 0x1 DUP2 PUSH2 0x3D09 SWAP2 SWAP1 PUSH2 0x5A42 JUMP JUMPDEST SWAP4 POP JUMPDEST POP PUSH2 0x3CAA JUMP JUMPDEST DUP2 SWAP1 POP SWAP5 SWAP4 POP POP POP POP JUMP JUMPDEST PUSH0 DUP1 PUSH0 DUP4 PUSH1 0xF8 SHR SWAP1 POP DUP1 PUSH1 0xFF AND PUSH1 0x2F LT DUP1 ISZERO PUSH2 0x3D3C JUMPI POP PUSH1 0x3A DUP2 PUSH1 0xFF AND LT JUMPDEST ISZERO PUSH2 0x3D51 JUMPI PUSH1 0x1 PUSH1 0x30 DUP3 SUB SWAP3 POP SWAP3 POP POP PUSH2 0x3DAF JUMP JUMPDEST DUP1 PUSH1 0xFF AND PUSH1 0x40 LT DUP1 ISZERO PUSH2 0x3D67 JUMPI POP PUSH1 0x47 DUP2 PUSH1 0xFF AND LT JUMPDEST ISZERO PUSH2 0x3D7C JUMPI PUSH1 0x1 PUSH1 0x37 DUP3 SUB SWAP3 POP SWAP3 POP POP PUSH2 0x3DAF JUMP JUMPDEST DUP1 PUSH1 0xFF AND PUSH1 0x60 LT DUP1 ISZERO PUSH2 0x3D92 JUMPI POP PUSH1 0x67 DUP2 PUSH1 0xFF AND LT JUMPDEST ISZERO PUSH2 0x3DA7 JUMPI PUSH1 0x1 PUSH1 0x57 DUP3 SUB SWAP3 POP SWAP3 POP POP PUSH2 0x3DAF JUMP JUMPDEST PUSH0 DUP1 SWAP3 POP SWAP3 POP POP JUMPDEST SWAP2 POP SWAP2 JUMP JUMPDEST PUSH0 PUSH4 0xFFFFFFFF DUP1 AND DUP3 GT ISZERO PUSH2 0x3E03 JUMPI PUSH1 0x20 DUP3 PUSH1 0x40 MLOAD PUSH32 0x6DFCC65000000000000000000000000000000000000000000000000000000000 DUP2 MSTORE PUSH1 0x4 ADD PUSH2 0x3DFA SWAP3 SWAP2 SWAP1 PUSH2 0x67BC JUMP JUMPDEST PUSH1 0x40 MLOAD DUP1 SWAP2 SUB SWAP1 REVERT JUMPDEST DUP2 SWAP1 POP SWAP2 SWAP1 POP JUMP JUMPDEST PUSH1 0x60 PUSH1 0xFF PUSH0 SHL DUP4 EQ PUSH2 0x3E27 JUMPI PUSH2 0x3E20 DUP4 PUSH2 0x44F4 JUMP JUMPDEST SWAP1 POP PUSH2 0x3EB2 JUMP JUMPDEST DUP2 DUP1 SLOAD PUSH2 0x3E33 SWAP1 PUSH2 0x58EF JUMP JUMPDEST DUP1 PUSH1 0x1F ADD PUSH1 0x20 DUP1 SWAP2 DIV MUL PUSH1 0x20 ADD PUSH1 0x40 MLOAD SWAP1 DUP2 ADD PUSH1 0x40 MSTORE DUP1 SWAP3 SWAP2 SWAP1 DUP2 DUP2 MSTORE PUSH1 0x20 ADD DUP3 DUP1 SLOAD PUSH2 0x3E5F SWAP1 PUSH2 0x58EF JUMP JUMPDEST DUP1 ISZERO PUSH2 0x3EAA JUMPI DUP1 PUSH1 0x1F LT PUSH2 0x3E81 JUMPI PUSH2 0x100 DUP1 DUP4 SLOAD DIV MUL DUP4 MSTORE SWAP2 PUSH1 0x20 ADD SWAP2 PUSH2 0x3EAA JUMP JUMPDEST DUP3 ADD SWAP2 SWAP1 PUSH0 MSTORE PUSH1 0x20 PUSH0 KECCAK256 SWAP1 JUMPDEST DUP2 SLOAD DUP2 MSTORE SWAP1 PUSH1 0x1 ADD SWAP1 PUSH1 0x20 ADD DUP1 DUP4 GT PUSH2 0x3E8D JUMPI DUP3 SWAP1 SUB PUSH1 0x1F AND DUP3 ADD SWAP2 JUMPDEST POP POP POP POP POP SWAP1 POP JUMPDEST SWAP3 SWAP2 POP POP JUMP JUMPDEST PUSH0 DUP2 MLOAD GT ISZERO PUSH2 0x3ECA JUMPI DUP1 MLOAD DUP1 DUP3 PUSH1 0x20 ADD REVERT JUMPDEST PUSH1 0x40 MLOAD PUSH32 0x1425EA4200000000000000000000000000000000000000000000000000000000 DUP2 MSTORE PUSH1 0x4 ADD PUSH1 0x40 MLOAD DUP1 SWAP2 SUB SWAP1 REVERT JUMPDEST PUSH0 DUP1 PUSH0 DUP6 DUP1 SLOAD SWAP1 POP SWAP1 POP PUSH0 DUP2 GT ISZERO PUSH2 0x417C JUMPI PUSH0 PUSH2 0x3F25 DUP8 PUSH1 0x1 DUP5 PUSH2 0x3F20 SWAP2 SWAP1 PUSH2 0x59A3 JUMP JUMPDEST PUSH2 0x3C96 JUMP JUMPDEST PUSH1 0x40 MLOAD DUP1 PUSH1 0x40 ADD PUSH1 0x40 MSTORE SWAP1 DUP2 PUSH0 DUP3 ADD PUSH0 SWAP1 SLOAD SWAP1 PUSH2 0x100 EXP SWAP1 DIV PUSH6 0xFFFFFFFFFFFF AND PUSH6 0xFFFFFFFFFFFF AND PUSH6 0xFFFFFFFFFFFF AND DUP2 MSTORE PUSH1 0x20 ADD PUSH0 DUP3 ADD PUSH1 0x6 SWAP1 SLOAD SWAP1 PUSH2 0x100 EXP SWAP1 DIV PUSH26 0xFFFFFFFFFFFFFFFFFFFFFFFFFFFFFFFFFFFFFFFFFFFFFFFFFFFF AND PUSH26 0xFFFFFFFFFFFFFFFFFFFFFFFFFFFFFFFFFFFFFFFFFFFFFFFFFFFF AND PUSH26 0xFFFFFFFFFFFFFFFFFFFFFFFFFFFFFFFFFFFFFFFFFFFFFFFFFFFF AND DUP2 MSTORE POP POP SWAP1 POP DUP6 PUSH6 0xFFFFFFFFFFFF AND DUP2 PUSH0 ADD MLOAD PUSH6 0xFFFFFFFFFFFF AND GT ISZERO PUSH2 0x4010 JUMPI PUSH1 0x40 MLOAD PUSH32 0x2520601D00000000000000000000000000000000000000000000000000000000 DUP2 MSTORE PUSH1 0x4 ADD PUSH1 0x40 MLOAD DUP1 SWAP2 SUB SWAP1 REVERT JUMPDEST DUP6 PUSH6 0xFFFFFFFFFFFF AND DUP2 PUSH0 ADD MLOAD PUSH6 0xFFFFFFFFFFFF AND SUB PUSH2 0x4092 JUMPI DUP5 PUSH2 0x4041 DUP9 PUSH1 0x1 DUP6 PUSH2 0x403C SWAP2 SWAP1 PUSH2 0x59A3 JUMP JUMPDEST PUSH2 0x3C96 JUMP JUMPDEST PUSH0 ADD PUSH1 0x6 PUSH2 0x100 EXP DUP2 SLOAD DUP2 PUSH26 0xFFFFFFFFFFFFFFFFFFFFFFFFFFFFFFFFFFFFFFFFFFFFFFFFFFFF MUL NOT AND SWAP1 DUP4 PUSH26 0xFFFFFFFFFFFFFFFFFFFFFFFFFFFFFFFFFFFFFFFFFFFFFFFFFFFF AND MUL OR SWAP1 SSTORE POP PUSH2 0x416B JUMP JUMPDEST DUP7 PUSH1 0x40 MLOAD DUP1 PUSH1 0x40 ADD PUSH1 0x40 MSTORE DUP1 DUP9 PUSH6 0xFFFFFFFFFFFF AND DUP2 MSTORE PUSH1 0x20 ADD DUP8 PUSH26 0xFFFFFFFFFFFFFFFFFFFFFFFFFFFFFFFFFFFFFFFFFFFFFFFFFFFF AND DUP2 MSTORE POP SWAP1 DUP1 PUSH1 0x1 DUP2 SLOAD ADD DUP1 DUP3 SSTORE DUP1 SWAP2 POP POP PUSH1 0x1 SWAP1 SUB SWAP1 PUSH0 MSTORE PUSH1 0x20 PUSH0 KECCAK256 ADD PUSH0 SWAP1 SWAP2 SWAP1 SWAP2 SWAP1 SWAP2 POP PUSH0 DUP3 ADD MLOAD DUP2 PUSH0 ADD PUSH0 PUSH2 0x100 EXP DUP2 SLOAD DUP2 PUSH6 0xFFFFFFFFFFFF MUL NOT AND SWAP1 DUP4 PUSH6 0xFFFFFFFFFFFF AND MUL OR SWAP1 SSTORE POP PUSH1 0x20 DUP3 ADD MLOAD DUP2 PUSH0 ADD PUSH1 0x6 PUSH2 0x100 EXP DUP2 SLOAD DUP2 PUSH26 0xFFFFFFFFFFFFFFFFFFFFFFFFFFFFFFFFFFFFFFFFFFFFFFFFFFFF MUL NOT AND SWAP1 DUP4 PUSH26 0xFFFFFFFFFFFFFFFFFFFFFFFFFFFFFFFFFFFFFFFFFFFFFFFFFFFF AND MUL OR SWAP1 SSTORE POP POP POP JUMPDEST DUP1 PUSH1 0x20 ADD MLOAD DUP6 SWAP4 POP SWAP4 POP POP POP PUSH2 0x425C JUMP JUMPDEST DUP6 PUSH1 0x40 MLOAD DUP1 PUSH1 0x40 ADD PUSH1 0x40 MSTORE DUP1 DUP8 PUSH6 0xFFFFFFFFFFFF AND DUP2 MSTORE PUSH1 0x20 ADD DUP7 PUSH26 0xFFFFFFFFFFFFFFFFFFFFFFFFFFFFFFFFFFFFFFFFFFFFFFFFFFFF AND DUP2 MSTORE POP SWAP1 DUP1 PUSH1 0x1 DUP2 SLOAD ADD DUP1 DUP3 SSTORE DUP1 SWAP2 POP POP PUSH1 0x1 SWAP1 SUB SWAP1 PUSH0 MSTORE PUSH1 0x20 PUSH0 KECCAK256 ADD PUSH0 SWAP1 SWAP2 SWAP1 SWAP2 SWAP1 SWAP2 POP PUSH0 DUP3 ADD MLOAD DUP2 PUSH0 ADD PUSH0 PUSH2 0x100 EXP DUP2 SLOAD DUP2 PUSH6 0xFFFFFFFFFFFF MUL NOT AND SWAP1 DUP4 PUSH6 0xFFFFFFFFFFFF AND MUL OR SWAP1 SSTORE POP PUSH1 0x20 DUP3 ADD MLOAD DUP2 PUSH0 ADD PUSH1 0x6 PUSH2 0x100 EXP DUP2 SLOAD DUP2 PUSH26 0xFFFFFFFFFFFFFFFFFFFFFFFFFFFFFFFFFFFFFFFFFFFFFFFFFFFF MUL NOT AND SWAP1 DUP4 PUSH26 0xFFFFFFFFFFFFFFFFFFFFFFFFFFFFFFFFFFFFFFFFFFFFFFFFFFFF AND MUL OR SWAP1 SSTORE POP POP POP PUSH0 DUP5 SWAP3 POP SWAP3 POP POP JUMPDEST SWAP4 POP SWAP4 SWAP2 POP POP JUMP JUMPDEST PUSH0 PUSH32 0x8B73C3C69BB8FE3D512ECC4CF759CC79239F7B179B0FFACAA9A75D522B39400F PUSH32 0x0 PUSH32 0x0 CHAINID ADDRESS PUSH1 0x40 MLOAD PUSH1 0x20 ADD PUSH2 0x42DE SWAP6 SWAP5 SWAP4 SWAP3 SWAP2 SWAP1 PUSH2 0x67E3 JUMP JUMPDEST PUSH1 0x40 MLOAD PUSH1 0x20 DUP2 DUP4 SUB SUB DUP2 MSTORE SWAP1 PUSH1 0x40 MSTORE DUP1 MLOAD SWAP1 PUSH1 0x20 ADD KECCAK256 SWAP1 POP SWAP1 JUMP JUMPDEST PUSH0 DUP1 PUSH0 PUSH32 0x7FFFFFFFFFFFFFFFFFFFFFFFFFFFFFFF5D576E7357A4501DDFE92F46681B20A0 DUP5 PUSH0 SHR GT ISZERO PUSH2 0x4335 JUMPI PUSH0 PUSH1 0x3 DUP6 SWAP3 POP SWAP3 POP SWAP3 POP PUSH2 0x43D6 JUMP JUMPDEST PUSH0 PUSH1 0x1 DUP9 DUP9 DUP9 DUP9 PUSH1 0x40 MLOAD PUSH0 DUP2 MSTORE PUSH1 0x20 ADD PUSH1 0x40 MSTORE PUSH1 0x40 MLOAD PUSH2 0x4358 SWAP5 SWAP4 SWAP3 SWAP2 SWAP1 PUSH2 0x6834 JUMP JUMPDEST PUSH1 0x20 PUSH1 0x40 MLOAD PUSH1 0x20 DUP2 SUB SWAP1 DUP1 DUP5 SUB SWAP1 DUP6 GAS STATICCALL ISZERO DUP1 ISZERO PUSH2 0x4378 JUMPI RETURNDATASIZE PUSH0 DUP1 RETURNDATACOPY RETURNDATASIZE PUSH0 REVERT JUMPDEST POP POP POP PUSH1 0x20 PUSH1 0x40 MLOAD SUB MLOAD SWAP1 POP PUSH0 PUSH20 0xFFFFFFFFFFFFFFFFFFFFFFFFFFFFFFFFFFFFFFFF AND DUP2 PUSH20 0xFFFFFFFFFFFFFFFFFFFFFFFFFFFFFFFFFFFFFFFF AND SUB PUSH2 0x43C9 JUMPI PUSH0 PUSH1 0x1 PUSH0 DUP1 SHL SWAP4 POP SWAP4 POP SWAP4 POP POP PUSH2 0x43D6 JUMP JUMPDEST DUP1 PUSH0 DUP1 PUSH0 SHL SWAP4 POP SWAP4 POP SWAP4 POP POP JUMPDEST SWAP5 POP SWAP5 POP SWAP5 SWAP2 POP POP JUMP JUMPDEST PUSH0 DUP1 PUSH0 SWAP1 POP PUSH0 PUSH1 0x80 DUP5 SWAP1 SHR GT ISZERO PUSH2 0x43FF JUMPI PUSH1 0x80 DUP4 SWAP1 SHR SWAP3 POP PUSH1 0x80 DUP2 ADD SWAP1 POP JUMPDEST PUSH0 PUSH1 0x40 DUP5 SWAP1 SHR GT ISZERO PUSH2 0x4419 JUMPI PUSH1 0x40 DUP4 SWAP1 SHR SWAP3 POP PUSH1 0x40 DUP2 ADD SWAP1 POP JUMPDEST PUSH0 PUSH1 0x20 DUP5 SWAP1 SHR GT ISZERO PUSH2 0x4433 JUMPI PUSH1 0x20 DUP4 SWAP1 SHR SWAP3 POP PUSH1 0x20 DUP2 ADD SWAP1 POP JUMPDEST PUSH0 PUSH1 0x10 DUP5 SWAP1 SHR GT ISZERO PUSH2 0x444D JUMPI PUSH1 0x10 DUP4 SWAP1 SHR SWAP3 POP PUSH1 0x10 DUP2 ADD SWAP1 POP JUMPDEST PUSH0 PUSH1 0x8 DUP5 SWAP1 SHR GT ISZERO PUSH2 0x4467 JUMPI PUSH1 0x8 DUP4 SWAP1 SHR SWAP3 POP PUSH1 0x8 DUP2 ADD SWAP1 POP JUMPDEST PUSH0 PUSH1 0x4 DUP5 SWAP1 SHR GT ISZERO PUSH2 0x4481 JUMPI PUSH1 0x4 DUP4 SWAP1 SHR SWAP3 POP PUSH1 0x4 DUP2 ADD SWAP1 POP JUMPDEST PUSH0 PUSH1 0x2 DUP5 SWAP1 SHR GT ISZERO PUSH2 0x449B JUMPI PUSH1 0x2 DUP4 SWAP1 SHR SWAP3 POP PUSH1 0x2 DUP2 ADD SWAP1 POP JUMPDEST PUSH0 PUSH1 0x1 DUP5 SWAP1 SHR GT ISZERO PUSH2 0x44AE JUMPI PUSH1 0x1 DUP2 ADD SWAP1 POP JUMPDEST DUP1 SWAP2 POP POP SWAP2 SWAP1 POP JUMP JUMPDEST PUSH0 DUP2 DUP4 LT PUSH2 0x44C5 JUMPI DUP2 PUSH2 0x44C7 JUMP JUMPDEST DUP3 JUMPDEST SWAP1 POP SWAP3 SWAP2 POP POP JUMP JUMPDEST PUSH0 PUSH1 0x2 DUP3 DUP5 XOR PUSH2 0x44DF SWAP2 SWAP1 PUSH2 0x5B71 JUMP JUMPDEST DUP3 DUP5 AND PUSH2 0x44EC SWAP2 SWAP1 PUSH2 0x5A42 JUMP JUMPDEST SWAP1 POP SWAP3 SWAP2 POP POP JUMP JUMPDEST PUSH1 0x60 PUSH0 PUSH2 0x4500 DUP4 PUSH2 0x4566 JUMP JUMPDEST SWAP1 POP PUSH0 PUSH1 0x20 PUSH8 0xFFFFFFFFFFFFFFFF DUP2 GT ISZERO PUSH2 0x451E JUMPI PUSH2 0x451D PUSH2 0x4818 JUMP JUMPDEST JUMPDEST PUSH1 0x40 MLOAD SWAP1 DUP1 DUP3 MSTORE DUP1 PUSH1 0x1F ADD PUSH1 0x1F NOT AND PUSH1 0x20 ADD DUP3 ADD PUSH1 0x40 MSTORE DUP1 ISZERO PUSH2 0x4550 JUMPI DUP2 PUSH1 0x20 ADD PUSH1 0x1 DUP3 MUL DUP1 CALLDATASIZE DUP4 CALLDATACOPY DUP1 DUP3 ADD SWAP2 POP POP SWAP1 POP JUMPDEST POP SWAP1 POP DUP2 DUP2 MSTORE DUP4 PUSH1 0x20 DUP3 ADD MSTORE DUP1 SWAP3 POP POP POP SWAP2 SWAP1 POP JUMP JUMPDEST PUSH0 DUP1 PUSH1 0xFF DUP4 PUSH0 SHR AND SWAP1 POP PUSH1 0x1F DUP2 GT ISZERO PUSH2 0x45AB JUMPI PUSH1 0x40 MLOAD PUSH32 0xB3512B0C00000000000000000000000000000000000000000000000000000000 DUP2 MSTORE PUSH1 0x4 ADD PUSH1 0x40 MLOAD DUP1 SWAP2 SUB SWAP1 REVERT JUMPDEST DUP1 SWAP2 POP POP SWAP2 SWAP1 POP JUMP JUMPDEST PUSH0 PUSH1 0x40 MLOAD SWAP1 POP SWAP1 JUMP JUMPDEST PUSH0 DUP1 REVERT JUMPDEST PUSH0 DUP1 REVERT JUMPDEST PUSH0 PUSH32 0xFFFFFFFF00000000000000000000000000000000000000000000000000000000 DUP3 AND SWAP1 POP SWAP2 SWAP1 POP JUMP JUMPDEST PUSH2 0x45F9 DUP2 PUSH2 0x45C5 JUMP JUMPDEST DUP2 EQ PUSH2 0x4603 JUMPI PUSH0 DUP1 REVERT JUMPDEST POP JUMP JUMPDEST PUSH0 DUP2 CALLDATALOAD SWAP1 POP PUSH2 0x4614 DUP2 PUSH2 0x45F0 JUMP JUMPDEST SWAP3 SWAP2 POP POP JUMP JUMPDEST PUSH0 PUSH1 0x20 DUP3 DUP5 SUB SLT ISZERO PUSH2 0x462F JUMPI PUSH2 0x462E PUSH2 0x45BD JUMP JUMPDEST JUMPDEST PUSH0 PUSH2 0x463C DUP5 DUP3 DUP6 ADD PUSH2 0x4606 JUMP JUMPDEST SWAP2 POP POP SWAP3 SWAP2 POP POP JUMP JUMPDEST PUSH0 DUP2 ISZERO ISZERO SWAP1 POP SWAP2 SWAP1 POP JUMP JUMPDEST PUSH2 0x4659 DUP2 PUSH2 0x4645 JUMP JUMPDEST DUP3 MSTORE POP POP JUMP JUMPDEST PUSH0 PUSH1 0x20 DUP3 ADD SWAP1 POP PUSH2 0x4672 PUSH0 DUP4 ADD DUP5 PUSH2 0x4650 JUMP JUMPDEST SWAP3 SWAP2 POP POP JUMP JUMPDEST PUSH0 DUP2 SWAP1 POP SWAP2 SWAP1 POP JUMP JUMPDEST PUSH2 0x468A DUP2 PUSH2 0x4678 JUMP JUMPDEST DUP3 MSTORE POP POP JUMP JUMPDEST PUSH0 PUSH1 0x20 DUP3 ADD SWAP1 POP PUSH2 0x46A3 PUSH0 DUP4 ADD DUP5 PUSH2 0x4681 JUMP JUMPDEST SWAP3 SWAP2 POP POP JUMP JUMPDEST PUSH2 0x46B2 DUP2 PUSH2 0x4678 JUMP JUMPDEST DUP2 EQ PUSH2 0x46BC JUMPI PUSH0 DUP1 REVERT JUMPDEST POP JUMP JUMPDEST PUSH0 DUP2 CALLDATALOAD SWAP1 POP PUSH2 0x46CD DUP2 PUSH2 0x46A9 JUMP JUMPDEST SWAP3 SWAP2 POP POP JUMP JUMPDEST PUSH0 PUSH1 0x20 DUP3 DUP5 SUB SLT ISZERO PUSH2 0x46E8 JUMPI PUSH2 0x46E7 PUSH2 0x45BD JUMP JUMPDEST JUMPDEST PUSH0 PUSH2 0x46F5 DUP5 DUP3 DUP6 ADD PUSH2 0x46BF JUMP JUMPDEST SWAP2 POP POP SWAP3 SWAP2 POP POP JUMP JUMPDEST PUSH0 DUP2 MLOAD SWAP1 POP SWAP2 SWAP1 POP JUMP JUMPDEST PUSH0 DUP3 DUP3 MSTORE PUSH1 0x20 DUP3 ADD SWAP1 POP SWAP3 SWAP2 POP POP JUMP JUMPDEST DUP3 DUP2 DUP4 MCOPY PUSH0 DUP4 DUP4 ADD MSTORE POP POP POP JUMP JUMPDEST PUSH0 PUSH1 0x1F NOT PUSH1 0x1F DUP4 ADD AND SWAP1 POP SWAP2 SWAP1 POP JUMP JUMPDEST PUSH0 PUSH2 0x4740 DUP3 PUSH2 0x46FE JUMP JUMPDEST PUSH2 0x474A DUP2 DUP6 PUSH2 0x4708 JUMP JUMPDEST SWAP4 POP PUSH2 0x475A DUP2 DUP6 PUSH1 0x20 DUP7 ADD PUSH2 0x4718 JUMP JUMPDEST PUSH2 0x4763 DUP2 PUSH2 0x4726 JUMP JUMPDEST DUP5 ADD SWAP2 POP POP SWAP3 SWAP2 POP POP JUMP JUMPDEST PUSH0 PUSH1 0x20 DUP3 ADD SWAP1 POP DUP2 DUP2 SUB PUSH0 DUP4 ADD MSTORE PUSH2 0x4786 DUP2 DUP5 PUSH2 0x4736 JUMP JUMPDEST SWAP1 POP SWAP3 SWAP2 POP POP JUMP JUMPDEST PUSH0 PUSH20 0xFFFFFFFFFFFFFFFFFFFFFFFFFFFFFFFFFFFFFFFF DUP3 AND SWAP1 POP SWAP2 SWAP1 POP JUMP JUMPDEST PUSH0 PUSH2 0x47B7 DUP3 PUSH2 0x478E JUMP JUMPDEST SWAP1 POP SWAP2 SWAP1 POP JUMP JUMPDEST PUSH2 0x47C7 DUP2 PUSH2 0x47AD JUMP JUMPDEST DUP3 MSTORE POP POP JUMP JUMPDEST PUSH0 PUSH1 0x20 DUP3 ADD SWAP1 POP PUSH2 0x47E0 PUSH0 DUP4 ADD DUP5 PUSH2 0x47BE JUMP JUMPDEST SWAP3 SWAP2 POP POP JUMP JUMPDEST PUSH2 0x47EF DUP2 PUSH2 0x47AD JUMP JUMPDEST DUP2 EQ PUSH2 0x47F9 JUMPI PUSH0 DUP1 REVERT JUMPDEST POP JUMP JUMPDEST PUSH0 DUP2 CALLDATALOAD SWAP1 POP PUSH2 0x480A DUP2 PUSH2 0x47E6 JUMP JUMPDEST SWAP3 SWAP2 POP POP JUMP JUMPDEST PUSH0 DUP1 REVERT JUMPDEST PUSH0 DUP1 REVERT JUMPDEST PUSH32 0x4E487B7100000000000000000000000000000000000000000000000000000000 PUSH0 MSTORE PUSH1 0x41 PUSH1 0x4 MSTORE PUSH1 0x24 PUSH0 REVERT JUMPDEST PUSH2 0x484E DUP3 PUSH2 0x4726 JUMP JUMPDEST DUP2 ADD DUP2 DUP2 LT PUSH8 0xFFFFFFFFFFFFFFFF DUP3 GT OR ISZERO PUSH2 0x486D JUMPI PUSH2 0x486C PUSH2 0x4818 JUMP JUMPDEST JUMPDEST DUP1 PUSH1 0x40 MSTORE POP POP POP JUMP JUMPDEST PUSH0 PUSH2 0x487F PUSH2 0x45B4 JUMP JUMPDEST SWAP1 POP PUSH2 0x488B DUP3 DUP3 PUSH2 0x4845 JUMP JUMPDEST SWAP2 SWAP1 POP JUMP JUMPDEST PUSH0 PUSH8 0xFFFFFFFFFFFFFFFF DUP3 GT ISZERO PUSH2 0x48AA JUMPI PUSH2 0x48A9 PUSH2 0x4818 JUMP JUMPDEST JUMPDEST PUSH2 0x48B3 DUP3 PUSH2 0x4726 JUMP JUMPDEST SWAP1 POP PUSH1 0x20 DUP2 ADD SWAP1 POP SWAP2 SWAP1 POP JUMP JUMPDEST DUP3 DUP2 DUP4 CALLDATACOPY PUSH0 DUP4 DUP4 ADD MSTORE POP POP POP JUMP JUMPDEST PUSH0 PUSH2 0x48E0 PUSH2 0x48DB DUP5 PUSH2 0x4890 JUMP JUMPDEST PUSH2 0x4876 JUMP JUMPDEST SWAP1 POP DUP3 DUP2 MSTORE PUSH1 0x20 DUP2 ADD DUP5 DUP5 DUP5 ADD GT ISZERO PUSH2 0x48FC JUMPI PUSH2 0x48FB PUSH2 0x4814 JUMP JUMPDEST JUMPDEST PUSH2 0x4907 DUP5 DUP3 DUP6 PUSH2 0x48C0 JUMP JUMPDEST POP SWAP4 SWAP3 POP POP POP JUMP JUMPDEST PUSH0 DUP3 PUSH1 0x1F DUP4 ADD SLT PUSH2 0x4923 JUMPI PUSH2 0x4922 PUSH2 0x4810 JUMP JUMPDEST JUMPDEST DUP2 CALLDATALOAD PUSH2 0x4933 DUP5 DUP3 PUSH1 0x20 DUP7 ADD PUSH2 0x48CE JUMP JUMPDEST SWAP2 POP POP SWAP3 SWAP2 POP POP JUMP JUMPDEST PUSH0 DUP1 PUSH0 DUP1 PUSH1 0x80 DUP6 DUP8 SUB SLT ISZERO PUSH2 0x4954 JUMPI PUSH2 0x4953 PUSH2 0x45BD JUMP JUMPDEST JUMPDEST PUSH0 PUSH2 0x4961 DUP8 DUP3 DUP9 ADD PUSH2 0x47FC JUMP JUMPDEST SWAP5 POP POP PUSH1 0x20 PUSH2 0x4972 DUP8 DUP3 DUP9 ADD PUSH2 0x47FC JUMP JUMPDEST SWAP4 POP POP PUSH1 0x40 PUSH2 0x4983 DUP8 DUP3 DUP9 ADD PUSH2 0x46BF JUMP JUMPDEST SWAP3 POP POP PUSH1 0x60 DUP6 ADD CALLDATALOAD PUSH8 0xFFFFFFFFFFFFFFFF DUP2 GT ISZERO PUSH2 0x49A4 JUMPI PUSH2 0x49A3 PUSH2 0x45C1 JUMP JUMPDEST JUMPDEST PUSH2 0x49B0 DUP8 DUP3 DUP9 ADD PUSH2 0x490F JUMP JUMPDEST SWAP2 POP POP SWAP3 SWAP6 SWAP2 SWAP5 POP SWAP3 POP JUMP JUMPDEST PUSH2 0x49C5 DUP2 PUSH2 0x45C5 JUMP JUMPDEST DUP3 MSTORE POP POP JUMP JUMPDEST PUSH0 PUSH1 0x20 DUP3 ADD SWAP1 POP PUSH2 0x49DE PUSH0 DUP4 ADD DUP5 PUSH2 0x49BC JUMP JUMPDEST SWAP3 SWAP2 POP POP JUMP JUMPDEST PUSH0 PUSH8 0xFFFFFFFFFFFFFFFF DUP3 GT ISZERO PUSH2 0x49FE JUMPI PUSH2 0x49FD PUSH2 0x4818 JUMP JUMPDEST JUMPDEST PUSH1 0x20 DUP3 MUL SWAP1 POP PUSH1 0x20 DUP2 ADD SWAP1 POP SWAP2 SWAP1 POP JUMP JUMPDEST PUSH0 DUP1 REVERT JUMPDEST PUSH0 PUSH2 0x4A25 PUSH2 0x4A20 DUP5 PUSH2 0x49E4 JUMP JUMPDEST PUSH2 0x4876 JUMP JUMPDEST SWAP1 POP DUP1 DUP4 DUP3 MSTORE PUSH1 0x20 DUP3 ADD SWAP1 POP PUSH1 0x20 DUP5 MUL DUP4 ADD DUP6 DUP2 GT ISZERO PUSH2 0x4A48 JUMPI PUSH2 0x4A47 PUSH2 0x4A0F JUMP JUMPDEST JUMPDEST DUP4 JUMPDEST DUP2 DUP2 LT ISZERO PUSH2 0x4A71 JUMPI DUP1 PUSH2 0x4A5D DUP9 DUP3 PUSH2 0x47FC JUMP JUMPDEST DUP5 MSTORE PUSH1 0x20 DUP5 ADD SWAP4 POP POP PUSH1 0x20 DUP2 ADD SWAP1 POP PUSH2 0x4A4A JUMP JUMPDEST POP POP POP SWAP4 SWAP3 POP POP POP JUMP JUMPDEST PUSH0 DUP3 PUSH1 0x1F DUP4 ADD SLT PUSH2 0x4A8F JUMPI PUSH2 0x4A8E PUSH2 0x4810 JUMP JUMPDEST JUMPDEST DUP2 CALLDATALOAD PUSH2 0x4A9F DUP5 DUP3 PUSH1 0x20 DUP7 ADD PUSH2 0x4A13 JUMP JUMPDEST SWAP2 POP POP SWAP3 SWAP2 POP POP JUMP JUMPDEST PUSH0 PUSH8 0xFFFFFFFFFFFFFFFF DUP3 GT ISZERO PUSH2 0x4AC2 JUMPI PUSH2 0x4AC1 PUSH2 0x4818 JUMP JUMPDEST JUMPDEST PUSH1 0x20 DUP3 MUL SWAP1 POP PUSH1 0x20 DUP2 ADD SWAP1 POP SWAP2 SWAP1 POP JUMP JUMPDEST PUSH0 PUSH2 0x4AE5 PUSH2 0x4AE0 DUP5 PUSH2 0x4AA8 JUMP JUMPDEST PUSH2 0x4876 JUMP JUMPDEST SWAP1 POP DUP1 DUP4 DUP3 MSTORE PUSH1 0x20 DUP3 ADD SWAP1 POP PUSH1 0x20 DUP5 MUL DUP4 ADD DUP6 DUP2 GT ISZERO PUSH2 0x4B08 JUMPI PUSH2 0x4B07 PUSH2 0x4A0F JUMP JUMPDEST JUMPDEST DUP4 JUMPDEST DUP2 DUP2 LT ISZERO PUSH2 0x4B31 JUMPI DUP1 PUSH2 0x4B1D DUP9 DUP3 PUSH2 0x46BF JUMP JUMPDEST DUP5 MSTORE PUSH1 0x20 DUP5 ADD SWAP4 POP POP PUSH1 0x20 DUP2 ADD SWAP1 POP PUSH2 0x4B0A JUMP JUMPDEST POP POP POP SWAP4 SWAP3 POP POP POP JUMP JUMPDEST PUSH0 DUP3 PUSH1 0x1F DUP4 ADD SLT PUSH2 0x4B4F JUMPI PUSH2 0x4B4E PUSH2 0x4810 JUMP JUMPDEST JUMPDEST DUP2 CALLDATALOAD PUSH2 0x4B5F DUP5 DUP3 PUSH1 0x20 DUP7 ADD PUSH2 0x4AD3 JUMP JUMPDEST SWAP2 POP POP SWAP3 SWAP2 POP POP JUMP JUMPDEST PUSH0 PUSH8 0xFFFFFFFFFFFFFFFF DUP3 GT ISZERO PUSH2 0x4B82 JUMPI PUSH2 0x4B81 PUSH2 0x4818 JUMP JUMPDEST JUMPDEST PUSH1 0x20 DUP3 MUL SWAP1 POP PUSH1 0x20 DUP2 ADD SWAP1 POP SWAP2 SWAP1 POP JUMP JUMPDEST PUSH0 PUSH2 0x4BA5 PUSH2 0x4BA0 DUP5 PUSH2 0x4B68 JUMP JUMPDEST PUSH2 0x4876 JUMP JUMPDEST SWAP1 POP DUP1 DUP4 DUP3 MSTORE PUSH1 0x20 DUP3 ADD SWAP1 POP PUSH1 0x20 DUP5 MUL DUP4 ADD DUP6 DUP2 GT ISZERO PUSH2 0x4BC8 JUMPI PUSH2 0x4BC7 PUSH2 0x4A0F JUMP JUMPDEST JUMPDEST DUP4 JUMPDEST DUP2 DUP2 LT ISZERO PUSH2 0x4C0F JUMPI DUP1 CALLDATALOAD PUSH8 0xFFFFFFFFFFFFFFFF DUP2 GT ISZERO PUSH2 0x4BED JUMPI PUSH2 0x4BEC PUSH2 0x4810 JUMP JUMPDEST JUMPDEST DUP1 DUP7 ADD PUSH2 0x4BFA DUP10 DUP3 PUSH2 0x490F JUMP JUMPDEST DUP6 MSTORE PUSH1 0x20 DUP6 ADD SWAP5 POP POP POP PUSH1 0x20 DUP2 ADD SWAP1 POP PUSH2 0x4BCA JUMP JUMPDEST POP POP POP SWAP4 SWAP3 POP POP POP JUMP JUMPDEST PUSH0 DUP3 PUSH1 0x1F DUP4 ADD SLT PUSH2 0x4C2D JUMPI PUSH2 0x4C2C PUSH2 0x4810 JUMP JUMPDEST JUMPDEST DUP2 CALLDATALOAD PUSH2 0x4C3D DUP5 DUP3 PUSH1 0x20 DUP7 ADD PUSH2 0x4B93 JUMP JUMPDEST SWAP2 POP POP SWAP3 SWAP2 POP POP JUMP JUMPDEST PUSH0 DUP2 SWAP1 POP SWAP2 SWAP1 POP JUMP JUMPDEST PUSH2 0x4C58 DUP2 PUSH2 0x4C46 JUMP JUMPDEST DUP2 EQ PUSH2 0x4C62 JUMPI PUSH0 DUP1 REVERT JUMPDEST POP JUMP JUMPDEST PUSH0 DUP2 CALLDATALOAD SWAP1 POP PUSH2 0x4C73 DUP2 PUSH2 0x4C4F JUMP JUMPDEST SWAP3 SWAP2 POP POP JUMP JUMPDEST PUSH0 DUP1 PUSH0 DUP1 PUSH1 0x80 DUP6 DUP8 SUB SLT ISZERO PUSH2 0x4C91 JUMPI PUSH2 0x4C90 PUSH2 0x45BD JUMP JUMPDEST JUMPDEST PUSH0 DUP6 ADD CALLDATALOAD PUSH8 0xFFFFFFFFFFFFFFFF DUP2 GT ISZERO PUSH2 0x4CAE JUMPI PUSH2 0x4CAD PUSH2 0x45C1 JUMP JUMPDEST JUMPDEST PUSH2 0x4CBA DUP8 DUP3 DUP9 ADD PUSH2 0x4A7B JUMP JUMPDEST SWAP5 POP POP PUSH1 0x20 DUP6 ADD CALLDATALOAD PUSH8 0xFFFFFFFFFFFFFFFF DUP2 GT ISZERO PUSH2 0x4CDB JUMPI PUSH2 0x4CDA PUSH2 0x45C1 JUMP JUMPDEST JUMPDEST PUSH2 0x4CE7 DUP8 DUP3 DUP9 ADD PUSH2 0x4B3B JUMP JUMPDEST SWAP4 POP POP PUSH1 0x40 DUP6 ADD CALLDATALOAD PUSH8 0xFFFFFFFFFFFFFFFF DUP2 GT ISZERO PUSH2 0x4D08 JUMPI PUSH2 0x4D07 PUSH2 0x45C1 JUMP JUMPDEST JUMPDEST PUSH2 0x4D14 DUP8 DUP3 DUP9 ADD PUSH2 0x4C19 JUMP JUMPDEST SWAP3 POP POP PUSH1 0x60 PUSH2 0x4D25 DUP8 DUP3 DUP9 ADD PUSH2 0x4C65 JUMP JUMPDEST SWAP2 POP POP SWAP3 SWAP6 SWAP2 SWAP5 POP SWAP3 POP JUMP JUMPDEST PUSH2 0x4D3A DUP2 PUSH2 0x4C46 JUMP JUMPDEST DUP3 MSTORE POP POP JUMP JUMPDEST PUSH0 PUSH1 0x20 DUP3 ADD SWAP1 POP PUSH2 0x4D53 PUSH0 DUP4 ADD DUP5 PUSH2 0x4D31 JUMP JUMPDEST SWAP3 SWAP2 POP POP JUMP JUMPDEST PUSH0 DUP2 SWAP1 POP SWAP2 SWAP1 POP JUMP JUMPDEST PUSH0 PUSH2 0x4D7C PUSH2 0x4D77 PUSH2 0x4D72 DUP5 PUSH2 0x478E JUMP JUMPDEST PUSH2 0x4D59 JUMP JUMPDEST PUSH2 0x478E JUMP JUMPDEST SWAP1 POP SWAP2 SWAP1 POP JUMP JUMPDEST PUSH0 PUSH2 0x4D8D DUP3 PUSH2 0x4D62 JUMP JUMPDEST SWAP1 POP SWAP2 SWAP1 POP JUMP JUMPDEST PUSH0 PUSH2 0x4D9E DUP3 PUSH2 0x4D83 JUMP JUMPDEST SWAP1 POP SWAP2 SWAP1 POP JUMP JUMPDEST PUSH2 0x4DAE DUP2 PUSH2 0x4D94 JUMP JUMPDEST DUP3 MSTORE POP POP JUMP JUMPDEST PUSH0 PUSH1 0x20 DUP3 ADD SWAP1 POP PUSH2 0x4DC7 PUSH0 DUP4 ADD DUP5 PUSH2 0x4DA5 JUMP JUMPDEST SWAP3 SWAP2 POP POP JUMP JUMPDEST PUSH32 0x4E487B7100000000000000000000000000000000000000000000000000000000 PUSH0 MSTORE PUSH1 0x21 PUSH1 0x4 MSTORE PUSH1 0x24 PUSH0 REVERT JUMPDEST PUSH1 0x8 DUP2 LT PUSH2 0x4E0B JUMPI PUSH2 0x4E0A PUSH2 0x4DCD JUMP JUMPDEST JUMPDEST POP JUMP JUMPDEST PUSH0 DUP2 SWAP1 POP PUSH2 0x4E1B DUP3 PUSH2 0x4DFA JUMP JUMPDEST SWAP2 SWAP1 POP JUMP JUMPDEST PUSH0 PUSH2 0x4E2A DUP3 PUSH2 0x4E0E JUMP JUMPDEST SWAP1 POP SWAP2 SWAP1 POP JUMP JUMPDEST PUSH2 0x4E3A DUP2 PUSH2 0x4E20 JUMP JUMPDEST DUP3 MSTORE POP POP JUMP JUMPDEST PUSH0 PUSH1 0x20 DUP3 ADD SWAP1 POP PUSH2 0x4E53 PUSH0 DUP4 ADD DUP5 PUSH2 0x4E31 JUMP JUMPDEST SWAP3 SWAP2 POP POP JUMP JUMPDEST PUSH0 DUP1 PUSH1 0x40 DUP4 DUP6 SUB SLT ISZERO PUSH2 0x4E6F JUMPI PUSH2 0x4E6E PUSH2 0x45BD JUMP JUMPDEST JUMPDEST PUSH0 PUSH2 0x4E7C DUP6 DUP3 DUP7 ADD PUSH2 0x46BF JUMP JUMPDEST SWAP3 POP POP PUSH1 0x20 PUSH2 0x4E8D DUP6 DUP3 DUP7 ADD PUSH2 0x47FC JUMP JUMPDEST SWAP2 POP POP SWAP3 POP SWAP3 SWAP1 POP JUMP JUMPDEST PUSH0 PUSH1 0x60 DUP3 ADD SWAP1 POP PUSH2 0x4EAA PUSH0 DUP4 ADD DUP7 PUSH2 0x4681 JUMP JUMPDEST PUSH2 0x4EB7 PUSH1 0x20 DUP4 ADD DUP6 PUSH2 0x4681 JUMP JUMPDEST PUSH2 0x4EC4 PUSH1 0x40 DUP4 ADD DUP5 PUSH2 0x4681 JUMP JUMPDEST SWAP5 SWAP4 POP POP POP POP JUMP JUMPDEST PUSH0 PUSH1 0xFF DUP3 AND SWAP1 POP SWAP2 SWAP1 POP JUMP JUMPDEST PUSH2 0x4EE1 DUP2 PUSH2 0x4ECC JUMP JUMPDEST DUP2 EQ PUSH2 0x4EEB JUMPI PUSH0 DUP1 REVERT JUMPDEST POP JUMP JUMPDEST PUSH0 DUP2 CALLDATALOAD SWAP1 POP PUSH2 0x4EFC DUP2 PUSH2 0x4ED8 JUMP JUMPDEST SWAP3 SWAP2 POP POP JUMP JUMPDEST PUSH0 DUP1 PUSH1 0x40 DUP4 DUP6 SUB SLT ISZERO PUSH2 0x4F18 JUMPI PUSH2 0x4F17 PUSH2 0x45BD JUMP JUMPDEST JUMPDEST PUSH0 PUSH2 0x4F25 DUP6 DUP3 DUP7 ADD PUSH2 0x46BF JUMP JUMPDEST SWAP3 POP POP PUSH1 0x20 PUSH2 0x4F36 DUP6 DUP3 DUP7 ADD PUSH2 0x4EEE JUMP JUMPDEST SWAP2 POP POP SWAP3 POP SWAP3 SWAP1 POP JUMP JUMPDEST PUSH0 DUP1 REVERT JUMPDEST PUSH0 DUP1 DUP4 PUSH1 0x1F DUP5 ADD SLT PUSH2 0x4F59 JUMPI PUSH2 0x4F58 PUSH2 0x4810 JUMP JUMPDEST JUMPDEST DUP3 CALLDATALOAD SWAP1 POP PUSH8 0xFFFFFFFFFFFFFFFF DUP2 GT ISZERO PUSH2 0x4F76 JUMPI PUSH2 0x4F75 PUSH2 0x4F40 JUMP JUMPDEST JUMPDEST PUSH1 0x20 DUP4 ADD SWAP2 POP DUP4 PUSH1 0x1 DUP3 MUL DUP4 ADD GT ISZERO PUSH2 0x4F92 JUMPI PUSH2 0x4F91 PUSH2 0x4A0F JUMP JUMPDEST JUMPDEST SWAP3 POP SWAP3 SWAP1 POP JUMP JUMPDEST PUSH0 DUP1 PUSH0 DUP1 PUSH0 DUP1 PUSH0 PUSH1 0xC0 DUP9 DUP11 SUB SLT ISZERO PUSH2 0x4FB4 JUMPI PUSH2 0x4FB3 PUSH2 0x45BD JUMP JUMPDEST JUMPDEST PUSH0 PUSH2 0x4FC1 DUP11 DUP3 DUP12 ADD PUSH2 0x46BF JUMP JUMPDEST SWAP8 POP POP PUSH1 0x20 PUSH2 0x4FD2 DUP11 DUP3 DUP12 ADD PUSH2 0x4EEE JUMP JUMPDEST SWAP7 POP POP PUSH1 0x40 PUSH2 0x4FE3 DUP11 DUP3 DUP12 ADD PUSH2 0x47FC JUMP JUMPDEST SWAP6 POP POP PUSH1 0x60 DUP9 ADD CALLDATALOAD PUSH8 0xFFFFFFFFFFFFFFFF DUP2 GT ISZERO PUSH2 0x5004 JUMPI PUSH2 0x5003 PUSH2 0x45C1 JUMP JUMPDEST JUMPDEST PUSH2 0x5010 DUP11 DUP3 DUP12 ADD PUSH2 0x4F44 JUMP JUMPDEST SWAP5 POP SWAP5 POP POP PUSH1 0x80 DUP9 ADD CALLDATALOAD PUSH8 0xFFFFFFFFFFFFFFFF DUP2 GT ISZERO PUSH2 0x5033 JUMPI PUSH2 0x5032 PUSH2 0x45C1 JUMP JUMPDEST JUMPDEST PUSH2 0x503F DUP11 DUP3 DUP12 ADD PUSH2 0x490F JUMP JUMPDEST SWAP3 POP POP PUSH1 0xA0 DUP9 ADD CALLDATALOAD PUSH8 0xFFFFFFFFFFFFFFFF DUP2 GT ISZERO PUSH2 0x5060 JUMPI PUSH2 0x505F PUSH2 0x45C1 JUMP JUMPDEST JUMPDEST PUSH2 0x506C DUP11 DUP3 DUP12 ADD PUSH2 0x490F JUMP JUMPDEST SWAP2 POP POP SWAP3 SWAP6 SWAP9 SWAP2 SWAP5 SWAP8 POP SWAP3 SWAP6 POP JUMP JUMPDEST PUSH0 DUP1 PUSH0 DUP1 PUSH0 PUSH1 0x80 DUP7 DUP9 SUB SLT ISZERO PUSH2 0x5094 JUMPI PUSH2 0x5093 PUSH2 0x45BD JUMP JUMPDEST JUMPDEST PUSH0 PUSH2 0x50A1 DUP9 DUP3 DUP10 ADD PUSH2 0x46BF JUMP JUMPDEST SWAP6 POP POP PUSH1 0x20 PUSH2 0x50B2 DUP9 DUP3 DUP10 ADD PUSH2 0x4EEE JUMP JUMPDEST SWAP5 POP POP PUSH1 0x40 DUP7 ADD CALLDATALOAD PUSH8 0xFFFFFFFFFFFFFFFF DUP2 GT ISZERO PUSH2 0x50D3 JUMPI PUSH2 0x50D2 PUSH2 0x45C1 JUMP JUMPDEST JUMPDEST PUSH2 0x50DF DUP9 DUP3 DUP10 ADD PUSH2 0x4F44 JUMP JUMPDEST SWAP4 POP SWAP4 POP POP PUSH1 0x60 DUP7 ADD CALLDATALOAD PUSH8 0xFFFFFFFFFFFFFFFF DUP2 GT ISZERO PUSH2 0x5102 JUMPI PUSH2 0x5101 PUSH2 0x45C1 JUMP JUMPDEST JUMPDEST PUSH2 0x510E DUP9 DUP3 DUP10 ADD PUSH2 0x490F JUMP JUMPDEST SWAP2 POP POP SWAP3 SWAP6 POP SWAP3 SWAP6 SWAP1 SWAP4 POP JUMP JUMPDEST PUSH0 PUSH2 0x5125 DUP3 PUSH2 0x47AD JUMP JUMPDEST SWAP1 POP SWAP2 SWAP1 POP JUMP JUMPDEST PUSH2 0x5135 DUP2 PUSH2 0x511B JUMP JUMPDEST DUP2 EQ PUSH2 0x513F JUMPI PUSH0 DUP1 REVERT JUMPDEST POP JUMP JUMPDEST PUSH0 DUP2 CALLDATALOAD SWAP1 POP PUSH2 0x5150 DUP2 PUSH2 0x512C JUMP JUMPDEST SWAP3 SWAP2 POP POP JUMP JUMPDEST PUSH0 PUSH1 0x20 DUP3 DUP5 SUB SLT ISZERO PUSH2 0x516B JUMPI PUSH2 0x516A PUSH2 0x45BD JUMP JUMPDEST JUMPDEST PUSH0 PUSH2 0x5178 DUP5 DUP3 DUP6 ADD PUSH2 0x5142 JUMP JUMPDEST SWAP2 POP POP SWAP3 SWAP2 POP POP JUMP JUMPDEST PUSH0 PUSH1 0x20 DUP3 DUP5 SUB SLT ISZERO PUSH2 0x5196 JUMPI PUSH2 0x5195 PUSH2 0x45BD JUMP JUMPDEST JUMPDEST PUSH0 PUSH2 0x51A3 DUP5 DUP3 DUP6 ADD PUSH2 0x47FC JUMP JUMPDEST SWAP2 POP POP SWAP3 SWAP2 POP POP JUMP JUMPDEST PUSH0 DUP1 PUSH0 DUP1 PUSH1 0x60 DUP6 DUP8 SUB SLT ISZERO PUSH2 0x51C4 JUMPI PUSH2 0x51C3 PUSH2 0x45BD JUMP JUMPDEST JUMPDEST PUSH0 PUSH2 0x51D1 DUP8 DUP3 DUP9 ADD PUSH2 0x46BF JUMP JUMPDEST SWAP5 POP POP PUSH1 0x20 PUSH2 0x51E2 DUP8 DUP3 DUP9 ADD PUSH2 0x4EEE JUMP JUMPDEST SWAP4 POP POP PUSH1 0x40 DUP6 ADD CALLDATALOAD PUSH8 0xFFFFFFFFFFFFFFFF DUP2 GT ISZERO PUSH2 0x5203 JUMPI PUSH2 0x5202 PUSH2 0x45C1 JUMP JUMPDEST JUMPDEST PUSH2 0x520F DUP8 DUP3 DUP9 ADD PUSH2 0x4F44 JUMP JUMPDEST SWAP3 POP SWAP3 POP POP SWAP3 SWAP6 SWAP2 SWAP5 POP SWAP3 POP JUMP JUMPDEST PUSH0 PUSH8 0xFFFFFFFFFFFFFFFF DUP3 GT ISZERO PUSH2 0x5237 JUMPI PUSH2 0x5236 PUSH2 0x4818 JUMP JUMPDEST JUMPDEST PUSH2 0x5240 DUP3 PUSH2 0x4726 JUMP JUMPDEST SWAP1 POP PUSH1 0x20 DUP2 ADD SWAP1 POP SWAP2 SWAP1 POP JUMP JUMPDEST PUSH0 PUSH2 0x525F PUSH2 0x525A DUP5 PUSH2 0x521D JUMP JUMPDEST PUSH2 0x4876 JUMP JUMPDEST SWAP1 POP DUP3 DUP2 MSTORE PUSH1 0x20 DUP2 ADD DUP5 DUP5 DUP5 ADD GT ISZERO PUSH2 0x527B JUMPI PUSH2 0x527A PUSH2 0x4814 JUMP JUMPDEST JUMPDEST PUSH2 0x5286 DUP5 DUP3 DUP6 PUSH2 0x48C0 JUMP JUMPDEST POP SWAP4 SWAP3 POP POP POP JUMP JUMPDEST PUSH0 DUP3 PUSH1 0x1F DUP4 ADD SLT PUSH2 0x52A2 JUMPI PUSH2 0x52A1 PUSH2 0x4810 JUMP JUMPDEST JUMPDEST DUP2 CALLDATALOAD PUSH2 0x52B2 DUP5 DUP3 PUSH1 0x20 DUP7 ADD PUSH2 0x524D JUMP JUMPDEST SWAP2 POP POP SWAP3 SWAP2 POP POP JUMP JUMPDEST PUSH0 DUP1 PUSH0 DUP1 PUSH1 0x80 DUP6 DUP8 SUB SLT ISZERO PUSH2 0x52D3 JUMPI PUSH2 0x52D2 PUSH2 0x45BD JUMP JUMPDEST JUMPDEST PUSH0 DUP6 ADD CALLDATALOAD PUSH8 0xFFFFFFFFFFFFFFFF DUP2 GT ISZERO PUSH2 0x52F0 JUMPI PUSH2 0x52EF PUSH2 0x45C1 JUMP JUMPDEST JUMPDEST PUSH2 0x52FC DUP8 DUP3 DUP9 ADD PUSH2 0x4A7B JUMP JUMPDEST SWAP5 POP POP PUSH1 0x20 DUP6 ADD CALLDATALOAD PUSH8 0xFFFFFFFFFFFFFFFF DUP2 GT ISZERO PUSH2 0x531D JUMPI PUSH2 0x531C PUSH2 0x45C1 JUMP JUMPDEST JUMPDEST PUSH2 0x5329 DUP8 DUP3 DUP9 ADD PUSH2 0x4B3B JUMP JUMPDEST SWAP4 POP POP PUSH1 0x40 DUP6 ADD CALLDATALOAD PUSH8 0xFFFFFFFFFFFFFFFF DUP2 GT ISZERO PUSH2 0x534A JUMPI PUSH2 0x5349 PUSH2 0x45C1 JUMP JUMPDEST JUMPDEST PUSH2 0x5356 DUP8 DUP3 DUP9 ADD PUSH2 0x4C19 JUMP JUMPDEST SWAP3 POP POP PUSH1 0x60 DUP6 ADD CALLDATALOAD PUSH8 0xFFFFFFFFFFFFFFFF DUP2 GT ISZERO PUSH2 0x5377 JUMPI PUSH2 0x5376 PUSH2 0x45C1 JUMP JUMPDEST JUMPDEST PUSH2 0x5383 DUP8 DUP3 DUP9 ADD PUSH2 0x528E JUMP JUMPDEST SWAP2 POP POP SWAP3 SWAP6 SWAP2 SWAP5 POP SWAP3 POP JUMP JUMPDEST PUSH0 PUSH32 0xFF00000000000000000000000000000000000000000000000000000000000000 DUP3 AND SWAP1 POP SWAP2 SWAP1 POP JUMP JUMPDEST PUSH2 0x53C3 DUP2 PUSH2 0x538F JUMP JUMPDEST DUP3 MSTORE POP POP JUMP JUMPDEST PUSH0 DUP2 MLOAD SWAP1 POP SWAP2 SWAP1 POP JUMP JUMPDEST PUSH0 DUP3 DUP3 MSTORE PUSH1 0x20 DUP3 ADD SWAP1 POP SWAP3 SWAP2 POP POP JUMP JUMPDEST PUSH0 DUP2 SWAP1 POP PUSH1 0x20 DUP3 ADD SWAP1 POP SWAP2 SWAP1 POP JUMP JUMPDEST PUSH2 0x53FB DUP2 PUSH2 0x4678 JUMP JUMPDEST DUP3 MSTORE POP POP JUMP JUMPDEST PUSH0 PUSH2 0x540C DUP4 DUP4 PUSH2 0x53F2 JUMP JUMPDEST PUSH1 0x20 DUP4 ADD SWAP1 POP SWAP3 SWAP2 POP POP JUMP JUMPDEST PUSH0 PUSH1 0x20 DUP3 ADD SWAP1 POP SWAP2 SWAP1 POP JUMP JUMPDEST PUSH0 PUSH2 0x542E DUP3 PUSH2 0x53C9 JUMP JUMPDEST PUSH2 0x5438 DUP2 DUP6 PUSH2 0x53D3 JUMP JUMPDEST SWAP4 POP PUSH2 0x5443 DUP4 PUSH2 0x53E3 JUMP JUMPDEST DUP1 PUSH0 JUMPDEST DUP4 DUP2 LT ISZERO PUSH2 0x5473 JUMPI DUP2 MLOAD PUSH2 0x545A DUP9 DUP3 PUSH2 0x5401 JUMP JUMPDEST SWAP8 POP PUSH2 0x5465 DUP4 PUSH2 0x5418 JUMP JUMPDEST SWAP3 POP POP PUSH1 0x1 DUP2 ADD SWAP1 POP PUSH2 0x5446 JUMP JUMPDEST POP DUP6 SWAP4 POP POP POP POP SWAP3 SWAP2 POP POP JUMP JUMPDEST PUSH0 PUSH1 0xE0 DUP3 ADD SWAP1 POP PUSH2 0x5493 PUSH0 DUP4 ADD DUP11 PUSH2 0x53BA JUMP JUMPDEST DUP2 DUP2 SUB PUSH1 0x20 DUP4 ADD MSTORE PUSH2 0x54A5 DUP2 DUP10 PUSH2 0x4736 JUMP JUMPDEST SWAP1 POP DUP2 DUP2 SUB PUSH1 0x40 DUP4 ADD MSTORE PUSH2 0x54B9 DUP2 DUP9 PUSH2 0x4736 JUMP JUMPDEST SWAP1 POP PUSH2 0x54C8 PUSH1 0x60 DUP4 ADD DUP8 PUSH2 0x4681 JUMP JUMPDEST PUSH2 0x54D5 PUSH1 0x80 DUP4 ADD DUP7 PUSH2 0x47BE JUMP JUMPDEST PUSH2 0x54E2 PUSH1 0xA0 DUP4 ADD DUP6 PUSH2 0x4D31 JUMP JUMPDEST DUP2 DUP2 SUB PUSH1 0xC0 DUP4 ADD MSTORE PUSH2 0x54F4 DUP2 DUP5 PUSH2 0x5424 JUMP JUMPDEST SWAP1 POP SWAP9 SWAP8 POP POP POP POP POP POP POP POP JUMP JUMPDEST PUSH0 DUP1 PUSH0 DUP1 PUSH1 0x80 DUP6 DUP8 SUB SLT ISZERO PUSH2 0x551A JUMPI PUSH2 0x5519 PUSH2 0x45BD JUMP JUMPDEST JUMPDEST PUSH0 PUSH2 0x5527 DUP8 DUP3 DUP9 ADD PUSH2 0x46BF JUMP JUMPDEST SWAP5 POP POP PUSH1 0x20 PUSH2 0x5538 DUP8 DUP3 DUP9 ADD PUSH2 0x4EEE JUMP JUMPDEST SWAP4 POP POP PUSH1 0x40 PUSH2 0x5549 DUP8 DUP3 DUP9 ADD PUSH2 0x47FC JUMP JUMPDEST SWAP3 POP POP PUSH1 0x60 DUP6 ADD CALLDATALOAD PUSH8 0xFFFFFFFFFFFFFFFF DUP2 GT ISZERO PUSH2 0x556A JUMPI PUSH2 0x5569 PUSH2 0x45C1 JUMP JUMPDEST JUMPDEST PUSH2 0x5576 DUP8 DUP3 DUP9 ADD PUSH2 0x490F JUMP JUMPDEST SWAP2 POP POP SWAP3 SWAP6 SWAP2 SWAP5 POP SWAP3 POP JUMP JUMPDEST PUSH0 PUSH6 0xFFFFFFFFFFFF DUP3 AND SWAP1 POP SWAP2 SWAP1 POP JUMP JUMPDEST PUSH2 0x559C DUP2 PUSH2 0x5582 JUMP JUMPDEST DUP3 MSTORE POP POP JUMP JUMPDEST PUSH0 PUSH1 0x20 DUP3 ADD SWAP1 POP PUSH2 0x55B5 PUSH0 DUP4 ADD DUP5 PUSH2 0x5593 JUMP JUMPDEST SWAP3 SWAP2 POP POP JUMP JUMPDEST PUSH0 DUP1 PUSH0 PUSH1 0x60 DUP5 DUP7 SUB SLT ISZERO PUSH2 0x55D2 JUMPI PUSH2 0x55D1 PUSH2 0x45BD JUMP JUMPDEST JUMPDEST PUSH0 PUSH2 0x55DF DUP7 DUP3 DUP8 ADD PUSH2 0x47FC JUMP JUMPDEST SWAP4 POP POP PUSH1 0x20 PUSH2 0x55F0 DUP7 DUP3 DUP8 ADD PUSH2 0x46BF JUMP JUMPDEST SWAP3 POP POP PUSH1 0x40 DUP5 ADD CALLDATALOAD PUSH8 0xFFFFFFFFFFFFFFFF DUP2 GT ISZERO PUSH2 0x5611 JUMPI PUSH2 0x5610 PUSH2 0x45C1 JUMP JUMPDEST JUMPDEST PUSH2 0x561D DUP7 DUP3 DUP8 ADD PUSH2 0x490F JUMP JUMPDEST SWAP2 POP POP SWAP3 POP SWAP3 POP SWAP3 JUMP JUMPDEST PUSH0 DUP1 PUSH0 DUP1 PUSH0 PUSH1 0xA0 DUP7 DUP9 SUB SLT ISZERO PUSH2 0x5640 JUMPI PUSH2 0x563F PUSH2 0x45BD JUMP JUMPDEST JUMPDEST PUSH0 PUSH2 0x564D DUP9 DUP3 DUP10 ADD PUSH2 0x47FC JUMP JUMPDEST SWAP6 POP POP PUSH1 0x20 PUSH2 0x565E DUP9 DUP3 DUP10 ADD PUSH2 0x47FC JUMP JUMPDEST SWAP5 POP POP PUSH1 0x40 DUP7 ADD CALLDATALOAD PUSH8 0xFFFFFFFFFFFFFFFF DUP2 GT ISZERO PUSH2 0x567F JUMPI PUSH2 0x567E PUSH2 0x45C1 JUMP JUMPDEST JUMPDEST PUSH2 0x568B DUP9 DUP3 DUP10 ADD PUSH2 0x4B3B JUMP JUMPDEST SWAP4 POP POP PUSH1 0x60 DUP7 ADD CALLDATALOAD PUSH8 0xFFFFFFFFFFFFFFFF DUP2 GT ISZERO PUSH2 0x56AC JUMPI PUSH2 0x56AB PUSH2 0x45C1 JUMP JUMPDEST JUMPDEST PUSH2 0x56B8 DUP9 DUP3 DUP10 ADD PUSH2 0x4B3B JUMP JUMPDEST SWAP3 POP POP PUSH1 0x80 DUP7 ADD CALLDATALOAD PUSH8 0xFFFFFFFFFFFFFFFF DUP2 GT ISZERO PUSH2 0x56D9 JUMPI PUSH2 0x56D8 PUSH2 0x45C1 JUMP JUMPDEST JUMPDEST PUSH2 0x56E5 DUP9 DUP3 DUP10 ADD PUSH2 0x490F JUMP JUMPDEST SWAP2 POP POP SWAP3 SWAP6 POP SWAP3 SWAP6 SWAP1 SWAP4 POP JUMP JUMPDEST PUSH0 DUP1 DUP4 PUSH1 0x1F DUP5 ADD SLT PUSH2 0x5707 JUMPI PUSH2 0x5706 PUSH2 0x4810 JUMP JUMPDEST JUMPDEST DUP3 CALLDATALOAD SWAP1 POP PUSH8 0xFFFFFFFFFFFFFFFF DUP2 GT ISZERO PUSH2 0x5724 JUMPI PUSH2 0x5723 PUSH2 0x4F40 JUMP JUMPDEST JUMPDEST PUSH1 0x20 DUP4 ADD SWAP2 POP DUP4 PUSH1 0x1 DUP3 MUL DUP4 ADD GT ISZERO PUSH2 0x5740 JUMPI PUSH2 0x573F PUSH2 0x4A0F JUMP JUMPDEST JUMPDEST SWAP3 POP SWAP3 SWAP1 POP JUMP JUMPDEST PUSH0 DUP1 PUSH0 DUP1 PUSH1 0x60 DUP6 DUP8 SUB SLT ISZERO PUSH2 0x575F JUMPI PUSH2 0x575E PUSH2 0x45BD JUMP JUMPDEST JUMPDEST PUSH0 PUSH2 0x576C DUP8 DUP3 DUP9 ADD PUSH2 0x47FC JUMP JUMPDEST SWAP5 POP POP PUSH1 0x20 PUSH2 0x577D DUP8 DUP3 DUP9 ADD PUSH2 0x46BF JUMP JUMPDEST SWAP4 POP POP PUSH1 0x40 DUP6 ADD CALLDATALOAD PUSH8 0xFFFFFFFFFFFFFFFF DUP2 GT ISZERO PUSH2 0x579E JUMPI PUSH2 0x579D PUSH2 0x45C1 JUMP JUMPDEST JUMPDEST PUSH2 0x57AA DUP8 DUP3 DUP9 ADD PUSH2 0x56F2 JUMP JUMPDEST SWAP3 POP SWAP3 POP POP SWAP3 SWAP6 SWAP2 SWAP5 POP SWAP3 POP JUMP JUMPDEST PUSH0 DUP1 PUSH1 0x40 DUP4 DUP6 SUB SLT ISZERO PUSH2 0x57CE JUMPI PUSH2 0x57CD PUSH2 0x45BD JUMP JUMPDEST JUMPDEST PUSH0 PUSH2 0x57DB DUP6 DUP3 DUP7 ADD PUSH2 0x47FC JUMP JUMPDEST SWAP3 POP POP PUSH1 0x20 PUSH2 0x57EC DUP6 DUP3 DUP7 ADD PUSH2 0x46BF JUMP JUMPDEST SWAP2 POP POP SWAP3 POP SWAP3 SWAP1 POP JUMP JUMPDEST PUSH0 DUP1 PUSH0 DUP1 PUSH0 PUSH1 0xA0 DUP7 DUP9 SUB SLT ISZERO PUSH2 0x580F JUMPI PUSH2 0x580E PUSH2 0x45BD JUMP JUMPDEST JUMPDEST PUSH0 PUSH2 0x581C DUP9 DUP3 DUP10 ADD PUSH2 0x47FC JUMP JUMPDEST SWAP6 POP POP PUSH1 0x20 PUSH2 0x582D DUP9 DUP3 DUP10 ADD PUSH2 0x47FC JUMP JUMPDEST SWAP5 POP POP PUSH1 0x40 PUSH2 0x583E DUP9 DUP3 DUP10 ADD PUSH2 0x46BF JUMP JUMPDEST SWAP4 POP POP PUSH1 0x60 PUSH2 0x584F DUP9 DUP3 DUP10 ADD PUSH2 0x46BF JUMP JUMPDEST SWAP3 POP POP PUSH1 0x80 DUP7 ADD CALLDATALOAD PUSH8 0xFFFFFFFFFFFFFFFF DUP2 GT ISZERO PUSH2 0x5870 JUMPI PUSH2 0x586F PUSH2 0x45C1 JUMP JUMPDEST JUMPDEST PUSH2 0x587C DUP9 DUP3 DUP10 ADD PUSH2 0x490F JUMP JUMPDEST SWAP2 POP POP SWAP3 SWAP6 POP SWAP3 SWAP6 SWAP1 SWAP4 POP JUMP JUMPDEST PUSH0 PUSH2 0x5893 DUP3 PUSH2 0x4D83 JUMP JUMPDEST SWAP1 POP SWAP2 SWAP1 POP JUMP JUMPDEST PUSH2 0x58A3 DUP2 PUSH2 0x5889 JUMP JUMPDEST DUP3 MSTORE POP POP JUMP JUMPDEST PUSH0 PUSH1 0x20 DUP3 ADD SWAP1 POP PUSH2 0x58BC PUSH0 DUP4 ADD DUP5 PUSH2 0x589A JUMP JUMPDEST SWAP3 SWAP2 POP POP JUMP JUMPDEST PUSH32 0x4E487B7100000000000000000000000000000000000000000000000000000000 PUSH0 MSTORE PUSH1 0x22 PUSH1 0x4 MSTORE PUSH1 0x24 PUSH0 REVERT JUMPDEST PUSH0 PUSH1 0x2 DUP3 DIV SWAP1 POP PUSH1 0x1 DUP3 AND DUP1 PUSH2 0x5906 JUMPI PUSH1 0x7F DUP3 AND SWAP2 POP JUMPDEST PUSH1 0x20 DUP3 LT DUP2 SUB PUSH2 0x5919 JUMPI PUSH2 0x5918 PUSH2 0x58C2 JUMP JUMPDEST JUMPDEST POP SWAP2 SWAP1 POP JUMP JUMPDEST PUSH0 PUSH2 0x5939 PUSH2 0x5934 PUSH2 0x592F DUP5 PUSH2 0x5582 JUMP JUMPDEST PUSH2 0x4D59 JUMP JUMPDEST PUSH2 0x4678 JUMP JUMPDEST SWAP1 POP SWAP2 SWAP1 POP JUMP JUMPDEST PUSH2 0x5949 DUP2 PUSH2 0x591F JUMP JUMPDEST DUP3 MSTORE POP POP JUMP JUMPDEST PUSH0 PUSH1 0x40 DUP3 ADD SWAP1 POP PUSH2 0x5962 PUSH0 DUP4 ADD DUP6 PUSH2 0x4681 JUMP JUMPDEST PUSH2 0x596F PUSH1 0x20 DUP4 ADD DUP5 PUSH2 0x5940 JUMP JUMPDEST SWAP4 SWAP3 POP POP POP JUMP JUMPDEST PUSH32 0x4E487B7100000000000000000000000000000000000000000000000000000000 PUSH0 MSTORE PUSH1 0x11 PUSH1 0x4 MSTORE PUSH1 0x24 PUSH0 REVERT JUMPDEST PUSH0 PUSH2 0x59AD DUP3 PUSH2 0x4678 JUMP JUMPDEST SWAP2 POP PUSH2 0x59B8 DUP4 PUSH2 0x4678 JUMP JUMPDEST SWAP3 POP DUP3 DUP3 SUB SWAP1 POP DUP2 DUP2 GT ISZERO PUSH2 0x59D0 JUMPI PUSH2 0x59CF PUSH2 0x5976 JUMP JUMPDEST JUMPDEST SWAP3 SWAP2 POP POP JUMP JUMPDEST PUSH0 DUP2 MLOAD SWAP1 POP PUSH2 0x59E4 DUP2 PUSH2 0x46A9 JUMP JUMPDEST SWAP3 SWAP2 POP POP JUMP JUMPDEST PUSH0 PUSH1 0x20 DUP3 DUP5 SUB SLT ISZERO PUSH2 0x59FF JUMPI PUSH2 0x59FE PUSH2 0x45BD JUMP JUMPDEST JUMPDEST PUSH0 PUSH2 0x5A0C DUP5 DUP3 DUP6 ADD PUSH2 0x59D6 JUMP JUMPDEST SWAP2 POP POP SWAP3 SWAP2 POP POP JUMP JUMPDEST PUSH32 0x4E487B7100000000000000000000000000000000000000000000000000000000 PUSH0 MSTORE PUSH1 0x32 PUSH1 0x4 MSTORE PUSH1 0x24 PUSH0 REVERT JUMPDEST PUSH0 PUSH2 0x5A4C DUP3 PUSH2 0x4678 JUMP JUMPDEST SWAP2 POP PUSH2 0x5A57 DUP4 PUSH2 0x4678 JUMP JUMPDEST SWAP3 POP DUP3 DUP3 ADD SWAP1 POP DUP1 DUP3 GT ISZERO PUSH2 0x5A6F JUMPI PUSH2 0x5A6E PUSH2 0x5976 JUMP JUMPDEST JUMPDEST SWAP3 SWAP2 POP POP JUMP JUMPDEST PUSH32 0x52657761726420696E74657276616C20686173206E6F74207061737365642079 PUSH0 DUP3 ADD MSTORE PUSH32 0x6574000000000000000000000000000000000000000000000000000000000000 PUSH1 0x20 DUP3 ADD MSTORE POP JUMP JUMPDEST PUSH0 PUSH2 0x5ACF PUSH1 0x22 DUP4 PUSH2 0x4708 JUMP JUMPDEST SWAP2 POP PUSH2 0x5ADA DUP3 PUSH2 0x5A75 JUMP JUMPDEST PUSH1 0x40 DUP3 ADD SWAP1 POP SWAP2 SWAP1 POP JUMP JUMPDEST PUSH0 PUSH1 0x20 DUP3 ADD SWAP1 POP DUP2 DUP2 SUB PUSH0 DUP4 ADD MSTORE PUSH2 0x5AFC DUP2 PUSH2 0x5AC3 JUMP JUMPDEST SWAP1 POP SWAP2 SWAP1 POP JUMP JUMPDEST PUSH0 PUSH2 0x5B0D DUP3 PUSH2 0x4678 JUMP JUMPDEST SWAP2 POP PUSH2 0x5B18 DUP4 PUSH2 0x4678 JUMP JUMPDEST SWAP3 POP DUP3 DUP3 MUL PUSH2 0x5B26 DUP2 PUSH2 0x4678 JUMP JUMPDEST SWAP2 POP DUP3 DUP3 DIV DUP5 EQ DUP4 ISZERO OR PUSH2 0x5B3D JUMPI PUSH2 0x5B3C PUSH2 0x5976 JUMP JUMPDEST JUMPDEST POP SWAP3 SWAP2 POP POP JUMP JUMPDEST PUSH32 0x4E487B7100000000000000000000000000000000000000000000000000000000 PUSH0 MSTORE PUSH1 0x12 PUSH1 0x4 MSTORE PUSH1 0x24 PUSH0 REVERT JUMPDEST PUSH0 PUSH2 0x5B7B DUP3 PUSH2 0x4678 JUMP JUMPDEST SWAP2 POP PUSH2 0x5B86 DUP4 PUSH2 0x4678 JUMP JUMPDEST SWAP3 POP DUP3 PUSH2 0x5B96 JUMPI PUSH2 0x5B95 PUSH2 0x5B44 JUMP JUMPDEST JUMPDEST DUP3 DUP3 DIV SWAP1 POP SWAP3 SWAP2 POP POP JUMP JUMPDEST PUSH0 PUSH2 0x5BB3 PUSH2 0x5BAE DUP5 PUSH2 0x521D JUMP JUMPDEST PUSH2 0x4876 JUMP JUMPDEST SWAP1 POP DUP3 DUP2 MSTORE PUSH1 0x20 DUP2 ADD DUP5 DUP5 DUP5 ADD GT ISZERO PUSH2 0x5BCF JUMPI PUSH2 0x5BCE PUSH2 0x4814 JUMP JUMPDEST JUMPDEST PUSH2 0x5BDA DUP5 DUP3 DUP6 PUSH2 0x4718 JUMP JUMPDEST POP SWAP4 SWAP3 POP POP POP JUMP JUMPDEST PUSH0 DUP3 PUSH1 0x1F DUP4 ADD SLT PUSH2 0x5BF6 JUMPI PUSH2 0x5BF5 PUSH2 0x4810 JUMP JUMPDEST JUMPDEST DUP2 MLOAD PUSH2 0x5C06 DUP5 DUP3 PUSH1 0x20 DUP7 ADD PUSH2 0x5BA1 JUMP JUMPDEST SWAP2 POP POP SWAP3 SWAP2 POP POP JUMP JUMPDEST PUSH0 PUSH1 0x20 DUP3 DUP5 SUB SLT ISZERO PUSH2 0x5C24 JUMPI PUSH2 0x5C23 PUSH2 0x45BD JUMP JUMPDEST JUMPDEST PUSH0 DUP3 ADD MLOAD PUSH8 0xFFFFFFFFFFFFFFFF DUP2 GT ISZERO PUSH2 0x5C41 JUMPI PUSH2 0x5C40 PUSH2 0x45C1 JUMP JUMPDEST JUMPDEST PUSH2 0x5C4D DUP5 DUP3 DUP6 ADD PUSH2 0x5BE2 JUMP JUMPDEST SWAP2 POP POP SWAP3 SWAP2 POP POP JUMP JUMPDEST PUSH0 DUP2 SWAP1 POP SWAP3 SWAP2 POP POP JUMP JUMPDEST PUSH0 PUSH2 0x5C6B DUP4 DUP6 PUSH2 0x5C56 JUMP JUMPDEST SWAP4 POP PUSH2 0x5C78 DUP4 DUP6 DUP5 PUSH2 0x48C0 JUMP JUMPDEST DUP3 DUP5 ADD SWAP1 POP SWAP4 SWAP3 POP POP POP JUMP JUMPDEST PUSH0 PUSH2 0x5C90 DUP3 DUP5 DUP7 PUSH2 0x5C60 JUMP JUMPDEST SWAP2 POP DUP2 SWAP1 POP SWAP4 SWAP3 POP POP POP JUMP JUMPDEST PUSH2 0x5CA5 DUP2 PUSH2 0x4ECC JUMP JUMPDEST DUP3 MSTORE POP POP JUMP JUMPDEST PUSH0 PUSH1 0xE0 DUP3 ADD SWAP1 POP PUSH2 0x5CBE PUSH0 DUP4 ADD DUP11 PUSH2 0x4D31 JUMP JUMPDEST PUSH2 0x5CCB PUSH1 0x20 DUP4 ADD DUP10 PUSH2 0x4681 JUMP JUMPDEST PUSH2 0x5CD8 PUSH1 0x40 DUP4 ADD DUP9 PUSH2 0x5C9C JUMP JUMPDEST PUSH2 0x5CE5 PUSH1 0x60 DUP4 ADD DUP8 PUSH2 0x47BE JUMP JUMPDEST PUSH2 0x5CF2 PUSH1 0x80 DUP4 ADD DUP7 PUSH2 0x4681 JUMP JUMPDEST PUSH2 0x5CFF PUSH1 0xA0 DUP4 ADD DUP6 PUSH2 0x4D31 JUMP JUMPDEST PUSH2 0x5D0C PUSH1 0xC0 DUP4 ADD DUP5 PUSH2 0x4D31 JUMP JUMPDEST SWAP9 SWAP8 POP POP POP POP POP POP POP POP JUMP JUMPDEST PUSH0 PUSH2 0x5D22 DUP3 PUSH2 0x5582 JUMP JUMPDEST SWAP2 POP PUSH2 0x5D2D DUP4 PUSH2 0x5582 JUMP JUMPDEST SWAP3 POP DUP3 DUP3 SUB SWAP1 POP PUSH6 0xFFFFFFFFFFFF DUP2 GT ISZERO PUSH2 0x5D4B JUMPI PUSH2 0x5D4A PUSH2 0x5976 JUMP JUMPDEST JUMPDEST SWAP3 SWAP2 POP POP JUMP JUMPDEST PUSH0 PUSH1 0x60 DUP3 ADD SWAP1 POP PUSH2 0x5D64 PUSH0 DUP4 ADD DUP7 PUSH2 0x47BE JUMP JUMPDEST PUSH2 0x5D71 PUSH1 0x20 DUP4 ADD DUP6 PUSH2 0x4681 JUMP JUMPDEST PUSH2 0x5D7E PUSH1 0x40 DUP4 ADD DUP5 PUSH2 0x4681 JUMP JUMPDEST SWAP5 SWAP4 POP POP POP POP JUMP JUMPDEST PUSH0 PUSH1 0xA0 DUP3 ADD SWAP1 POP PUSH2 0x5D99 PUSH0 DUP4 ADD DUP9 PUSH2 0x4D31 JUMP JUMPDEST PUSH2 0x5DA6 PUSH1 0x20 DUP4 ADD DUP8 PUSH2 0x4681 JUMP JUMPDEST PUSH2 0x5DB3 PUSH1 0x40 DUP4 ADD DUP7 PUSH2 0x5C9C JUMP JUMPDEST PUSH2 0x5DC0 PUSH1 0x60 DUP4 ADD DUP6 PUSH2 0x47BE JUMP JUMPDEST PUSH2 0x5DCD PUSH1 0x80 DUP4 ADD DUP5 PUSH2 0x4681 JUMP JUMPDEST SWAP7 SWAP6 POP POP POP POP POP POP JUMP JUMPDEST PUSH2 0x5DE0 DUP2 PUSH2 0x5582 JUMP JUMPDEST DUP2 EQ PUSH2 0x5DEA JUMPI PUSH0 DUP1 REVERT JUMPDEST POP JUMP JUMPDEST PUSH0 DUP2 MLOAD SWAP1 POP PUSH2 0x5DFB DUP2 PUSH2 0x5DD7 JUMP JUMPDEST SWAP3 SWAP2 POP POP JUMP JUMPDEST PUSH0 PUSH1 0x20 DUP3 DUP5 SUB SLT ISZERO PUSH2 0x5E16 JUMPI PUSH2 0x5E15 PUSH2 0x45BD JUMP JUMPDEST JUMPDEST PUSH0 PUSH2 0x5E23 DUP5 DUP3 DUP6 ADD PUSH2 0x5DED JUMP JUMPDEST SWAP2 POP POP SWAP3 SWAP2 POP POP JUMP JUMPDEST PUSH0 PUSH2 0x5E36 DUP3 PUSH2 0x5582 JUMP JUMPDEST SWAP2 POP PUSH2 0x5E41 DUP4 PUSH2 0x5582 JUMP JUMPDEST SWAP3 POP DUP3 DUP3 ADD SWAP1 POP PUSH6 0xFFFFFFFFFFFF DUP2 GT ISZERO PUSH2 0x5E5F JUMPI PUSH2 0x5E5E PUSH2 0x5976 JUMP JUMPDEST JUMPDEST SWAP3 SWAP2 POP POP JUMP JUMPDEST PUSH0 DUP2 MLOAD SWAP1 POP SWAP2 SWAP1 POP JUMP JUMPDEST PUSH0 DUP3 DUP3 MSTORE PUSH1 0x20 DUP3 ADD SWAP1 POP SWAP3 SWAP2 POP POP JUMP JUMPDEST PUSH0 DUP2 SWAP1 POP PUSH1 0x20 DUP3 ADD SWAP1 POP SWAP2 SWAP1 POP JUMP JUMPDEST PUSH2 0x5E97 DUP2 PUSH2 0x47AD JUMP JUMPDEST DUP3 MSTORE POP POP JUMP JUMPDEST PUSH0 PUSH2 0x5EA8 DUP4 DUP4 PUSH2 0x5E8E JUMP JUMPDEST PUSH1 0x20 DUP4 ADD SWAP1 POP SWAP3 SWAP2 POP POP JUMP JUMPDEST PUSH0 PUSH1 0x20 DUP3 ADD SWAP1 POP SWAP2 SWAP1 POP JUMP JUMPDEST PUSH0 PUSH2 0x5ECA DUP3 PUSH2 0x5E65 JUMP JUMPDEST PUSH2 0x5ED4 DUP2 DUP6 PUSH2 0x5E6F JUMP JUMPDEST SWAP4 POP PUSH2 0x5EDF DUP4 PUSH2 0x5E7F JUMP JUMPDEST DUP1 PUSH0 JUMPDEST DUP4 DUP2 LT ISZERO PUSH2 0x5F0F JUMPI DUP2 MLOAD PUSH2 0x5EF6 DUP9 DUP3 PUSH2 0x5E9D JUMP JUMPDEST SWAP8 POP PUSH2 0x5F01 DUP4 PUSH2 0x5EB4 JUMP JUMPDEST SWAP3 POP POP PUSH1 0x1 DUP2 ADD SWAP1 POP PUSH2 0x5EE2 JUMP JUMPDEST POP DUP6 SWAP4 POP POP POP POP SWAP3 SWAP2 POP POP JUMP JUMPDEST PUSH0 DUP2 MLOAD SWAP1 POP SWAP2 SWAP1 POP JUMP JUMPDEST PUSH0 DUP3 DUP3 MSTORE PUSH1 0x20 DUP3 ADD SWAP1 POP SWAP3 SWAP2 POP POP JUMP JUMPDEST PUSH0 DUP2 SWAP1 POP PUSH1 0x20 DUP3 ADD SWAP1 POP SWAP2 SWAP1 POP JUMP JUMPDEST PUSH0 DUP2 MLOAD SWAP1 POP SWAP2 SWAP1 POP JUMP JUMPDEST PUSH0 DUP3 DUP3 MSTORE PUSH1 0x20 DUP3 ADD SWAP1 POP SWAP3 SWAP2 POP POP JUMP JUMPDEST PUSH0 PUSH2 0x5F69 DUP3 PUSH2 0x5F45 JUMP JUMPDEST PUSH2 0x5F73 DUP2 DUP6 PUSH2 0x5F4F JUMP JUMPDEST SWAP4 POP PUSH2 0x5F83 DUP2 DUP6 PUSH1 0x20 DUP7 ADD PUSH2 0x4718 JUMP JUMPDEST PUSH2 0x5F8C DUP2 PUSH2 0x4726 JUMP JUMPDEST DUP5 ADD SWAP2 POP POP SWAP3 SWAP2 POP POP JUMP JUMPDEST PUSH0 PUSH2 0x5FA2 DUP4 DUP4 PUSH2 0x5F5F JUMP JUMPDEST SWAP1 POP SWAP3 SWAP2 POP POP JUMP JUMPDEST PUSH0 PUSH1 0x20 DUP3 ADD SWAP1 POP SWAP2 SWAP1 POP JUMP JUMPDEST PUSH0 PUSH2 0x5FC0 DUP3 PUSH2 0x5F1C JUMP JUMPDEST PUSH2 0x5FCA DUP2 DUP6 PUSH2 0x5F26 JUMP JUMPDEST SWAP4 POP DUP4 PUSH1 0x20 DUP3 MUL DUP6 ADD PUSH2 0x5FDC DUP6 PUSH2 0x5F36 JUMP JUMPDEST DUP1 PUSH0 JUMPDEST DUP6 DUP2 LT ISZERO PUSH2 0x6017 JUMPI DUP5 DUP5 SUB DUP10 MSTORE DUP2 MLOAD PUSH2 0x5FF8 DUP6 DUP3 PUSH2 0x5F97 JUMP JUMPDEST SWAP5 POP PUSH2 0x6003 DUP4 PUSH2 0x5FAA JUMP JUMPDEST SWAP3 POP PUSH1 0x20 DUP11 ADD SWAP10 POP POP PUSH1 0x1 DUP2 ADD SWAP1 POP PUSH2 0x5FDF JUMP JUMPDEST POP DUP3 SWAP8 POP DUP8 SWAP6 POP POP POP POP POP POP SWAP3 SWAP2 POP POP JUMP JUMPDEST PUSH0 PUSH1 0x80 DUP3 ADD SWAP1 POP DUP2 DUP2 SUB PUSH0 DUP4 ADD MSTORE PUSH2 0x6041 DUP2 DUP8 PUSH2 0x5EC0 JUMP JUMPDEST SWAP1 POP DUP2 DUP2 SUB PUSH1 0x20 DUP4 ADD MSTORE PUSH2 0x6055 DUP2 DUP7 PUSH2 0x5424 JUMP JUMPDEST SWAP1 POP DUP2 DUP2 SUB PUSH1 0x40 DUP4 ADD MSTORE PUSH2 0x6069 DUP2 DUP6 PUSH2 0x5FB6 JUMP JUMPDEST SWAP1 POP PUSH2 0x6078 PUSH1 0x60 DUP4 ADD DUP5 PUSH2 0x4D31 JUMP JUMPDEST SWAP6 SWAP5 POP POP POP POP POP JUMP JUMPDEST PUSH32 0x4E6F207265776172647320746F20776974686472617700000000000000000000 PUSH0 DUP3 ADD MSTORE POP JUMP JUMPDEST PUSH0 PUSH2 0x60B5 PUSH1 0x16 DUP4 PUSH2 0x4708 JUMP JUMPDEST SWAP2 POP PUSH2 0x60C0 DUP3 PUSH2 0x6081 JUMP JUMPDEST PUSH1 0x20 DUP3 ADD SWAP1 POP SWAP2 SWAP1 POP JUMP JUMPDEST PUSH0 PUSH1 0x20 DUP3 ADD SWAP1 POP DUP2 DUP2 SUB PUSH0 DUP4 ADD MSTORE PUSH2 0x60E2 DUP2 PUSH2 0x60A9 JUMP JUMPDEST SWAP1 POP SWAP2 SWAP1 POP JUMP JUMPDEST PUSH0 PUSH1 0x40 DUP3 ADD SWAP1 POP PUSH2 0x60FC PUSH0 DUP4 ADD DUP6 PUSH2 0x47BE JUMP JUMPDEST PUSH2 0x6109 PUSH1 0x20 DUP4 ADD DUP5 PUSH2 0x4681 JUMP JUMPDEST SWAP4 SWAP3 POP POP POP JUMP JUMPDEST PUSH2 0x6119 DUP2 PUSH2 0x4645 JUMP JUMPDEST DUP2 EQ PUSH2 0x6123 JUMPI PUSH0 DUP1 REVERT JUMPDEST POP JUMP JUMPDEST PUSH0 DUP2 MLOAD SWAP1 POP PUSH2 0x6134 DUP2 PUSH2 0x6110 JUMP JUMPDEST SWAP3 SWAP2 POP POP JUMP JUMPDEST PUSH0 PUSH1 0x20 DUP3 DUP5 SUB SLT ISZERO PUSH2 0x614F JUMPI PUSH2 0x614E PUSH2 0x45BD JUMP JUMPDEST JUMPDEST PUSH0 PUSH2 0x615C DUP5 DUP3 DUP6 ADD PUSH2 0x6126 JUMP JUMPDEST SWAP2 POP POP SWAP3 SWAP2 POP POP JUMP JUMPDEST PUSH0 PUSH1 0x40 DUP3 ADD SWAP1 POP PUSH2 0x6178 PUSH0 DUP4 ADD DUP6 PUSH2 0x4681 JUMP JUMPDEST PUSH2 0x6185 PUSH1 0x20 DUP4 ADD DUP5 PUSH2 0x4681 JUMP JUMPDEST SWAP4 SWAP3 POP POP POP JUMP JUMPDEST PUSH0 PUSH1 0x60 DUP3 ADD SWAP1 POP PUSH2 0x619F PUSH0 DUP4 ADD DUP7 PUSH2 0x4681 JUMP JUMPDEST PUSH2 0x61AC PUSH1 0x20 DUP4 ADD DUP6 PUSH2 0x4E31 JUMP JUMPDEST PUSH2 0x61B9 PUSH1 0x40 DUP4 ADD DUP5 PUSH2 0x4D31 JUMP JUMPDEST SWAP5 SWAP4 POP POP POP POP JUMP JUMPDEST PUSH0 PUSH2 0x61CB DUP3 PUSH2 0x5F45 JUMP JUMPDEST PUSH2 0x61D5 DUP2 DUP6 PUSH2 0x5C56 JUMP JUMPDEST SWAP4 POP PUSH2 0x61E5 DUP2 DUP6 PUSH1 0x20 DUP7 ADD PUSH2 0x4718 JUMP JUMPDEST DUP1 DUP5 ADD SWAP2 POP POP SWAP3 SWAP2 POP POP JUMP JUMPDEST PUSH0 PUSH2 0x61FC DUP3 DUP5 PUSH2 0x61C1 JUMP JUMPDEST SWAP2 POP DUP2 SWAP1 POP SWAP3 SWAP2 POP POP JUMP JUMPDEST PUSH0 PUSH2 0x6211 DUP3 PUSH2 0x4ECC JUMP JUMPDEST SWAP2 POP PUSH2 0x621C DUP4 PUSH2 0x4ECC JUMP JUMPDEST SWAP3 POP DUP3 DUP3 ADD SWAP1 POP PUSH1 0xFF DUP2 GT ISZERO PUSH2 0x6235 JUMPI PUSH2 0x6234 PUSH2 0x5976 JUMP JUMPDEST JUMPDEST SWAP3 SWAP2 POP POP JUMP JUMPDEST PUSH0 DUP2 PUSH1 0x1 SHR SWAP1 POP SWAP2 SWAP1 POP JUMP JUMPDEST PUSH0 DUP1 DUP3 SWAP2 POP DUP4 SWAP1 POP JUMPDEST PUSH1 0x1 DUP6 GT ISZERO PUSH2 0x6290 JUMPI DUP1 DUP7 DIV DUP2 GT ISZERO PUSH2 0x626C JUMPI PUSH2 0x626B PUSH2 0x5976 JUMP JUMPDEST JUMPDEST PUSH1 0x1 DUP6 AND ISZERO PUSH2 0x627B JUMPI DUP1 DUP3 MUL SWAP2 POP JUMPDEST DUP1 DUP2 MUL SWAP1 POP PUSH2 0x6289 DUP6 PUSH2 0x623B JUMP JUMPDEST SWAP5 POP PUSH2 0x6250 JUMP JUMPDEST SWAP5 POP SWAP5 SWAP3 POP POP POP JUMP JUMPDEST PUSH0 DUP3 PUSH2 0x62A8 JUMPI PUSH1 0x1 SWAP1 POP PUSH2 0x6363 JUMP JUMPDEST DUP2 PUSH2 0x62B5 JUMPI PUSH0 SWAP1 POP PUSH2 0x6363 JUMP JUMPDEST DUP2 PUSH1 0x1 DUP2 EQ PUSH2 0x62CB JUMPI PUSH1 0x2 DUP2 EQ PUSH2 0x62D5 JUMPI PUSH2 0x6304 JUMP JUMPDEST PUSH1 0x1 SWAP2 POP POP PUSH2 0x6363 JUMP JUMPDEST PUSH1 0xFF DUP5 GT ISZERO PUSH2 0x62E7 JUMPI PUSH2 0x62E6 PUSH2 0x5976 JUMP JUMPDEST JUMPDEST DUP4 PUSH1 0x2 EXP SWAP2 POP DUP5 DUP3 GT ISZERO PUSH2 0x62FE JUMPI PUSH2 0x62FD PUSH2 0x5976 JUMP JUMPDEST JUMPDEST POP PUSH2 0x6363 JUMP JUMPDEST POP PUSH1 0x20 DUP4 LT PUSH2 0x133 DUP4 LT AND PUSH1 0x4E DUP5 LT PUSH1 0xB DUP5 LT AND OR ISZERO PUSH2 0x6339 JUMPI DUP3 DUP3 EXP SWAP1 POP DUP4 DUP2 GT ISZERO PUSH2 0x6334 JUMPI PUSH2 0x6333 PUSH2 0x5976 JUMP JUMPDEST JUMPDEST PUSH2 0x6363 JUMP JUMPDEST PUSH2 0x6346 DUP5 DUP5 DUP5 PUSH1 0x1 PUSH2 0x6247 JUMP JUMPDEST SWAP3 POP SWAP1 POP DUP2 DUP5 DIV DUP2 GT ISZERO PUSH2 0x635D JUMPI PUSH2 0x635C PUSH2 0x5976 JUMP JUMPDEST JUMPDEST DUP2 DUP2 MUL SWAP1 POP JUMPDEST SWAP4 SWAP3 POP POP POP JUMP JUMPDEST PUSH0 PUSH2 0x6374 DUP3 PUSH2 0x4678 JUMP JUMPDEST SWAP2 POP PUSH2 0x637F DUP4 PUSH2 0x4ECC JUMP JUMPDEST SWAP3 POP PUSH2 0x63AC PUSH32 0xFFFFFFFFFFFFFFFFFFFFFFFFFFFFFFFFFFFFFFFFFFFFFFFFFFFFFFFFFFFFFFFF DUP5 DUP5 PUSH2 0x6299 JUMP JUMPDEST SWAP1 POP SWAP3 SWAP2 POP POP JUMP JUMPDEST PUSH0 PUSH1 0x80 DUP3 ADD SWAP1 POP PUSH2 0x63C7 PUSH0 DUP4 ADD DUP8 PUSH2 0x4681 JUMP JUMPDEST PUSH2 0x63D4 PUSH1 0x20 DUP4 ADD DUP7 PUSH2 0x5C9C JUMP JUMPDEST PUSH2 0x63E1 PUSH1 0x40 DUP4 ADD DUP6 PUSH2 0x4681 JUMP JUMPDEST DUP2 DUP2 SUB PUSH1 0x60 DUP4 ADD MSTORE PUSH2 0x63F3 DUP2 DUP5 PUSH2 0x4736 JUMP JUMPDEST SWAP1 POP SWAP6 SWAP5 POP POP POP POP POP JUMP JUMPDEST PUSH0 DUP3 DUP3 MSTORE PUSH1 0x20 DUP3 ADD SWAP1 POP SWAP3 SWAP2 POP POP JUMP JUMPDEST PUSH0 PUSH2 0x6418 DUP3 PUSH2 0x5F45 JUMP JUMPDEST PUSH2 0x6422 DUP2 DUP6 PUSH2 0x63FE JUMP JUMPDEST SWAP4 POP PUSH2 0x6432 DUP2 DUP6 PUSH1 0x20 DUP7 ADD PUSH2 0x4718 JUMP JUMPDEST PUSH2 0x643B DUP2 PUSH2 0x4726 JUMP JUMPDEST DUP5 ADD SWAP2 POP POP SWAP3 SWAP2 POP POP JUMP JUMPDEST PUSH0 PUSH1 0xA0 DUP3 ADD SWAP1 POP PUSH2 0x6459 PUSH0 DUP4 ADD DUP9 PUSH2 0x4681 JUMP JUMPDEST PUSH2 0x6466 PUSH1 0x20 DUP4 ADD DUP8 PUSH2 0x5C9C JUMP JUMPDEST PUSH2 0x6473 PUSH1 0x40 DUP4 ADD DUP7 PUSH2 0x4681 JUMP JUMPDEST DUP2 DUP2 SUB PUSH1 0x60 DUP4 ADD MSTORE PUSH2 0x6485 DUP2 DUP6 PUSH2 0x4736 JUMP JUMPDEST SWAP1 POP DUP2 DUP2 SUB PUSH1 0x80 DUP4 ADD MSTORE PUSH2 0x6499 DUP2 DUP5 PUSH2 0x640E JUMP JUMPDEST SWAP1 POP SWAP7 SWAP6 POP POP POP POP POP POP JUMP JUMPDEST PUSH0 DUP2 SWAP1 POP SWAP2 SWAP1 POP JUMP JUMPDEST PUSH0 PUSH2 0x64C8 PUSH2 0x64C3 PUSH2 0x64BE DUP5 PUSH2 0x64A5 JUMP JUMPDEST PUSH2 0x4D59 JUMP JUMPDEST PUSH2 0x4ECC JUMP JUMPDEST SWAP1 POP SWAP2 SWAP1 POP JUMP JUMPDEST PUSH2 0x64D8 DUP2 PUSH2 0x64AE JUMP JUMPDEST DUP3 MSTORE POP POP JUMP JUMPDEST PUSH0 PUSH1 0x40 DUP3 ADD SWAP1 POP PUSH2 0x64F1 PUSH0 DUP4 ADD DUP6 PUSH2 0x64CF JUMP JUMPDEST PUSH2 0x64FE PUSH1 0x20 DUP4 ADD DUP5 PUSH2 0x4681 JUMP JUMPDEST SWAP4 SWAP3 POP POP POP JUMP JUMPDEST PUSH0 DUP2 MLOAD SWAP1 POP SWAP2 SWAP1 POP JUMP JUMPDEST PUSH0 DUP3 DUP3 MSTORE PUSH1 0x20 DUP3 ADD SWAP1 POP SWAP3 SWAP2 POP POP JUMP JUMPDEST PUSH0 DUP2 SWAP1 POP PUSH1 0x20 DUP3 ADD SWAP1 POP SWAP2 SWAP1 POP JUMP JUMPDEST PUSH0 DUP3 DUP3 MSTORE PUSH1 0x20 DUP3 ADD SWAP1 POP SWAP3 SWAP2 POP POP JUMP JUMPDEST PUSH0 PUSH2 0x6548 DUP3 PUSH2 0x46FE JUMP JUMPDEST PUSH2 0x6552 DUP2 DUP6 PUSH2 0x652E JUMP JUMPDEST SWAP4 POP PUSH2 0x6562 DUP2 DUP6 PUSH1 0x20 DUP7 ADD PUSH2 0x4718 JUMP JUMPDEST PUSH2 0x656B DUP2 PUSH2 0x4726 JUMP JUMPDEST DUP5 ADD SWAP2 POP POP SWAP3 SWAP2 POP POP JUMP JUMPDEST PUSH0 PUSH2 0x6581 DUP4 DUP4 PUSH2 0x653E JUMP JUMPDEST SWAP1 POP SWAP3 SWAP2 POP POP JUMP JUMPDEST PUSH0 PUSH1 0x20 DUP3 ADD SWAP1 POP SWAP2 SWAP1 POP JUMP JUMPDEST PUSH0 PUSH2 0x659F DUP3 PUSH2 0x6505 JUMP JUMPDEST PUSH2 0x65A9 DUP2 DUP6 PUSH2 0x650F JUMP JUMPDEST SWAP4 POP DUP4 PUSH1 0x20 DUP3 MUL DUP6 ADD PUSH2 0x65BB DUP6 PUSH2 0x651F JUMP JUMPDEST DUP1 PUSH0 JUMPDEST DUP6 DUP2 LT ISZERO PUSH2 0x65F6 JUMPI DUP5 DUP5 SUB DUP10 MSTORE DUP2 MLOAD PUSH2 0x65D7 DUP6 DUP3 PUSH2 0x6576 JUMP JUMPDEST SWAP5 POP PUSH2 0x65E2 DUP4 PUSH2 0x6589 JUMP JUMPDEST SWAP3 POP PUSH1 0x20 DUP11 ADD SWAP10 POP POP PUSH1 0x1 DUP2 ADD SWAP1 POP PUSH2 0x65BE JUMP JUMPDEST POP DUP3 SWAP8 POP DUP8 SWAP6 POP POP POP POP POP POP SWAP3 SWAP2 POP POP JUMP JUMPDEST PUSH0 PUSH2 0x120 DUP3 ADD SWAP1 POP PUSH2 0x661C PUSH0 DUP4 ADD DUP13 PUSH2 0x4681 JUMP JUMPDEST PUSH2 0x6629 PUSH1 0x20 DUP4 ADD DUP12 PUSH2 0x47BE JUMP JUMPDEST DUP2 DUP2 SUB PUSH1 0x40 DUP4 ADD MSTORE PUSH2 0x663B DUP2 DUP11 PUSH2 0x5EC0 JUMP JUMPDEST SWAP1 POP DUP2 DUP2 SUB PUSH1 0x60 DUP4 ADD MSTORE PUSH2 0x664F DUP2 DUP10 PUSH2 0x5424 JUMP JUMPDEST SWAP1 POP DUP2 DUP2 SUB PUSH1 0x80 DUP4 ADD MSTORE PUSH2 0x6663 DUP2 DUP9 PUSH2 0x6595 JUMP JUMPDEST SWAP1 POP DUP2 DUP2 SUB PUSH1 0xA0 DUP4 ADD MSTORE PUSH2 0x6677 DUP2 DUP8 PUSH2 0x5FB6 JUMP JUMPDEST SWAP1 POP PUSH2 0x6686 PUSH1 0xC0 DUP4 ADD DUP7 PUSH2 0x4681 JUMP JUMPDEST PUSH2 0x6693 PUSH1 0xE0 DUP4 ADD DUP6 PUSH2 0x4681 JUMP JUMPDEST DUP2 DUP2 SUB PUSH2 0x100 DUP4 ADD MSTORE PUSH2 0x66A6 DUP2 DUP5 PUSH2 0x4736 JUMP JUMPDEST SWAP1 POP SWAP11 SWAP10 POP POP POP POP POP POP POP POP POP POP JUMP JUMPDEST PUSH0 DUP2 SWAP1 POP SWAP2 SWAP1 POP JUMP JUMPDEST PUSH0 PUSH2 0x66D9 PUSH2 0x66D4 PUSH2 0x66CF DUP5 PUSH2 0x66B6 JUMP JUMPDEST PUSH2 0x4D59 JUMP JUMPDEST PUSH2 0x4ECC JUMP JUMPDEST SWAP1 POP SWAP2 SWAP1 POP JUMP JUMPDEST PUSH2 0x66E9 DUP2 PUSH2 0x66BF JUMP JUMPDEST DUP3 MSTORE POP POP JUMP JUMPDEST PUSH0 PUSH1 0x40 DUP3 ADD SWAP1 POP PUSH2 0x6702 PUSH0 DUP4 ADD DUP6 PUSH2 0x66E0 JUMP JUMPDEST PUSH2 0x670F PUSH1 0x20 DUP4 ADD DUP5 PUSH2 0x4681 JUMP JUMPDEST SWAP4 SWAP3 POP POP POP JUMP JUMPDEST PUSH0 PUSH1 0x40 DUP3 ADD SWAP1 POP PUSH2 0x6729 PUSH0 DUP4 ADD DUP6 PUSH2 0x4D31 JUMP JUMPDEST DUP2 DUP2 SUB PUSH1 0x20 DUP4 ADD MSTORE PUSH2 0x673B DUP2 DUP5 PUSH2 0x640E JUMP JUMPDEST SWAP1 POP SWAP4 SWAP3 POP POP POP JUMP JUMPDEST PUSH0 DUP2 MLOAD SWAP1 POP PUSH2 0x6752 DUP2 PUSH2 0x4C4F JUMP JUMPDEST SWAP3 SWAP2 POP POP JUMP JUMPDEST PUSH0 PUSH1 0x20 DUP3 DUP5 SUB SLT ISZERO PUSH2 0x676D JUMPI PUSH2 0x676C PUSH2 0x45BD JUMP JUMPDEST JUMPDEST PUSH0 PUSH2 0x677A DUP5 DUP3 DUP6 ADD PUSH2 0x6744 JUMP JUMPDEST SWAP2 POP POP SWAP3 SWAP2 POP POP JUMP JUMPDEST PUSH0 DUP2 SWAP1 POP SWAP2 SWAP1 POP JUMP JUMPDEST PUSH0 PUSH2 0x67A6 PUSH2 0x67A1 PUSH2 0x679C DUP5 PUSH2 0x6783 JUMP JUMPDEST PUSH2 0x4D59 JUMP JUMPDEST PUSH2 0x4ECC JUMP JUMPDEST SWAP1 POP SWAP2 SWAP1 POP JUMP JUMPDEST PUSH2 0x67B6 DUP2 PUSH2 0x678C JUMP JUMPDEST DUP3 MSTORE POP POP JUMP JUMPDEST PUSH0 PUSH1 0x40 DUP3 ADD SWAP1 POP PUSH2 0x67CF PUSH0 DUP4 ADD DUP6 PUSH2 0x67AD JUMP JUMPDEST PUSH2 0x67DC PUSH1 0x20 DUP4 ADD DUP5 PUSH2 0x4681 JUMP JUMPDEST SWAP4 SWAP3 POP POP POP JUMP JUMPDEST PUSH0 PUSH1 0xA0 DUP3 ADD SWAP1 POP PUSH2 0x67F6 PUSH0 DUP4 ADD DUP9 PUSH2 0x4D31 JUMP JUMPDEST PUSH2 0x6803 PUSH1 0x20 DUP4 ADD DUP8 PUSH2 0x4D31 JUMP JUMPDEST PUSH2 0x6810 PUSH1 0x40 DUP4 ADD DUP7 PUSH2 0x4D31 JUMP JUMPDEST PUSH2 0x681D PUSH1 0x60 DUP4 ADD DUP6 PUSH2 0x4681 JUMP JUMPDEST PUSH2 0x682A PUSH1 0x80 DUP4 ADD DUP5 PUSH2 0x47BE JUMP JUMPDEST SWAP7 SWAP6 POP POP POP POP POP POP JUMP JUMPDEST PUSH0 PUSH1 0x80 DUP3 ADD SWAP1 POP PUSH2 0x6847 PUSH0 DUP4 ADD DUP8 PUSH2 0x4D31 JUMP JUMPDEST PUSH2 0x6854 PUSH1 0x20 DUP4 ADD DUP7 PUSH2 0x5C9C JUMP JUMPDEST PUSH2 0x6861 PUSH1 0x40 DUP4 ADD DUP6 PUSH2 0x4D31 JUMP JUMPDEST PUSH2 0x686E PUSH1 0x60 DUP4 ADD DUP5 PUSH2 0x4D31 JUMP JUMPDEST SWAP6 SWAP5 POP POP POP POP POP JUMP INVALID LOG2 PUSH5 0x6970667358 0x22 SLT KECCAK256 0xD5 DUP10 0x2C 0x4F 0x28 SELFBALANCE TIMESTAMP 0x4B PUSH32 0xDF6674C83D4743497CD14BC6E45B3BFC3C43DD4DF7D3C264736F6C634300081A STOP CALLER "
		},
		"gasEstimates": {
			"creation": {
				"codeDepositCost": "5359400",
				"executionCost": "infinite",
				"totalCost": "infinite"
			},
			"external": {
				"BALLOT_TYPEHASH()": "414",
				"CLOCK_MODE()": "infinite",
				"COUNTING_MODE()": "infinite",
				"EXTENDED_BALLOT_TYPEHASH()": "415",
				"cancel(address[],uint256[],bytes[],bytes32)": "infinite",
				"castVote(uint256,uint8)": "infinite",
				"castVoteBySig(uint256,uint8,address,bytes)": "infinite",
				"castVoteWithReason(uint256,uint8,string)": "infinite",
				"castVoteWithReasonAndParams(uint256,uint8,string,bytes)": "infinite",
				"castVoteWithReasonAndParamsBySig(uint256,uint8,address,string,bytes,bytes)": "infinite",
				"claimRewards()": "infinite",
				"clock()": "infinite",
				"delegateLastSnapshot(address)": "2935",
				"delegateRewards(address)": "2868",
				"eip712Domain()": "infinite",
				"execute(address[],uint256[],bytes[],bytes32)": "infinite",
				"getVotes(address,uint256)": "infinite",
				"getVotesWithParams(address,uint256,bytes)": "infinite",
				"hasVoted(uint256,address)": "3213",
				"hashProposal(address[],uint256[],bytes[],bytes32)": "infinite",
				"lastRewardTime()": "2493",
				"name()": "infinite",
				"nonces(address)": "2919",
				"onERC1155BatchReceived(address,address,uint256[],uint256[],bytes)": "infinite",
				"onERC1155Received(address,address,uint256,uint256,bytes)": "infinite",
				"onERC721Received(address,address,uint256,bytes)": "infinite",
				"paymentToken()": "infinite",
				"proposalDeadline(uint256)": "infinite",
				"proposalEta(uint256)": "infinite",
				"proposalNeedsQueuing(uint256)": "680",
				"proposalProposer(uint256)": "2992",
				"proposalSnapshot(uint256)": "infinite",
				"proposalThreshold()": "457",
				"proposalVotes(uint256)": "infinite",
				"propose(address[],uint256[],bytes[],string)": "infinite",
				"queue(address[],uint256[],bytes[],bytes32)": "infinite",
				"quorum(uint256)": "infinite",
				"quorumDenominator()": "422",
				"quorumNumerator()": "infinite",
				"quorumNumerator(uint256)": "infinite",
				"relay(address,uint256,bytes)": "infinite",
				"rewardInterval()": "2492",
				"setPaymentToken(address)": "infinite",
				"state(uint256)": "infinite",
				"supportsInterface(bytes4)": "810",
				"token()": "infinite",
				"totalSupply()": "infinite",
				"updateQuorumNumerator(uint256)": "infinite",
				"version()": "infinite",
				"votingDelay()": "378",
				"votingPeriod()": "401",
				"withdrawRewards()": "infinite"
			}
		},
		"methodIdentifiers": {
			"BALLOT_TYPEHASH()": "deaaa7cc",
			"CLOCK_MODE()": "4bf5d7e9",
			"COUNTING_MODE()": "dd4e2ba5",
			"EXTENDED_BALLOT_TYPEHASH()": "2fe3e261",
			"cancel(address[],uint256[],bytes[],bytes32)": "452115d6",
			"castVote(uint256,uint8)": "56781388",
			"castVoteBySig(uint256,uint8,address,bytes)": "8ff262e3",
			"castVoteWithReason(uint256,uint8,string)": "7b3c71d3",
			"castVoteWithReasonAndParams(uint256,uint8,string,bytes)": "5f398a14",
			"castVoteWithReasonAndParamsBySig(uint256,uint8,address,string,bytes,bytes)": "5b8d0e0d",
			"claimRewards()": "372500ab",
			"clock()": "91ddadf4",
			"delegateLastSnapshot(address)": "709863e3",
			"delegateRewards(address)": "ec1cc695",
			"eip712Domain()": "84b0196e",
			"execute(address[],uint256[],bytes[],bytes32)": "2656227d",
			"getVotes(address,uint256)": "eb9019d4",
			"getVotesWithParams(address,uint256,bytes)": "9a802a6d",
			"hasVoted(uint256,address)": "43859632",
			"hashProposal(address[],uint256[],bytes[],bytes32)": "c59057e4",
			"lastRewardTime()": "9231cf74",
			"name()": "06fdde03",
			"nonces(address)": "7ecebe00",
			"onERC1155BatchReceived(address,address,uint256[],uint256[],bytes)": "bc197c81",
			"onERC1155Received(address,address,uint256,uint256,bytes)": "f23a6e61",
			"onERC721Received(address,address,uint256,bytes)": "150b7a02",
			"paymentToken()": "3013ce29",
			"proposalDeadline(uint256)": "c01f9e37",
			"proposalEta(uint256)": "ab58fb8e",
			"proposalNeedsQueuing(uint256)": "a9a95294",
			"proposalProposer(uint256)": "143489d0",
			"proposalSnapshot(uint256)": "2d63f693",
			"proposalThreshold()": "b58131b0",
			"proposalVotes(uint256)": "544ffc9c",
			"propose(address[],uint256[],bytes[],string)": "7d5e81e2",
			"queue(address[],uint256[],bytes[],bytes32)": "160cbed7",
			"quorum(uint256)": "f8ce560a",
			"quorumDenominator()": "97c3d334",
			"quorumNumerator()": "a7713a70",
			"quorumNumerator(uint256)": "60c4247f",
			"relay(address,uint256,bytes)": "c28bc2fa",
			"rewardInterval()": "bec4de3f",
			"setPaymentToken(address)": "6a326ab1",
			"state(uint256)": "3e4f49e6",
			"supportsInterface(bytes4)": "01ffc9a7",
			"token()": "fc0c546a",
			"totalSupply()": "18160ddd",
			"updateQuorumNumerator(uint256)": "06f3f9e6",
			"version()": "54fd4d50",
			"votingDelay()": "3932abb1",
			"votingPeriod()": "02a251a3",
			"withdrawRewards()": "c7b8981c"
		}
	},
	"abi": [
		{
			"inputs": [
				{
					"internalType": "contract IVotes",
					"name": "_token",
					"type": "address"
				},
				{
					"internalType": "contract IERC20",
					"name": "_paymentToken",
					"type": "address"
				}
			],
			"stateMutability": "nonpayable",
			"type": "constructor"
		},
		{
			"inputs": [],
			"name": "CheckpointUnorderedInsertion",
			"type": "error"
		},
		{
			"inputs": [],
			"name": "FailedInnerCall",
			"type": "error"
		},
		{
			"inputs": [
				{
					"internalType": "address",
					"name": "voter",
					"type": "address"
				}
			],
			"name": "GovernorAlreadyCastVote",
			"type": "error"
		},
		{
			"inputs": [
				{
					"internalType": "uint256",
					"name": "proposalId",
					"type": "uint256"
				}
			],
			"name": "GovernorAlreadyQueuedProposal",
			"type": "error"
		},
		{
			"inputs": [],
			"name": "GovernorDisabledDeposit",
			"type": "error"
		},
		{
			"inputs": [
				{
					"internalType": "address",
					"name": "proposer",
					"type": "address"
				},
				{
					"internalType": "uint256",
					"name": "votes",
					"type": "uint256"
				},
				{
					"internalType": "uint256",
					"name": "threshold",
					"type": "uint256"
				}
			],
			"name": "GovernorInsufficientProposerVotes",
			"type": "error"
		},
		{
			"inputs": [
				{
					"internalType": "uint256",
					"name": "targets",
					"type": "uint256"
				},
				{
					"internalType": "uint256",
					"name": "calldatas",
					"type": "uint256"
				},
				{
					"internalType": "uint256",
					"name": "values",
					"type": "uint256"
				}
			],
			"name": "GovernorInvalidProposalLength",
			"type": "error"
		},
		{
			"inputs": [
				{
					"internalType": "uint256",
					"name": "quorumNumerator",
					"type": "uint256"
				},
				{
					"internalType": "uint256",
					"name": "quorumDenominator",
					"type": "uint256"
				}
			],
			"name": "GovernorInvalidQuorumFraction",
			"type": "error"
		},
		{
			"inputs": [
				{
					"internalType": "address",
					"name": "voter",
					"type": "address"
				}
			],
			"name": "GovernorInvalidSignature",
			"type": "error"
		},
		{
			"inputs": [],
			"name": "GovernorInvalidVoteType",
			"type": "error"
		},
		{
			"inputs": [
				{
					"internalType": "uint256",
					"name": "votingPeriod",
					"type": "uint256"
				}
			],
			"name": "GovernorInvalidVotingPeriod",
			"type": "error"
		},
		{
			"inputs": [
				{
					"internalType": "uint256",
					"name": "proposalId",
					"type": "uint256"
				}
			],
			"name": "GovernorNonexistentProposal",
			"type": "error"
		},
		{
			"inputs": [
				{
					"internalType": "uint256",
					"name": "proposalId",
					"type": "uint256"
				}
			],
			"name": "GovernorNotQueuedProposal",
			"type": "error"
		},
		{
			"inputs": [
				{
					"internalType": "address",
					"name": "account",
					"type": "address"
				}
			],
			"name": "GovernorOnlyExecutor",
			"type": "error"
		},
		{
			"inputs": [
				{
					"internalType": "address",
					"name": "account",
					"type": "address"
				}
			],
			"name": "GovernorOnlyProposer",
			"type": "error"
		},
		{
			"inputs": [],
			"name": "GovernorQueueNotImplemented",
			"type": "error"
		},
		{
			"inputs": [
				{
					"internalType": "address",
					"name": "proposer",
					"type": "address"
				}
			],
			"name": "GovernorRestrictedProposer",
			"type": "error"
		},
		{
			"inputs": [
				{
					"internalType": "uint256",
					"name": "proposalId",
					"type": "uint256"
				},
				{
					"internalType": "enum IGovernor.ProposalState",
					"name": "current",
					"type": "uint8"
				},
				{
					"internalType": "bytes32",
					"name": "expectedStates",
					"type": "bytes32"
				}
			],
			"name": "GovernorUnexpectedProposalState",
			"type": "error"
		},
		{
			"inputs": [
				{
					"internalType": "address",
					"name": "account",
					"type": "address"
				},
				{
					"internalType": "uint256",
					"name": "currentNonce",
					"type": "uint256"
				}
			],
			"name": "InvalidAccountNonce",
			"type": "error"
		},
		{
			"inputs": [],
			"name": "InvalidShortString",
			"type": "error"
		},
		{
			"inputs": [],
			"name": "QueueEmpty",
			"type": "error"
		},
		{
			"inputs": [],
			"name": "QueueFull",
			"type": "error"
		},
		{
			"inputs": [
				{
					"internalType": "uint8",
					"name": "bits",
					"type": "uint8"
				},
				{
					"internalType": "uint256",
					"name": "value",
					"type": "uint256"
				}
			],
			"name": "SafeCastOverflowedUintDowncast",
			"type": "error"
		},
		{
			"inputs": [
				{
					"internalType": "string",
					"name": "str",
					"type": "string"
				}
			],
			"name": "StringTooLong",
			"type": "error"
		},
		{
			"anonymous": false,
			"inputs": [],
			"name": "EIP712DomainChanged",
			"type": "event"
		},
		{
			"anonymous": false,
			"inputs": [
				{
					"indexed": false,
					"internalType": "uint256",
					"name": "proposalId",
					"type": "uint256"
				}
			],
			"name": "ProposalCanceled",
			"type": "event"
		},
		{
			"anonymous": false,
			"inputs": [
				{
					"indexed": false,
					"internalType": "uint256",
					"name": "proposalId",
					"type": "uint256"
				},
				{
					"indexed": false,
					"internalType": "address",
					"name": "proposer",
					"type": "address"
				},
				{
					"indexed": false,
					"internalType": "address[]",
					"name": "targets",
					"type": "address[]"
				},
				{
					"indexed": false,
					"internalType": "uint256[]",
					"name": "values",
					"type": "uint256[]"
				},
				{
					"indexed": false,
					"internalType": "string[]",
					"name": "signatures",
					"type": "string[]"
				},
				{
					"indexed": false,
					"internalType": "bytes[]",
					"name": "calldatas",
					"type": "bytes[]"
				},
				{
					"indexed": false,
					"internalType": "uint256",
					"name": "voteStart",
					"type": "uint256"
				},
				{
					"indexed": false,
					"internalType": "uint256",
					"name": "voteEnd",
					"type": "uint256"
				},
				{
					"indexed": false,
					"internalType": "string",
					"name": "description",
					"type": "string"
				}
			],
			"name": "ProposalCreated",
			"type": "event"
		},
		{
			"anonymous": false,
			"inputs": [
				{
					"indexed": false,
					"internalType": "uint256",
					"name": "proposalId",
					"type": "uint256"
				}
			],
			"name": "ProposalExecuted",
			"type": "event"
		},
		{
			"anonymous": false,
			"inputs": [
				{
					"indexed": false,
					"internalType": "uint256",
					"name": "proposalId",
					"type": "uint256"
				},
				{
					"indexed": false,
					"internalType": "uint256",
					"name": "etaSeconds",
					"type": "uint256"
				}
			],
			"name": "ProposalQueued",
			"type": "event"
		},
		{
			"anonymous": false,
			"inputs": [
				{
					"indexed": false,
					"internalType": "uint256",
					"name": "oldQuorumNumerator",
					"type": "uint256"
				},
				{
					"indexed": false,
					"internalType": "uint256",
					"name": "newQuorumNumerator",
					"type": "uint256"
				}
			],
			"name": "QuorumNumeratorUpdated",
			"type": "event"
		},
		{
			"anonymous": false,
			"inputs": [
				{
					"indexed": true,
					"internalType": "address",
					"name": "voter",
					"type": "address"
				},
				{
					"indexed": false,
					"internalType": "uint256",
					"name": "proposalId",
					"type": "uint256"
				},
				{
					"indexed": false,
					"internalType": "uint8",
					"name": "support",
					"type": "uint8"
				},
				{
					"indexed": false,
					"internalType": "uint256",
					"name": "weight",
					"type": "uint256"
				},
				{
					"indexed": false,
					"internalType": "string",
					"name": "reason",
					"type": "string"
				}
			],
			"name": "VoteCast",
			"type": "event"
		},
		{
			"anonymous": false,
			"inputs": [
				{
					"indexed": true,
					"internalType": "address",
					"name": "voter",
					"type": "address"
				},
				{
					"indexed": false,
					"internalType": "uint256",
					"name": "proposalId",
					"type": "uint256"
				},
				{
					"indexed": false,
					"internalType": "uint8",
					"name": "support",
					"type": "uint8"
				},
				{
					"indexed": false,
					"internalType": "uint256",
					"name": "weight",
					"type": "uint256"
				},
				{
					"indexed": false,
					"internalType": "string",
					"name": "reason",
					"type": "string"
				},
				{
					"indexed": false,
					"internalType": "bytes",
					"name": "params",
					"type": "bytes"
				}
			],
			"name": "VoteCastWithParams",
			"type": "event"
		},
		{
			"inputs": [],
			"name": "BALLOT_TYPEHASH",
			"outputs": [
				{
					"internalType": "bytes32",
					"name": "",
					"type": "bytes32"
				}
			],
			"stateMutability": "view",
			"type": "function"
		},
		{
			"inputs": [],
			"name": "CLOCK_MODE",
			"outputs": [
				{
					"internalType": "string",
					"name": "",
					"type": "string"
				}
			],
			"stateMutability": "view",
			"type": "function"
		},
		{
			"inputs": [],
			"name": "COUNTING_MODE",
			"outputs": [
				{
					"internalType": "string",
					"name": "",
					"type": "string"
				}
			],
			"stateMutability": "pure",
			"type": "function"
		},
		{
			"inputs": [],
			"name": "EXTENDED_BALLOT_TYPEHASH",
			"outputs": [
				{
					"internalType": "bytes32",
					"name": "",
					"type": "bytes32"
				}
			],
			"stateMutability": "view",
			"type": "function"
		},
		{
			"inputs": [
				{
					"internalType": "address[]",
					"name": "targets",
					"type": "address[]"
				},
				{
					"internalType": "uint256[]",
					"name": "values",
					"type": "uint256[]"
				},
				{
					"internalType": "bytes[]",
					"name": "calldatas",
					"type": "bytes[]"
				},
				{
					"internalType": "bytes32",
					"name": "descriptionHash",
					"type": "bytes32"
				}
			],
			"name": "cancel",
			"outputs": [
				{
					"internalType": "uint256",
					"name": "",
					"type": "uint256"
				}
			],
			"stateMutability": "nonpayable",
			"type": "function"
		},
		{
			"inputs": [
				{
					"internalType": "uint256",
					"name": "proposalId",
					"type": "uint256"
				},
				{
					"internalType": "uint8",
					"name": "support",
					"type": "uint8"
				}
			],
			"name": "castVote",
			"outputs": [
				{
					"internalType": "uint256",
					"name": "",
					"type": "uint256"
				}
			],
			"stateMutability": "nonpayable",
			"type": "function"
		},
		{
			"inputs": [
				{
					"internalType": "uint256",
					"name": "proposalId",
					"type": "uint256"
				},
				{
					"internalType": "uint8",
					"name": "support",
					"type": "uint8"
				},
				{
					"internalType": "address",
					"name": "voter",
					"type": "address"
				},
				{
					"internalType": "bytes",
					"name": "signature",
					"type": "bytes"
				}
			],
			"name": "castVoteBySig",
			"outputs": [
				{
					"internalType": "uint256",
					"name": "",
					"type": "uint256"
				}
			],
			"stateMutability": "nonpayable",
			"type": "function"
		},
		{
			"inputs": [
				{
					"internalType": "uint256",
					"name": "proposalId",
					"type": "uint256"
				},
				{
					"internalType": "uint8",
					"name": "support",
					"type": "uint8"
				},
				{
					"internalType": "string",
					"name": "reason",
					"type": "string"
				}
			],
			"name": "castVoteWithReason",
			"outputs": [
				{
					"internalType": "uint256",
					"name": "",
					"type": "uint256"
				}
			],
			"stateMutability": "nonpayable",
			"type": "function"
		},
		{
			"inputs": [
				{
					"internalType": "uint256",
					"name": "proposalId",
					"type": "uint256"
				},
				{
					"internalType": "uint8",
					"name": "support",
					"type": "uint8"
				},
				{
					"internalType": "string",
					"name": "reason",
					"type": "string"
				},
				{
					"internalType": "bytes",
					"name": "params",
					"type": "bytes"
				}
			],
			"name": "castVoteWithReasonAndParams",
			"outputs": [
				{
					"internalType": "uint256",
					"name": "",
					"type": "uint256"
				}
			],
			"stateMutability": "nonpayable",
			"type": "function"
		},
		{
			"inputs": [
				{
					"internalType": "uint256",
					"name": "proposalId",
					"type": "uint256"
				},
				{
					"internalType": "uint8",
					"name": "support",
					"type": "uint8"
				},
				{
					"internalType": "address",
					"name": "voter",
					"type": "address"
				},
				{
					"internalType": "string",
					"name": "reason",
					"type": "string"
				},
				{
					"internalType": "bytes",
					"name": "params",
					"type": "bytes"
				},
				{
					"internalType": "bytes",
					"name": "signature",
					"type": "bytes"
				}
			],
			"name": "castVoteWithReasonAndParamsBySig",
			"outputs": [
				{
					"internalType": "uint256",
					"name": "",
					"type": "uint256"
				}
			],
			"stateMutability": "nonpayable",
			"type": "function"
		},
		{
			"inputs": [],
			"name": "claimRewards",
			"outputs": [],
			"stateMutability": "nonpayable",
			"type": "function"
		},
		{
			"inputs": [],
			"name": "clock",
			"outputs": [
				{
					"internalType": "uint48",
					"name": "",
					"type": "uint48"
				}
			],
			"stateMutability": "view",
			"type": "function"
		},
		{
			"inputs": [
				{
					"internalType": "address",
					"name": "",
					"type": "address"
				}
			],
			"name": "delegateLastSnapshot",
			"outputs": [
				{
					"internalType": "uint256",
					"name": "",
					"type": "uint256"
				}
			],
			"stateMutability": "view",
			"type": "function"
		},
		{
			"inputs": [
				{
					"internalType": "address",
					"name": "",
					"type": "address"
				}
			],
			"name": "delegateRewards",
			"outputs": [
				{
					"internalType": "uint256",
					"name": "",
					"type": "uint256"
				}
			],
			"stateMutability": "view",
			"type": "function"
		},
		{
			"inputs": [],
			"name": "eip712Domain",
			"outputs": [
				{
					"internalType": "bytes1",
					"name": "fields",
					"type": "bytes1"
				},
				{
					"internalType": "string",
					"name": "name",
					"type": "string"
				},
				{
					"internalType": "string",
					"name": "version",
					"type": "string"
				},
				{
					"internalType": "uint256",
					"name": "chainId",
					"type": "uint256"
				},
				{
					"internalType": "address",
					"name": "verifyingContract",
					"type": "address"
				},
				{
					"internalType": "bytes32",
					"name": "salt",
					"type": "bytes32"
				},
				{
					"internalType": "uint256[]",
					"name": "extensions",
					"type": "uint256[]"
				}
			],
			"stateMutability": "view",
			"type": "function"
		},
		{
			"inputs": [
				{
					"internalType": "address[]",
					"name": "targets",
					"type": "address[]"
				},
				{
					"internalType": "uint256[]",
					"name": "values",
					"type": "uint256[]"
				},
				{
					"internalType": "bytes[]",
					"name": "calldatas",
					"type": "bytes[]"
				},
				{
					"internalType": "bytes32",
					"name": "descriptionHash",
					"type": "bytes32"
				}
			],
			"name": "execute",
			"outputs": [
				{
					"internalType": "uint256",
					"name": "",
					"type": "uint256"
				}
			],
			"stateMutability": "payable",
			"type": "function"
		},
		{
			"inputs": [
				{
					"internalType": "address",
					"name": "account",
					"type": "address"
				},
				{
					"internalType": "uint256",
					"name": "timepoint",
					"type": "uint256"
				}
			],
			"name": "getVotes",
			"outputs": [
				{
					"internalType": "uint256",
					"name": "",
					"type": "uint256"
				}
			],
			"stateMutability": "view",
			"type": "function"
		},
		{
			"inputs": [
				{
					"internalType": "address",
					"name": "account",
					"type": "address"
				},
				{
					"internalType": "uint256",
					"name": "timepoint",
					"type": "uint256"
				},
				{
					"internalType": "bytes",
					"name": "params",
					"type": "bytes"
				}
			],
			"name": "getVotesWithParams",
			"outputs": [
				{
					"internalType": "uint256",
					"name": "",
					"type": "uint256"
				}
			],
			"stateMutability": "view",
			"type": "function"
		},
		{
			"inputs": [
				{
					"internalType": "uint256",
					"name": "proposalId",
					"type": "uint256"
				},
				{
					"internalType": "address",
					"name": "account",
					"type": "address"
				}
			],
			"name": "hasVoted",
			"outputs": [
				{
					"internalType": "bool",
					"name": "",
					"type": "bool"
				}
			],
			"stateMutability": "view",
			"type": "function"
		},
		{
			"inputs": [
				{
					"internalType": "address[]",
					"name": "targets",
					"type": "address[]"
				},
				{
					"internalType": "uint256[]",
					"name": "values",
					"type": "uint256[]"
				},
				{
					"internalType": "bytes[]",
					"name": "calldatas",
					"type": "bytes[]"
				},
				{
					"internalType": "bytes32",
					"name": "descriptionHash",
					"type": "bytes32"
				}
			],
			"name": "hashProposal",
			"outputs": [
				{
					"internalType": "uint256",
					"name": "",
					"type": "uint256"
				}
			],
			"stateMutability": "pure",
			"type": "function"
		},
		{
			"inputs": [],
			"name": "lastRewardTime",
			"outputs": [
				{
					"internalType": "uint256",
					"name": "",
					"type": "uint256"
				}
			],
			"stateMutability": "view",
			"type": "function"
		},
		{
			"inputs": [],
			"name": "name",
			"outputs": [
				{
					"internalType": "string",
					"name": "",
					"type": "string"
				}
			],
			"stateMutability": "view",
			"type": "function"
		},
		{
			"inputs": [
				{
					"internalType": "address",
					"name": "owner",
					"type": "address"
				}
			],
			"name": "nonces",
			"outputs": [
				{
					"internalType": "uint256",
					"name": "",
					"type": "uint256"
				}
			],
			"stateMutability": "view",
			"type": "function"
		},
		{
			"inputs": [
				{
					"internalType": "address",
					"name": "",
					"type": "address"
				},
				{
					"internalType": "address",
					"name": "",
					"type": "address"
				},
				{
					"internalType": "uint256[]",
					"name": "",
					"type": "uint256[]"
				},
				{
					"internalType": "uint256[]",
					"name": "",
					"type": "uint256[]"
				},
				{
					"internalType": "bytes",
					"name": "",
					"type": "bytes"
				}
			],
			"name": "onERC1155BatchReceived",
			"outputs": [
				{
					"internalType": "bytes4",
					"name": "",
					"type": "bytes4"
				}
			],
			"stateMutability": "nonpayable",
			"type": "function"
		},
		{
			"inputs": [
				{
					"internalType": "address",
					"name": "",
					"type": "address"
				},
				{
					"internalType": "address",
					"name": "",
					"type": "address"
				},
				{
					"internalType": "uint256",
					"name": "",
					"type": "uint256"
				},
				{
					"internalType": "uint256",
					"name": "",
					"type": "uint256"
				},
				{
					"internalType": "bytes",
					"name": "",
					"type": "bytes"
				}
			],
			"name": "onERC1155Received",
			"outputs": [
				{
					"internalType": "bytes4",
					"name": "",
					"type": "bytes4"
				}
			],
			"stateMutability": "nonpayable",
			"type": "function"
		},
		{
			"inputs": [
				{
					"internalType": "address",
					"name": "",
					"type": "address"
				},
				{
					"internalType": "address",
					"name": "",
					"type": "address"
				},
				{
					"internalType": "uint256",
					"name": "",
					"type": "uint256"
				},
				{
					"internalType": "bytes",
					"name": "",
					"type": "bytes"
				}
			],
			"name": "onERC721Received",
			"outputs": [
				{
					"internalType": "bytes4",
					"name": "",
					"type": "bytes4"
				}
			],
			"stateMutability": "nonpayable",
			"type": "function"
		},
		{
			"inputs": [],
			"name": "paymentToken",
			"outputs": [
				{
					"internalType": "contract IERC20",
					"name": "",
					"type": "address"
				}
			],
			"stateMutability": "view",
			"type": "function"
		},
		{
			"inputs": [
				{
					"internalType": "uint256",
					"name": "proposalId",
					"type": "uint256"
				}
			],
			"name": "proposalDeadline",
			"outputs": [
				{
					"internalType": "uint256",
					"name": "",
					"type": "uint256"
				}
			],
			"stateMutability": "view",
			"type": "function"
		},
		{
			"inputs": [
				{
					"internalType": "uint256",
					"name": "proposalId",
					"type": "uint256"
				}
			],
			"name": "proposalEta",
			"outputs": [
				{
					"internalType": "uint256",
					"name": "",
					"type": "uint256"
				}
			],
			"stateMutability": "view",
			"type": "function"
		},
		{
			"inputs": [
				{
					"internalType": "uint256",
					"name": "",
					"type": "uint256"
				}
			],
			"name": "proposalNeedsQueuing",
			"outputs": [
				{
					"internalType": "bool",
					"name": "",
					"type": "bool"
				}
			],
			"stateMutability": "view",
			"type": "function"
		},
		{
			"inputs": [
				{
					"internalType": "uint256",
					"name": "proposalId",
					"type": "uint256"
				}
			],
			"name": "proposalProposer",
			"outputs": [
				{
					"internalType": "address",
					"name": "",
					"type": "address"
				}
			],
			"stateMutability": "view",
			"type": "function"
		},
		{
			"inputs": [
				{
					"internalType": "uint256",
					"name": "proposalId",
					"type": "uint256"
				}
			],
			"name": "proposalSnapshot",
			"outputs": [
				{
					"internalType": "uint256",
					"name": "",
					"type": "uint256"
				}
			],
			"stateMutability": "view",
			"type": "function"
		},
		{
			"inputs": [],
			"name": "proposalThreshold",
			"outputs": [
				{
					"internalType": "uint256",
					"name": "",
					"type": "uint256"
				}
			],
			"stateMutability": "pure",
			"type": "function"
		},
		{
			"inputs": [
				{
					"internalType": "uint256",
					"name": "proposalId",
					"type": "uint256"
				}
			],
			"name": "proposalVotes",
			"outputs": [
				{
					"internalType": "uint256",
					"name": "againstVotes",
					"type": "uint256"
				},
				{
					"internalType": "uint256",
					"name": "forVotes",
					"type": "uint256"
				},
				{
					"internalType": "uint256",
					"name": "abstainVotes",
					"type": "uint256"
				}
			],
			"stateMutability": "view",
			"type": "function"
		},
		{
			"inputs": [
				{
					"internalType": "address[]",
					"name": "targets",
					"type": "address[]"
				},
				{
					"internalType": "uint256[]",
					"name": "values",
					"type": "uint256[]"
				},
				{
					"internalType": "bytes[]",
					"name": "calldatas",
					"type": "bytes[]"
				},
				{
					"internalType": "string",
					"name": "description",
					"type": "string"
				}
			],
			"name": "propose",
			"outputs": [
				{
					"internalType": "uint256",
					"name": "",
					"type": "uint256"
				}
			],
			"stateMutability": "nonpayable",
			"type": "function"
		},
		{
			"inputs": [
				{
					"internalType": "address[]",
					"name": "targets",
					"type": "address[]"
				},
				{
					"internalType": "uint256[]",
					"name": "values",
					"type": "uint256[]"
				},
				{
					"internalType": "bytes[]",
					"name": "calldatas",
					"type": "bytes[]"
				},
				{
					"internalType": "bytes32",
					"name": "descriptionHash",
					"type": "bytes32"
				}
			],
			"name": "queue",
			"outputs": [
				{
					"internalType": "uint256",
					"name": "",
					"type": "uint256"
				}
			],
			"stateMutability": "nonpayable",
			"type": "function"
		},
		{
			"inputs": [
				{
					"internalType": "uint256",
					"name": "timepoint",
					"type": "uint256"
				}
			],
			"name": "quorum",
			"outputs": [
				{
					"internalType": "uint256",
					"name": "",
					"type": "uint256"
				}
			],
			"stateMutability": "view",
			"type": "function"
		},
		{
			"inputs": [],
			"name": "quorumDenominator",
			"outputs": [
				{
					"internalType": "uint256",
					"name": "",
					"type": "uint256"
				}
			],
			"stateMutability": "view",
			"type": "function"
		},
		{
			"inputs": [
				{
					"internalType": "uint256",
					"name": "timepoint",
					"type": "uint256"
				}
			],
			"name": "quorumNumerator",
			"outputs": [
				{
					"internalType": "uint256",
					"name": "",
					"type": "uint256"
				}
			],
			"stateMutability": "view",
			"type": "function"
		},
		{
			"inputs": [],
			"name": "quorumNumerator",
			"outputs": [
				{
					"internalType": "uint256",
					"name": "",
					"type": "uint256"
				}
			],
			"stateMutability": "view",
			"type": "function"
		},
		{
			"inputs": [
				{
					"internalType": "address",
					"name": "target",
					"type": "address"
				},
				{
					"internalType": "uint256",
					"name": "value",
					"type": "uint256"
				},
				{
					"internalType": "bytes",
					"name": "data",
					"type": "bytes"
				}
			],
			"name": "relay",
			"outputs": [],
			"stateMutability": "payable",
			"type": "function"
		},
		{
			"inputs": [],
			"name": "rewardInterval",
			"outputs": [
				{
					"internalType": "uint256",
					"name": "",
					"type": "uint256"
				}
			],
			"stateMutability": "view",
			"type": "function"
		},
		{
			"inputs": [
				{
					"internalType": "contract IERC20",
					"name": "_newPaymentToken",
					"type": "address"
				}
			],
			"name": "setPaymentToken",
			"outputs": [],
			"stateMutability": "nonpayable",
			"type": "function"
		},
		{
			"inputs": [
				{
					"internalType": "uint256",
					"name": "proposalId",
					"type": "uint256"
				}
			],
			"name": "state",
			"outputs": [
				{
					"internalType": "enum IGovernor.ProposalState",
					"name": "",
					"type": "uint8"
				}
			],
			"stateMutability": "view",
			"type": "function"
		},
		{
			"inputs": [
				{
					"internalType": "bytes4",
					"name": "interfaceId",
					"type": "bytes4"
				}
			],
			"name": "supportsInterface",
			"outputs": [
				{
					"internalType": "bool",
					"name": "",
					"type": "bool"
				}
			],
			"stateMutability": "view",
			"type": "function"
		},
		{
			"inputs": [],
			"name": "token",
			"outputs": [
				{
					"internalType": "contract IERC5805",
					"name": "",
					"type": "address"
				}
			],
			"stateMutability": "view",
			"type": "function"
		},
		{
			"inputs": [],
			"name": "totalSupply",
			"outputs": [
				{
					"internalType": "uint256",
					"name": "",
					"type": "uint256"
				}
			],
			"stateMutability": "view",
			"type": "function"
		},
		{
			"inputs": [
				{
					"internalType": "uint256",
					"name": "newQuorumNumerator",
					"type": "uint256"
				}
			],
			"name": "updateQuorumNumerator",
			"outputs": [],
			"stateMutability": "nonpayable",
			"type": "function"
		},
		{
			"inputs": [],
			"name": "version",
			"outputs": [
				{
					"internalType": "string",
					"name": "",
					"type": "string"
				}
			],
			"stateMutability": "view",
			"type": "function"
		},
		{
			"inputs": [],
			"name": "votingDelay",
			"outputs": [
				{
					"internalType": "uint256",
					"name": "",
					"type": "uint256"
				}
			],
			"stateMutability": "pure",
			"type": "function"
		},
		{
			"inputs": [],
			"name": "votingPeriod",
			"outputs": [
				{
					"internalType": "uint256",
					"name": "",
					"type": "uint256"
				}
			],
			"stateMutability": "pure",
			"type": "function"
		},
		{
			"inputs": [],
			"name": "withdrawRewards",
			"outputs": [],
			"stateMutability": "nonpayable",
			"type": "function"
		},
		{
			"stateMutability": "payable",
			"type": "receive"
		}
	]
}