{
	"data": {
		"bytecode": {
			"linkReferences": {},
			"object": "608060405234801561000f575f80fd5b50611f198061001d5f395ff3fe608060405234801561000f575f80fd5b5060043610610034575f3560e01c80631ecbdf6314610038578063ec6bed0b14610067575b5f80fd5b61004b61004636600461013a565b61007a565b6040516001600160a01b03909116815260200160405180910390f35b61004b610075366004610151565b6100a1565b5f8181548110610088575f80fd5b5f918252602090912001546001600160a01b0316905081565b5f6060805f808383876040516100b69061012d565b6100c394939291906101c1565b604051809103905ff0801580156100dc573d5f803e3d5ffd5b505f80546001810182559080527f290decd9548b62a8d60345a988386fc84ba6bc95484008f6362f93160ef3e5630180546001600160a01b0319166001600160a01b03831617905595945050505050565b611cde8061020683390190565b5f6020828403121561014a575f80fd5b5035919050565b5f60208284031215610161575f80fd5b81356001600160a01b0381168114610177575f80fd5b9392505050565b5f815180845260208085019450602084015f5b838110156101b65781516001600160a01b031687529582019590820190600101610191565b509495945050505050565b848152608060208201525f6101d9608083018661017e565b82810360408401526101eb818661017e565b91505060018060a01b03831660608301529594505050505056fe608060405234801562000010575f80fd5b5060405162001cde38038062001cde833981016040819052620000339162000320565b6200003f5f3062000197565b506001600160a01b038116156200005e576200005c5f8262000197565b505b5f5b8351811015620000fd57620000b87fb09aa5aeb3702cfd50b6b62bc4532604938f21248a27a1d5ca736082b6819cc1858381518110620000a457620000a4620003a2565b60200260200101516200019760201b60201c565b50620000f37ffd643c72710c63c0180259aba6b2d05451e3591a24e58b62239378085726f783858381518110620000a457620000a4620003a2565b5060010162000060565b505f5b82518110156200014e57620001447fd8aa0f3194971a2a116679f7c2090f6939c8d4e01a2a8d7e41d55e5351469e63848381518110620000a457620000a4620003a2565b5060010162000100565b506002849055604080515f8152602081018690527f11c24f4ead16507c69ac467fbd5e4eed5fb5c699626d2cc6d66421df253886d5910160405180910390a150505050620003b6565b5f828152602081815260408083206001600160a01b038516845290915281205460ff166200023a575f838152602081815260408083206001600160a01b03861684529091529020805460ff19166001179055620001f13390565b6001600160a01b0316826001600160a01b0316847f2f8788117e7eff1d82e926ec794901d17c78024a50270940304540a733656f0d60405160405180910390a45060016200023d565b505f5b92915050565b634e487b7160e01b5f52604160045260245ffd5b80516001600160a01b03811681146200026e575f80fd5b919050565b5f82601f83011262000283575f80fd5b815160206001600160401b0380831115620002a257620002a262000243565b8260051b604051601f19603f83011681018181108482111715620002ca57620002ca62000243565b6040529384526020818701810194908101925087851115620002ea575f80fd5b6020870191505b848210156200031557620003058262000257565b83529183019190830190620002f1565b979650505050505050565b5f805f806080858703121562000334575f80fd5b845160208601519094506001600160401b038082111562000353575f80fd5b620003618883890162000273565b9450604087015191508082111562000377575f80fd5b50620003868782880162000273565b925050620003976060860162000257565b905092959194509250565b634e487b7160e01b5f52603260045260245ffd5b61191a80620003c45f395ff3fe608060405260043610610176575f3560e01c80638065657f116100c9578063bc197c8111610078578063bc197c811461046f578063c4d252f51461049a578063d45c4435146104b9578063d547741f146104e4578063e38335e514610503578063f23a6e6114610516578063f27a0c9214610541575f80fd5b80638065657f1461038d5780638f2a0bb0146103ac5780638f61f4f5146103cb57806391d14854146103eb578063a217fddf1461040a578063b08e51c01461041d578063b1c5f42714610450575f80fd5b80632ab0f529116101255780632ab0f529146102a75780632f2ff15d146102c657806331d50750146102e557806336568abe14610304578063584b153e1461032357806364d62353146103425780637958004c14610361575f80fd5b806301d5062a1461018157806301ffc9a7146101a257806307bd0265146101d6578063134008d31461020457806313bc9f2014610217578063150b7a0214610236578063248a9ca314610279575f80fd5b3661017d57005b5f80fd5b34801561018c575f80fd5b506101a061019b3660046110b5565b610555565b005b3480156101ad575f80fd5b506101c16101bc366004611123565b610616565b60405190151581526020015b60405180910390f35b3480156101e1575f80fd5b506101f65f805160206118c583398151915281565b6040519081526020016101cd565b6101a061021236600461114a565b610626565b348015610222575f80fd5b506101c16102313660046111b0565b6106c5565b348015610241575f80fd5b50610260610250366004611276565b630a85bd0160e11b949350505050565b6040516001600160e01b031990911681526020016101cd565b348015610284575f80fd5b506101f66102933660046111b0565b5f9081526020819052604090206001015490565b3480156102b2575f80fd5b506101c16102c13660046111b0565b6106ea565b3480156102d1575f80fd5b506101a06102e03660046112d9565b6106f2565b3480156102f0575f80fd5b506101c16102ff3660046111b0565b61071c565b34801561030f575f80fd5b506101a061031e3660046112d9565b610740565b34801561032e575f80fd5b506101c161033d3660046111b0565b610778565b34801561034d575f80fd5b506101a061035c3660046111b0565b6107bd565b34801561036c575f80fd5b5061038061037b3660046111b0565b610830565b6040516101cd9190611317565b348015610398575f80fd5b506101f66103a736600461114a565b610878565b3480156103b7575f80fd5b506101a06103c636600461137d565b6108b6565b3480156103d6575f80fd5b506101f65f805160206118a583398151915281565b3480156103f6575f80fd5b506101c16104053660046112d9565b610a2f565b348015610415575f80fd5b506101f65f81565b348015610428575f80fd5b506101f67ffd643c72710c63c0180259aba6b2d05451e3591a24e58b62239378085726f78381565b34801561045b575f80fd5b506101f661046a366004611425565b610a57565b34801561047a575f80fd5b50610260610489366004611541565b63bc197c8160e01b95945050505050565b3480156104a5575f80fd5b506101a06104b43660046111b0565b610a9b565b3480156104c4575f80fd5b506101f66104d33660046111b0565b5f9081526001602052604090205490565b3480156104ef575f80fd5b506101a06104fe3660046112d9565b610b45565b6101a0610511366004611425565b610b69565b348015610521575f80fd5b506102606105303660046115e3565b63f23a6e6160e01b95945050505050565b34801561054c575f80fd5b506002546101f6565b5f805160206118a583398151915261056c81610cd7565b5f61057b898989898989610878565b90506105878184610ce4565b5f817f4cf4410cc57040e44862ef0f45f3dd5a5e02db8eb8add648d4b0e236f1d07dca8b8b8b8b8b8a6040516105c29695949392919061166a565b60405180910390a3831561060b57807f20fda5fd27a1ea7bf5b9567f143ac5470bb059374a27e8f67cb44f946f6d03878560405161060291815260200190565b60405180910390a25b505050505050505050565b5f61062082610d75565b92915050565b5f805160206118c583398151915261063e815f610a2f565b61064c5761064c8133610d99565b5f61065b888888888888610878565b90506106678185610dd6565b61067388888888610e24565b5f817fc2617efa69bab66782fa219543714338489c4e9e178271560a91b82c3f612b588a8a8a8a6040516106aa94939291906116a6565b60405180910390a36106bb81610e98565b5050505050505050565b5f60025b6106d283610830565b60038111156106e3576106e3611303565b1492915050565b5f60036106c9565b5f8281526020819052604090206001015461070c81610cd7565b6107168383610ec3565b50505050565b5f8061072783610830565b600381111561073857610738611303565b141592915050565b6001600160a01b03811633146107695760405163334bd91960e11b815260040160405180910390fd5b6107738282610f52565b505050565b5f8061078383610830565b9050600181600381111561079957610799611303565b14806107b6575060028160038111156107b4576107b4611303565b145b9392505050565b333081146107ee5760405163e2850c5960e01b81526001600160a01b03821660048201526024015b60405180910390fd5b60025460408051918252602082018490527f11c24f4ead16507c69ac467fbd5e4eed5fb5c699626d2cc6d66421df253886d5910160405180910390a150600255565b5f81815260016020526040812054805f0361084d57505f92915050565b6001810361085e5750600392915050565b4281111561086f5750600192915050565b50600292915050565b5f8686868686866040516020016108949695949392919061166a565b6040516020818303038152906040528051906020012090509695505050505050565b5f805160206118a58339815191526108cd81610cd7565b88871415806108dc5750888514155b1561090e576040516001624fcdef60e01b03198152600481018a905260248101869052604481018890526064016107e5565b5f61091f8b8b8b8b8b8b8b8b610a57565b905061092b8184610ce4565b5f5b8a8110156109e05780827f4cf4410cc57040e44862ef0f45f3dd5a5e02db8eb8add648d4b0e236f1d07dca8e8e8581811061096a5761096a6116d7565b905060200201602081019061097f91906116eb565b8d8d86818110610991576109916116d7565b905060200201358c8c878181106109aa576109aa6116d7565b90506020028101906109bc9190611704565b8c8b6040516109d09695949392919061166a565b60405180910390a360010161092d565b508315610a2257807f20fda5fd27a1ea7bf5b9567f143ac5470bb059374a27e8f67cb44f946f6d038785604051610a1991815260200190565b60405180910390a25b5050505050505050505050565b5f918252602082815260408084206001600160a01b0393909316845291905290205460ff1690565b5f8888888888888888604051602001610a779897969594939291906117d7565b60405160208183030381529060405280519060200120905098975050505050505050565b7ffd643c72710c63c0180259aba6b2d05451e3591a24e58b62239378085726f783610ac581610cd7565b610ace82610778565b610b0a5781610add6002610fbb565b610ae76001610fbb565b604051635ead8eb560e01b815260048101939093521760248201526044016107e5565b5f828152600160205260408082208290555183917fbaa1eb22f2a492ba1a5fea61b8df4d27c6c8b5f3971e63bb58fa14ff72eedb7091a25050565b5f82815260208190526040902060010154610b5f81610cd7565b6107168383610f52565b5f805160206118c5833981519152610b81815f610a2f565b610b8f57610b8f8133610d99565b8786141580610b9e5750878414155b15610bd0576040516001624fcdef60e01b031981526004810189905260248101859052604481018790526064016107e5565b5f610be18a8a8a8a8a8a8a8a610a57565b9050610bed8185610dd6565b5f5b89811015610cc1575f8b8b83818110610c0a57610c0a6116d7565b9050602002016020810190610c1f91906116eb565b90505f8a8a84818110610c3457610c346116d7565b905060200201359050365f8a8a86818110610c5157610c516116d7565b9050602002810190610c639190611704565b91509150610c7384848484610e24565b84867fc2617efa69bab66782fa219543714338489c4e9e178271560a91b82c3f612b5886868686604051610caa94939291906116a6565b60405180910390a350505050806001019050610bef565b50610ccb81610e98565b50505050505050505050565b610ce18133610d99565b50565b610ced8261071c565b15610d1e5781610cfc5f610fbb565b604051635ead8eb560e01b8152600481019290925260248201526044016107e5565b5f610d2860025490565b905080821015610d5557604051635433660960e01b815260048101839052602481018290526044016107e5565b610d5f8242611876565b5f93845260016020526040909320929092555050565b5f6001600160e01b03198216630271189760e51b1480610620575061062082610fdd565b610da38282610a2f565b610dd25760405163e2517d3f60e01b81526001600160a01b0382166004820152602481018390526044016107e5565b5050565b610ddf826106c5565b610dee5781610cfc6002610fbb565b8015801590610e035750610e01816106ea565b155b15610dd25760405163121534c360e31b8152600481018290526024016107e5565b5f80856001600160a01b0316858585604051610e41929190611895565b5f6040518083038185875af1925050503d805f8114610e7b576040519150601f19603f3d011682016040523d82523d5f602084013e610e80565b606091505b5091509150610e8f8282611011565b50505050505050565b610ea1816106c5565b610eb05780610cfc6002610fbb565b5f90815260016020819052604090912055565b5f610ece8383610a2f565b610f4b575f838152602081815260408083206001600160a01b03861684529091529020805460ff19166001179055610f033390565b6001600160a01b0316826001600160a01b0316847f2f8788117e7eff1d82e926ec794901d17c78024a50270940304540a733656f0d60405160405180910390a4506001610620565b505f610620565b5f610f5d8383610a2f565b15610f4b575f838152602081815260408083206001600160a01b0386168085529252808320805460ff1916905551339286917ff6391f5c32d9c69d2a47ea670b442974b53935d1edc7fd64eb21e047a839171b9190a4506001610620565b5f816003811115610fce57610fce611303565b600160ff919091161b92915050565b5f6001600160e01b03198216637965db0b60e01b148061062057506301ffc9a760e01b6001600160e01b0319831614610620565b606082611026576110218261102d565b610620565b5080610620565b80511561103d5780518082602001fd5b604051630a12f52160e11b815260040160405180910390fd5b80356001600160a01b038116811461106c575f80fd5b919050565b5f8083601f840112611081575f80fd5b5081356001600160401b03811115611097575f80fd5b6020830191508360208285010111156110ae575f80fd5b9250929050565b5f805f805f805f60c0888a0312156110cb575f80fd5b6110d488611056565b96506020880135955060408801356001600160401b038111156110f5575f80fd5b6111018a828b01611071565b989b979a50986060810135976080820135975060a09091013595509350505050565b5f60208284031215611133575f80fd5b81356001600160e01b0319811681146107b6575f80fd5b5f805f805f8060a0878903121561115f575f80fd5b61116887611056565b95506020870135945060408701356001600160401b03811115611189575f80fd5b61119589828a01611071565b979a9699509760608101359660809091013595509350505050565b5f602082840312156111c0575f80fd5b5035919050565b634e487b7160e01b5f52604160045260245ffd5b604051601f8201601f191681016001600160401b0381118282101715611203576112036111c7565b604052919050565b5f82601f83011261121a575f80fd5b81356001600160401b03811115611233576112336111c7565b611246601f8201601f19166020016111db565b81815284602083860101111561125a575f80fd5b816020850160208301375f918101602001919091529392505050565b5f805f8060808587031215611289575f80fd5b61129285611056565b93506112a060208601611056565b92506040850135915060608501356001600160401b038111156112c1575f80fd5b6112cd8782880161120b565b91505092959194509250565b5f80604083850312156112ea575f80fd5b823591506112fa60208401611056565b90509250929050565b634e487b7160e01b5f52602160045260245ffd5b602081016004831061133757634e487b7160e01b5f52602160045260245ffd5b91905290565b5f8083601f84011261134d575f80fd5b5081356001600160401b03811115611363575f80fd5b6020830191508360208260051b85010111156110ae575f80fd5b5f805f805f805f805f60c08a8c031215611395575f80fd5b89356001600160401b03808211156113ab575f80fd5b6113b78d838e0161133d565b909b50995060208c01359150808211156113cf575f80fd5b6113db8d838e0161133d565b909950975060408c01359150808211156113f3575f80fd5b506114008c828d0161133d565b9a9d999c50979a969997986060880135976080810135975060a0013595509350505050565b5f805f805f805f8060a0898b03121561143c575f80fd5b88356001600160401b0380821115611452575f80fd5b61145e8c838d0161133d565b909a50985060208b0135915080821115611476575f80fd5b6114828c838d0161133d565b909850965060408b013591508082111561149a575f80fd5b506114a78b828c0161133d565b999c989b509699959896976060870135966080013595509350505050565b5f82601f8301126114d4575f80fd5b813560206001600160401b038211156114ef576114ef6111c7565b8160051b6114fe8282016111db565b9283528481018201928281019087851115611517575f80fd5b83870192505b848310156115365782358252918301919083019061151d565b979650505050505050565b5f805f805f60a08688031215611555575f80fd5b61155e86611056565b945061156c60208701611056565b935060408601356001600160401b0380821115611587575f80fd5b61159389838a016114c5565b945060608801359150808211156115a8575f80fd5b6115b489838a016114c5565b935060808801359150808211156115c9575f80fd5b506115d68882890161120b565b9150509295509295909350565b5f805f805f60a086880312156115f7575f80fd5b61160086611056565b945061160e60208701611056565b9350604086013592506060860135915060808601356001600160401b03811115611636575f80fd5b6115d68882890161120b565b81835281816020850137505f828201602090810191909152601f909101601f19169091010190565b60018060a01b038716815285602082015260a060408201525f61169160a083018688611642565b60608301949094525060800152949350505050565b60018060a01b0385168152836020820152606060408201525f6116cd606083018486611642565b9695505050505050565b634e487b7160e01b5f52603260045260245ffd5b5f602082840312156116fb575f80fd5b6107b682611056565b5f808335601e19843603018112611719575f80fd5b8301803591506001600160401b03821115611732575f80fd5b6020019150368190038213156110ae575f80fd5b5f838385526020808601955060208560051b830101845f5b878110156117ca57848303601f19018952813536889003601e19018112611783575f80fd5b870184810190356001600160401b0381111561179d575f80fd5b8036038213156117ab575f80fd5b6117b6858284611642565b9a86019a945050509083019060010161175e565b5090979650505050505050565b60a080825281018890525f8960c08301825b8b811015611817576001600160a01b0361180284611056565b168252602092830192909101906001016117e9565b5083810360208501528881526001600160fb1b03891115611836575f80fd5b8860051b9150818a6020830137018281036020908101604085015261185e9082018789611746565b60608401959095525050608001529695505050505050565b8082018082111561062057634e487b7160e01b5f52601160045260245ffd5b818382375f910190815291905056feb09aa5aeb3702cfd50b6b62bc4532604938f21248a27a1d5ca736082b6819cc1d8aa0f3194971a2a116679f7c2090f6939c8d4e01a2a8d7e41d55e5351469e63a264697066735822122002c0ac6341cbf77279a38896fd642374ac5906f723978dc38f528751912883d564736f6c63430008180033a2646970667358221220c29f6c760fa3d651cc11dfc881ab37e5c0207b1a839a2f9a812f03d8cc5800ad64736f6c63430008180033",
			"opcodes": "PUSH1 0x80 PUSH1 0x40 MSTORE CALLVALUE DUP1 ISZERO PUSH2 0xF JUMPI PUSH0 DUP1 REVERT JUMPDEST POP PUSH2 0x1F19 DUP1 PUSH2 0x1D PUSH0 CODECOPY PUSH0 RETURN INVALID PUSH1 0x80 PUSH1 0x40 MSTORE CALLVALUE DUP1 ISZERO PUSH2 0xF JUMPI PUSH0 DUP1 REVERT JUMPDEST POP PUSH1 0x4 CALLDATASIZE LT PUSH2 0x34 JUMPI PUSH0 CALLDATALOAD PUSH1 0xE0 SHR DUP1 PUSH4 0x1ECBDF63 EQ PUSH2 0x38 JUMPI DUP1 PUSH4 0xEC6BED0B EQ PUSH2 0x67 JUMPI JUMPDEST PUSH0 DUP1 REVERT JUMPDEST PUSH2 0x4B PUSH2 0x46 CALLDATASIZE PUSH1 0x4 PUSH2 0x13A JUMP JUMPDEST PUSH2 0x7A JUMP JUMPDEST PUSH1 0x40 MLOAD PUSH1 0x1 PUSH1 0x1 PUSH1 0xA0 SHL SUB SWAP1 SWAP2 AND DUP2 MSTORE PUSH1 0x20 ADD PUSH1 0x40 MLOAD DUP1 SWAP2 SUB SWAP1 RETURN JUMPDEST PUSH2 0x4B PUSH2 0x75 CALLDATASIZE PUSH1 0x4 PUSH2 0x151 JUMP JUMPDEST PUSH2 0xA1 JUMP JUMPDEST PUSH0 DUP2 DUP2 SLOAD DUP2 LT PUSH2 0x88 JUMPI PUSH0 DUP1 REVERT JUMPDEST PUSH0 SWAP2 DUP3 MSTORE PUSH1 0x20 SWAP1 SWAP2 KECCAK256 ADD SLOAD PUSH1 0x1 PUSH1 0x1 PUSH1 0xA0 SHL SUB AND SWAP1 POP DUP2 JUMP JUMPDEST PUSH0 PUSH1 0x60 DUP1 PUSH0 DUP1 DUP4 DUP4 DUP8 PUSH1 0x40 MLOAD PUSH2 0xB6 SWAP1 PUSH2 0x12D JUMP JUMPDEST PUSH2 0xC3 SWAP5 SWAP4 SWAP3 SWAP2 SWAP1 PUSH2 0x1C1 JUMP JUMPDEST PUSH1 0x40 MLOAD DUP1 SWAP2 SUB SWAP1 PUSH0 CREATE DUP1 ISZERO DUP1 ISZERO PUSH2 0xDC JUMPI RETURNDATASIZE PUSH0 DUP1 RETURNDATACOPY RETURNDATASIZE PUSH0 REVERT JUMPDEST POP PUSH0 DUP1 SLOAD PUSH1 0x1 DUP2 ADD DUP3 SSTORE SWAP1 DUP1 MSTORE PUSH32 0x290DECD9548B62A8D60345A988386FC84BA6BC95484008F6362F93160EF3E563 ADD DUP1 SLOAD PUSH1 0x1 PUSH1 0x1 PUSH1 0xA0 SHL SUB NOT AND PUSH1 0x1 PUSH1 0x1 PUSH1 0xA0 SHL SUB DUP4 AND OR SWAP1 SSTORE SWAP6 SWAP5 POP POP POP POP POP JUMP JUMPDEST PUSH2 0x1CDE DUP1 PUSH2 0x206 DUP4 CODECOPY ADD SWAP1 JUMP JUMPDEST PUSH0 PUSH1 0x20 DUP3 DUP5 SUB SLT ISZERO PUSH2 0x14A JUMPI PUSH0 DUP1 REVERT JUMPDEST POP CALLDATALOAD SWAP2 SWAP1 POP JUMP JUMPDEST PUSH0 PUSH1 0x20 DUP3 DUP5 SUB SLT ISZERO PUSH2 0x161 JUMPI PUSH0 DUP1 REVERT JUMPDEST DUP2 CALLDATALOAD PUSH1 0x1 PUSH1 0x1 PUSH1 0xA0 SHL SUB DUP2 AND DUP2 EQ PUSH2 0x177 JUMPI PUSH0 DUP1 REVERT JUMPDEST SWAP4 SWAP3 POP POP POP JUMP JUMPDEST PUSH0 DUP2 MLOAD DUP1 DUP5 MSTORE PUSH1 0x20 DUP1 DUP6 ADD SWAP5 POP PUSH1 0x20 DUP5 ADD PUSH0 JUMPDEST DUP4 DUP2 LT ISZERO PUSH2 0x1B6 JUMPI DUP2 MLOAD PUSH1 0x1 PUSH1 0x1 PUSH1 0xA0 SHL SUB AND DUP8 MSTORE SWAP6 DUP3 ADD SWAP6 SWAP1 DUP3 ADD SWAP1 PUSH1 0x1 ADD PUSH2 0x191 JUMP JUMPDEST POP SWAP5 SWAP6 SWAP5 POP POP POP POP POP JUMP JUMPDEST DUP5 DUP2 MSTORE PUSH1 0x80 PUSH1 0x20 DUP3 ADD MSTORE PUSH0 PUSH2 0x1D9 PUSH1 0x80 DUP4 ADD DUP7 PUSH2 0x17E JUMP JUMPDEST DUP3 DUP2 SUB PUSH1 0x40 DUP5 ADD MSTORE PUSH2 0x1EB DUP2 DUP7 PUSH2 0x17E JUMP JUMPDEST SWAP2 POP POP PUSH1 0x1 DUP1 PUSH1 0xA0 SHL SUB DUP4 AND PUSH1 0x60 DUP4 ADD MSTORE SWAP6 SWAP5 POP POP POP POP POP JUMP INVALID PUSH1 0x80 PUSH1 0x40 MSTORE CALLVALUE DUP1 ISZERO PUSH3 0x10 JUMPI PUSH0 DUP1 REVERT JUMPDEST POP PUSH1 0x40 MLOAD PUSH3 0x1CDE CODESIZE SUB DUP1 PUSH3 0x1CDE DUP4 CODECOPY DUP2 ADD PUSH1 0x40 DUP2 SWAP1 MSTORE PUSH3 0x33 SWAP2 PUSH3 0x320 JUMP JUMPDEST PUSH3 0x3F PUSH0 ADDRESS PUSH3 0x197 JUMP JUMPDEST POP PUSH1 0x1 PUSH1 0x1 PUSH1 0xA0 SHL SUB DUP2 AND ISZERO PUSH3 0x5E JUMPI PUSH3 0x5C PUSH0 DUP3 PUSH3 0x197 JUMP JUMPDEST POP JUMPDEST PUSH0 JUMPDEST DUP4 MLOAD DUP2 LT ISZERO PUSH3 0xFD JUMPI PUSH3 0xB8 PUSH32 0xB09AA5AEB3702CFD50B6B62BC4532604938F21248A27A1D5CA736082B6819CC1 DUP6 DUP4 DUP2 MLOAD DUP2 LT PUSH3 0xA4 JUMPI PUSH3 0xA4 PUSH3 0x3A2 JUMP JUMPDEST PUSH1 0x20 MUL PUSH1 0x20 ADD ADD MLOAD PUSH3 0x197 PUSH1 0x20 SHL PUSH1 0x20 SHR JUMP JUMPDEST POP PUSH3 0xF3 PUSH32 0xFD643C72710C63C0180259ABA6B2D05451E3591A24E58B62239378085726F783 DUP6 DUP4 DUP2 MLOAD DUP2 LT PUSH3 0xA4 JUMPI PUSH3 0xA4 PUSH3 0x3A2 JUMP JUMPDEST POP PUSH1 0x1 ADD PUSH3 0x60 JUMP JUMPDEST POP PUSH0 JUMPDEST DUP3 MLOAD DUP2 LT ISZERO PUSH3 0x14E JUMPI PUSH3 0x144 PUSH32 0xD8AA0F3194971A2A116679F7C2090F6939C8D4E01A2A8D7E41D55E5351469E63 DUP5 DUP4 DUP2 MLOAD DUP2 LT PUSH3 0xA4 JUMPI PUSH3 0xA4 PUSH3 0x3A2 JUMP JUMPDEST POP PUSH1 0x1 ADD PUSH3 0x100 JUMP JUMPDEST POP PUSH1 0x2 DUP5 SWAP1 SSTORE PUSH1 0x40 DUP1 MLOAD PUSH0 DUP2 MSTORE PUSH1 0x20 DUP2 ADD DUP7 SWAP1 MSTORE PUSH32 0x11C24F4EAD16507C69AC467FBD5E4EED5FB5C699626D2CC6D66421DF253886D5 SWAP2 ADD PUSH1 0x40 MLOAD DUP1 SWAP2 SUB SWAP1 LOG1 POP POP POP POP PUSH3 0x3B6 JUMP JUMPDEST PUSH0 DUP3 DUP2 MSTORE PUSH1 0x20 DUP2 DUP2 MSTORE PUSH1 0x40 DUP1 DUP4 KECCAK256 PUSH1 0x1 PUSH1 0x1 PUSH1 0xA0 SHL SUB DUP6 AND DUP5 MSTORE SWAP1 SWAP2 MSTORE DUP2 KECCAK256 SLOAD PUSH1 0xFF AND PUSH3 0x23A JUMPI PUSH0 DUP4 DUP2 MSTORE PUSH1 0x20 DUP2 DUP2 MSTORE PUSH1 0x40 DUP1 DUP4 KECCAK256 PUSH1 0x1 PUSH1 0x1 PUSH1 0xA0 SHL SUB DUP7 AND DUP5 MSTORE SWAP1 SWAP2 MSTORE SWAP1 KECCAK256 DUP1 SLOAD PUSH1 0xFF NOT AND PUSH1 0x1 OR SWAP1 SSTORE PUSH3 0x1F1 CALLER SWAP1 JUMP JUMPDEST PUSH1 0x1 PUSH1 0x1 PUSH1 0xA0 SHL SUB AND DUP3 PUSH1 0x1 PUSH1 0x1 PUSH1 0xA0 SHL SUB AND DUP5 PUSH32 0x2F8788117E7EFF1D82E926EC794901D17C78024A50270940304540A733656F0D PUSH1 0x40 MLOAD PUSH1 0x40 MLOAD DUP1 SWAP2 SUB SWAP1 LOG4 POP PUSH1 0x1 PUSH3 0x23D JUMP JUMPDEST POP PUSH0 JUMPDEST SWAP3 SWAP2 POP POP JUMP JUMPDEST PUSH4 0x4E487B71 PUSH1 0xE0 SHL PUSH0 MSTORE PUSH1 0x41 PUSH1 0x4 MSTORE PUSH1 0x24 PUSH0 REVERT JUMPDEST DUP1 MLOAD PUSH1 0x1 PUSH1 0x1 PUSH1 0xA0 SHL SUB DUP2 AND DUP2 EQ PUSH3 0x26E JUMPI PUSH0 DUP1 REVERT JUMPDEST SWAP2 SWAP1 POP JUMP JUMPDEST PUSH0 DUP3 PUSH1 0x1F DUP4 ADD SLT PUSH3 0x283 JUMPI PUSH0 DUP1 REVERT JUMPDEST DUP2 MLOAD PUSH1 0x20 PUSH1 0x1 PUSH1 0x1 PUSH1 0x40 SHL SUB DUP1 DUP4 GT ISZERO PUSH3 0x2A2 JUMPI PUSH3 0x2A2 PUSH3 0x243 JUMP JUMPDEST DUP3 PUSH1 0x5 SHL PUSH1 0x40 MLOAD PUSH1 0x1F NOT PUSH1 0x3F DUP4 ADD AND DUP2 ADD DUP2 DUP2 LT DUP5 DUP3 GT OR ISZERO PUSH3 0x2CA JUMPI PUSH3 0x2CA PUSH3 0x243 JUMP JUMPDEST PUSH1 0x40 MSTORE SWAP4 DUP5 MSTORE PUSH1 0x20 DUP2 DUP8 ADD DUP2 ADD SWAP5 SWAP1 DUP2 ADD SWAP3 POP DUP8 DUP6 GT ISZERO PUSH3 0x2EA JUMPI PUSH0 DUP1 REVERT JUMPDEST PUSH1 0x20 DUP8 ADD SWAP2 POP JUMPDEST DUP5 DUP3 LT ISZERO PUSH3 0x315 JUMPI PUSH3 0x305 DUP3 PUSH3 0x257 JUMP JUMPDEST DUP4 MSTORE SWAP2 DUP4 ADD SWAP2 SWAP1 DUP4 ADD SWAP1 PUSH3 0x2F1 JUMP JUMPDEST SWAP8 SWAP7 POP POP POP POP POP POP POP JUMP JUMPDEST PUSH0 DUP1 PUSH0 DUP1 PUSH1 0x80 DUP6 DUP8 SUB SLT ISZERO PUSH3 0x334 JUMPI PUSH0 DUP1 REVERT JUMPDEST DUP5 MLOAD PUSH1 0x20 DUP7 ADD MLOAD SWAP1 SWAP5 POP PUSH1 0x1 PUSH1 0x1 PUSH1 0x40 SHL SUB DUP1 DUP3 GT ISZERO PUSH3 0x353 JUMPI PUSH0 DUP1 REVERT JUMPDEST PUSH3 0x361 DUP9 DUP4 DUP10 ADD PUSH3 0x273 JUMP JUMPDEST SWAP5 POP PUSH1 0x40 DUP8 ADD MLOAD SWAP2 POP DUP1 DUP3 GT ISZERO PUSH3 0x377 JUMPI PUSH0 DUP1 REVERT JUMPDEST POP PUSH3 0x386 DUP8 DUP3 DUP9 ADD PUSH3 0x273 JUMP JUMPDEST SWAP3 POP POP PUSH3 0x397 PUSH1 0x60 DUP7 ADD PUSH3 0x257 JUMP JUMPDEST SWAP1 POP SWAP3 SWAP6 SWAP2 SWAP5 POP SWAP3 POP JUMP JUMPDEST PUSH4 0x4E487B71 PUSH1 0xE0 SHL PUSH0 MSTORE PUSH1 0x32 PUSH1 0x4 MSTORE PUSH1 0x24 PUSH0 REVERT JUMPDEST PUSH2 0x191A DUP1 PUSH3 0x3C4 PUSH0 CODECOPY PUSH0 RETURN INVALID PUSH1 0x80 PUSH1 0x40 MSTORE PUSH1 0x4 CALLDATASIZE LT PUSH2 0x176 JUMPI PUSH0 CALLDATALOAD PUSH1 0xE0 SHR DUP1 PUSH4 0x8065657F GT PUSH2 0xC9 JUMPI DUP1 PUSH4 0xBC197C81 GT PUSH2 0x78 JUMPI DUP1 PUSH4 0xBC197C81 EQ PUSH2 0x46F JUMPI DUP1 PUSH4 0xC4D252F5 EQ PUSH2 0x49A JUMPI DUP1 PUSH4 0xD45C4435 EQ PUSH2 0x4B9 JUMPI DUP1 PUSH4 0xD547741F EQ PUSH2 0x4E4 JUMPI DUP1 PUSH4 0xE38335E5 EQ PUSH2 0x503 JUMPI DUP1 PUSH4 0xF23A6E61 EQ PUSH2 0x516 JUMPI DUP1 PUSH4 0xF27A0C92 EQ PUSH2 0x541 JUMPI PUSH0 DUP1 REVERT JUMPDEST DUP1 PUSH4 0x8065657F EQ PUSH2 0x38D JUMPI DUP1 PUSH4 0x8F2A0BB0 EQ PUSH2 0x3AC JUMPI DUP1 PUSH4 0x8F61F4F5 EQ PUSH2 0x3CB JUMPI DUP1 PUSH4 0x91D14854 EQ PUSH2 0x3EB JUMPI DUP1 PUSH4 0xA217FDDF EQ PUSH2 0x40A JUMPI DUP1 PUSH4 0xB08E51C0 EQ PUSH2 0x41D JUMPI DUP1 PUSH4 0xB1C5F427 EQ PUSH2 0x450 JUMPI PUSH0 DUP1 REVERT JUMPDEST DUP1 PUSH4 0x2AB0F529 GT PUSH2 0x125 JUMPI DUP1 PUSH4 0x2AB0F529 EQ PUSH2 0x2A7 JUMPI DUP1 PUSH4 0x2F2FF15D EQ PUSH2 0x2C6 JUMPI DUP1 PUSH4 0x31D50750 EQ PUSH2 0x2E5 JUMPI DUP1 PUSH4 0x36568ABE EQ PUSH2 0x304 JUMPI DUP1 PUSH4 0x584B153E EQ PUSH2 0x323 JUMPI DUP1 PUSH4 0x64D62353 EQ PUSH2 0x342 JUMPI DUP1 PUSH4 0x7958004C EQ PUSH2 0x361 JUMPI PUSH0 DUP1 REVERT JUMPDEST DUP1 PUSH4 0x1D5062A EQ PUSH2 0x181 JUMPI DUP1 PUSH4 0x1FFC9A7 EQ PUSH2 0x1A2 JUMPI DUP1 PUSH4 0x7BD0265 EQ PUSH2 0x1D6 JUMPI DUP1 PUSH4 0x134008D3 EQ PUSH2 0x204 JUMPI DUP1 PUSH4 0x13BC9F20 EQ PUSH2 0x217 JUMPI DUP1 PUSH4 0x150B7A02 EQ PUSH2 0x236 JUMPI DUP1 PUSH4 0x248A9CA3 EQ PUSH2 0x279 JUMPI PUSH0 DUP1 REVERT JUMPDEST CALLDATASIZE PUSH2 0x17D JUMPI STOP JUMPDEST PUSH0 DUP1 REVERT JUMPDEST CALLVALUE DUP1 ISZERO PUSH2 0x18C JUMPI PUSH0 DUP1 REVERT JUMPDEST POP PUSH2 0x1A0 PUSH2 0x19B CALLDATASIZE PUSH1 0x4 PUSH2 0x10B5 JUMP JUMPDEST PUSH2 0x555 JUMP JUMPDEST STOP JUMPDEST CALLVALUE DUP1 ISZERO PUSH2 0x1AD JUMPI PUSH0 DUP1 REVERT JUMPDEST POP PUSH2 0x1C1 PUSH2 0x1BC CALLDATASIZE PUSH1 0x4 PUSH2 0x1123 JUMP JUMPDEST PUSH2 0x616 JUMP JUMPDEST PUSH1 0x40 MLOAD SWAP1 ISZERO ISZERO DUP2 MSTORE PUSH1 0x20 ADD JUMPDEST PUSH1 0x40 MLOAD DUP1 SWAP2 SUB SWAP1 RETURN JUMPDEST CALLVALUE DUP1 ISZERO PUSH2 0x1E1 JUMPI PUSH0 DUP1 REVERT JUMPDEST POP PUSH2 0x1F6 PUSH0 DUP1 MLOAD PUSH1 0x20 PUSH2 0x18C5 DUP4 CODECOPY DUP2 MLOAD SWAP2 MSTORE DUP2 JUMP JUMPDEST PUSH1 0x40 MLOAD SWAP1 DUP2 MSTORE PUSH1 0x20 ADD PUSH2 0x1CD JUMP JUMPDEST PUSH2 0x1A0 PUSH2 0x212 CALLDATASIZE PUSH1 0x4 PUSH2 0x114A JUMP JUMPDEST PUSH2 0x626 JUMP JUMPDEST CALLVALUE DUP1 ISZERO PUSH2 0x222 JUMPI PUSH0 DUP1 REVERT JUMPDEST POP PUSH2 0x1C1 PUSH2 0x231 CALLDATASIZE PUSH1 0x4 PUSH2 0x11B0 JUMP JUMPDEST PUSH2 0x6C5 JUMP JUMPDEST CALLVALUE DUP1 ISZERO PUSH2 0x241 JUMPI PUSH0 DUP1 REVERT JUMPDEST POP PUSH2 0x260 PUSH2 0x250 CALLDATASIZE PUSH1 0x4 PUSH2 0x1276 JUMP JUMPDEST PUSH4 0xA85BD01 PUSH1 0xE1 SHL SWAP5 SWAP4 POP POP POP POP JUMP JUMPDEST PUSH1 0x40 MLOAD PUSH1 0x1 PUSH1 0x1 PUSH1 0xE0 SHL SUB NOT SWAP1 SWAP2 AND DUP2 MSTORE PUSH1 0x20 ADD PUSH2 0x1CD JUMP JUMPDEST CALLVALUE DUP1 ISZERO PUSH2 0x284 JUMPI PUSH0 DUP1 REVERT JUMPDEST POP PUSH2 0x1F6 PUSH2 0x293 CALLDATASIZE PUSH1 0x4 PUSH2 0x11B0 JUMP JUMPDEST PUSH0 SWAP1 DUP2 MSTORE PUSH1 0x20 DUP2 SWAP1 MSTORE PUSH1 0x40 SWAP1 KECCAK256 PUSH1 0x1 ADD SLOAD SWAP1 JUMP JUMPDEST CALLVALUE DUP1 ISZERO PUSH2 0x2B2 JUMPI PUSH0 DUP1 REVERT JUMPDEST POP PUSH2 0x1C1 PUSH2 0x2C1 CALLDATASIZE PUSH1 0x4 PUSH2 0x11B0 JUMP JUMPDEST PUSH2 0x6EA JUMP JUMPDEST CALLVALUE DUP1 ISZERO PUSH2 0x2D1 JUMPI PUSH0 DUP1 REVERT JUMPDEST POP PUSH2 0x1A0 PUSH2 0x2E0 CALLDATASIZE PUSH1 0x4 PUSH2 0x12D9 JUMP JUMPDEST PUSH2 0x6F2 JUMP JUMPDEST CALLVALUE DUP1 ISZERO PUSH2 0x2F0 JUMPI PUSH0 DUP1 REVERT JUMPDEST POP PUSH2 0x1C1 PUSH2 0x2FF CALLDATASIZE PUSH1 0x4 PUSH2 0x11B0 JUMP JUMPDEST PUSH2 0x71C JUMP JUMPDEST CALLVALUE DUP1 ISZERO PUSH2 0x30F JUMPI PUSH0 DUP1 REVERT JUMPDEST POP PUSH2 0x1A0 PUSH2 0x31E CALLDATASIZE PUSH1 0x4 PUSH2 0x12D9 JUMP JUMPDEST PUSH2 0x740 JUMP JUMPDEST CALLVALUE DUP1 ISZERO PUSH2 0x32E JUMPI PUSH0 DUP1 REVERT JUMPDEST POP PUSH2 0x1C1 PUSH2 0x33D CALLDATASIZE PUSH1 0x4 PUSH2 0x11B0 JUMP JUMPDEST PUSH2 0x778 JUMP JUMPDEST CALLVALUE DUP1 ISZERO PUSH2 0x34D JUMPI PUSH0 DUP1 REVERT JUMPDEST POP PUSH2 0x1A0 PUSH2 0x35C CALLDATASIZE PUSH1 0x4 PUSH2 0x11B0 JUMP JUMPDEST PUSH2 0x7BD JUMP JUMPDEST CALLVALUE DUP1 ISZERO PUSH2 0x36C JUMPI PUSH0 DUP1 REVERT JUMPDEST POP PUSH2 0x380 PUSH2 0x37B CALLDATASIZE PUSH1 0x4 PUSH2 0x11B0 JUMP JUMPDEST PUSH2 0x830 JUMP JUMPDEST PUSH1 0x40 MLOAD PUSH2 0x1CD SWAP2 SWAP1 PUSH2 0x1317 JUMP JUMPDEST CALLVALUE DUP1 ISZERO PUSH2 0x398 JUMPI PUSH0 DUP1 REVERT JUMPDEST POP PUSH2 0x1F6 PUSH2 0x3A7 CALLDATASIZE PUSH1 0x4 PUSH2 0x114A JUMP JUMPDEST PUSH2 0x878 JUMP JUMPDEST CALLVALUE DUP1 ISZERO PUSH2 0x3B7 JUMPI PUSH0 DUP1 REVERT JUMPDEST POP PUSH2 0x1A0 PUSH2 0x3C6 CALLDATASIZE PUSH1 0x4 PUSH2 0x137D JUMP JUMPDEST PUSH2 0x8B6 JUMP JUMPDEST CALLVALUE DUP1 ISZERO PUSH2 0x3D6 JUMPI PUSH0 DUP1 REVERT JUMPDEST POP PUSH2 0x1F6 PUSH0 DUP1 MLOAD PUSH1 0x20 PUSH2 0x18A5 DUP4 CODECOPY DUP2 MLOAD SWAP2 MSTORE DUP2 JUMP JUMPDEST CALLVALUE DUP1 ISZERO PUSH2 0x3F6 JUMPI PUSH0 DUP1 REVERT JUMPDEST POP PUSH2 0x1C1 PUSH2 0x405 CALLDATASIZE PUSH1 0x4 PUSH2 0x12D9 JUMP JUMPDEST PUSH2 0xA2F JUMP JUMPDEST CALLVALUE DUP1 ISZERO PUSH2 0x415 JUMPI PUSH0 DUP1 REVERT JUMPDEST POP PUSH2 0x1F6 PUSH0 DUP2 JUMP JUMPDEST CALLVALUE DUP1 ISZERO PUSH2 0x428 JUMPI PUSH0 DUP1 REVERT JUMPDEST POP PUSH2 0x1F6 PUSH32 0xFD643C72710C63C0180259ABA6B2D05451E3591A24E58B62239378085726F783 DUP2 JUMP JUMPDEST CALLVALUE DUP1 ISZERO PUSH2 0x45B JUMPI PUSH0 DUP1 REVERT JUMPDEST POP PUSH2 0x1F6 PUSH2 0x46A CALLDATASIZE PUSH1 0x4 PUSH2 0x1425 JUMP JUMPDEST PUSH2 0xA57 JUMP JUMPDEST CALLVALUE DUP1 ISZERO PUSH2 0x47A JUMPI PUSH0 DUP1 REVERT JUMPDEST POP PUSH2 0x260 PUSH2 0x489 CALLDATASIZE PUSH1 0x4 PUSH2 0x1541 JUMP JUMPDEST PUSH4 0xBC197C81 PUSH1 0xE0 SHL SWAP6 SWAP5 POP POP POP POP POP JUMP JUMPDEST CALLVALUE DUP1 ISZERO PUSH2 0x4A5 JUMPI PUSH0 DUP1 REVERT JUMPDEST POP PUSH2 0x1A0 PUSH2 0x4B4 CALLDATASIZE PUSH1 0x4 PUSH2 0x11B0 JUMP JUMPDEST PUSH2 0xA9B JUMP JUMPDEST CALLVALUE DUP1 ISZERO PUSH2 0x4C4 JUMPI PUSH0 DUP1 REVERT JUMPDEST POP PUSH2 0x1F6 PUSH2 0x4D3 CALLDATASIZE PUSH1 0x4 PUSH2 0x11B0 JUMP JUMPDEST PUSH0 SWAP1 DUP2 MSTORE PUSH1 0x1 PUSH1 0x20 MSTORE PUSH1 0x40 SWAP1 KECCAK256 SLOAD SWAP1 JUMP JUMPDEST CALLVALUE DUP1 ISZERO PUSH2 0x4EF JUMPI PUSH0 DUP1 REVERT JUMPDEST POP PUSH2 0x1A0 PUSH2 0x4FE CALLDATASIZE PUSH1 0x4 PUSH2 0x12D9 JUMP JUMPDEST PUSH2 0xB45 JUMP JUMPDEST PUSH2 0x1A0 PUSH2 0x511 CALLDATASIZE PUSH1 0x4 PUSH2 0x1425 JUMP JUMPDEST PUSH2 0xB69 JUMP JUMPDEST CALLVALUE DUP1 ISZERO PUSH2 0x521 JUMPI PUSH0 DUP1 REVERT JUMPDEST POP PUSH2 0x260 PUSH2 0x530 CALLDATASIZE PUSH1 0x4 PUSH2 0x15E3 JUMP JUMPDEST PUSH4 0xF23A6E61 PUSH1 0xE0 SHL SWAP6 SWAP5 POP POP POP POP POP JUMP JUMPDEST CALLVALUE DUP1 ISZERO PUSH2 0x54C JUMPI PUSH0 DUP1 REVERT JUMPDEST POP PUSH1 0x2 SLOAD PUSH2 0x1F6 JUMP JUMPDEST PUSH0 DUP1 MLOAD PUSH1 0x20 PUSH2 0x18A5 DUP4 CODECOPY DUP2 MLOAD SWAP2 MSTORE PUSH2 0x56C DUP2 PUSH2 0xCD7 JUMP JUMPDEST PUSH0 PUSH2 0x57B DUP10 DUP10 DUP10 DUP10 DUP10 DUP10 PUSH2 0x878 JUMP JUMPDEST SWAP1 POP PUSH2 0x587 DUP2 DUP5 PUSH2 0xCE4 JUMP JUMPDEST PUSH0 DUP2 PUSH32 0x4CF4410CC57040E44862EF0F45F3DD5A5E02DB8EB8ADD648D4B0E236F1D07DCA DUP12 DUP12 DUP12 DUP12 DUP12 DUP11 PUSH1 0x40 MLOAD PUSH2 0x5C2 SWAP7 SWAP6 SWAP5 SWAP4 SWAP3 SWAP2 SWAP1 PUSH2 0x166A JUMP JUMPDEST PUSH1 0x40 MLOAD DUP1 SWAP2 SUB SWAP1 LOG3 DUP4 ISZERO PUSH2 0x60B JUMPI DUP1 PUSH32 0x20FDA5FD27A1EA7BF5B9567F143AC5470BB059374A27E8F67CB44F946F6D0387 DUP6 PUSH1 0x40 MLOAD PUSH2 0x602 SWAP2 DUP2 MSTORE PUSH1 0x20 ADD SWAP1 JUMP JUMPDEST PUSH1 0x40 MLOAD DUP1 SWAP2 SUB SWAP1 LOG2 JUMPDEST POP POP POP POP POP POP POP POP POP JUMP JUMPDEST PUSH0 PUSH2 0x620 DUP3 PUSH2 0xD75 JUMP JUMPDEST SWAP3 SWAP2 POP POP JUMP JUMPDEST PUSH0 DUP1 MLOAD PUSH1 0x20 PUSH2 0x18C5 DUP4 CODECOPY DUP2 MLOAD SWAP2 MSTORE PUSH2 0x63E DUP2 PUSH0 PUSH2 0xA2F JUMP JUMPDEST PUSH2 0x64C JUMPI PUSH2 0x64C DUP2 CALLER PUSH2 0xD99 JUMP JUMPDEST PUSH0 PUSH2 0x65B DUP9 DUP9 DUP9 DUP9 DUP9 DUP9 PUSH2 0x878 JUMP JUMPDEST SWAP1 POP PUSH2 0x667 DUP2 DUP6 PUSH2 0xDD6 JUMP JUMPDEST PUSH2 0x673 DUP9 DUP9 DUP9 DUP9 PUSH2 0xE24 JUMP JUMPDEST PUSH0 DUP2 PUSH32 0xC2617EFA69BAB66782FA219543714338489C4E9E178271560A91B82C3F612B58 DUP11 DUP11 DUP11 DUP11 PUSH1 0x40 MLOAD PUSH2 0x6AA SWAP5 SWAP4 SWAP3 SWAP2 SWAP1 PUSH2 0x16A6 JUMP JUMPDEST PUSH1 0x40 MLOAD DUP1 SWAP2 SUB SWAP1 LOG3 PUSH2 0x6BB DUP2 PUSH2 0xE98 JUMP JUMPDEST POP POP POP POP POP POP POP POP JUMP JUMPDEST PUSH0 PUSH1 0x2 JUMPDEST PUSH2 0x6D2 DUP4 PUSH2 0x830 JUMP JUMPDEST PUSH1 0x3 DUP2 GT ISZERO PUSH2 0x6E3 JUMPI PUSH2 0x6E3 PUSH2 0x1303 JUMP JUMPDEST EQ SWAP3 SWAP2 POP POP JUMP JUMPDEST PUSH0 PUSH1 0x3 PUSH2 0x6C9 JUMP JUMPDEST PUSH0 DUP3 DUP2 MSTORE PUSH1 0x20 DUP2 SWAP1 MSTORE PUSH1 0x40 SWAP1 KECCAK256 PUSH1 0x1 ADD SLOAD PUSH2 0x70C DUP2 PUSH2 0xCD7 JUMP JUMPDEST PUSH2 0x716 DUP4 DUP4 PUSH2 0xEC3 JUMP JUMPDEST POP POP POP POP JUMP JUMPDEST PUSH0 DUP1 PUSH2 0x727 DUP4 PUSH2 0x830 JUMP JUMPDEST PUSH1 0x3 DUP2 GT ISZERO PUSH2 0x738 JUMPI PUSH2 0x738 PUSH2 0x1303 JUMP JUMPDEST EQ ISZERO SWAP3 SWAP2 POP POP JUMP JUMPDEST PUSH1 0x1 PUSH1 0x1 PUSH1 0xA0 SHL SUB DUP2 AND CALLER EQ PUSH2 0x769 JUMPI PUSH1 0x40 MLOAD PUSH4 0x334BD919 PUSH1 0xE1 SHL DUP2 MSTORE PUSH1 0x4 ADD PUSH1 0x40 MLOAD DUP1 SWAP2 SUB SWAP1 REVERT JUMPDEST PUSH2 0x773 DUP3 DUP3 PUSH2 0xF52 JUMP JUMPDEST POP POP POP JUMP JUMPDEST PUSH0 DUP1 PUSH2 0x783 DUP4 PUSH2 0x830 JUMP JUMPDEST SWAP1 POP PUSH1 0x1 DUP2 PUSH1 0x3 DUP2 GT ISZERO PUSH2 0x799 JUMPI PUSH2 0x799 PUSH2 0x1303 JUMP JUMPDEST EQ DUP1 PUSH2 0x7B6 JUMPI POP PUSH1 0x2 DUP2 PUSH1 0x3 DUP2 GT ISZERO PUSH2 0x7B4 JUMPI PUSH2 0x7B4 PUSH2 0x1303 JUMP JUMPDEST EQ JUMPDEST SWAP4 SWAP3 POP POP POP JUMP JUMPDEST CALLER ADDRESS DUP2 EQ PUSH2 0x7EE JUMPI PUSH1 0x40 MLOAD PUSH4 0xE2850C59 PUSH1 0xE0 SHL DUP2 MSTORE PUSH1 0x1 PUSH1 0x1 PUSH1 0xA0 SHL SUB DUP3 AND PUSH1 0x4 DUP3 ADD MSTORE PUSH1 0x24 ADD JUMPDEST PUSH1 0x40 MLOAD DUP1 SWAP2 SUB SWAP1 REVERT JUMPDEST PUSH1 0x2 SLOAD PUSH1 0x40 DUP1 MLOAD SWAP2 DUP3 MSTORE PUSH1 0x20 DUP3 ADD DUP5 SWAP1 MSTORE PUSH32 0x11C24F4EAD16507C69AC467FBD5E4EED5FB5C699626D2CC6D66421DF253886D5 SWAP2 ADD PUSH1 0x40 MLOAD DUP1 SWAP2 SUB SWAP1 LOG1 POP PUSH1 0x2 SSTORE JUMP JUMPDEST PUSH0 DUP2 DUP2 MSTORE PUSH1 0x1 PUSH1 0x20 MSTORE PUSH1 0x40 DUP2 KECCAK256 SLOAD DUP1 PUSH0 SUB PUSH2 0x84D JUMPI POP PUSH0 SWAP3 SWAP2 POP POP JUMP JUMPDEST PUSH1 0x1 DUP2 SUB PUSH2 0x85E JUMPI POP PUSH1 0x3 SWAP3 SWAP2 POP POP JUMP JUMPDEST TIMESTAMP DUP2 GT ISZERO PUSH2 0x86F JUMPI POP PUSH1 0x1 SWAP3 SWAP2 POP POP JUMP JUMPDEST POP PUSH1 0x2 SWAP3 SWAP2 POP POP JUMP JUMPDEST PUSH0 DUP7 DUP7 DUP7 DUP7 DUP7 DUP7 PUSH1 0x40 MLOAD PUSH1 0x20 ADD PUSH2 0x894 SWAP7 SWAP6 SWAP5 SWAP4 SWAP3 SWAP2 SWAP1 PUSH2 0x166A JUMP JUMPDEST PUSH1 0x40 MLOAD PUSH1 0x20 DUP2 DUP4 SUB SUB DUP2 MSTORE SWAP1 PUSH1 0x40 MSTORE DUP1 MLOAD SWAP1 PUSH1 0x20 ADD KECCAK256 SWAP1 POP SWAP7 SWAP6 POP POP POP POP POP POP JUMP JUMPDEST PUSH0 DUP1 MLOAD PUSH1 0x20 PUSH2 0x18A5 DUP4 CODECOPY DUP2 MLOAD SWAP2 MSTORE PUSH2 0x8CD DUP2 PUSH2 0xCD7 JUMP JUMPDEST DUP9 DUP8 EQ ISZERO DUP1 PUSH2 0x8DC JUMPI POP DUP9 DUP6 EQ ISZERO JUMPDEST ISZERO PUSH2 0x90E JUMPI PUSH1 0x40 MLOAD PUSH1 0x1 PUSH3 0x4FCDEF PUSH1 0xE0 SHL SUB NOT DUP2 MSTORE PUSH1 0x4 DUP2 ADD DUP11 SWAP1 MSTORE PUSH1 0x24 DUP2 ADD DUP7 SWAP1 MSTORE PUSH1 0x44 DUP2 ADD DUP9 SWAP1 MSTORE PUSH1 0x64 ADD PUSH2 0x7E5 JUMP JUMPDEST PUSH0 PUSH2 0x91F DUP12 DUP12 DUP12 DUP12 DUP12 DUP12 DUP12 DUP12 PUSH2 0xA57 JUMP JUMPDEST SWAP1 POP PUSH2 0x92B DUP2 DUP5 PUSH2 0xCE4 JUMP JUMPDEST PUSH0 JUMPDEST DUP11 DUP2 LT ISZERO PUSH2 0x9E0 JUMPI DUP1 DUP3 PUSH32 0x4CF4410CC57040E44862EF0F45F3DD5A5E02DB8EB8ADD648D4B0E236F1D07DCA DUP15 DUP15 DUP6 DUP2 DUP2 LT PUSH2 0x96A JUMPI PUSH2 0x96A PUSH2 0x16D7 JUMP JUMPDEST SWAP1 POP PUSH1 0x20 MUL ADD PUSH1 0x20 DUP2 ADD SWAP1 PUSH2 0x97F SWAP2 SWAP1 PUSH2 0x16EB JUMP JUMPDEST DUP14 DUP14 DUP7 DUP2 DUP2 LT PUSH2 0x991 JUMPI PUSH2 0x991 PUSH2 0x16D7 JUMP JUMPDEST SWAP1 POP PUSH1 0x20 MUL ADD CALLDATALOAD DUP13 DUP13 DUP8 DUP2 DUP2 LT PUSH2 0x9AA JUMPI PUSH2 0x9AA PUSH2 0x16D7 JUMP JUMPDEST SWAP1 POP PUSH1 0x20 MUL DUP2 ADD SWAP1 PUSH2 0x9BC SWAP2 SWAP1 PUSH2 0x1704 JUMP JUMPDEST DUP13 DUP12 PUSH1 0x40 MLOAD PUSH2 0x9D0 SWAP7 SWAP6 SWAP5 SWAP4 SWAP3 SWAP2 SWAP1 PUSH2 0x166A JUMP JUMPDEST PUSH1 0x40 MLOAD DUP1 SWAP2 SUB SWAP1 LOG3 PUSH1 0x1 ADD PUSH2 0x92D JUMP JUMPDEST POP DUP4 ISZERO PUSH2 0xA22 JUMPI DUP1 PUSH32 0x20FDA5FD27A1EA7BF5B9567F143AC5470BB059374A27E8F67CB44F946F6D0387 DUP6 PUSH1 0x40 MLOAD PUSH2 0xA19 SWAP2 DUP2 MSTORE PUSH1 0x20 ADD SWAP1 JUMP JUMPDEST PUSH1 0x40 MLOAD DUP1 SWAP2 SUB SWAP1 LOG2 JUMPDEST POP POP POP POP POP POP POP POP POP POP POP JUMP JUMPDEST PUSH0 SWAP2 DUP3 MSTORE PUSH1 0x20 DUP3 DUP2 MSTORE PUSH1 0x40 DUP1 DUP5 KECCAK256 PUSH1 0x1 PUSH1 0x1 PUSH1 0xA0 SHL SUB SWAP4 SWAP1 SWAP4 AND DUP5 MSTORE SWAP2 SWAP1 MSTORE SWAP1 KECCAK256 SLOAD PUSH1 0xFF AND SWAP1 JUMP JUMPDEST PUSH0 DUP9 DUP9 DUP9 DUP9 DUP9 DUP9 DUP9 DUP9 PUSH1 0x40 MLOAD PUSH1 0x20 ADD PUSH2 0xA77 SWAP9 SWAP8 SWAP7 SWAP6 SWAP5 SWAP4 SWAP3 SWAP2 SWAP1 PUSH2 0x17D7 JUMP JUMPDEST PUSH1 0x40 MLOAD PUSH1 0x20 DUP2 DUP4 SUB SUB DUP2 MSTORE SWAP1 PUSH1 0x40 MSTORE DUP1 MLOAD SWAP1 PUSH1 0x20 ADD KECCAK256 SWAP1 POP SWAP9 SWAP8 POP POP POP POP POP POP POP POP JUMP JUMPDEST PUSH32 0xFD643C72710C63C0180259ABA6B2D05451E3591A24E58B62239378085726F783 PUSH2 0xAC5 DUP2 PUSH2 0xCD7 JUMP JUMPDEST PUSH2 0xACE DUP3 PUSH2 0x778 JUMP JUMPDEST PUSH2 0xB0A JUMPI DUP2 PUSH2 0xADD PUSH1 0x2 PUSH2 0xFBB JUMP JUMPDEST PUSH2 0xAE7 PUSH1 0x1 PUSH2 0xFBB JUMP JUMPDEST PUSH1 0x40 MLOAD PUSH4 0x5EAD8EB5 PUSH1 0xE0 SHL DUP2 MSTORE PUSH1 0x4 DUP2 ADD SWAP4 SWAP1 SWAP4 MSTORE OR PUSH1 0x24 DUP3 ADD MSTORE PUSH1 0x44 ADD PUSH2 0x7E5 JUMP JUMPDEST PUSH0 DUP3 DUP2 MSTORE PUSH1 0x1 PUSH1 0x20 MSTORE PUSH1 0x40 DUP1 DUP3 KECCAK256 DUP3 SWAP1 SSTORE MLOAD DUP4 SWAP2 PUSH32 0xBAA1EB22F2A492BA1A5FEA61B8DF4D27C6C8B5F3971E63BB58FA14FF72EEDB70 SWAP2 LOG2 POP POP JUMP JUMPDEST PUSH0 DUP3 DUP2 MSTORE PUSH1 0x20 DUP2 SWAP1 MSTORE PUSH1 0x40 SWAP1 KECCAK256 PUSH1 0x1 ADD SLOAD PUSH2 0xB5F DUP2 PUSH2 0xCD7 JUMP JUMPDEST PUSH2 0x716 DUP4 DUP4 PUSH2 0xF52 JUMP JUMPDEST PUSH0 DUP1 MLOAD PUSH1 0x20 PUSH2 0x18C5 DUP4 CODECOPY DUP2 MLOAD SWAP2 MSTORE PUSH2 0xB81 DUP2 PUSH0 PUSH2 0xA2F JUMP JUMPDEST PUSH2 0xB8F JUMPI PUSH2 0xB8F DUP2 CALLER PUSH2 0xD99 JUMP JUMPDEST DUP8 DUP7 EQ ISZERO DUP1 PUSH2 0xB9E JUMPI POP DUP8 DUP5 EQ ISZERO JUMPDEST ISZERO PUSH2 0xBD0 JUMPI PUSH1 0x40 MLOAD PUSH1 0x1 PUSH3 0x4FCDEF PUSH1 0xE0 SHL SUB NOT DUP2 MSTORE PUSH1 0x4 DUP2 ADD DUP10 SWAP1 MSTORE PUSH1 0x24 DUP2 ADD DUP6 SWAP1 MSTORE PUSH1 0x44 DUP2 ADD DUP8 SWAP1 MSTORE PUSH1 0x64 ADD PUSH2 0x7E5 JUMP JUMPDEST PUSH0 PUSH2 0xBE1 DUP11 DUP11 DUP11 DUP11 DUP11 DUP11 DUP11 DUP11 PUSH2 0xA57 JUMP JUMPDEST SWAP1 POP PUSH2 0xBED DUP2 DUP6 PUSH2 0xDD6 JUMP JUMPDEST PUSH0 JUMPDEST DUP10 DUP2 LT ISZERO PUSH2 0xCC1 JUMPI PUSH0 DUP12 DUP12 DUP4 DUP2 DUP2 LT PUSH2 0xC0A JUMPI PUSH2 0xC0A PUSH2 0x16D7 JUMP JUMPDEST SWAP1 POP PUSH1 0x20 MUL ADD PUSH1 0x20 DUP2 ADD SWAP1 PUSH2 0xC1F SWAP2 SWAP1 PUSH2 0x16EB JUMP JUMPDEST SWAP1 POP PUSH0 DUP11 DUP11 DUP5 DUP2 DUP2 LT PUSH2 0xC34 JUMPI PUSH2 0xC34 PUSH2 0x16D7 JUMP JUMPDEST SWAP1 POP PUSH1 0x20 MUL ADD CALLDATALOAD SWAP1 POP CALLDATASIZE PUSH0 DUP11 DUP11 DUP7 DUP2 DUP2 LT PUSH2 0xC51 JUMPI PUSH2 0xC51 PUSH2 0x16D7 JUMP JUMPDEST SWAP1 POP PUSH1 0x20 MUL DUP2 ADD SWAP1 PUSH2 0xC63 SWAP2 SWAP1 PUSH2 0x1704 JUMP JUMPDEST SWAP2 POP SWAP2 POP PUSH2 0xC73 DUP5 DUP5 DUP5 DUP5 PUSH2 0xE24 JUMP JUMPDEST DUP5 DUP7 PUSH32 0xC2617EFA69BAB66782FA219543714338489C4E9E178271560A91B82C3F612B58 DUP7 DUP7 DUP7 DUP7 PUSH1 0x40 MLOAD PUSH2 0xCAA SWAP5 SWAP4 SWAP3 SWAP2 SWAP1 PUSH2 0x16A6 JUMP JUMPDEST PUSH1 0x40 MLOAD DUP1 SWAP2 SUB SWAP1 LOG3 POP POP POP POP DUP1 PUSH1 0x1 ADD SWAP1 POP PUSH2 0xBEF JUMP JUMPDEST POP PUSH2 0xCCB DUP2 PUSH2 0xE98 JUMP JUMPDEST POP POP POP POP POP POP POP POP POP POP JUMP JUMPDEST PUSH2 0xCE1 DUP2 CALLER PUSH2 0xD99 JUMP JUMPDEST POP JUMP JUMPDEST PUSH2 0xCED DUP3 PUSH2 0x71C JUMP JUMPDEST ISZERO PUSH2 0xD1E JUMPI DUP2 PUSH2 0xCFC PUSH0 PUSH2 0xFBB JUMP JUMPDEST PUSH1 0x40 MLOAD PUSH4 0x5EAD8EB5 PUSH1 0xE0 SHL DUP2 MSTORE PUSH1 0x4 DUP2 ADD SWAP3 SWAP1 SWAP3 MSTORE PUSH1 0x24 DUP3 ADD MSTORE PUSH1 0x44 ADD PUSH2 0x7E5 JUMP JUMPDEST PUSH0 PUSH2 0xD28 PUSH1 0x2 SLOAD SWAP1 JUMP JUMPDEST SWAP1 POP DUP1 DUP3 LT ISZERO PUSH2 0xD55 JUMPI PUSH1 0x40 MLOAD PUSH4 0x54336609 PUSH1 0xE0 SHL DUP2 MSTORE PUSH1 0x4 DUP2 ADD DUP4 SWAP1 MSTORE PUSH1 0x24 DUP2 ADD DUP3 SWAP1 MSTORE PUSH1 0x44 ADD PUSH2 0x7E5 JUMP JUMPDEST PUSH2 0xD5F DUP3 TIMESTAMP PUSH2 0x1876 JUMP JUMPDEST PUSH0 SWAP4 DUP5 MSTORE PUSH1 0x1 PUSH1 0x20 MSTORE PUSH1 0x40 SWAP1 SWAP4 KECCAK256 SWAP3 SWAP1 SWAP3 SSTORE POP POP JUMP JUMPDEST PUSH0 PUSH1 0x1 PUSH1 0x1 PUSH1 0xE0 SHL SUB NOT DUP3 AND PUSH4 0x2711897 PUSH1 0xE5 SHL EQ DUP1 PUSH2 0x620 JUMPI POP PUSH2 0x620 DUP3 PUSH2 0xFDD JUMP JUMPDEST PUSH2 0xDA3 DUP3 DUP3 PUSH2 0xA2F JUMP JUMPDEST PUSH2 0xDD2 JUMPI PUSH1 0x40 MLOAD PUSH4 0xE2517D3F PUSH1 0xE0 SHL DUP2 MSTORE PUSH1 0x1 PUSH1 0x1 PUSH1 0xA0 SHL SUB DUP3 AND PUSH1 0x4 DUP3 ADD MSTORE PUSH1 0x24 DUP2 ADD DUP4 SWAP1 MSTORE PUSH1 0x44 ADD PUSH2 0x7E5 JUMP JUMPDEST POP POP JUMP JUMPDEST PUSH2 0xDDF DUP3 PUSH2 0x6C5 JUMP JUMPDEST PUSH2 0xDEE JUMPI DUP2 PUSH2 0xCFC PUSH1 0x2 PUSH2 0xFBB JUMP JUMPDEST DUP1 ISZERO DUP1 ISZERO SWAP1 PUSH2 0xE03 JUMPI POP PUSH2 0xE01 DUP2 PUSH2 0x6EA JUMP JUMPDEST ISZERO JUMPDEST ISZERO PUSH2 0xDD2 JUMPI PUSH1 0x40 MLOAD PUSH4 0x121534C3 PUSH1 0xE3 SHL DUP2 MSTORE PUSH1 0x4 DUP2 ADD DUP3 SWAP1 MSTORE PUSH1 0x24 ADD PUSH2 0x7E5 JUMP JUMPDEST PUSH0 DUP1 DUP6 PUSH1 0x1 PUSH1 0x1 PUSH1 0xA0 SHL SUB AND DUP6 DUP6 DUP6 PUSH1 0x40 MLOAD PUSH2 0xE41 SWAP3 SWAP2 SWAP1 PUSH2 0x1895 JUMP JUMPDEST PUSH0 PUSH1 0x40 MLOAD DUP1 DUP4 SUB DUP2 DUP6 DUP8 GAS CALL SWAP3 POP POP POP RETURNDATASIZE DUP1 PUSH0 DUP2 EQ PUSH2 0xE7B JUMPI PUSH1 0x40 MLOAD SWAP2 POP PUSH1 0x1F NOT PUSH1 0x3F RETURNDATASIZE ADD AND DUP3 ADD PUSH1 0x40 MSTORE RETURNDATASIZE DUP3 MSTORE RETURNDATASIZE PUSH0 PUSH1 0x20 DUP5 ADD RETURNDATACOPY PUSH2 0xE80 JUMP JUMPDEST PUSH1 0x60 SWAP2 POP JUMPDEST POP SWAP2 POP SWAP2 POP PUSH2 0xE8F DUP3 DUP3 PUSH2 0x1011 JUMP JUMPDEST POP POP POP POP POP POP POP JUMP JUMPDEST PUSH2 0xEA1 DUP2 PUSH2 0x6C5 JUMP JUMPDEST PUSH2 0xEB0 JUMPI DUP1 PUSH2 0xCFC PUSH1 0x2 PUSH2 0xFBB JUMP JUMPDEST PUSH0 SWAP1 DUP2 MSTORE PUSH1 0x1 PUSH1 0x20 DUP2 SWAP1 MSTORE PUSH1 0x40 SWAP1 SWAP2 KECCAK256 SSTORE JUMP JUMPDEST PUSH0 PUSH2 0xECE DUP4 DUP4 PUSH2 0xA2F JUMP JUMPDEST PUSH2 0xF4B JUMPI PUSH0 DUP4 DUP2 MSTORE PUSH1 0x20 DUP2 DUP2 MSTORE PUSH1 0x40 DUP1 DUP4 KECCAK256 PUSH1 0x1 PUSH1 0x1 PUSH1 0xA0 SHL SUB DUP7 AND DUP5 MSTORE SWAP1 SWAP2 MSTORE SWAP1 KECCAK256 DUP1 SLOAD PUSH1 0xFF NOT AND PUSH1 0x1 OR SWAP1 SSTORE PUSH2 0xF03 CALLER SWAP1 JUMP JUMPDEST PUSH1 0x1 PUSH1 0x1 PUSH1 0xA0 SHL SUB AND DUP3 PUSH1 0x1 PUSH1 0x1 PUSH1 0xA0 SHL SUB AND DUP5 PUSH32 0x2F8788117E7EFF1D82E926EC794901D17C78024A50270940304540A733656F0D PUSH1 0x40 MLOAD PUSH1 0x40 MLOAD DUP1 SWAP2 SUB SWAP1 LOG4 POP PUSH1 0x1 PUSH2 0x620 JUMP JUMPDEST POP PUSH0 PUSH2 0x620 JUMP JUMPDEST PUSH0 PUSH2 0xF5D DUP4 DUP4 PUSH2 0xA2F JUMP JUMPDEST ISZERO PUSH2 0xF4B JUMPI PUSH0 DUP4 DUP2 MSTORE PUSH1 0x20 DUP2 DUP2 MSTORE PUSH1 0x40 DUP1 DUP4 KECCAK256 PUSH1 0x1 PUSH1 0x1 PUSH1 0xA0 SHL SUB DUP7 AND DUP1 DUP6 MSTORE SWAP3 MSTORE DUP1 DUP4 KECCAK256 DUP1 SLOAD PUSH1 0xFF NOT AND SWAP1 SSTORE MLOAD CALLER SWAP3 DUP7 SWAP2 PUSH32 0xF6391F5C32D9C69D2A47EA670B442974B53935D1EDC7FD64EB21E047A839171B SWAP2 SWAP1 LOG4 POP PUSH1 0x1 PUSH2 0x620 JUMP JUMPDEST PUSH0 DUP2 PUSH1 0x3 DUP2 GT ISZERO PUSH2 0xFCE JUMPI PUSH2 0xFCE PUSH2 0x1303 JUMP JUMPDEST PUSH1 0x1 PUSH1 0xFF SWAP2 SWAP1 SWAP2 AND SHL SWAP3 SWAP2 POP POP JUMP JUMPDEST PUSH0 PUSH1 0x1 PUSH1 0x1 PUSH1 0xE0 SHL SUB NOT DUP3 AND PUSH4 0x7965DB0B PUSH1 0xE0 SHL EQ DUP1 PUSH2 0x620 JUMPI POP PUSH4 0x1FFC9A7 PUSH1 0xE0 SHL PUSH1 0x1 PUSH1 0x1 PUSH1 0xE0 SHL SUB NOT DUP4 AND EQ PUSH2 0x620 JUMP JUMPDEST PUSH1 0x60 DUP3 PUSH2 0x1026 JUMPI PUSH2 0x1021 DUP3 PUSH2 0x102D JUMP JUMPDEST PUSH2 0x620 JUMP JUMPDEST POP DUP1 PUSH2 0x620 JUMP JUMPDEST DUP1 MLOAD ISZERO PUSH2 0x103D JUMPI DUP1 MLOAD DUP1 DUP3 PUSH1 0x20 ADD REVERT JUMPDEST PUSH1 0x40 MLOAD PUSH4 0xA12F521 PUSH1 0xE1 SHL DUP2 MSTORE PUSH1 0x4 ADD PUSH1 0x40 MLOAD DUP1 SWAP2 SUB SWAP1 REVERT JUMPDEST DUP1 CALLDATALOAD PUSH1 0x1 PUSH1 0x1 PUSH1 0xA0 SHL SUB DUP2 AND DUP2 EQ PUSH2 0x106C JUMPI PUSH0 DUP1 REVERT JUMPDEST SWAP2 SWAP1 POP JUMP JUMPDEST PUSH0 DUP1 DUP4 PUSH1 0x1F DUP5 ADD SLT PUSH2 0x1081 JUMPI PUSH0 DUP1 REVERT JUMPDEST POP DUP2 CALLDATALOAD PUSH1 0x1 PUSH1 0x1 PUSH1 0x40 SHL SUB DUP2 GT ISZERO PUSH2 0x1097 JUMPI PUSH0 DUP1 REVERT JUMPDEST PUSH1 0x20 DUP4 ADD SWAP2 POP DUP4 PUSH1 0x20 DUP3 DUP6 ADD ADD GT ISZERO PUSH2 0x10AE JUMPI PUSH0 DUP1 REVERT JUMPDEST SWAP3 POP SWAP3 SWAP1 POP JUMP JUMPDEST PUSH0 DUP1 PUSH0 DUP1 PUSH0 DUP1 PUSH0 PUSH1 0xC0 DUP9 DUP11 SUB SLT ISZERO PUSH2 0x10CB JUMPI PUSH0 DUP1 REVERT JUMPDEST PUSH2 0x10D4 DUP9 PUSH2 0x1056 JUMP JUMPDEST SWAP7 POP PUSH1 0x20 DUP9 ADD CALLDATALOAD SWAP6 POP PUSH1 0x40 DUP9 ADD CALLDATALOAD PUSH1 0x1 PUSH1 0x1 PUSH1 0x40 SHL SUB DUP2 GT ISZERO PUSH2 0x10F5 JUMPI PUSH0 DUP1 REVERT JUMPDEST PUSH2 0x1101 DUP11 DUP3 DUP12 ADD PUSH2 0x1071 JUMP JUMPDEST SWAP9 SWAP12 SWAP8 SWAP11 POP SWAP9 PUSH1 0x60 DUP2 ADD CALLDATALOAD SWAP8 PUSH1 0x80 DUP3 ADD CALLDATALOAD SWAP8 POP PUSH1 0xA0 SWAP1 SWAP2 ADD CALLDATALOAD SWAP6 POP SWAP4 POP POP POP POP JUMP JUMPDEST PUSH0 PUSH1 0x20 DUP3 DUP5 SUB SLT ISZERO PUSH2 0x1133 JUMPI PUSH0 DUP1 REVERT JUMPDEST DUP2 CALLDATALOAD PUSH1 0x1 PUSH1 0x1 PUSH1 0xE0 SHL SUB NOT DUP2 AND DUP2 EQ PUSH2 0x7B6 JUMPI PUSH0 DUP1 REVERT JUMPDEST PUSH0 DUP1 PUSH0 DUP1 PUSH0 DUP1 PUSH1 0xA0 DUP8 DUP10 SUB SLT ISZERO PUSH2 0x115F JUMPI PUSH0 DUP1 REVERT JUMPDEST PUSH2 0x1168 DUP8 PUSH2 0x1056 JUMP JUMPDEST SWAP6 POP PUSH1 0x20 DUP8 ADD CALLDATALOAD SWAP5 POP PUSH1 0x40 DUP8 ADD CALLDATALOAD PUSH1 0x1 PUSH1 0x1 PUSH1 0x40 SHL SUB DUP2 GT ISZERO PUSH2 0x1189 JUMPI PUSH0 DUP1 REVERT JUMPDEST PUSH2 0x1195 DUP10 DUP3 DUP11 ADD PUSH2 0x1071 JUMP JUMPDEST SWAP8 SWAP11 SWAP7 SWAP10 POP SWAP8 PUSH1 0x60 DUP2 ADD CALLDATALOAD SWAP7 PUSH1 0x80 SWAP1 SWAP2 ADD CALLDATALOAD SWAP6 POP SWAP4 POP POP POP POP JUMP JUMPDEST PUSH0 PUSH1 0x20 DUP3 DUP5 SUB SLT ISZERO PUSH2 0x11C0 JUMPI PUSH0 DUP1 REVERT JUMPDEST POP CALLDATALOAD SWAP2 SWAP1 POP JUMP JUMPDEST PUSH4 0x4E487B71 PUSH1 0xE0 SHL PUSH0 MSTORE PUSH1 0x41 PUSH1 0x4 MSTORE PUSH1 0x24 PUSH0 REVERT JUMPDEST PUSH1 0x40 MLOAD PUSH1 0x1F DUP3 ADD PUSH1 0x1F NOT AND DUP2 ADD PUSH1 0x1 PUSH1 0x1 PUSH1 0x40 SHL SUB DUP2 GT DUP3 DUP3 LT OR ISZERO PUSH2 0x1203 JUMPI PUSH2 0x1203 PUSH2 0x11C7 JUMP JUMPDEST PUSH1 0x40 MSTORE SWAP2 SWAP1 POP JUMP JUMPDEST PUSH0 DUP3 PUSH1 0x1F DUP4 ADD SLT PUSH2 0x121A JUMPI PUSH0 DUP1 REVERT JUMPDEST DUP2 CALLDATALOAD PUSH1 0x1 PUSH1 0x1 PUSH1 0x40 SHL SUB DUP2 GT ISZERO PUSH2 0x1233 JUMPI PUSH2 0x1233 PUSH2 0x11C7 JUMP JUMPDEST PUSH2 0x1246 PUSH1 0x1F DUP3 ADD PUSH1 0x1F NOT AND PUSH1 0x20 ADD PUSH2 0x11DB JUMP JUMPDEST DUP2 DUP2 MSTORE DUP5 PUSH1 0x20 DUP4 DUP7 ADD ADD GT ISZERO PUSH2 0x125A JUMPI PUSH0 DUP1 REVERT JUMPDEST DUP2 PUSH1 0x20 DUP6 ADD PUSH1 0x20 DUP4 ADD CALLDATACOPY PUSH0 SWAP2 DUP2 ADD PUSH1 0x20 ADD SWAP2 SWAP1 SWAP2 MSTORE SWAP4 SWAP3 POP POP POP JUMP JUMPDEST PUSH0 DUP1 PUSH0 DUP1 PUSH1 0x80 DUP6 DUP8 SUB SLT ISZERO PUSH2 0x1289 JUMPI PUSH0 DUP1 REVERT JUMPDEST PUSH2 0x1292 DUP6 PUSH2 0x1056 JUMP JUMPDEST SWAP4 POP PUSH2 0x12A0 PUSH1 0x20 DUP7 ADD PUSH2 0x1056 JUMP JUMPDEST SWAP3 POP PUSH1 0x40 DUP6 ADD CALLDATALOAD SWAP2 POP PUSH1 0x60 DUP6 ADD CALLDATALOAD PUSH1 0x1 PUSH1 0x1 PUSH1 0x40 SHL SUB DUP2 GT ISZERO PUSH2 0x12C1 JUMPI PUSH0 DUP1 REVERT JUMPDEST PUSH2 0x12CD DUP8 DUP3 DUP9 ADD PUSH2 0x120B JUMP JUMPDEST SWAP2 POP POP SWAP3 SWAP6 SWAP2 SWAP5 POP SWAP3 POP JUMP JUMPDEST PUSH0 DUP1 PUSH1 0x40 DUP4 DUP6 SUB SLT ISZERO PUSH2 0x12EA JUMPI PUSH0 DUP1 REVERT JUMPDEST DUP3 CALLDATALOAD SWAP2 POP PUSH2 0x12FA PUSH1 0x20 DUP5 ADD PUSH2 0x1056 JUMP JUMPDEST SWAP1 POP SWAP3 POP SWAP3 SWAP1 POP JUMP JUMPDEST PUSH4 0x4E487B71 PUSH1 0xE0 SHL PUSH0 MSTORE PUSH1 0x21 PUSH1 0x4 MSTORE PUSH1 0x24 PUSH0 REVERT JUMPDEST PUSH1 0x20 DUP2 ADD PUSH1 0x4 DUP4 LT PUSH2 0x1337 JUMPI PUSH4 0x4E487B71 PUSH1 0xE0 SHL PUSH0 MSTORE PUSH1 0x21 PUSH1 0x4 MSTORE PUSH1 0x24 PUSH0 REVERT JUMPDEST SWAP2 SWAP1 MSTORE SWAP1 JUMP JUMPDEST PUSH0 DUP1 DUP4 PUSH1 0x1F DUP5 ADD SLT PUSH2 0x134D JUMPI PUSH0 DUP1 REVERT JUMPDEST POP DUP2 CALLDATALOAD PUSH1 0x1 PUSH1 0x1 PUSH1 0x40 SHL SUB DUP2 GT ISZERO PUSH2 0x1363 JUMPI PUSH0 DUP1 REVERT JUMPDEST PUSH1 0x20 DUP4 ADD SWAP2 POP DUP4 PUSH1 0x20 DUP3 PUSH1 0x5 SHL DUP6 ADD ADD GT ISZERO PUSH2 0x10AE JUMPI PUSH0 DUP1 REVERT JUMPDEST PUSH0 DUP1 PUSH0 DUP1 PUSH0 DUP1 PUSH0 DUP1 PUSH0 PUSH1 0xC0 DUP11 DUP13 SUB SLT ISZERO PUSH2 0x1395 JUMPI PUSH0 DUP1 REVERT JUMPDEST DUP10 CALLDATALOAD PUSH1 0x1 PUSH1 0x1 PUSH1 0x40 SHL SUB DUP1 DUP3 GT ISZERO PUSH2 0x13AB JUMPI PUSH0 DUP1 REVERT JUMPDEST PUSH2 0x13B7 DUP14 DUP4 DUP15 ADD PUSH2 0x133D JUMP JUMPDEST SWAP1 SWAP12 POP SWAP10 POP PUSH1 0x20 DUP13 ADD CALLDATALOAD SWAP2 POP DUP1 DUP3 GT ISZERO PUSH2 0x13CF JUMPI PUSH0 DUP1 REVERT JUMPDEST PUSH2 0x13DB DUP14 DUP4 DUP15 ADD PUSH2 0x133D JUMP JUMPDEST SWAP1 SWAP10 POP SWAP8 POP PUSH1 0x40 DUP13 ADD CALLDATALOAD SWAP2 POP DUP1 DUP3 GT ISZERO PUSH2 0x13F3 JUMPI PUSH0 DUP1 REVERT JUMPDEST POP PUSH2 0x1400 DUP13 DUP3 DUP14 ADD PUSH2 0x133D JUMP JUMPDEST SWAP11 SWAP14 SWAP10 SWAP13 POP SWAP8 SWAP11 SWAP7 SWAP10 SWAP8 SWAP9 PUSH1 0x60 DUP9 ADD CALLDATALOAD SWAP8 PUSH1 0x80 DUP2 ADD CALLDATALOAD SWAP8 POP PUSH1 0xA0 ADD CALLDATALOAD SWAP6 POP SWAP4 POP POP POP POP JUMP JUMPDEST PUSH0 DUP1 PUSH0 DUP1 PUSH0 DUP1 PUSH0 DUP1 PUSH1 0xA0 DUP10 DUP12 SUB SLT ISZERO PUSH2 0x143C JUMPI PUSH0 DUP1 REVERT JUMPDEST DUP9 CALLDATALOAD PUSH1 0x1 PUSH1 0x1 PUSH1 0x40 SHL SUB DUP1 DUP3 GT ISZERO PUSH2 0x1452 JUMPI PUSH0 DUP1 REVERT JUMPDEST PUSH2 0x145E DUP13 DUP4 DUP14 ADD PUSH2 0x133D JUMP JUMPDEST SWAP1 SWAP11 POP SWAP9 POP PUSH1 0x20 DUP12 ADD CALLDATALOAD SWAP2 POP DUP1 DUP3 GT ISZERO PUSH2 0x1476 JUMPI PUSH0 DUP1 REVERT JUMPDEST PUSH2 0x1482 DUP13 DUP4 DUP14 ADD PUSH2 0x133D JUMP JUMPDEST SWAP1 SWAP9 POP SWAP7 POP PUSH1 0x40 DUP12 ADD CALLDATALOAD SWAP2 POP DUP1 DUP3 GT ISZERO PUSH2 0x149A JUMPI PUSH0 DUP1 REVERT JUMPDEST POP PUSH2 0x14A7 DUP12 DUP3 DUP13 ADD PUSH2 0x133D JUMP JUMPDEST SWAP10 SWAP13 SWAP9 SWAP12 POP SWAP7 SWAP10 SWAP6 SWAP9 SWAP7 SWAP8 PUSH1 0x60 DUP8 ADD CALLDATALOAD SWAP7 PUSH1 0x80 ADD CALLDATALOAD SWAP6 POP SWAP4 POP POP POP POP JUMP JUMPDEST PUSH0 DUP3 PUSH1 0x1F DUP4 ADD SLT PUSH2 0x14D4 JUMPI PUSH0 DUP1 REVERT JUMPDEST DUP2 CALLDATALOAD PUSH1 0x20 PUSH1 0x1 PUSH1 0x1 PUSH1 0x40 SHL SUB DUP3 GT ISZERO PUSH2 0x14EF JUMPI PUSH2 0x14EF PUSH2 0x11C7 JUMP JUMPDEST DUP2 PUSH1 0x5 SHL PUSH2 0x14FE DUP3 DUP3 ADD PUSH2 0x11DB JUMP JUMPDEST SWAP3 DUP4 MSTORE DUP5 DUP2 ADD DUP3 ADD SWAP3 DUP3 DUP2 ADD SWAP1 DUP8 DUP6 GT ISZERO PUSH2 0x1517 JUMPI PUSH0 DUP1 REVERT JUMPDEST DUP4 DUP8 ADD SWAP3 POP JUMPDEST DUP5 DUP4 LT ISZERO PUSH2 0x1536 JUMPI DUP3 CALLDATALOAD DUP3 MSTORE SWAP2 DUP4 ADD SWAP2 SWAP1 DUP4 ADD SWAP1 PUSH2 0x151D JUMP JUMPDEST SWAP8 SWAP7 POP POP POP POP POP POP POP JUMP JUMPDEST PUSH0 DUP1 PUSH0 DUP1 PUSH0 PUSH1 0xA0 DUP7 DUP9 SUB SLT ISZERO PUSH2 0x1555 JUMPI PUSH0 DUP1 REVERT JUMPDEST PUSH2 0x155E DUP7 PUSH2 0x1056 JUMP JUMPDEST SWAP5 POP PUSH2 0x156C PUSH1 0x20 DUP8 ADD PUSH2 0x1056 JUMP JUMPDEST SWAP4 POP PUSH1 0x40 DUP7 ADD CALLDATALOAD PUSH1 0x1 PUSH1 0x1 PUSH1 0x40 SHL SUB DUP1 DUP3 GT ISZERO PUSH2 0x1587 JUMPI PUSH0 DUP1 REVERT JUMPDEST PUSH2 0x1593 DUP10 DUP4 DUP11 ADD PUSH2 0x14C5 JUMP JUMPDEST SWAP5 POP PUSH1 0x60 DUP9 ADD CALLDATALOAD SWAP2 POP DUP1 DUP3 GT ISZERO PUSH2 0x15A8 JUMPI PUSH0 DUP1 REVERT JUMPDEST PUSH2 0x15B4 DUP10 DUP4 DUP11 ADD PUSH2 0x14C5 JUMP JUMPDEST SWAP4 POP PUSH1 0x80 DUP9 ADD CALLDATALOAD SWAP2 POP DUP1 DUP3 GT ISZERO PUSH2 0x15C9 JUMPI PUSH0 DUP1 REVERT JUMPDEST POP PUSH2 0x15D6 DUP9 DUP3 DUP10 ADD PUSH2 0x120B JUMP JUMPDEST SWAP2 POP POP SWAP3 SWAP6 POP SWAP3 SWAP6 SWAP1 SWAP4 POP JUMP JUMPDEST PUSH0 DUP1 PUSH0 DUP1 PUSH0 PUSH1 0xA0 DUP7 DUP9 SUB SLT ISZERO PUSH2 0x15F7 JUMPI PUSH0 DUP1 REVERT JUMPDEST PUSH2 0x1600 DUP7 PUSH2 0x1056 JUMP JUMPDEST SWAP5 POP PUSH2 0x160E PUSH1 0x20 DUP8 ADD PUSH2 0x1056 JUMP JUMPDEST SWAP4 POP PUSH1 0x40 DUP7 ADD CALLDATALOAD SWAP3 POP PUSH1 0x60 DUP7 ADD CALLDATALOAD SWAP2 POP PUSH1 0x80 DUP7 ADD CALLDATALOAD PUSH1 0x1 PUSH1 0x1 PUSH1 0x40 SHL SUB DUP2 GT ISZERO PUSH2 0x1636 JUMPI PUSH0 DUP1 REVERT JUMPDEST PUSH2 0x15D6 DUP9 DUP3 DUP10 ADD PUSH2 0x120B JUMP JUMPDEST DUP2 DUP4 MSTORE DUP2 DUP2 PUSH1 0x20 DUP6 ADD CALLDATACOPY POP PUSH0 DUP3 DUP3 ADD PUSH1 0x20 SWAP1 DUP2 ADD SWAP2 SWAP1 SWAP2 MSTORE PUSH1 0x1F SWAP1 SWAP2 ADD PUSH1 0x1F NOT AND SWAP1 SWAP2 ADD ADD SWAP1 JUMP JUMPDEST PUSH1 0x1 DUP1 PUSH1 0xA0 SHL SUB DUP8 AND DUP2 MSTORE DUP6 PUSH1 0x20 DUP3 ADD MSTORE PUSH1 0xA0 PUSH1 0x40 DUP3 ADD MSTORE PUSH0 PUSH2 0x1691 PUSH1 0xA0 DUP4 ADD DUP7 DUP9 PUSH2 0x1642 JUMP JUMPDEST PUSH1 0x60 DUP4 ADD SWAP5 SWAP1 SWAP5 MSTORE POP PUSH1 0x80 ADD MSTORE SWAP5 SWAP4 POP POP POP POP JUMP JUMPDEST PUSH1 0x1 DUP1 PUSH1 0xA0 SHL SUB DUP6 AND DUP2 MSTORE DUP4 PUSH1 0x20 DUP3 ADD MSTORE PUSH1 0x60 PUSH1 0x40 DUP3 ADD MSTORE PUSH0 PUSH2 0x16CD PUSH1 0x60 DUP4 ADD DUP5 DUP7 PUSH2 0x1642 JUMP JUMPDEST SWAP7 SWAP6 POP POP POP POP POP POP JUMP JUMPDEST PUSH4 0x4E487B71 PUSH1 0xE0 SHL PUSH0 MSTORE PUSH1 0x32 PUSH1 0x4 MSTORE PUSH1 0x24 PUSH0 REVERT JUMPDEST PUSH0 PUSH1 0x20 DUP3 DUP5 SUB SLT ISZERO PUSH2 0x16FB JUMPI PUSH0 DUP1 REVERT JUMPDEST PUSH2 0x7B6 DUP3 PUSH2 0x1056 JUMP JUMPDEST PUSH0 DUP1 DUP4 CALLDATALOAD PUSH1 0x1E NOT DUP5 CALLDATASIZE SUB ADD DUP2 SLT PUSH2 0x1719 JUMPI PUSH0 DUP1 REVERT JUMPDEST DUP4 ADD DUP1 CALLDATALOAD SWAP2 POP PUSH1 0x1 PUSH1 0x1 PUSH1 0x40 SHL SUB DUP3 GT ISZERO PUSH2 0x1732 JUMPI PUSH0 DUP1 REVERT JUMPDEST PUSH1 0x20 ADD SWAP2 POP CALLDATASIZE DUP2 SWAP1 SUB DUP3 SGT ISZERO PUSH2 0x10AE JUMPI PUSH0 DUP1 REVERT JUMPDEST PUSH0 DUP4 DUP4 DUP6 MSTORE PUSH1 0x20 DUP1 DUP7 ADD SWAP6 POP PUSH1 0x20 DUP6 PUSH1 0x5 SHL DUP4 ADD ADD DUP5 PUSH0 JUMPDEST DUP8 DUP2 LT ISZERO PUSH2 0x17CA JUMPI DUP5 DUP4 SUB PUSH1 0x1F NOT ADD DUP10 MSTORE DUP2 CALLDATALOAD CALLDATASIZE DUP9 SWAP1 SUB PUSH1 0x1E NOT ADD DUP2 SLT PUSH2 0x1783 JUMPI PUSH0 DUP1 REVERT JUMPDEST DUP8 ADD DUP5 DUP2 ADD SWAP1 CALLDATALOAD PUSH1 0x1 PUSH1 0x1 PUSH1 0x40 SHL SUB DUP2 GT ISZERO PUSH2 0x179D JUMPI PUSH0 DUP1 REVERT JUMPDEST DUP1 CALLDATASIZE SUB DUP3 SGT ISZERO PUSH2 0x17AB JUMPI PUSH0 DUP1 REVERT JUMPDEST PUSH2 0x17B6 DUP6 DUP3 DUP5 PUSH2 0x1642 JUMP JUMPDEST SWAP11 DUP7 ADD SWAP11 SWAP5 POP POP POP SWAP1 DUP4 ADD SWAP1 PUSH1 0x1 ADD PUSH2 0x175E JUMP JUMPDEST POP SWAP1 SWAP8 SWAP7 POP POP POP POP POP POP POP JUMP JUMPDEST PUSH1 0xA0 DUP1 DUP3 MSTORE DUP2 ADD DUP9 SWAP1 MSTORE PUSH0 DUP10 PUSH1 0xC0 DUP4 ADD DUP3 JUMPDEST DUP12 DUP2 LT ISZERO PUSH2 0x1817 JUMPI PUSH1 0x1 PUSH1 0x1 PUSH1 0xA0 SHL SUB PUSH2 0x1802 DUP5 PUSH2 0x1056 JUMP JUMPDEST AND DUP3 MSTORE PUSH1 0x20 SWAP3 DUP4 ADD SWAP3 SWAP1 SWAP2 ADD SWAP1 PUSH1 0x1 ADD PUSH2 0x17E9 JUMP JUMPDEST POP DUP4 DUP2 SUB PUSH1 0x20 DUP6 ADD MSTORE DUP9 DUP2 MSTORE PUSH1 0x1 PUSH1 0x1 PUSH1 0xFB SHL SUB DUP10 GT ISZERO PUSH2 0x1836 JUMPI PUSH0 DUP1 REVERT JUMPDEST DUP9 PUSH1 0x5 SHL SWAP2 POP DUP2 DUP11 PUSH1 0x20 DUP4 ADD CALLDATACOPY ADD DUP3 DUP2 SUB PUSH1 0x20 SWAP1 DUP2 ADD PUSH1 0x40 DUP6 ADD MSTORE PUSH2 0x185E SWAP1 DUP3 ADD DUP8 DUP10 PUSH2 0x1746 JUMP JUMPDEST PUSH1 0x60 DUP5 ADD SWAP6 SWAP1 SWAP6 MSTORE POP POP PUSH1 0x80 ADD MSTORE SWAP7 SWAP6 POP POP POP POP POP POP JUMP JUMPDEST DUP1 DUP3 ADD DUP1 DUP3 GT ISZERO PUSH2 0x620 JUMPI PUSH4 0x4E487B71 PUSH1 0xE0 SHL PUSH0 MSTORE PUSH1 0x11 PUSH1 0x4 MSTORE PUSH1 0x24 PUSH0 REVERT JUMPDEST DUP2 DUP4 DUP3 CALLDATACOPY PUSH0 SWAP2 ADD SWAP1 DUP2 MSTORE SWAP2 SWAP1 POP JUMP INVALID 0xB0 SWAP11 0xA5 0xAE 0xB3 PUSH17 0x2CFD50B6B62BC4532604938F21248A27A1 0xD5 0xCA PUSH20 0x6082B6819CC1D8AA0F3194971A2A116679F7C209 0xF PUSH10 0x39C8D4E01A2A8D7E41D5 MCOPY MSTORE8 MLOAD CHAINID SWAP15 PUSH4 0xA2646970 PUSH7 0x735822122002C0 0xAC PUSH4 0x41CBF772 PUSH26 0xA38896FD642374AC5906F723978DC38F528751912883D564736F PUSH13 0x63430008180033A26469706673 PC 0x22 SLT KECCAK256 0xC2 SWAP16 PUSH13 0x760FA3D651CC11DFC881AB37E5 0xC0 KECCAK256 PUSH28 0x1A839A2F9A812F03D8CC5800AD64736F6C6343000818003300000000 "
		},
		"gasEstimates": {
			"creation": {
				"codeDepositCost": "1592200",
				"executionCost": "1664",
				"totalCost": "1593864"
			},
			"external": {
				"deployTimelock(address)": "infinite",
				"deployedTimelocks(uint256)": "4576"
			}
		},
		"methodIdentifiers": {
			"deployTimelock(address)": "ec6bed0b",
			"deployedTimelocks(uint256)": "1ecbdf63"
		}
	},
	"abi": [
		{
			"inputs": [
				{
					"internalType": "address",
					"name": "admin",
					"type": "address"
				}
			],
			"name": "deployTimelock",
			"outputs": [
				{
					"internalType": "address",
					"name": "",
					"type": "address"
				}
			],
			"stateMutability": "nonpayable",
			"type": "function"
		},
		{
			"inputs": [
				{
					"internalType": "uint256",
					"name": "",
					"type": "uint256"
				}
			],
			"name": "deployedTimelocks",
			"outputs": [
				{
					"internalType": "address",
					"name": "",
					"type": "address"
				}
			],
			"stateMutability": "view",
			"type": "function"
		}
	]
}