{
	"data": {
		"bytecode": {
			"linkReferences": {},
			"object": "608060405234801561000f575f80fd5b506131878061001d5f395ff3fe608060405234801562000010575f80fd5b506004361062000038575f3560e01c8063cdcc9d55146200003c578063ec81aadb146200006f575b5f80fd5b620000536200004d366004620002a0565b62000086565b6040516001600160a01b03909116815260200160405180910390f35b6200005362000080366004620003be565b62000115565b5f80858585856040516200009a906200013d565b620000a994939291906200041b565b604051809103905ff080158015620000c3573d5f803e3d5ffd5b505f80546001810182559080527f290decd9548b62a8d60345a988386fc84ba6bc95484008f6362f93160ef3e5630180546001600160a01b0319166001600160a01b0383161790559695505050505050565b5f818154811062000124575f80fd5b5f918252602090912001546001600160a01b0316905081565b612c8780620004cb83390190565b634e487b7160e01b5f52604160045260245ffd5b604051601f8201601f1916810167ffffffffffffffff811182821017156200018b576200018b6200014b565b604052919050565b5f82601f830112620001a3575f80fd5b813567ffffffffffffffff811115620001c057620001c06200014b565b620001d5601f8201601f19166020016200015f565b818152846020838601011115620001ea575f80fd5b816020850160208301375f918101602001919091529392505050565b5f67ffffffffffffffff8211156200022257620002226200014b565b5060051b60200190565b5f82601f8301126200023c575f80fd5b81356020620002556200024f8362000206565b6200015f565b8083825260208201915060208460051b87010193508684111562000277575f80fd5b602086015b848110156200029557803583529183019183016200027c565b509695505050505050565b5f805f8060808587031215620002b4575f80fd5b843567ffffffffffffffff80821115620002cc575f80fd5b620002da8883890162000193565b9550602091508187013581811115620002f1575f80fd5b620002ff89828a0162000193565b95505060408701358181111562000314575f80fd5b8701601f8101891362000325575f80fd5b8035620003366200024f8262000206565b81815260059190911b8201840190848101908b83111562000355575f80fd5b928501925b828410156200038a5783356001600160a01b03811681146200037a575f80fd5b825292850192908501906200035a565b96505050506060870135915080821115620003a3575f80fd5b50620003b2878288016200022c565b91505092959194509250565b5f60208284031215620003cf575f80fd5b5035919050565b5f81518084525f5b81811015620003fc57602081850181015186830182015201620003de565b505f602082860101526020601f19601f83011685010191505092915050565b608081525f6200042f6080830187620003d6565b602083820381850152620004448288620003d6565b848103604086015286518082528288019350908201905f5b81811015620004835784516001600160a01b0316835293830193918301916001016200045c565b5050848103606086015285518082529082019250818601905f5b81811015620004bb578251855293830193918301916001016200049d565b5092999850505050505050505056fe61016060405234801562000011575f80fd5b5060405162002c8738038062002c87833981016040819052620000349162000ac3565b6040805180820190915260018152603160f81b6020820152849081908186600362000060838262000c6a565b5060046200006f828262000c6a565b50620000819150839050600562000221565b610120526200009281600662000221565b61014052815160208084019190912060e052815190820120610100524660a0526200011f60e05161010051604080517f8b73c3c69bb8fe3d512ecc4cf759cc79239f7b179b0ffacaa9a75d522b39400f60208201529081019290925260608201524660808201523060a08201525f9060c00160405160208183030381529060405280519060200120905090565b60805250503060c052508051825114620001995760405162461bcd60e51b815260206004820152603060248201527f696e697469616c416d6f756e7473206d757374206265206173206d616e79206160448201526f7320696e697469616c4d656d6265727360801b60648201526084015b60405180910390fd5b5f5b82518163ffffffff161015620002165762000201838263ffffffff1681518110620001ca57620001ca62000d36565b6020026020010151838363ffffffff1681518110620001ed57620001ed62000d36565b60200260200101516200025960201b60201c565b806200020d8162000d5e565b9150506200019b565b505050505062000e54565b5f6020835110156200024057620002388362000295565b905062000253565b816200024d848262000c6a565b5060ff90505b92915050565b6001600160a01b038216620002845760405163ec442f0560e01b81525f600482015260240162000190565b620002915f8383620002d7565b5050565b5f80829050601f81511115620002c2578260405163305a27a960e01b815260040162000190919062000d83565b8051620002cf8262000db7565b179392505050565b620002e4838383620002e9565b505050565b620002f683838362000357565b6001600160a01b0383166200034a575f6200031060025490565b90506001600160d01b03808211156200034757604051630e58ae9360e11b8152600481018390526024810182905260440162000190565b50505b620002e483838362000486565b6001600160a01b03831662000385578060025f82825462000379919062000ddb565b90915550620003f79050565b6001600160a01b0383165f9081526020819052604090205481811015620003d95760405163391434e360e21b81526001600160a01b0385166004820152602481018290526044810183905260640162000190565b6001600160a01b0384165f9081526020819052604090209082900390555b6001600160a01b038216620004155760028054829003905562000433565b6001600160a01b0382165f9081526020819052604090208054820190555b816001600160a01b0316836001600160a01b03167fddf252ad1be2c89b69c2b068fc378daa952ba7f163c4a11628f55a4df523b3ef836040516200047991815260200190565b60405180910390a3505050565b6001600160a01b038316620004bb57620004b8600a620008cf6200051d60201b17620004b28462000531565b6200056a565b50505b6001600160a01b038216620004ea57620004e7600a620008da620005a660201b17620004b28462000531565b50505b6001600160a01b038381165f90815260086020526040808220548584168352912054620002e492918216911683620005b3565b5f6200052a828462000df1565b9392505050565b5f6001600160d01b0382111562000566576040516306dfcc6560e41b815260d060048201526024810183905260440162000190565b5090565b5f80620005996200057a62000715565b62000590620005898862000725565b868860201c565b87919062000771565b915091505b935093915050565b5f6200052a828462000e1b565b816001600160a01b0316836001600160a01b031614158015620005d557505f81115b15620002e4576001600160a01b0383161562000676576001600160a01b0383165f90815260096020908152604082208291620006229190620005a6901b620008da17620004b28662000531565b6001600160d01b031691506001600160d01b03169150846001600160a01b03165f8051602062002c6783398151915283836040516200066b929190918252602082015260400190565b60405180910390a250505b6001600160a01b03821615620002e4576001600160a01b0382165f90815260096020908152604082208291620006bd91906200051d901b620008cf17620004b28662000531565b6001600160d01b031691506001600160d01b03169150836001600160a01b03165f8051602062002c67833981519152838360405162000706929190918252602082015260400190565b60405180910390a25050505050565b5f6200072062000780565b905090565b80545f90801562000769576200074f836200074260018462000e3e565b5f91825260209091200190565b54660100000000000090046001600160d01b03166200052a565b5f9392505050565b5f80620005998585856200078c565b5f62000720436200091a565b82545f9081908015620008bc575f620007ac876200074260018562000e3e565b60408051808201909152905465ffffffffffff80821680845266010000000000009092046001600160d01b0316602084015291925090871610156200080457604051632520601d60e01b815260040160405180910390fd5b805165ffffffffffff8088169116036200085857846200082b886200074260018662000e3e565b80546001600160d01b039290921666010000000000000265ffffffffffff909216919091179055620008ab565b6040805180820190915265ffffffffffff80881682526001600160d01b0380881660208085019182528b54600181018d555f8d815291909120945191519092166601000000000000029216919091179101555b6020015192508391506200059e9050565b50506040805180820190915265ffffffffffff80851682526001600160d01b0380851660208085019182528854600181018a555f8a81529182209551925190931666010000000000000291909316179201919091559050816200059e565b5f65ffffffffffff82111562000566576040516306dfcc6560e41b8152603060048201526024810183905260440162000190565b634e487b7160e01b5f52604160045260245ffd5b604051601f8201601f191681016001600160401b03811182821017156200098d576200098d6200094e565b604052919050565b5f5b83811015620009b157818101518382015260200162000997565b50505f910152565b5f82601f830112620009c9575f80fd5b81516001600160401b03811115620009e557620009e56200094e565b620009fa601f8201601f191660200162000962565b81815284602083860101111562000a0f575f80fd5b62000a2282602083016020870162000995565b949350505050565b5f6001600160401b0382111562000a455762000a456200094e565b5060051b60200190565b5f82601f83011262000a5f575f80fd5b8151602062000a7862000a728362000a2a565b62000962565b8083825260208201915060208460051b87010193508684111562000a9a575f80fd5b602086015b8481101562000ab8578051835291830191830162000a9f565b509695505050505050565b5f805f806080858703121562000ad7575f80fd5b84516001600160401b038082111562000aee575f80fd5b62000afc88838901620009b9565b955060209150818701518181111562000b13575f80fd5b62000b2189828a01620009b9565b95505060408701518181111562000b36575f80fd5b8701601f8101891362000b47575f80fd5b805162000b5862000a728262000a2a565b81815260059190911b8201840190848101908b83111562000b77575f80fd5b928501925b8284101562000bac5783516001600160a01b038116811462000b9c575f80fd5b8252928501929085019062000b7c565b60608b015190975094505050508082111562000bc6575f80fd5b5062000bd58782880162000a4f565b91505092959194509250565b600181811c9082168062000bf657607f821691505b60208210810362000c1557634e487b7160e01b5f52602260045260245ffd5b50919050565b601f821115620002e457805f5260205f20601f840160051c8101602085101562000c425750805b601f840160051c820191505b8181101562000c63575f815560010162000c4e565b5050505050565b81516001600160401b0381111562000c865762000c866200094e565b62000c9e8162000c97845462000be1565b8462000c1b565b602080601f83116001811462000cd4575f841562000cbc5750858301515b5f19600386901b1c1916600185901b17855562000d2e565b5f85815260208120601f198616915b8281101562000d045788860151825594840194600190910190840162000ce3565b508582101562000d2257878501515f19600388901b60f8161c191681555b505060018460011b0185555b505050505050565b634e487b7160e01b5f52603260045260245ffd5b634e487b7160e01b5f52601160045260245ffd5b5f63ffffffff80831681810362000d795762000d7962000d4a565b6001019392505050565b602081525f825180602084015262000da381604085016020870162000995565b601f01601f19169190910160400192915050565b8051602080830151919081101562000c15575f1960209190910360031b1b16919050565b8082018082111562000253576200025362000d4a565b6001600160d01b0381811683821601908082111562000e145762000e1462000d4a565b5092915050565b6001600160d01b0382811682821603908082111562000e145762000e1462000d4a565b8181038181111562000253576200025362000d4a565b60805160a05160c05160e051610100516101205161014051611dc162000ea65f395f610cdc01525f610caf01525f610a7d01525f610a5501525f6109b001525f6109da01525f610a040152611dc15ff3fe608060405234801561000f575f80fd5b5060043610610153575f3560e01c806370a08231116100bf5780639ab24eb0116100795780639ab24eb0146102ef578063a9059cbb14610302578063c3cda52014610315578063d505accf14610328578063dd62ed3e1461033b578063f1127ed81461034e575f80fd5b806370a082311461025f5780637ecebe001461028757806384b0196e1461029a5780638e539e8c146102b557806391ddadf4146102c857806395d89b41146102e7575f80fd5b80633a46b1a8116101105780633a46b1a8146101d457806340c10f19146101e75780634bf5d7e9146101fc578063587cde1e146102045780635c19a95c146102245780636fcfff4514610237575f80fd5b806306fdde0314610157578063095ea7b31461017557806318160ddd1461019857806323b872dd146101aa578063313ce567146101bd5780633644e515146101cc575b5f80fd5b61015f61038d565b60405161016c91906119b6565b60405180910390f35b6101886101833660046119e3565b61041d565b604051901515815260200161016c565b6002545b60405190815260200161016c565b6101886101b8366004611a0b565b610436565b6040516012815260200161016c565b61019c610459565b61019c6101e23660046119e3565b610467565b6101fa6101f53660046119e3565b6104eb565b005b61015f6104f9565b610217610212366004611a44565b610571565b60405161016c9190611a5d565b6101fa610232366004611a44565b61058e565b61024a610245366004611a44565b610599565b60405163ffffffff909116815260200161016c565b61019c61026d366004611a44565b6001600160a01b03165f9081526020819052604090205490565b61019c610295366004611a44565b6105a3565b6102a26105ad565b60405161016c9796959493929190611a71565b61019c6102c3366004611b08565b6105ef565b6102d0610658565b60405165ffffffffffff909116815260200161016c565b61015f610661565b61019c6102fd366004611a44565b610670565b6101886103103660046119e3565b61069f565b6101fa610323366004611b2f565b6106ac565b6101fa610336366004611b83565b610768565b61019c610349366004611be8565b610881565b61036161035c366004611c19565b6108ab565b60408051825165ffffffffffff1681526020928301516001600160d01b0316928101929092520161016c565b60606003805461039c90611c56565b80601f01602080910402602001604051908101604052809291908181526020018280546103c890611c56565b80156104135780601f106103ea57610100808354040283529160200191610413565b820191905f5260205f20905b8154815290600101906020018083116103f657829003601f168201915b5050505050905090565b5f3361042a8185856108e5565b60019150505b92915050565b5f336104438582856108f7565b61044e858585610947565b506001949350505050565b5f6104626109a4565b905090565b5f80610471610658565b90508065ffffffffffff1683106104b157604051637669fc0f60e11b81526004810184905265ffffffffffff821660248201526044015b60405180910390fd5b6104da6104bd84610acd565b6001600160a01b0386165f90815260096020526040902090610b03565b6001600160d01b0316949350505050565b6104f58282610bb3565b5050565b6060610503610be7565b65ffffffffffff16610513610658565b65ffffffffffff1614610539576040516301bfc1c560e61b815260040160405180910390fd5b5060408051808201909152601d81527f6d6f64653d626c6f636b6e756d6265722666726f6d3d64656661756c74000000602082015290565b6001600160a01b039081165f908152600860205260409020541690565b336104f58183610bf1565b5f61043082610c6a565b5f61043082610c8b565b5f6060805f805f60606105be610ca8565b6105c6610cd5565b604080515f80825260208201909252600f60f81b9b939a50919850469750309650945092509050565b5f806105f9610658565b90508065ffffffffffff16831061063457604051637669fc0f60e11b81526004810184905265ffffffffffff821660248201526044016104a8565b61064861064084610acd565b600a90610b03565b6001600160d01b03169392505050565b5f610462610be7565b60606004805461039c90611c56565b6001600160a01b0381165f90815260096020526040812061069090610d02565b6001600160d01b031692915050565b5f3361042a818585610947565b834211156106d057604051632341d78760e11b8152600481018590526024016104a8565b604080517fe48329057bfd03d55e49b547132e39cffd9c1820ad7b9d4c5307691425d15adf60208201526001600160a01b0388169181019190915260608101869052608081018590525f90610749906107419060a00160405160208183030381529060405280519060200120610d39565b858585610d65565b90506107558187610d91565b61075f8188610bf1565b50505050505050565b8342111561078c5760405163313c898160e11b8152600481018590526024016104a8565b5f7f6e71edae12b1b97f4d1f60370fef10105fa2faae0126114a169c64845d6126c98888886107ba8c610dcf565b6040805160208101969096526001600160a01b0394851690860152929091166060840152608083015260a082015260c0810186905260e0016040516020818303038152906040528051906020012090505f61081482610d39565b90505f61082382878787610d65565b9050896001600160a01b0316816001600160a01b03161461086a576040516325c0072360e11b81526001600160a01b0380831660048301528b1660248201526044016104a8565b6108758a8a8a6108e5565b50505050505050505050565b6001600160a01b039182165f90815260016020908152604080832093909416825291909152205490565b604080518082019091525f80825260208201526108c88383610df1565b9392505050565b5f6108c88284611ca2565b5f6108c88284611cc9565b6108f28383836001610e25565b505050565b5f6109028484610881565b90505f198114610941578181101561093357828183604051637dc7a0d960e11b81526004016104a893929190611ce9565b61094184848484035f610e25565b50505050565b6001600160a01b038316610970575f604051634b637e8f60e11b81526004016104a89190611a5d565b6001600160a01b038216610999575f60405163ec442f0560e01b81526004016104a89190611a5d565b6108f2838383610ef7565b5f306001600160a01b037f0000000000000000000000000000000000000000000000000000000000000000161480156109fc57507f000000000000000000000000000000000000000000000000000000000000000046145b15610a2657507f000000000000000000000000000000000000000000000000000000000000000090565b610462604080517f8b73c3c69bb8fe3d512ecc4cf759cc79239f7b179b0ffacaa9a75d522b39400f60208201527f0000000000000000000000000000000000000000000000000000000000000000918101919091527f000000000000000000000000000000000000000000000000000000000000000060608201524660808201523060a08201525f9060c00160405160208183030381529060405280519060200120905090565b5f65ffffffffffff821115610aff576040516306dfcc6560e41b815260306004820152602481018390526044016104a8565b5090565b81545f9081816005811115610b5f575f610b1c84610f02565b610b269085611d0a565b5f8881526020902090915081015465ffffffffffff9081169087161015610b4f57809150610b5d565b610b5a816001611d1d565b92505b505b5f610b6c87878585610fe6565b90508015610ba657610b9087610b83600184611d0a565b5f91825260209091200190565b54600160301b90046001600160d01b0316610ba8565b5f5b979650505050505050565b6001600160a01b038216610bdc575f60405163ec442f0560e01b81526004016104a89190611a5d565b6104f55f8383610ef7565b5f61046243610acd565b5f610bfb83610571565b6001600160a01b038481165f8181526008602052604080822080546001600160a01b031916888616908117909155905194955093928516927f3134e8a2e6d97e929a7e54011ea5485d7d196dd5f0ba4d4ef95803e8e3fc257f9190a46108f28183610c6586611045565b611062565b6001600160a01b0381165f90815260096020526040812054610430906111cb565b6001600160a01b0381165f90815260076020526040812054610430565b60606104627f000000000000000000000000000000000000000000000000000000000000000060056111fb565b60606104627f000000000000000000000000000000000000000000000000000000000000000060066111fb565b80545f908015610d3157610d1b83610b83600184611d0a565b54600160301b90046001600160d01b03166108c8565b5f9392505050565b5f610430610d456109a4565b8360405161190160f01b8152600281019290925260228201526042902090565b5f805f80610d75888888886112a4565b925092509250610d858282611362565b50909695505050505050565b5f610d9b83610dcf565b90508082146108f2576040516301d4b62360e61b81526001600160a01b0384166004820152602481018290526044016104a8565b6001600160a01b03165f90815260076020526040902080546001810190915590565b604080518082019091525f80825260208201526001600160a01b0383165f9081526009602052604090206108c8908361141a565b6001600160a01b038416610e4e575f60405163e602df0560e01b81526004016104a89190611a5d565b6001600160a01b038316610e77575f604051634a1406b160e11b81526004016104a89190611a5d565b6001600160a01b038085165f908152600160209081526040808320938716835292905220829055801561094157826001600160a01b0316846001600160a01b03167f8c5be1e5ebec7d5bd14f71427d1e84f3dd0314c0f7b2291e5b200ac8c7c3b92584604051610ee991815260200190565b60405180910390a350505050565b6108f2838383611487565b5f815f03610f1157505f919050565b5f6001610f1d846114ed565b901c6001901b90506001818481610f3657610f36611d30565b048201901c90506001818481610f4e57610f4e611d30565b048201901c90506001818481610f6657610f66611d30565b048201901c90506001818481610f7e57610f7e611d30565b048201901c90506001818481610f9657610f96611d30565b048201901c90506001818481610fae57610fae611d30565b048201901c90506001818481610fc657610fc6611d30565b048201901c90506108c881828581610fe057610fe0611d30565b04611580565b5f5b8183101561103d575f610ffb8484611595565b5f8781526020902090915065ffffffffffff86169082015465ffffffffffff16111561102957809250611037565b611034816001611d1d565b93505b50610fe8565b509392505050565b6001600160a01b0381165f90815260208190526040812054610430565b816001600160a01b0316836001600160a01b03161415801561108357505f81115b156108f2576001600160a01b0383161561112a576001600160a01b0383165f90815260096020526040812081906110c5906108da6110c0866115af565b6115e2565b6001600160d01b031691506001600160d01b03169150846001600160a01b03167fdec2bacdd2f05b59de34da9b523dff8be42e5e38e818c82fdb0bae774387a724838360405161111f929190918252602082015260400190565b60405180910390a250505b6001600160a01b038216156108f2576001600160a01b0382165f9081526009602052604081208190611162906108cf6110c0866115af565b6001600160d01b031691506001600160d01b03169150836001600160a01b03167fdec2bacdd2f05b59de34da9b523dff8be42e5e38e818c82fdb0bae774387a72483836040516111bc929190918252602082015260400190565b60405180910390a25050505050565b5f63ffffffff821115610aff576040516306dfcc6560e41b815260206004820152602481018390526044016104a8565b606060ff83146112155761120e8361161a565b9050610430565b81805461122190611c56565b80601f016020809104026020016040519081016040528092919081815260200182805461124d90611c56565b80156112985780601f1061126f57610100808354040283529160200191611298565b820191905f5260205f20905b81548152906001019060200180831161127b57829003601f168201915b50505050509050610430565b5f80806fa2a8918ca85bafe22016d0b997e4df60600160ff1b038411156112d357505f91506003905082611358565b604080515f808252602082018084528a905260ff891692820192909252606081018790526080810186905260019060a0016020604051602081039080840390855afa158015611324573d5f803e3d5ffd5b5050604051601f1901519150506001600160a01b03811661134f57505f925060019150829050611358565b92505f91508190505b9450945094915050565b5f82600381111561137557611375611d44565b0361137e575050565b600182600381111561139257611392611d44565b036113b05760405163f645eedf60e01b815260040160405180910390fd5b60028260038111156113c4576113c4611d44565b036113e55760405163fce698f760e01b8152600481018290526024016104a8565b60038260038111156113f9576113f9611d44565b036104f5576040516335e2f38360e21b8152600481018290526024016104a8565b604080518082019091525f8082526020820152825f018263ffffffff168154811061144757611447611d58565b5f9182526020918290206040805180820190915291015465ffffffffffff81168252600160301b90046001600160d01b0316918101919091529392505050565b611492838383611657565b6001600160a01b0383166114e2575f6114aa60025490565b90506001600160d01b03808211156114df57604051630e58ae9360e11b815260048101839052602481018290526044016104a8565b50505b6108f283838361176a565b5f80608083901c1561150157608092831c92015b604083901c1561151357604092831c92015b602083901c1561152557602092831c92015b601083901c1561153757601092831c92015b600883901c1561154957600892831c92015b600483901c1561155b57600492831c92015b600283901c1561156d57600292831c92015b600183901c156104305760010192915050565b5f81831061158e57816108c8565b5090919050565b5f6115a36002848418611d6c565b6108c890848416611d1d565b5f6001600160d01b03821115610aff576040516306dfcc6560e41b815260d06004820152602481018390526044016104a8565b5f8061160d6115ef610658565b6116056115fb88610d02565b868863ffffffff16565b8791906117c9565b915091505b935093915050565b60605f611626836117d6565b6040805160208082528183019092529192505f91906020820181803683375050509182525060208101929092525090565b6001600160a01b038316611681578060025f8282546116769190611d1d565b909155506116de9050565b6001600160a01b0383165f90815260208190526040902054818110156116c05783818360405163391434e360e21b81526004016104a893929190611ce9565b6001600160a01b0384165f9081526020819052604090209082900390555b6001600160a01b0382166116fa57600280548290039055611718565b6001600160a01b0382165f9081526020819052604090208054820190555b816001600160a01b0316836001600160a01b03167fddf252ad1be2c89b69c2b068fc378daa952ba7f163c4a11628f55a4df523b3ef8360405161175d91815260200190565b60405180910390a3505050565b6001600160a01b03831661178c57611789600a6108cf6110c0846115af565b50505b6001600160a01b0382166117ae576117ab600a6108da6110c0846115af565b50505b6108f26117ba84610571565b6117c384610571565b83611062565b5f8061160d8585856117fd565b5f60ff8216601f81111561043057604051632cd44ac360e21b815260040160405180910390fd5b82545f9081908015611919575f61181987610b83600185611d0a565b60408051808201909152905465ffffffffffff808216808452600160301b9092046001600160d01b03166020840152919250908716101561186d57604051632520601d60e01b815260040160405180910390fd5b805165ffffffffffff8088169116036118b9578461189088610b83600186611d0a565b80546001600160d01b0392909216600160301b0265ffffffffffff909216919091179055611909565b6040805180820190915265ffffffffffff80881682526001600160d01b0380881660208085019182528b54600181018d555f8d81529190912094519151909216600160301b029216919091179101555b6020015192508391506116129050565b50506040805180820190915265ffffffffffff80851682526001600160d01b0380851660208085019182528854600181018a555f8a815291822095519251909316600160301b029190931617920191909155905081611612565b5f81518084525f5b818110156119975760208185018101518683018201520161197b565b505f602082860101526020601f19601f83011685010191505092915050565b602081525f6108c86020830184611973565b80356001600160a01b03811681146119de575f80fd5b919050565b5f80604083850312156119f4575f80fd5b6119fd836119c8565b946020939093013593505050565b5f805f60608486031215611a1d575f80fd5b611a26846119c8565b9250611a34602085016119c8565b9150604084013590509250925092565b5f60208284031215611a54575f80fd5b6108c8826119c8565b6001600160a01b0391909116815260200190565b60ff60f81b881681525f602060e06020840152611a9160e084018a611973565b8381036040850152611aa3818a611973565b606085018990526001600160a01b038816608086015260a0850187905284810360c0860152855180825260208088019350909101905f5b81811015611af657835183529284019291840191600101611ada565b50909c9b505050505050505050505050565b5f60208284031215611b18575f80fd5b5035919050565b803560ff811681146119de575f80fd5b5f805f805f8060c08789031215611b44575f80fd5b611b4d876119c8565b95506020870135945060408701359350611b6960608801611b1f565b92506080870135915060a087013590509295509295509295565b5f805f805f805f60e0888a031215611b99575f80fd5b611ba2886119c8565b9650611bb0602089016119c8565b95506040880135945060608801359350611bcc60808901611b1f565b925060a0880135915060c0880135905092959891949750929550565b5f8060408385031215611bf9575f80fd5b611c02836119c8565b9150611c10602084016119c8565b90509250929050565b5f8060408385031215611c2a575f80fd5b611c33836119c8565b9150602083013563ffffffff81168114611c4b575f80fd5b809150509250929050565b600181811c90821680611c6a57607f821691505b602082108103611c8857634e487b7160e01b5f52602260045260245ffd5b50919050565b634e487b7160e01b5f52601160045260245ffd5b6001600160d01b03818116838216019080821115611cc257611cc2611c8e565b5092915050565b6001600160d01b03828116828216039080821115611cc257611cc2611c8e565b6001600160a01b039390931683526020830191909152604082015260600190565b8181038181111561043057610430611c8e565b8082018082111561043057610430611c8e565b634e487b7160e01b5f52601260045260245ffd5b634e487b7160e01b5f52602160045260245ffd5b634e487b7160e01b5f52603260045260245ffd5b5f82611d8657634e487b7160e01b5f52601260045260245ffd5b50049056fea2646970667358221220782042793f620677d5480066df0b93916349e1bb0360b2e5dd3803fc5fc7beb164736f6c63430008180033dec2bacdd2f05b59de34da9b523dff8be42e5e38e818c82fdb0bae774387a724a2646970667358221220b967336ca4501858e50397f93c101fc8733ace5310fc0a1f2d5aa92ccd7e848064736f6c63430008180033",
			"opcodes": "PUSH1 0x80 PUSH1 0x40 MSTORE CALLVALUE DUP1 ISZERO PUSH2 0xF JUMPI PUSH0 DUP1 REVERT JUMPDEST POP PUSH2 0x3187 DUP1 PUSH2 0x1D PUSH0 CODECOPY PUSH0 RETURN INVALID PUSH1 0x80 PUSH1 0x40 MSTORE CALLVALUE DUP1 ISZERO PUSH3 0x10 JUMPI PUSH0 DUP1 REVERT JUMPDEST POP PUSH1 0x4 CALLDATASIZE LT PUSH3 0x38 JUMPI PUSH0 CALLDATALOAD PUSH1 0xE0 SHR DUP1 PUSH4 0xCDCC9D55 EQ PUSH3 0x3C JUMPI DUP1 PUSH4 0xEC81AADB EQ PUSH3 0x6F JUMPI JUMPDEST PUSH0 DUP1 REVERT JUMPDEST PUSH3 0x53 PUSH3 0x4D CALLDATASIZE PUSH1 0x4 PUSH3 0x2A0 JUMP JUMPDEST PUSH3 0x86 JUMP JUMPDEST PUSH1 0x40 MLOAD PUSH1 0x1 PUSH1 0x1 PUSH1 0xA0 SHL SUB SWAP1 SWAP2 AND DUP2 MSTORE PUSH1 0x20 ADD PUSH1 0x40 MLOAD DUP1 SWAP2 SUB SWAP1 RETURN JUMPDEST PUSH3 0x53 PUSH3 0x80 CALLDATASIZE PUSH1 0x4 PUSH3 0x3BE JUMP JUMPDEST PUSH3 0x115 JUMP JUMPDEST PUSH0 DUP1 DUP6 DUP6 DUP6 DUP6 PUSH1 0x40 MLOAD PUSH3 0x9A SWAP1 PUSH3 0x13D JUMP JUMPDEST PUSH3 0xA9 SWAP5 SWAP4 SWAP3 SWAP2 SWAP1 PUSH3 0x41B JUMP JUMPDEST PUSH1 0x40 MLOAD DUP1 SWAP2 SUB SWAP1 PUSH0 CREATE DUP1 ISZERO DUP1 ISZERO PUSH3 0xC3 JUMPI RETURNDATASIZE PUSH0 DUP1 RETURNDATACOPY RETURNDATASIZE PUSH0 REVERT JUMPDEST POP PUSH0 DUP1 SLOAD PUSH1 0x1 DUP2 ADD DUP3 SSTORE SWAP1 DUP1 MSTORE PUSH32 0x290DECD9548B62A8D60345A988386FC84BA6BC95484008F6362F93160EF3E563 ADD DUP1 SLOAD PUSH1 0x1 PUSH1 0x1 PUSH1 0xA0 SHL SUB NOT AND PUSH1 0x1 PUSH1 0x1 PUSH1 0xA0 SHL SUB DUP4 AND OR SWAP1 SSTORE SWAP7 SWAP6 POP POP POP POP POP POP JUMP JUMPDEST PUSH0 DUP2 DUP2 SLOAD DUP2 LT PUSH3 0x124 JUMPI PUSH0 DUP1 REVERT JUMPDEST PUSH0 SWAP2 DUP3 MSTORE PUSH1 0x20 SWAP1 SWAP2 KECCAK256 ADD SLOAD PUSH1 0x1 PUSH1 0x1 PUSH1 0xA0 SHL SUB AND SWAP1 POP DUP2 JUMP JUMPDEST PUSH2 0x2C87 DUP1 PUSH3 0x4CB DUP4 CODECOPY ADD SWAP1 JUMP JUMPDEST PUSH4 0x4E487B71 PUSH1 0xE0 SHL PUSH0 MSTORE PUSH1 0x41 PUSH1 0x4 MSTORE PUSH1 0x24 PUSH0 REVERT JUMPDEST PUSH1 0x40 MLOAD PUSH1 0x1F DUP3 ADD PUSH1 0x1F NOT AND DUP2 ADD PUSH8 0xFFFFFFFFFFFFFFFF DUP2 GT DUP3 DUP3 LT OR ISZERO PUSH3 0x18B JUMPI PUSH3 0x18B PUSH3 0x14B JUMP JUMPDEST PUSH1 0x40 MSTORE SWAP2 SWAP1 POP JUMP JUMPDEST PUSH0 DUP3 PUSH1 0x1F DUP4 ADD SLT PUSH3 0x1A3 JUMPI PUSH0 DUP1 REVERT JUMPDEST DUP2 CALLDATALOAD PUSH8 0xFFFFFFFFFFFFFFFF DUP2 GT ISZERO PUSH3 0x1C0 JUMPI PUSH3 0x1C0 PUSH3 0x14B JUMP JUMPDEST PUSH3 0x1D5 PUSH1 0x1F DUP3 ADD PUSH1 0x1F NOT AND PUSH1 0x20 ADD PUSH3 0x15F JUMP JUMPDEST DUP2 DUP2 MSTORE DUP5 PUSH1 0x20 DUP4 DUP7 ADD ADD GT ISZERO PUSH3 0x1EA JUMPI PUSH0 DUP1 REVERT JUMPDEST DUP2 PUSH1 0x20 DUP6 ADD PUSH1 0x20 DUP4 ADD CALLDATACOPY PUSH0 SWAP2 DUP2 ADD PUSH1 0x20 ADD SWAP2 SWAP1 SWAP2 MSTORE SWAP4 SWAP3 POP POP POP JUMP JUMPDEST PUSH0 PUSH8 0xFFFFFFFFFFFFFFFF DUP3 GT ISZERO PUSH3 0x222 JUMPI PUSH3 0x222 PUSH3 0x14B JUMP JUMPDEST POP PUSH1 0x5 SHL PUSH1 0x20 ADD SWAP1 JUMP JUMPDEST PUSH0 DUP3 PUSH1 0x1F DUP4 ADD SLT PUSH3 0x23C JUMPI PUSH0 DUP1 REVERT JUMPDEST DUP2 CALLDATALOAD PUSH1 0x20 PUSH3 0x255 PUSH3 0x24F DUP4 PUSH3 0x206 JUMP JUMPDEST PUSH3 0x15F JUMP JUMPDEST DUP1 DUP4 DUP3 MSTORE PUSH1 0x20 DUP3 ADD SWAP2 POP PUSH1 0x20 DUP5 PUSH1 0x5 SHL DUP8 ADD ADD SWAP4 POP DUP7 DUP5 GT ISZERO PUSH3 0x277 JUMPI PUSH0 DUP1 REVERT JUMPDEST PUSH1 0x20 DUP7 ADD JUMPDEST DUP5 DUP2 LT ISZERO PUSH3 0x295 JUMPI DUP1 CALLDATALOAD DUP4 MSTORE SWAP2 DUP4 ADD SWAP2 DUP4 ADD PUSH3 0x27C JUMP JUMPDEST POP SWAP7 SWAP6 POP POP POP POP POP POP JUMP JUMPDEST PUSH0 DUP1 PUSH0 DUP1 PUSH1 0x80 DUP6 DUP8 SUB SLT ISZERO PUSH3 0x2B4 JUMPI PUSH0 DUP1 REVERT JUMPDEST DUP5 CALLDATALOAD PUSH8 0xFFFFFFFFFFFFFFFF DUP1 DUP3 GT ISZERO PUSH3 0x2CC JUMPI PUSH0 DUP1 REVERT JUMPDEST PUSH3 0x2DA DUP9 DUP4 DUP10 ADD PUSH3 0x193 JUMP JUMPDEST SWAP6 POP PUSH1 0x20 SWAP2 POP DUP2 DUP8 ADD CALLDATALOAD DUP2 DUP2 GT ISZERO PUSH3 0x2F1 JUMPI PUSH0 DUP1 REVERT JUMPDEST PUSH3 0x2FF DUP10 DUP3 DUP11 ADD PUSH3 0x193 JUMP JUMPDEST SWAP6 POP POP PUSH1 0x40 DUP8 ADD CALLDATALOAD DUP2 DUP2 GT ISZERO PUSH3 0x314 JUMPI PUSH0 DUP1 REVERT JUMPDEST DUP8 ADD PUSH1 0x1F DUP2 ADD DUP10 SGT PUSH3 0x325 JUMPI PUSH0 DUP1 REVERT JUMPDEST DUP1 CALLDATALOAD PUSH3 0x336 PUSH3 0x24F DUP3 PUSH3 0x206 JUMP JUMPDEST DUP2 DUP2 MSTORE PUSH1 0x5 SWAP2 SWAP1 SWAP2 SHL DUP3 ADD DUP5 ADD SWAP1 DUP5 DUP2 ADD SWAP1 DUP12 DUP4 GT ISZERO PUSH3 0x355 JUMPI PUSH0 DUP1 REVERT JUMPDEST SWAP3 DUP6 ADD SWAP3 JUMPDEST DUP3 DUP5 LT ISZERO PUSH3 0x38A JUMPI DUP4 CALLDATALOAD PUSH1 0x1 PUSH1 0x1 PUSH1 0xA0 SHL SUB DUP2 AND DUP2 EQ PUSH3 0x37A JUMPI PUSH0 DUP1 REVERT JUMPDEST DUP3 MSTORE SWAP3 DUP6 ADD SWAP3 SWAP1 DUP6 ADD SWAP1 PUSH3 0x35A JUMP JUMPDEST SWAP7 POP POP POP POP PUSH1 0x60 DUP8 ADD CALLDATALOAD SWAP2 POP DUP1 DUP3 GT ISZERO PUSH3 0x3A3 JUMPI PUSH0 DUP1 REVERT JUMPDEST POP PUSH3 0x3B2 DUP8 DUP3 DUP9 ADD PUSH3 0x22C JUMP JUMPDEST SWAP2 POP POP SWAP3 SWAP6 SWAP2 SWAP5 POP SWAP3 POP JUMP JUMPDEST PUSH0 PUSH1 0x20 DUP3 DUP5 SUB SLT ISZERO PUSH3 0x3CF JUMPI PUSH0 DUP1 REVERT JUMPDEST POP CALLDATALOAD SWAP2 SWAP1 POP JUMP JUMPDEST PUSH0 DUP2 MLOAD DUP1 DUP5 MSTORE PUSH0 JUMPDEST DUP2 DUP2 LT ISZERO PUSH3 0x3FC JUMPI PUSH1 0x20 DUP2 DUP6 ADD DUP2 ADD MLOAD DUP7 DUP4 ADD DUP3 ADD MSTORE ADD PUSH3 0x3DE JUMP JUMPDEST POP PUSH0 PUSH1 0x20 DUP3 DUP7 ADD ADD MSTORE PUSH1 0x20 PUSH1 0x1F NOT PUSH1 0x1F DUP4 ADD AND DUP6 ADD ADD SWAP2 POP POP SWAP3 SWAP2 POP POP JUMP JUMPDEST PUSH1 0x80 DUP2 MSTORE PUSH0 PUSH3 0x42F PUSH1 0x80 DUP4 ADD DUP8 PUSH3 0x3D6 JUMP JUMPDEST PUSH1 0x20 DUP4 DUP3 SUB DUP2 DUP6 ADD MSTORE PUSH3 0x444 DUP3 DUP9 PUSH3 0x3D6 JUMP JUMPDEST DUP5 DUP2 SUB PUSH1 0x40 DUP7 ADD MSTORE DUP7 MLOAD DUP1 DUP3 MSTORE DUP3 DUP9 ADD SWAP4 POP SWAP1 DUP3 ADD SWAP1 PUSH0 JUMPDEST DUP2 DUP2 LT ISZERO PUSH3 0x483 JUMPI DUP5 MLOAD PUSH1 0x1 PUSH1 0x1 PUSH1 0xA0 SHL SUB AND DUP4 MSTORE SWAP4 DUP4 ADD SWAP4 SWAP2 DUP4 ADD SWAP2 PUSH1 0x1 ADD PUSH3 0x45C JUMP JUMPDEST POP POP DUP5 DUP2 SUB PUSH1 0x60 DUP7 ADD MSTORE DUP6 MLOAD DUP1 DUP3 MSTORE SWAP1 DUP3 ADD SWAP3 POP DUP2 DUP7 ADD SWAP1 PUSH0 JUMPDEST DUP2 DUP2 LT ISZERO PUSH3 0x4BB JUMPI DUP3 MLOAD DUP6 MSTORE SWAP4 DUP4 ADD SWAP4 SWAP2 DUP4 ADD SWAP2 PUSH1 0x1 ADD PUSH3 0x49D JUMP JUMPDEST POP SWAP3 SWAP10 SWAP9 POP POP POP POP POP POP POP POP POP JUMP INVALID PUSH2 0x160 PUSH1 0x40 MSTORE CALLVALUE DUP1 ISZERO PUSH3 0x11 JUMPI PUSH0 DUP1 REVERT JUMPDEST POP PUSH1 0x40 MLOAD PUSH3 0x2C87 CODESIZE SUB DUP1 PUSH3 0x2C87 DUP4 CODECOPY DUP2 ADD PUSH1 0x40 DUP2 SWAP1 MSTORE PUSH3 0x34 SWAP2 PUSH3 0xAC3 JUMP JUMPDEST PUSH1 0x40 DUP1 MLOAD DUP1 DUP3 ADD SWAP1 SWAP2 MSTORE PUSH1 0x1 DUP2 MSTORE PUSH1 0x31 PUSH1 0xF8 SHL PUSH1 0x20 DUP3 ADD MSTORE DUP5 SWAP1 DUP2 SWAP1 DUP2 DUP7 PUSH1 0x3 PUSH3 0x60 DUP4 DUP3 PUSH3 0xC6A JUMP JUMPDEST POP PUSH1 0x4 PUSH3 0x6F DUP3 DUP3 PUSH3 0xC6A JUMP JUMPDEST POP PUSH3 0x81 SWAP2 POP DUP4 SWAP1 POP PUSH1 0x5 PUSH3 0x221 JUMP JUMPDEST PUSH2 0x120 MSTORE PUSH3 0x92 DUP2 PUSH1 0x6 PUSH3 0x221 JUMP JUMPDEST PUSH2 0x140 MSTORE DUP2 MLOAD PUSH1 0x20 DUP1 DUP5 ADD SWAP2 SWAP1 SWAP2 KECCAK256 PUSH1 0xE0 MSTORE DUP2 MLOAD SWAP1 DUP3 ADD KECCAK256 PUSH2 0x100 MSTORE CHAINID PUSH1 0xA0 MSTORE PUSH3 0x11F PUSH1 0xE0 MLOAD PUSH2 0x100 MLOAD PUSH1 0x40 DUP1 MLOAD PUSH32 0x8B73C3C69BB8FE3D512ECC4CF759CC79239F7B179B0FFACAA9A75D522B39400F PUSH1 0x20 DUP3 ADD MSTORE SWAP1 DUP2 ADD SWAP3 SWAP1 SWAP3 MSTORE PUSH1 0x60 DUP3 ADD MSTORE CHAINID PUSH1 0x80 DUP3 ADD MSTORE ADDRESS PUSH1 0xA0 DUP3 ADD MSTORE PUSH0 SWAP1 PUSH1 0xC0 ADD PUSH1 0x40 MLOAD PUSH1 0x20 DUP2 DUP4 SUB SUB DUP2 MSTORE SWAP1 PUSH1 0x40 MSTORE DUP1 MLOAD SWAP1 PUSH1 0x20 ADD KECCAK256 SWAP1 POP SWAP1 JUMP JUMPDEST PUSH1 0x80 MSTORE POP POP ADDRESS PUSH1 0xC0 MSTORE POP DUP1 MLOAD DUP3 MLOAD EQ PUSH3 0x199 JUMPI PUSH1 0x40 MLOAD PUSH3 0x461BCD PUSH1 0xE5 SHL DUP2 MSTORE PUSH1 0x20 PUSH1 0x4 DUP3 ADD MSTORE PUSH1 0x30 PUSH1 0x24 DUP3 ADD MSTORE PUSH32 0x696E697469616C416D6F756E7473206D757374206265206173206D616E792061 PUSH1 0x44 DUP3 ADD MSTORE PUSH16 0x7320696E697469616C4D656D62657273 PUSH1 0x80 SHL PUSH1 0x64 DUP3 ADD MSTORE PUSH1 0x84 ADD JUMPDEST PUSH1 0x40 MLOAD DUP1 SWAP2 SUB SWAP1 REVERT JUMPDEST PUSH0 JUMPDEST DUP3 MLOAD DUP2 PUSH4 0xFFFFFFFF AND LT ISZERO PUSH3 0x216 JUMPI PUSH3 0x201 DUP4 DUP3 PUSH4 0xFFFFFFFF AND DUP2 MLOAD DUP2 LT PUSH3 0x1CA JUMPI PUSH3 0x1CA PUSH3 0xD36 JUMP JUMPDEST PUSH1 0x20 MUL PUSH1 0x20 ADD ADD MLOAD DUP4 DUP4 PUSH4 0xFFFFFFFF AND DUP2 MLOAD DUP2 LT PUSH3 0x1ED JUMPI PUSH3 0x1ED PUSH3 0xD36 JUMP JUMPDEST PUSH1 0x20 MUL PUSH1 0x20 ADD ADD MLOAD PUSH3 0x259 PUSH1 0x20 SHL PUSH1 0x20 SHR JUMP JUMPDEST DUP1 PUSH3 0x20D DUP2 PUSH3 0xD5E JUMP JUMPDEST SWAP2 POP POP PUSH3 0x19B JUMP JUMPDEST POP POP POP POP POP PUSH3 0xE54 JUMP JUMPDEST PUSH0 PUSH1 0x20 DUP4 MLOAD LT ISZERO PUSH3 0x240 JUMPI PUSH3 0x238 DUP4 PUSH3 0x295 JUMP JUMPDEST SWAP1 POP PUSH3 0x253 JUMP JUMPDEST DUP2 PUSH3 0x24D DUP5 DUP3 PUSH3 0xC6A JUMP JUMPDEST POP PUSH1 0xFF SWAP1 POP JUMPDEST SWAP3 SWAP2 POP POP JUMP JUMPDEST PUSH1 0x1 PUSH1 0x1 PUSH1 0xA0 SHL SUB DUP3 AND PUSH3 0x284 JUMPI PUSH1 0x40 MLOAD PUSH4 0xEC442F05 PUSH1 0xE0 SHL DUP2 MSTORE PUSH0 PUSH1 0x4 DUP3 ADD MSTORE PUSH1 0x24 ADD PUSH3 0x190 JUMP JUMPDEST PUSH3 0x291 PUSH0 DUP4 DUP4 PUSH3 0x2D7 JUMP JUMPDEST POP POP JUMP JUMPDEST PUSH0 DUP1 DUP3 SWAP1 POP PUSH1 0x1F DUP2 MLOAD GT ISZERO PUSH3 0x2C2 JUMPI DUP3 PUSH1 0x40 MLOAD PUSH4 0x305A27A9 PUSH1 0xE0 SHL DUP2 MSTORE PUSH1 0x4 ADD PUSH3 0x190 SWAP2 SWAP1 PUSH3 0xD83 JUMP JUMPDEST DUP1 MLOAD PUSH3 0x2CF DUP3 PUSH3 0xDB7 JUMP JUMPDEST OR SWAP4 SWAP3 POP POP POP JUMP JUMPDEST PUSH3 0x2E4 DUP4 DUP4 DUP4 PUSH3 0x2E9 JUMP JUMPDEST POP POP POP JUMP JUMPDEST PUSH3 0x2F6 DUP4 DUP4 DUP4 PUSH3 0x357 JUMP JUMPDEST PUSH1 0x1 PUSH1 0x1 PUSH1 0xA0 SHL SUB DUP4 AND PUSH3 0x34A JUMPI PUSH0 PUSH3 0x310 PUSH1 0x2 SLOAD SWAP1 JUMP JUMPDEST SWAP1 POP PUSH1 0x1 PUSH1 0x1 PUSH1 0xD0 SHL SUB DUP1 DUP3 GT ISZERO PUSH3 0x347 JUMPI PUSH1 0x40 MLOAD PUSH4 0xE58AE93 PUSH1 0xE1 SHL DUP2 MSTORE PUSH1 0x4 DUP2 ADD DUP4 SWAP1 MSTORE PUSH1 0x24 DUP2 ADD DUP3 SWAP1 MSTORE PUSH1 0x44 ADD PUSH3 0x190 JUMP JUMPDEST POP POP JUMPDEST PUSH3 0x2E4 DUP4 DUP4 DUP4 PUSH3 0x486 JUMP JUMPDEST PUSH1 0x1 PUSH1 0x1 PUSH1 0xA0 SHL SUB DUP4 AND PUSH3 0x385 JUMPI DUP1 PUSH1 0x2 PUSH0 DUP3 DUP3 SLOAD PUSH3 0x379 SWAP2 SWAP1 PUSH3 0xDDB JUMP JUMPDEST SWAP1 SWAP2 SSTORE POP PUSH3 0x3F7 SWAP1 POP JUMP JUMPDEST PUSH1 0x1 PUSH1 0x1 PUSH1 0xA0 SHL SUB DUP4 AND PUSH0 SWAP1 DUP2 MSTORE PUSH1 0x20 DUP2 SWAP1 MSTORE PUSH1 0x40 SWAP1 KECCAK256 SLOAD DUP2 DUP2 LT ISZERO PUSH3 0x3D9 JUMPI PUSH1 0x40 MLOAD PUSH4 0x391434E3 PUSH1 0xE2 SHL DUP2 MSTORE PUSH1 0x1 PUSH1 0x1 PUSH1 0xA0 SHL SUB DUP6 AND PUSH1 0x4 DUP3 ADD MSTORE PUSH1 0x24 DUP2 ADD DUP3 SWAP1 MSTORE PUSH1 0x44 DUP2 ADD DUP4 SWAP1 MSTORE PUSH1 0x64 ADD PUSH3 0x190 JUMP JUMPDEST PUSH1 0x1 PUSH1 0x1 PUSH1 0xA0 SHL SUB DUP5 AND PUSH0 SWAP1 DUP2 MSTORE PUSH1 0x20 DUP2 SWAP1 MSTORE PUSH1 0x40 SWAP1 KECCAK256 SWAP1 DUP3 SWAP1 SUB SWAP1 SSTORE JUMPDEST PUSH1 0x1 PUSH1 0x1 PUSH1 0xA0 SHL SUB DUP3 AND PUSH3 0x415 JUMPI PUSH1 0x2 DUP1 SLOAD DUP3 SWAP1 SUB SWAP1 SSTORE PUSH3 0x433 JUMP JUMPDEST PUSH1 0x1 PUSH1 0x1 PUSH1 0xA0 SHL SUB DUP3 AND PUSH0 SWAP1 DUP2 MSTORE PUSH1 0x20 DUP2 SWAP1 MSTORE PUSH1 0x40 SWAP1 KECCAK256 DUP1 SLOAD DUP3 ADD SWAP1 SSTORE JUMPDEST DUP2 PUSH1 0x1 PUSH1 0x1 PUSH1 0xA0 SHL SUB AND DUP4 PUSH1 0x1 PUSH1 0x1 PUSH1 0xA0 SHL SUB AND PUSH32 0xDDF252AD1BE2C89B69C2B068FC378DAA952BA7F163C4A11628F55A4DF523B3EF DUP4 PUSH1 0x40 MLOAD PUSH3 0x479 SWAP2 DUP2 MSTORE PUSH1 0x20 ADD SWAP1 JUMP JUMPDEST PUSH1 0x40 MLOAD DUP1 SWAP2 SUB SWAP1 LOG3 POP POP POP JUMP JUMPDEST PUSH1 0x1 PUSH1 0x1 PUSH1 0xA0 SHL SUB DUP4 AND PUSH3 0x4BB JUMPI PUSH3 0x4B8 PUSH1 0xA PUSH3 0x8CF PUSH3 0x51D PUSH1 0x20 SHL OR PUSH3 0x4B2 DUP5 PUSH3 0x531 JUMP JUMPDEST PUSH3 0x56A JUMP JUMPDEST POP POP JUMPDEST PUSH1 0x1 PUSH1 0x1 PUSH1 0xA0 SHL SUB DUP3 AND PUSH3 0x4EA JUMPI PUSH3 0x4E7 PUSH1 0xA PUSH3 0x8DA PUSH3 0x5A6 PUSH1 0x20 SHL OR PUSH3 0x4B2 DUP5 PUSH3 0x531 JUMP JUMPDEST POP POP JUMPDEST PUSH1 0x1 PUSH1 0x1 PUSH1 0xA0 SHL SUB DUP4 DUP2 AND PUSH0 SWAP1 DUP2 MSTORE PUSH1 0x8 PUSH1 0x20 MSTORE PUSH1 0x40 DUP1 DUP3 KECCAK256 SLOAD DUP6 DUP5 AND DUP4 MSTORE SWAP2 KECCAK256 SLOAD PUSH3 0x2E4 SWAP3 SWAP2 DUP3 AND SWAP2 AND DUP4 PUSH3 0x5B3 JUMP JUMPDEST PUSH0 PUSH3 0x52A DUP3 DUP5 PUSH3 0xDF1 JUMP JUMPDEST SWAP4 SWAP3 POP POP POP JUMP JUMPDEST PUSH0 PUSH1 0x1 PUSH1 0x1 PUSH1 0xD0 SHL SUB DUP3 GT ISZERO PUSH3 0x566 JUMPI PUSH1 0x40 MLOAD PUSH4 0x6DFCC65 PUSH1 0xE4 SHL DUP2 MSTORE PUSH1 0xD0 PUSH1 0x4 DUP3 ADD MSTORE PUSH1 0x24 DUP2 ADD DUP4 SWAP1 MSTORE PUSH1 0x44 ADD PUSH3 0x190 JUMP JUMPDEST POP SWAP1 JUMP JUMPDEST PUSH0 DUP1 PUSH3 0x599 PUSH3 0x57A PUSH3 0x715 JUMP JUMPDEST PUSH3 0x590 PUSH3 0x589 DUP9 PUSH3 0x725 JUMP JUMPDEST DUP7 DUP9 PUSH1 0x20 SHR JUMP JUMPDEST DUP8 SWAP2 SWAP1 PUSH3 0x771 JUMP JUMPDEST SWAP2 POP SWAP2 POP JUMPDEST SWAP4 POP SWAP4 SWAP2 POP POP JUMP JUMPDEST PUSH0 PUSH3 0x52A DUP3 DUP5 PUSH3 0xE1B JUMP JUMPDEST DUP2 PUSH1 0x1 PUSH1 0x1 PUSH1 0xA0 SHL SUB AND DUP4 PUSH1 0x1 PUSH1 0x1 PUSH1 0xA0 SHL SUB AND EQ ISZERO DUP1 ISZERO PUSH3 0x5D5 JUMPI POP PUSH0 DUP2 GT JUMPDEST ISZERO PUSH3 0x2E4 JUMPI PUSH1 0x1 PUSH1 0x1 PUSH1 0xA0 SHL SUB DUP4 AND ISZERO PUSH3 0x676 JUMPI PUSH1 0x1 PUSH1 0x1 PUSH1 0xA0 SHL SUB DUP4 AND PUSH0 SWAP1 DUP2 MSTORE PUSH1 0x9 PUSH1 0x20 SWAP1 DUP2 MSTORE PUSH1 0x40 DUP3 KECCAK256 DUP3 SWAP2 PUSH3 0x622 SWAP2 SWAP1 PUSH3 0x5A6 SWAP1 SHL PUSH3 0x8DA OR PUSH3 0x4B2 DUP7 PUSH3 0x531 JUMP JUMPDEST PUSH1 0x1 PUSH1 0x1 PUSH1 0xD0 SHL SUB AND SWAP2 POP PUSH1 0x1 PUSH1 0x1 PUSH1 0xD0 SHL SUB AND SWAP2 POP DUP5 PUSH1 0x1 PUSH1 0x1 PUSH1 0xA0 SHL SUB AND PUSH0 DUP1 MLOAD PUSH1 0x20 PUSH3 0x2C67 DUP4 CODECOPY DUP2 MLOAD SWAP2 MSTORE DUP4 DUP4 PUSH1 0x40 MLOAD PUSH3 0x66B SWAP3 SWAP2 SWAP1 SWAP2 DUP3 MSTORE PUSH1 0x20 DUP3 ADD MSTORE PUSH1 0x40 ADD SWAP1 JUMP JUMPDEST PUSH1 0x40 MLOAD DUP1 SWAP2 SUB SWAP1 LOG2 POP POP JUMPDEST PUSH1 0x1 PUSH1 0x1 PUSH1 0xA0 SHL SUB DUP3 AND ISZERO PUSH3 0x2E4 JUMPI PUSH1 0x1 PUSH1 0x1 PUSH1 0xA0 SHL SUB DUP3 AND PUSH0 SWAP1 DUP2 MSTORE PUSH1 0x9 PUSH1 0x20 SWAP1 DUP2 MSTORE PUSH1 0x40 DUP3 KECCAK256 DUP3 SWAP2 PUSH3 0x6BD SWAP2 SWAP1 PUSH3 0x51D SWAP1 SHL PUSH3 0x8CF OR PUSH3 0x4B2 DUP7 PUSH3 0x531 JUMP JUMPDEST PUSH1 0x1 PUSH1 0x1 PUSH1 0xD0 SHL SUB AND SWAP2 POP PUSH1 0x1 PUSH1 0x1 PUSH1 0xD0 SHL SUB AND SWAP2 POP DUP4 PUSH1 0x1 PUSH1 0x1 PUSH1 0xA0 SHL SUB AND PUSH0 DUP1 MLOAD PUSH1 0x20 PUSH3 0x2C67 DUP4 CODECOPY DUP2 MLOAD SWAP2 MSTORE DUP4 DUP4 PUSH1 0x40 MLOAD PUSH3 0x706 SWAP3 SWAP2 SWAP1 SWAP2 DUP3 MSTORE PUSH1 0x20 DUP3 ADD MSTORE PUSH1 0x40 ADD SWAP1 JUMP JUMPDEST PUSH1 0x40 MLOAD DUP1 SWAP2 SUB SWAP1 LOG2 POP POP POP POP POP JUMP JUMPDEST PUSH0 PUSH3 0x720 PUSH3 0x780 JUMP JUMPDEST SWAP1 POP SWAP1 JUMP JUMPDEST DUP1 SLOAD PUSH0 SWAP1 DUP1 ISZERO PUSH3 0x769 JUMPI PUSH3 0x74F DUP4 PUSH3 0x742 PUSH1 0x1 DUP5 PUSH3 0xE3E JUMP JUMPDEST PUSH0 SWAP2 DUP3 MSTORE PUSH1 0x20 SWAP1 SWAP2 KECCAK256 ADD SWAP1 JUMP JUMPDEST SLOAD PUSH7 0x1000000000000 SWAP1 DIV PUSH1 0x1 PUSH1 0x1 PUSH1 0xD0 SHL SUB AND PUSH3 0x52A JUMP JUMPDEST PUSH0 SWAP4 SWAP3 POP POP POP JUMP JUMPDEST PUSH0 DUP1 PUSH3 0x599 DUP6 DUP6 DUP6 PUSH3 0x78C JUMP JUMPDEST PUSH0 PUSH3 0x720 NUMBER PUSH3 0x91A JUMP JUMPDEST DUP3 SLOAD PUSH0 SWAP1 DUP2 SWAP1 DUP1 ISZERO PUSH3 0x8BC JUMPI PUSH0 PUSH3 0x7AC DUP8 PUSH3 0x742 PUSH1 0x1 DUP6 PUSH3 0xE3E JUMP JUMPDEST PUSH1 0x40 DUP1 MLOAD DUP1 DUP3 ADD SWAP1 SWAP2 MSTORE SWAP1 SLOAD PUSH6 0xFFFFFFFFFFFF DUP1 DUP3 AND DUP1 DUP5 MSTORE PUSH7 0x1000000000000 SWAP1 SWAP3 DIV PUSH1 0x1 PUSH1 0x1 PUSH1 0xD0 SHL SUB AND PUSH1 0x20 DUP5 ADD MSTORE SWAP2 SWAP3 POP SWAP1 DUP8 AND LT ISZERO PUSH3 0x804 JUMPI PUSH1 0x40 MLOAD PUSH4 0x2520601D PUSH1 0xE0 SHL DUP2 MSTORE PUSH1 0x4 ADD PUSH1 0x40 MLOAD DUP1 SWAP2 SUB SWAP1 REVERT JUMPDEST DUP1 MLOAD PUSH6 0xFFFFFFFFFFFF DUP1 DUP9 AND SWAP2 AND SUB PUSH3 0x858 JUMPI DUP5 PUSH3 0x82B DUP9 PUSH3 0x742 PUSH1 0x1 DUP7 PUSH3 0xE3E JUMP JUMPDEST DUP1 SLOAD PUSH1 0x1 PUSH1 0x1 PUSH1 0xD0 SHL SUB SWAP3 SWAP1 SWAP3 AND PUSH7 0x1000000000000 MUL PUSH6 0xFFFFFFFFFFFF SWAP1 SWAP3 AND SWAP2 SWAP1 SWAP2 OR SWAP1 SSTORE PUSH3 0x8AB JUMP JUMPDEST PUSH1 0x40 DUP1 MLOAD DUP1 DUP3 ADD SWAP1 SWAP2 MSTORE PUSH6 0xFFFFFFFFFFFF DUP1 DUP9 AND DUP3 MSTORE PUSH1 0x1 PUSH1 0x1 PUSH1 0xD0 SHL SUB DUP1 DUP9 AND PUSH1 0x20 DUP1 DUP6 ADD SWAP2 DUP3 MSTORE DUP12 SLOAD PUSH1 0x1 DUP2 ADD DUP14 SSTORE PUSH0 DUP14 DUP2 MSTORE SWAP2 SWAP1 SWAP2 KECCAK256 SWAP5 MLOAD SWAP2 MLOAD SWAP1 SWAP3 AND PUSH7 0x1000000000000 MUL SWAP3 AND SWAP2 SWAP1 SWAP2 OR SWAP2 ADD SSTORE JUMPDEST PUSH1 0x20 ADD MLOAD SWAP3 POP DUP4 SWAP2 POP PUSH3 0x59E SWAP1 POP JUMP JUMPDEST POP POP PUSH1 0x40 DUP1 MLOAD DUP1 DUP3 ADD SWAP1 SWAP2 MSTORE PUSH6 0xFFFFFFFFFFFF DUP1 DUP6 AND DUP3 MSTORE PUSH1 0x1 PUSH1 0x1 PUSH1 0xD0 SHL SUB DUP1 DUP6 AND PUSH1 0x20 DUP1 DUP6 ADD SWAP2 DUP3 MSTORE DUP9 SLOAD PUSH1 0x1 DUP2 ADD DUP11 SSTORE PUSH0 DUP11 DUP2 MSTORE SWAP2 DUP3 KECCAK256 SWAP6 MLOAD SWAP3 MLOAD SWAP1 SWAP4 AND PUSH7 0x1000000000000 MUL SWAP2 SWAP1 SWAP4 AND OR SWAP3 ADD SWAP2 SWAP1 SWAP2 SSTORE SWAP1 POP DUP2 PUSH3 0x59E JUMP JUMPDEST PUSH0 PUSH6 0xFFFFFFFFFFFF DUP3 GT ISZERO PUSH3 0x566 JUMPI PUSH1 0x40 MLOAD PUSH4 0x6DFCC65 PUSH1 0xE4 SHL DUP2 MSTORE PUSH1 0x30 PUSH1 0x4 DUP3 ADD MSTORE PUSH1 0x24 DUP2 ADD DUP4 SWAP1 MSTORE PUSH1 0x44 ADD PUSH3 0x190 JUMP JUMPDEST PUSH4 0x4E487B71 PUSH1 0xE0 SHL PUSH0 MSTORE PUSH1 0x41 PUSH1 0x4 MSTORE PUSH1 0x24 PUSH0 REVERT JUMPDEST PUSH1 0x40 MLOAD PUSH1 0x1F DUP3 ADD PUSH1 0x1F NOT AND DUP2 ADD PUSH1 0x1 PUSH1 0x1 PUSH1 0x40 SHL SUB DUP2 GT DUP3 DUP3 LT OR ISZERO PUSH3 0x98D JUMPI PUSH3 0x98D PUSH3 0x94E JUMP JUMPDEST PUSH1 0x40 MSTORE SWAP2 SWAP1 POP JUMP JUMPDEST PUSH0 JUMPDEST DUP4 DUP2 LT ISZERO PUSH3 0x9B1 JUMPI DUP2 DUP2 ADD MLOAD DUP4 DUP3 ADD MSTORE PUSH1 0x20 ADD PUSH3 0x997 JUMP JUMPDEST POP POP PUSH0 SWAP2 ADD MSTORE JUMP JUMPDEST PUSH0 DUP3 PUSH1 0x1F DUP4 ADD SLT PUSH3 0x9C9 JUMPI PUSH0 DUP1 REVERT JUMPDEST DUP2 MLOAD PUSH1 0x1 PUSH1 0x1 PUSH1 0x40 SHL SUB DUP2 GT ISZERO PUSH3 0x9E5 JUMPI PUSH3 0x9E5 PUSH3 0x94E JUMP JUMPDEST PUSH3 0x9FA PUSH1 0x1F DUP3 ADD PUSH1 0x1F NOT AND PUSH1 0x20 ADD PUSH3 0x962 JUMP JUMPDEST DUP2 DUP2 MSTORE DUP5 PUSH1 0x20 DUP4 DUP7 ADD ADD GT ISZERO PUSH3 0xA0F JUMPI PUSH0 DUP1 REVERT JUMPDEST PUSH3 0xA22 DUP3 PUSH1 0x20 DUP4 ADD PUSH1 0x20 DUP8 ADD PUSH3 0x995 JUMP JUMPDEST SWAP5 SWAP4 POP POP POP POP JUMP JUMPDEST PUSH0 PUSH1 0x1 PUSH1 0x1 PUSH1 0x40 SHL SUB DUP3 GT ISZERO PUSH3 0xA45 JUMPI PUSH3 0xA45 PUSH3 0x94E JUMP JUMPDEST POP PUSH1 0x5 SHL PUSH1 0x20 ADD SWAP1 JUMP JUMPDEST PUSH0 DUP3 PUSH1 0x1F DUP4 ADD SLT PUSH3 0xA5F JUMPI PUSH0 DUP1 REVERT JUMPDEST DUP2 MLOAD PUSH1 0x20 PUSH3 0xA78 PUSH3 0xA72 DUP4 PUSH3 0xA2A JUMP JUMPDEST PUSH3 0x962 JUMP JUMPDEST DUP1 DUP4 DUP3 MSTORE PUSH1 0x20 DUP3 ADD SWAP2 POP PUSH1 0x20 DUP5 PUSH1 0x5 SHL DUP8 ADD ADD SWAP4 POP DUP7 DUP5 GT ISZERO PUSH3 0xA9A JUMPI PUSH0 DUP1 REVERT JUMPDEST PUSH1 0x20 DUP7 ADD JUMPDEST DUP5 DUP2 LT ISZERO PUSH3 0xAB8 JUMPI DUP1 MLOAD DUP4 MSTORE SWAP2 DUP4 ADD SWAP2 DUP4 ADD PUSH3 0xA9F JUMP JUMPDEST POP SWAP7 SWAP6 POP POP POP POP POP POP JUMP JUMPDEST PUSH0 DUP1 PUSH0 DUP1 PUSH1 0x80 DUP6 DUP8 SUB SLT ISZERO PUSH3 0xAD7 JUMPI PUSH0 DUP1 REVERT JUMPDEST DUP5 MLOAD PUSH1 0x1 PUSH1 0x1 PUSH1 0x40 SHL SUB DUP1 DUP3 GT ISZERO PUSH3 0xAEE JUMPI PUSH0 DUP1 REVERT JUMPDEST PUSH3 0xAFC DUP9 DUP4 DUP10 ADD PUSH3 0x9B9 JUMP JUMPDEST SWAP6 POP PUSH1 0x20 SWAP2 POP DUP2 DUP8 ADD MLOAD DUP2 DUP2 GT ISZERO PUSH3 0xB13 JUMPI PUSH0 DUP1 REVERT JUMPDEST PUSH3 0xB21 DUP10 DUP3 DUP11 ADD PUSH3 0x9B9 JUMP JUMPDEST SWAP6 POP POP PUSH1 0x40 DUP8 ADD MLOAD DUP2 DUP2 GT ISZERO PUSH3 0xB36 JUMPI PUSH0 DUP1 REVERT JUMPDEST DUP8 ADD PUSH1 0x1F DUP2 ADD DUP10 SGT PUSH3 0xB47 JUMPI PUSH0 DUP1 REVERT JUMPDEST DUP1 MLOAD PUSH3 0xB58 PUSH3 0xA72 DUP3 PUSH3 0xA2A JUMP JUMPDEST DUP2 DUP2 MSTORE PUSH1 0x5 SWAP2 SWAP1 SWAP2 SHL DUP3 ADD DUP5 ADD SWAP1 DUP5 DUP2 ADD SWAP1 DUP12 DUP4 GT ISZERO PUSH3 0xB77 JUMPI PUSH0 DUP1 REVERT JUMPDEST SWAP3 DUP6 ADD SWAP3 JUMPDEST DUP3 DUP5 LT ISZERO PUSH3 0xBAC JUMPI DUP4 MLOAD PUSH1 0x1 PUSH1 0x1 PUSH1 0xA0 SHL SUB DUP2 AND DUP2 EQ PUSH3 0xB9C JUMPI PUSH0 DUP1 REVERT JUMPDEST DUP3 MSTORE SWAP3 DUP6 ADD SWAP3 SWAP1 DUP6 ADD SWAP1 PUSH3 0xB7C JUMP JUMPDEST PUSH1 0x60 DUP12 ADD MLOAD SWAP1 SWAP8 POP SWAP5 POP POP POP POP DUP1 DUP3 GT ISZERO PUSH3 0xBC6 JUMPI PUSH0 DUP1 REVERT JUMPDEST POP PUSH3 0xBD5 DUP8 DUP3 DUP9 ADD PUSH3 0xA4F JUMP JUMPDEST SWAP2 POP POP SWAP3 SWAP6 SWAP2 SWAP5 POP SWAP3 POP JUMP JUMPDEST PUSH1 0x1 DUP2 DUP2 SHR SWAP1 DUP3 AND DUP1 PUSH3 0xBF6 JUMPI PUSH1 0x7F DUP3 AND SWAP2 POP JUMPDEST PUSH1 0x20 DUP3 LT DUP2 SUB PUSH3 0xC15 JUMPI PUSH4 0x4E487B71 PUSH1 0xE0 SHL PUSH0 MSTORE PUSH1 0x22 PUSH1 0x4 MSTORE PUSH1 0x24 PUSH0 REVERT JUMPDEST POP SWAP2 SWAP1 POP JUMP JUMPDEST PUSH1 0x1F DUP3 GT ISZERO PUSH3 0x2E4 JUMPI DUP1 PUSH0 MSTORE PUSH1 0x20 PUSH0 KECCAK256 PUSH1 0x1F DUP5 ADD PUSH1 0x5 SHR DUP2 ADD PUSH1 0x20 DUP6 LT ISZERO PUSH3 0xC42 JUMPI POP DUP1 JUMPDEST PUSH1 0x1F DUP5 ADD PUSH1 0x5 SHR DUP3 ADD SWAP2 POP JUMPDEST DUP2 DUP2 LT ISZERO PUSH3 0xC63 JUMPI PUSH0 DUP2 SSTORE PUSH1 0x1 ADD PUSH3 0xC4E JUMP JUMPDEST POP POP POP POP POP JUMP JUMPDEST DUP2 MLOAD PUSH1 0x1 PUSH1 0x1 PUSH1 0x40 SHL SUB DUP2 GT ISZERO PUSH3 0xC86 JUMPI PUSH3 0xC86 PUSH3 0x94E JUMP JUMPDEST PUSH3 0xC9E DUP2 PUSH3 0xC97 DUP5 SLOAD PUSH3 0xBE1 JUMP JUMPDEST DUP5 PUSH3 0xC1B JUMP JUMPDEST PUSH1 0x20 DUP1 PUSH1 0x1F DUP4 GT PUSH1 0x1 DUP2 EQ PUSH3 0xCD4 JUMPI PUSH0 DUP5 ISZERO PUSH3 0xCBC JUMPI POP DUP6 DUP4 ADD MLOAD JUMPDEST PUSH0 NOT PUSH1 0x3 DUP7 SWAP1 SHL SHR NOT AND PUSH1 0x1 DUP6 SWAP1 SHL OR DUP6 SSTORE PUSH3 0xD2E JUMP JUMPDEST PUSH0 DUP6 DUP2 MSTORE PUSH1 0x20 DUP2 KECCAK256 PUSH1 0x1F NOT DUP7 AND SWAP2 JUMPDEST DUP3 DUP2 LT ISZERO PUSH3 0xD04 JUMPI DUP9 DUP7 ADD MLOAD DUP3 SSTORE SWAP5 DUP5 ADD SWAP5 PUSH1 0x1 SWAP1 SWAP2 ADD SWAP1 DUP5 ADD PUSH3 0xCE3 JUMP JUMPDEST POP DUP6 DUP3 LT ISZERO PUSH3 0xD22 JUMPI DUP8 DUP6 ADD MLOAD PUSH0 NOT PUSH1 0x3 DUP9 SWAP1 SHL PUSH1 0xF8 AND SHR NOT AND DUP2 SSTORE JUMPDEST POP POP PUSH1 0x1 DUP5 PUSH1 0x1 SHL ADD DUP6 SSTORE JUMPDEST POP POP POP POP POP POP JUMP JUMPDEST PUSH4 0x4E487B71 PUSH1 0xE0 SHL PUSH0 MSTORE PUSH1 0x32 PUSH1 0x4 MSTORE PUSH1 0x24 PUSH0 REVERT JUMPDEST PUSH4 0x4E487B71 PUSH1 0xE0 SHL PUSH0 MSTORE PUSH1 0x11 PUSH1 0x4 MSTORE PUSH1 0x24 PUSH0 REVERT JUMPDEST PUSH0 PUSH4 0xFFFFFFFF DUP1 DUP4 AND DUP2 DUP2 SUB PUSH3 0xD79 JUMPI PUSH3 0xD79 PUSH3 0xD4A JUMP JUMPDEST PUSH1 0x1 ADD SWAP4 SWAP3 POP POP POP JUMP JUMPDEST PUSH1 0x20 DUP2 MSTORE PUSH0 DUP3 MLOAD DUP1 PUSH1 0x20 DUP5 ADD MSTORE PUSH3 0xDA3 DUP2 PUSH1 0x40 DUP6 ADD PUSH1 0x20 DUP8 ADD PUSH3 0x995 JUMP JUMPDEST PUSH1 0x1F ADD PUSH1 0x1F NOT AND SWAP2 SWAP1 SWAP2 ADD PUSH1 0x40 ADD SWAP3 SWAP2 POP POP JUMP JUMPDEST DUP1 MLOAD PUSH1 0x20 DUP1 DUP4 ADD MLOAD SWAP2 SWAP1 DUP2 LT ISZERO PUSH3 0xC15 JUMPI PUSH0 NOT PUSH1 0x20 SWAP2 SWAP1 SWAP2 SUB PUSH1 0x3 SHL SHL AND SWAP2 SWAP1 POP JUMP JUMPDEST DUP1 DUP3 ADD DUP1 DUP3 GT ISZERO PUSH3 0x253 JUMPI PUSH3 0x253 PUSH3 0xD4A JUMP JUMPDEST PUSH1 0x1 PUSH1 0x1 PUSH1 0xD0 SHL SUB DUP2 DUP2 AND DUP4 DUP3 AND ADD SWAP1 DUP1 DUP3 GT ISZERO PUSH3 0xE14 JUMPI PUSH3 0xE14 PUSH3 0xD4A JUMP JUMPDEST POP SWAP3 SWAP2 POP POP JUMP JUMPDEST PUSH1 0x1 PUSH1 0x1 PUSH1 0xD0 SHL SUB DUP3 DUP2 AND DUP3 DUP3 AND SUB SWAP1 DUP1 DUP3 GT ISZERO PUSH3 0xE14 JUMPI PUSH3 0xE14 PUSH3 0xD4A JUMP JUMPDEST DUP2 DUP2 SUB DUP2 DUP2 GT ISZERO PUSH3 0x253 JUMPI PUSH3 0x253 PUSH3 0xD4A JUMP JUMPDEST PUSH1 0x80 MLOAD PUSH1 0xA0 MLOAD PUSH1 0xC0 MLOAD PUSH1 0xE0 MLOAD PUSH2 0x100 MLOAD PUSH2 0x120 MLOAD PUSH2 0x140 MLOAD PUSH2 0x1DC1 PUSH3 0xEA6 PUSH0 CODECOPY PUSH0 PUSH2 0xCDC ADD MSTORE PUSH0 PUSH2 0xCAF ADD MSTORE PUSH0 PUSH2 0xA7D ADD MSTORE PUSH0 PUSH2 0xA55 ADD MSTORE PUSH0 PUSH2 0x9B0 ADD MSTORE PUSH0 PUSH2 0x9DA ADD MSTORE PUSH0 PUSH2 0xA04 ADD MSTORE PUSH2 0x1DC1 PUSH0 RETURN INVALID PUSH1 0x80 PUSH1 0x40 MSTORE CALLVALUE DUP1 ISZERO PUSH2 0xF JUMPI PUSH0 DUP1 REVERT JUMPDEST POP PUSH1 0x4 CALLDATASIZE LT PUSH2 0x153 JUMPI PUSH0 CALLDATALOAD PUSH1 0xE0 SHR DUP1 PUSH4 0x70A08231 GT PUSH2 0xBF JUMPI DUP1 PUSH4 0x9AB24EB0 GT PUSH2 0x79 JUMPI DUP1 PUSH4 0x9AB24EB0 EQ PUSH2 0x2EF JUMPI DUP1 PUSH4 0xA9059CBB EQ PUSH2 0x302 JUMPI DUP1 PUSH4 0xC3CDA520 EQ PUSH2 0x315 JUMPI DUP1 PUSH4 0xD505ACCF EQ PUSH2 0x328 JUMPI DUP1 PUSH4 0xDD62ED3E EQ PUSH2 0x33B JUMPI DUP1 PUSH4 0xF1127ED8 EQ PUSH2 0x34E JUMPI PUSH0 DUP1 REVERT JUMPDEST DUP1 PUSH4 0x70A08231 EQ PUSH2 0x25F JUMPI DUP1 PUSH4 0x7ECEBE00 EQ PUSH2 0x287 JUMPI DUP1 PUSH4 0x84B0196E EQ PUSH2 0x29A JUMPI DUP1 PUSH4 0x8E539E8C EQ PUSH2 0x2B5 JUMPI DUP1 PUSH4 0x91DDADF4 EQ PUSH2 0x2C8 JUMPI DUP1 PUSH4 0x95D89B41 EQ PUSH2 0x2E7 JUMPI PUSH0 DUP1 REVERT JUMPDEST DUP1 PUSH4 0x3A46B1A8 GT PUSH2 0x110 JUMPI DUP1 PUSH4 0x3A46B1A8 EQ PUSH2 0x1D4 JUMPI DUP1 PUSH4 0x40C10F19 EQ PUSH2 0x1E7 JUMPI DUP1 PUSH4 0x4BF5D7E9 EQ PUSH2 0x1FC JUMPI DUP1 PUSH4 0x587CDE1E EQ PUSH2 0x204 JUMPI DUP1 PUSH4 0x5C19A95C EQ PUSH2 0x224 JUMPI DUP1 PUSH4 0x6FCFFF45 EQ PUSH2 0x237 JUMPI PUSH0 DUP1 REVERT JUMPDEST DUP1 PUSH4 0x6FDDE03 EQ PUSH2 0x157 JUMPI DUP1 PUSH4 0x95EA7B3 EQ PUSH2 0x175 JUMPI DUP1 PUSH4 0x18160DDD EQ PUSH2 0x198 JUMPI DUP1 PUSH4 0x23B872DD EQ PUSH2 0x1AA JUMPI DUP1 PUSH4 0x313CE567 EQ PUSH2 0x1BD JUMPI DUP1 PUSH4 0x3644E515 EQ PUSH2 0x1CC JUMPI JUMPDEST PUSH0 DUP1 REVERT JUMPDEST PUSH2 0x15F PUSH2 0x38D JUMP JUMPDEST PUSH1 0x40 MLOAD PUSH2 0x16C SWAP2 SWAP1 PUSH2 0x19B6 JUMP JUMPDEST PUSH1 0x40 MLOAD DUP1 SWAP2 SUB SWAP1 RETURN JUMPDEST PUSH2 0x188 PUSH2 0x183 CALLDATASIZE PUSH1 0x4 PUSH2 0x19E3 JUMP JUMPDEST PUSH2 0x41D JUMP JUMPDEST PUSH1 0x40 MLOAD SWAP1 ISZERO ISZERO DUP2 MSTORE PUSH1 0x20 ADD PUSH2 0x16C JUMP JUMPDEST PUSH1 0x2 SLOAD JUMPDEST PUSH1 0x40 MLOAD SWAP1 DUP2 MSTORE PUSH1 0x20 ADD PUSH2 0x16C JUMP JUMPDEST PUSH2 0x188 PUSH2 0x1B8 CALLDATASIZE PUSH1 0x4 PUSH2 0x1A0B JUMP JUMPDEST PUSH2 0x436 JUMP JUMPDEST PUSH1 0x40 MLOAD PUSH1 0x12 DUP2 MSTORE PUSH1 0x20 ADD PUSH2 0x16C JUMP JUMPDEST PUSH2 0x19C PUSH2 0x459 JUMP JUMPDEST PUSH2 0x19C PUSH2 0x1E2 CALLDATASIZE PUSH1 0x4 PUSH2 0x19E3 JUMP JUMPDEST PUSH2 0x467 JUMP JUMPDEST PUSH2 0x1FA PUSH2 0x1F5 CALLDATASIZE PUSH1 0x4 PUSH2 0x19E3 JUMP JUMPDEST PUSH2 0x4EB JUMP JUMPDEST STOP JUMPDEST PUSH2 0x15F PUSH2 0x4F9 JUMP JUMPDEST PUSH2 0x217 PUSH2 0x212 CALLDATASIZE PUSH1 0x4 PUSH2 0x1A44 JUMP JUMPDEST PUSH2 0x571 JUMP JUMPDEST PUSH1 0x40 MLOAD PUSH2 0x16C SWAP2 SWAP1 PUSH2 0x1A5D JUMP JUMPDEST PUSH2 0x1FA PUSH2 0x232 CALLDATASIZE PUSH1 0x4 PUSH2 0x1A44 JUMP JUMPDEST PUSH2 0x58E JUMP JUMPDEST PUSH2 0x24A PUSH2 0x245 CALLDATASIZE PUSH1 0x4 PUSH2 0x1A44 JUMP JUMPDEST PUSH2 0x599 JUMP JUMPDEST PUSH1 0x40 MLOAD PUSH4 0xFFFFFFFF SWAP1 SWAP2 AND DUP2 MSTORE PUSH1 0x20 ADD PUSH2 0x16C JUMP JUMPDEST PUSH2 0x19C PUSH2 0x26D CALLDATASIZE PUSH1 0x4 PUSH2 0x1A44 JUMP JUMPDEST PUSH1 0x1 PUSH1 0x1 PUSH1 0xA0 SHL SUB AND PUSH0 SWAP1 DUP2 MSTORE PUSH1 0x20 DUP2 SWAP1 MSTORE PUSH1 0x40 SWAP1 KECCAK256 SLOAD SWAP1 JUMP JUMPDEST PUSH2 0x19C PUSH2 0x295 CALLDATASIZE PUSH1 0x4 PUSH2 0x1A44 JUMP JUMPDEST PUSH2 0x5A3 JUMP JUMPDEST PUSH2 0x2A2 PUSH2 0x5AD JUMP JUMPDEST PUSH1 0x40 MLOAD PUSH2 0x16C SWAP8 SWAP7 SWAP6 SWAP5 SWAP4 SWAP3 SWAP2 SWAP1 PUSH2 0x1A71 JUMP JUMPDEST PUSH2 0x19C PUSH2 0x2C3 CALLDATASIZE PUSH1 0x4 PUSH2 0x1B08 JUMP JUMPDEST PUSH2 0x5EF JUMP JUMPDEST PUSH2 0x2D0 PUSH2 0x658 JUMP JUMPDEST PUSH1 0x40 MLOAD PUSH6 0xFFFFFFFFFFFF SWAP1 SWAP2 AND DUP2 MSTORE PUSH1 0x20 ADD PUSH2 0x16C JUMP JUMPDEST PUSH2 0x15F PUSH2 0x661 JUMP JUMPDEST PUSH2 0x19C PUSH2 0x2FD CALLDATASIZE PUSH1 0x4 PUSH2 0x1A44 JUMP JUMPDEST PUSH2 0x670 JUMP JUMPDEST PUSH2 0x188 PUSH2 0x310 CALLDATASIZE PUSH1 0x4 PUSH2 0x19E3 JUMP JUMPDEST PUSH2 0x69F JUMP JUMPDEST PUSH2 0x1FA PUSH2 0x323 CALLDATASIZE PUSH1 0x4 PUSH2 0x1B2F JUMP JUMPDEST PUSH2 0x6AC JUMP JUMPDEST PUSH2 0x1FA PUSH2 0x336 CALLDATASIZE PUSH1 0x4 PUSH2 0x1B83 JUMP JUMPDEST PUSH2 0x768 JUMP JUMPDEST PUSH2 0x19C PUSH2 0x349 CALLDATASIZE PUSH1 0x4 PUSH2 0x1BE8 JUMP JUMPDEST PUSH2 0x881 JUMP JUMPDEST PUSH2 0x361 PUSH2 0x35C CALLDATASIZE PUSH1 0x4 PUSH2 0x1C19 JUMP JUMPDEST PUSH2 0x8AB JUMP JUMPDEST PUSH1 0x40 DUP1 MLOAD DUP3 MLOAD PUSH6 0xFFFFFFFFFFFF AND DUP2 MSTORE PUSH1 0x20 SWAP3 DUP4 ADD MLOAD PUSH1 0x1 PUSH1 0x1 PUSH1 0xD0 SHL SUB AND SWAP3 DUP2 ADD SWAP3 SWAP1 SWAP3 MSTORE ADD PUSH2 0x16C JUMP JUMPDEST PUSH1 0x60 PUSH1 0x3 DUP1 SLOAD PUSH2 0x39C SWAP1 PUSH2 0x1C56 JUMP JUMPDEST DUP1 PUSH1 0x1F ADD PUSH1 0x20 DUP1 SWAP2 DIV MUL PUSH1 0x20 ADD PUSH1 0x40 MLOAD SWAP1 DUP2 ADD PUSH1 0x40 MSTORE DUP1 SWAP3 SWAP2 SWAP1 DUP2 DUP2 MSTORE PUSH1 0x20 ADD DUP3 DUP1 SLOAD PUSH2 0x3C8 SWAP1 PUSH2 0x1C56 JUMP JUMPDEST DUP1 ISZERO PUSH2 0x413 JUMPI DUP1 PUSH1 0x1F LT PUSH2 0x3EA JUMPI PUSH2 0x100 DUP1 DUP4 SLOAD DIV MUL DUP4 MSTORE SWAP2 PUSH1 0x20 ADD SWAP2 PUSH2 0x413 JUMP JUMPDEST DUP3 ADD SWAP2 SWAP1 PUSH0 MSTORE PUSH1 0x20 PUSH0 KECCAK256 SWAP1 JUMPDEST DUP2 SLOAD DUP2 MSTORE SWAP1 PUSH1 0x1 ADD SWAP1 PUSH1 0x20 ADD DUP1 DUP4 GT PUSH2 0x3F6 JUMPI DUP3 SWAP1 SUB PUSH1 0x1F AND DUP3 ADD SWAP2 JUMPDEST POP POP POP POP POP SWAP1 POP SWAP1 JUMP JUMPDEST PUSH0 CALLER PUSH2 0x42A DUP2 DUP6 DUP6 PUSH2 0x8E5 JUMP JUMPDEST PUSH1 0x1 SWAP2 POP POP JUMPDEST SWAP3 SWAP2 POP POP JUMP JUMPDEST PUSH0 CALLER PUSH2 0x443 DUP6 DUP3 DUP6 PUSH2 0x8F7 JUMP JUMPDEST PUSH2 0x44E DUP6 DUP6 DUP6 PUSH2 0x947 JUMP JUMPDEST POP PUSH1 0x1 SWAP5 SWAP4 POP POP POP POP JUMP JUMPDEST PUSH0 PUSH2 0x462 PUSH2 0x9A4 JUMP JUMPDEST SWAP1 POP SWAP1 JUMP JUMPDEST PUSH0 DUP1 PUSH2 0x471 PUSH2 0x658 JUMP JUMPDEST SWAP1 POP DUP1 PUSH6 0xFFFFFFFFFFFF AND DUP4 LT PUSH2 0x4B1 JUMPI PUSH1 0x40 MLOAD PUSH4 0x7669FC0F PUSH1 0xE1 SHL DUP2 MSTORE PUSH1 0x4 DUP2 ADD DUP5 SWAP1 MSTORE PUSH6 0xFFFFFFFFFFFF DUP3 AND PUSH1 0x24 DUP3 ADD MSTORE PUSH1 0x44 ADD JUMPDEST PUSH1 0x40 MLOAD DUP1 SWAP2 SUB SWAP1 REVERT JUMPDEST PUSH2 0x4DA PUSH2 0x4BD DUP5 PUSH2 0xACD JUMP JUMPDEST PUSH1 0x1 PUSH1 0x1 PUSH1 0xA0 SHL SUB DUP7 AND PUSH0 SWAP1 DUP2 MSTORE PUSH1 0x9 PUSH1 0x20 MSTORE PUSH1 0x40 SWAP1 KECCAK256 SWAP1 PUSH2 0xB03 JUMP JUMPDEST PUSH1 0x1 PUSH1 0x1 PUSH1 0xD0 SHL SUB AND SWAP5 SWAP4 POP POP POP POP JUMP JUMPDEST PUSH2 0x4F5 DUP3 DUP3 PUSH2 0xBB3 JUMP JUMPDEST POP POP JUMP JUMPDEST PUSH1 0x60 PUSH2 0x503 PUSH2 0xBE7 JUMP JUMPDEST PUSH6 0xFFFFFFFFFFFF AND PUSH2 0x513 PUSH2 0x658 JUMP JUMPDEST PUSH6 0xFFFFFFFFFFFF AND EQ PUSH2 0x539 JUMPI PUSH1 0x40 MLOAD PUSH4 0x1BFC1C5 PUSH1 0xE6 SHL DUP2 MSTORE PUSH1 0x4 ADD PUSH1 0x40 MLOAD DUP1 SWAP2 SUB SWAP1 REVERT JUMPDEST POP PUSH1 0x40 DUP1 MLOAD DUP1 DUP3 ADD SWAP1 SWAP2 MSTORE PUSH1 0x1D DUP2 MSTORE PUSH32 0x6D6F64653D626C6F636B6E756D6265722666726F6D3D64656661756C74000000 PUSH1 0x20 DUP3 ADD MSTORE SWAP1 JUMP JUMPDEST PUSH1 0x1 PUSH1 0x1 PUSH1 0xA0 SHL SUB SWAP1 DUP2 AND PUSH0 SWAP1 DUP2 MSTORE PUSH1 0x8 PUSH1 0x20 MSTORE PUSH1 0x40 SWAP1 KECCAK256 SLOAD AND SWAP1 JUMP JUMPDEST CALLER PUSH2 0x4F5 DUP2 DUP4 PUSH2 0xBF1 JUMP JUMPDEST PUSH0 PUSH2 0x430 DUP3 PUSH2 0xC6A JUMP JUMPDEST PUSH0 PUSH2 0x430 DUP3 PUSH2 0xC8B JUMP JUMPDEST PUSH0 PUSH1 0x60 DUP1 PUSH0 DUP1 PUSH0 PUSH1 0x60 PUSH2 0x5BE PUSH2 0xCA8 JUMP JUMPDEST PUSH2 0x5C6 PUSH2 0xCD5 JUMP JUMPDEST PUSH1 0x40 DUP1 MLOAD PUSH0 DUP1 DUP3 MSTORE PUSH1 0x20 DUP3 ADD SWAP1 SWAP3 MSTORE PUSH1 0xF PUSH1 0xF8 SHL SWAP12 SWAP4 SWAP11 POP SWAP2 SWAP9 POP CHAINID SWAP8 POP ADDRESS SWAP7 POP SWAP5 POP SWAP3 POP SWAP1 POP JUMP JUMPDEST PUSH0 DUP1 PUSH2 0x5F9 PUSH2 0x658 JUMP JUMPDEST SWAP1 POP DUP1 PUSH6 0xFFFFFFFFFFFF AND DUP4 LT PUSH2 0x634 JUMPI PUSH1 0x40 MLOAD PUSH4 0x7669FC0F PUSH1 0xE1 SHL DUP2 MSTORE PUSH1 0x4 DUP2 ADD DUP5 SWAP1 MSTORE PUSH6 0xFFFFFFFFFFFF DUP3 AND PUSH1 0x24 DUP3 ADD MSTORE PUSH1 0x44 ADD PUSH2 0x4A8 JUMP JUMPDEST PUSH2 0x648 PUSH2 0x640 DUP5 PUSH2 0xACD JUMP JUMPDEST PUSH1 0xA SWAP1 PUSH2 0xB03 JUMP JUMPDEST PUSH1 0x1 PUSH1 0x1 PUSH1 0xD0 SHL SUB AND SWAP4 SWAP3 POP POP POP JUMP JUMPDEST PUSH0 PUSH2 0x462 PUSH2 0xBE7 JUMP JUMPDEST PUSH1 0x60 PUSH1 0x4 DUP1 SLOAD PUSH2 0x39C SWAP1 PUSH2 0x1C56 JUMP JUMPDEST PUSH1 0x1 PUSH1 0x1 PUSH1 0xA0 SHL SUB DUP2 AND PUSH0 SWAP1 DUP2 MSTORE PUSH1 0x9 PUSH1 0x20 MSTORE PUSH1 0x40 DUP2 KECCAK256 PUSH2 0x690 SWAP1 PUSH2 0xD02 JUMP JUMPDEST PUSH1 0x1 PUSH1 0x1 PUSH1 0xD0 SHL SUB AND SWAP3 SWAP2 POP POP JUMP JUMPDEST PUSH0 CALLER PUSH2 0x42A DUP2 DUP6 DUP6 PUSH2 0x947 JUMP JUMPDEST DUP4 TIMESTAMP GT ISZERO PUSH2 0x6D0 JUMPI PUSH1 0x40 MLOAD PUSH4 0x2341D787 PUSH1 0xE1 SHL DUP2 MSTORE PUSH1 0x4 DUP2 ADD DUP6 SWAP1 MSTORE PUSH1 0x24 ADD PUSH2 0x4A8 JUMP JUMPDEST PUSH1 0x40 DUP1 MLOAD PUSH32 0xE48329057BFD03D55E49B547132E39CFFD9C1820AD7B9D4C5307691425D15ADF PUSH1 0x20 DUP3 ADD MSTORE PUSH1 0x1 PUSH1 0x1 PUSH1 0xA0 SHL SUB DUP9 AND SWAP2 DUP2 ADD SWAP2 SWAP1 SWAP2 MSTORE PUSH1 0x60 DUP2 ADD DUP7 SWAP1 MSTORE PUSH1 0x80 DUP2 ADD DUP6 SWAP1 MSTORE PUSH0 SWAP1 PUSH2 0x749 SWAP1 PUSH2 0x741 SWAP1 PUSH1 0xA0 ADD PUSH1 0x40 MLOAD PUSH1 0x20 DUP2 DUP4 SUB SUB DUP2 MSTORE SWAP1 PUSH1 0x40 MSTORE DUP1 MLOAD SWAP1 PUSH1 0x20 ADD KECCAK256 PUSH2 0xD39 JUMP JUMPDEST DUP6 DUP6 DUP6 PUSH2 0xD65 JUMP JUMPDEST SWAP1 POP PUSH2 0x755 DUP2 DUP8 PUSH2 0xD91 JUMP JUMPDEST PUSH2 0x75F DUP2 DUP9 PUSH2 0xBF1 JUMP JUMPDEST POP POP POP POP POP POP POP JUMP JUMPDEST DUP4 TIMESTAMP GT ISZERO PUSH2 0x78C JUMPI PUSH1 0x40 MLOAD PUSH4 0x313C8981 PUSH1 0xE1 SHL DUP2 MSTORE PUSH1 0x4 DUP2 ADD DUP6 SWAP1 MSTORE PUSH1 0x24 ADD PUSH2 0x4A8 JUMP JUMPDEST PUSH0 PUSH32 0x6E71EDAE12B1B97F4D1F60370FEF10105FA2FAAE0126114A169C64845D6126C9 DUP9 DUP9 DUP9 PUSH2 0x7BA DUP13 PUSH2 0xDCF JUMP JUMPDEST PUSH1 0x40 DUP1 MLOAD PUSH1 0x20 DUP2 ADD SWAP7 SWAP1 SWAP7 MSTORE PUSH1 0x1 PUSH1 0x1 PUSH1 0xA0 SHL SUB SWAP5 DUP6 AND SWAP1 DUP7 ADD MSTORE SWAP3 SWAP1 SWAP2 AND PUSH1 0x60 DUP5 ADD MSTORE PUSH1 0x80 DUP4 ADD MSTORE PUSH1 0xA0 DUP3 ADD MSTORE PUSH1 0xC0 DUP2 ADD DUP7 SWAP1 MSTORE PUSH1 0xE0 ADD PUSH1 0x40 MLOAD PUSH1 0x20 DUP2 DUP4 SUB SUB DUP2 MSTORE SWAP1 PUSH1 0x40 MSTORE DUP1 MLOAD SWAP1 PUSH1 0x20 ADD KECCAK256 SWAP1 POP PUSH0 PUSH2 0x814 DUP3 PUSH2 0xD39 JUMP JUMPDEST SWAP1 POP PUSH0 PUSH2 0x823 DUP3 DUP8 DUP8 DUP8 PUSH2 0xD65 JUMP JUMPDEST SWAP1 POP DUP10 PUSH1 0x1 PUSH1 0x1 PUSH1 0xA0 SHL SUB AND DUP2 PUSH1 0x1 PUSH1 0x1 PUSH1 0xA0 SHL SUB AND EQ PUSH2 0x86A JUMPI PUSH1 0x40 MLOAD PUSH4 0x25C00723 PUSH1 0xE1 SHL DUP2 MSTORE PUSH1 0x1 PUSH1 0x1 PUSH1 0xA0 SHL SUB DUP1 DUP4 AND PUSH1 0x4 DUP4 ADD MSTORE DUP12 AND PUSH1 0x24 DUP3 ADD MSTORE PUSH1 0x44 ADD PUSH2 0x4A8 JUMP JUMPDEST PUSH2 0x875 DUP11 DUP11 DUP11 PUSH2 0x8E5 JUMP JUMPDEST POP POP POP POP POP POP POP POP POP POP JUMP JUMPDEST PUSH1 0x1 PUSH1 0x1 PUSH1 0xA0 SHL SUB SWAP2 DUP3 AND PUSH0 SWAP1 DUP2 MSTORE PUSH1 0x1 PUSH1 0x20 SWAP1 DUP2 MSTORE PUSH1 0x40 DUP1 DUP4 KECCAK256 SWAP4 SWAP1 SWAP5 AND DUP3 MSTORE SWAP2 SWAP1 SWAP2 MSTORE KECCAK256 SLOAD SWAP1 JUMP JUMPDEST PUSH1 0x40 DUP1 MLOAD DUP1 DUP3 ADD SWAP1 SWAP2 MSTORE PUSH0 DUP1 DUP3 MSTORE PUSH1 0x20 DUP3 ADD MSTORE PUSH2 0x8C8 DUP4 DUP4 PUSH2 0xDF1 JUMP JUMPDEST SWAP4 SWAP3 POP POP POP JUMP JUMPDEST PUSH0 PUSH2 0x8C8 DUP3 DUP5 PUSH2 0x1CA2 JUMP JUMPDEST PUSH0 PUSH2 0x8C8 DUP3 DUP5 PUSH2 0x1CC9 JUMP JUMPDEST PUSH2 0x8F2 DUP4 DUP4 DUP4 PUSH1 0x1 PUSH2 0xE25 JUMP JUMPDEST POP POP POP JUMP JUMPDEST PUSH0 PUSH2 0x902 DUP5 DUP5 PUSH2 0x881 JUMP JUMPDEST SWAP1 POP PUSH0 NOT DUP2 EQ PUSH2 0x941 JUMPI DUP2 DUP2 LT ISZERO PUSH2 0x933 JUMPI DUP3 DUP2 DUP4 PUSH1 0x40 MLOAD PUSH4 0x7DC7A0D9 PUSH1 0xE1 SHL DUP2 MSTORE PUSH1 0x4 ADD PUSH2 0x4A8 SWAP4 SWAP3 SWAP2 SWAP1 PUSH2 0x1CE9 JUMP JUMPDEST PUSH2 0x941 DUP5 DUP5 DUP5 DUP5 SUB PUSH0 PUSH2 0xE25 JUMP JUMPDEST POP POP POP POP JUMP JUMPDEST PUSH1 0x1 PUSH1 0x1 PUSH1 0xA0 SHL SUB DUP4 AND PUSH2 0x970 JUMPI PUSH0 PUSH1 0x40 MLOAD PUSH4 0x4B637E8F PUSH1 0xE1 SHL DUP2 MSTORE PUSH1 0x4 ADD PUSH2 0x4A8 SWAP2 SWAP1 PUSH2 0x1A5D JUMP JUMPDEST PUSH1 0x1 PUSH1 0x1 PUSH1 0xA0 SHL SUB DUP3 AND PUSH2 0x999 JUMPI PUSH0 PUSH1 0x40 MLOAD PUSH4 0xEC442F05 PUSH1 0xE0 SHL DUP2 MSTORE PUSH1 0x4 ADD PUSH2 0x4A8 SWAP2 SWAP1 PUSH2 0x1A5D JUMP JUMPDEST PUSH2 0x8F2 DUP4 DUP4 DUP4 PUSH2 0xEF7 JUMP JUMPDEST PUSH0 ADDRESS PUSH1 0x1 PUSH1 0x1 PUSH1 0xA0 SHL SUB PUSH32 0x0 AND EQ DUP1 ISZERO PUSH2 0x9FC JUMPI POP PUSH32 0x0 CHAINID EQ JUMPDEST ISZERO PUSH2 0xA26 JUMPI POP PUSH32 0x0 SWAP1 JUMP JUMPDEST PUSH2 0x462 PUSH1 0x40 DUP1 MLOAD PUSH32 0x8B73C3C69BB8FE3D512ECC4CF759CC79239F7B179B0FFACAA9A75D522B39400F PUSH1 0x20 DUP3 ADD MSTORE PUSH32 0x0 SWAP2 DUP2 ADD SWAP2 SWAP1 SWAP2 MSTORE PUSH32 0x0 PUSH1 0x60 DUP3 ADD MSTORE CHAINID PUSH1 0x80 DUP3 ADD MSTORE ADDRESS PUSH1 0xA0 DUP3 ADD MSTORE PUSH0 SWAP1 PUSH1 0xC0 ADD PUSH1 0x40 MLOAD PUSH1 0x20 DUP2 DUP4 SUB SUB DUP2 MSTORE SWAP1 PUSH1 0x40 MSTORE DUP1 MLOAD SWAP1 PUSH1 0x20 ADD KECCAK256 SWAP1 POP SWAP1 JUMP JUMPDEST PUSH0 PUSH6 0xFFFFFFFFFFFF DUP3 GT ISZERO PUSH2 0xAFF JUMPI PUSH1 0x40 MLOAD PUSH4 0x6DFCC65 PUSH1 0xE4 SHL DUP2 MSTORE PUSH1 0x30 PUSH1 0x4 DUP3 ADD MSTORE PUSH1 0x24 DUP2 ADD DUP4 SWAP1 MSTORE PUSH1 0x44 ADD PUSH2 0x4A8 JUMP JUMPDEST POP SWAP1 JUMP JUMPDEST DUP2 SLOAD PUSH0 SWAP1 DUP2 DUP2 PUSH1 0x5 DUP2 GT ISZERO PUSH2 0xB5F JUMPI PUSH0 PUSH2 0xB1C DUP5 PUSH2 0xF02 JUMP JUMPDEST PUSH2 0xB26 SWAP1 DUP6 PUSH2 0x1D0A JUMP JUMPDEST PUSH0 DUP9 DUP2 MSTORE PUSH1 0x20 SWAP1 KECCAK256 SWAP1 SWAP2 POP DUP2 ADD SLOAD PUSH6 0xFFFFFFFFFFFF SWAP1 DUP2 AND SWAP1 DUP8 AND LT ISZERO PUSH2 0xB4F JUMPI DUP1 SWAP2 POP PUSH2 0xB5D JUMP JUMPDEST PUSH2 0xB5A DUP2 PUSH1 0x1 PUSH2 0x1D1D JUMP JUMPDEST SWAP3 POP JUMPDEST POP JUMPDEST PUSH0 PUSH2 0xB6C DUP8 DUP8 DUP6 DUP6 PUSH2 0xFE6 JUMP JUMPDEST SWAP1 POP DUP1 ISZERO PUSH2 0xBA6 JUMPI PUSH2 0xB90 DUP8 PUSH2 0xB83 PUSH1 0x1 DUP5 PUSH2 0x1D0A JUMP JUMPDEST PUSH0 SWAP2 DUP3 MSTORE PUSH1 0x20 SWAP1 SWAP2 KECCAK256 ADD SWAP1 JUMP JUMPDEST SLOAD PUSH1 0x1 PUSH1 0x30 SHL SWAP1 DIV PUSH1 0x1 PUSH1 0x1 PUSH1 0xD0 SHL SUB AND PUSH2 0xBA8 JUMP JUMPDEST PUSH0 JUMPDEST SWAP8 SWAP7 POP POP POP POP POP POP POP JUMP JUMPDEST PUSH1 0x1 PUSH1 0x1 PUSH1 0xA0 SHL SUB DUP3 AND PUSH2 0xBDC JUMPI PUSH0 PUSH1 0x40 MLOAD PUSH4 0xEC442F05 PUSH1 0xE0 SHL DUP2 MSTORE PUSH1 0x4 ADD PUSH2 0x4A8 SWAP2 SWAP1 PUSH2 0x1A5D JUMP JUMPDEST PUSH2 0x4F5 PUSH0 DUP4 DUP4 PUSH2 0xEF7 JUMP JUMPDEST PUSH0 PUSH2 0x462 NUMBER PUSH2 0xACD JUMP JUMPDEST PUSH0 PUSH2 0xBFB DUP4 PUSH2 0x571 JUMP JUMPDEST PUSH1 0x1 PUSH1 0x1 PUSH1 0xA0 SHL SUB DUP5 DUP2 AND PUSH0 DUP2 DUP2 MSTORE PUSH1 0x8 PUSH1 0x20 MSTORE PUSH1 0x40 DUP1 DUP3 KECCAK256 DUP1 SLOAD PUSH1 0x1 PUSH1 0x1 PUSH1 0xA0 SHL SUB NOT AND DUP9 DUP7 AND SWAP1 DUP2 OR SWAP1 SWAP2 SSTORE SWAP1 MLOAD SWAP5 SWAP6 POP SWAP4 SWAP3 DUP6 AND SWAP3 PUSH32 0x3134E8A2E6D97E929A7E54011EA5485D7D196DD5F0BA4D4EF95803E8E3FC257F SWAP2 SWAP1 LOG4 PUSH2 0x8F2 DUP2 DUP4 PUSH2 0xC65 DUP7 PUSH2 0x1045 JUMP JUMPDEST PUSH2 0x1062 JUMP JUMPDEST PUSH1 0x1 PUSH1 0x1 PUSH1 0xA0 SHL SUB DUP2 AND PUSH0 SWAP1 DUP2 MSTORE PUSH1 0x9 PUSH1 0x20 MSTORE PUSH1 0x40 DUP2 KECCAK256 SLOAD PUSH2 0x430 SWAP1 PUSH2 0x11CB JUMP JUMPDEST PUSH1 0x1 PUSH1 0x1 PUSH1 0xA0 SHL SUB DUP2 AND PUSH0 SWAP1 DUP2 MSTORE PUSH1 0x7 PUSH1 0x20 MSTORE PUSH1 0x40 DUP2 KECCAK256 SLOAD PUSH2 0x430 JUMP JUMPDEST PUSH1 0x60 PUSH2 0x462 PUSH32 0x0 PUSH1 0x5 PUSH2 0x11FB JUMP JUMPDEST PUSH1 0x60 PUSH2 0x462 PUSH32 0x0 PUSH1 0x6 PUSH2 0x11FB JUMP JUMPDEST DUP1 SLOAD PUSH0 SWAP1 DUP1 ISZERO PUSH2 0xD31 JUMPI PUSH2 0xD1B DUP4 PUSH2 0xB83 PUSH1 0x1 DUP5 PUSH2 0x1D0A JUMP JUMPDEST SLOAD PUSH1 0x1 PUSH1 0x30 SHL SWAP1 DIV PUSH1 0x1 PUSH1 0x1 PUSH1 0xD0 SHL SUB AND PUSH2 0x8C8 JUMP JUMPDEST PUSH0 SWAP4 SWAP3 POP POP POP JUMP JUMPDEST PUSH0 PUSH2 0x430 PUSH2 0xD45 PUSH2 0x9A4 JUMP JUMPDEST DUP4 PUSH1 0x40 MLOAD PUSH2 0x1901 PUSH1 0xF0 SHL DUP2 MSTORE PUSH1 0x2 DUP2 ADD SWAP3 SWAP1 SWAP3 MSTORE PUSH1 0x22 DUP3 ADD MSTORE PUSH1 0x42 SWAP1 KECCAK256 SWAP1 JUMP JUMPDEST PUSH0 DUP1 PUSH0 DUP1 PUSH2 0xD75 DUP9 DUP9 DUP9 DUP9 PUSH2 0x12A4 JUMP JUMPDEST SWAP3 POP SWAP3 POP SWAP3 POP PUSH2 0xD85 DUP3 DUP3 PUSH2 0x1362 JUMP JUMPDEST POP SWAP1 SWAP7 SWAP6 POP POP POP POP POP POP JUMP JUMPDEST PUSH0 PUSH2 0xD9B DUP4 PUSH2 0xDCF JUMP JUMPDEST SWAP1 POP DUP1 DUP3 EQ PUSH2 0x8F2 JUMPI PUSH1 0x40 MLOAD PUSH4 0x1D4B623 PUSH1 0xE6 SHL DUP2 MSTORE PUSH1 0x1 PUSH1 0x1 PUSH1 0xA0 SHL SUB DUP5 AND PUSH1 0x4 DUP3 ADD MSTORE PUSH1 0x24 DUP2 ADD DUP3 SWAP1 MSTORE PUSH1 0x44 ADD PUSH2 0x4A8 JUMP JUMPDEST PUSH1 0x1 PUSH1 0x1 PUSH1 0xA0 SHL SUB AND PUSH0 SWAP1 DUP2 MSTORE PUSH1 0x7 PUSH1 0x20 MSTORE PUSH1 0x40 SWAP1 KECCAK256 DUP1 SLOAD PUSH1 0x1 DUP2 ADD SWAP1 SWAP2 SSTORE SWAP1 JUMP JUMPDEST PUSH1 0x40 DUP1 MLOAD DUP1 DUP3 ADD SWAP1 SWAP2 MSTORE PUSH0 DUP1 DUP3 MSTORE PUSH1 0x20 DUP3 ADD MSTORE PUSH1 0x1 PUSH1 0x1 PUSH1 0xA0 SHL SUB DUP4 AND PUSH0 SWAP1 DUP2 MSTORE PUSH1 0x9 PUSH1 0x20 MSTORE PUSH1 0x40 SWAP1 KECCAK256 PUSH2 0x8C8 SWAP1 DUP4 PUSH2 0x141A JUMP JUMPDEST PUSH1 0x1 PUSH1 0x1 PUSH1 0xA0 SHL SUB DUP5 AND PUSH2 0xE4E JUMPI PUSH0 PUSH1 0x40 MLOAD PUSH4 0xE602DF05 PUSH1 0xE0 SHL DUP2 MSTORE PUSH1 0x4 ADD PUSH2 0x4A8 SWAP2 SWAP1 PUSH2 0x1A5D JUMP JUMPDEST PUSH1 0x1 PUSH1 0x1 PUSH1 0xA0 SHL SUB DUP4 AND PUSH2 0xE77 JUMPI PUSH0 PUSH1 0x40 MLOAD PUSH4 0x4A1406B1 PUSH1 0xE1 SHL DUP2 MSTORE PUSH1 0x4 ADD PUSH2 0x4A8 SWAP2 SWAP1 PUSH2 0x1A5D JUMP JUMPDEST PUSH1 0x1 PUSH1 0x1 PUSH1 0xA0 SHL SUB DUP1 DUP6 AND PUSH0 SWAP1 DUP2 MSTORE PUSH1 0x1 PUSH1 0x20 SWAP1 DUP2 MSTORE PUSH1 0x40 DUP1 DUP4 KECCAK256 SWAP4 DUP8 AND DUP4 MSTORE SWAP3 SWAP1 MSTORE KECCAK256 DUP3 SWAP1 SSTORE DUP1 ISZERO PUSH2 0x941 JUMPI DUP3 PUSH1 0x1 PUSH1 0x1 PUSH1 0xA0 SHL SUB AND DUP5 PUSH1 0x1 PUSH1 0x1 PUSH1 0xA0 SHL SUB AND PUSH32 0x8C5BE1E5EBEC7D5BD14F71427D1E84F3DD0314C0F7B2291E5B200AC8C7C3B925 DUP5 PUSH1 0x40 MLOAD PUSH2 0xEE9 SWAP2 DUP2 MSTORE PUSH1 0x20 ADD SWAP1 JUMP JUMPDEST PUSH1 0x40 MLOAD DUP1 SWAP2 SUB SWAP1 LOG3 POP POP POP POP JUMP JUMPDEST PUSH2 0x8F2 DUP4 DUP4 DUP4 PUSH2 0x1487 JUMP JUMPDEST PUSH0 DUP2 PUSH0 SUB PUSH2 0xF11 JUMPI POP PUSH0 SWAP2 SWAP1 POP JUMP JUMPDEST PUSH0 PUSH1 0x1 PUSH2 0xF1D DUP5 PUSH2 0x14ED JUMP JUMPDEST SWAP1 SHR PUSH1 0x1 SWAP1 SHL SWAP1 POP PUSH1 0x1 DUP2 DUP5 DUP2 PUSH2 0xF36 JUMPI PUSH2 0xF36 PUSH2 0x1D30 JUMP JUMPDEST DIV DUP3 ADD SWAP1 SHR SWAP1 POP PUSH1 0x1 DUP2 DUP5 DUP2 PUSH2 0xF4E JUMPI PUSH2 0xF4E PUSH2 0x1D30 JUMP JUMPDEST DIV DUP3 ADD SWAP1 SHR SWAP1 POP PUSH1 0x1 DUP2 DUP5 DUP2 PUSH2 0xF66 JUMPI PUSH2 0xF66 PUSH2 0x1D30 JUMP JUMPDEST DIV DUP3 ADD SWAP1 SHR SWAP1 POP PUSH1 0x1 DUP2 DUP5 DUP2 PUSH2 0xF7E JUMPI PUSH2 0xF7E PUSH2 0x1D30 JUMP JUMPDEST DIV DUP3 ADD SWAP1 SHR SWAP1 POP PUSH1 0x1 DUP2 DUP5 DUP2 PUSH2 0xF96 JUMPI PUSH2 0xF96 PUSH2 0x1D30 JUMP JUMPDEST DIV DUP3 ADD SWAP1 SHR SWAP1 POP PUSH1 0x1 DUP2 DUP5 DUP2 PUSH2 0xFAE JUMPI PUSH2 0xFAE PUSH2 0x1D30 JUMP JUMPDEST DIV DUP3 ADD SWAP1 SHR SWAP1 POP PUSH1 0x1 DUP2 DUP5 DUP2 PUSH2 0xFC6 JUMPI PUSH2 0xFC6 PUSH2 0x1D30 JUMP JUMPDEST DIV DUP3 ADD SWAP1 SHR SWAP1 POP PUSH2 0x8C8 DUP2 DUP3 DUP6 DUP2 PUSH2 0xFE0 JUMPI PUSH2 0xFE0 PUSH2 0x1D30 JUMP JUMPDEST DIV PUSH2 0x1580 JUMP JUMPDEST PUSH0 JUMPDEST DUP2 DUP4 LT ISZERO PUSH2 0x103D JUMPI PUSH0 PUSH2 0xFFB DUP5 DUP5 PUSH2 0x1595 JUMP JUMPDEST PUSH0 DUP8 DUP2 MSTORE PUSH1 0x20 SWAP1 KECCAK256 SWAP1 SWAP2 POP PUSH6 0xFFFFFFFFFFFF DUP7 AND SWAP1 DUP3 ADD SLOAD PUSH6 0xFFFFFFFFFFFF AND GT ISZERO PUSH2 0x1029 JUMPI DUP1 SWAP3 POP PUSH2 0x1037 JUMP JUMPDEST PUSH2 0x1034 DUP2 PUSH1 0x1 PUSH2 0x1D1D JUMP JUMPDEST SWAP4 POP JUMPDEST POP PUSH2 0xFE8 JUMP JUMPDEST POP SWAP4 SWAP3 POP POP POP JUMP JUMPDEST PUSH1 0x1 PUSH1 0x1 PUSH1 0xA0 SHL SUB DUP2 AND PUSH0 SWAP1 DUP2 MSTORE PUSH1 0x20 DUP2 SWAP1 MSTORE PUSH1 0x40 DUP2 KECCAK256 SLOAD PUSH2 0x430 JUMP JUMPDEST DUP2 PUSH1 0x1 PUSH1 0x1 PUSH1 0xA0 SHL SUB AND DUP4 PUSH1 0x1 PUSH1 0x1 PUSH1 0xA0 SHL SUB AND EQ ISZERO DUP1 ISZERO PUSH2 0x1083 JUMPI POP PUSH0 DUP2 GT JUMPDEST ISZERO PUSH2 0x8F2 JUMPI PUSH1 0x1 PUSH1 0x1 PUSH1 0xA0 SHL SUB DUP4 AND ISZERO PUSH2 0x112A JUMPI PUSH1 0x1 PUSH1 0x1 PUSH1 0xA0 SHL SUB DUP4 AND PUSH0 SWAP1 DUP2 MSTORE PUSH1 0x9 PUSH1 0x20 MSTORE PUSH1 0x40 DUP2 KECCAK256 DUP2 SWAP1 PUSH2 0x10C5 SWAP1 PUSH2 0x8DA PUSH2 0x10C0 DUP7 PUSH2 0x15AF JUMP JUMPDEST PUSH2 0x15E2 JUMP JUMPDEST PUSH1 0x1 PUSH1 0x1 PUSH1 0xD0 SHL SUB AND SWAP2 POP PUSH1 0x1 PUSH1 0x1 PUSH1 0xD0 SHL SUB AND SWAP2 POP DUP5 PUSH1 0x1 PUSH1 0x1 PUSH1 0xA0 SHL SUB AND PUSH32 0xDEC2BACDD2F05B59DE34DA9B523DFF8BE42E5E38E818C82FDB0BAE774387A724 DUP4 DUP4 PUSH1 0x40 MLOAD PUSH2 0x111F SWAP3 SWAP2 SWAP1 SWAP2 DUP3 MSTORE PUSH1 0x20 DUP3 ADD MSTORE PUSH1 0x40 ADD SWAP1 JUMP JUMPDEST PUSH1 0x40 MLOAD DUP1 SWAP2 SUB SWAP1 LOG2 POP POP JUMPDEST PUSH1 0x1 PUSH1 0x1 PUSH1 0xA0 SHL SUB DUP3 AND ISZERO PUSH2 0x8F2 JUMPI PUSH1 0x1 PUSH1 0x1 PUSH1 0xA0 SHL SUB DUP3 AND PUSH0 SWAP1 DUP2 MSTORE PUSH1 0x9 PUSH1 0x20 MSTORE PUSH1 0x40 DUP2 KECCAK256 DUP2 SWAP1 PUSH2 0x1162 SWAP1 PUSH2 0x8CF PUSH2 0x10C0 DUP7 PUSH2 0x15AF JUMP JUMPDEST PUSH1 0x1 PUSH1 0x1 PUSH1 0xD0 SHL SUB AND SWAP2 POP PUSH1 0x1 PUSH1 0x1 PUSH1 0xD0 SHL SUB AND SWAP2 POP DUP4 PUSH1 0x1 PUSH1 0x1 PUSH1 0xA0 SHL SUB AND PUSH32 0xDEC2BACDD2F05B59DE34DA9B523DFF8BE42E5E38E818C82FDB0BAE774387A724 DUP4 DUP4 PUSH1 0x40 MLOAD PUSH2 0x11BC SWAP3 SWAP2 SWAP1 SWAP2 DUP3 MSTORE PUSH1 0x20 DUP3 ADD MSTORE PUSH1 0x40 ADD SWAP1 JUMP JUMPDEST PUSH1 0x40 MLOAD DUP1 SWAP2 SUB SWAP1 LOG2 POP POP POP POP POP JUMP JUMPDEST PUSH0 PUSH4 0xFFFFFFFF DUP3 GT ISZERO PUSH2 0xAFF JUMPI PUSH1 0x40 MLOAD PUSH4 0x6DFCC65 PUSH1 0xE4 SHL DUP2 MSTORE PUSH1 0x20 PUSH1 0x4 DUP3 ADD MSTORE PUSH1 0x24 DUP2 ADD DUP4 SWAP1 MSTORE PUSH1 0x44 ADD PUSH2 0x4A8 JUMP JUMPDEST PUSH1 0x60 PUSH1 0xFF DUP4 EQ PUSH2 0x1215 JUMPI PUSH2 0x120E DUP4 PUSH2 0x161A JUMP JUMPDEST SWAP1 POP PUSH2 0x430 JUMP JUMPDEST DUP2 DUP1 SLOAD PUSH2 0x1221 SWAP1 PUSH2 0x1C56 JUMP JUMPDEST DUP1 PUSH1 0x1F ADD PUSH1 0x20 DUP1 SWAP2 DIV MUL PUSH1 0x20 ADD PUSH1 0x40 MLOAD SWAP1 DUP2 ADD PUSH1 0x40 MSTORE DUP1 SWAP3 SWAP2 SWAP1 DUP2 DUP2 MSTORE PUSH1 0x20 ADD DUP3 DUP1 SLOAD PUSH2 0x124D SWAP1 PUSH2 0x1C56 JUMP JUMPDEST DUP1 ISZERO PUSH2 0x1298 JUMPI DUP1 PUSH1 0x1F LT PUSH2 0x126F JUMPI PUSH2 0x100 DUP1 DUP4 SLOAD DIV MUL DUP4 MSTORE SWAP2 PUSH1 0x20 ADD SWAP2 PUSH2 0x1298 JUMP JUMPDEST DUP3 ADD SWAP2 SWAP1 PUSH0 MSTORE PUSH1 0x20 PUSH0 KECCAK256 SWAP1 JUMPDEST DUP2 SLOAD DUP2 MSTORE SWAP1 PUSH1 0x1 ADD SWAP1 PUSH1 0x20 ADD DUP1 DUP4 GT PUSH2 0x127B JUMPI DUP3 SWAP1 SUB PUSH1 0x1F AND DUP3 ADD SWAP2 JUMPDEST POP POP POP POP POP SWAP1 POP PUSH2 0x430 JUMP JUMPDEST PUSH0 DUP1 DUP1 PUSH16 0xA2A8918CA85BAFE22016D0B997E4DF60 PUSH1 0x1 PUSH1 0xFF SHL SUB DUP5 GT ISZERO PUSH2 0x12D3 JUMPI POP PUSH0 SWAP2 POP PUSH1 0x3 SWAP1 POP DUP3 PUSH2 0x1358 JUMP JUMPDEST PUSH1 0x40 DUP1 MLOAD PUSH0 DUP1 DUP3 MSTORE PUSH1 0x20 DUP3 ADD DUP1 DUP5 MSTORE DUP11 SWAP1 MSTORE PUSH1 0xFF DUP10 AND SWAP3 DUP3 ADD SWAP3 SWAP1 SWAP3 MSTORE PUSH1 0x60 DUP2 ADD DUP8 SWAP1 MSTORE PUSH1 0x80 DUP2 ADD DUP7 SWAP1 MSTORE PUSH1 0x1 SWAP1 PUSH1 0xA0 ADD PUSH1 0x20 PUSH1 0x40 MLOAD PUSH1 0x20 DUP2 SUB SWAP1 DUP1 DUP5 SUB SWAP1 DUP6 GAS STATICCALL ISZERO DUP1 ISZERO PUSH2 0x1324 JUMPI RETURNDATASIZE PUSH0 DUP1 RETURNDATACOPY RETURNDATASIZE PUSH0 REVERT JUMPDEST POP POP PUSH1 0x40 MLOAD PUSH1 0x1F NOT ADD MLOAD SWAP2 POP POP PUSH1 0x1 PUSH1 0x1 PUSH1 0xA0 SHL SUB DUP2 AND PUSH2 0x134F JUMPI POP PUSH0 SWAP3 POP PUSH1 0x1 SWAP2 POP DUP3 SWAP1 POP PUSH2 0x1358 JUMP JUMPDEST SWAP3 POP PUSH0 SWAP2 POP DUP2 SWAP1 POP JUMPDEST SWAP5 POP SWAP5 POP SWAP5 SWAP2 POP POP JUMP JUMPDEST PUSH0 DUP3 PUSH1 0x3 DUP2 GT ISZERO PUSH2 0x1375 JUMPI PUSH2 0x1375 PUSH2 0x1D44 JUMP JUMPDEST SUB PUSH2 0x137E JUMPI POP POP JUMP JUMPDEST PUSH1 0x1 DUP3 PUSH1 0x3 DUP2 GT ISZERO PUSH2 0x1392 JUMPI PUSH2 0x1392 PUSH2 0x1D44 JUMP JUMPDEST SUB PUSH2 0x13B0 JUMPI PUSH1 0x40 MLOAD PUSH4 0xF645EEDF PUSH1 0xE0 SHL DUP2 MSTORE PUSH1 0x4 ADD PUSH1 0x40 MLOAD DUP1 SWAP2 SUB SWAP1 REVERT JUMPDEST PUSH1 0x2 DUP3 PUSH1 0x3 DUP2 GT ISZERO PUSH2 0x13C4 JUMPI PUSH2 0x13C4 PUSH2 0x1D44 JUMP JUMPDEST SUB PUSH2 0x13E5 JUMPI PUSH1 0x40 MLOAD PUSH4 0xFCE698F7 PUSH1 0xE0 SHL DUP2 MSTORE PUSH1 0x4 DUP2 ADD DUP3 SWAP1 MSTORE PUSH1 0x24 ADD PUSH2 0x4A8 JUMP JUMPDEST PUSH1 0x3 DUP3 PUSH1 0x3 DUP2 GT ISZERO PUSH2 0x13F9 JUMPI PUSH2 0x13F9 PUSH2 0x1D44 JUMP JUMPDEST SUB PUSH2 0x4F5 JUMPI PUSH1 0x40 MLOAD PUSH4 0x35E2F383 PUSH1 0xE2 SHL DUP2 MSTORE PUSH1 0x4 DUP2 ADD DUP3 SWAP1 MSTORE PUSH1 0x24 ADD PUSH2 0x4A8 JUMP JUMPDEST PUSH1 0x40 DUP1 MLOAD DUP1 DUP3 ADD SWAP1 SWAP2 MSTORE PUSH0 DUP1 DUP3 MSTORE PUSH1 0x20 DUP3 ADD MSTORE DUP3 PUSH0 ADD DUP3 PUSH4 0xFFFFFFFF AND DUP2 SLOAD DUP2 LT PUSH2 0x1447 JUMPI PUSH2 0x1447 PUSH2 0x1D58 JUMP JUMPDEST PUSH0 SWAP2 DUP3 MSTORE PUSH1 0x20 SWAP2 DUP3 SWAP1 KECCAK256 PUSH1 0x40 DUP1 MLOAD DUP1 DUP3 ADD SWAP1 SWAP2 MSTORE SWAP2 ADD SLOAD PUSH6 0xFFFFFFFFFFFF DUP2 AND DUP3 MSTORE PUSH1 0x1 PUSH1 0x30 SHL SWAP1 DIV PUSH1 0x1 PUSH1 0x1 PUSH1 0xD0 SHL SUB AND SWAP2 DUP2 ADD SWAP2 SWAP1 SWAP2 MSTORE SWAP4 SWAP3 POP POP POP JUMP JUMPDEST PUSH2 0x1492 DUP4 DUP4 DUP4 PUSH2 0x1657 JUMP JUMPDEST PUSH1 0x1 PUSH1 0x1 PUSH1 0xA0 SHL SUB DUP4 AND PUSH2 0x14E2 JUMPI PUSH0 PUSH2 0x14AA PUSH1 0x2 SLOAD SWAP1 JUMP JUMPDEST SWAP1 POP PUSH1 0x1 PUSH1 0x1 PUSH1 0xD0 SHL SUB DUP1 DUP3 GT ISZERO PUSH2 0x14DF JUMPI PUSH1 0x40 MLOAD PUSH4 0xE58AE93 PUSH1 0xE1 SHL DUP2 MSTORE PUSH1 0x4 DUP2 ADD DUP4 SWAP1 MSTORE PUSH1 0x24 DUP2 ADD DUP3 SWAP1 MSTORE PUSH1 0x44 ADD PUSH2 0x4A8 JUMP JUMPDEST POP POP JUMPDEST PUSH2 0x8F2 DUP4 DUP4 DUP4 PUSH2 0x176A JUMP JUMPDEST PUSH0 DUP1 PUSH1 0x80 DUP4 SWAP1 SHR ISZERO PUSH2 0x1501 JUMPI PUSH1 0x80 SWAP3 DUP4 SHR SWAP3 ADD JUMPDEST PUSH1 0x40 DUP4 SWAP1 SHR ISZERO PUSH2 0x1513 JUMPI PUSH1 0x40 SWAP3 DUP4 SHR SWAP3 ADD JUMPDEST PUSH1 0x20 DUP4 SWAP1 SHR ISZERO PUSH2 0x1525 JUMPI PUSH1 0x20 SWAP3 DUP4 SHR SWAP3 ADD JUMPDEST PUSH1 0x10 DUP4 SWAP1 SHR ISZERO PUSH2 0x1537 JUMPI PUSH1 0x10 SWAP3 DUP4 SHR SWAP3 ADD JUMPDEST PUSH1 0x8 DUP4 SWAP1 SHR ISZERO PUSH2 0x1549 JUMPI PUSH1 0x8 SWAP3 DUP4 SHR SWAP3 ADD JUMPDEST PUSH1 0x4 DUP4 SWAP1 SHR ISZERO PUSH2 0x155B JUMPI PUSH1 0x4 SWAP3 DUP4 SHR SWAP3 ADD JUMPDEST PUSH1 0x2 DUP4 SWAP1 SHR ISZERO PUSH2 0x156D JUMPI PUSH1 0x2 SWAP3 DUP4 SHR SWAP3 ADD JUMPDEST PUSH1 0x1 DUP4 SWAP1 SHR ISZERO PUSH2 0x430 JUMPI PUSH1 0x1 ADD SWAP3 SWAP2 POP POP JUMP JUMPDEST PUSH0 DUP2 DUP4 LT PUSH2 0x158E JUMPI DUP2 PUSH2 0x8C8 JUMP JUMPDEST POP SWAP1 SWAP2 SWAP1 POP JUMP JUMPDEST PUSH0 PUSH2 0x15A3 PUSH1 0x2 DUP5 DUP5 XOR PUSH2 0x1D6C JUMP JUMPDEST PUSH2 0x8C8 SWAP1 DUP5 DUP5 AND PUSH2 0x1D1D JUMP JUMPDEST PUSH0 PUSH1 0x1 PUSH1 0x1 PUSH1 0xD0 SHL SUB DUP3 GT ISZERO PUSH2 0xAFF JUMPI PUSH1 0x40 MLOAD PUSH4 0x6DFCC65 PUSH1 0xE4 SHL DUP2 MSTORE PUSH1 0xD0 PUSH1 0x4 DUP3 ADD MSTORE PUSH1 0x24 DUP2 ADD DUP4 SWAP1 MSTORE PUSH1 0x44 ADD PUSH2 0x4A8 JUMP JUMPDEST PUSH0 DUP1 PUSH2 0x160D PUSH2 0x15EF PUSH2 0x658 JUMP JUMPDEST PUSH2 0x1605 PUSH2 0x15FB DUP9 PUSH2 0xD02 JUMP JUMPDEST DUP7 DUP9 PUSH4 0xFFFFFFFF AND JUMP JUMPDEST DUP8 SWAP2 SWAP1 PUSH2 0x17C9 JUMP JUMPDEST SWAP2 POP SWAP2 POP JUMPDEST SWAP4 POP SWAP4 SWAP2 POP POP JUMP JUMPDEST PUSH1 0x60 PUSH0 PUSH2 0x1626 DUP4 PUSH2 0x17D6 JUMP JUMPDEST PUSH1 0x40 DUP1 MLOAD PUSH1 0x20 DUP1 DUP3 MSTORE DUP2 DUP4 ADD SWAP1 SWAP3 MSTORE SWAP2 SWAP3 POP PUSH0 SWAP2 SWAP1 PUSH1 0x20 DUP3 ADD DUP2 DUP1 CALLDATASIZE DUP4 CALLDATACOPY POP POP POP SWAP2 DUP3 MSTORE POP PUSH1 0x20 DUP2 ADD SWAP3 SWAP1 SWAP3 MSTORE POP SWAP1 JUMP JUMPDEST PUSH1 0x1 PUSH1 0x1 PUSH1 0xA0 SHL SUB DUP4 AND PUSH2 0x1681 JUMPI DUP1 PUSH1 0x2 PUSH0 DUP3 DUP3 SLOAD PUSH2 0x1676 SWAP2 SWAP1 PUSH2 0x1D1D JUMP JUMPDEST SWAP1 SWAP2 SSTORE POP PUSH2 0x16DE SWAP1 POP JUMP JUMPDEST PUSH1 0x1 PUSH1 0x1 PUSH1 0xA0 SHL SUB DUP4 AND PUSH0 SWAP1 DUP2 MSTORE PUSH1 0x20 DUP2 SWAP1 MSTORE PUSH1 0x40 SWAP1 KECCAK256 SLOAD DUP2 DUP2 LT ISZERO PUSH2 0x16C0 JUMPI DUP4 DUP2 DUP4 PUSH1 0x40 MLOAD PUSH4 0x391434E3 PUSH1 0xE2 SHL DUP2 MSTORE PUSH1 0x4 ADD PUSH2 0x4A8 SWAP4 SWAP3 SWAP2 SWAP1 PUSH2 0x1CE9 JUMP JUMPDEST PUSH1 0x1 PUSH1 0x1 PUSH1 0xA0 SHL SUB DUP5 AND PUSH0 SWAP1 DUP2 MSTORE PUSH1 0x20 DUP2 SWAP1 MSTORE PUSH1 0x40 SWAP1 KECCAK256 SWAP1 DUP3 SWAP1 SUB SWAP1 SSTORE JUMPDEST PUSH1 0x1 PUSH1 0x1 PUSH1 0xA0 SHL SUB DUP3 AND PUSH2 0x16FA JUMPI PUSH1 0x2 DUP1 SLOAD DUP3 SWAP1 SUB SWAP1 SSTORE PUSH2 0x1718 JUMP JUMPDEST PUSH1 0x1 PUSH1 0x1 PUSH1 0xA0 SHL SUB DUP3 AND PUSH0 SWAP1 DUP2 MSTORE PUSH1 0x20 DUP2 SWAP1 MSTORE PUSH1 0x40 SWAP1 KECCAK256 DUP1 SLOAD DUP3 ADD SWAP1 SSTORE JUMPDEST DUP2 PUSH1 0x1 PUSH1 0x1 PUSH1 0xA0 SHL SUB AND DUP4 PUSH1 0x1 PUSH1 0x1 PUSH1 0xA0 SHL SUB AND PUSH32 0xDDF252AD1BE2C89B69C2B068FC378DAA952BA7F163C4A11628F55A4DF523B3EF DUP4 PUSH1 0x40 MLOAD PUSH2 0x175D SWAP2 DUP2 MSTORE PUSH1 0x20 ADD SWAP1 JUMP JUMPDEST PUSH1 0x40 MLOAD DUP1 SWAP2 SUB SWAP1 LOG3 POP POP POP JUMP JUMPDEST PUSH1 0x1 PUSH1 0x1 PUSH1 0xA0 SHL SUB DUP4 AND PUSH2 0x178C JUMPI PUSH2 0x1789 PUSH1 0xA PUSH2 0x8CF PUSH2 0x10C0 DUP5 PUSH2 0x15AF JUMP JUMPDEST POP POP JUMPDEST PUSH1 0x1 PUSH1 0x1 PUSH1 0xA0 SHL SUB DUP3 AND PUSH2 0x17AE JUMPI PUSH2 0x17AB PUSH1 0xA PUSH2 0x8DA PUSH2 0x10C0 DUP5 PUSH2 0x15AF JUMP JUMPDEST POP POP JUMPDEST PUSH2 0x8F2 PUSH2 0x17BA DUP5 PUSH2 0x571 JUMP JUMPDEST PUSH2 0x17C3 DUP5 PUSH2 0x571 JUMP JUMPDEST DUP4 PUSH2 0x1062 JUMP JUMPDEST PUSH0 DUP1 PUSH2 0x160D DUP6 DUP6 DUP6 PUSH2 0x17FD JUMP JUMPDEST PUSH0 PUSH1 0xFF DUP3 AND PUSH1 0x1F DUP2 GT ISZERO PUSH2 0x430 JUMPI PUSH1 0x40 MLOAD PUSH4 0x2CD44AC3 PUSH1 0xE2 SHL DUP2 MSTORE PUSH1 0x4 ADD PUSH1 0x40 MLOAD DUP1 SWAP2 SUB SWAP1 REVERT JUMPDEST DUP3 SLOAD PUSH0 SWAP1 DUP2 SWAP1 DUP1 ISZERO PUSH2 0x1919 JUMPI PUSH0 PUSH2 0x1819 DUP8 PUSH2 0xB83 PUSH1 0x1 DUP6 PUSH2 0x1D0A JUMP JUMPDEST PUSH1 0x40 DUP1 MLOAD DUP1 DUP3 ADD SWAP1 SWAP2 MSTORE SWAP1 SLOAD PUSH6 0xFFFFFFFFFFFF DUP1 DUP3 AND DUP1 DUP5 MSTORE PUSH1 0x1 PUSH1 0x30 SHL SWAP1 SWAP3 DIV PUSH1 0x1 PUSH1 0x1 PUSH1 0xD0 SHL SUB AND PUSH1 0x20 DUP5 ADD MSTORE SWAP2 SWAP3 POP SWAP1 DUP8 AND LT ISZERO PUSH2 0x186D JUMPI PUSH1 0x40 MLOAD PUSH4 0x2520601D PUSH1 0xE0 SHL DUP2 MSTORE PUSH1 0x4 ADD PUSH1 0x40 MLOAD DUP1 SWAP2 SUB SWAP1 REVERT JUMPDEST DUP1 MLOAD PUSH6 0xFFFFFFFFFFFF DUP1 DUP9 AND SWAP2 AND SUB PUSH2 0x18B9 JUMPI DUP5 PUSH2 0x1890 DUP9 PUSH2 0xB83 PUSH1 0x1 DUP7 PUSH2 0x1D0A JUMP JUMPDEST DUP1 SLOAD PUSH1 0x1 PUSH1 0x1 PUSH1 0xD0 SHL SUB SWAP3 SWAP1 SWAP3 AND PUSH1 0x1 PUSH1 0x30 SHL MUL PUSH6 0xFFFFFFFFFFFF SWAP1 SWAP3 AND SWAP2 SWAP1 SWAP2 OR SWAP1 SSTORE PUSH2 0x1909 JUMP JUMPDEST PUSH1 0x40 DUP1 MLOAD DUP1 DUP3 ADD SWAP1 SWAP2 MSTORE PUSH6 0xFFFFFFFFFFFF DUP1 DUP9 AND DUP3 MSTORE PUSH1 0x1 PUSH1 0x1 PUSH1 0xD0 SHL SUB DUP1 DUP9 AND PUSH1 0x20 DUP1 DUP6 ADD SWAP2 DUP3 MSTORE DUP12 SLOAD PUSH1 0x1 DUP2 ADD DUP14 SSTORE PUSH0 DUP14 DUP2 MSTORE SWAP2 SWAP1 SWAP2 KECCAK256 SWAP5 MLOAD SWAP2 MLOAD SWAP1 SWAP3 AND PUSH1 0x1 PUSH1 0x30 SHL MUL SWAP3 AND SWAP2 SWAP1 SWAP2 OR SWAP2 ADD SSTORE JUMPDEST PUSH1 0x20 ADD MLOAD SWAP3 POP DUP4 SWAP2 POP PUSH2 0x1612 SWAP1 POP JUMP JUMPDEST POP POP PUSH1 0x40 DUP1 MLOAD DUP1 DUP3 ADD SWAP1 SWAP2 MSTORE PUSH6 0xFFFFFFFFFFFF DUP1 DUP6 AND DUP3 MSTORE PUSH1 0x1 PUSH1 0x1 PUSH1 0xD0 SHL SUB DUP1 DUP6 AND PUSH1 0x20 DUP1 DUP6 ADD SWAP2 DUP3 MSTORE DUP9 SLOAD PUSH1 0x1 DUP2 ADD DUP11 SSTORE PUSH0 DUP11 DUP2 MSTORE SWAP2 DUP3 KECCAK256 SWAP6 MLOAD SWAP3 MLOAD SWAP1 SWAP4 AND PUSH1 0x1 PUSH1 0x30 SHL MUL SWAP2 SWAP1 SWAP4 AND OR SWAP3 ADD SWAP2 SWAP1 SWAP2 SSTORE SWAP1 POP DUP2 PUSH2 0x1612 JUMP JUMPDEST PUSH0 DUP2 MLOAD DUP1 DUP5 MSTORE PUSH0 JUMPDEST DUP2 DUP2 LT ISZERO PUSH2 0x1997 JUMPI PUSH1 0x20 DUP2 DUP6 ADD DUP2 ADD MLOAD DUP7 DUP4 ADD DUP3 ADD MSTORE ADD PUSH2 0x197B JUMP JUMPDEST POP PUSH0 PUSH1 0x20 DUP3 DUP7 ADD ADD MSTORE PUSH1 0x20 PUSH1 0x1F NOT PUSH1 0x1F DUP4 ADD AND DUP6 ADD ADD SWAP2 POP POP SWAP3 SWAP2 POP POP JUMP JUMPDEST PUSH1 0x20 DUP2 MSTORE PUSH0 PUSH2 0x8C8 PUSH1 0x20 DUP4 ADD DUP5 PUSH2 0x1973 JUMP JUMPDEST DUP1 CALLDATALOAD PUSH1 0x1 PUSH1 0x1 PUSH1 0xA0 SHL SUB DUP2 AND DUP2 EQ PUSH2 0x19DE JUMPI PUSH0 DUP1 REVERT JUMPDEST SWAP2 SWAP1 POP JUMP JUMPDEST PUSH0 DUP1 PUSH1 0x40 DUP4 DUP6 SUB SLT ISZERO PUSH2 0x19F4 JUMPI PUSH0 DUP1 REVERT JUMPDEST PUSH2 0x19FD DUP4 PUSH2 0x19C8 JUMP JUMPDEST SWAP5 PUSH1 0x20 SWAP4 SWAP1 SWAP4 ADD CALLDATALOAD SWAP4 POP POP POP JUMP JUMPDEST PUSH0 DUP1 PUSH0 PUSH1 0x60 DUP5 DUP7 SUB SLT ISZERO PUSH2 0x1A1D JUMPI PUSH0 DUP1 REVERT JUMPDEST PUSH2 0x1A26 DUP5 PUSH2 0x19C8 JUMP JUMPDEST SWAP3 POP PUSH2 0x1A34 PUSH1 0x20 DUP6 ADD PUSH2 0x19C8 JUMP JUMPDEST SWAP2 POP PUSH1 0x40 DUP5 ADD CALLDATALOAD SWAP1 POP SWAP3 POP SWAP3 POP SWAP3 JUMP JUMPDEST PUSH0 PUSH1 0x20 DUP3 DUP5 SUB SLT ISZERO PUSH2 0x1A54 JUMPI PUSH0 DUP1 REVERT JUMPDEST PUSH2 0x8C8 DUP3 PUSH2 0x19C8 JUMP JUMPDEST PUSH1 0x1 PUSH1 0x1 PUSH1 0xA0 SHL SUB SWAP2 SWAP1 SWAP2 AND DUP2 MSTORE PUSH1 0x20 ADD SWAP1 JUMP JUMPDEST PUSH1 0xFF PUSH1 0xF8 SHL DUP9 AND DUP2 MSTORE PUSH0 PUSH1 0x20 PUSH1 0xE0 PUSH1 0x20 DUP5 ADD MSTORE PUSH2 0x1A91 PUSH1 0xE0 DUP5 ADD DUP11 PUSH2 0x1973 JUMP JUMPDEST DUP4 DUP2 SUB PUSH1 0x40 DUP6 ADD MSTORE PUSH2 0x1AA3 DUP2 DUP11 PUSH2 0x1973 JUMP JUMPDEST PUSH1 0x60 DUP6 ADD DUP10 SWAP1 MSTORE PUSH1 0x1 PUSH1 0x1 PUSH1 0xA0 SHL SUB DUP9 AND PUSH1 0x80 DUP7 ADD MSTORE PUSH1 0xA0 DUP6 ADD DUP8 SWAP1 MSTORE DUP5 DUP2 SUB PUSH1 0xC0 DUP7 ADD MSTORE DUP6 MLOAD DUP1 DUP3 MSTORE PUSH1 0x20 DUP1 DUP9 ADD SWAP4 POP SWAP1 SWAP2 ADD SWAP1 PUSH0 JUMPDEST DUP2 DUP2 LT ISZERO PUSH2 0x1AF6 JUMPI DUP4 MLOAD DUP4 MSTORE SWAP3 DUP5 ADD SWAP3 SWAP2 DUP5 ADD SWAP2 PUSH1 0x1 ADD PUSH2 0x1ADA JUMP JUMPDEST POP SWAP1 SWAP13 SWAP12 POP POP POP POP POP POP POP POP POP POP POP POP JUMP JUMPDEST PUSH0 PUSH1 0x20 DUP3 DUP5 SUB SLT ISZERO PUSH2 0x1B18 JUMPI PUSH0 DUP1 REVERT JUMPDEST POP CALLDATALOAD SWAP2 SWAP1 POP JUMP JUMPDEST DUP1 CALLDATALOAD PUSH1 0xFF DUP2 AND DUP2 EQ PUSH2 0x19DE JUMPI PUSH0 DUP1 REVERT JUMPDEST PUSH0 DUP1 PUSH0 DUP1 PUSH0 DUP1 PUSH1 0xC0 DUP8 DUP10 SUB SLT ISZERO PUSH2 0x1B44 JUMPI PUSH0 DUP1 REVERT JUMPDEST PUSH2 0x1B4D DUP8 PUSH2 0x19C8 JUMP JUMPDEST SWAP6 POP PUSH1 0x20 DUP8 ADD CALLDATALOAD SWAP5 POP PUSH1 0x40 DUP8 ADD CALLDATALOAD SWAP4 POP PUSH2 0x1B69 PUSH1 0x60 DUP9 ADD PUSH2 0x1B1F JUMP JUMPDEST SWAP3 POP PUSH1 0x80 DUP8 ADD CALLDATALOAD SWAP2 POP PUSH1 0xA0 DUP8 ADD CALLDATALOAD SWAP1 POP SWAP3 SWAP6 POP SWAP3 SWAP6 POP SWAP3 SWAP6 JUMP JUMPDEST PUSH0 DUP1 PUSH0 DUP1 PUSH0 DUP1 PUSH0 PUSH1 0xE0 DUP9 DUP11 SUB SLT ISZERO PUSH2 0x1B99 JUMPI PUSH0 DUP1 REVERT JUMPDEST PUSH2 0x1BA2 DUP9 PUSH2 0x19C8 JUMP JUMPDEST SWAP7 POP PUSH2 0x1BB0 PUSH1 0x20 DUP10 ADD PUSH2 0x19C8 JUMP JUMPDEST SWAP6 POP PUSH1 0x40 DUP9 ADD CALLDATALOAD SWAP5 POP PUSH1 0x60 DUP9 ADD CALLDATALOAD SWAP4 POP PUSH2 0x1BCC PUSH1 0x80 DUP10 ADD PUSH2 0x1B1F JUMP JUMPDEST SWAP3 POP PUSH1 0xA0 DUP9 ADD CALLDATALOAD SWAP2 POP PUSH1 0xC0 DUP9 ADD CALLDATALOAD SWAP1 POP SWAP3 SWAP6 SWAP9 SWAP2 SWAP5 SWAP8 POP SWAP3 SWAP6 POP JUMP JUMPDEST PUSH0 DUP1 PUSH1 0x40 DUP4 DUP6 SUB SLT ISZERO PUSH2 0x1BF9 JUMPI PUSH0 DUP1 REVERT JUMPDEST PUSH2 0x1C02 DUP4 PUSH2 0x19C8 JUMP JUMPDEST SWAP2 POP PUSH2 0x1C10 PUSH1 0x20 DUP5 ADD PUSH2 0x19C8 JUMP JUMPDEST SWAP1 POP SWAP3 POP SWAP3 SWAP1 POP JUMP JUMPDEST PUSH0 DUP1 PUSH1 0x40 DUP4 DUP6 SUB SLT ISZERO PUSH2 0x1C2A JUMPI PUSH0 DUP1 REVERT JUMPDEST PUSH2 0x1C33 DUP4 PUSH2 0x19C8 JUMP JUMPDEST SWAP2 POP PUSH1 0x20 DUP4 ADD CALLDATALOAD PUSH4 0xFFFFFFFF DUP2 AND DUP2 EQ PUSH2 0x1C4B JUMPI PUSH0 DUP1 REVERT JUMPDEST DUP1 SWAP2 POP POP SWAP3 POP SWAP3 SWAP1 POP JUMP JUMPDEST PUSH1 0x1 DUP2 DUP2 SHR SWAP1 DUP3 AND DUP1 PUSH2 0x1C6A JUMPI PUSH1 0x7F DUP3 AND SWAP2 POP JUMPDEST PUSH1 0x20 DUP3 LT DUP2 SUB PUSH2 0x1C88 JUMPI PUSH4 0x4E487B71 PUSH1 0xE0 SHL PUSH0 MSTORE PUSH1 0x22 PUSH1 0x4 MSTORE PUSH1 0x24 PUSH0 REVERT JUMPDEST POP SWAP2 SWAP1 POP JUMP JUMPDEST PUSH4 0x4E487B71 PUSH1 0xE0 SHL PUSH0 MSTORE PUSH1 0x11 PUSH1 0x4 MSTORE PUSH1 0x24 PUSH0 REVERT JUMPDEST PUSH1 0x1 PUSH1 0x1 PUSH1 0xD0 SHL SUB DUP2 DUP2 AND DUP4 DUP3 AND ADD SWAP1 DUP1 DUP3 GT ISZERO PUSH2 0x1CC2 JUMPI PUSH2 0x1CC2 PUSH2 0x1C8E JUMP JUMPDEST POP SWAP3 SWAP2 POP POP JUMP JUMPDEST PUSH1 0x1 PUSH1 0x1 PUSH1 0xD0 SHL SUB DUP3 DUP2 AND DUP3 DUP3 AND SUB SWAP1 DUP1 DUP3 GT ISZERO PUSH2 0x1CC2 JUMPI PUSH2 0x1CC2 PUSH2 0x1C8E JUMP JUMPDEST PUSH1 0x1 PUSH1 0x1 PUSH1 0xA0 SHL SUB SWAP4 SWAP1 SWAP4 AND DUP4 MSTORE PUSH1 0x20 DUP4 ADD SWAP2 SWAP1 SWAP2 MSTORE PUSH1 0x40 DUP3 ADD MSTORE PUSH1 0x60 ADD SWAP1 JUMP JUMPDEST DUP2 DUP2 SUB DUP2 DUP2 GT ISZERO PUSH2 0x430 JUMPI PUSH2 0x430 PUSH2 0x1C8E JUMP JUMPDEST DUP1 DUP3 ADD DUP1 DUP3 GT ISZERO PUSH2 0x430 JUMPI PUSH2 0x430 PUSH2 0x1C8E JUMP JUMPDEST PUSH4 0x4E487B71 PUSH1 0xE0 SHL PUSH0 MSTORE PUSH1 0x12 PUSH1 0x4 MSTORE PUSH1 0x24 PUSH0 REVERT JUMPDEST PUSH4 0x4E487B71 PUSH1 0xE0 SHL PUSH0 MSTORE PUSH1 0x21 PUSH1 0x4 MSTORE PUSH1 0x24 PUSH0 REVERT JUMPDEST PUSH4 0x4E487B71 PUSH1 0xE0 SHL PUSH0 MSTORE PUSH1 0x32 PUSH1 0x4 MSTORE PUSH1 0x24 PUSH0 REVERT JUMPDEST PUSH0 DUP3 PUSH2 0x1D86 JUMPI PUSH4 0x4E487B71 PUSH1 0xE0 SHL PUSH0 MSTORE PUSH1 0x12 PUSH1 0x4 MSTORE PUSH1 0x24 PUSH0 REVERT JUMPDEST POP DIV SWAP1 JUMP INVALID LOG2 PUSH5 0x6970667358 0x22 SLT KECCAK256 PUSH25 0x2042793F620677D5480066DF0B93916349E1BB0360B2E5DD38 SUB 0xFC PUSH0 0xC7 0xBE 0xB1 PUSH5 0x736F6C6343 STOP ADDMOD XOR STOP CALLER 0xDE 0xC2 0xBA 0xCD 0xD2 CREATE JUMPDEST MSIZE 0xDE CALLVALUE 0xDA SWAP12 MSTORE RETURNDATASIZE SELFDESTRUCT DUP12 0xE4 0x2E MCOPY CODESIZE 0xE8 XOR 0xC8 0x2F 0xDB SIGNEXTEND 0xAE PUSH24 0x4387A724A2646970667358221220B967336CA4501858E503 SWAP8 0xF9 EXTCODECOPY LT 0x1F 0xC8 PUSH20 0x3ACE5310FC0A1F2D5AA92CCD7E848064736F6C63 NUMBER STOP ADDMOD XOR STOP CALLER "
		},
		"gasEstimates": {
			"creation": {
				"codeDepositCost": "2535800",
				"executionCost": "2738",
				"totalCost": "2538538"
			},
			"external": {
				"deployToken(string,string,address[],uint256[])": "infinite",
				"deployedTokens(uint256)": "4598"
			}
		},
		"methodIdentifiers": {
			"deployToken(string,string,address[],uint256[])": "cdcc9d55",
			"deployedTokens(uint256)": "ec81aadb"
		}
	},
	"abi": [
		{
			"inputs": [
				{
					"internalType": "string",
					"name": "name",
					"type": "string"
				},
				{
					"internalType": "string",
					"name": "symbol",
					"type": "string"
				},
				{
					"internalType": "address[]",
					"name": "initialMembers",
					"type": "address[]"
				},
				{
					"internalType": "uint256[]",
					"name": "initialAmounts",
					"type": "uint256[]"
				}
			],
			"name": "deployToken",
			"outputs": [
				{
					"internalType": "address",
					"name": "",
					"type": "address"
				}
			],
			"stateMutability": "nonpayable",
			"type": "function"
		},
		{
			"inputs": [
				{
					"internalType": "uint256",
					"name": "",
					"type": "uint256"
				}
			],
			"name": "deployedTokens",
			"outputs": [
				{
					"internalType": "address",
					"name": "",
					"type": "address"
				}
			],
			"stateMutability": "view",
			"type": "function"
		}
	]
}