{
	"contracts/debates/newDebates/Debate.sol": {
		"Debate": {
			"abi": [
				{
					"inputs": [
						{
							"internalType": "string",
							"name": "_title",
							"type": "string"
						},
						{
							"internalType": "string",
							"name": "_rootArgText",
							"type": "string"
						},
						{
							"internalType": "bool",
							"name": "_isBinary",
							"type": "bool"
						},
						{
							"internalType": "address",
							"name": "_token",
							"type": "address"
						},
						{
							"internalType": "uint256",
							"name": "_rootWeight",
							"type": "uint256"
						}
					],
					"stateMutability": "nonpayable",
					"type": "constructor"
				},
				{
					"anonymous": false,
					"inputs": [
						{
							"indexed": true,
							"internalType": "address",
							"name": "author",
							"type": "address"
						},
						{
							"indexed": true,
							"internalType": "bytes32",
							"name": "argHash",
							"type": "bytes32"
						},
						{
							"indexed": false,
							"internalType": "bytes32",
							"name": "parentHash",
							"type": "bytes32"
						},
						{
							"indexed": false,
							"internalType": "enum Debate.OptionType",
							"name": "option",
							"type": "uint8"
						},
						{
							"indexed": false,
							"internalType": "uint256",
							"name": "weight",
							"type": "uint256"
						},
						{
							"indexed": false,
							"internalType": "string",
							"name": "fullText",
							"type": "string"
						}
					],
					"name": "ArgumentAdded",
					"type": "event"
				},
				{
					"inputs": [
						{
							"internalType": "string",
							"name": "_argText",
							"type": "string"
						},
						{
							"internalType": "bytes32",
							"name": "_parentHash",
							"type": "bytes32"
						},
						{
							"internalType": "enum Debate.OptionType",
							"name": "_option",
							"type": "uint8"
						},
						{
							"internalType": "uint256",
							"name": "_weight",
							"type": "uint256"
						}
					],
					"name": "addArgument",
					"outputs": [],
					"stateMutability": "nonpayable",
					"type": "function"
				},
				{
					"inputs": [
						{
							"internalType": "bytes32",
							"name": "",
							"type": "bytes32"
						}
					],
					"name": "arguments",
					"outputs": [
						{
							"internalType": "address",
							"name": "author",
							"type": "address"
						},
						{
							"internalType": "bytes32",
							"name": "parentHash",
							"type": "bytes32"
						},
						{
							"internalType": "uint256",
							"name": "weight",
							"type": "uint256"
						},
						{
							"internalType": "enum Debate.OptionType",
							"name": "option",
							"type": "uint8"
						},
						{
							"internalType": "bool",
							"name": "exists",
							"type": "bool"
						}
					],
					"stateMutability": "view",
					"type": "function"
				},
				{
					"inputs": [],
					"name": "getRootArgHash",
					"outputs": [
						{
							"internalType": "bytes32",
							"name": "",
							"type": "bytes32"
						}
					],
					"stateMutability": "view",
					"type": "function"
				},
				{
					"inputs": [],
					"name": "isBinary",
					"outputs": [
						{
							"internalType": "bool",
							"name": "",
							"type": "bool"
						}
					],
					"stateMutability": "view",
					"type": "function"
				},
				{
					"inputs": [],
					"name": "referenceBlock",
					"outputs": [
						{
							"internalType": "uint256",
							"name": "",
							"type": "uint256"
						}
					],
					"stateMutability": "view",
					"type": "function"
				},
				{
					"inputs": [],
					"name": "title",
					"outputs": [
						{
							"internalType": "string",
							"name": "",
							"type": "string"
						}
					],
					"stateMutability": "view",
					"type": "function"
				},
				{
					"inputs": [],
					"name": "token",
					"outputs": [
						{
							"internalType": "address",
							"name": "",
							"type": "address"
						}
					],
					"stateMutability": "view",
					"type": "function"
				},
				{
					"inputs": [
						{
							"internalType": "address",
							"name": "",
							"type": "address"
						}
					],
					"name": "usedWeight",
					"outputs": [
						{
							"internalType": "uint256",
							"name": "",
							"type": "uint256"
						}
					],
					"stateMutability": "view",
					"type": "function"
				}
			],
			"devdoc": {
				"details": "Stores arguments by hashing their text in the contract, but also      emits an event with the full text for off-chain indexing.      Enforces \"no more than your voting power\" usage at creation block.",
				"kind": "dev",
				"methods": {
					"addArgument(string,bytes32,uint8,uint256)": {
						"details": "Add a new argument to the debate",
						"params": {
							"_argText": "The full text of the argument",
							"_option": "0=PRO,1=CON",
							"_parentHash": "The hash of the parent argument",
							"_weight": "The user-assigned weight"
						}
					},
					"constructor": {
						"details": "Deploy a new Debate.",
						"params": {
							"_isBinary": "If true => top-level can be pro/con, else => top-level is effectively pro",
							"_rootArgText": "The full text of the root argument",
							"_rootWeight": "Weight assigned to the root argument",
							"_title": "The title of the debate",
							"_token": "The iVotes-compatible token"
						}
					},
					"getRootArgHash()": {
						"details": "Return the hash of the root argument for reference"
					}
				},
				"title": "Debate",
				"version": 1
			},
			"evm": {
				"assembly": "    /* \"contracts/debates/newDebates/Debate.sol\":692:5369  contract Debate {... */\n  mstore(0x40, 0x80)\n    /* \"contracts/debates/newDebates/Debate.sol\":2044:3284  constructor(... */\n  callvalue\n  dup1\n  iszero\n  tag_1\n  jumpi\n  0x00\n  dup1\n  revert\ntag_1:\n  pop\n  mload(0x40)\n  sub(codesize, bytecodeSize)\n  dup1\n  bytecodeSize\n  dup4\n  codecopy\n  dup2\n  dup2\n  add\n  0x40\n  mstore\n  dup2\n  add\n  swap1\n  tag_2\n  swap2\n  swap1\n  tag_3\n  jump\t// in\ntag_2:\n    /* \"contracts/debates/newDebates/Debate.sol\":2235:2241  _title */\n  dup5\n    /* \"contracts/debates/newDebates/Debate.sol\":2227:2232  title */\n  0x00\n    /* \"contracts/debates/newDebates/Debate.sol\":2227:2241  title = _title */\n  swap1\n  dup2\n  tag_6\n  swap2\n  swap1\n  tag_7\n  jump\t// in\ntag_6:\n  pop\n    /* \"contracts/debates/newDebates/Debate.sol\":2263:2272  _isBinary */\n  dup3\n    /* \"contracts/debates/newDebates/Debate.sol\":2252:2260  isBinary */\n  0x01\n  0x00\n    /* \"contracts/debates/newDebates/Debate.sol\":2252:2272  isBinary = _isBinary */\n  0x0100\n  exp\n  dup2\n  sload\n  dup2\n  0xff\n  mul\n  not\n  and\n  swap1\n  dup4\n  iszero\n  iszero\n  mul\n  or\n  swap1\n  sstore\n  pop\n    /* \"contracts/debates/newDebates/Debate.sol\":2291:2297  _token */\n  dup2\n    /* \"contracts/debates/newDebates/Debate.sol\":2283:2288  token */\n  0x01\n  dup1\n    /* \"contracts/debates/newDebates/Debate.sol\":2283:2297  token = _token */\n  0x0100\n  exp\n  dup2\n  sload\n  dup2\n  0xffffffffffffffffffffffffffffffffffffffff\n  mul\n  not\n  and\n  swap1\n  dup4\n  0xffffffffffffffffffffffffffffffffffffffff\n  and\n  mul\n  or\n  swap1\n  sstore\n  pop\n    /* \"contracts/debates/newDebates/Debate.sol\":2393:2398  token */\n  0x01\n  dup1\n  sload\n  swap1\n  0x0100\n  exp\n  swap1\n  div\n  0xffffffffffffffffffffffffffffffffffffffff\n  and\n    /* \"contracts/debates/newDebates/Debate.sol\":2386:2405  IVotes(token).clock */\n  0xffffffffffffffffffffffffffffffffffffffff\n  and\n  0x91ddadf4\n    /* \"contracts/debates/newDebates/Debate.sol\":2386:2407  IVotes(token).clock() */\n  mload(0x40)\n  dup2\n  0xffffffff\n  and\n  0xe0\n  shl\n  dup2\n  mstore\n  0x04\n  add\n  0x20\n  mload(0x40)\n  dup1\n  dup4\n  sub\n  dup2\n  dup7\n  gas\n  staticcall\n  iszero\n  dup1\n  iszero\n  tag_9\n  jumpi\n  returndatasize\n  0x00\n  dup1\n  returndatacopy\n  revert(0x00, returndatasize)\ntag_9:\n  pop\n  pop\n  pop\n  pop\n  mload(0x40)\n  returndatasize\n  not(0x1f)\n  0x1f\n  dup3\n  add\n  and\n  dup3\n  add\n  dup1\n  0x40\n  mstore\n  pop\n  dup2\n  add\n  swap1\n  tag_10\n  swap2\n  swap1\n  tag_11\n  jump\t// in\ntag_10:\n    /* \"contracts/debates/newDebates/Debate.sol\":2369:2383  referenceBlock */\n  0x02\n    /* \"contracts/debates/newDebates/Debate.sol\":2369:2407  referenceBlock = IVotes(token).clock() */\n  dup2\n  swap1\n  sstore\n  pop\n    /* \"contracts/debates/newDebates/Debate.sol\":2420:2437  uint256 available */\n  0x00\n    /* \"contracts/debates/newDebates/Debate.sol\":2447:2452  token */\n  0x01\n  dup1\n  sload\n  swap1\n  0x0100\n  exp\n  swap1\n  div\n  0xffffffffffffffffffffffffffffffffffffffff\n  and\n    /* \"contracts/debates/newDebates/Debate.sol\":2440:2462  IVotes(token).getVotes */\n  0xffffffffffffffffffffffffffffffffffffffff\n  and\n  0x9ab24eb0\n    /* \"contracts/debates/newDebates/Debate.sol\":2463:2472  tx.origin */\n  origin\n    /* \"contracts/debates/newDebates/Debate.sol\":2440:2473  IVotes(token).getVotes(tx.origin) */\n  mload(0x40)\n  dup3\n  0xffffffff\n  and\n  0xe0\n  shl\n  dup2\n  mstore\n  0x04\n  add\n  tag_12\n  swap2\n  swap1\n  tag_13\n  jump\t// in\ntag_12:\n  0x20\n  mload(0x40)\n  dup1\n  dup4\n  sub\n  dup2\n  dup7\n  gas\n  staticcall\n  iszero\n  dup1\n  iszero\n  tag_15\n  jumpi\n  returndatasize\n  0x00\n  dup1\n  returndatacopy\n  revert(0x00, returndatasize)\ntag_15:\n  pop\n  pop\n  pop\n  pop\n  mload(0x40)\n  returndatasize\n  not(0x1f)\n  0x1f\n  dup3\n  add\n  and\n  dup3\n  add\n  dup1\n  0x40\n  mstore\n  pop\n  dup2\n  add\n  swap1\n  tag_16\n  swap2\n  swap1\n  tag_11\n  jump\t// in\ntag_16:\n    /* \"contracts/debates/newDebates/Debate.sol\":2420:2473  uint256 available = IVotes(token).getVotes(tx.origin) */\n  swap1\n  pop\n    /* \"contracts/debates/newDebates/Debate.sol\":2507:2516  available */\n  dup1\n    /* \"contracts/debates/newDebates/Debate.sol\":2492:2503  _rootWeight */\n  dup3\n    /* \"contracts/debates/newDebates/Debate.sol\":2492:2516  _rootWeight <= available */\n  gt\n  iszero\n    /* \"contracts/debates/newDebates/Debate.sol\":2484:2557  require(_rootWeight <= available, \"Not enough voting power for root arg\") */\n  tag_17\n  jumpi\n  mload(0x40)\n  0x08c379a000000000000000000000000000000000000000000000000000000000\n  dup2\n  mstore\n  0x04\n  add\n  tag_18\n  swap1\n  tag_19\n  jump\t// in\ntag_18:\n  mload(0x40)\n  dup1\n  swap2\n  sub\n  swap1\n  revert\ntag_17:\n    /* \"contracts/debates/newDebates/Debate.sol\":2594:2605  _rootWeight */\n  dup2\n    /* \"contracts/debates/newDebates/Debate.sol\":2570:2580  usedWeight */\n  0x03\n    /* \"contracts/debates/newDebates/Debate.sol\":2570:2591  usedWeight[tx.origin] */\n  0x00\n    /* \"contracts/debates/newDebates/Debate.sol\":2581:2590  tx.origin */\n  origin\n    /* \"contracts/debates/newDebates/Debate.sol\":2570:2591  usedWeight[tx.origin] */\n  0xffffffffffffffffffffffffffffffffffffffff\n  and\n  0xffffffffffffffffffffffffffffffffffffffff\n  and\n  dup2\n  mstore\n  0x20\n  add\n  swap1\n  dup2\n  mstore\n  0x20\n  add\n  0x00\n  keccak256\n    /* \"contracts/debates/newDebates/Debate.sol\":2570:2605  usedWeight[tx.origin] = _rootWeight */\n  dup2\n  swap1\n  sstore\n  pop\n    /* \"contracts/debates/newDebates/Debate.sol\":2618:2633  bytes32 hashVal */\n  0x00\n    /* \"contracts/debates/newDebates/Debate.sol\":2663:2675  _rootArgText */\n  dup6\n    /* \"contracts/debates/newDebates/Debate.sol\":2677:2686  tx.origin */\n  origin\n    /* \"contracts/debates/newDebates/Debate.sol\":2688:2703  block.timestamp */\n  timestamp\n    /* \"contracts/debates/newDebates/Debate.sol\":2646:2704  abi.encodePacked(_rootArgText, tx.origin, block.timestamp) */\n  add(0x20, mload(0x40))\n  tag_20\n  swap4\n  swap3\n  swap2\n  swap1\n  tag_21\n  jump\t// in\ntag_20:\n  mload(0x40)\n  0x20\n  dup2\n  dup4\n  sub\n  sub\n  dup2\n  mstore\n  swap1\n  0x40\n  mstore\n    /* \"contracts/debates/newDebates/Debate.sol\":2636:2705  keccak256(abi.encodePacked(_rootArgText, tx.origin, block.timestamp)) */\n  dup1\n  mload\n  swap1\n  0x20\n  add\n  keccak256\n    /* \"contracts/debates/newDebates/Debate.sol\":2618:2705  bytes32 hashVal = keccak256(abi.encodePacked(_rootArgText, tx.origin, block.timestamp)) */\n  swap1\n  pop\n    /* \"contracts/debates/newDebates/Debate.sol\":2730:2737  hashVal */\n  dup1\n    /* \"contracts/debates/newDebates/Debate.sol\":2716:2727  rootArgHash */\n  0x05\n    /* \"contracts/debates/newDebates/Debate.sol\":2716:2737  rootArgHash = hashVal */\n  dup2\n  swap1\n  sstore\n  pop\n    /* \"contracts/debates/newDebates/Debate.sol\":2816:3009  ArgumentData({... */\n  mload(0x40)\n  dup1\n  0xa0\n  add\n  0x40\n  mstore\n  dup1\n    /* \"contracts/debates/newDebates/Debate.sol\":2852:2862  msg.sender */\n  caller\n    /* \"contracts/debates/newDebates/Debate.sol\":2816:3009  ArgumentData({... */\n  0xffffffffffffffffffffffffffffffffffffffff\n  and\n  dup2\n  mstore\n  0x20\n  add\n    /* \"contracts/debates/newDebates/Debate.sol\":2897:2898  0 */\n  0x00\n    /* \"contracts/debates/newDebates/Debate.sol\":2889:2899  bytes32(0) */\n  dup1\n  shl\n    /* \"contracts/debates/newDebates/Debate.sol\":2816:3009  ArgumentData({... */\n  dup2\n  mstore\n  0x20\n  add\n    /* \"contracts/debates/newDebates/Debate.sol\":2922:2933  _rootWeight */\n  dup5\n    /* \"contracts/debates/newDebates/Debate.sol\":2816:3009  ArgumentData({... */\n  dup2\n  mstore\n  0x20\n  add\n    /* \"contracts/debates/newDebates/Debate.sol\":2956:2970  OptionType.PRO */\n  0x00\n    /* \"contracts/debates/newDebates/Debate.sol\":2816:3009  ArgumentData({... */\n  0x01\n  dup2\n  gt\n  iszero\n  tag_22\n  jumpi\n  tag_23\n  tag_24\n  jump\t// in\ntag_23:\ntag_22:\n  dup2\n  mstore\n  0x20\n  add\n    /* \"contracts/debates/newDebates/Debate.sol\":2993:2997  true */\n  0x01\n    /* \"contracts/debates/newDebates/Debate.sol\":2816:3009  ArgumentData({... */\n  iszero\n  iszero\n  dup2\n  mstore\n  pop\n    /* \"contracts/debates/newDebates/Debate.sol\":2795:2804  arguments */\n  0x04\n    /* \"contracts/debates/newDebates/Debate.sol\":2795:2813  arguments[hashVal] */\n  0x00\n    /* \"contracts/debates/newDebates/Debate.sol\":2805:2812  hashVal */\n  dup4\n    /* \"contracts/debates/newDebates/Debate.sol\":2795:2813  arguments[hashVal] */\n  dup2\n  mstore\n  0x20\n  add\n  swap1\n  dup2\n  mstore\n  0x20\n  add\n  0x00\n  keccak256\n    /* \"contracts/debates/newDebates/Debate.sol\":2795:3009  arguments[hashVal] = ArgumentData({... */\n  0x00\n  dup3\n  add\n  mload\n  dup2\n  0x00\n  add\n  exp(0x0100, 0x00)\n  dup2\n  sload\n  dup2\n  0xffffffffffffffffffffffffffffffffffffffff\n  mul\n  not\n  and\n  swap1\n  dup4\n  0xffffffffffffffffffffffffffffffffffffffff\n  and\n  mul\n  or\n  swap1\n  sstore\n  pop\n  0x20\n  dup3\n  add\n  mload\n  dup2\n  0x01\n  add\n  sstore\n  0x40\n  dup3\n  add\n  mload\n  dup2\n  0x02\n  add\n  sstore\n  0x60\n  dup3\n  add\n  mload\n  dup2\n  0x03\n  add\n  exp(0x0100, 0x00)\n  dup2\n  sload\n  dup2\n  0xff\n  mul\n  not\n  and\n  swap1\n  dup4\n  0x01\n  dup2\n  gt\n  iszero\n  tag_25\n  jumpi\n  tag_26\n  tag_24\n  jump\t// in\ntag_26:\ntag_25:\n  mul\n  or\n  swap1\n  sstore\n  pop\n  0x80\n  dup3\n  add\n  mload\n  dup2\n  0x03\n  add\n  exp(0x0100, 0x01)\n  dup2\n  sload\n  dup2\n  0xff\n  mul\n  not\n  and\n  swap1\n  dup4\n  iszero\n  iszero\n  mul\n  or\n  swap1\n  sstore\n  pop\n  swap1\n  pop\n  pop\n    /* \"contracts/debates/newDebates/Debate.sol\":3136:3143  hashVal */\n  dup1\n    /* \"contracts/debates/newDebates/Debate.sol\":3111:3121  msg.sender */\n  caller\n    /* \"contracts/debates/newDebates/Debate.sol\":3083:3276  ArgumentAdded(... */\n  0xffffffffffffffffffffffffffffffffffffffff\n  and\n  0x6bb09798f64ec0b0dbfefcc9c215ca4813a205c4f6419d85056e5a5c68409974\n    /* \"contracts/debates/newDebates/Debate.sol\":3166:3167  0 */\n  0x00\n    /* \"contracts/debates/newDebates/Debate.sol\":3158:3168  bytes32(0) */\n  dup1\n  shl\n    /* \"contracts/debates/newDebates/Debate.sol\":3198:3212  OptionType.PRO */\n  0x00\n    /* \"contracts/debates/newDebates/Debate.sol\":3227:3238  _rootWeight */\n  dup8\n    /* \"contracts/debates/newDebates/Debate.sol\":3253:3265  _rootArgText */\n  dup12\n    /* \"contracts/debates/newDebates/Debate.sol\":3083:3276  ArgumentAdded(... */\n  mload(0x40)\n  tag_27\n  swap5\n  swap4\n  swap3\n  swap2\n  swap1\n  tag_28\n  jump\t// in\ntag_27:\n  mload(0x40)\n  dup1\n  swap2\n  sub\n  swap1\n  log3\n    /* \"contracts/debates/newDebates/Debate.sol\":2216:3284  {... */\n  pop\n  pop\n    /* \"contracts/debates/newDebates/Debate.sol\":2044:3284  constructor(... */\n  pop\n  pop\n  pop\n  pop\n  pop\n    /* \"contracts/debates/newDebates/Debate.sol\":692:5369  contract Debate {... */\n  jump(tag_29)\n    /* \"#utility.yul\":7:82   */\ntag_30:\n    /* \"#utility.yul\":40:46   */\n  0x00\n    /* \"#utility.yul\":73:75   */\n  0x40\n    /* \"#utility.yul\":67:76   */\n  mload\n    /* \"#utility.yul\":57:76   */\n  swap1\n  pop\n    /* \"#utility.yul\":7:82   */\n  swap1\n  jump\t// out\n    /* \"#utility.yul\":88:205   */\ntag_31:\n    /* \"#utility.yul\":197:198   */\n  0x00\n    /* \"#utility.yul\":194:195   */\n  dup1\n    /* \"#utility.yul\":187:199   */\n  revert\n    /* \"#utility.yul\":211:328   */\ntag_32:\n    /* \"#utility.yul\":320:321   */\n  0x00\n    /* \"#utility.yul\":317:318   */\n  dup1\n    /* \"#utility.yul\":310:322   */\n  revert\n    /* \"#utility.yul\":334:451   */\ntag_33:\n    /* \"#utility.yul\":443:444   */\n  0x00\n    /* \"#utility.yul\":440:441   */\n  dup1\n    /* \"#utility.yul\":433:445   */\n  revert\n    /* \"#utility.yul\":457:574   */\ntag_34:\n    /* \"#utility.yul\":566:567   */\n  0x00\n    /* \"#utility.yul\":563:564   */\n  dup1\n    /* \"#utility.yul\":556:568   */\n  revert\n    /* \"#utility.yul\":580:682   */\ntag_35:\n    /* \"#utility.yul\":621:627   */\n  0x00\n    /* \"#utility.yul\":672:674   */\n  0x1f\n    /* \"#utility.yul\":668:675   */\n  not\n    /* \"#utility.yul\":663:665   */\n  0x1f\n    /* \"#utility.yul\":656:661   */\n  dup4\n    /* \"#utility.yul\":652:666   */\n  add\n    /* \"#utility.yul\":648:676   */\n  and\n    /* \"#utility.yul\":638:676   */\n  swap1\n  pop\n    /* \"#utility.yul\":580:682   */\n  swap2\n  swap1\n  pop\n  jump\t// out\n    /* \"#utility.yul\":688:868   */\ntag_36:\n    /* \"#utility.yul\":736:813   */\n  0x4e487b7100000000000000000000000000000000000000000000000000000000\n    /* \"#utility.yul\":733:734   */\n  0x00\n    /* \"#utility.yul\":726:814   */\n  mstore\n    /* \"#utility.yul\":833:837   */\n  0x41\n    /* \"#utility.yul\":830:831   */\n  0x04\n    /* \"#utility.yul\":823:838   */\n  mstore\n    /* \"#utility.yul\":857:861   */\n  0x24\n    /* \"#utility.yul\":854:855   */\n  0x00\n    /* \"#utility.yul\":847:862   */\n  revert\n    /* \"#utility.yul\":874:1155   */\ntag_37:\n    /* \"#utility.yul\":957:984   */\n  tag_100\n    /* \"#utility.yul\":979:983   */\n  dup3\n    /* \"#utility.yul\":957:984   */\n  tag_35\n  jump\t// in\ntag_100:\n    /* \"#utility.yul\":949:955   */\n  dup2\n    /* \"#utility.yul\":945:985   */\n  add\n    /* \"#utility.yul\":1087:1093   */\n  dup2\n    /* \"#utility.yul\":1075:1085   */\n  dup2\n    /* \"#utility.yul\":1072:1094   */\n  lt\n    /* \"#utility.yul\":1051:1069   */\n  0xffffffffffffffff\n    /* \"#utility.yul\":1039:1049   */\n  dup3\n    /* \"#utility.yul\":1036:1070   */\n  gt\n    /* \"#utility.yul\":1033:1095   */\n  or\n    /* \"#utility.yul\":1030:1118   */\n  iszero\n  tag_101\n  jumpi\n    /* \"#utility.yul\":1098:1116   */\n  tag_102\n  tag_36\n  jump\t// in\ntag_102:\n    /* \"#utility.yul\":1030:1118   */\ntag_101:\n    /* \"#utility.yul\":1138:1148   */\n  dup1\n    /* \"#utility.yul\":1134:1136   */\n  0x40\n    /* \"#utility.yul\":1127:1149   */\n  mstore\n    /* \"#utility.yul\":917:1155   */\n  pop\n    /* \"#utility.yul\":874:1155   */\n  pop\n  pop\n  jump\t// out\n    /* \"#utility.yul\":1161:1290   */\ntag_38:\n    /* \"#utility.yul\":1195:1201   */\n  0x00\n    /* \"#utility.yul\":1222:1242   */\n  tag_104\n  tag_30\n  jump\t// in\ntag_104:\n    /* \"#utility.yul\":1212:1242   */\n  swap1\n  pop\n    /* \"#utility.yul\":1251:1284   */\n  tag_105\n    /* \"#utility.yul\":1279:1283   */\n  dup3\n    /* \"#utility.yul\":1271:1277   */\n  dup3\n    /* \"#utility.yul\":1251:1284   */\n  tag_37\n  jump\t// in\ntag_105:\n    /* \"#utility.yul\":1161:1290   */\n  swap2\n  swap1\n  pop\n  jump\t// out\n    /* \"#utility.yul\":1296:1604   */\ntag_39:\n    /* \"#utility.yul\":1358:1362   */\n  0x00\n    /* \"#utility.yul\":1448:1466   */\n  0xffffffffffffffff\n    /* \"#utility.yul\":1440:1446   */\n  dup3\n    /* \"#utility.yul\":1437:1467   */\n  gt\n    /* \"#utility.yul\":1434:1490   */\n  iszero\n  tag_107\n  jumpi\n    /* \"#utility.yul\":1470:1488   */\n  tag_108\n  tag_36\n  jump\t// in\ntag_108:\n    /* \"#utility.yul\":1434:1490   */\ntag_107:\n    /* \"#utility.yul\":1508:1537   */\n  tag_109\n    /* \"#utility.yul\":1530:1536   */\n  dup3\n    /* \"#utility.yul\":1508:1537   */\n  tag_35\n  jump\t// in\ntag_109:\n    /* \"#utility.yul\":1500:1537   */\n  swap1\n  pop\n    /* \"#utility.yul\":1592:1596   */\n  0x20\n    /* \"#utility.yul\":1586:1590   */\n  dup2\n    /* \"#utility.yul\":1582:1597   */\n  add\n    /* \"#utility.yul\":1574:1597   */\n  swap1\n  pop\n    /* \"#utility.yul\":1296:1604   */\n  swap2\n  swap1\n  pop\n  jump\t// out\n    /* \"#utility.yul\":1610:1749   */\ntag_40:\n    /* \"#utility.yul\":1699:1705   */\n  dup3\n    /* \"#utility.yul\":1694:1697   */\n  dup2\n    /* \"#utility.yul\":1689:1692   */\n  dup4\n    /* \"#utility.yul\":1683:1706   */\n  mcopy\n    /* \"#utility.yul\":1740:1741   */\n  0x00\n    /* \"#utility.yul\":1731:1737   */\n  dup4\n    /* \"#utility.yul\":1726:1729   */\n  dup4\n    /* \"#utility.yul\":1722:1738   */\n  add\n    /* \"#utility.yul\":1715:1742   */\n  mstore\n    /* \"#utility.yul\":1610:1749   */\n  pop\n  pop\n  pop\n  jump\t// out\n    /* \"#utility.yul\":1755:2189   */\ntag_41:\n    /* \"#utility.yul\":1844:1849   */\n  0x00\n    /* \"#utility.yul\":1869:1935   */\n  tag_112\n    /* \"#utility.yul\":1885:1934   */\n  tag_113\n    /* \"#utility.yul\":1927:1933   */\n  dup5\n    /* \"#utility.yul\":1885:1934   */\n  tag_39\n  jump\t// in\ntag_113:\n    /* \"#utility.yul\":1869:1935   */\n  tag_38\n  jump\t// in\ntag_112:\n    /* \"#utility.yul\":1860:1935   */\n  swap1\n  pop\n    /* \"#utility.yul\":1958:1964   */\n  dup3\n    /* \"#utility.yul\":1951:1956   */\n  dup2\n    /* \"#utility.yul\":1944:1965   */\n  mstore\n    /* \"#utility.yul\":1996:2000   */\n  0x20\n    /* \"#utility.yul\":1989:1994   */\n  dup2\n    /* \"#utility.yul\":1985:2001   */\n  add\n    /* \"#utility.yul\":2034:2037   */\n  dup5\n    /* \"#utility.yul\":2025:2031   */\n  dup5\n    /* \"#utility.yul\":2020:2023   */\n  dup5\n    /* \"#utility.yul\":2016:2032   */\n  add\n    /* \"#utility.yul\":2013:2038   */\n  gt\n    /* \"#utility.yul\":2010:2122   */\n  iszero\n  tag_114\n  jumpi\n    /* \"#utility.yul\":2041:2120   */\n  tag_115\n  tag_34\n  jump\t// in\ntag_115:\n    /* \"#utility.yul\":2010:2122   */\ntag_114:\n    /* \"#utility.yul\":2131:2183   */\n  tag_116\n    /* \"#utility.yul\":2176:2182   */\n  dup5\n    /* \"#utility.yul\":2171:2174   */\n  dup3\n    /* \"#utility.yul\":2166:2169   */\n  dup6\n    /* \"#utility.yul\":2131:2183   */\n  tag_40\n  jump\t// in\ntag_116:\n    /* \"#utility.yul\":1850:2189   */\n  pop\n    /* \"#utility.yul\":1755:2189   */\n  swap4\n  swap3\n  pop\n  pop\n  pop\n  jump\t// out\n    /* \"#utility.yul\":2209:2564   */\ntag_42:\n    /* \"#utility.yul\":2276:2281   */\n  0x00\n    /* \"#utility.yul\":2325:2328   */\n  dup3\n    /* \"#utility.yul\":2318:2322   */\n  0x1f\n    /* \"#utility.yul\":2310:2316   */\n  dup4\n    /* \"#utility.yul\":2306:2323   */\n  add\n    /* \"#utility.yul\":2302:2329   */\n  slt\n    /* \"#utility.yul\":2292:2414   */\n  tag_118\n  jumpi\n    /* \"#utility.yul\":2333:2412   */\n  tag_119\n  tag_33\n  jump\t// in\ntag_119:\n    /* \"#utility.yul\":2292:2414   */\ntag_118:\n    /* \"#utility.yul\":2443:2449   */\n  dup2\n    /* \"#utility.yul\":2437:2450   */\n  mload\n    /* \"#utility.yul\":2468:2558   */\n  tag_120\n    /* \"#utility.yul\":2554:2557   */\n  dup5\n    /* \"#utility.yul\":2546:2552   */\n  dup3\n    /* \"#utility.yul\":2539:2543   */\n  0x20\n    /* \"#utility.yul\":2531:2537   */\n  dup7\n    /* \"#utility.yul\":2527:2544   */\n  add\n    /* \"#utility.yul\":2468:2558   */\n  tag_41\n  jump\t// in\ntag_120:\n    /* \"#utility.yul\":2459:2558   */\n  swap2\n  pop\n    /* \"#utility.yul\":2282:2564   */\n  pop\n    /* \"#utility.yul\":2209:2564   */\n  swap3\n  swap2\n  pop\n  pop\n  jump\t// out\n    /* \"#utility.yul\":2570:2660   */\ntag_43:\n    /* \"#utility.yul\":2604:2611   */\n  0x00\n    /* \"#utility.yul\":2647:2652   */\n  dup2\n    /* \"#utility.yul\":2640:2653   */\n  iszero\n    /* \"#utility.yul\":2633:2654   */\n  iszero\n    /* \"#utility.yul\":2622:2654   */\n  swap1\n  pop\n    /* \"#utility.yul\":2570:2660   */\n  swap2\n  swap1\n  pop\n  jump\t// out\n    /* \"#utility.yul\":2666:2782   */\ntag_44:\n    /* \"#utility.yul\":2736:2757   */\n  tag_123\n    /* \"#utility.yul\":2751:2756   */\n  dup2\n    /* \"#utility.yul\":2736:2757   */\n  tag_43\n  jump\t// in\ntag_123:\n    /* \"#utility.yul\":2729:2734   */\n  dup2\n    /* \"#utility.yul\":2726:2758   */\n  eq\n    /* \"#utility.yul\":2716:2776   */\n  tag_124\n  jumpi\n    /* \"#utility.yul\":2772:2773   */\n  0x00\n    /* \"#utility.yul\":2769:2770   */\n  dup1\n    /* \"#utility.yul\":2762:2774   */\n  revert\n    /* \"#utility.yul\":2716:2776   */\ntag_124:\n    /* \"#utility.yul\":2666:2782   */\n  pop\n  jump\t// out\n    /* \"#utility.yul\":2788:2925   */\ntag_45:\n    /* \"#utility.yul\":2842:2847   */\n  0x00\n    /* \"#utility.yul\":2873:2879   */\n  dup2\n    /* \"#utility.yul\":2867:2880   */\n  mload\n    /* \"#utility.yul\":2858:2880   */\n  swap1\n  pop\n    /* \"#utility.yul\":2889:2919   */\n  tag_126\n    /* \"#utility.yul\":2913:2918   */\n  dup2\n    /* \"#utility.yul\":2889:2919   */\n  tag_44\n  jump\t// in\ntag_126:\n    /* \"#utility.yul\":2788:2925   */\n  swap3\n  swap2\n  pop\n  pop\n  jump\t// out\n    /* \"#utility.yul\":2931:3057   */\ntag_46:\n    /* \"#utility.yul\":2968:2975   */\n  0x00\n    /* \"#utility.yul\":3008:3050   */\n  0xffffffffffffffffffffffffffffffffffffffff\n    /* \"#utility.yul\":3001:3006   */\n  dup3\n    /* \"#utility.yul\":2997:3051   */\n  and\n    /* \"#utility.yul\":2986:3051   */\n  swap1\n  pop\n    /* \"#utility.yul\":2931:3057   */\n  swap2\n  swap1\n  pop\n  jump\t// out\n    /* \"#utility.yul\":3063:3159   */\ntag_47:\n    /* \"#utility.yul\":3100:3107   */\n  0x00\n    /* \"#utility.yul\":3129:3153   */\n  tag_129\n    /* \"#utility.yul\":3147:3152   */\n  dup3\n    /* \"#utility.yul\":3129:3153   */\n  tag_46\n  jump\t// in\ntag_129:\n    /* \"#utility.yul\":3118:3153   */\n  swap1\n  pop\n    /* \"#utility.yul\":3063:3159   */\n  swap2\n  swap1\n  pop\n  jump\t// out\n    /* \"#utility.yul\":3165:3287   */\ntag_48:\n    /* \"#utility.yul\":3238:3262   */\n  tag_131\n    /* \"#utility.yul\":3256:3261   */\n  dup2\n    /* \"#utility.yul\":3238:3262   */\n  tag_47\n  jump\t// in\ntag_131:\n    /* \"#utility.yul\":3231:3236   */\n  dup2\n    /* \"#utility.yul\":3228:3263   */\n  eq\n    /* \"#utility.yul\":3218:3281   */\n  tag_132\n  jumpi\n    /* \"#utility.yul\":3277:3278   */\n  0x00\n    /* \"#utility.yul\":3274:3275   */\n  dup1\n    /* \"#utility.yul\":3267:3279   */\n  revert\n    /* \"#utility.yul\":3218:3281   */\ntag_132:\n    /* \"#utility.yul\":3165:3287   */\n  pop\n  jump\t// out\n    /* \"#utility.yul\":3293:3436   */\ntag_49:\n    /* \"#utility.yul\":3350:3355   */\n  0x00\n    /* \"#utility.yul\":3381:3387   */\n  dup2\n    /* \"#utility.yul\":3375:3388   */\n  mload\n    /* \"#utility.yul\":3366:3388   */\n  swap1\n  pop\n    /* \"#utility.yul\":3397:3430   */\n  tag_134\n    /* \"#utility.yul\":3424:3429   */\n  dup2\n    /* \"#utility.yul\":3397:3430   */\n  tag_48\n  jump\t// in\ntag_134:\n    /* \"#utility.yul\":3293:3436   */\n  swap3\n  swap2\n  pop\n  pop\n  jump\t// out\n    /* \"#utility.yul\":3442:3519   */\ntag_50:\n    /* \"#utility.yul\":3479:3486   */\n  0x00\n    /* \"#utility.yul\":3508:3513   */\n  dup2\n    /* \"#utility.yul\":3497:3513   */\n  swap1\n  pop\n    /* \"#utility.yul\":3442:3519   */\n  swap2\n  swap1\n  pop\n  jump\t// out\n    /* \"#utility.yul\":3525:3647   */\ntag_51:\n    /* \"#utility.yul\":3598:3622   */\n  tag_137\n    /* \"#utility.yul\":3616:3621   */\n  dup2\n    /* \"#utility.yul\":3598:3622   */\n  tag_50\n  jump\t// in\ntag_137:\n    /* \"#utility.yul\":3591:3596   */\n  dup2\n    /* \"#utility.yul\":3588:3623   */\n  eq\n    /* \"#utility.yul\":3578:3641   */\n  tag_138\n  jumpi\n    /* \"#utility.yul\":3637:3638   */\n  0x00\n    /* \"#utility.yul\":3634:3635   */\n  dup1\n    /* \"#utility.yul\":3627:3639   */\n  revert\n    /* \"#utility.yul\":3578:3641   */\ntag_138:\n    /* \"#utility.yul\":3525:3647   */\n  pop\n  jump\t// out\n    /* \"#utility.yul\":3653:3796   */\ntag_52:\n    /* \"#utility.yul\":3710:3715   */\n  0x00\n    /* \"#utility.yul\":3741:3747   */\n  dup2\n    /* \"#utility.yul\":3735:3748   */\n  mload\n    /* \"#utility.yul\":3726:3748   */\n  swap1\n  pop\n    /* \"#utility.yul\":3757:3790   */\n  tag_140\n    /* \"#utility.yul\":3784:3789   */\n  dup2\n    /* \"#utility.yul\":3757:3790   */\n  tag_51\n  jump\t// in\ntag_140:\n    /* \"#utility.yul\":3653:3796   */\n  swap3\n  swap2\n  pop\n  pop\n  jump\t// out\n    /* \"#utility.yul\":3802:5119   */\ntag_3:\n    /* \"#utility.yul\":3925:3931   */\n  0x00\n    /* \"#utility.yul\":3933:3939   */\n  dup1\n    /* \"#utility.yul\":3941:3947   */\n  0x00\n    /* \"#utility.yul\":3949:3955   */\n  dup1\n    /* \"#utility.yul\":3957:3963   */\n  0x00\n    /* \"#utility.yul\":4006:4009   */\n  0xa0\n    /* \"#utility.yul\":3994:4003   */\n  dup7\n    /* \"#utility.yul\":3985:3992   */\n  dup9\n    /* \"#utility.yul\":3981:4004   */\n  sub\n    /* \"#utility.yul\":3977:4010   */\n  slt\n    /* \"#utility.yul\":3974:4094   */\n  iszero\n  tag_142\n  jumpi\n    /* \"#utility.yul\":4013:4092   */\n  tag_143\n  tag_31\n  jump\t// in\ntag_143:\n    /* \"#utility.yul\":3974:4094   */\ntag_142:\n    /* \"#utility.yul\":4154:4155   */\n  0x00\n    /* \"#utility.yul\":4143:4152   */\n  dup7\n    /* \"#utility.yul\":4139:4156   */\n  add\n    /* \"#utility.yul\":4133:4157   */\n  mload\n    /* \"#utility.yul\":4184:4202   */\n  0xffffffffffffffff\n    /* \"#utility.yul\":4176:4182   */\n  dup2\n    /* \"#utility.yul\":4173:4203   */\n  gt\n    /* \"#utility.yul\":4170:4287   */\n  iszero\n  tag_144\n  jumpi\n    /* \"#utility.yul\":4206:4285   */\n  tag_145\n  tag_32\n  jump\t// in\ntag_145:\n    /* \"#utility.yul\":4170:4287   */\ntag_144:\n    /* \"#utility.yul\":4311:4385   */\n  tag_146\n    /* \"#utility.yul\":4377:4384   */\n  dup9\n    /* \"#utility.yul\":4368:4374   */\n  dup3\n    /* \"#utility.yul\":4357:4366   */\n  dup10\n    /* \"#utility.yul\":4353:4375   */\n  add\n    /* \"#utility.yul\":4311:4385   */\n  tag_42\n  jump\t// in\ntag_146:\n    /* \"#utility.yul\":4301:4385   */\n  swap6\n  pop\n    /* \"#utility.yul\":4104:4395   */\n  pop\n    /* \"#utility.yul\":4455:4457   */\n  0x20\n    /* \"#utility.yul\":4444:4453   */\n  dup7\n    /* \"#utility.yul\":4440:4458   */\n  add\n    /* \"#utility.yul\":4434:4459   */\n  mload\n    /* \"#utility.yul\":4486:4504   */\n  0xffffffffffffffff\n    /* \"#utility.yul\":4478:4484   */\n  dup2\n    /* \"#utility.yul\":4475:4505   */\n  gt\n    /* \"#utility.yul\":4472:4589   */\n  iszero\n  tag_147\n  jumpi\n    /* \"#utility.yul\":4508:4587   */\n  tag_148\n  tag_32\n  jump\t// in\ntag_148:\n    /* \"#utility.yul\":4472:4589   */\ntag_147:\n    /* \"#utility.yul\":4613:4687   */\n  tag_149\n    /* \"#utility.yul\":4679:4686   */\n  dup9\n    /* \"#utility.yul\":4670:4676   */\n  dup3\n    /* \"#utility.yul\":4659:4668   */\n  dup10\n    /* \"#utility.yul\":4655:4677   */\n  add\n    /* \"#utility.yul\":4613:4687   */\n  tag_42\n  jump\t// in\ntag_149:\n    /* \"#utility.yul\":4603:4687   */\n  swap5\n  pop\n    /* \"#utility.yul\":4405:4697   */\n  pop\n    /* \"#utility.yul\":4736:4738   */\n  0x40\n    /* \"#utility.yul\":4762:4823   */\n  tag_150\n    /* \"#utility.yul\":4815:4822   */\n  dup9\n    /* \"#utility.yul\":4806:4812   */\n  dup3\n    /* \"#utility.yul\":4795:4804   */\n  dup10\n    /* \"#utility.yul\":4791:4813   */\n  add\n    /* \"#utility.yul\":4762:4823   */\n  tag_45\n  jump\t// in\ntag_150:\n    /* \"#utility.yul\":4752:4823   */\n  swap4\n  pop\n    /* \"#utility.yul\":4707:4833   */\n  pop\n    /* \"#utility.yul\":4872:4874   */\n  0x60\n    /* \"#utility.yul\":4898:4962   */\n  tag_151\n    /* \"#utility.yul\":4954:4961   */\n  dup9\n    /* \"#utility.yul\":4945:4951   */\n  dup3\n    /* \"#utility.yul\":4934:4943   */\n  dup10\n    /* \"#utility.yul\":4930:4952   */\n  add\n    /* \"#utility.yul\":4898:4962   */\n  tag_49\n  jump\t// in\ntag_151:\n    /* \"#utility.yul\":4888:4962   */\n  swap3\n  pop\n    /* \"#utility.yul\":4843:4972   */\n  pop\n    /* \"#utility.yul\":5011:5014   */\n  0x80\n    /* \"#utility.yul\":5038:5102   */\n  tag_152\n    /* \"#utility.yul\":5094:5101   */\n  dup9\n    /* \"#utility.yul\":5085:5091   */\n  dup3\n    /* \"#utility.yul\":5074:5083   */\n  dup10\n    /* \"#utility.yul\":5070:5092   */\n  add\n    /* \"#utility.yul\":5038:5102   */\n  tag_52\n  jump\t// in\ntag_152:\n    /* \"#utility.yul\":5028:5102   */\n  swap2\n  pop\n    /* \"#utility.yul\":4982:5112   */\n  pop\n    /* \"#utility.yul\":3802:5119   */\n  swap3\n  swap6\n  pop\n  swap3\n  swap6\n  swap1\n  swap4\n  pop\n  jump\t// out\n    /* \"#utility.yul\":5125:5224   */\ntag_53:\n    /* \"#utility.yul\":5177:5183   */\n  0x00\n    /* \"#utility.yul\":5211:5216   */\n  dup2\n    /* \"#utility.yul\":5205:5217   */\n  mload\n    /* \"#utility.yul\":5195:5217   */\n  swap1\n  pop\n    /* \"#utility.yul\":5125:5224   */\n  swap2\n  swap1\n  pop\n  jump\t// out\n    /* \"#utility.yul\":5230:5410   */\ntag_54:\n    /* \"#utility.yul\":5278:5355   */\n  0x4e487b7100000000000000000000000000000000000000000000000000000000\n    /* \"#utility.yul\":5275:5276   */\n  0x00\n    /* \"#utility.yul\":5268:5356   */\n  mstore\n    /* \"#utility.yul\":5375:5379   */\n  0x22\n    /* \"#utility.yul\":5372:5373   */\n  0x04\n    /* \"#utility.yul\":5365:5380   */\n  mstore\n    /* \"#utility.yul\":5399:5403   */\n  0x24\n    /* \"#utility.yul\":5396:5397   */\n  0x00\n    /* \"#utility.yul\":5389:5404   */\n  revert\n    /* \"#utility.yul\":5416:5736   */\ntag_55:\n    /* \"#utility.yul\":5460:5466   */\n  0x00\n    /* \"#utility.yul\":5497:5498   */\n  0x02\n    /* \"#utility.yul\":5491:5495   */\n  dup3\n    /* \"#utility.yul\":5487:5499   */\n  div\n    /* \"#utility.yul\":5477:5499   */\n  swap1\n  pop\n    /* \"#utility.yul\":5544:5545   */\n  0x01\n    /* \"#utility.yul\":5538:5542   */\n  dup3\n    /* \"#utility.yul\":5534:5546   */\n  and\n    /* \"#utility.yul\":5565:5583   */\n  dup1\n    /* \"#utility.yul\":5555:5636   */\n  tag_156\n  jumpi\n    /* \"#utility.yul\":5621:5625   */\n  0x7f\n    /* \"#utility.yul\":5613:5619   */\n  dup3\n    /* \"#utility.yul\":5609:5626   */\n  and\n    /* \"#utility.yul\":5599:5626   */\n  swap2\n  pop\n    /* \"#utility.yul\":5555:5636   */\ntag_156:\n    /* \"#utility.yul\":5683:5685   */\n  0x20\n    /* \"#utility.yul\":5675:5681   */\n  dup3\n    /* \"#utility.yul\":5672:5686   */\n  lt\n    /* \"#utility.yul\":5652:5670   */\n  dup2\n    /* \"#utility.yul\":5649:5687   */\n  sub\n    /* \"#utility.yul\":5646:5730   */\n  tag_157\n  jumpi\n    /* \"#utility.yul\":5702:5720   */\n  tag_158\n  tag_54\n  jump\t// in\ntag_158:\n    /* \"#utility.yul\":5646:5730   */\ntag_157:\n    /* \"#utility.yul\":5467:5736   */\n  pop\n    /* \"#utility.yul\":5416:5736   */\n  swap2\n  swap1\n  pop\n  jump\t// out\n    /* \"#utility.yul\":5742:5883   */\ntag_56:\n    /* \"#utility.yul\":5791:5795   */\n  0x00\n    /* \"#utility.yul\":5814:5817   */\n  dup2\n    /* \"#utility.yul\":5806:5817   */\n  swap1\n  pop\n    /* \"#utility.yul\":5837:5840   */\n  dup2\n    /* \"#utility.yul\":5834:5835   */\n  0x00\n    /* \"#utility.yul\":5827:5841   */\n  mstore\n    /* \"#utility.yul\":5871:5875   */\n  0x20\n    /* \"#utility.yul\":5868:5869   */\n  0x00\n    /* \"#utility.yul\":5858:5876   */\n  keccak256\n    /* \"#utility.yul\":5850:5876   */\n  swap1\n  pop\n    /* \"#utility.yul\":5742:5883   */\n  swap2\n  swap1\n  pop\n  jump\t// out\n    /* \"#utility.yul\":5889:5982   */\ntag_57:\n    /* \"#utility.yul\":5926:5932   */\n  0x00\n    /* \"#utility.yul\":5973:5975   */\n  0x20\n    /* \"#utility.yul\":5968:5970   */\n  0x1f\n    /* \"#utility.yul\":5961:5966   */\n  dup4\n    /* \"#utility.yul\":5957:5971   */\n  add\n    /* \"#utility.yul\":5953:5976   */\n  div\n    /* \"#utility.yul\":5943:5976   */\n  swap1\n  pop\n    /* \"#utility.yul\":5889:5982   */\n  swap2\n  swap1\n  pop\n  jump\t// out\n    /* \"#utility.yul\":5988:6095   */\ntag_58:\n    /* \"#utility.yul\":6032:6040   */\n  0x00\n    /* \"#utility.yul\":6082:6087   */\n  dup3\n    /* \"#utility.yul\":6076:6080   */\n  dup3\n    /* \"#utility.yul\":6072:6088   */\n  shl\n    /* \"#utility.yul\":6051:6088   */\n  swap1\n  pop\n    /* \"#utility.yul\":5988:6095   */\n  swap3\n  swap2\n  pop\n  pop\n  jump\t// out\n    /* \"#utility.yul\":6101:6494   */\ntag_59:\n    /* \"#utility.yul\":6170:6176   */\n  0x00\n    /* \"#utility.yul\":6220:6221   */\n  0x08\n    /* \"#utility.yul\":6208:6218   */\n  dup4\n    /* \"#utility.yul\":6204:6222   */\n  mul\n    /* \"#utility.yul\":6243:6340   */\n  tag_163\n    /* \"#utility.yul\":6273:6339   */\n  0xffffffffffffffffffffffffffffffffffffffffffffffffffffffffffffffff\n    /* \"#utility.yul\":6262:6271   */\n  dup3\n    /* \"#utility.yul\":6243:6340   */\n  tag_58\n  jump\t// in\ntag_163:\n    /* \"#utility.yul\":6361:6400   */\n  tag_164\n    /* \"#utility.yul\":6391:6399   */\n  dup7\n    /* \"#utility.yul\":6380:6389   */\n  dup4\n    /* \"#utility.yul\":6361:6400   */\n  tag_58\n  jump\t// in\ntag_164:\n    /* \"#utility.yul\":6349:6400   */\n  swap6\n  pop\n    /* \"#utility.yul\":6433:6437   */\n  dup1\n    /* \"#utility.yul\":6429:6438   */\n  not\n    /* \"#utility.yul\":6422:6427   */\n  dup5\n    /* \"#utility.yul\":6418:6439   */\n  and\n    /* \"#utility.yul\":6409:6439   */\n  swap4\n  pop\n    /* \"#utility.yul\":6482:6486   */\n  dup1\n    /* \"#utility.yul\":6472:6480   */\n  dup7\n    /* \"#utility.yul\":6468:6487   */\n  and\n    /* \"#utility.yul\":6461:6466   */\n  dup5\n    /* \"#utility.yul\":6458:6488   */\n  or\n    /* \"#utility.yul\":6448:6488   */\n  swap3\n  pop\n    /* \"#utility.yul\":6177:6494   */\n  pop\n  pop\n    /* \"#utility.yul\":6101:6494   */\n  swap4\n  swap3\n  pop\n  pop\n  pop\n  jump\t// out\n    /* \"#utility.yul\":6500:6560   */\ntag_60:\n    /* \"#utility.yul\":6528:6531   */\n  0x00\n    /* \"#utility.yul\":6549:6554   */\n  dup2\n    /* \"#utility.yul\":6542:6554   */\n  swap1\n  pop\n    /* \"#utility.yul\":6500:6560   */\n  swap2\n  swap1\n  pop\n  jump\t// out\n    /* \"#utility.yul\":6566:6708   */\ntag_61:\n    /* \"#utility.yul\":6616:6625   */\n  0x00\n    /* \"#utility.yul\":6649:6702   */\n  tag_167\n    /* \"#utility.yul\":6667:6701   */\n  tag_168\n    /* \"#utility.yul\":6676:6700   */\n  tag_169\n    /* \"#utility.yul\":6694:6699   */\n  dup5\n    /* \"#utility.yul\":6676:6700   */\n  tag_50\n  jump\t// in\ntag_169:\n    /* \"#utility.yul\":6667:6701   */\n  tag_60\n  jump\t// in\ntag_168:\n    /* \"#utility.yul\":6649:6702   */\n  tag_50\n  jump\t// in\ntag_167:\n    /* \"#utility.yul\":6636:6702   */\n  swap1\n  pop\n    /* \"#utility.yul\":6566:6708   */\n  swap2\n  swap1\n  pop\n  jump\t// out\n    /* \"#utility.yul\":6714:6789   */\ntag_62:\n    /* \"#utility.yul\":6757:6760   */\n  0x00\n    /* \"#utility.yul\":6778:6783   */\n  dup2\n    /* \"#utility.yul\":6771:6783   */\n  swap1\n  pop\n    /* \"#utility.yul\":6714:6789   */\n  swap2\n  swap1\n  pop\n  jump\t// out\n    /* \"#utility.yul\":6795:7064   */\ntag_63:\n    /* \"#utility.yul\":6905:6944   */\n  tag_172\n    /* \"#utility.yul\":6936:6943   */\n  dup4\n    /* \"#utility.yul\":6905:6944   */\n  tag_61\n  jump\t// in\ntag_172:\n    /* \"#utility.yul\":6966:7057   */\n  tag_173\n    /* \"#utility.yul\":7015:7056   */\n  tag_174\n    /* \"#utility.yul\":7039:7055   */\n  dup3\n    /* \"#utility.yul\":7015:7056   */\n  tag_62\n  jump\t// in\ntag_174:\n    /* \"#utility.yul\":7007:7013   */\n  dup5\n    /* \"#utility.yul\":7000:7004   */\n  dup5\n    /* \"#utility.yul\":6994:7005   */\n  sload\n    /* \"#utility.yul\":6966:7057   */\n  tag_59\n  jump\t// in\ntag_173:\n    /* \"#utility.yul\":6960:6964   */\n  dup3\n    /* \"#utility.yul\":6953:7058   */\n  sstore\n    /* \"#utility.yul\":6871:7064   */\n  pop\n    /* \"#utility.yul\":6795:7064   */\n  pop\n  pop\n  pop\n  jump\t// out\n    /* \"#utility.yul\":7070:7143   */\ntag_64:\n    /* \"#utility.yul\":7115:7118   */\n  0x00\n    /* \"#utility.yul\":7070:7143   */\n  swap1\n  jump\t// out\n    /* \"#utility.yul\":7149:7338   */\ntag_65:\n    /* \"#utility.yul\":7226:7258   */\n  tag_177\n  tag_64\n  jump\t// in\ntag_177:\n    /* \"#utility.yul\":7267:7332   */\n  tag_178\n    /* \"#utility.yul\":7325:7331   */\n  dup2\n    /* \"#utility.yul\":7317:7323   */\n  dup5\n    /* \"#utility.yul\":7311:7315   */\n  dup5\n    /* \"#utility.yul\":7267:7332   */\n  tag_63\n  jump\t// in\ntag_178:\n    /* \"#utility.yul\":7202:7338   */\n  pop\n    /* \"#utility.yul\":7149:7338   */\n  pop\n  pop\n  jump\t// out\n    /* \"#utility.yul\":7344:7530   */\ntag_66:\n    /* \"#utility.yul\":7404:7524   */\ntag_180:\n    /* \"#utility.yul\":7421:7424   */\n  dup2\n    /* \"#utility.yul\":7414:7419   */\n  dup2\n    /* \"#utility.yul\":7411:7425   */\n  lt\n    /* \"#utility.yul\":7404:7524   */\n  iszero\n  tag_182\n  jumpi\n    /* \"#utility.yul\":7475:7514   */\n  tag_183\n    /* \"#utility.yul\":7512:7513   */\n  0x00\n    /* \"#utility.yul\":7505:7510   */\n  dup3\n    /* \"#utility.yul\":7475:7514   */\n  tag_65\n  jump\t// in\ntag_183:\n    /* \"#utility.yul\":7448:7449   */\n  0x01\n    /* \"#utility.yul\":7441:7446   */\n  dup2\n    /* \"#utility.yul\":7437:7450   */\n  add\n    /* \"#utility.yul\":7428:7450   */\n  swap1\n  pop\n    /* \"#utility.yul\":7404:7524   */\n  jump(tag_180)\ntag_182:\n    /* \"#utility.yul\":7344:7530   */\n  pop\n  pop\n  jump\t// out\n    /* \"#utility.yul\":7536:8079   */\ntag_67:\n    /* \"#utility.yul\":7637:7639   */\n  0x1f\n    /* \"#utility.yul\":7632:7635   */\n  dup3\n    /* \"#utility.yul\":7629:7640   */\n  gt\n    /* \"#utility.yul\":7626:8072   */\n  iszero\n  tag_185\n  jumpi\n    /* \"#utility.yul\":7671:7709   */\n  tag_186\n    /* \"#utility.yul\":7703:7708   */\n  dup2\n    /* \"#utility.yul\":7671:7709   */\n  tag_56\n  jump\t// in\ntag_186:\n    /* \"#utility.yul\":7755:7784   */\n  tag_187\n    /* \"#utility.yul\":7773:7783   */\n  dup5\n    /* \"#utility.yul\":7755:7784   */\n  tag_57\n  jump\t// in\ntag_187:\n    /* \"#utility.yul\":7745:7753   */\n  dup2\n    /* \"#utility.yul\":7741:7785   */\n  add\n    /* \"#utility.yul\":7938:7940   */\n  0x20\n    /* \"#utility.yul\":7926:7936   */\n  dup6\n    /* \"#utility.yul\":7923:7941   */\n  lt\n    /* \"#utility.yul\":7920:7969   */\n  iszero\n  tag_188\n  jumpi\n    /* \"#utility.yul\":7959:7967   */\n  dup2\n    /* \"#utility.yul\":7944:7967   */\n  swap1\n  pop\n    /* \"#utility.yul\":7920:7969   */\ntag_188:\n    /* \"#utility.yul\":7982:8062   */\n  tag_189\n    /* \"#utility.yul\":8038:8060   */\n  tag_190\n    /* \"#utility.yul\":8056:8059   */\n  dup6\n    /* \"#utility.yul\":8038:8060   */\n  tag_57\n  jump\t// in\ntag_190:\n    /* \"#utility.yul\":8028:8036   */\n  dup4\n    /* \"#utility.yul\":8024:8061   */\n  add\n    /* \"#utility.yul\":8011:8022   */\n  dup3\n    /* \"#utility.yul\":7982:8062   */\n  tag_66\n  jump\t// in\ntag_189:\n    /* \"#utility.yul\":7641:8072   */\n  pop\n  pop\n    /* \"#utility.yul\":7626:8072   */\ntag_185:\n    /* \"#utility.yul\":7536:8079   */\n  pop\n  pop\n  pop\n  jump\t// out\n    /* \"#utility.yul\":8085:8202   */\ntag_68:\n    /* \"#utility.yul\":8139:8147   */\n  0x00\n    /* \"#utility.yul\":8189:8194   */\n  dup3\n    /* \"#utility.yul\":8183:8187   */\n  dup3\n    /* \"#utility.yul\":8179:8195   */\n  shr\n    /* \"#utility.yul\":8158:8195   */\n  swap1\n  pop\n    /* \"#utility.yul\":8085:8202   */\n  swap3\n  swap2\n  pop\n  pop\n  jump\t// out\n    /* \"#utility.yul\":8208:8377   */\ntag_69:\n    /* \"#utility.yul\":8252:8258   */\n  0x00\n    /* \"#utility.yul\":8285:8336   */\n  tag_193\n    /* \"#utility.yul\":8333:8334   */\n  0x00\n    /* \"#utility.yul\":8329:8335   */\n  not\n    /* \"#utility.yul\":8321:8326   */\n  dup5\n    /* \"#utility.yul\":8318:8319   */\n  0x08\n    /* \"#utility.yul\":8314:8327   */\n  mul\n    /* \"#utility.yul\":8285:8336   */\n  tag_68\n  jump\t// in\ntag_193:\n    /* \"#utility.yul\":8281:8337   */\n  not\n    /* \"#utility.yul\":8366:8370   */\n  dup1\n    /* \"#utility.yul\":8360:8364   */\n  dup4\n    /* \"#utility.yul\":8356:8371   */\n  and\n    /* \"#utility.yul\":8346:8371   */\n  swap2\n  pop\n    /* \"#utility.yul\":8259:8377   */\n  pop\n    /* \"#utility.yul\":8208:8377   */\n  swap3\n  swap2\n  pop\n  pop\n  jump\t// out\n    /* \"#utility.yul\":8382:8677   */\ntag_70:\n    /* \"#utility.yul\":8458:8462   */\n  0x00\n    /* \"#utility.yul\":8604:8633   */\n  tag_195\n    /* \"#utility.yul\":8629:8632   */\n  dup4\n    /* \"#utility.yul\":8623:8627   */\n  dup4\n    /* \"#utility.yul\":8604:8633   */\n  tag_69\n  jump\t// in\ntag_195:\n    /* \"#utility.yul\":8596:8633   */\n  swap2\n  pop\n    /* \"#utility.yul\":8666:8669   */\n  dup3\n    /* \"#utility.yul\":8663:8664   */\n  0x02\n    /* \"#utility.yul\":8659:8670   */\n  mul\n    /* \"#utility.yul\":8653:8657   */\n  dup3\n    /* \"#utility.yul\":8650:8671   */\n  or\n    /* \"#utility.yul\":8642:8671   */\n  swap1\n  pop\n    /* \"#utility.yul\":8382:8677   */\n  swap3\n  swap2\n  pop\n  pop\n  jump\t// out\n    /* \"#utility.yul\":8682:10077   */\ntag_7:\n    /* \"#utility.yul\":8799:8836   */\n  tag_197\n    /* \"#utility.yul\":8832:8835   */\n  dup3\n    /* \"#utility.yul\":8799:8836   */\n  tag_53\n  jump\t// in\ntag_197:\n    /* \"#utility.yul\":8901:8919   */\n  0xffffffffffffffff\n    /* \"#utility.yul\":8893:8899   */\n  dup2\n    /* \"#utility.yul\":8890:8920   */\n  gt\n    /* \"#utility.yul\":8887:8943   */\n  iszero\n  tag_198\n  jumpi\n    /* \"#utility.yul\":8923:8941   */\n  tag_199\n  tag_36\n  jump\t// in\ntag_199:\n    /* \"#utility.yul\":8887:8943   */\ntag_198:\n    /* \"#utility.yul\":8967:9005   */\n  tag_200\n    /* \"#utility.yul\":8999:9003   */\n  dup3\n    /* \"#utility.yul\":8993:9004   */\n  sload\n    /* \"#utility.yul\":8967:9005   */\n  tag_55\n  jump\t// in\ntag_200:\n    /* \"#utility.yul\":9052:9119   */\n  tag_201\n    /* \"#utility.yul\":9112:9118   */\n  dup3\n    /* \"#utility.yul\":9104:9110   */\n  dup3\n    /* \"#utility.yul\":9098:9102   */\n  dup6\n    /* \"#utility.yul\":9052:9119   */\n  tag_67\n  jump\t// in\ntag_201:\n    /* \"#utility.yul\":9146:9147   */\n  0x00\n    /* \"#utility.yul\":9170:9174   */\n  0x20\n    /* \"#utility.yul\":9157:9174   */\n  swap1\n  pop\n    /* \"#utility.yul\":9202:9204   */\n  0x1f\n    /* \"#utility.yul\":9194:9200   */\n  dup4\n    /* \"#utility.yul\":9191:9205   */\n  gt\n    /* \"#utility.yul\":9219:9220   */\n  0x01\n    /* \"#utility.yul\":9214:9832   */\n  dup2\n  eq\n  tag_203\n  jumpi\n    /* \"#utility.yul\":9876:9877   */\n  0x00\n    /* \"#utility.yul\":9893:9899   */\n  dup5\n    /* \"#utility.yul\":9890:9967   */\n  iszero\n  tag_204\n  jumpi\n    /* \"#utility.yul\":9942:9951   */\n  dup3\n    /* \"#utility.yul\":9937:9940   */\n  dup8\n    /* \"#utility.yul\":9933:9952   */\n  add\n    /* \"#utility.yul\":9927:9953   */\n  mload\n    /* \"#utility.yul\":9918:9953   */\n  swap1\n  pop\n    /* \"#utility.yul\":9890:9967   */\ntag_204:\n    /* \"#utility.yul\":9993:10060   */\n  tag_205\n    /* \"#utility.yul\":10053:10059   */\n  dup6\n    /* \"#utility.yul\":10046:10051   */\n  dup3\n    /* \"#utility.yul\":9993:10060   */\n  tag_70\n  jump\t// in\ntag_205:\n    /* \"#utility.yul\":9987:9991   */\n  dup7\n    /* \"#utility.yul\":9980:10061   */\n  sstore\n    /* \"#utility.yul\":9849:10071   */\n  pop\n    /* \"#utility.yul\":9184:10071   */\n  jump(tag_202)\n    /* \"#utility.yul\":9214:9832   */\ntag_203:\n    /* \"#utility.yul\":9266:9270   */\n  0x1f\n    /* \"#utility.yul\":9262:9271   */\n  not\n    /* \"#utility.yul\":9254:9260   */\n  dup5\n    /* \"#utility.yul\":9250:9272   */\n  and\n    /* \"#utility.yul\":9300:9337   */\n  tag_206\n    /* \"#utility.yul\":9332:9336   */\n  dup7\n    /* \"#utility.yul\":9300:9337   */\n  tag_56\n  jump\t// in\ntag_206:\n    /* \"#utility.yul\":9359:9360   */\n  0x00\n    /* \"#utility.yul\":9373:9581   */\ntag_207:\n    /* \"#utility.yul\":9387:9394   */\n  dup3\n    /* \"#utility.yul\":9384:9385   */\n  dup2\n    /* \"#utility.yul\":9381:9395   */\n  lt\n    /* \"#utility.yul\":9373:9581   */\n  iszero\n  tag_209\n  jumpi\n    /* \"#utility.yul\":9466:9475   */\n  dup5\n    /* \"#utility.yul\":9461:9464   */\n  dup10\n    /* \"#utility.yul\":9457:9476   */\n  add\n    /* \"#utility.yul\":9451:9477   */\n  mload\n    /* \"#utility.yul\":9443:9449   */\n  dup3\n    /* \"#utility.yul\":9436:9478   */\n  sstore\n    /* \"#utility.yul\":9517:9518   */\n  0x01\n    /* \"#utility.yul\":9509:9515   */\n  dup3\n    /* \"#utility.yul\":9505:9519   */\n  add\n    /* \"#utility.yul\":9495:9519   */\n  swap2\n  pop\n    /* \"#utility.yul\":9564:9566   */\n  0x20\n    /* \"#utility.yul\":9553:9562   */\n  dup6\n    /* \"#utility.yul\":9549:9567   */\n  add\n    /* \"#utility.yul\":9536:9567   */\n  swap5\n  pop\n    /* \"#utility.yul\":9410:9414   */\n  0x20\n    /* \"#utility.yul\":9407:9408   */\n  dup2\n    /* \"#utility.yul\":9403:9415   */\n  add\n    /* \"#utility.yul\":9398:9415   */\n  swap1\n  pop\n    /* \"#utility.yul\":9373:9581   */\n  jump(tag_207)\ntag_209:\n    /* \"#utility.yul\":9609:9615   */\n  dup7\n    /* \"#utility.yul\":9600:9607   */\n  dup4\n    /* \"#utility.yul\":9597:9616   */\n  lt\n    /* \"#utility.yul\":9594:9773   */\n  iszero\n  tag_210\n  jumpi\n    /* \"#utility.yul\":9667:9676   */\n  dup5\n    /* \"#utility.yul\":9662:9665   */\n  dup10\n    /* \"#utility.yul\":9658:9677   */\n  add\n    /* \"#utility.yul\":9652:9678   */\n  mload\n    /* \"#utility.yul\":9710:9758   */\n  tag_211\n    /* \"#utility.yul\":9752:9756   */\n  0x1f\n    /* \"#utility.yul\":9744:9750   */\n  dup10\n    /* \"#utility.yul\":9740:9757   */\n  and\n    /* \"#utility.yul\":9729:9738   */\n  dup3\n    /* \"#utility.yul\":9710:9758   */\n  tag_69\n  jump\t// in\ntag_211:\n    /* \"#utility.yul\":9702:9708   */\n  dup4\n    /* \"#utility.yul\":9695:9759   */\n  sstore\n    /* \"#utility.yul\":9617:9773   */\n  pop\n    /* \"#utility.yul\":9594:9773   */\ntag_210:\n    /* \"#utility.yul\":9819:9820   */\n  0x01\n    /* \"#utility.yul\":9815:9816   */\n  0x02\n    /* \"#utility.yul\":9807:9813   */\n  dup9\n    /* \"#utility.yul\":9803:9817   */\n  mul\n    /* \"#utility.yul\":9799:9821   */\n  add\n    /* \"#utility.yul\":9793:9797   */\n  dup9\n    /* \"#utility.yul\":9786:9822   */\n  sstore\n    /* \"#utility.yul\":9221:9832   */\n  pop\n  pop\n  pop\n    /* \"#utility.yul\":9184:10071   */\ntag_202:\n  pop\n    /* \"#utility.yul\":8774:10077   */\n  pop\n  pop\n  pop\n    /* \"#utility.yul\":8682:10077   */\n  pop\n  pop\n  jump\t// out\n    /* \"#utility.yul\":10083:10434   */\ntag_11:\n    /* \"#utility.yul\":10153:10159   */\n  0x00\n    /* \"#utility.yul\":10202:10204   */\n  0x20\n    /* \"#utility.yul\":10190:10199   */\n  dup3\n    /* \"#utility.yul\":10181:10188   */\n  dup5\n    /* \"#utility.yul\":10177:10200   */\n  sub\n    /* \"#utility.yul\":10173:10205   */\n  slt\n    /* \"#utility.yul\":10170:10289   */\n  iszero\n  tag_213\n  jumpi\n    /* \"#utility.yul\":10208:10287   */\n  tag_214\n  tag_31\n  jump\t// in\ntag_214:\n    /* \"#utility.yul\":10170:10289   */\ntag_213:\n    /* \"#utility.yul\":10328:10329   */\n  0x00\n    /* \"#utility.yul\":10353:10417   */\n  tag_215\n    /* \"#utility.yul\":10409:10416   */\n  dup5\n    /* \"#utility.yul\":10400:10406   */\n  dup3\n    /* \"#utility.yul\":10389:10398   */\n  dup6\n    /* \"#utility.yul\":10385:10407   */\n  add\n    /* \"#utility.yul\":10353:10417   */\n  tag_52\n  jump\t// in\ntag_215:\n    /* \"#utility.yul\":10343:10417   */\n  swap2\n  pop\n    /* \"#utility.yul\":10299:10427   */\n  pop\n    /* \"#utility.yul\":10083:10434   */\n  swap3\n  swap2\n  pop\n  pop\n  jump\t// out\n    /* \"#utility.yul\":10440:10558   */\ntag_71:\n    /* \"#utility.yul\":10527:10551   */\n  tag_217\n    /* \"#utility.yul\":10545:10550   */\n  dup2\n    /* \"#utility.yul\":10527:10551   */\n  tag_47\n  jump\t// in\ntag_217:\n    /* \"#utility.yul\":10522:10525   */\n  dup3\n    /* \"#utility.yul\":10515:10552   */\n  mstore\n    /* \"#utility.yul\":10440:10558   */\n  pop\n  pop\n  jump\t// out\n    /* \"#utility.yul\":10564:10786   */\ntag_13:\n    /* \"#utility.yul\":10657:10661   */\n  0x00\n    /* \"#utility.yul\":10695:10697   */\n  0x20\n    /* \"#utility.yul\":10684:10693   */\n  dup3\n    /* \"#utility.yul\":10680:10698   */\n  add\n    /* \"#utility.yul\":10672:10698   */\n  swap1\n  pop\n    /* \"#utility.yul\":10708:10779   */\n  tag_219\n    /* \"#utility.yul\":10776:10777   */\n  0x00\n    /* \"#utility.yul\":10765:10774   */\n  dup4\n    /* \"#utility.yul\":10761:10778   */\n  add\n    /* \"#utility.yul\":10752:10758   */\n  dup5\n    /* \"#utility.yul\":10708:10779   */\n  tag_71\n  jump\t// in\ntag_219:\n    /* \"#utility.yul\":10564:10786   */\n  swap3\n  swap2\n  pop\n  pop\n  jump\t// out\n    /* \"#utility.yul\":10792:10961   */\ntag_72:\n    /* \"#utility.yul\":10876:10887   */\n  0x00\n    /* \"#utility.yul\":10910:10916   */\n  dup3\n    /* \"#utility.yul\":10905:10908   */\n  dup3\n    /* \"#utility.yul\":10898:10917   */\n  mstore\n    /* \"#utility.yul\":10950:10954   */\n  0x20\n    /* \"#utility.yul\":10945:10948   */\n  dup3\n    /* \"#utility.yul\":10941:10955   */\n  add\n    /* \"#utility.yul\":10926:10955   */\n  swap1\n  pop\n    /* \"#utility.yul\":10792:10961   */\n  swap3\n  swap2\n  pop\n  pop\n  jump\t// out\n    /* \"#utility.yul\":10967:11190   */\ntag_73:\n    /* \"#utility.yul\":11107:11141   */\n  0x4e6f7420656e6f75676820766f74696e6720706f77657220666f7220726f6f74\n    /* \"#utility.yul\":11103:11104   */\n  0x00\n    /* \"#utility.yul\":11095:11101   */\n  dup3\n    /* \"#utility.yul\":11091:11105   */\n  add\n    /* \"#utility.yul\":11084:11142   */\n  mstore\n    /* \"#utility.yul\":11176:11182   */\n  0x2061726700000000000000000000000000000000000000000000000000000000\n    /* \"#utility.yul\":11171:11173   */\n  0x20\n    /* \"#utility.yul\":11163:11169   */\n  dup3\n    /* \"#utility.yul\":11159:11174   */\n  add\n    /* \"#utility.yul\":11152:11183   */\n  mstore\n    /* \"#utility.yul\":10967:11190   */\n  pop\n  jump\t// out\n    /* \"#utility.yul\":11196:11562   */\ntag_74:\n    /* \"#utility.yul\":11338:11341   */\n  0x00\n    /* \"#utility.yul\":11359:11426   */\n  tag_223\n    /* \"#utility.yul\":11423:11425   */\n  0x24\n    /* \"#utility.yul\":11418:11421   */\n  dup4\n    /* \"#utility.yul\":11359:11426   */\n  tag_72\n  jump\t// in\ntag_223:\n    /* \"#utility.yul\":11352:11426   */\n  swap2\n  pop\n    /* \"#utility.yul\":11435:11528   */\n  tag_224\n    /* \"#utility.yul\":11524:11527   */\n  dup3\n    /* \"#utility.yul\":11435:11528   */\n  tag_73\n  jump\t// in\ntag_224:\n    /* \"#utility.yul\":11553:11555   */\n  0x40\n    /* \"#utility.yul\":11548:11551   */\n  dup3\n    /* \"#utility.yul\":11544:11556   */\n  add\n    /* \"#utility.yul\":11537:11556   */\n  swap1\n  pop\n    /* \"#utility.yul\":11196:11562   */\n  swap2\n  swap1\n  pop\n  jump\t// out\n    /* \"#utility.yul\":11568:11987   */\ntag_19:\n    /* \"#utility.yul\":11734:11738   */\n  0x00\n    /* \"#utility.yul\":11772:11774   */\n  0x20\n    /* \"#utility.yul\":11761:11770   */\n  dup3\n    /* \"#utility.yul\":11757:11775   */\n  add\n    /* \"#utility.yul\":11749:11775   */\n  swap1\n  pop\n    /* \"#utility.yul\":11821:11830   */\n  dup2\n    /* \"#utility.yul\":11815:11819   */\n  dup2\n    /* \"#utility.yul\":11811:11831   */\n  sub\n    /* \"#utility.yul\":11807:11808   */\n  0x00\n    /* \"#utility.yul\":11796:11805   */\n  dup4\n    /* \"#utility.yul\":11792:11809   */\n  add\n    /* \"#utility.yul\":11785:11832   */\n  mstore\n    /* \"#utility.yul\":11849:11980   */\n  tag_226\n    /* \"#utility.yul\":11975:11979   */\n  dup2\n    /* \"#utility.yul\":11849:11980   */\n  tag_74\n  jump\t// in\ntag_226:\n    /* \"#utility.yul\":11841:11980   */\n  swap1\n  pop\n    /* \"#utility.yul\":11568:11987   */\n  swap2\n  swap1\n  pop\n  jump\t// out\n    /* \"#utility.yul\":11993:12141   */\ntag_75:\n    /* \"#utility.yul\":12095:12106   */\n  0x00\n    /* \"#utility.yul\":12132:12135   */\n  dup2\n    /* \"#utility.yul\":12117:12135   */\n  swap1\n  pop\n    /* \"#utility.yul\":11993:12141   */\n  swap3\n  swap2\n  pop\n  pop\n  jump\t// out\n    /* \"#utility.yul\":12147:12537   */\ntag_76:\n    /* \"#utility.yul\":12253:12256   */\n  0x00\n    /* \"#utility.yul\":12281:12320   */\n  tag_229\n    /* \"#utility.yul\":12314:12319   */\n  dup3\n    /* \"#utility.yul\":12281:12320   */\n  tag_53\n  jump\t// in\ntag_229:\n    /* \"#utility.yul\":12336:12425   */\n  tag_230\n    /* \"#utility.yul\":12418:12424   */\n  dup2\n    /* \"#utility.yul\":12413:12416   */\n  dup6\n    /* \"#utility.yul\":12336:12425   */\n  tag_75\n  jump\t// in\ntag_230:\n    /* \"#utility.yul\":12329:12425   */\n  swap4\n  pop\n    /* \"#utility.yul\":12434:12499   */\n  tag_231\n    /* \"#utility.yul\":12492:12498   */\n  dup2\n    /* \"#utility.yul\":12487:12490   */\n  dup6\n    /* \"#utility.yul\":12480:12484   */\n  0x20\n    /* \"#utility.yul\":12473:12478   */\n  dup7\n    /* \"#utility.yul\":12469:12485   */\n  add\n    /* \"#utility.yul\":12434:12499   */\n  tag_40\n  jump\t// in\ntag_231:\n    /* \"#utility.yul\":12524:12530   */\n  dup1\n    /* \"#utility.yul\":12519:12522   */\n  dup5\n    /* \"#utility.yul\":12515:12531   */\n  add\n    /* \"#utility.yul\":12508:12531   */\n  swap2\n  pop\n    /* \"#utility.yul\":12257:12537   */\n  pop\n    /* \"#utility.yul\":12147:12537   */\n  swap3\n  swap2\n  pop\n  pop\n  jump\t// out\n    /* \"#utility.yul\":12543:12637   */\ntag_77:\n    /* \"#utility.yul\":12576:12584   */\n  0x00\n    /* \"#utility.yul\":12624:12629   */\n  dup2\n    /* \"#utility.yul\":12620:12622   */\n  0x60\n    /* \"#utility.yul\":12616:12630   */\n  shl\n    /* \"#utility.yul\":12595:12630   */\n  swap1\n  pop\n    /* \"#utility.yul\":12543:12637   */\n  swap2\n  swap1\n  pop\n  jump\t// out\n    /* \"#utility.yul\":12643:12737   */\ntag_78:\n    /* \"#utility.yul\":12682:12689   */\n  0x00\n    /* \"#utility.yul\":12711:12731   */\n  tag_234\n    /* \"#utility.yul\":12725:12730   */\n  dup3\n    /* \"#utility.yul\":12711:12731   */\n  tag_77\n  jump\t// in\ntag_234:\n    /* \"#utility.yul\":12700:12731   */\n  swap1\n  pop\n    /* \"#utility.yul\":12643:12737   */\n  swap2\n  swap1\n  pop\n  jump\t// out\n    /* \"#utility.yul\":12743:12843   */\ntag_79:\n    /* \"#utility.yul\":12782:12789   */\n  0x00\n    /* \"#utility.yul\":12811:12837   */\n  tag_236\n    /* \"#utility.yul\":12831:12836   */\n  dup3\n    /* \"#utility.yul\":12811:12837   */\n  tag_78\n  jump\t// in\ntag_236:\n    /* \"#utility.yul\":12800:12837   */\n  swap1\n  pop\n    /* \"#utility.yul\":12743:12843   */\n  swap2\n  swap1\n  pop\n  jump\t// out\n    /* \"#utility.yul\":12849:13006   */\ntag_80:\n    /* \"#utility.yul\":12954:12999   */\n  tag_238\n    /* \"#utility.yul\":12974:12998   */\n  tag_239\n    /* \"#utility.yul\":12992:12997   */\n  dup3\n    /* \"#utility.yul\":12974:12998   */\n  tag_47\n  jump\t// in\ntag_239:\n    /* \"#utility.yul\":12954:12999   */\n  tag_79\n  jump\t// in\ntag_238:\n    /* \"#utility.yul\":12949:12952   */\n  dup3\n    /* \"#utility.yul\":12942:13000   */\n  mstore\n    /* \"#utility.yul\":12849:13006   */\n  pop\n  pop\n  jump\t// out\n    /* \"#utility.yul\":13012:13091   */\ntag_81:\n    /* \"#utility.yul\":13051:13058   */\n  0x00\n    /* \"#utility.yul\":13080:13085   */\n  dup2\n    /* \"#utility.yul\":13069:13085   */\n  swap1\n  pop\n    /* \"#utility.yul\":13012:13091   */\n  swap2\n  swap1\n  pop\n  jump\t// out\n    /* \"#utility.yul\":13097:13254   */\ntag_82:\n    /* \"#utility.yul\":13202:13247   */\n  tag_242\n    /* \"#utility.yul\":13222:13246   */\n  tag_243\n    /* \"#utility.yul\":13240:13245   */\n  dup3\n    /* \"#utility.yul\":13222:13246   */\n  tag_50\n  jump\t// in\ntag_243:\n    /* \"#utility.yul\":13202:13247   */\n  tag_81\n  jump\t// in\ntag_242:\n    /* \"#utility.yul\":13197:13200   */\n  dup3\n    /* \"#utility.yul\":13190:13248   */\n  mstore\n    /* \"#utility.yul\":13097:13254   */\n  pop\n  pop\n  jump\t// out\n    /* \"#utility.yul\":13260:13817   */\ntag_21:\n    /* \"#utility.yul\":13448:13451   */\n  0x00\n    /* \"#utility.yul\":13470:13565   */\n  tag_245\n    /* \"#utility.yul\":13561:13564   */\n  dup3\n    /* \"#utility.yul\":13552:13558   */\n  dup7\n    /* \"#utility.yul\":13470:13565   */\n  tag_76\n  jump\t// in\ntag_245:\n    /* \"#utility.yul\":13463:13565   */\n  swap2\n  pop\n    /* \"#utility.yul\":13575:13650   */\n  tag_246\n    /* \"#utility.yul\":13646:13649   */\n  dup3\n    /* \"#utility.yul\":13637:13643   */\n  dup6\n    /* \"#utility.yul\":13575:13650   */\n  tag_80\n  jump\t// in\ntag_246:\n    /* \"#utility.yul\":13675:13677   */\n  0x14\n    /* \"#utility.yul\":13670:13673   */\n  dup3\n    /* \"#utility.yul\":13666:13678   */\n  add\n    /* \"#utility.yul\":13659:13678   */\n  swap2\n  pop\n    /* \"#utility.yul\":13688:13763   */\n  tag_247\n    /* \"#utility.yul\":13759:13762   */\n  dup3\n    /* \"#utility.yul\":13750:13756   */\n  dup5\n    /* \"#utility.yul\":13688:13763   */\n  tag_82\n  jump\t// in\ntag_247:\n    /* \"#utility.yul\":13788:13790   */\n  0x20\n    /* \"#utility.yul\":13783:13786   */\n  dup3\n    /* \"#utility.yul\":13779:13791   */\n  add\n    /* \"#utility.yul\":13772:13791   */\n  swap2\n  pop\n    /* \"#utility.yul\":13808:13811   */\n  dup2\n    /* \"#utility.yul\":13801:13811   */\n  swap1\n  pop\n    /* \"#utility.yul\":13260:13817   */\n  swap5\n  swap4\n  pop\n  pop\n  pop\n  pop\n  jump\t// out\n    /* \"#utility.yul\":13823:14003   */\ntag_24:\n    /* \"#utility.yul\":13871:13948   */\n  0x4e487b7100000000000000000000000000000000000000000000000000000000\n    /* \"#utility.yul\":13868:13869   */\n  0x00\n    /* \"#utility.yul\":13861:13949   */\n  mstore\n    /* \"#utility.yul\":13968:13972   */\n  0x21\n    /* \"#utility.yul\":13965:13966   */\n  0x04\n    /* \"#utility.yul\":13958:13973   */\n  mstore\n    /* \"#utility.yul\":13992:13996   */\n  0x24\n    /* \"#utility.yul\":13989:13990   */\n  0x00\n    /* \"#utility.yul\":13982:13997   */\n  revert\n    /* \"#utility.yul\":14009:14086   */\ntag_83:\n    /* \"#utility.yul\":14046:14053   */\n  0x00\n    /* \"#utility.yul\":14075:14080   */\n  dup2\n    /* \"#utility.yul\":14064:14080   */\n  swap1\n  pop\n    /* \"#utility.yul\":14009:14086   */\n  swap2\n  swap1\n  pop\n  jump\t// out\n    /* \"#utility.yul\":14092:14210   */\ntag_84:\n    /* \"#utility.yul\":14179:14203   */\n  tag_251\n    /* \"#utility.yul\":14197:14202   */\n  dup2\n    /* \"#utility.yul\":14179:14203   */\n  tag_83\n  jump\t// in\ntag_251:\n    /* \"#utility.yul\":14174:14177   */\n  dup3\n    /* \"#utility.yul\":14167:14204   */\n  mstore\n    /* \"#utility.yul\":14092:14210   */\n  pop\n  pop\n  jump\t// out\n    /* \"#utility.yul\":14216:14334   */\ntag_85:\n    /* \"#utility.yul\":14302:14303   */\n  0x02\n    /* \"#utility.yul\":14295:14300   */\n  dup2\n    /* \"#utility.yul\":14292:14304   */\n  lt\n    /* \"#utility.yul\":14282:14328   */\n  tag_253\n  jumpi\n    /* \"#utility.yul\":14308:14326   */\n  tag_254\n  tag_24\n  jump\t// in\ntag_254:\n    /* \"#utility.yul\":14282:14328   */\ntag_253:\n    /* \"#utility.yul\":14216:14334   */\n  pop\n  jump\t// out\n    /* \"#utility.yul\":14340:14477   */\ntag_86:\n    /* \"#utility.yul\":14390:14397   */\n  0x00\n    /* \"#utility.yul\":14419:14424   */\n  dup2\n    /* \"#utility.yul\":14408:14424   */\n  swap1\n  pop\n    /* \"#utility.yul\":14425:14471   */\n  tag_256\n    /* \"#utility.yul\":14465:14470   */\n  dup3\n    /* \"#utility.yul\":14425:14471   */\n  tag_85\n  jump\t// in\ntag_256:\n    /* \"#utility.yul\":14340:14477   */\n  swap2\n  swap1\n  pop\n  jump\t// out\n    /* \"#utility.yul\":14483:14620   */\ntag_87:\n    /* \"#utility.yul\":14544:14553   */\n  0x00\n    /* \"#utility.yul\":14577:14614   */\n  tag_258\n    /* \"#utility.yul\":14608:14613   */\n  dup3\n    /* \"#utility.yul\":14577:14614   */\n  tag_86\n  jump\t// in\ntag_258:\n    /* \"#utility.yul\":14564:14614   */\n  swap1\n  pop\n    /* \"#utility.yul\":14483:14620   */\n  swap2\n  swap1\n  pop\n  jump\t// out\n    /* \"#utility.yul\":14626:14779   */\ntag_88:\n    /* \"#utility.yul\":14724:14772   */\n  tag_260\n    /* \"#utility.yul\":14766:14771   */\n  dup2\n    /* \"#utility.yul\":14724:14772   */\n  tag_87\n  jump\t// in\ntag_260:\n    /* \"#utility.yul\":14719:14722   */\n  dup3\n    /* \"#utility.yul\":14712:14773   */\n  mstore\n    /* \"#utility.yul\":14626:14779   */\n  pop\n  pop\n  jump\t// out\n    /* \"#utility.yul\":14785:14903   */\ntag_89:\n    /* \"#utility.yul\":14872:14896   */\n  tag_262\n    /* \"#utility.yul\":14890:14895   */\n  dup2\n    /* \"#utility.yul\":14872:14896   */\n  tag_50\n  jump\t// in\ntag_262:\n    /* \"#utility.yul\":14867:14870   */\n  dup3\n    /* \"#utility.yul\":14860:14897   */\n  mstore\n    /* \"#utility.yul\":14785:14903   */\n  pop\n  pop\n  jump\t// out\n    /* \"#utility.yul\":14909:15286   */\ntag_90:\n    /* \"#utility.yul\":14997:15000   */\n  0x00\n    /* \"#utility.yul\":15025:15064   */\n  tag_264\n    /* \"#utility.yul\":15058:15063   */\n  dup3\n    /* \"#utility.yul\":15025:15064   */\n  tag_53\n  jump\t// in\ntag_264:\n    /* \"#utility.yul\":15080:15151   */\n  tag_265\n    /* \"#utility.yul\":15144:15150   */\n  dup2\n    /* \"#utility.yul\":15139:15142   */\n  dup6\n    /* \"#utility.yul\":15080:15151   */\n  tag_72\n  jump\t// in\ntag_265:\n    /* \"#utility.yul\":15073:15151   */\n  swap4\n  pop\n    /* \"#utility.yul\":15160:15225   */\n  tag_266\n    /* \"#utility.yul\":15218:15224   */\n  dup2\n    /* \"#utility.yul\":15213:15216   */\n  dup6\n    /* \"#utility.yul\":15206:15210   */\n  0x20\n    /* \"#utility.yul\":15199:15204   */\n  dup7\n    /* \"#utility.yul\":15195:15211   */\n  add\n    /* \"#utility.yul\":15160:15225   */\n  tag_40\n  jump\t// in\ntag_266:\n    /* \"#utility.yul\":15250:15279   */\n  tag_267\n    /* \"#utility.yul\":15272:15278   */\n  dup2\n    /* \"#utility.yul\":15250:15279   */\n  tag_35\n  jump\t// in\ntag_267:\n    /* \"#utility.yul\":15245:15248   */\n  dup5\n    /* \"#utility.yul\":15241:15280   */\n  add\n    /* \"#utility.yul\":15234:15280   */\n  swap2\n  pop\n    /* \"#utility.yul\":15001:15286   */\n  pop\n    /* \"#utility.yul\":14909:15286   */\n  swap3\n  swap2\n  pop\n  pop\n  jump\t// out\n    /* \"#utility.yul\":15292:15958   */\ntag_28:\n    /* \"#utility.yul\":15500:15504   */\n  0x00\n    /* \"#utility.yul\":15538:15541   */\n  0x80\n    /* \"#utility.yul\":15527:15536   */\n  dup3\n    /* \"#utility.yul\":15523:15542   */\n  add\n    /* \"#utility.yul\":15515:15542   */\n  swap1\n  pop\n    /* \"#utility.yul\":15552:15623   */\n  tag_269\n    /* \"#utility.yul\":15620:15621   */\n  0x00\n    /* \"#utility.yul\":15609:15618   */\n  dup4\n    /* \"#utility.yul\":15605:15622   */\n  add\n    /* \"#utility.yul\":15596:15602   */\n  dup8\n    /* \"#utility.yul\":15552:15623   */\n  tag_84\n  jump\t// in\ntag_269:\n    /* \"#utility.yul\":15633:15716   */\n  tag_270\n    /* \"#utility.yul\":15712:15714   */\n  0x20\n    /* \"#utility.yul\":15701:15710   */\n  dup4\n    /* \"#utility.yul\":15697:15715   */\n  add\n    /* \"#utility.yul\":15688:15694   */\n  dup7\n    /* \"#utility.yul\":15633:15716   */\n  tag_88\n  jump\t// in\ntag_270:\n    /* \"#utility.yul\":15726:15798   */\n  tag_271\n    /* \"#utility.yul\":15794:15796   */\n  0x40\n    /* \"#utility.yul\":15783:15792   */\n  dup4\n    /* \"#utility.yul\":15779:15797   */\n  add\n    /* \"#utility.yul\":15770:15776   */\n  dup6\n    /* \"#utility.yul\":15726:15798   */\n  tag_89\n  jump\t// in\ntag_271:\n    /* \"#utility.yul\":15845:15854   */\n  dup2\n    /* \"#utility.yul\":15839:15843   */\n  dup2\n    /* \"#utility.yul\":15835:15855   */\n  sub\n    /* \"#utility.yul\":15830:15832   */\n  0x60\n    /* \"#utility.yul\":15819:15828   */\n  dup4\n    /* \"#utility.yul\":15815:15833   */\n  add\n    /* \"#utility.yul\":15808:15856   */\n  mstore\n    /* \"#utility.yul\":15873:15951   */\n  tag_272\n    /* \"#utility.yul\":15946:15950   */\n  dup2\n    /* \"#utility.yul\":15937:15943   */\n  dup5\n    /* \"#utility.yul\":15873:15951   */\n  tag_90\n  jump\t// in\ntag_272:\n    /* \"#utility.yul\":15865:15951   */\n  swap1\n  pop\n    /* \"#utility.yul\":15292:15958   */\n  swap6\n  swap5\n  pop\n  pop\n  pop\n  pop\n  pop\n  jump\t// out\n    /* \"contracts/debates/newDebates/Debate.sol\":692:5369  contract Debate {... */\ntag_29:\n  dataSize(sub_0)\n  dup1\n  dataOffset(sub_0)\n  0x00\n  codecopy\n  0x00\n  return\nstop\n\nsub_0: assembly {\n        /* \"contracts/debates/newDebates/Debate.sol\":692:5369  contract Debate {... */\n      mstore(0x40, 0x80)\n      callvalue\n      dup1\n      iszero\n      tag_1\n      jumpi\n      0x00\n      dup1\n      revert\n    tag_1:\n      pop\n      jumpi(tag_2, lt(calldatasize, 0x04))\n      shr(0xe0, calldataload(0x00))\n      dup1\n      0xb3730ed9\n      gt\n      tag_11\n      jumpi\n      dup1\n      0xb3730ed9\n      eq\n      tag_7\n      jumpi\n      dup1\n      0xd94c8caa\n      eq\n      tag_8\n      jumpi\n      dup1\n      0xedf0f34e\n      eq\n      tag_9\n      jumpi\n      dup1\n      0xfc0c546a\n      eq\n      tag_10\n      jumpi\n      jump(tag_2)\n    tag_11:\n      dup1\n      0x4a79d50c\n      eq\n      tag_3\n      jumpi\n      dup1\n      0x7e7505ff\n      eq\n      tag_4\n      jumpi\n      dup1\n      0x9008f268\n      eq\n      tag_5\n      jumpi\n      dup1\n      0x95cddd1e\n      eq\n      tag_6\n      jumpi\n    tag_2:\n      0x00\n      dup1\n      revert\n        /* \"contracts/debates/newDebates/Debate.sol\":1202:1221  string public title */\n    tag_3:\n      tag_12\n      tag_13\n      jump\t// in\n    tag_12:\n      mload(0x40)\n      tag_14\n      swap2\n      swap1\n      tag_15\n      jump\t// in\n    tag_14:\n      mload(0x40)\n      dup1\n      swap2\n      sub\n      swap1\n      return\n        /* \"contracts/debates/newDebates/Debate.sol\":3737:5366  function addArgument(... */\n    tag_4:\n      tag_16\n      0x04\n      dup1\n      calldatasize\n      sub\n      dup2\n      add\n      swap1\n      tag_17\n      swap2\n      swap1\n      tag_18\n      jump\t// in\n    tag_17:\n      tag_19\n      jump\t// in\n    tag_16:\n      stop\n        /* \"contracts/debates/newDebates/Debate.sol\":1430:1475  mapping(address => uint256) public usedWeight */\n    tag_5:\n      tag_20\n      0x04\n      dup1\n      calldatasize\n      sub\n      dup2\n      add\n      swap1\n      tag_21\n      swap2\n      swap1\n      tag_22\n      jump\t// in\n    tag_21:\n      tag_23\n      jump\t// in\n    tag_20:\n      mload(0x40)\n      tag_24\n      swap2\n      swap1\n      tag_25\n      jump\t// in\n    tag_24:\n      mload(0x40)\n      dup1\n      swap2\n      sub\n      swap1\n      return\n        /* \"contracts/debates/newDebates/Debate.sol\":3374:3469  function getRootArgHash() external view returns (bytes32) {... */\n    tag_6:\n      tag_26\n      tag_27\n      jump\t// in\n    tag_26:\n      mload(0x40)\n      tag_28\n      swap2\n      swap1\n      tag_29\n      jump\t// in\n    tag_28:\n      mload(0x40)\n      dup1\n      swap2\n      sub\n      swap1\n      return\n        /* \"contracts/debates/newDebates/Debate.sol\":1228:1248  bool public isBinary */\n    tag_7:\n      tag_30\n      tag_31\n      jump\t// in\n    tag_30:\n      mload(0x40)\n      tag_32\n      swap2\n      swap1\n      tag_33\n      jump\t// in\n    tag_32:\n      mload(0x40)\n      dup1\n      swap2\n      sub\n      swap1\n      return\n        /* \"contracts/debates/newDebates/Debate.sol\":1309:1338  uint256 public referenceBlock */\n    tag_8:\n      tag_34\n      tag_35\n      jump\t// in\n    tag_34:\n      mload(0x40)\n      tag_36\n      swap2\n      swap1\n      tag_25\n      jump\t// in\n    tag_36:\n      mload(0x40)\n      dup1\n      swap2\n      sub\n      swap1\n      return\n        /* \"contracts/debates/newDebates/Debate.sol\":1537:1586  mapping(bytes32 => ArgumentData) public arguments */\n    tag_9:\n      tag_37\n      0x04\n      dup1\n      calldatasize\n      sub\n      dup2\n      add\n      swap1\n      tag_38\n      swap2\n      swap1\n      tag_39\n      jump\t// in\n    tag_38:\n      tag_40\n      jump\t// in\n    tag_37:\n      mload(0x40)\n      tag_41\n      swap6\n      swap5\n      swap4\n      swap3\n      swap2\n      swap1\n      tag_42\n      jump\t// in\n    tag_41:\n      mload(0x40)\n      dup1\n      swap2\n      sub\n      swap1\n      return\n        /* \"contracts/debates/newDebates/Debate.sol\":1255:1275  address public token */\n    tag_10:\n      tag_43\n      tag_44\n      jump\t// in\n    tag_43:\n      mload(0x40)\n      tag_45\n      swap2\n      swap1\n      tag_46\n      jump\t// in\n    tag_45:\n      mload(0x40)\n      dup1\n      swap2\n      sub\n      swap1\n      return\n        /* \"contracts/debates/newDebates/Debate.sol\":1202:1221  string public title */\n    tag_13:\n      0x00\n      dup1\n      sload\n      tag_47\n      swap1\n      tag_48\n      jump\t// in\n    tag_47:\n      dup1\n      0x1f\n      add\n      0x20\n      dup1\n      swap2\n      div\n      mul\n      0x20\n      add\n      mload(0x40)\n      swap1\n      dup2\n      add\n      0x40\n      mstore\n      dup1\n      swap3\n      swap2\n      swap1\n      dup2\n      dup2\n      mstore\n      0x20\n      add\n      dup3\n      dup1\n      sload\n      tag_49\n      swap1\n      tag_48\n      jump\t// in\n    tag_49:\n      dup1\n      iszero\n      tag_50\n      jumpi\n      dup1\n      0x1f\n      lt\n      tag_51\n      jumpi\n      0x0100\n      dup1\n      dup4\n      sload\n      div\n      mul\n      dup4\n      mstore\n      swap2\n      0x20\n      add\n      swap2\n      jump(tag_50)\n    tag_51:\n      dup3\n      add\n      swap2\n      swap1\n      0x00\n      mstore\n      keccak256(0x00, 0x20)\n      swap1\n    tag_52:\n      dup2\n      sload\n      dup2\n      mstore\n      swap1\n      0x01\n      add\n      swap1\n      0x20\n      add\n      dup1\n      dup4\n      gt\n      tag_52\n      jumpi\n      dup3\n      swap1\n      sub\n      0x1f\n      and\n      dup3\n      add\n      swap2\n    tag_50:\n      pop\n      pop\n      pop\n      pop\n      pop\n      dup2\n      jump\t// out\n        /* \"contracts/debates/newDebates/Debate.sol\":3737:5366  function addArgument(... */\n    tag_19:\n        /* \"contracts/debates/newDebates/Debate.sol\":3959:3968  arguments */\n      0x04\n        /* \"contracts/debates/newDebates/Debate.sol\":3959:3981  arguments[_parentHash] */\n      0x00\n        /* \"contracts/debates/newDebates/Debate.sol\":3969:3980  _parentHash */\n      dup5\n        /* \"contracts/debates/newDebates/Debate.sol\":3959:3981  arguments[_parentHash] */\n      dup2\n      mstore\n      0x20\n      add\n      swap1\n      dup2\n      mstore\n      0x20\n      add\n      0x00\n      keccak256\n        /* \"contracts/debates/newDebates/Debate.sol\":3959:3988  arguments[_parentHash].exists */\n      0x03\n      add\n      0x01\n      swap1\n      sload\n      swap1\n      0x0100\n      exp\n      swap1\n      div\n      0xff\n      and\n        /* \"contracts/debates/newDebates/Debate.sol\":3951:4014  require(arguments[_parentHash].exists, \"Parent does not exist\") */\n      tag_54\n      jumpi\n      mload(0x40)\n      0x08c379a000000000000000000000000000000000000000000000000000000000\n      dup2\n      mstore\n      0x04\n      add\n      tag_55\n      swap1\n      tag_56\n      jump\t// in\n    tag_55:\n      mload(0x40)\n      dup1\n      swap2\n      sub\n      swap1\n      revert\n    tag_54:\n        /* \"contracts/debates/newDebates/Debate.sol\":4202:4231  ArgumentData memory parentArg */\n      0x00\n        /* \"contracts/debates/newDebates/Debate.sol\":4234:4243  arguments */\n      0x04\n        /* \"contracts/debates/newDebates/Debate.sol\":4234:4256  arguments[_parentHash] */\n      0x00\n        /* \"contracts/debates/newDebates/Debate.sol\":4244:4255  _parentHash */\n      dup6\n        /* \"contracts/debates/newDebates/Debate.sol\":4234:4256  arguments[_parentHash] */\n      dup2\n      mstore\n      0x20\n      add\n      swap1\n      dup2\n      mstore\n      0x20\n      add\n      0x00\n      keccak256\n        /* \"contracts/debates/newDebates/Debate.sol\":4202:4256  ArgumentData memory parentArg = arguments[_parentHash] */\n      mload(0x40)\n      dup1\n      0xa0\n      add\n      0x40\n      mstore\n      swap1\n      dup2\n      0x00\n      dup3\n      add\n      0x00\n      swap1\n      sload\n      swap1\n      0x0100\n      exp\n      swap1\n      div\n      0xffffffffffffffffffffffffffffffffffffffff\n      and\n      0xffffffffffffffffffffffffffffffffffffffff\n      and\n      0xffffffffffffffffffffffffffffffffffffffff\n      and\n      dup2\n      mstore\n      0x20\n      add\n      0x01\n      dup3\n      add\n      sload\n      dup2\n      mstore\n      0x20\n      add\n      0x02\n      dup3\n      add\n      sload\n      dup2\n      mstore\n      0x20\n      add\n      0x03\n      dup3\n      add\n      0x00\n      swap1\n      sload\n      swap1\n      0x0100\n      exp\n      swap1\n      div\n      0xff\n      and\n      0x01\n      dup2\n      gt\n      iszero\n      tag_57\n      jumpi\n      tag_58\n      tag_59\n      jump\t// in\n    tag_58:\n    tag_57:\n      0x01\n      dup2\n      gt\n      iszero\n      tag_60\n      jumpi\n      tag_61\n      tag_59\n      jump\t// in\n    tag_61:\n    tag_60:\n      dup2\n      mstore\n      0x20\n      add\n      0x03\n      dup3\n      add\n      0x01\n      swap1\n      sload\n      swap1\n      0x0100\n      exp\n      swap1\n      div\n      0xff\n      and\n      iszero\n      iszero\n      iszero\n      iszero\n      dup2\n      mstore\n      pop\n      pop\n      swap1\n      pop\n        /* \"contracts/debates/newDebates/Debate.sol\":4272:4280  isBinary */\n      0x01\n      0x00\n      swap1\n      sload\n      swap1\n      0x0100\n      exp\n      swap1\n      div\n      0xff\n      and\n        /* \"contracts/debates/newDebates/Debate.sol\":4271:4280  !isBinary */\n      iszero\n        /* \"contracts/debates/newDebates/Debate.sol\":4271:4318  !isBinary && parentArg.parentHash == bytes32(0) */\n      dup1\n      iszero\n      tag_62\n      jumpi\n      pop\n        /* \"contracts/debates/newDebates/Debate.sol\":4316:4317  0 */\n      0x00\n        /* \"contracts/debates/newDebates/Debate.sol\":4308:4318  bytes32(0) */\n      dup1\n      shl\n        /* \"contracts/debates/newDebates/Debate.sol\":4284:4293  parentArg */\n      dup2\n        /* \"contracts/debates/newDebates/Debate.sol\":4284:4304  parentArg.parentHash */\n      0x20\n      add\n      mload\n        /* \"contracts/debates/newDebates/Debate.sol\":4284:4318  parentArg.parentHash == bytes32(0) */\n      eq\n        /* \"contracts/debates/newDebates/Debate.sol\":4271:4318  !isBinary && parentArg.parentHash == bytes32(0) */\n    tag_62:\n        /* \"contracts/debates/newDebates/Debate.sol\":4267:4475  if (!isBinary && parentArg.parentHash == bytes32(0)) {... */\n      iszero\n      tag_63\n      jumpi\n        /* \"contracts/debates/newDebates/Debate.sol\":4401:4415  OptionType.PRO */\n      0x00\n        /* \"contracts/debates/newDebates/Debate.sol\":4390:4415  _option == OptionType.PRO */\n      0x01\n      dup2\n      gt\n      iszero\n      tag_64\n      jumpi\n      tag_65\n      tag_59\n      jump\t// in\n    tag_65:\n    tag_64:\n        /* \"contracts/debates/newDebates/Debate.sol\":4390:4397  _option */\n      dup4\n        /* \"contracts/debates/newDebates/Debate.sol\":4390:4415  _option == OptionType.PRO */\n      0x01\n      dup2\n      gt\n      iszero\n      tag_66\n      jumpi\n      tag_67\n      tag_59\n      jump\t// in\n    tag_67:\n    tag_66:\n      eq\n        /* \"contracts/debates/newDebates/Debate.sol\":4382:4463  require(_option == OptionType.PRO, \"Free-for-all debate has no con at top level\") */\n      tag_68\n      jumpi\n      mload(0x40)\n      0x08c379a000000000000000000000000000000000000000000000000000000000\n      dup2\n      mstore\n      0x04\n      add\n      tag_69\n      swap1\n      tag_70\n      jump\t// in\n    tag_69:\n      mload(0x40)\n      dup1\n      swap2\n      sub\n      swap1\n      revert\n    tag_68:\n        /* \"contracts/debates/newDebates/Debate.sol\":4267:4475  if (!isBinary && parentArg.parentHash == bytes32(0)) {... */\n    tag_63:\n        /* \"contracts/debates/newDebates/Debate.sol\":4523:4535  uint256 used */\n      0x00\n        /* \"contracts/debates/newDebates/Debate.sol\":4538:4548  usedWeight */\n      0x03\n        /* \"contracts/debates/newDebates/Debate.sol\":4538:4560  usedWeight[msg.sender] */\n      0x00\n        /* \"contracts/debates/newDebates/Debate.sol\":4549:4559  msg.sender */\n      caller\n        /* \"contracts/debates/newDebates/Debate.sol\":4538:4560  usedWeight[msg.sender] */\n      0xffffffffffffffffffffffffffffffffffffffff\n      and\n      0xffffffffffffffffffffffffffffffffffffffff\n      and\n      dup2\n      mstore\n      0x20\n      add\n      swap1\n      dup2\n      mstore\n      0x20\n      add\n      0x00\n      keccak256\n      sload\n        /* \"contracts/debates/newDebates/Debate.sol\":4523:4560  uint256 used = usedWeight[msg.sender] */\n      swap1\n      pop\n        /* \"contracts/debates/newDebates/Debate.sol\":4571:4588  uint256 available */\n      0x00\n        /* \"contracts/debates/newDebates/Debate.sol\":4598:4603  token */\n      0x01\n      dup1\n      sload\n      swap1\n      0x0100\n      exp\n      swap1\n      div\n      0xffffffffffffffffffffffffffffffffffffffff\n      and\n        /* \"contracts/debates/newDebates/Debate.sol\":4591:4617  IVotes(token).getPastVotes */\n      0xffffffffffffffffffffffffffffffffffffffff\n      and\n      0x3a46b1a8\n        /* \"contracts/debates/newDebates/Debate.sol\":4618:4628  msg.sender */\n      caller\n        /* \"contracts/debates/newDebates/Debate.sol\":4630:4644  referenceBlock */\n      sload(0x02)\n        /* \"contracts/debates/newDebates/Debate.sol\":4591:4645  IVotes(token).getPastVotes(msg.sender, referenceBlock) */\n      mload(0x40)\n      dup4\n      0xffffffff\n      and\n      0xe0\n      shl\n      dup2\n      mstore\n      0x04\n      add\n      tag_71\n      swap3\n      swap2\n      swap1\n      tag_72\n      jump\t// in\n    tag_71:\n      0x20\n      mload(0x40)\n      dup1\n      dup4\n      sub\n      dup2\n      dup7\n      gas\n      staticcall\n      iszero\n      dup1\n      iszero\n      tag_74\n      jumpi\n      returndatasize\n      0x00\n      dup1\n      returndatacopy\n      revert(0x00, returndatasize)\n    tag_74:\n      pop\n      pop\n      pop\n      pop\n      mload(0x40)\n      returndatasize\n      not(0x1f)\n      0x1f\n      dup3\n      add\n      and\n      dup3\n      add\n      dup1\n      0x40\n      mstore\n      pop\n      dup2\n      add\n      swap1\n      tag_75\n      swap2\n      swap1\n      tag_76\n      jump\t// in\n    tag_75:\n        /* \"contracts/debates/newDebates/Debate.sol\":4571:4645  uint256 available = IVotes(token).getPastVotes(msg.sender, referenceBlock) */\n      swap1\n      pop\n        /* \"contracts/debates/newDebates/Debate.sol\":4682:4691  available */\n      dup1\n        /* \"contracts/debates/newDebates/Debate.sol\":4671:4678  _weight */\n      dup5\n        /* \"contracts/debates/newDebates/Debate.sol\":4664:4668  used */\n      dup4\n        /* \"contracts/debates/newDebates/Debate.sol\":4664:4678  used + _weight */\n      tag_77\n      swap2\n      swap1\n      tag_78\n      jump\t// in\n    tag_77:\n        /* \"contracts/debates/newDebates/Debate.sol\":4664:4691  used + _weight <= available */\n      gt\n      iszero\n        /* \"contracts/debates/newDebates/Debate.sol\":4656:4724  require(used + _weight <= available, \"Not enough voting power left\") */\n      tag_79\n      jumpi\n      mload(0x40)\n      0x08c379a000000000000000000000000000000000000000000000000000000000\n      dup2\n      mstore\n      0x04\n      add\n      tag_80\n      swap1\n      tag_81\n      jump\t// in\n    tag_80:\n      mload(0x40)\n      dup1\n      swap2\n      sub\n      swap1\n      revert\n    tag_79:\n        /* \"contracts/debates/newDebates/Debate.sol\":4769:4776  _weight */\n      dup4\n        /* \"contracts/debates/newDebates/Debate.sol\":4762:4766  used */\n      dup3\n        /* \"contracts/debates/newDebates/Debate.sol\":4762:4776  used + _weight */\n      tag_82\n      swap2\n      swap1\n      tag_78\n      jump\t// in\n    tag_82:\n        /* \"contracts/debates/newDebates/Debate.sol\":4737:4747  usedWeight */\n      0x03\n        /* \"contracts/debates/newDebates/Debate.sol\":4737:4759  usedWeight[msg.sender] */\n      0x00\n        /* \"contracts/debates/newDebates/Debate.sol\":4748:4758  msg.sender */\n      caller\n        /* \"contracts/debates/newDebates/Debate.sol\":4737:4759  usedWeight[msg.sender] */\n      0xffffffffffffffffffffffffffffffffffffffff\n      and\n      0xffffffffffffffffffffffffffffffffffffffff\n      and\n      dup2\n      mstore\n      0x20\n      add\n      swap1\n      dup2\n      mstore\n      0x20\n      add\n      0x00\n      keccak256\n        /* \"contracts/debates/newDebates/Debate.sol\":4737:4776  usedWeight[msg.sender] = used + _weight */\n      dup2\n      swap1\n      sstore\n      pop\n        /* \"contracts/debates/newDebates/Debate.sol\":4866:4884  bytes32 newArgHash */\n      0x00\n        /* \"contracts/debates/newDebates/Debate.sol\":4914:4922  _argText */\n      dup8\n        /* \"contracts/debates/newDebates/Debate.sol\":4924:4934  msg.sender */\n      caller\n        /* \"contracts/debates/newDebates/Debate.sol\":4936:4951  block.timestamp */\n      timestamp\n        /* \"contracts/debates/newDebates/Debate.sol\":4897:4952  abi.encodePacked(_argText, msg.sender, block.timestamp) */\n      add(0x20, mload(0x40))\n      tag_83\n      swap4\n      swap3\n      swap2\n      swap1\n      tag_84\n      jump\t// in\n    tag_83:\n      mload(0x40)\n      0x20\n      dup2\n      dup4\n      sub\n      sub\n      dup2\n      mstore\n      swap1\n      0x40\n      mstore\n        /* \"contracts/debates/newDebates/Debate.sol\":4887:4953  keccak256(abi.encodePacked(_argText, msg.sender, block.timestamp)) */\n      dup1\n      mload\n      swap1\n      0x20\n      add\n      keccak256\n        /* \"contracts/debates/newDebates/Debate.sol\":4866:4953  bytes32 newArgHash = keccak256(abi.encodePacked(_argText, msg.sender, block.timestamp)) */\n      swap1\n      pop\n        /* \"contracts/debates/newDebates/Debate.sol\":4990:5173  ArgumentData({... */\n      mload(0x40)\n      dup1\n      0xa0\n      add\n      0x40\n      mstore\n      dup1\n        /* \"contracts/debates/newDebates/Debate.sol\":5026:5036  msg.sender */\n      caller\n        /* \"contracts/debates/newDebates/Debate.sol\":4990:5173  ArgumentData({... */\n      0xffffffffffffffffffffffffffffffffffffffff\n      and\n      dup2\n      mstore\n      0x20\n      add\n        /* \"contracts/debates/newDebates/Debate.sol\":5063:5074  _parentHash */\n      dup9\n        /* \"contracts/debates/newDebates/Debate.sol\":4990:5173  ArgumentData({... */\n      dup2\n      mstore\n      0x20\n      add\n        /* \"contracts/debates/newDebates/Debate.sol\":5097:5104  _weight */\n      dup7\n        /* \"contracts/debates/newDebates/Debate.sol\":4990:5173  ArgumentData({... */\n      dup2\n      mstore\n      0x20\n      add\n        /* \"contracts/debates/newDebates/Debate.sol\":5127:5134  _option */\n      dup8\n        /* \"contracts/debates/newDebates/Debate.sol\":4990:5173  ArgumentData({... */\n      0x01\n      dup2\n      gt\n      iszero\n      tag_85\n      jumpi\n      tag_86\n      tag_59\n      jump\t// in\n    tag_86:\n    tag_85:\n      dup2\n      mstore\n      0x20\n      add\n        /* \"contracts/debates/newDebates/Debate.sol\":5157:5161  true */\n      0x01\n        /* \"contracts/debates/newDebates/Debate.sol\":4990:5173  ArgumentData({... */\n      iszero\n      iszero\n      dup2\n      mstore\n      pop\n        /* \"contracts/debates/newDebates/Debate.sol\":4966:4975  arguments */\n      0x04\n        /* \"contracts/debates/newDebates/Debate.sol\":4966:4987  arguments[newArgHash] */\n      0x00\n        /* \"contracts/debates/newDebates/Debate.sol\":4976:4986  newArgHash */\n      dup4\n        /* \"contracts/debates/newDebates/Debate.sol\":4966:4987  arguments[newArgHash] */\n      dup2\n      mstore\n      0x20\n      add\n      swap1\n      dup2\n      mstore\n      0x20\n      add\n      0x00\n      keccak256\n        /* \"contracts/debates/newDebates/Debate.sol\":4966:5173  arguments[newArgHash] = ArgumentData({... */\n      0x00\n      dup3\n      add\n      mload\n      dup2\n      0x00\n      add\n      exp(0x0100, 0x00)\n      dup2\n      sload\n      dup2\n      0xffffffffffffffffffffffffffffffffffffffff\n      mul\n      not\n      and\n      swap1\n      dup4\n      0xffffffffffffffffffffffffffffffffffffffff\n      and\n      mul\n      or\n      swap1\n      sstore\n      pop\n      0x20\n      dup3\n      add\n      mload\n      dup2\n      0x01\n      add\n      sstore\n      0x40\n      dup3\n      add\n      mload\n      dup2\n      0x02\n      add\n      sstore\n      0x60\n      dup3\n      add\n      mload\n      dup2\n      0x03\n      add\n      exp(0x0100, 0x00)\n      dup2\n      sload\n      dup2\n      0xff\n      mul\n      not\n      and\n      swap1\n      dup4\n      0x01\n      dup2\n      gt\n      iszero\n      tag_87\n      jumpi\n      tag_88\n      tag_59\n      jump\t// in\n    tag_88:\n    tag_87:\n      mul\n      or\n      swap1\n      sstore\n      pop\n      0x80\n      dup3\n      add\n      mload\n      dup2\n      0x03\n      add\n      exp(0x0100, 0x01)\n      dup2\n      sload\n      dup2\n      0xff\n      mul\n      not\n      and\n      swap1\n      dup4\n      iszero\n      iszero\n      mul\n      or\n      swap1\n      sstore\n      pop\n      swap1\n      pop\n      pop\n        /* \"contracts/debates/newDebates/Debate.sol\":5244:5254  newArgHash */\n      dup1\n        /* \"contracts/debates/newDebates/Debate.sol\":5219:5229  msg.sender */\n      caller\n        /* \"contracts/debates/newDebates/Debate.sol\":5191:5358  ArgumentAdded(... */\n      0xffffffffffffffffffffffffffffffffffffffff\n      and\n      0x6bb09798f64ec0b0dbfefcc9c215ca4813a205c4f6419d85056e5a5c68409974\n        /* \"contracts/debates/newDebates/Debate.sol\":5269:5280  _parentHash */\n      dup10\n        /* \"contracts/debates/newDebates/Debate.sol\":5295:5302  _option */\n      dup10\n        /* \"contracts/debates/newDebates/Debate.sol\":5317:5324  _weight */\n      dup10\n        /* \"contracts/debates/newDebates/Debate.sol\":5339:5347  _argText */\n      dup14\n        /* \"contracts/debates/newDebates/Debate.sol\":5191:5358  ArgumentAdded(... */\n      mload(0x40)\n      tag_89\n      swap5\n      swap4\n      swap3\n      swap2\n      swap1\n      tag_90\n      jump\t// in\n    tag_89:\n      mload(0x40)\n      dup1\n      swap2\n      sub\n      swap1\n      log3\n        /* \"contracts/debates/newDebates/Debate.sol\":3906:5366  {... */\n      pop\n      pop\n      pop\n      pop\n        /* \"contracts/debates/newDebates/Debate.sol\":3737:5366  function addArgument(... */\n      pop\n      pop\n      pop\n      pop\n      jump\t// out\n        /* \"contracts/debates/newDebates/Debate.sol\":1430:1475  mapping(address => uint256) public usedWeight */\n    tag_23:\n      mstore(0x20, 0x03)\n      dup1\n      0x00\n      mstore\n      keccak256(0x00, 0x40)\n      0x00\n      swap2\n      pop\n      swap1\n      pop\n      sload\n      dup2\n      jump\t// out\n        /* \"contracts/debates/newDebates/Debate.sol\":3374:3469  function getRootArgHash() external view returns (bytes32) {... */\n    tag_27:\n        /* \"contracts/debates/newDebates/Debate.sol\":3423:3430  bytes32 */\n      0x00\n        /* \"contracts/debates/newDebates/Debate.sol\":3450:3461  rootArgHash */\n      sload(0x05)\n        /* \"contracts/debates/newDebates/Debate.sol\":3443:3461  return rootArgHash */\n      swap1\n      pop\n        /* \"contracts/debates/newDebates/Debate.sol\":3374:3469  function getRootArgHash() external view returns (bytes32) {... */\n      swap1\n      jump\t// out\n        /* \"contracts/debates/newDebates/Debate.sol\":1228:1248  bool public isBinary */\n    tag_31:\n      0x01\n      0x00\n      swap1\n      sload\n      swap1\n      0x0100\n      exp\n      swap1\n      div\n      0xff\n      and\n      dup2\n      jump\t// out\n        /* \"contracts/debates/newDebates/Debate.sol\":1309:1338  uint256 public referenceBlock */\n    tag_35:\n      sload(0x02)\n      dup2\n      jump\t// out\n        /* \"contracts/debates/newDebates/Debate.sol\":1537:1586  mapping(bytes32 => ArgumentData) public arguments */\n    tag_40:\n      mstore(0x20, 0x04)\n      dup1\n      0x00\n      mstore\n      keccak256(0x00, 0x40)\n      0x00\n      swap2\n      pop\n      swap1\n      pop\n      dup1\n      0x00\n      add\n      0x00\n      swap1\n      sload\n      swap1\n      0x0100\n      exp\n      swap1\n      div\n      0xffffffffffffffffffffffffffffffffffffffff\n      and\n      swap1\n      dup1\n      0x01\n      add\n      sload\n      swap1\n      dup1\n      0x02\n      add\n      sload\n      swap1\n      dup1\n      0x03\n      add\n      0x00\n      swap1\n      sload\n      swap1\n      0x0100\n      exp\n      swap1\n      div\n      0xff\n      and\n      swap1\n      dup1\n      0x03\n      add\n      0x01\n      swap1\n      sload\n      swap1\n      0x0100\n      exp\n      swap1\n      div\n      0xff\n      and\n      swap1\n      pop\n      dup6\n      jump\t// out\n        /* \"contracts/debates/newDebates/Debate.sol\":1255:1275  address public token */\n    tag_44:\n      0x01\n      dup1\n      sload\n      swap1\n      0x0100\n      exp\n      swap1\n      div\n      0xffffffffffffffffffffffffffffffffffffffff\n      and\n      dup2\n      jump\t// out\n        /* \"#utility.yul\":7:106   */\n    tag_92:\n        /* \"#utility.yul\":59:65   */\n      0x00\n        /* \"#utility.yul\":93:98   */\n      dup2\n        /* \"#utility.yul\":87:99   */\n      mload\n        /* \"#utility.yul\":77:99   */\n      swap1\n      pop\n        /* \"#utility.yul\":7:106   */\n      swap2\n      swap1\n      pop\n      jump\t// out\n        /* \"#utility.yul\":112:281   */\n    tag_93:\n        /* \"#utility.yul\":196:207   */\n      0x00\n        /* \"#utility.yul\":230:236   */\n      dup3\n        /* \"#utility.yul\":225:228   */\n      dup3\n        /* \"#utility.yul\":218:237   */\n      mstore\n        /* \"#utility.yul\":270:274   */\n      0x20\n        /* \"#utility.yul\":265:268   */\n      dup3\n        /* \"#utility.yul\":261:275   */\n      add\n        /* \"#utility.yul\":246:275   */\n      swap1\n      pop\n        /* \"#utility.yul\":112:281   */\n      swap3\n      swap2\n      pop\n      pop\n      jump\t// out\n        /* \"#utility.yul\":287:426   */\n    tag_94:\n        /* \"#utility.yul\":376:382   */\n      dup3\n        /* \"#utility.yul\":371:374   */\n      dup2\n        /* \"#utility.yul\":366:369   */\n      dup4\n        /* \"#utility.yul\":360:383   */\n      mcopy\n        /* \"#utility.yul\":417:418   */\n      0x00\n        /* \"#utility.yul\":408:414   */\n      dup4\n        /* \"#utility.yul\":403:406   */\n      dup4\n        /* \"#utility.yul\":399:415   */\n      add\n        /* \"#utility.yul\":392:419   */\n      mstore\n        /* \"#utility.yul\":287:426   */\n      pop\n      pop\n      pop\n      jump\t// out\n        /* \"#utility.yul\":432:534   */\n    tag_95:\n        /* \"#utility.yul\":473:479   */\n      0x00\n        /* \"#utility.yul\":524:526   */\n      0x1f\n        /* \"#utility.yul\":520:527   */\n      not\n        /* \"#utility.yul\":515:517   */\n      0x1f\n        /* \"#utility.yul\":508:513   */\n      dup4\n        /* \"#utility.yul\":504:518   */\n      add\n        /* \"#utility.yul\":500:528   */\n      and\n        /* \"#utility.yul\":490:528   */\n      swap1\n      pop\n        /* \"#utility.yul\":432:534   */\n      swap2\n      swap1\n      pop\n      jump\t// out\n        /* \"#utility.yul\":540:917   */\n    tag_96:\n        /* \"#utility.yul\":628:631   */\n      0x00\n        /* \"#utility.yul\":656:695   */\n      tag_153\n        /* \"#utility.yul\":689:694   */\n      dup3\n        /* \"#utility.yul\":656:695   */\n      tag_92\n      jump\t// in\n    tag_153:\n        /* \"#utility.yul\":711:782   */\n      tag_154\n        /* \"#utility.yul\":775:781   */\n      dup2\n        /* \"#utility.yul\":770:773   */\n      dup6\n        /* \"#utility.yul\":711:782   */\n      tag_93\n      jump\t// in\n    tag_154:\n        /* \"#utility.yul\":704:782   */\n      swap4\n      pop\n        /* \"#utility.yul\":791:856   */\n      tag_155\n        /* \"#utility.yul\":849:855   */\n      dup2\n        /* \"#utility.yul\":844:847   */\n      dup6\n        /* \"#utility.yul\":837:841   */\n      0x20\n        /* \"#utility.yul\":830:835   */\n      dup7\n        /* \"#utility.yul\":826:842   */\n      add\n        /* \"#utility.yul\":791:856   */\n      tag_94\n      jump\t// in\n    tag_155:\n        /* \"#utility.yul\":881:910   */\n      tag_156\n        /* \"#utility.yul\":903:909   */\n      dup2\n        /* \"#utility.yul\":881:910   */\n      tag_95\n      jump\t// in\n    tag_156:\n        /* \"#utility.yul\":876:879   */\n      dup5\n        /* \"#utility.yul\":872:911   */\n      add\n        /* \"#utility.yul\":865:911   */\n      swap2\n      pop\n        /* \"#utility.yul\":632:917   */\n      pop\n        /* \"#utility.yul\":540:917   */\n      swap3\n      swap2\n      pop\n      pop\n      jump\t// out\n        /* \"#utility.yul\":923:1236   */\n    tag_15:\n        /* \"#utility.yul\":1036:1040   */\n      0x00\n        /* \"#utility.yul\":1074:1076   */\n      0x20\n        /* \"#utility.yul\":1063:1072   */\n      dup3\n        /* \"#utility.yul\":1059:1077   */\n      add\n        /* \"#utility.yul\":1051:1077   */\n      swap1\n      pop\n        /* \"#utility.yul\":1123:1132   */\n      dup2\n        /* \"#utility.yul\":1117:1121   */\n      dup2\n        /* \"#utility.yul\":1113:1133   */\n      sub\n        /* \"#utility.yul\":1109:1110   */\n      0x00\n        /* \"#utility.yul\":1098:1107   */\n      dup4\n        /* \"#utility.yul\":1094:1111   */\n      add\n        /* \"#utility.yul\":1087:1134   */\n      mstore\n        /* \"#utility.yul\":1151:1229   */\n      tag_158\n        /* \"#utility.yul\":1224:1228   */\n      dup2\n        /* \"#utility.yul\":1215:1221   */\n      dup5\n        /* \"#utility.yul\":1151:1229   */\n      tag_96\n      jump\t// in\n    tag_158:\n        /* \"#utility.yul\":1143:1229   */\n      swap1\n      pop\n        /* \"#utility.yul\":923:1236   */\n      swap3\n      swap2\n      pop\n      pop\n      jump\t// out\n        /* \"#utility.yul\":1242:1317   */\n    tag_97:\n        /* \"#utility.yul\":1275:1281   */\n      0x00\n        /* \"#utility.yul\":1308:1310   */\n      0x40\n        /* \"#utility.yul\":1302:1311   */\n      mload\n        /* \"#utility.yul\":1292:1311   */\n      swap1\n      pop\n        /* \"#utility.yul\":1242:1317   */\n      swap1\n      jump\t// out\n        /* \"#utility.yul\":1323:1440   */\n    tag_98:\n        /* \"#utility.yul\":1432:1433   */\n      0x00\n        /* \"#utility.yul\":1429:1430   */\n      dup1\n        /* \"#utility.yul\":1422:1434   */\n      revert\n        /* \"#utility.yul\":1446:1563   */\n    tag_99:\n        /* \"#utility.yul\":1555:1556   */\n      0x00\n        /* \"#utility.yul\":1552:1553   */\n      dup1\n        /* \"#utility.yul\":1545:1557   */\n      revert\n        /* \"#utility.yul\":1569:1686   */\n    tag_100:\n        /* \"#utility.yul\":1678:1679   */\n      0x00\n        /* \"#utility.yul\":1675:1676   */\n      dup1\n        /* \"#utility.yul\":1668:1680   */\n      revert\n        /* \"#utility.yul\":1692:1809   */\n    tag_101:\n        /* \"#utility.yul\":1801:1802   */\n      0x00\n        /* \"#utility.yul\":1798:1799   */\n      dup1\n        /* \"#utility.yul\":1791:1803   */\n      revert\n        /* \"#utility.yul\":1815:1995   */\n    tag_102:\n        /* \"#utility.yul\":1863:1940   */\n      0x4e487b7100000000000000000000000000000000000000000000000000000000\n        /* \"#utility.yul\":1860:1861   */\n      0x00\n        /* \"#utility.yul\":1853:1941   */\n      mstore\n        /* \"#utility.yul\":1960:1964   */\n      0x41\n        /* \"#utility.yul\":1957:1958   */\n      0x04\n        /* \"#utility.yul\":1950:1965   */\n      mstore\n        /* \"#utility.yul\":1984:1988   */\n      0x24\n        /* \"#utility.yul\":1981:1982   */\n      0x00\n        /* \"#utility.yul\":1974:1989   */\n      revert\n        /* \"#utility.yul\":2001:2282   */\n    tag_103:\n        /* \"#utility.yul\":2084:2111   */\n      tag_166\n        /* \"#utility.yul\":2106:2110   */\n      dup3\n        /* \"#utility.yul\":2084:2111   */\n      tag_95\n      jump\t// in\n    tag_166:\n        /* \"#utility.yul\":2076:2082   */\n      dup2\n        /* \"#utility.yul\":2072:2112   */\n      add\n        /* \"#utility.yul\":2214:2220   */\n      dup2\n        /* \"#utility.yul\":2202:2212   */\n      dup2\n        /* \"#utility.yul\":2199:2221   */\n      lt\n        /* \"#utility.yul\":2178:2196   */\n      0xffffffffffffffff\n        /* \"#utility.yul\":2166:2176   */\n      dup3\n        /* \"#utility.yul\":2163:2197   */\n      gt\n        /* \"#utility.yul\":2160:2222   */\n      or\n        /* \"#utility.yul\":2157:2245   */\n      iszero\n      tag_167\n      jumpi\n        /* \"#utility.yul\":2225:2243   */\n      tag_168\n      tag_102\n      jump\t// in\n    tag_168:\n        /* \"#utility.yul\":2157:2245   */\n    tag_167:\n        /* \"#utility.yul\":2265:2275   */\n      dup1\n        /* \"#utility.yul\":2261:2263   */\n      0x40\n        /* \"#utility.yul\":2254:2276   */\n      mstore\n        /* \"#utility.yul\":2044:2282   */\n      pop\n        /* \"#utility.yul\":2001:2282   */\n      pop\n      pop\n      jump\t// out\n        /* \"#utility.yul\":2288:2417   */\n    tag_104:\n        /* \"#utility.yul\":2322:2328   */\n      0x00\n        /* \"#utility.yul\":2349:2369   */\n      tag_170\n      tag_97\n      jump\t// in\n    tag_170:\n        /* \"#utility.yul\":2339:2369   */\n      swap1\n      pop\n        /* \"#utility.yul\":2378:2411   */\n      tag_171\n        /* \"#utility.yul\":2406:2410   */\n      dup3\n        /* \"#utility.yul\":2398:2404   */\n      dup3\n        /* \"#utility.yul\":2378:2411   */\n      tag_103\n      jump\t// in\n    tag_171:\n        /* \"#utility.yul\":2288:2417   */\n      swap2\n      swap1\n      pop\n      jump\t// out\n        /* \"#utility.yul\":2423:2731   */\n    tag_105:\n        /* \"#utility.yul\":2485:2489   */\n      0x00\n        /* \"#utility.yul\":2575:2593   */\n      0xffffffffffffffff\n        /* \"#utility.yul\":2567:2573   */\n      dup3\n        /* \"#utility.yul\":2564:2594   */\n      gt\n        /* \"#utility.yul\":2561:2617   */\n      iszero\n      tag_173\n      jumpi\n        /* \"#utility.yul\":2597:2615   */\n      tag_174\n      tag_102\n      jump\t// in\n    tag_174:\n        /* \"#utility.yul\":2561:2617   */\n    tag_173:\n        /* \"#utility.yul\":2635:2664   */\n      tag_175\n        /* \"#utility.yul\":2657:2663   */\n      dup3\n        /* \"#utility.yul\":2635:2664   */\n      tag_95\n      jump\t// in\n    tag_175:\n        /* \"#utility.yul\":2627:2664   */\n      swap1\n      pop\n        /* \"#utility.yul\":2719:2723   */\n      0x20\n        /* \"#utility.yul\":2713:2717   */\n      dup2\n        /* \"#utility.yul\":2709:2724   */\n      add\n        /* \"#utility.yul\":2701:2724   */\n      swap1\n      pop\n        /* \"#utility.yul\":2423:2731   */\n      swap2\n      swap1\n      pop\n      jump\t// out\n        /* \"#utility.yul\":2737:2885   */\n    tag_106:\n        /* \"#utility.yul\":2835:2841   */\n      dup3\n        /* \"#utility.yul\":2830:2833   */\n      dup2\n        /* \"#utility.yul\":2825:2828   */\n      dup4\n        /* \"#utility.yul\":2812:2842   */\n      calldatacopy\n        /* \"#utility.yul\":2876:2877   */\n      0x00\n        /* \"#utility.yul\":2867:2873   */\n      dup4\n        /* \"#utility.yul\":2862:2865   */\n      dup4\n        /* \"#utility.yul\":2858:2874   */\n      add\n        /* \"#utility.yul\":2851:2878   */\n      mstore\n        /* \"#utility.yul\":2737:2885   */\n      pop\n      pop\n      pop\n      jump\t// out\n        /* \"#utility.yul\":2891:3316   */\n    tag_107:\n        /* \"#utility.yul\":2969:2974   */\n      0x00\n        /* \"#utility.yul\":2994:3060   */\n      tag_178\n        /* \"#utility.yul\":3010:3059   */\n      tag_179\n        /* \"#utility.yul\":3052:3058   */\n      dup5\n        /* \"#utility.yul\":3010:3059   */\n      tag_105\n      jump\t// in\n    tag_179:\n        /* \"#utility.yul\":2994:3060   */\n      tag_104\n      jump\t// in\n    tag_178:\n        /* \"#utility.yul\":2985:3060   */\n      swap1\n      pop\n        /* \"#utility.yul\":3083:3089   */\n      dup3\n        /* \"#utility.yul\":3076:3081   */\n      dup2\n        /* \"#utility.yul\":3069:3090   */\n      mstore\n        /* \"#utility.yul\":3121:3125   */\n      0x20\n        /* \"#utility.yul\":3114:3119   */\n      dup2\n        /* \"#utility.yul\":3110:3126   */\n      add\n        /* \"#utility.yul\":3159:3162   */\n      dup5\n        /* \"#utility.yul\":3150:3156   */\n      dup5\n        /* \"#utility.yul\":3145:3148   */\n      dup5\n        /* \"#utility.yul\":3141:3157   */\n      add\n        /* \"#utility.yul\":3138:3163   */\n      gt\n        /* \"#utility.yul\":3135:3247   */\n      iszero\n      tag_180\n      jumpi\n        /* \"#utility.yul\":3166:3245   */\n      tag_181\n      tag_101\n      jump\t// in\n    tag_181:\n        /* \"#utility.yul\":3135:3247   */\n    tag_180:\n        /* \"#utility.yul\":3256:3310   */\n      tag_182\n        /* \"#utility.yul\":3303:3309   */\n      dup5\n        /* \"#utility.yul\":3298:3301   */\n      dup3\n        /* \"#utility.yul\":3293:3296   */\n      dup6\n        /* \"#utility.yul\":3256:3310   */\n      tag_106\n      jump\t// in\n    tag_182:\n        /* \"#utility.yul\":2975:3316   */\n      pop\n        /* \"#utility.yul\":2891:3316   */\n      swap4\n      swap3\n      pop\n      pop\n      pop\n      jump\t// out\n        /* \"#utility.yul\":3336:3676   */\n    tag_108:\n        /* \"#utility.yul\":3392:3397   */\n      0x00\n        /* \"#utility.yul\":3441:3444   */\n      dup3\n        /* \"#utility.yul\":3434:3438   */\n      0x1f\n        /* \"#utility.yul\":3426:3432   */\n      dup4\n        /* \"#utility.yul\":3422:3439   */\n      add\n        /* \"#utility.yul\":3418:3445   */\n      slt\n        /* \"#utility.yul\":3408:3530   */\n      tag_184\n      jumpi\n        /* \"#utility.yul\":3449:3528   */\n      tag_185\n      tag_100\n      jump\t// in\n    tag_185:\n        /* \"#utility.yul\":3408:3530   */\n    tag_184:\n        /* \"#utility.yul\":3566:3572   */\n      dup2\n        /* \"#utility.yul\":3553:3573   */\n      calldataload\n        /* \"#utility.yul\":3591:3670   */\n      tag_186\n        /* \"#utility.yul\":3666:3669   */\n      dup5\n        /* \"#utility.yul\":3658:3664   */\n      dup3\n        /* \"#utility.yul\":3651:3655   */\n      0x20\n        /* \"#utility.yul\":3643:3649   */\n      dup7\n        /* \"#utility.yul\":3639:3656   */\n      add\n        /* \"#utility.yul\":3591:3670   */\n      tag_107\n      jump\t// in\n    tag_186:\n        /* \"#utility.yul\":3582:3670   */\n      swap2\n      pop\n        /* \"#utility.yul\":3398:3676   */\n      pop\n        /* \"#utility.yul\":3336:3676   */\n      swap3\n      swap2\n      pop\n      pop\n      jump\t// out\n        /* \"#utility.yul\":3682:3759   */\n    tag_109:\n        /* \"#utility.yul\":3719:3726   */\n      0x00\n        /* \"#utility.yul\":3748:3753   */\n      dup2\n        /* \"#utility.yul\":3737:3753   */\n      swap1\n      pop\n        /* \"#utility.yul\":3682:3759   */\n      swap2\n      swap1\n      pop\n      jump\t// out\n        /* \"#utility.yul\":3765:3887   */\n    tag_110:\n        /* \"#utility.yul\":3838:3862   */\n      tag_189\n        /* \"#utility.yul\":3856:3861   */\n      dup2\n        /* \"#utility.yul\":3838:3862   */\n      tag_109\n      jump\t// in\n    tag_189:\n        /* \"#utility.yul\":3831:3836   */\n      dup2\n        /* \"#utility.yul\":3828:3863   */\n      eq\n        /* \"#utility.yul\":3818:3881   */\n      tag_190\n      jumpi\n        /* \"#utility.yul\":3877:3878   */\n      0x00\n        /* \"#utility.yul\":3874:3875   */\n      dup1\n        /* \"#utility.yul\":3867:3879   */\n      revert\n        /* \"#utility.yul\":3818:3881   */\n    tag_190:\n        /* \"#utility.yul\":3765:3887   */\n      pop\n      jump\t// out\n        /* \"#utility.yul\":3893:4032   */\n    tag_111:\n        /* \"#utility.yul\":3939:3944   */\n      0x00\n        /* \"#utility.yul\":3977:3983   */\n      dup2\n        /* \"#utility.yul\":3964:3984   */\n      calldataload\n        /* \"#utility.yul\":3955:3984   */\n      swap1\n      pop\n        /* \"#utility.yul\":3993:4026   */\n      tag_192\n        /* \"#utility.yul\":4020:4025   */\n      dup2\n        /* \"#utility.yul\":3993:4026   */\n      tag_110\n      jump\t// in\n    tag_192:\n        /* \"#utility.yul\":3893:4032   */\n      swap3\n      swap2\n      pop\n      pop\n      jump\t// out\n        /* \"#utility.yul\":4038:4150   */\n    tag_112:\n        /* \"#utility.yul\":4124:4125   */\n      0x02\n        /* \"#utility.yul\":4117:4122   */\n      dup2\n        /* \"#utility.yul\":4114:4126   */\n      lt\n        /* \"#utility.yul\":4104:4144   */\n      tag_194\n      jumpi\n        /* \"#utility.yul\":4140:4141   */\n      0x00\n        /* \"#utility.yul\":4137:4138   */\n      dup1\n        /* \"#utility.yul\":4130:4142   */\n      revert\n        /* \"#utility.yul\":4104:4144   */\n    tag_194:\n        /* \"#utility.yul\":4038:4150   */\n      pop\n      jump\t// out\n        /* \"#utility.yul\":4156:4321   */\n    tag_113:\n        /* \"#utility.yul\":4215:4220   */\n      0x00\n        /* \"#utility.yul\":4253:4259   */\n      dup2\n        /* \"#utility.yul\":4240:4260   */\n      calldataload\n        /* \"#utility.yul\":4231:4260   */\n      swap1\n      pop\n        /* \"#utility.yul\":4269:4315   */\n      tag_196\n        /* \"#utility.yul\":4309:4314   */\n      dup2\n        /* \"#utility.yul\":4269:4315   */\n      tag_112\n      jump\t// in\n    tag_196:\n        /* \"#utility.yul\":4156:4321   */\n      swap3\n      swap2\n      pop\n      pop\n      jump\t// out\n        /* \"#utility.yul\":4327:4404   */\n    tag_114:\n        /* \"#utility.yul\":4364:4371   */\n      0x00\n        /* \"#utility.yul\":4393:4398   */\n      dup2\n        /* \"#utility.yul\":4382:4398   */\n      swap1\n      pop\n        /* \"#utility.yul\":4327:4404   */\n      swap2\n      swap1\n      pop\n      jump\t// out\n        /* \"#utility.yul\":4410:4532   */\n    tag_115:\n        /* \"#utility.yul\":4483:4507   */\n      tag_199\n        /* \"#utility.yul\":4501:4506   */\n      dup2\n        /* \"#utility.yul\":4483:4507   */\n      tag_114\n      jump\t// in\n    tag_199:\n        /* \"#utility.yul\":4476:4481   */\n      dup2\n        /* \"#utility.yul\":4473:4508   */\n      eq\n        /* \"#utility.yul\":4463:4526   */\n      tag_200\n      jumpi\n        /* \"#utility.yul\":4522:4523   */\n      0x00\n        /* \"#utility.yul\":4519:4520   */\n      dup1\n        /* \"#utility.yul\":4512:4524   */\n      revert\n        /* \"#utility.yul\":4463:4526   */\n    tag_200:\n        /* \"#utility.yul\":4410:4532   */\n      pop\n      jump\t// out\n        /* \"#utility.yul\":4538:4677   */\n    tag_116:\n        /* \"#utility.yul\":4584:4589   */\n      0x00\n        /* \"#utility.yul\":4622:4628   */\n      dup2\n        /* \"#utility.yul\":4609:4629   */\n      calldataload\n        /* \"#utility.yul\":4600:4629   */\n      swap1\n      pop\n        /* \"#utility.yul\":4638:4671   */\n      tag_202\n        /* \"#utility.yul\":4665:4670   */\n      dup2\n        /* \"#utility.yul\":4638:4671   */\n      tag_115\n      jump\t// in\n    tag_202:\n        /* \"#utility.yul\":4538:4677   */\n      swap3\n      swap2\n      pop\n      pop\n      jump\t// out\n        /* \"#utility.yul\":4683:5654   */\n    tag_18:\n        /* \"#utility.yul\":4792:4798   */\n      0x00\n        /* \"#utility.yul\":4800:4806   */\n      dup1\n        /* \"#utility.yul\":4808:4814   */\n      0x00\n        /* \"#utility.yul\":4816:4822   */\n      dup1\n        /* \"#utility.yul\":4865:4868   */\n      0x80\n        /* \"#utility.yul\":4853:4862   */\n      dup6\n        /* \"#utility.yul\":4844:4851   */\n      dup8\n        /* \"#utility.yul\":4840:4863   */\n      sub\n        /* \"#utility.yul\":4836:4869   */\n      slt\n        /* \"#utility.yul\":4833:4953   */\n      iszero\n      tag_204\n      jumpi\n        /* \"#utility.yul\":4872:4951   */\n      tag_205\n      tag_98\n      jump\t// in\n    tag_205:\n        /* \"#utility.yul\":4833:4953   */\n    tag_204:\n        /* \"#utility.yul\":5020:5021   */\n      0x00\n        /* \"#utility.yul\":5009:5018   */\n      dup6\n        /* \"#utility.yul\":5005:5022   */\n      add\n        /* \"#utility.yul\":4992:5023   */\n      calldataload\n        /* \"#utility.yul\":5050:5068   */\n      0xffffffffffffffff\n        /* \"#utility.yul\":5042:5048   */\n      dup2\n        /* \"#utility.yul\":5039:5069   */\n      gt\n        /* \"#utility.yul\":5036:5153   */\n      iszero\n      tag_206\n      jumpi\n        /* \"#utility.yul\":5072:5151   */\n      tag_207\n      tag_99\n      jump\t// in\n    tag_207:\n        /* \"#utility.yul\":5036:5153   */\n    tag_206:\n        /* \"#utility.yul\":5177:5240   */\n      tag_208\n        /* \"#utility.yul\":5232:5239   */\n      dup8\n        /* \"#utility.yul\":5223:5229   */\n      dup3\n        /* \"#utility.yul\":5212:5221   */\n      dup9\n        /* \"#utility.yul\":5208:5230   */\n      add\n        /* \"#utility.yul\":5177:5240   */\n      tag_108\n      jump\t// in\n    tag_208:\n        /* \"#utility.yul\":5167:5240   */\n      swap5\n      pop\n        /* \"#utility.yul\":4963:5250   */\n      pop\n        /* \"#utility.yul\":5289:5291   */\n      0x20\n        /* \"#utility.yul\":5315:5368   */\n      tag_209\n        /* \"#utility.yul\":5360:5367   */\n      dup8\n        /* \"#utility.yul\":5351:5357   */\n      dup3\n        /* \"#utility.yul\":5340:5349   */\n      dup9\n        /* \"#utility.yul\":5336:5358   */\n      add\n        /* \"#utility.yul\":5315:5368   */\n      tag_111\n      jump\t// in\n    tag_209:\n        /* \"#utility.yul\":5305:5368   */\n      swap4\n      pop\n        /* \"#utility.yul\":5260:5378   */\n      pop\n        /* \"#utility.yul\":5417:5419   */\n      0x40\n        /* \"#utility.yul\":5443:5509   */\n      tag_210\n        /* \"#utility.yul\":5501:5508   */\n      dup8\n        /* \"#utility.yul\":5492:5498   */\n      dup3\n        /* \"#utility.yul\":5481:5490   */\n      dup9\n        /* \"#utility.yul\":5477:5499   */\n      add\n        /* \"#utility.yul\":5443:5509   */\n      tag_113\n      jump\t// in\n    tag_210:\n        /* \"#utility.yul\":5433:5509   */\n      swap3\n      pop\n        /* \"#utility.yul\":5388:5519   */\n      pop\n        /* \"#utility.yul\":5558:5560   */\n      0x60\n        /* \"#utility.yul\":5584:5637   */\n      tag_211\n        /* \"#utility.yul\":5629:5636   */\n      dup8\n        /* \"#utility.yul\":5620:5626   */\n      dup3\n        /* \"#utility.yul\":5609:5618   */\n      dup9\n        /* \"#utility.yul\":5605:5627   */\n      add\n        /* \"#utility.yul\":5584:5637   */\n      tag_116\n      jump\t// in\n    tag_211:\n        /* \"#utility.yul\":5574:5637   */\n      swap2\n      pop\n        /* \"#utility.yul\":5529:5647   */\n      pop\n        /* \"#utility.yul\":4683:5654   */\n      swap3\n      swap6\n      swap2\n      swap5\n      pop\n      swap3\n      pop\n      jump\t// out\n        /* \"#utility.yul\":5660:5786   */\n    tag_117:\n        /* \"#utility.yul\":5697:5704   */\n      0x00\n        /* \"#utility.yul\":5737:5779   */\n      0xffffffffffffffffffffffffffffffffffffffff\n        /* \"#utility.yul\":5730:5735   */\n      dup3\n        /* \"#utility.yul\":5726:5780   */\n      and\n        /* \"#utility.yul\":5715:5780   */\n      swap1\n      pop\n        /* \"#utility.yul\":5660:5786   */\n      swap2\n      swap1\n      pop\n      jump\t// out\n        /* \"#utility.yul\":5792:5888   */\n    tag_118:\n        /* \"#utility.yul\":5829:5836   */\n      0x00\n        /* \"#utility.yul\":5858:5882   */\n      tag_214\n        /* \"#utility.yul\":5876:5881   */\n      dup3\n        /* \"#utility.yul\":5858:5882   */\n      tag_117\n      jump\t// in\n    tag_214:\n        /* \"#utility.yul\":5847:5882   */\n      swap1\n      pop\n        /* \"#utility.yul\":5792:5888   */\n      swap2\n      swap1\n      pop\n      jump\t// out\n        /* \"#utility.yul\":5894:6016   */\n    tag_119:\n        /* \"#utility.yul\":5967:5991   */\n      tag_216\n        /* \"#utility.yul\":5985:5990   */\n      dup2\n        /* \"#utility.yul\":5967:5991   */\n      tag_118\n      jump\t// in\n    tag_216:\n        /* \"#utility.yul\":5960:5965   */\n      dup2\n        /* \"#utility.yul\":5957:5992   */\n      eq\n        /* \"#utility.yul\":5947:6010   */\n      tag_217\n      jumpi\n        /* \"#utility.yul\":6006:6007   */\n      0x00\n        /* \"#utility.yul\":6003:6004   */\n      dup1\n        /* \"#utility.yul\":5996:6008   */\n      revert\n        /* \"#utility.yul\":5947:6010   */\n    tag_217:\n        /* \"#utility.yul\":5894:6016   */\n      pop\n      jump\t// out\n        /* \"#utility.yul\":6022:6161   */\n    tag_120:\n        /* \"#utility.yul\":6068:6073   */\n      0x00\n        /* \"#utility.yul\":6106:6112   */\n      dup2\n        /* \"#utility.yul\":6093:6113   */\n      calldataload\n        /* \"#utility.yul\":6084:6113   */\n      swap1\n      pop\n        /* \"#utility.yul\":6122:6155   */\n      tag_219\n        /* \"#utility.yul\":6149:6154   */\n      dup2\n        /* \"#utility.yul\":6122:6155   */\n      tag_119\n      jump\t// in\n    tag_219:\n        /* \"#utility.yul\":6022:6161   */\n      swap3\n      swap2\n      pop\n      pop\n      jump\t// out\n        /* \"#utility.yul\":6167:6496   */\n    tag_22:\n        /* \"#utility.yul\":6226:6232   */\n      0x00\n        /* \"#utility.yul\":6275:6277   */\n      0x20\n        /* \"#utility.yul\":6263:6272   */\n      dup3\n        /* \"#utility.yul\":6254:6261   */\n      dup5\n        /* \"#utility.yul\":6250:6273   */\n      sub\n        /* \"#utility.yul\":6246:6278   */\n      slt\n        /* \"#utility.yul\":6243:6362   */\n      iszero\n      tag_221\n      jumpi\n        /* \"#utility.yul\":6281:6360   */\n      tag_222\n      tag_98\n      jump\t// in\n    tag_222:\n        /* \"#utility.yul\":6243:6362   */\n    tag_221:\n        /* \"#utility.yul\":6401:6402   */\n      0x00\n        /* \"#utility.yul\":6426:6479   */\n      tag_223\n        /* \"#utility.yul\":6471:6478   */\n      dup5\n        /* \"#utility.yul\":6462:6468   */\n      dup3\n        /* \"#utility.yul\":6451:6460   */\n      dup6\n        /* \"#utility.yul\":6447:6469   */\n      add\n        /* \"#utility.yul\":6426:6479   */\n      tag_120\n      jump\t// in\n    tag_223:\n        /* \"#utility.yul\":6416:6479   */\n      swap2\n      pop\n        /* \"#utility.yul\":6372:6489   */\n      pop\n        /* \"#utility.yul\":6167:6496   */\n      swap3\n      swap2\n      pop\n      pop\n      jump\t// out\n        /* \"#utility.yul\":6502:6620   */\n    tag_121:\n        /* \"#utility.yul\":6589:6613   */\n      tag_225\n        /* \"#utility.yul\":6607:6612   */\n      dup2\n        /* \"#utility.yul\":6589:6613   */\n      tag_114\n      jump\t// in\n    tag_225:\n        /* \"#utility.yul\":6584:6587   */\n      dup3\n        /* \"#utility.yul\":6577:6614   */\n      mstore\n        /* \"#utility.yul\":6502:6620   */\n      pop\n      pop\n      jump\t// out\n        /* \"#utility.yul\":6626:6848   */\n    tag_25:\n        /* \"#utility.yul\":6719:6723   */\n      0x00\n        /* \"#utility.yul\":6757:6759   */\n      0x20\n        /* \"#utility.yul\":6746:6755   */\n      dup3\n        /* \"#utility.yul\":6742:6760   */\n      add\n        /* \"#utility.yul\":6734:6760   */\n      swap1\n      pop\n        /* \"#utility.yul\":6770:6841   */\n      tag_227\n        /* \"#utility.yul\":6838:6839   */\n      0x00\n        /* \"#utility.yul\":6827:6836   */\n      dup4\n        /* \"#utility.yul\":6823:6840   */\n      add\n        /* \"#utility.yul\":6814:6820   */\n      dup5\n        /* \"#utility.yul\":6770:6841   */\n      tag_121\n      jump\t// in\n    tag_227:\n        /* \"#utility.yul\":6626:6848   */\n      swap3\n      swap2\n      pop\n      pop\n      jump\t// out\n        /* \"#utility.yul\":6854:6972   */\n    tag_122:\n        /* \"#utility.yul\":6941:6965   */\n      tag_229\n        /* \"#utility.yul\":6959:6964   */\n      dup2\n        /* \"#utility.yul\":6941:6965   */\n      tag_109\n      jump\t// in\n    tag_229:\n        /* \"#utility.yul\":6936:6939   */\n      dup3\n        /* \"#utility.yul\":6929:6966   */\n      mstore\n        /* \"#utility.yul\":6854:6972   */\n      pop\n      pop\n      jump\t// out\n        /* \"#utility.yul\":6978:7200   */\n    tag_29:\n        /* \"#utility.yul\":7071:7075   */\n      0x00\n        /* \"#utility.yul\":7109:7111   */\n      0x20\n        /* \"#utility.yul\":7098:7107   */\n      dup3\n        /* \"#utility.yul\":7094:7112   */\n      add\n        /* \"#utility.yul\":7086:7112   */\n      swap1\n      pop\n        /* \"#utility.yul\":7122:7193   */\n      tag_231\n        /* \"#utility.yul\":7190:7191   */\n      0x00\n        /* \"#utility.yul\":7179:7188   */\n      dup4\n        /* \"#utility.yul\":7175:7192   */\n      add\n        /* \"#utility.yul\":7166:7172   */\n      dup5\n        /* \"#utility.yul\":7122:7193   */\n      tag_122\n      jump\t// in\n    tag_231:\n        /* \"#utility.yul\":6978:7200   */\n      swap3\n      swap2\n      pop\n      pop\n      jump\t// out\n        /* \"#utility.yul\":7206:7296   */\n    tag_123:\n        /* \"#utility.yul\":7240:7247   */\n      0x00\n        /* \"#utility.yul\":7283:7288   */\n      dup2\n        /* \"#utility.yul\":7276:7289   */\n      iszero\n        /* \"#utility.yul\":7269:7290   */\n      iszero\n        /* \"#utility.yul\":7258:7290   */\n      swap1\n      pop\n        /* \"#utility.yul\":7206:7296   */\n      swap2\n      swap1\n      pop\n      jump\t// out\n        /* \"#utility.yul\":7302:7411   */\n    tag_124:\n        /* \"#utility.yul\":7383:7404   */\n      tag_234\n        /* \"#utility.yul\":7398:7403   */\n      dup2\n        /* \"#utility.yul\":7383:7404   */\n      tag_123\n      jump\t// in\n    tag_234:\n        /* \"#utility.yul\":7378:7381   */\n      dup3\n        /* \"#utility.yul\":7371:7405   */\n      mstore\n        /* \"#utility.yul\":7302:7411   */\n      pop\n      pop\n      jump\t// out\n        /* \"#utility.yul\":7417:7627   */\n    tag_33:\n        /* \"#utility.yul\":7504:7508   */\n      0x00\n        /* \"#utility.yul\":7542:7544   */\n      0x20\n        /* \"#utility.yul\":7531:7540   */\n      dup3\n        /* \"#utility.yul\":7527:7545   */\n      add\n        /* \"#utility.yul\":7519:7545   */\n      swap1\n      pop\n        /* \"#utility.yul\":7555:7620   */\n      tag_236\n        /* \"#utility.yul\":7617:7618   */\n      0x00\n        /* \"#utility.yul\":7606:7615   */\n      dup4\n        /* \"#utility.yul\":7602:7619   */\n      add\n        /* \"#utility.yul\":7593:7599   */\n      dup5\n        /* \"#utility.yul\":7555:7620   */\n      tag_124\n      jump\t// in\n    tag_236:\n        /* \"#utility.yul\":7417:7627   */\n      swap3\n      swap2\n      pop\n      pop\n      jump\t// out\n        /* \"#utility.yul\":7633:7962   */\n    tag_39:\n        /* \"#utility.yul\":7692:7698   */\n      0x00\n        /* \"#utility.yul\":7741:7743   */\n      0x20\n        /* \"#utility.yul\":7729:7738   */\n      dup3\n        /* \"#utility.yul\":7720:7727   */\n      dup5\n        /* \"#utility.yul\":7716:7739   */\n      sub\n        /* \"#utility.yul\":7712:7744   */\n      slt\n        /* \"#utility.yul\":7709:7828   */\n      iszero\n      tag_238\n      jumpi\n        /* \"#utility.yul\":7747:7826   */\n      tag_239\n      tag_98\n      jump\t// in\n    tag_239:\n        /* \"#utility.yul\":7709:7828   */\n    tag_238:\n        /* \"#utility.yul\":7867:7868   */\n      0x00\n        /* \"#utility.yul\":7892:7945   */\n      tag_240\n        /* \"#utility.yul\":7937:7944   */\n      dup5\n        /* \"#utility.yul\":7928:7934   */\n      dup3\n        /* \"#utility.yul\":7917:7926   */\n      dup6\n        /* \"#utility.yul\":7913:7935   */\n      add\n        /* \"#utility.yul\":7892:7945   */\n      tag_111\n      jump\t// in\n    tag_240:\n        /* \"#utility.yul\":7882:7945   */\n      swap2\n      pop\n        /* \"#utility.yul\":7838:7955   */\n      pop\n        /* \"#utility.yul\":7633:7962   */\n      swap3\n      swap2\n      pop\n      pop\n      jump\t// out\n        /* \"#utility.yul\":7968:8086   */\n    tag_125:\n        /* \"#utility.yul\":8055:8079   */\n      tag_242\n        /* \"#utility.yul\":8073:8078   */\n      dup2\n        /* \"#utility.yul\":8055:8079   */\n      tag_118\n      jump\t// in\n    tag_242:\n        /* \"#utility.yul\":8050:8053   */\n      dup3\n        /* \"#utility.yul\":8043:8080   */\n      mstore\n        /* \"#utility.yul\":7968:8086   */\n      pop\n      pop\n      jump\t// out\n        /* \"#utility.yul\":8092:8272   */\n    tag_59:\n        /* \"#utility.yul\":8140:8217   */\n      0x4e487b7100000000000000000000000000000000000000000000000000000000\n        /* \"#utility.yul\":8137:8138   */\n      0x00\n        /* \"#utility.yul\":8130:8218   */\n      mstore\n        /* \"#utility.yul\":8237:8241   */\n      0x21\n        /* \"#utility.yul\":8234:8235   */\n      0x04\n        /* \"#utility.yul\":8227:8242   */\n      mstore\n        /* \"#utility.yul\":8261:8265   */\n      0x24\n        /* \"#utility.yul\":8258:8259   */\n      0x00\n        /* \"#utility.yul\":8251:8266   */\n      revert\n        /* \"#utility.yul\":8278:8396   */\n    tag_126:\n        /* \"#utility.yul\":8364:8365   */\n      0x02\n        /* \"#utility.yul\":8357:8362   */\n      dup2\n        /* \"#utility.yul\":8354:8366   */\n      lt\n        /* \"#utility.yul\":8344:8390   */\n      tag_245\n      jumpi\n        /* \"#utility.yul\":8370:8388   */\n      tag_246\n      tag_59\n      jump\t// in\n    tag_246:\n        /* \"#utility.yul\":8344:8390   */\n    tag_245:\n        /* \"#utility.yul\":8278:8396   */\n      pop\n      jump\t// out\n        /* \"#utility.yul\":8402:8539   */\n    tag_127:\n        /* \"#utility.yul\":8452:8459   */\n      0x00\n        /* \"#utility.yul\":8481:8486   */\n      dup2\n        /* \"#utility.yul\":8470:8486   */\n      swap1\n      pop\n        /* \"#utility.yul\":8487:8533   */\n      tag_248\n        /* \"#utility.yul\":8527:8532   */\n      dup3\n        /* \"#utility.yul\":8487:8533   */\n      tag_126\n      jump\t// in\n    tag_248:\n        /* \"#utility.yul\":8402:8539   */\n      swap2\n      swap1\n      pop\n      jump\t// out\n        /* \"#utility.yul\":8545:8682   */\n    tag_128:\n        /* \"#utility.yul\":8606:8615   */\n      0x00\n        /* \"#utility.yul\":8639:8676   */\n      tag_250\n        /* \"#utility.yul\":8670:8675   */\n      dup3\n        /* \"#utility.yul\":8639:8676   */\n      tag_127\n      jump\t// in\n    tag_250:\n        /* \"#utility.yul\":8626:8676   */\n      swap1\n      pop\n        /* \"#utility.yul\":8545:8682   */\n      swap2\n      swap1\n      pop\n      jump\t// out\n        /* \"#utility.yul\":8688:8841   */\n    tag_129:\n        /* \"#utility.yul\":8786:8834   */\n      tag_252\n        /* \"#utility.yul\":8828:8833   */\n      dup2\n        /* \"#utility.yul\":8786:8834   */\n      tag_128\n      jump\t// in\n    tag_252:\n        /* \"#utility.yul\":8781:8784   */\n      dup3\n        /* \"#utility.yul\":8774:8835   */\n      mstore\n        /* \"#utility.yul\":8688:8841   */\n      pop\n      pop\n      jump\t// out\n        /* \"#utility.yul\":8847:9521   */\n    tag_42:\n        /* \"#utility.yul\":9057:9061   */\n      0x00\n        /* \"#utility.yul\":9095:9098   */\n      0xa0\n        /* \"#utility.yul\":9084:9093   */\n      dup3\n        /* \"#utility.yul\":9080:9099   */\n      add\n        /* \"#utility.yul\":9072:9099   */\n      swap1\n      pop\n        /* \"#utility.yul\":9109:9180   */\n      tag_254\n        /* \"#utility.yul\":9177:9178   */\n      0x00\n        /* \"#utility.yul\":9166:9175   */\n      dup4\n        /* \"#utility.yul\":9162:9179   */\n      add\n        /* \"#utility.yul\":9153:9159   */\n      dup9\n        /* \"#utility.yul\":9109:9180   */\n      tag_125\n      jump\t// in\n    tag_254:\n        /* \"#utility.yul\":9190:9262   */\n      tag_255\n        /* \"#utility.yul\":9258:9260   */\n      0x20\n        /* \"#utility.yul\":9247:9256   */\n      dup4\n        /* \"#utility.yul\":9243:9261   */\n      add\n        /* \"#utility.yul\":9234:9240   */\n      dup8\n        /* \"#utility.yul\":9190:9262   */\n      tag_122\n      jump\t// in\n    tag_255:\n        /* \"#utility.yul\":9272:9344   */\n      tag_256\n        /* \"#utility.yul\":9340:9342   */\n      0x40\n        /* \"#utility.yul\":9329:9338   */\n      dup4\n        /* \"#utility.yul\":9325:9343   */\n      add\n        /* \"#utility.yul\":9316:9322   */\n      dup7\n        /* \"#utility.yul\":9272:9344   */\n      tag_121\n      jump\t// in\n    tag_256:\n        /* \"#utility.yul\":9354:9437   */\n      tag_257\n        /* \"#utility.yul\":9433:9435   */\n      0x60\n        /* \"#utility.yul\":9422:9431   */\n      dup4\n        /* \"#utility.yul\":9418:9436   */\n      add\n        /* \"#utility.yul\":9409:9415   */\n      dup6\n        /* \"#utility.yul\":9354:9437   */\n      tag_129\n      jump\t// in\n    tag_257:\n        /* \"#utility.yul\":9447:9514   */\n      tag_258\n        /* \"#utility.yul\":9509:9512   */\n      0x80\n        /* \"#utility.yul\":9498:9507   */\n      dup4\n        /* \"#utility.yul\":9494:9513   */\n      add\n        /* \"#utility.yul\":9485:9491   */\n      dup5\n        /* \"#utility.yul\":9447:9514   */\n      tag_124\n      jump\t// in\n    tag_258:\n        /* \"#utility.yul\":8847:9521   */\n      swap7\n      swap6\n      pop\n      pop\n      pop\n      pop\n      pop\n      pop\n      jump\t// out\n        /* \"#utility.yul\":9527:9749   */\n    tag_46:\n        /* \"#utility.yul\":9620:9624   */\n      0x00\n        /* \"#utility.yul\":9658:9660   */\n      0x20\n        /* \"#utility.yul\":9647:9656   */\n      dup3\n        /* \"#utility.yul\":9643:9661   */\n      add\n        /* \"#utility.yul\":9635:9661   */\n      swap1\n      pop\n        /* \"#utility.yul\":9671:9742   */\n      tag_260\n        /* \"#utility.yul\":9739:9740   */\n      0x00\n        /* \"#utility.yul\":9728:9737   */\n      dup4\n        /* \"#utility.yul\":9724:9741   */\n      add\n        /* \"#utility.yul\":9715:9721   */\n      dup5\n        /* \"#utility.yul\":9671:9742   */\n      tag_125\n      jump\t// in\n    tag_260:\n        /* \"#utility.yul\":9527:9749   */\n      swap3\n      swap2\n      pop\n      pop\n      jump\t// out\n        /* \"#utility.yul\":9755:9935   */\n    tag_130:\n        /* \"#utility.yul\":9803:9880   */\n      0x4e487b7100000000000000000000000000000000000000000000000000000000\n        /* \"#utility.yul\":9800:9801   */\n      0x00\n        /* \"#utility.yul\":9793:9881   */\n      mstore\n        /* \"#utility.yul\":9900:9904   */\n      0x22\n        /* \"#utility.yul\":9897:9898   */\n      0x04\n        /* \"#utility.yul\":9890:9905   */\n      mstore\n        /* \"#utility.yul\":9924:9928   */\n      0x24\n        /* \"#utility.yul\":9921:9922   */\n      0x00\n        /* \"#utility.yul\":9914:9929   */\n      revert\n        /* \"#utility.yul\":9941:10261   */\n    tag_48:\n        /* \"#utility.yul\":9985:9991   */\n      0x00\n        /* \"#utility.yul\":10022:10023   */\n      0x02\n        /* \"#utility.yul\":10016:10020   */\n      dup3\n        /* \"#utility.yul\":10012:10024   */\n      div\n        /* \"#utility.yul\":10002:10024   */\n      swap1\n      pop\n        /* \"#utility.yul\":10069:10070   */\n      0x01\n        /* \"#utility.yul\":10063:10067   */\n      dup3\n        /* \"#utility.yul\":10059:10071   */\n      and\n        /* \"#utility.yul\":10090:10108   */\n      dup1\n        /* \"#utility.yul\":10080:10161   */\n      tag_263\n      jumpi\n        /* \"#utility.yul\":10146:10150   */\n      0x7f\n        /* \"#utility.yul\":10138:10144   */\n      dup3\n        /* \"#utility.yul\":10134:10151   */\n      and\n        /* \"#utility.yul\":10124:10151   */\n      swap2\n      pop\n        /* \"#utility.yul\":10080:10161   */\n    tag_263:\n        /* \"#utility.yul\":10208:10210   */\n      0x20\n        /* \"#utility.yul\":10200:10206   */\n      dup3\n        /* \"#utility.yul\":10197:10211   */\n      lt\n        /* \"#utility.yul\":10177:10195   */\n      dup2\n        /* \"#utility.yul\":10174:10212   */\n      sub\n        /* \"#utility.yul\":10171:10255   */\n      tag_264\n      jumpi\n        /* \"#utility.yul\":10227:10245   */\n      tag_265\n      tag_130\n      jump\t// in\n    tag_265:\n        /* \"#utility.yul\":10171:10255   */\n    tag_264:\n        /* \"#utility.yul\":9992:10261   */\n      pop\n        /* \"#utility.yul\":9941:10261   */\n      swap2\n      swap1\n      pop\n      jump\t// out\n        /* \"#utility.yul\":10267:10438   */\n    tag_131:\n        /* \"#utility.yul\":10407:10430   */\n      0x506172656e7420646f6573206e6f742065786973740000000000000000000000\n        /* \"#utility.yul\":10403:10404   */\n      0x00\n        /* \"#utility.yul\":10395:10401   */\n      dup3\n        /* \"#utility.yul\":10391:10405   */\n      add\n        /* \"#utility.yul\":10384:10431   */\n      mstore\n        /* \"#utility.yul\":10267:10438   */\n      pop\n      jump\t// out\n        /* \"#utility.yul\":10444:10810   */\n    tag_132:\n        /* \"#utility.yul\":10586:10589   */\n      0x00\n        /* \"#utility.yul\":10607:10674   */\n      tag_268\n        /* \"#utility.yul\":10671:10673   */\n      0x15\n        /* \"#utility.yul\":10666:10669   */\n      dup4\n        /* \"#utility.yul\":10607:10674   */\n      tag_93\n      jump\t// in\n    tag_268:\n        /* \"#utility.yul\":10600:10674   */\n      swap2\n      pop\n        /* \"#utility.yul\":10683:10776   */\n      tag_269\n        /* \"#utility.yul\":10772:10775   */\n      dup3\n        /* \"#utility.yul\":10683:10776   */\n      tag_131\n      jump\t// in\n    tag_269:\n        /* \"#utility.yul\":10801:10803   */\n      0x20\n        /* \"#utility.yul\":10796:10799   */\n      dup3\n        /* \"#utility.yul\":10792:10804   */\n      add\n        /* \"#utility.yul\":10785:10804   */\n      swap1\n      pop\n        /* \"#utility.yul\":10444:10810   */\n      swap2\n      swap1\n      pop\n      jump\t// out\n        /* \"#utility.yul\":10816:11235   */\n    tag_56:\n        /* \"#utility.yul\":10982:10986   */\n      0x00\n        /* \"#utility.yul\":11020:11022   */\n      0x20\n        /* \"#utility.yul\":11009:11018   */\n      dup3\n        /* \"#utility.yul\":11005:11023   */\n      add\n        /* \"#utility.yul\":10997:11023   */\n      swap1\n      pop\n        /* \"#utility.yul\":11069:11078   */\n      dup2\n        /* \"#utility.yul\":11063:11067   */\n      dup2\n        /* \"#utility.yul\":11059:11079   */\n      sub\n        /* \"#utility.yul\":11055:11056   */\n      0x00\n        /* \"#utility.yul\":11044:11053   */\n      dup4\n        /* \"#utility.yul\":11040:11057   */\n      add\n        /* \"#utility.yul\":11033:11080   */\n      mstore\n        /* \"#utility.yul\":11097:11228   */\n      tag_271\n        /* \"#utility.yul\":11223:11227   */\n      dup2\n        /* \"#utility.yul\":11097:11228   */\n      tag_132\n      jump\t// in\n    tag_271:\n        /* \"#utility.yul\":11089:11228   */\n      swap1\n      pop\n        /* \"#utility.yul\":10816:11235   */\n      swap2\n      swap1\n      pop\n      jump\t// out\n        /* \"#utility.yul\":11241:11471   */\n    tag_133:\n        /* \"#utility.yul\":11381:11415   */\n      0x467265652d666f722d616c6c2064656261746520686173206e6f20636f6e2061\n        /* \"#utility.yul\":11377:11378   */\n      0x00\n        /* \"#utility.yul\":11369:11375   */\n      dup3\n        /* \"#utility.yul\":11365:11379   */\n      add\n        /* \"#utility.yul\":11358:11416   */\n      mstore\n        /* \"#utility.yul\":11450:11463   */\n      0x7420746f70206c6576656c000000000000000000000000000000000000000000\n        /* \"#utility.yul\":11445:11447   */\n      0x20\n        /* \"#utility.yul\":11437:11443   */\n      dup3\n        /* \"#utility.yul\":11433:11448   */\n      add\n        /* \"#utility.yul\":11426:11464   */\n      mstore\n        /* \"#utility.yul\":11241:11471   */\n      pop\n      jump\t// out\n        /* \"#utility.yul\":11477:11843   */\n    tag_134:\n        /* \"#utility.yul\":11619:11622   */\n      0x00\n        /* \"#utility.yul\":11640:11707   */\n      tag_274\n        /* \"#utility.yul\":11704:11706   */\n      0x2b\n        /* \"#utility.yul\":11699:11702   */\n      dup4\n        /* \"#utility.yul\":11640:11707   */\n      tag_93\n      jump\t// in\n    tag_274:\n        /* \"#utility.yul\":11633:11707   */\n      swap2\n      pop\n        /* \"#utility.yul\":11716:11809   */\n      tag_275\n        /* \"#utility.yul\":11805:11808   */\n      dup3\n        /* \"#utility.yul\":11716:11809   */\n      tag_133\n      jump\t// in\n    tag_275:\n        /* \"#utility.yul\":11834:11836   */\n      0x40\n        /* \"#utility.yul\":11829:11832   */\n      dup3\n        /* \"#utility.yul\":11825:11837   */\n      add\n        /* \"#utility.yul\":11818:11837   */\n      swap1\n      pop\n        /* \"#utility.yul\":11477:11843   */\n      swap2\n      swap1\n      pop\n      jump\t// out\n        /* \"#utility.yul\":11849:12268   */\n    tag_70:\n        /* \"#utility.yul\":12015:12019   */\n      0x00\n        /* \"#utility.yul\":12053:12055   */\n      0x20\n        /* \"#utility.yul\":12042:12051   */\n      dup3\n        /* \"#utility.yul\":12038:12056   */\n      add\n        /* \"#utility.yul\":12030:12056   */\n      swap1\n      pop\n        /* \"#utility.yul\":12102:12111   */\n      dup2\n        /* \"#utility.yul\":12096:12100   */\n      dup2\n        /* \"#utility.yul\":12092:12112   */\n      sub\n        /* \"#utility.yul\":12088:12089   */\n      0x00\n        /* \"#utility.yul\":12077:12086   */\n      dup4\n        /* \"#utility.yul\":12073:12090   */\n      add\n        /* \"#utility.yul\":12066:12113   */\n      mstore\n        /* \"#utility.yul\":12130:12261   */\n      tag_277\n        /* \"#utility.yul\":12256:12260   */\n      dup2\n        /* \"#utility.yul\":12130:12261   */\n      tag_134\n      jump\t// in\n    tag_277:\n        /* \"#utility.yul\":12122:12261   */\n      swap1\n      pop\n        /* \"#utility.yul\":11849:12268   */\n      swap2\n      swap1\n      pop\n      jump\t// out\n        /* \"#utility.yul\":12274:12606   */\n    tag_72:\n        /* \"#utility.yul\":12395:12399   */\n      0x00\n        /* \"#utility.yul\":12433:12435   */\n      0x40\n        /* \"#utility.yul\":12422:12431   */\n      dup3\n        /* \"#utility.yul\":12418:12436   */\n      add\n        /* \"#utility.yul\":12410:12436   */\n      swap1\n      pop\n        /* \"#utility.yul\":12446:12517   */\n      tag_279\n        /* \"#utility.yul\":12514:12515   */\n      0x00\n        /* \"#utility.yul\":12503:12512   */\n      dup4\n        /* \"#utility.yul\":12499:12516   */\n      add\n        /* \"#utility.yul\":12490:12496   */\n      dup6\n        /* \"#utility.yul\":12446:12517   */\n      tag_125\n      jump\t// in\n    tag_279:\n        /* \"#utility.yul\":12527:12599   */\n      tag_280\n        /* \"#utility.yul\":12595:12597   */\n      0x20\n        /* \"#utility.yul\":12584:12593   */\n      dup4\n        /* \"#utility.yul\":12580:12598   */\n      add\n        /* \"#utility.yul\":12571:12577   */\n      dup5\n        /* \"#utility.yul\":12527:12599   */\n      tag_121\n      jump\t// in\n    tag_280:\n        /* \"#utility.yul\":12274:12606   */\n      swap4\n      swap3\n      pop\n      pop\n      pop\n      jump\t// out\n        /* \"#utility.yul\":12612:12755   */\n    tag_135:\n        /* \"#utility.yul\":12669:12674   */\n      0x00\n        /* \"#utility.yul\":12700:12706   */\n      dup2\n        /* \"#utility.yul\":12694:12707   */\n      mload\n        /* \"#utility.yul\":12685:12707   */\n      swap1\n      pop\n        /* \"#utility.yul\":12716:12749   */\n      tag_282\n        /* \"#utility.yul\":12743:12748   */\n      dup2\n        /* \"#utility.yul\":12716:12749   */\n      tag_115\n      jump\t// in\n    tag_282:\n        /* \"#utility.yul\":12612:12755   */\n      swap3\n      swap2\n      pop\n      pop\n      jump\t// out\n        /* \"#utility.yul\":12761:13112   */\n    tag_76:\n        /* \"#utility.yul\":12831:12837   */\n      0x00\n        /* \"#utility.yul\":12880:12882   */\n      0x20\n        /* \"#utility.yul\":12868:12877   */\n      dup3\n        /* \"#utility.yul\":12859:12866   */\n      dup5\n        /* \"#utility.yul\":12855:12878   */\n      sub\n        /* \"#utility.yul\":12851:12883   */\n      slt\n        /* \"#utility.yul\":12848:12967   */\n      iszero\n      tag_284\n      jumpi\n        /* \"#utility.yul\":12886:12965   */\n      tag_285\n      tag_98\n      jump\t// in\n    tag_285:\n        /* \"#utility.yul\":12848:12967   */\n    tag_284:\n        /* \"#utility.yul\":13006:13007   */\n      0x00\n        /* \"#utility.yul\":13031:13095   */\n      tag_286\n        /* \"#utility.yul\":13087:13094   */\n      dup5\n        /* \"#utility.yul\":13078:13084   */\n      dup3\n        /* \"#utility.yul\":13067:13076   */\n      dup6\n        /* \"#utility.yul\":13063:13085   */\n      add\n        /* \"#utility.yul\":13031:13095   */\n      tag_135\n      jump\t// in\n    tag_286:\n        /* \"#utility.yul\":13021:13095   */\n      swap2\n      pop\n        /* \"#utility.yul\":12977:13105   */\n      pop\n        /* \"#utility.yul\":12761:13112   */\n      swap3\n      swap2\n      pop\n      pop\n      jump\t// out\n        /* \"#utility.yul\":13118:13298   */\n    tag_136:\n        /* \"#utility.yul\":13166:13243   */\n      0x4e487b7100000000000000000000000000000000000000000000000000000000\n        /* \"#utility.yul\":13163:13164   */\n      0x00\n        /* \"#utility.yul\":13156:13244   */\n      mstore\n        /* \"#utility.yul\":13263:13267   */\n      0x11\n        /* \"#utility.yul\":13260:13261   */\n      0x04\n        /* \"#utility.yul\":13253:13268   */\n      mstore\n        /* \"#utility.yul\":13287:13291   */\n      0x24\n        /* \"#utility.yul\":13284:13285   */\n      0x00\n        /* \"#utility.yul\":13277:13292   */\n      revert\n        /* \"#utility.yul\":13304:13495   */\n    tag_78:\n        /* \"#utility.yul\":13344:13347   */\n      0x00\n        /* \"#utility.yul\":13363:13383   */\n      tag_289\n        /* \"#utility.yul\":13381:13382   */\n      dup3\n        /* \"#utility.yul\":13363:13383   */\n      tag_114\n      jump\t// in\n    tag_289:\n        /* \"#utility.yul\":13358:13383   */\n      swap2\n      pop\n        /* \"#utility.yul\":13397:13417   */\n      tag_290\n        /* \"#utility.yul\":13415:13416   */\n      dup4\n        /* \"#utility.yul\":13397:13417   */\n      tag_114\n      jump\t// in\n    tag_290:\n        /* \"#utility.yul\":13392:13417   */\n      swap3\n      pop\n        /* \"#utility.yul\":13440:13441   */\n      dup3\n        /* \"#utility.yul\":13437:13438   */\n      dup3\n        /* \"#utility.yul\":13433:13442   */\n      add\n        /* \"#utility.yul\":13426:13442   */\n      swap1\n      pop\n        /* \"#utility.yul\":13461:13464   */\n      dup1\n        /* \"#utility.yul\":13458:13459   */\n      dup3\n        /* \"#utility.yul\":13455:13465   */\n      gt\n        /* \"#utility.yul\":13452:13488   */\n      iszero\n      tag_291\n      jumpi\n        /* \"#utility.yul\":13468:13486   */\n      tag_292\n      tag_136\n      jump\t// in\n    tag_292:\n        /* \"#utility.yul\":13452:13488   */\n    tag_291:\n        /* \"#utility.yul\":13304:13495   */\n      swap3\n      swap2\n      pop\n      pop\n      jump\t// out\n        /* \"#utility.yul\":13501:13679   */\n    tag_137:\n        /* \"#utility.yul\":13641:13671   */\n      0x4e6f7420656e6f75676820766f74696e6720706f776572206c65667400000000\n        /* \"#utility.yul\":13637:13638   */\n      0x00\n        /* \"#utility.yul\":13629:13635   */\n      dup3\n        /* \"#utility.yul\":13625:13639   */\n      add\n        /* \"#utility.yul\":13618:13672   */\n      mstore\n        /* \"#utility.yul\":13501:13679   */\n      pop\n      jump\t// out\n        /* \"#utility.yul\":13685:14051   */\n    tag_138:\n        /* \"#utility.yul\":13827:13830   */\n      0x00\n        /* \"#utility.yul\":13848:13915   */\n      tag_295\n        /* \"#utility.yul\":13912:13914   */\n      0x1c\n        /* \"#utility.yul\":13907:13910   */\n      dup4\n        /* \"#utility.yul\":13848:13915   */\n      tag_93\n      jump\t// in\n    tag_295:\n        /* \"#utility.yul\":13841:13915   */\n      swap2\n      pop\n        /* \"#utility.yul\":13924:14017   */\n      tag_296\n        /* \"#utility.yul\":14013:14016   */\n      dup3\n        /* \"#utility.yul\":13924:14017   */\n      tag_137\n      jump\t// in\n    tag_296:\n        /* \"#utility.yul\":14042:14044   */\n      0x20\n        /* \"#utility.yul\":14037:14040   */\n      dup3\n        /* \"#utility.yul\":14033:14045   */\n      add\n        /* \"#utility.yul\":14026:14045   */\n      swap1\n      pop\n        /* \"#utility.yul\":13685:14051   */\n      swap2\n      swap1\n      pop\n      jump\t// out\n        /* \"#utility.yul\":14057:14476   */\n    tag_81:\n        /* \"#utility.yul\":14223:14227   */\n      0x00\n        /* \"#utility.yul\":14261:14263   */\n      0x20\n        /* \"#utility.yul\":14250:14259   */\n      dup3\n        /* \"#utility.yul\":14246:14264   */\n      add\n        /* \"#utility.yul\":14238:14264   */\n      swap1\n      pop\n        /* \"#utility.yul\":14310:14319   */\n      dup2\n        /* \"#utility.yul\":14304:14308   */\n      dup2\n        /* \"#utility.yul\":14300:14320   */\n      sub\n        /* \"#utility.yul\":14296:14297   */\n      0x00\n        /* \"#utility.yul\":14285:14294   */\n      dup4\n        /* \"#utility.yul\":14281:14298   */\n      add\n        /* \"#utility.yul\":14274:14321   */\n      mstore\n        /* \"#utility.yul\":14338:14469   */\n      tag_298\n        /* \"#utility.yul\":14464:14468   */\n      dup2\n        /* \"#utility.yul\":14338:14469   */\n      tag_138\n      jump\t// in\n    tag_298:\n        /* \"#utility.yul\":14330:14469   */\n      swap1\n      pop\n        /* \"#utility.yul\":14057:14476   */\n      swap2\n      swap1\n      pop\n      jump\t// out\n        /* \"#utility.yul\":14482:14630   */\n    tag_139:\n        /* \"#utility.yul\":14584:14595   */\n      0x00\n        /* \"#utility.yul\":14621:14624   */\n      dup2\n        /* \"#utility.yul\":14606:14624   */\n      swap1\n      pop\n        /* \"#utility.yul\":14482:14630   */\n      swap3\n      swap2\n      pop\n      pop\n      jump\t// out\n        /* \"#utility.yul\":14636:15026   */\n    tag_140:\n        /* \"#utility.yul\":14742:14745   */\n      0x00\n        /* \"#utility.yul\":14770:14809   */\n      tag_301\n        /* \"#utility.yul\":14803:14808   */\n      dup3\n        /* \"#utility.yul\":14770:14809   */\n      tag_92\n      jump\t// in\n    tag_301:\n        /* \"#utility.yul\":14825:14914   */\n      tag_302\n        /* \"#utility.yul\":14907:14913   */\n      dup2\n        /* \"#utility.yul\":14902:14905   */\n      dup6\n        /* \"#utility.yul\":14825:14914   */\n      tag_139\n      jump\t// in\n    tag_302:\n        /* \"#utility.yul\":14818:14914   */\n      swap4\n      pop\n        /* \"#utility.yul\":14923:14988   */\n      tag_303\n        /* \"#utility.yul\":14981:14987   */\n      dup2\n        /* \"#utility.yul\":14976:14979   */\n      dup6\n        /* \"#utility.yul\":14969:14973   */\n      0x20\n        /* \"#utility.yul\":14962:14967   */\n      dup7\n        /* \"#utility.yul\":14958:14974   */\n      add\n        /* \"#utility.yul\":14923:14988   */\n      tag_94\n      jump\t// in\n    tag_303:\n        /* \"#utility.yul\":15013:15019   */\n      dup1\n        /* \"#utility.yul\":15008:15011   */\n      dup5\n        /* \"#utility.yul\":15004:15020   */\n      add\n        /* \"#utility.yul\":14997:15020   */\n      swap2\n      pop\n        /* \"#utility.yul\":14746:15026   */\n      pop\n        /* \"#utility.yul\":14636:15026   */\n      swap3\n      swap2\n      pop\n      pop\n      jump\t// out\n        /* \"#utility.yul\":15032:15126   */\n    tag_141:\n        /* \"#utility.yul\":15065:15073   */\n      0x00\n        /* \"#utility.yul\":15113:15118   */\n      dup2\n        /* \"#utility.yul\":15109:15111   */\n      0x60\n        /* \"#utility.yul\":15105:15119   */\n      shl\n        /* \"#utility.yul\":15084:15119   */\n      swap1\n      pop\n        /* \"#utility.yul\":15032:15126   */\n      swap2\n      swap1\n      pop\n      jump\t// out\n        /* \"#utility.yul\":15132:15226   */\n    tag_142:\n        /* \"#utility.yul\":15171:15178   */\n      0x00\n        /* \"#utility.yul\":15200:15220   */\n      tag_306\n        /* \"#utility.yul\":15214:15219   */\n      dup3\n        /* \"#utility.yul\":15200:15220   */\n      tag_141\n      jump\t// in\n    tag_306:\n        /* \"#utility.yul\":15189:15220   */\n      swap1\n      pop\n        /* \"#utility.yul\":15132:15226   */\n      swap2\n      swap1\n      pop\n      jump\t// out\n        /* \"#utility.yul\":15232:15332   */\n    tag_143:\n        /* \"#utility.yul\":15271:15278   */\n      0x00\n        /* \"#utility.yul\":15300:15326   */\n      tag_308\n        /* \"#utility.yul\":15320:15325   */\n      dup3\n        /* \"#utility.yul\":15300:15326   */\n      tag_142\n      jump\t// in\n    tag_308:\n        /* \"#utility.yul\":15289:15326   */\n      swap1\n      pop\n        /* \"#utility.yul\":15232:15332   */\n      swap2\n      swap1\n      pop\n      jump\t// out\n        /* \"#utility.yul\":15338:15495   */\n    tag_144:\n        /* \"#utility.yul\":15443:15488   */\n      tag_310\n        /* \"#utility.yul\":15463:15487   */\n      tag_311\n        /* \"#utility.yul\":15481:15486   */\n      dup3\n        /* \"#utility.yul\":15463:15487   */\n      tag_118\n      jump\t// in\n    tag_311:\n        /* \"#utility.yul\":15443:15488   */\n      tag_143\n      jump\t// in\n    tag_310:\n        /* \"#utility.yul\":15438:15441   */\n      dup3\n        /* \"#utility.yul\":15431:15489   */\n      mstore\n        /* \"#utility.yul\":15338:15495   */\n      pop\n      pop\n      jump\t// out\n        /* \"#utility.yul\":15501:15580   */\n    tag_145:\n        /* \"#utility.yul\":15540:15547   */\n      0x00\n        /* \"#utility.yul\":15569:15574   */\n      dup2\n        /* \"#utility.yul\":15558:15574   */\n      swap1\n      pop\n        /* \"#utility.yul\":15501:15580   */\n      swap2\n      swap1\n      pop\n      jump\t// out\n        /* \"#utility.yul\":15586:15743   */\n    tag_146:\n        /* \"#utility.yul\":15691:15736   */\n      tag_314\n        /* \"#utility.yul\":15711:15735   */\n      tag_315\n        /* \"#utility.yul\":15729:15734   */\n      dup3\n        /* \"#utility.yul\":15711:15735   */\n      tag_114\n      jump\t// in\n    tag_315:\n        /* \"#utility.yul\":15691:15736   */\n      tag_145\n      jump\t// in\n    tag_314:\n        /* \"#utility.yul\":15686:15689   */\n      dup3\n        /* \"#utility.yul\":15679:15737   */\n      mstore\n        /* \"#utility.yul\":15586:15743   */\n      pop\n      pop\n      jump\t// out\n        /* \"#utility.yul\":15749:16306   */\n    tag_84:\n        /* \"#utility.yul\":15937:15940   */\n      0x00\n        /* \"#utility.yul\":15959:16054   */\n      tag_317\n        /* \"#utility.yul\":16050:16053   */\n      dup3\n        /* \"#utility.yul\":16041:16047   */\n      dup7\n        /* \"#utility.yul\":15959:16054   */\n      tag_140\n      jump\t// in\n    tag_317:\n        /* \"#utility.yul\":15952:16054   */\n      swap2\n      pop\n        /* \"#utility.yul\":16064:16139   */\n      tag_318\n        /* \"#utility.yul\":16135:16138   */\n      dup3\n        /* \"#utility.yul\":16126:16132   */\n      dup6\n        /* \"#utility.yul\":16064:16139   */\n      tag_144\n      jump\t// in\n    tag_318:\n        /* \"#utility.yul\":16164:16166   */\n      0x14\n        /* \"#utility.yul\":16159:16162   */\n      dup3\n        /* \"#utility.yul\":16155:16167   */\n      add\n        /* \"#utility.yul\":16148:16167   */\n      swap2\n      pop\n        /* \"#utility.yul\":16177:16252   */\n      tag_319\n        /* \"#utility.yul\":16248:16251   */\n      dup3\n        /* \"#utility.yul\":16239:16245   */\n      dup5\n        /* \"#utility.yul\":16177:16252   */\n      tag_146\n      jump\t// in\n    tag_319:\n        /* \"#utility.yul\":16277:16279   */\n      0x20\n        /* \"#utility.yul\":16272:16275   */\n      dup3\n        /* \"#utility.yul\":16268:16280   */\n      add\n        /* \"#utility.yul\":16261:16280   */\n      swap2\n      pop\n        /* \"#utility.yul\":16297:16300   */\n      dup2\n        /* \"#utility.yul\":16290:16300   */\n      swap1\n      pop\n        /* \"#utility.yul\":15749:16306   */\n      swap5\n      swap4\n      pop\n      pop\n      pop\n      pop\n      jump\t// out\n        /* \"#utility.yul\":16312:16978   */\n    tag_90:\n        /* \"#utility.yul\":16520:16524   */\n      0x00\n        /* \"#utility.yul\":16558:16561   */\n      0x80\n        /* \"#utility.yul\":16547:16556   */\n      dup3\n        /* \"#utility.yul\":16543:16562   */\n      add\n        /* \"#utility.yul\":16535:16562   */\n      swap1\n      pop\n        /* \"#utility.yul\":16572:16643   */\n      tag_321\n        /* \"#utility.yul\":16640:16641   */\n      0x00\n        /* \"#utility.yul\":16629:16638   */\n      dup4\n        /* \"#utility.yul\":16625:16642   */\n      add\n        /* \"#utility.yul\":16616:16622   */\n      dup8\n        /* \"#utility.yul\":16572:16643   */\n      tag_122\n      jump\t// in\n    tag_321:\n        /* \"#utility.yul\":16653:16736   */\n      tag_322\n        /* \"#utility.yul\":16732:16734   */\n      0x20\n        /* \"#utility.yul\":16721:16730   */\n      dup4\n        /* \"#utility.yul\":16717:16735   */\n      add\n        /* \"#utility.yul\":16708:16714   */\n      dup7\n        /* \"#utility.yul\":16653:16736   */\n      tag_129\n      jump\t// in\n    tag_322:\n        /* \"#utility.yul\":16746:16818   */\n      tag_323\n        /* \"#utility.yul\":16814:16816   */\n      0x40\n        /* \"#utility.yul\":16803:16812   */\n      dup4\n        /* \"#utility.yul\":16799:16817   */\n      add\n        /* \"#utility.yul\":16790:16796   */\n      dup6\n        /* \"#utility.yul\":16746:16818   */\n      tag_121\n      jump\t// in\n    tag_323:\n        /* \"#utility.yul\":16865:16874   */\n      dup2\n        /* \"#utility.yul\":16859:16863   */\n      dup2\n        /* \"#utility.yul\":16855:16875   */\n      sub\n        /* \"#utility.yul\":16850:16852   */\n      0x60\n        /* \"#utility.yul\":16839:16848   */\n      dup4\n        /* \"#utility.yul\":16835:16853   */\n      add\n        /* \"#utility.yul\":16828:16876   */\n      mstore\n        /* \"#utility.yul\":16893:16971   */\n      tag_324\n        /* \"#utility.yul\":16966:16970   */\n      dup2\n        /* \"#utility.yul\":16957:16963   */\n      dup5\n        /* \"#utility.yul\":16893:16971   */\n      tag_96\n      jump\t// in\n    tag_324:\n        /* \"#utility.yul\":16885:16971   */\n      swap1\n      pop\n        /* \"#utility.yul\":16312:16978   */\n      swap6\n      swap5\n      pop\n      pop\n      pop\n      pop\n      pop\n      jump\t// out\n\n    auxdata: 0xa2646970667358221220bf3c740fcff2674154ba9436dc5d1ec3dc94db368fc8ca2702fd851e07c265fa64736f6c634300081a0033\n}\n",
				"bytecode": {
					"linkReferences": {},
					"object": "608060405234801561000f575f80fd5b50604051611d10380380611d1083398181016040528101906100319190610602565b845f908161003f91906108b5565b508260015f6101000a81548160ff021916908315150217905550816001806101000a81548173ffffffffffffffffffffffffffffffffffffffff021916908373ffffffffffffffffffffffffffffffffffffffff16021790555060018054906101000a900473ffffffffffffffffffffffffffffffffffffffff1673ffffffffffffffffffffffffffffffffffffffff166391ddadf46040518163ffffffff1660e01b8152600401602060405180830381865afa158015610102573d5f803e3d5ffd5b505050506040513d601f19601f820116820180604052508101906101269190610984565b6002819055505f60018054906101000a900473ffffffffffffffffffffffffffffffffffffffff1673ffffffffffffffffffffffffffffffffffffffff16639ab24eb0326040518263ffffffff1660e01b815260040161018691906109be565b602060405180830381865afa1580156101a1573d5f803e3d5ffd5b505050506040513d601f19601f820116820180604052508101906101c59190610984565b90508082111561020a576040517f08c379a000000000000000000000000000000000000000000000000000000000815260040161020190610a57565b60405180910390fd5b8160035f3273ffffffffffffffffffffffffffffffffffffffff1673ffffffffffffffffffffffffffffffffffffffff1681526020019081526020015f20819055505f85324260405160200161026293929190610b14565b604051602081830303815290604052805190602001209050806005819055506040518060a001604052803373ffffffffffffffffffffffffffffffffffffffff1681526020015f801b81526020018481526020015f60018111156102c9576102c8610b4c565b5b81526020016001151581525060045f8381526020019081526020015f205f820151815f015f6101000a81548173ffffffffffffffffffffffffffffffffffffffff021916908373ffffffffffffffffffffffffffffffffffffffff16021790555060208201518160010155604082015181600201556060820151816003015f6101000a81548160ff0219169083600181111561036857610367610b4c565b5b021790555060808201518160030160016101000a81548160ff021916908315150217905550905050803373ffffffffffffffffffffffffffffffffffffffff167f6bb09798f64ec0b0dbfefcc9c215ca4813a205c4f6419d85056e5a5c684099745f801b5f878b6040516103df9493929190610c1e565b60405180910390a350505050505050610c68565b5f604051905090565b5f80fd5b5f80fd5b5f80fd5b5f80fd5b5f601f19601f8301169050919050565b7f4e487b71000000000000000000000000000000000000000000000000000000005f52604160045260245ffd5b6104528261040c565b810181811067ffffffffffffffff821117156104715761047061041c565b5b80604052505050565b5f6104836103f3565b905061048f8282610449565b919050565b5f67ffffffffffffffff8211156104ae576104ad61041c565b5b6104b78261040c565b9050602081019050919050565b8281835e5f83830152505050565b5f6104e46104df84610494565b61047a565b905082815260208101848484011115610500576104ff610408565b5b61050b8482856104c4565b509392505050565b5f82601f83011261052757610526610404565b5b81516105378482602086016104d2565b91505092915050565b5f8115159050919050565b61055481610540565b811461055e575f80fd5b50565b5f8151905061056f8161054b565b92915050565b5f73ffffffffffffffffffffffffffffffffffffffff82169050919050565b5f61059e82610575565b9050919050565b6105ae81610594565b81146105b8575f80fd5b50565b5f815190506105c9816105a5565b92915050565b5f819050919050565b6105e1816105cf565b81146105eb575f80fd5b50565b5f815190506105fc816105d8565b92915050565b5f805f805f60a0868803121561061b5761061a6103fc565b5b5f86015167ffffffffffffffff81111561063857610637610400565b5b61064488828901610513565b955050602086015167ffffffffffffffff81111561066557610664610400565b5b61067188828901610513565b945050604061068288828901610561565b9350506060610693888289016105bb565b92505060806106a4888289016105ee565b9150509295509295909350565b5f81519050919050565b7f4e487b71000000000000000000000000000000000000000000000000000000005f52602260045260245ffd5b5f60028204905060018216806106ff57607f821691505b602082108103610712576107116106bb565b5b50919050565b5f819050815f5260205f209050919050565b5f6020601f8301049050919050565b5f82821b905092915050565b5f600883026107747fffffffffffffffffffffffffffffffffffffffffffffffffffffffffffffffff82610739565b61077e8683610739565b95508019841693508086168417925050509392505050565b5f819050919050565b5f6107b96107b46107af846105cf565b610796565b6105cf565b9050919050565b5f819050919050565b6107d28361079f565b6107e66107de826107c0565b848454610745565b825550505050565b5f90565b6107fa6107ee565b6108058184846107c9565b505050565b5b818110156108285761081d5f826107f2565b60018101905061080b565b5050565b601f82111561086d5761083e81610718565b6108478461072a565b81016020851015610856578190505b61086a6108628561072a565b83018261080a565b50505b505050565b5f82821c905092915050565b5f61088d5f1984600802610872565b1980831691505092915050565b5f6108a5838361087e565b9150826002028217905092915050565b6108be826106b1565b67ffffffffffffffff8111156108d7576108d661041c565b5b6108e182546106e8565b6108ec82828561082c565b5f60209050601f83116001811461091d575f841561090b578287015190505b610915858261089a565b86555061097c565b601f19841661092b86610718565b5f5b828110156109525784890151825560018201915060208501945060208101905061092d565b8683101561096f578489015161096b601f89168261087e565b8355505b6001600288020188555050505b505050505050565b5f60208284031215610999576109986103fc565b5b5f6109a6848285016105ee565b91505092915050565b6109b881610594565b82525050565b5f6020820190506109d15f8301846109af565b92915050565b5f82825260208201905092915050565b7f4e6f7420656e6f75676820766f74696e6720706f77657220666f7220726f6f745f8201527f2061726700000000000000000000000000000000000000000000000000000000602082015250565b5f610a416024836109d7565b9150610a4c826109e7565b604082019050919050565b5f6020820190508181035f830152610a6e81610a35565b9050919050565b5f81905092915050565b5f610a89826106b1565b610a938185610a75565b9350610aa38185602086016104c4565b80840191505092915050565b5f8160601b9050919050565b5f610ac582610aaf565b9050919050565b5f610ad682610abb565b9050919050565b610aee610ae982610594565b610acc565b82525050565b5f819050919050565b610b0e610b09826105cf565b610af4565b82525050565b5f610b1f8286610a7f565b9150610b2b8285610add565b601482019150610b3b8284610afd565b602082019150819050949350505050565b7f4e487b71000000000000000000000000000000000000000000000000000000005f52602160045260245ffd5b5f819050919050565b610b8b81610b79565b82525050565b60028110610ba257610ba1610b4c565b5b50565b5f819050610bb282610b91565b919050565b5f610bc182610ba5565b9050919050565b610bd181610bb7565b82525050565b610be0816105cf565b82525050565b5f610bf0826106b1565b610bfa81856109d7565b9350610c0a8185602086016104c4565b610c138161040c565b840191505092915050565b5f608082019050610c315f830187610b82565b610c3e6020830186610bc8565b610c4b6040830185610bd7565b8181036060830152610c5d8184610be6565b905095945050505050565b61109b80610c755f395ff3fe608060405234801561000f575f80fd5b5060043610610086575f3560e01c8063b3730ed911610059578063b3730ed914610112578063d94c8caa14610130578063edf0f34e1461014e578063fc0c546a1461018257610086565b80634a79d50c1461008a5780637e7505ff146100a85780639008f268146100c457806395cddd1e146100f4575b5f80fd5b6100926101a0565b60405161009f919061083e565b60405180910390f35b6100c260048036038101906100bd9190610a24565b61022b565b005b6100de60048036038101906100d99190610afe565b61070a565b6040516100eb9190610b38565b60405180910390f35b6100fc61071f565b6040516101099190610b60565b60405180910390f35b61011a610728565b6040516101279190610b93565b60405180910390f35b61013861073a565b6040516101459190610b38565b60405180910390f35b61016860048036038101906101639190610bac565b610740565b604051610179959493929190610c59565b60405180910390f35b61018a6107aa565b6040516101979190610caa565b60405180910390f35b5f80546101ac90610cf0565b80601f01602080910402602001604051908101604052809291908181526020018280546101d890610cf0565b80156102235780601f106101fa57610100808354040283529160200191610223565b820191905f5260205f20905b81548152906001019060200180831161020657829003601f168201915b505050505081565b60045f8481526020019081526020015f2060030160019054906101000a900460ff1661028c576040517f08c379a000000000000000000000000000000000000000000000000000000000815260040161028390610d6a565b60405180910390fd5b5f60045f8581526020019081526020015f206040518060a00160405290815f82015f9054906101000a900473ffffffffffffffffffffffffffffffffffffffff1673ffffffffffffffffffffffffffffffffffffffff1673ffffffffffffffffffffffffffffffffffffffff1681526020016001820154815260200160028201548152602001600382015f9054906101000a900460ff16600181111561033557610334610be6565b5b600181111561034757610346610be6565b5b81526020016003820160019054906101000a900460ff161515151581525050905060015f9054906101000a900460ff1615801561038957505f801b8160200151145b156103f5575f60018111156103a1576103a0610be6565b5b8360018111156103b4576103b3610be6565b5b146103f4576040517f08c379a00000000000000000000000000000000000000000000000000000000081526004016103eb90610df8565b60405180910390fd5b5b5f60035f3373ffffffffffffffffffffffffffffffffffffffff1673ffffffffffffffffffffffffffffffffffffffff1681526020019081526020015f205490505f60018054906101000a900473ffffffffffffffffffffffffffffffffffffffff1673ffffffffffffffffffffffffffffffffffffffff16633a46b1a8336002546040518363ffffffff1660e01b8152600401610494929190610e16565b602060405180830381865afa1580156104af573d5f803e3d5ffd5b505050506040513d601f19601f820116820180604052508101906104d39190610e51565b90508084836104e29190610ea9565b1115610523576040517f08c379a000000000000000000000000000000000000000000000000000000000815260040161051a90610f26565b60405180910390fd5b838261052f9190610ea9565b60035f3373ffffffffffffffffffffffffffffffffffffffff1673ffffffffffffffffffffffffffffffffffffffff1681526020019081526020015f20819055505f87334260405160200161058693929190610fe3565b6040516020818303038152906040528051906020012090506040518060a001604052803373ffffffffffffffffffffffffffffffffffffffff1681526020018881526020018681526020018760018111156105e4576105e3610be6565b5b81526020016001151581525060045f8381526020019081526020015f205f820151815f015f6101000a81548173ffffffffffffffffffffffffffffffffffffffff021916908373ffffffffffffffffffffffffffffffffffffffff16021790555060208201518160010155604082015181600201556060820151816003015f6101000a81548160ff0219169083600181111561068357610682610be6565b5b021790555060808201518160030160016101000a81548160ff021916908315150217905550905050803373ffffffffffffffffffffffffffffffffffffffff167f6bb09798f64ec0b0dbfefcc9c215ca4813a205c4f6419d85056e5a5c684099748989898d6040516106f8949392919061101b565b60405180910390a35050505050505050565b6003602052805f5260405f205f915090505481565b5f600554905090565b60015f9054906101000a900460ff1681565b60025481565b6004602052805f5260405f205f91509050805f015f9054906101000a900473ffffffffffffffffffffffffffffffffffffffff1690806001015490806002015490806003015f9054906101000a900460ff16908060030160019054906101000a900460ff16905085565b60018054906101000a900473ffffffffffffffffffffffffffffffffffffffff1681565b5f81519050919050565b5f82825260208201905092915050565b8281835e5f83830152505050565b5f601f19601f8301169050919050565b5f610810826107ce565b61081a81856107d8565b935061082a8185602086016107e8565b610833816107f6565b840191505092915050565b5f6020820190508181035f8301526108568184610806565b905092915050565b5f604051905090565b5f80fd5b5f80fd5b5f80fd5b5f80fd5b7f4e487b71000000000000000000000000000000000000000000000000000000005f52604160045260245ffd5b6108ad826107f6565b810181811067ffffffffffffffff821117156108cc576108cb610877565b5b80604052505050565b5f6108de61085e565b90506108ea82826108a4565b919050565b5f67ffffffffffffffff82111561090957610908610877565b5b610912826107f6565b9050602081019050919050565b828183375f83830152505050565b5f61093f61093a846108ef565b6108d5565b90508281526020810184848401111561095b5761095a610873565b5b61096684828561091f565b509392505050565b5f82601f8301126109825761098161086f565b5b813561099284826020860161092d565b91505092915050565b5f819050919050565b6109ad8161099b565b81146109b7575f80fd5b50565b5f813590506109c8816109a4565b92915050565b600281106109da575f80fd5b50565b5f813590506109eb816109ce565b92915050565b5f819050919050565b610a03816109f1565b8114610a0d575f80fd5b50565b5f81359050610a1e816109fa565b92915050565b5f805f8060808587031215610a3c57610a3b610867565b5b5f85013567ffffffffffffffff811115610a5957610a5861086b565b5b610a658782880161096e565b9450506020610a76878288016109ba565b9350506040610a87878288016109dd565b9250506060610a9887828801610a10565b91505092959194509250565b5f73ffffffffffffffffffffffffffffffffffffffff82169050919050565b5f610acd82610aa4565b9050919050565b610add81610ac3565b8114610ae7575f80fd5b50565b5f81359050610af881610ad4565b92915050565b5f60208284031215610b1357610b12610867565b5b5f610b2084828501610aea565b91505092915050565b610b32816109f1565b82525050565b5f602082019050610b4b5f830184610b29565b92915050565b610b5a8161099b565b82525050565b5f602082019050610b735f830184610b51565b92915050565b5f8115159050919050565b610b8d81610b79565b82525050565b5f602082019050610ba65f830184610b84565b92915050565b5f60208284031215610bc157610bc0610867565b5b5f610bce848285016109ba565b91505092915050565b610be081610ac3565b82525050565b7f4e487b71000000000000000000000000000000000000000000000000000000005f52602160045260245ffd5b60028110610c2457610c23610be6565b5b50565b5f819050610c3482610c13565b919050565b5f610c4382610c27565b9050919050565b610c5381610c39565b82525050565b5f60a082019050610c6c5f830188610bd7565b610c796020830187610b51565b610c866040830186610b29565b610c936060830185610c4a565b610ca06080830184610b84565b9695505050505050565b5f602082019050610cbd5f830184610bd7565b92915050565b7f4e487b71000000000000000000000000000000000000000000000000000000005f52602260045260245ffd5b5f6002820490506001821680610d0757607f821691505b602082108103610d1a57610d19610cc3565b5b50919050565b7f506172656e7420646f6573206e6f7420657869737400000000000000000000005f82015250565b5f610d546015836107d8565b9150610d5f82610d20565b602082019050919050565b5f6020820190508181035f830152610d8181610d48565b9050919050565b7f467265652d666f722d616c6c2064656261746520686173206e6f20636f6e20615f8201527f7420746f70206c6576656c000000000000000000000000000000000000000000602082015250565b5f610de2602b836107d8565b9150610ded82610d88565b604082019050919050565b5f6020820190508181035f830152610e0f81610dd6565b9050919050565b5f604082019050610e295f830185610bd7565b610e366020830184610b29565b9392505050565b5f81519050610e4b816109fa565b92915050565b5f60208284031215610e6657610e65610867565b5b5f610e7384828501610e3d565b91505092915050565b7f4e487b71000000000000000000000000000000000000000000000000000000005f52601160045260245ffd5b5f610eb3826109f1565b9150610ebe836109f1565b9250828201905080821115610ed657610ed5610e7c565b5b92915050565b7f4e6f7420656e6f75676820766f74696e6720706f776572206c656674000000005f82015250565b5f610f10601c836107d8565b9150610f1b82610edc565b602082019050919050565b5f6020820190508181035f830152610f3d81610f04565b9050919050565b5f81905092915050565b5f610f58826107ce565b610f628185610f44565b9350610f728185602086016107e8565b80840191505092915050565b5f8160601b9050919050565b5f610f9482610f7e565b9050919050565b5f610fa582610f8a565b9050919050565b610fbd610fb882610ac3565b610f9b565b82525050565b5f819050919050565b610fdd610fd8826109f1565b610fc3565b82525050565b5f610fee8286610f4e565b9150610ffa8285610fac565b60148201915061100a8284610fcc565b602082019150819050949350505050565b5f60808201905061102e5f830187610b51565b61103b6020830186610c4a565b6110486040830185610b29565b818103606083015261105a8184610806565b90509594505050505056fea2646970667358221220bf3c740fcff2674154ba9436dc5d1ec3dc94db368fc8ca2702fd851e07c265fa64736f6c634300081a0033",
					"opcodes": "PUSH1 0x80 PUSH1 0x40 MSTORE CALLVALUE DUP1 ISZERO PUSH2 0xF JUMPI PUSH0 DUP1 REVERT JUMPDEST POP PUSH1 0x40 MLOAD PUSH2 0x1D10 CODESIZE SUB DUP1 PUSH2 0x1D10 DUP4 CODECOPY DUP2 DUP2 ADD PUSH1 0x40 MSTORE DUP2 ADD SWAP1 PUSH2 0x31 SWAP2 SWAP1 PUSH2 0x602 JUMP JUMPDEST DUP5 PUSH0 SWAP1 DUP2 PUSH2 0x3F SWAP2 SWAP1 PUSH2 0x8B5 JUMP JUMPDEST POP DUP3 PUSH1 0x1 PUSH0 PUSH2 0x100 EXP DUP2 SLOAD DUP2 PUSH1 0xFF MUL NOT AND SWAP1 DUP4 ISZERO ISZERO MUL OR SWAP1 SSTORE POP DUP2 PUSH1 0x1 DUP1 PUSH2 0x100 EXP DUP2 SLOAD DUP2 PUSH20 0xFFFFFFFFFFFFFFFFFFFFFFFFFFFFFFFFFFFFFFFF MUL NOT AND SWAP1 DUP4 PUSH20 0xFFFFFFFFFFFFFFFFFFFFFFFFFFFFFFFFFFFFFFFF AND MUL OR SWAP1 SSTORE POP PUSH1 0x1 DUP1 SLOAD SWAP1 PUSH2 0x100 EXP SWAP1 DIV PUSH20 0xFFFFFFFFFFFFFFFFFFFFFFFFFFFFFFFFFFFFFFFF AND PUSH20 0xFFFFFFFFFFFFFFFFFFFFFFFFFFFFFFFFFFFFFFFF AND PUSH4 0x91DDADF4 PUSH1 0x40 MLOAD DUP2 PUSH4 0xFFFFFFFF AND PUSH1 0xE0 SHL DUP2 MSTORE PUSH1 0x4 ADD PUSH1 0x20 PUSH1 0x40 MLOAD DUP1 DUP4 SUB DUP2 DUP7 GAS STATICCALL ISZERO DUP1 ISZERO PUSH2 0x102 JUMPI RETURNDATASIZE PUSH0 DUP1 RETURNDATACOPY RETURNDATASIZE PUSH0 REVERT JUMPDEST POP POP POP POP PUSH1 0x40 MLOAD RETURNDATASIZE PUSH1 0x1F NOT PUSH1 0x1F DUP3 ADD AND DUP3 ADD DUP1 PUSH1 0x40 MSTORE POP DUP2 ADD SWAP1 PUSH2 0x126 SWAP2 SWAP1 PUSH2 0x984 JUMP JUMPDEST PUSH1 0x2 DUP2 SWAP1 SSTORE POP PUSH0 PUSH1 0x1 DUP1 SLOAD SWAP1 PUSH2 0x100 EXP SWAP1 DIV PUSH20 0xFFFFFFFFFFFFFFFFFFFFFFFFFFFFFFFFFFFFFFFF AND PUSH20 0xFFFFFFFFFFFFFFFFFFFFFFFFFFFFFFFFFFFFFFFF AND PUSH4 0x9AB24EB0 ORIGIN PUSH1 0x40 MLOAD DUP3 PUSH4 0xFFFFFFFF AND PUSH1 0xE0 SHL DUP2 MSTORE PUSH1 0x4 ADD PUSH2 0x186 SWAP2 SWAP1 PUSH2 0x9BE JUMP JUMPDEST PUSH1 0x20 PUSH1 0x40 MLOAD DUP1 DUP4 SUB DUP2 DUP7 GAS STATICCALL ISZERO DUP1 ISZERO PUSH2 0x1A1 JUMPI RETURNDATASIZE PUSH0 DUP1 RETURNDATACOPY RETURNDATASIZE PUSH0 REVERT JUMPDEST POP POP POP POP PUSH1 0x40 MLOAD RETURNDATASIZE PUSH1 0x1F NOT PUSH1 0x1F DUP3 ADD AND DUP3 ADD DUP1 PUSH1 0x40 MSTORE POP DUP2 ADD SWAP1 PUSH2 0x1C5 SWAP2 SWAP1 PUSH2 0x984 JUMP JUMPDEST SWAP1 POP DUP1 DUP3 GT ISZERO PUSH2 0x20A JUMPI PUSH1 0x40 MLOAD PUSH32 0x8C379A000000000000000000000000000000000000000000000000000000000 DUP2 MSTORE PUSH1 0x4 ADD PUSH2 0x201 SWAP1 PUSH2 0xA57 JUMP JUMPDEST PUSH1 0x40 MLOAD DUP1 SWAP2 SUB SWAP1 REVERT JUMPDEST DUP2 PUSH1 0x3 PUSH0 ORIGIN PUSH20 0xFFFFFFFFFFFFFFFFFFFFFFFFFFFFFFFFFFFFFFFF AND PUSH20 0xFFFFFFFFFFFFFFFFFFFFFFFFFFFFFFFFFFFFFFFF AND DUP2 MSTORE PUSH1 0x20 ADD SWAP1 DUP2 MSTORE PUSH1 0x20 ADD PUSH0 KECCAK256 DUP2 SWAP1 SSTORE POP PUSH0 DUP6 ORIGIN TIMESTAMP PUSH1 0x40 MLOAD PUSH1 0x20 ADD PUSH2 0x262 SWAP4 SWAP3 SWAP2 SWAP1 PUSH2 0xB14 JUMP JUMPDEST PUSH1 0x40 MLOAD PUSH1 0x20 DUP2 DUP4 SUB SUB DUP2 MSTORE SWAP1 PUSH1 0x40 MSTORE DUP1 MLOAD SWAP1 PUSH1 0x20 ADD KECCAK256 SWAP1 POP DUP1 PUSH1 0x5 DUP2 SWAP1 SSTORE POP PUSH1 0x40 MLOAD DUP1 PUSH1 0xA0 ADD PUSH1 0x40 MSTORE DUP1 CALLER PUSH20 0xFFFFFFFFFFFFFFFFFFFFFFFFFFFFFFFFFFFFFFFF AND DUP2 MSTORE PUSH1 0x20 ADD PUSH0 DUP1 SHL DUP2 MSTORE PUSH1 0x20 ADD DUP5 DUP2 MSTORE PUSH1 0x20 ADD PUSH0 PUSH1 0x1 DUP2 GT ISZERO PUSH2 0x2C9 JUMPI PUSH2 0x2C8 PUSH2 0xB4C JUMP JUMPDEST JUMPDEST DUP2 MSTORE PUSH1 0x20 ADD PUSH1 0x1 ISZERO ISZERO DUP2 MSTORE POP PUSH1 0x4 PUSH0 DUP4 DUP2 MSTORE PUSH1 0x20 ADD SWAP1 DUP2 MSTORE PUSH1 0x20 ADD PUSH0 KECCAK256 PUSH0 DUP3 ADD MLOAD DUP2 PUSH0 ADD PUSH0 PUSH2 0x100 EXP DUP2 SLOAD DUP2 PUSH20 0xFFFFFFFFFFFFFFFFFFFFFFFFFFFFFFFFFFFFFFFF MUL NOT AND SWAP1 DUP4 PUSH20 0xFFFFFFFFFFFFFFFFFFFFFFFFFFFFFFFFFFFFFFFF AND MUL OR SWAP1 SSTORE POP PUSH1 0x20 DUP3 ADD MLOAD DUP2 PUSH1 0x1 ADD SSTORE PUSH1 0x40 DUP3 ADD MLOAD DUP2 PUSH1 0x2 ADD SSTORE PUSH1 0x60 DUP3 ADD MLOAD DUP2 PUSH1 0x3 ADD PUSH0 PUSH2 0x100 EXP DUP2 SLOAD DUP2 PUSH1 0xFF MUL NOT AND SWAP1 DUP4 PUSH1 0x1 DUP2 GT ISZERO PUSH2 0x368 JUMPI PUSH2 0x367 PUSH2 0xB4C JUMP JUMPDEST JUMPDEST MUL OR SWAP1 SSTORE POP PUSH1 0x80 DUP3 ADD MLOAD DUP2 PUSH1 0x3 ADD PUSH1 0x1 PUSH2 0x100 EXP DUP2 SLOAD DUP2 PUSH1 0xFF MUL NOT AND SWAP1 DUP4 ISZERO ISZERO MUL OR SWAP1 SSTORE POP SWAP1 POP POP DUP1 CALLER PUSH20 0xFFFFFFFFFFFFFFFFFFFFFFFFFFFFFFFFFFFFFFFF AND PUSH32 0x6BB09798F64EC0B0DBFEFCC9C215CA4813A205C4F6419D85056E5A5C68409974 PUSH0 DUP1 SHL PUSH0 DUP8 DUP12 PUSH1 0x40 MLOAD PUSH2 0x3DF SWAP5 SWAP4 SWAP3 SWAP2 SWAP1 PUSH2 0xC1E JUMP JUMPDEST PUSH1 0x40 MLOAD DUP1 SWAP2 SUB SWAP1 LOG3 POP POP POP POP POP POP POP PUSH2 0xC68 JUMP JUMPDEST PUSH0 PUSH1 0x40 MLOAD SWAP1 POP SWAP1 JUMP JUMPDEST PUSH0 DUP1 REVERT JUMPDEST PUSH0 DUP1 REVERT JUMPDEST PUSH0 DUP1 REVERT JUMPDEST PUSH0 DUP1 REVERT JUMPDEST PUSH0 PUSH1 0x1F NOT PUSH1 0x1F DUP4 ADD AND SWAP1 POP SWAP2 SWAP1 POP JUMP JUMPDEST PUSH32 0x4E487B7100000000000000000000000000000000000000000000000000000000 PUSH0 MSTORE PUSH1 0x41 PUSH1 0x4 MSTORE PUSH1 0x24 PUSH0 REVERT JUMPDEST PUSH2 0x452 DUP3 PUSH2 0x40C JUMP JUMPDEST DUP2 ADD DUP2 DUP2 LT PUSH8 0xFFFFFFFFFFFFFFFF DUP3 GT OR ISZERO PUSH2 0x471 JUMPI PUSH2 0x470 PUSH2 0x41C JUMP JUMPDEST JUMPDEST DUP1 PUSH1 0x40 MSTORE POP POP POP JUMP JUMPDEST PUSH0 PUSH2 0x483 PUSH2 0x3F3 JUMP JUMPDEST SWAP1 POP PUSH2 0x48F DUP3 DUP3 PUSH2 0x449 JUMP JUMPDEST SWAP2 SWAP1 POP JUMP JUMPDEST PUSH0 PUSH8 0xFFFFFFFFFFFFFFFF DUP3 GT ISZERO PUSH2 0x4AE JUMPI PUSH2 0x4AD PUSH2 0x41C JUMP JUMPDEST JUMPDEST PUSH2 0x4B7 DUP3 PUSH2 0x40C JUMP JUMPDEST SWAP1 POP PUSH1 0x20 DUP2 ADD SWAP1 POP SWAP2 SWAP1 POP JUMP JUMPDEST DUP3 DUP2 DUP4 MCOPY PUSH0 DUP4 DUP4 ADD MSTORE POP POP POP JUMP JUMPDEST PUSH0 PUSH2 0x4E4 PUSH2 0x4DF DUP5 PUSH2 0x494 JUMP JUMPDEST PUSH2 0x47A JUMP JUMPDEST SWAP1 POP DUP3 DUP2 MSTORE PUSH1 0x20 DUP2 ADD DUP5 DUP5 DUP5 ADD GT ISZERO PUSH2 0x500 JUMPI PUSH2 0x4FF PUSH2 0x408 JUMP JUMPDEST JUMPDEST PUSH2 0x50B DUP5 DUP3 DUP6 PUSH2 0x4C4 JUMP JUMPDEST POP SWAP4 SWAP3 POP POP POP JUMP JUMPDEST PUSH0 DUP3 PUSH1 0x1F DUP4 ADD SLT PUSH2 0x527 JUMPI PUSH2 0x526 PUSH2 0x404 JUMP JUMPDEST JUMPDEST DUP2 MLOAD PUSH2 0x537 DUP5 DUP3 PUSH1 0x20 DUP7 ADD PUSH2 0x4D2 JUMP JUMPDEST SWAP2 POP POP SWAP3 SWAP2 POP POP JUMP JUMPDEST PUSH0 DUP2 ISZERO ISZERO SWAP1 POP SWAP2 SWAP1 POP JUMP JUMPDEST PUSH2 0x554 DUP2 PUSH2 0x540 JUMP JUMPDEST DUP2 EQ PUSH2 0x55E JUMPI PUSH0 DUP1 REVERT JUMPDEST POP JUMP JUMPDEST PUSH0 DUP2 MLOAD SWAP1 POP PUSH2 0x56F DUP2 PUSH2 0x54B JUMP JUMPDEST SWAP3 SWAP2 POP POP JUMP JUMPDEST PUSH0 PUSH20 0xFFFFFFFFFFFFFFFFFFFFFFFFFFFFFFFFFFFFFFFF DUP3 AND SWAP1 POP SWAP2 SWAP1 POP JUMP JUMPDEST PUSH0 PUSH2 0x59E DUP3 PUSH2 0x575 JUMP JUMPDEST SWAP1 POP SWAP2 SWAP1 POP JUMP JUMPDEST PUSH2 0x5AE DUP2 PUSH2 0x594 JUMP JUMPDEST DUP2 EQ PUSH2 0x5B8 JUMPI PUSH0 DUP1 REVERT JUMPDEST POP JUMP JUMPDEST PUSH0 DUP2 MLOAD SWAP1 POP PUSH2 0x5C9 DUP2 PUSH2 0x5A5 JUMP JUMPDEST SWAP3 SWAP2 POP POP JUMP JUMPDEST PUSH0 DUP2 SWAP1 POP SWAP2 SWAP1 POP JUMP JUMPDEST PUSH2 0x5E1 DUP2 PUSH2 0x5CF JUMP JUMPDEST DUP2 EQ PUSH2 0x5EB JUMPI PUSH0 DUP1 REVERT JUMPDEST POP JUMP JUMPDEST PUSH0 DUP2 MLOAD SWAP1 POP PUSH2 0x5FC DUP2 PUSH2 0x5D8 JUMP JUMPDEST SWAP3 SWAP2 POP POP JUMP JUMPDEST PUSH0 DUP1 PUSH0 DUP1 PUSH0 PUSH1 0xA0 DUP7 DUP9 SUB SLT ISZERO PUSH2 0x61B JUMPI PUSH2 0x61A PUSH2 0x3FC JUMP JUMPDEST JUMPDEST PUSH0 DUP7 ADD MLOAD PUSH8 0xFFFFFFFFFFFFFFFF DUP2 GT ISZERO PUSH2 0x638 JUMPI PUSH2 0x637 PUSH2 0x400 JUMP JUMPDEST JUMPDEST PUSH2 0x644 DUP9 DUP3 DUP10 ADD PUSH2 0x513 JUMP JUMPDEST SWAP6 POP POP PUSH1 0x20 DUP7 ADD MLOAD PUSH8 0xFFFFFFFFFFFFFFFF DUP2 GT ISZERO PUSH2 0x665 JUMPI PUSH2 0x664 PUSH2 0x400 JUMP JUMPDEST JUMPDEST PUSH2 0x671 DUP9 DUP3 DUP10 ADD PUSH2 0x513 JUMP JUMPDEST SWAP5 POP POP PUSH1 0x40 PUSH2 0x682 DUP9 DUP3 DUP10 ADD PUSH2 0x561 JUMP JUMPDEST SWAP4 POP POP PUSH1 0x60 PUSH2 0x693 DUP9 DUP3 DUP10 ADD PUSH2 0x5BB JUMP JUMPDEST SWAP3 POP POP PUSH1 0x80 PUSH2 0x6A4 DUP9 DUP3 DUP10 ADD PUSH2 0x5EE JUMP JUMPDEST SWAP2 POP POP SWAP3 SWAP6 POP SWAP3 SWAP6 SWAP1 SWAP4 POP JUMP JUMPDEST PUSH0 DUP2 MLOAD SWAP1 POP SWAP2 SWAP1 POP JUMP JUMPDEST PUSH32 0x4E487B7100000000000000000000000000000000000000000000000000000000 PUSH0 MSTORE PUSH1 0x22 PUSH1 0x4 MSTORE PUSH1 0x24 PUSH0 REVERT JUMPDEST PUSH0 PUSH1 0x2 DUP3 DIV SWAP1 POP PUSH1 0x1 DUP3 AND DUP1 PUSH2 0x6FF JUMPI PUSH1 0x7F DUP3 AND SWAP2 POP JUMPDEST PUSH1 0x20 DUP3 LT DUP2 SUB PUSH2 0x712 JUMPI PUSH2 0x711 PUSH2 0x6BB JUMP JUMPDEST JUMPDEST POP SWAP2 SWAP1 POP JUMP JUMPDEST PUSH0 DUP2 SWAP1 POP DUP2 PUSH0 MSTORE PUSH1 0x20 PUSH0 KECCAK256 SWAP1 POP SWAP2 SWAP1 POP JUMP JUMPDEST PUSH0 PUSH1 0x20 PUSH1 0x1F DUP4 ADD DIV SWAP1 POP SWAP2 SWAP1 POP JUMP JUMPDEST PUSH0 DUP3 DUP3 SHL SWAP1 POP SWAP3 SWAP2 POP POP JUMP JUMPDEST PUSH0 PUSH1 0x8 DUP4 MUL PUSH2 0x774 PUSH32 0xFFFFFFFFFFFFFFFFFFFFFFFFFFFFFFFFFFFFFFFFFFFFFFFFFFFFFFFFFFFFFFFF DUP3 PUSH2 0x739 JUMP JUMPDEST PUSH2 0x77E DUP7 DUP4 PUSH2 0x739 JUMP JUMPDEST SWAP6 POP DUP1 NOT DUP5 AND SWAP4 POP DUP1 DUP7 AND DUP5 OR SWAP3 POP POP POP SWAP4 SWAP3 POP POP POP JUMP JUMPDEST PUSH0 DUP2 SWAP1 POP SWAP2 SWAP1 POP JUMP JUMPDEST PUSH0 PUSH2 0x7B9 PUSH2 0x7B4 PUSH2 0x7AF DUP5 PUSH2 0x5CF JUMP JUMPDEST PUSH2 0x796 JUMP JUMPDEST PUSH2 0x5CF JUMP JUMPDEST SWAP1 POP SWAP2 SWAP1 POP JUMP JUMPDEST PUSH0 DUP2 SWAP1 POP SWAP2 SWAP1 POP JUMP JUMPDEST PUSH2 0x7D2 DUP4 PUSH2 0x79F JUMP JUMPDEST PUSH2 0x7E6 PUSH2 0x7DE DUP3 PUSH2 0x7C0 JUMP JUMPDEST DUP5 DUP5 SLOAD PUSH2 0x745 JUMP JUMPDEST DUP3 SSTORE POP POP POP POP JUMP JUMPDEST PUSH0 SWAP1 JUMP JUMPDEST PUSH2 0x7FA PUSH2 0x7EE JUMP JUMPDEST PUSH2 0x805 DUP2 DUP5 DUP5 PUSH2 0x7C9 JUMP JUMPDEST POP POP POP JUMP JUMPDEST JUMPDEST DUP2 DUP2 LT ISZERO PUSH2 0x828 JUMPI PUSH2 0x81D PUSH0 DUP3 PUSH2 0x7F2 JUMP JUMPDEST PUSH1 0x1 DUP2 ADD SWAP1 POP PUSH2 0x80B JUMP JUMPDEST POP POP JUMP JUMPDEST PUSH1 0x1F DUP3 GT ISZERO PUSH2 0x86D JUMPI PUSH2 0x83E DUP2 PUSH2 0x718 JUMP JUMPDEST PUSH2 0x847 DUP5 PUSH2 0x72A JUMP JUMPDEST DUP2 ADD PUSH1 0x20 DUP6 LT ISZERO PUSH2 0x856 JUMPI DUP2 SWAP1 POP JUMPDEST PUSH2 0x86A PUSH2 0x862 DUP6 PUSH2 0x72A JUMP JUMPDEST DUP4 ADD DUP3 PUSH2 0x80A JUMP JUMPDEST POP POP JUMPDEST POP POP POP JUMP JUMPDEST PUSH0 DUP3 DUP3 SHR SWAP1 POP SWAP3 SWAP2 POP POP JUMP JUMPDEST PUSH0 PUSH2 0x88D PUSH0 NOT DUP5 PUSH1 0x8 MUL PUSH2 0x872 JUMP JUMPDEST NOT DUP1 DUP4 AND SWAP2 POP POP SWAP3 SWAP2 POP POP JUMP JUMPDEST PUSH0 PUSH2 0x8A5 DUP4 DUP4 PUSH2 0x87E JUMP JUMPDEST SWAP2 POP DUP3 PUSH1 0x2 MUL DUP3 OR SWAP1 POP SWAP3 SWAP2 POP POP JUMP JUMPDEST PUSH2 0x8BE DUP3 PUSH2 0x6B1 JUMP JUMPDEST PUSH8 0xFFFFFFFFFFFFFFFF DUP2 GT ISZERO PUSH2 0x8D7 JUMPI PUSH2 0x8D6 PUSH2 0x41C JUMP JUMPDEST JUMPDEST PUSH2 0x8E1 DUP3 SLOAD PUSH2 0x6E8 JUMP JUMPDEST PUSH2 0x8EC DUP3 DUP3 DUP6 PUSH2 0x82C JUMP JUMPDEST PUSH0 PUSH1 0x20 SWAP1 POP PUSH1 0x1F DUP4 GT PUSH1 0x1 DUP2 EQ PUSH2 0x91D JUMPI PUSH0 DUP5 ISZERO PUSH2 0x90B JUMPI DUP3 DUP8 ADD MLOAD SWAP1 POP JUMPDEST PUSH2 0x915 DUP6 DUP3 PUSH2 0x89A JUMP JUMPDEST DUP7 SSTORE POP PUSH2 0x97C JUMP JUMPDEST PUSH1 0x1F NOT DUP5 AND PUSH2 0x92B DUP7 PUSH2 0x718 JUMP JUMPDEST PUSH0 JUMPDEST DUP3 DUP2 LT ISZERO PUSH2 0x952 JUMPI DUP5 DUP10 ADD MLOAD DUP3 SSTORE PUSH1 0x1 DUP3 ADD SWAP2 POP PUSH1 0x20 DUP6 ADD SWAP5 POP PUSH1 0x20 DUP2 ADD SWAP1 POP PUSH2 0x92D JUMP JUMPDEST DUP7 DUP4 LT ISZERO PUSH2 0x96F JUMPI DUP5 DUP10 ADD MLOAD PUSH2 0x96B PUSH1 0x1F DUP10 AND DUP3 PUSH2 0x87E JUMP JUMPDEST DUP4 SSTORE POP JUMPDEST PUSH1 0x1 PUSH1 0x2 DUP9 MUL ADD DUP9 SSTORE POP POP POP JUMPDEST POP POP POP POP POP POP JUMP JUMPDEST PUSH0 PUSH1 0x20 DUP3 DUP5 SUB SLT ISZERO PUSH2 0x999 JUMPI PUSH2 0x998 PUSH2 0x3FC JUMP JUMPDEST JUMPDEST PUSH0 PUSH2 0x9A6 DUP5 DUP3 DUP6 ADD PUSH2 0x5EE JUMP JUMPDEST SWAP2 POP POP SWAP3 SWAP2 POP POP JUMP JUMPDEST PUSH2 0x9B8 DUP2 PUSH2 0x594 JUMP JUMPDEST DUP3 MSTORE POP POP JUMP JUMPDEST PUSH0 PUSH1 0x20 DUP3 ADD SWAP1 POP PUSH2 0x9D1 PUSH0 DUP4 ADD DUP5 PUSH2 0x9AF JUMP JUMPDEST SWAP3 SWAP2 POP POP JUMP JUMPDEST PUSH0 DUP3 DUP3 MSTORE PUSH1 0x20 DUP3 ADD SWAP1 POP SWAP3 SWAP2 POP POP JUMP JUMPDEST PUSH32 0x4E6F7420656E6F75676820766F74696E6720706F77657220666F7220726F6F74 PUSH0 DUP3 ADD MSTORE PUSH32 0x2061726700000000000000000000000000000000000000000000000000000000 PUSH1 0x20 DUP3 ADD MSTORE POP JUMP JUMPDEST PUSH0 PUSH2 0xA41 PUSH1 0x24 DUP4 PUSH2 0x9D7 JUMP JUMPDEST SWAP2 POP PUSH2 0xA4C DUP3 PUSH2 0x9E7 JUMP JUMPDEST PUSH1 0x40 DUP3 ADD SWAP1 POP SWAP2 SWAP1 POP JUMP JUMPDEST PUSH0 PUSH1 0x20 DUP3 ADD SWAP1 POP DUP2 DUP2 SUB PUSH0 DUP4 ADD MSTORE PUSH2 0xA6E DUP2 PUSH2 0xA35 JUMP JUMPDEST SWAP1 POP SWAP2 SWAP1 POP JUMP JUMPDEST PUSH0 DUP2 SWAP1 POP SWAP3 SWAP2 POP POP JUMP JUMPDEST PUSH0 PUSH2 0xA89 DUP3 PUSH2 0x6B1 JUMP JUMPDEST PUSH2 0xA93 DUP2 DUP6 PUSH2 0xA75 JUMP JUMPDEST SWAP4 POP PUSH2 0xAA3 DUP2 DUP6 PUSH1 0x20 DUP7 ADD PUSH2 0x4C4 JUMP JUMPDEST DUP1 DUP5 ADD SWAP2 POP POP SWAP3 SWAP2 POP POP JUMP JUMPDEST PUSH0 DUP2 PUSH1 0x60 SHL SWAP1 POP SWAP2 SWAP1 POP JUMP JUMPDEST PUSH0 PUSH2 0xAC5 DUP3 PUSH2 0xAAF JUMP JUMPDEST SWAP1 POP SWAP2 SWAP1 POP JUMP JUMPDEST PUSH0 PUSH2 0xAD6 DUP3 PUSH2 0xABB JUMP JUMPDEST SWAP1 POP SWAP2 SWAP1 POP JUMP JUMPDEST PUSH2 0xAEE PUSH2 0xAE9 DUP3 PUSH2 0x594 JUMP JUMPDEST PUSH2 0xACC JUMP JUMPDEST DUP3 MSTORE POP POP JUMP JUMPDEST PUSH0 DUP2 SWAP1 POP SWAP2 SWAP1 POP JUMP JUMPDEST PUSH2 0xB0E PUSH2 0xB09 DUP3 PUSH2 0x5CF JUMP JUMPDEST PUSH2 0xAF4 JUMP JUMPDEST DUP3 MSTORE POP POP JUMP JUMPDEST PUSH0 PUSH2 0xB1F DUP3 DUP7 PUSH2 0xA7F JUMP JUMPDEST SWAP2 POP PUSH2 0xB2B DUP3 DUP6 PUSH2 0xADD JUMP JUMPDEST PUSH1 0x14 DUP3 ADD SWAP2 POP PUSH2 0xB3B DUP3 DUP5 PUSH2 0xAFD JUMP JUMPDEST PUSH1 0x20 DUP3 ADD SWAP2 POP DUP2 SWAP1 POP SWAP5 SWAP4 POP POP POP POP JUMP JUMPDEST PUSH32 0x4E487B7100000000000000000000000000000000000000000000000000000000 PUSH0 MSTORE PUSH1 0x21 PUSH1 0x4 MSTORE PUSH1 0x24 PUSH0 REVERT JUMPDEST PUSH0 DUP2 SWAP1 POP SWAP2 SWAP1 POP JUMP JUMPDEST PUSH2 0xB8B DUP2 PUSH2 0xB79 JUMP JUMPDEST DUP3 MSTORE POP POP JUMP JUMPDEST PUSH1 0x2 DUP2 LT PUSH2 0xBA2 JUMPI PUSH2 0xBA1 PUSH2 0xB4C JUMP JUMPDEST JUMPDEST POP JUMP JUMPDEST PUSH0 DUP2 SWAP1 POP PUSH2 0xBB2 DUP3 PUSH2 0xB91 JUMP JUMPDEST SWAP2 SWAP1 POP JUMP JUMPDEST PUSH0 PUSH2 0xBC1 DUP3 PUSH2 0xBA5 JUMP JUMPDEST SWAP1 POP SWAP2 SWAP1 POP JUMP JUMPDEST PUSH2 0xBD1 DUP2 PUSH2 0xBB7 JUMP JUMPDEST DUP3 MSTORE POP POP JUMP JUMPDEST PUSH2 0xBE0 DUP2 PUSH2 0x5CF JUMP JUMPDEST DUP3 MSTORE POP POP JUMP JUMPDEST PUSH0 PUSH2 0xBF0 DUP3 PUSH2 0x6B1 JUMP JUMPDEST PUSH2 0xBFA DUP2 DUP6 PUSH2 0x9D7 JUMP JUMPDEST SWAP4 POP PUSH2 0xC0A DUP2 DUP6 PUSH1 0x20 DUP7 ADD PUSH2 0x4C4 JUMP JUMPDEST PUSH2 0xC13 DUP2 PUSH2 0x40C JUMP JUMPDEST DUP5 ADD SWAP2 POP POP SWAP3 SWAP2 POP POP JUMP JUMPDEST PUSH0 PUSH1 0x80 DUP3 ADD SWAP1 POP PUSH2 0xC31 PUSH0 DUP4 ADD DUP8 PUSH2 0xB82 JUMP JUMPDEST PUSH2 0xC3E PUSH1 0x20 DUP4 ADD DUP7 PUSH2 0xBC8 JUMP JUMPDEST PUSH2 0xC4B PUSH1 0x40 DUP4 ADD DUP6 PUSH2 0xBD7 JUMP JUMPDEST DUP2 DUP2 SUB PUSH1 0x60 DUP4 ADD MSTORE PUSH2 0xC5D DUP2 DUP5 PUSH2 0xBE6 JUMP JUMPDEST SWAP1 POP SWAP6 SWAP5 POP POP POP POP POP JUMP JUMPDEST PUSH2 0x109B DUP1 PUSH2 0xC75 PUSH0 CODECOPY PUSH0 RETURN INVALID PUSH1 0x80 PUSH1 0x40 MSTORE CALLVALUE DUP1 ISZERO PUSH2 0xF JUMPI PUSH0 DUP1 REVERT JUMPDEST POP PUSH1 0x4 CALLDATASIZE LT PUSH2 0x86 JUMPI PUSH0 CALLDATALOAD PUSH1 0xE0 SHR DUP1 PUSH4 0xB3730ED9 GT PUSH2 0x59 JUMPI DUP1 PUSH4 0xB3730ED9 EQ PUSH2 0x112 JUMPI DUP1 PUSH4 0xD94C8CAA EQ PUSH2 0x130 JUMPI DUP1 PUSH4 0xEDF0F34E EQ PUSH2 0x14E JUMPI DUP1 PUSH4 0xFC0C546A EQ PUSH2 0x182 JUMPI PUSH2 0x86 JUMP JUMPDEST DUP1 PUSH4 0x4A79D50C EQ PUSH2 0x8A JUMPI DUP1 PUSH4 0x7E7505FF EQ PUSH2 0xA8 JUMPI DUP1 PUSH4 0x9008F268 EQ PUSH2 0xC4 JUMPI DUP1 PUSH4 0x95CDDD1E EQ PUSH2 0xF4 JUMPI JUMPDEST PUSH0 DUP1 REVERT JUMPDEST PUSH2 0x92 PUSH2 0x1A0 JUMP JUMPDEST PUSH1 0x40 MLOAD PUSH2 0x9F SWAP2 SWAP1 PUSH2 0x83E JUMP JUMPDEST PUSH1 0x40 MLOAD DUP1 SWAP2 SUB SWAP1 RETURN JUMPDEST PUSH2 0xC2 PUSH1 0x4 DUP1 CALLDATASIZE SUB DUP2 ADD SWAP1 PUSH2 0xBD SWAP2 SWAP1 PUSH2 0xA24 JUMP JUMPDEST PUSH2 0x22B JUMP JUMPDEST STOP JUMPDEST PUSH2 0xDE PUSH1 0x4 DUP1 CALLDATASIZE SUB DUP2 ADD SWAP1 PUSH2 0xD9 SWAP2 SWAP1 PUSH2 0xAFE JUMP JUMPDEST PUSH2 0x70A JUMP JUMPDEST PUSH1 0x40 MLOAD PUSH2 0xEB SWAP2 SWAP1 PUSH2 0xB38 JUMP JUMPDEST PUSH1 0x40 MLOAD DUP1 SWAP2 SUB SWAP1 RETURN JUMPDEST PUSH2 0xFC PUSH2 0x71F JUMP JUMPDEST PUSH1 0x40 MLOAD PUSH2 0x109 SWAP2 SWAP1 PUSH2 0xB60 JUMP JUMPDEST PUSH1 0x40 MLOAD DUP1 SWAP2 SUB SWAP1 RETURN JUMPDEST PUSH2 0x11A PUSH2 0x728 JUMP JUMPDEST PUSH1 0x40 MLOAD PUSH2 0x127 SWAP2 SWAP1 PUSH2 0xB93 JUMP JUMPDEST PUSH1 0x40 MLOAD DUP1 SWAP2 SUB SWAP1 RETURN JUMPDEST PUSH2 0x138 PUSH2 0x73A JUMP JUMPDEST PUSH1 0x40 MLOAD PUSH2 0x145 SWAP2 SWAP1 PUSH2 0xB38 JUMP JUMPDEST PUSH1 0x40 MLOAD DUP1 SWAP2 SUB SWAP1 RETURN JUMPDEST PUSH2 0x168 PUSH1 0x4 DUP1 CALLDATASIZE SUB DUP2 ADD SWAP1 PUSH2 0x163 SWAP2 SWAP1 PUSH2 0xBAC JUMP JUMPDEST PUSH2 0x740 JUMP JUMPDEST PUSH1 0x40 MLOAD PUSH2 0x179 SWAP6 SWAP5 SWAP4 SWAP3 SWAP2 SWAP1 PUSH2 0xC59 JUMP JUMPDEST PUSH1 0x40 MLOAD DUP1 SWAP2 SUB SWAP1 RETURN JUMPDEST PUSH2 0x18A PUSH2 0x7AA JUMP JUMPDEST PUSH1 0x40 MLOAD PUSH2 0x197 SWAP2 SWAP1 PUSH2 0xCAA JUMP JUMPDEST PUSH1 0x40 MLOAD DUP1 SWAP2 SUB SWAP1 RETURN JUMPDEST PUSH0 DUP1 SLOAD PUSH2 0x1AC SWAP1 PUSH2 0xCF0 JUMP JUMPDEST DUP1 PUSH1 0x1F ADD PUSH1 0x20 DUP1 SWAP2 DIV MUL PUSH1 0x20 ADD PUSH1 0x40 MLOAD SWAP1 DUP2 ADD PUSH1 0x40 MSTORE DUP1 SWAP3 SWAP2 SWAP1 DUP2 DUP2 MSTORE PUSH1 0x20 ADD DUP3 DUP1 SLOAD PUSH2 0x1D8 SWAP1 PUSH2 0xCF0 JUMP JUMPDEST DUP1 ISZERO PUSH2 0x223 JUMPI DUP1 PUSH1 0x1F LT PUSH2 0x1FA JUMPI PUSH2 0x100 DUP1 DUP4 SLOAD DIV MUL DUP4 MSTORE SWAP2 PUSH1 0x20 ADD SWAP2 PUSH2 0x223 JUMP JUMPDEST DUP3 ADD SWAP2 SWAP1 PUSH0 MSTORE PUSH1 0x20 PUSH0 KECCAK256 SWAP1 JUMPDEST DUP2 SLOAD DUP2 MSTORE SWAP1 PUSH1 0x1 ADD SWAP1 PUSH1 0x20 ADD DUP1 DUP4 GT PUSH2 0x206 JUMPI DUP3 SWAP1 SUB PUSH1 0x1F AND DUP3 ADD SWAP2 JUMPDEST POP POP POP POP POP DUP2 JUMP JUMPDEST PUSH1 0x4 PUSH0 DUP5 DUP2 MSTORE PUSH1 0x20 ADD SWAP1 DUP2 MSTORE PUSH1 0x20 ADD PUSH0 KECCAK256 PUSH1 0x3 ADD PUSH1 0x1 SWAP1 SLOAD SWAP1 PUSH2 0x100 EXP SWAP1 DIV PUSH1 0xFF AND PUSH2 0x28C JUMPI PUSH1 0x40 MLOAD PUSH32 0x8C379A000000000000000000000000000000000000000000000000000000000 DUP2 MSTORE PUSH1 0x4 ADD PUSH2 0x283 SWAP1 PUSH2 0xD6A JUMP JUMPDEST PUSH1 0x40 MLOAD DUP1 SWAP2 SUB SWAP1 REVERT JUMPDEST PUSH0 PUSH1 0x4 PUSH0 DUP6 DUP2 MSTORE PUSH1 0x20 ADD SWAP1 DUP2 MSTORE PUSH1 0x20 ADD PUSH0 KECCAK256 PUSH1 0x40 MLOAD DUP1 PUSH1 0xA0 ADD PUSH1 0x40 MSTORE SWAP1 DUP2 PUSH0 DUP3 ADD PUSH0 SWAP1 SLOAD SWAP1 PUSH2 0x100 EXP SWAP1 DIV PUSH20 0xFFFFFFFFFFFFFFFFFFFFFFFFFFFFFFFFFFFFFFFF AND PUSH20 0xFFFFFFFFFFFFFFFFFFFFFFFFFFFFFFFFFFFFFFFF AND PUSH20 0xFFFFFFFFFFFFFFFFFFFFFFFFFFFFFFFFFFFFFFFF AND DUP2 MSTORE PUSH1 0x20 ADD PUSH1 0x1 DUP3 ADD SLOAD DUP2 MSTORE PUSH1 0x20 ADD PUSH1 0x2 DUP3 ADD SLOAD DUP2 MSTORE PUSH1 0x20 ADD PUSH1 0x3 DUP3 ADD PUSH0 SWAP1 SLOAD SWAP1 PUSH2 0x100 EXP SWAP1 DIV PUSH1 0xFF AND PUSH1 0x1 DUP2 GT ISZERO PUSH2 0x335 JUMPI PUSH2 0x334 PUSH2 0xBE6 JUMP JUMPDEST JUMPDEST PUSH1 0x1 DUP2 GT ISZERO PUSH2 0x347 JUMPI PUSH2 0x346 PUSH2 0xBE6 JUMP JUMPDEST JUMPDEST DUP2 MSTORE PUSH1 0x20 ADD PUSH1 0x3 DUP3 ADD PUSH1 0x1 SWAP1 SLOAD SWAP1 PUSH2 0x100 EXP SWAP1 DIV PUSH1 0xFF AND ISZERO ISZERO ISZERO ISZERO DUP2 MSTORE POP POP SWAP1 POP PUSH1 0x1 PUSH0 SWAP1 SLOAD SWAP1 PUSH2 0x100 EXP SWAP1 DIV PUSH1 0xFF AND ISZERO DUP1 ISZERO PUSH2 0x389 JUMPI POP PUSH0 DUP1 SHL DUP2 PUSH1 0x20 ADD MLOAD EQ JUMPDEST ISZERO PUSH2 0x3F5 JUMPI PUSH0 PUSH1 0x1 DUP2 GT ISZERO PUSH2 0x3A1 JUMPI PUSH2 0x3A0 PUSH2 0xBE6 JUMP JUMPDEST JUMPDEST DUP4 PUSH1 0x1 DUP2 GT ISZERO PUSH2 0x3B4 JUMPI PUSH2 0x3B3 PUSH2 0xBE6 JUMP JUMPDEST JUMPDEST EQ PUSH2 0x3F4 JUMPI PUSH1 0x40 MLOAD PUSH32 0x8C379A000000000000000000000000000000000000000000000000000000000 DUP2 MSTORE PUSH1 0x4 ADD PUSH2 0x3EB SWAP1 PUSH2 0xDF8 JUMP JUMPDEST PUSH1 0x40 MLOAD DUP1 SWAP2 SUB SWAP1 REVERT JUMPDEST JUMPDEST PUSH0 PUSH1 0x3 PUSH0 CALLER PUSH20 0xFFFFFFFFFFFFFFFFFFFFFFFFFFFFFFFFFFFFFFFF AND PUSH20 0xFFFFFFFFFFFFFFFFFFFFFFFFFFFFFFFFFFFFFFFF AND DUP2 MSTORE PUSH1 0x20 ADD SWAP1 DUP2 MSTORE PUSH1 0x20 ADD PUSH0 KECCAK256 SLOAD SWAP1 POP PUSH0 PUSH1 0x1 DUP1 SLOAD SWAP1 PUSH2 0x100 EXP SWAP1 DIV PUSH20 0xFFFFFFFFFFFFFFFFFFFFFFFFFFFFFFFFFFFFFFFF AND PUSH20 0xFFFFFFFFFFFFFFFFFFFFFFFFFFFFFFFFFFFFFFFF AND PUSH4 0x3A46B1A8 CALLER PUSH1 0x2 SLOAD PUSH1 0x40 MLOAD DUP4 PUSH4 0xFFFFFFFF AND PUSH1 0xE0 SHL DUP2 MSTORE PUSH1 0x4 ADD PUSH2 0x494 SWAP3 SWAP2 SWAP1 PUSH2 0xE16 JUMP JUMPDEST PUSH1 0x20 PUSH1 0x40 MLOAD DUP1 DUP4 SUB DUP2 DUP7 GAS STATICCALL ISZERO DUP1 ISZERO PUSH2 0x4AF JUMPI RETURNDATASIZE PUSH0 DUP1 RETURNDATACOPY RETURNDATASIZE PUSH0 REVERT JUMPDEST POP POP POP POP PUSH1 0x40 MLOAD RETURNDATASIZE PUSH1 0x1F NOT PUSH1 0x1F DUP3 ADD AND DUP3 ADD DUP1 PUSH1 0x40 MSTORE POP DUP2 ADD SWAP1 PUSH2 0x4D3 SWAP2 SWAP1 PUSH2 0xE51 JUMP JUMPDEST SWAP1 POP DUP1 DUP5 DUP4 PUSH2 0x4E2 SWAP2 SWAP1 PUSH2 0xEA9 JUMP JUMPDEST GT ISZERO PUSH2 0x523 JUMPI PUSH1 0x40 MLOAD PUSH32 0x8C379A000000000000000000000000000000000000000000000000000000000 DUP2 MSTORE PUSH1 0x4 ADD PUSH2 0x51A SWAP1 PUSH2 0xF26 JUMP JUMPDEST PUSH1 0x40 MLOAD DUP1 SWAP2 SUB SWAP1 REVERT JUMPDEST DUP4 DUP3 PUSH2 0x52F SWAP2 SWAP1 PUSH2 0xEA9 JUMP JUMPDEST PUSH1 0x3 PUSH0 CALLER PUSH20 0xFFFFFFFFFFFFFFFFFFFFFFFFFFFFFFFFFFFFFFFF AND PUSH20 0xFFFFFFFFFFFFFFFFFFFFFFFFFFFFFFFFFFFFFFFF AND DUP2 MSTORE PUSH1 0x20 ADD SWAP1 DUP2 MSTORE PUSH1 0x20 ADD PUSH0 KECCAK256 DUP2 SWAP1 SSTORE POP PUSH0 DUP8 CALLER TIMESTAMP PUSH1 0x40 MLOAD PUSH1 0x20 ADD PUSH2 0x586 SWAP4 SWAP3 SWAP2 SWAP1 PUSH2 0xFE3 JUMP JUMPDEST PUSH1 0x40 MLOAD PUSH1 0x20 DUP2 DUP4 SUB SUB DUP2 MSTORE SWAP1 PUSH1 0x40 MSTORE DUP1 MLOAD SWAP1 PUSH1 0x20 ADD KECCAK256 SWAP1 POP PUSH1 0x40 MLOAD DUP1 PUSH1 0xA0 ADD PUSH1 0x40 MSTORE DUP1 CALLER PUSH20 0xFFFFFFFFFFFFFFFFFFFFFFFFFFFFFFFFFFFFFFFF AND DUP2 MSTORE PUSH1 0x20 ADD DUP9 DUP2 MSTORE PUSH1 0x20 ADD DUP7 DUP2 MSTORE PUSH1 0x20 ADD DUP8 PUSH1 0x1 DUP2 GT ISZERO PUSH2 0x5E4 JUMPI PUSH2 0x5E3 PUSH2 0xBE6 JUMP JUMPDEST JUMPDEST DUP2 MSTORE PUSH1 0x20 ADD PUSH1 0x1 ISZERO ISZERO DUP2 MSTORE POP PUSH1 0x4 PUSH0 DUP4 DUP2 MSTORE PUSH1 0x20 ADD SWAP1 DUP2 MSTORE PUSH1 0x20 ADD PUSH0 KECCAK256 PUSH0 DUP3 ADD MLOAD DUP2 PUSH0 ADD PUSH0 PUSH2 0x100 EXP DUP2 SLOAD DUP2 PUSH20 0xFFFFFFFFFFFFFFFFFFFFFFFFFFFFFFFFFFFFFFFF MUL NOT AND SWAP1 DUP4 PUSH20 0xFFFFFFFFFFFFFFFFFFFFFFFFFFFFFFFFFFFFFFFF AND MUL OR SWAP1 SSTORE POP PUSH1 0x20 DUP3 ADD MLOAD DUP2 PUSH1 0x1 ADD SSTORE PUSH1 0x40 DUP3 ADD MLOAD DUP2 PUSH1 0x2 ADD SSTORE PUSH1 0x60 DUP3 ADD MLOAD DUP2 PUSH1 0x3 ADD PUSH0 PUSH2 0x100 EXP DUP2 SLOAD DUP2 PUSH1 0xFF MUL NOT AND SWAP1 DUP4 PUSH1 0x1 DUP2 GT ISZERO PUSH2 0x683 JUMPI PUSH2 0x682 PUSH2 0xBE6 JUMP JUMPDEST JUMPDEST MUL OR SWAP1 SSTORE POP PUSH1 0x80 DUP3 ADD MLOAD DUP2 PUSH1 0x3 ADD PUSH1 0x1 PUSH2 0x100 EXP DUP2 SLOAD DUP2 PUSH1 0xFF MUL NOT AND SWAP1 DUP4 ISZERO ISZERO MUL OR SWAP1 SSTORE POP SWAP1 POP POP DUP1 CALLER PUSH20 0xFFFFFFFFFFFFFFFFFFFFFFFFFFFFFFFFFFFFFFFF AND PUSH32 0x6BB09798F64EC0B0DBFEFCC9C215CA4813A205C4F6419D85056E5A5C68409974 DUP10 DUP10 DUP10 DUP14 PUSH1 0x40 MLOAD PUSH2 0x6F8 SWAP5 SWAP4 SWAP3 SWAP2 SWAP1 PUSH2 0x101B JUMP JUMPDEST PUSH1 0x40 MLOAD DUP1 SWAP2 SUB SWAP1 LOG3 POP POP POP POP POP POP POP POP JUMP JUMPDEST PUSH1 0x3 PUSH1 0x20 MSTORE DUP1 PUSH0 MSTORE PUSH1 0x40 PUSH0 KECCAK256 PUSH0 SWAP2 POP SWAP1 POP SLOAD DUP2 JUMP JUMPDEST PUSH0 PUSH1 0x5 SLOAD SWAP1 POP SWAP1 JUMP JUMPDEST PUSH1 0x1 PUSH0 SWAP1 SLOAD SWAP1 PUSH2 0x100 EXP SWAP1 DIV PUSH1 0xFF AND DUP2 JUMP JUMPDEST PUSH1 0x2 SLOAD DUP2 JUMP JUMPDEST PUSH1 0x4 PUSH1 0x20 MSTORE DUP1 PUSH0 MSTORE PUSH1 0x40 PUSH0 KECCAK256 PUSH0 SWAP2 POP SWAP1 POP DUP1 PUSH0 ADD PUSH0 SWAP1 SLOAD SWAP1 PUSH2 0x100 EXP SWAP1 DIV PUSH20 0xFFFFFFFFFFFFFFFFFFFFFFFFFFFFFFFFFFFFFFFF AND SWAP1 DUP1 PUSH1 0x1 ADD SLOAD SWAP1 DUP1 PUSH1 0x2 ADD SLOAD SWAP1 DUP1 PUSH1 0x3 ADD PUSH0 SWAP1 SLOAD SWAP1 PUSH2 0x100 EXP SWAP1 DIV PUSH1 0xFF AND SWAP1 DUP1 PUSH1 0x3 ADD PUSH1 0x1 SWAP1 SLOAD SWAP1 PUSH2 0x100 EXP SWAP1 DIV PUSH1 0xFF AND SWAP1 POP DUP6 JUMP JUMPDEST PUSH1 0x1 DUP1 SLOAD SWAP1 PUSH2 0x100 EXP SWAP1 DIV PUSH20 0xFFFFFFFFFFFFFFFFFFFFFFFFFFFFFFFFFFFFFFFF AND DUP2 JUMP JUMPDEST PUSH0 DUP2 MLOAD SWAP1 POP SWAP2 SWAP1 POP JUMP JUMPDEST PUSH0 DUP3 DUP3 MSTORE PUSH1 0x20 DUP3 ADD SWAP1 POP SWAP3 SWAP2 POP POP JUMP JUMPDEST DUP3 DUP2 DUP4 MCOPY PUSH0 DUP4 DUP4 ADD MSTORE POP POP POP JUMP JUMPDEST PUSH0 PUSH1 0x1F NOT PUSH1 0x1F DUP4 ADD AND SWAP1 POP SWAP2 SWAP1 POP JUMP JUMPDEST PUSH0 PUSH2 0x810 DUP3 PUSH2 0x7CE JUMP JUMPDEST PUSH2 0x81A DUP2 DUP6 PUSH2 0x7D8 JUMP JUMPDEST SWAP4 POP PUSH2 0x82A DUP2 DUP6 PUSH1 0x20 DUP7 ADD PUSH2 0x7E8 JUMP JUMPDEST PUSH2 0x833 DUP2 PUSH2 0x7F6 JUMP JUMPDEST DUP5 ADD SWAP2 POP POP SWAP3 SWAP2 POP POP JUMP JUMPDEST PUSH0 PUSH1 0x20 DUP3 ADD SWAP1 POP DUP2 DUP2 SUB PUSH0 DUP4 ADD MSTORE PUSH2 0x856 DUP2 DUP5 PUSH2 0x806 JUMP JUMPDEST SWAP1 POP SWAP3 SWAP2 POP POP JUMP JUMPDEST PUSH0 PUSH1 0x40 MLOAD SWAP1 POP SWAP1 JUMP JUMPDEST PUSH0 DUP1 REVERT JUMPDEST PUSH0 DUP1 REVERT JUMPDEST PUSH0 DUP1 REVERT JUMPDEST PUSH0 DUP1 REVERT JUMPDEST PUSH32 0x4E487B7100000000000000000000000000000000000000000000000000000000 PUSH0 MSTORE PUSH1 0x41 PUSH1 0x4 MSTORE PUSH1 0x24 PUSH0 REVERT JUMPDEST PUSH2 0x8AD DUP3 PUSH2 0x7F6 JUMP JUMPDEST DUP2 ADD DUP2 DUP2 LT PUSH8 0xFFFFFFFFFFFFFFFF DUP3 GT OR ISZERO PUSH2 0x8CC JUMPI PUSH2 0x8CB PUSH2 0x877 JUMP JUMPDEST JUMPDEST DUP1 PUSH1 0x40 MSTORE POP POP POP JUMP JUMPDEST PUSH0 PUSH2 0x8DE PUSH2 0x85E JUMP JUMPDEST SWAP1 POP PUSH2 0x8EA DUP3 DUP3 PUSH2 0x8A4 JUMP JUMPDEST SWAP2 SWAP1 POP JUMP JUMPDEST PUSH0 PUSH8 0xFFFFFFFFFFFFFFFF DUP3 GT ISZERO PUSH2 0x909 JUMPI PUSH2 0x908 PUSH2 0x877 JUMP JUMPDEST JUMPDEST PUSH2 0x912 DUP3 PUSH2 0x7F6 JUMP JUMPDEST SWAP1 POP PUSH1 0x20 DUP2 ADD SWAP1 POP SWAP2 SWAP1 POP JUMP JUMPDEST DUP3 DUP2 DUP4 CALLDATACOPY PUSH0 DUP4 DUP4 ADD MSTORE POP POP POP JUMP JUMPDEST PUSH0 PUSH2 0x93F PUSH2 0x93A DUP5 PUSH2 0x8EF JUMP JUMPDEST PUSH2 0x8D5 JUMP JUMPDEST SWAP1 POP DUP3 DUP2 MSTORE PUSH1 0x20 DUP2 ADD DUP5 DUP5 DUP5 ADD GT ISZERO PUSH2 0x95B JUMPI PUSH2 0x95A PUSH2 0x873 JUMP JUMPDEST JUMPDEST PUSH2 0x966 DUP5 DUP3 DUP6 PUSH2 0x91F JUMP JUMPDEST POP SWAP4 SWAP3 POP POP POP JUMP JUMPDEST PUSH0 DUP3 PUSH1 0x1F DUP4 ADD SLT PUSH2 0x982 JUMPI PUSH2 0x981 PUSH2 0x86F JUMP JUMPDEST JUMPDEST DUP2 CALLDATALOAD PUSH2 0x992 DUP5 DUP3 PUSH1 0x20 DUP7 ADD PUSH2 0x92D JUMP JUMPDEST SWAP2 POP POP SWAP3 SWAP2 POP POP JUMP JUMPDEST PUSH0 DUP2 SWAP1 POP SWAP2 SWAP1 POP JUMP JUMPDEST PUSH2 0x9AD DUP2 PUSH2 0x99B JUMP JUMPDEST DUP2 EQ PUSH2 0x9B7 JUMPI PUSH0 DUP1 REVERT JUMPDEST POP JUMP JUMPDEST PUSH0 DUP2 CALLDATALOAD SWAP1 POP PUSH2 0x9C8 DUP2 PUSH2 0x9A4 JUMP JUMPDEST SWAP3 SWAP2 POP POP JUMP JUMPDEST PUSH1 0x2 DUP2 LT PUSH2 0x9DA JUMPI PUSH0 DUP1 REVERT JUMPDEST POP JUMP JUMPDEST PUSH0 DUP2 CALLDATALOAD SWAP1 POP PUSH2 0x9EB DUP2 PUSH2 0x9CE JUMP JUMPDEST SWAP3 SWAP2 POP POP JUMP JUMPDEST PUSH0 DUP2 SWAP1 POP SWAP2 SWAP1 POP JUMP JUMPDEST PUSH2 0xA03 DUP2 PUSH2 0x9F1 JUMP JUMPDEST DUP2 EQ PUSH2 0xA0D JUMPI PUSH0 DUP1 REVERT JUMPDEST POP JUMP JUMPDEST PUSH0 DUP2 CALLDATALOAD SWAP1 POP PUSH2 0xA1E DUP2 PUSH2 0x9FA JUMP JUMPDEST SWAP3 SWAP2 POP POP JUMP JUMPDEST PUSH0 DUP1 PUSH0 DUP1 PUSH1 0x80 DUP6 DUP8 SUB SLT ISZERO PUSH2 0xA3C JUMPI PUSH2 0xA3B PUSH2 0x867 JUMP JUMPDEST JUMPDEST PUSH0 DUP6 ADD CALLDATALOAD PUSH8 0xFFFFFFFFFFFFFFFF DUP2 GT ISZERO PUSH2 0xA59 JUMPI PUSH2 0xA58 PUSH2 0x86B JUMP JUMPDEST JUMPDEST PUSH2 0xA65 DUP8 DUP3 DUP9 ADD PUSH2 0x96E JUMP JUMPDEST SWAP5 POP POP PUSH1 0x20 PUSH2 0xA76 DUP8 DUP3 DUP9 ADD PUSH2 0x9BA JUMP JUMPDEST SWAP4 POP POP PUSH1 0x40 PUSH2 0xA87 DUP8 DUP3 DUP9 ADD PUSH2 0x9DD JUMP JUMPDEST SWAP3 POP POP PUSH1 0x60 PUSH2 0xA98 DUP8 DUP3 DUP9 ADD PUSH2 0xA10 JUMP JUMPDEST SWAP2 POP POP SWAP3 SWAP6 SWAP2 SWAP5 POP SWAP3 POP JUMP JUMPDEST PUSH0 PUSH20 0xFFFFFFFFFFFFFFFFFFFFFFFFFFFFFFFFFFFFFFFF DUP3 AND SWAP1 POP SWAP2 SWAP1 POP JUMP JUMPDEST PUSH0 PUSH2 0xACD DUP3 PUSH2 0xAA4 JUMP JUMPDEST SWAP1 POP SWAP2 SWAP1 POP JUMP JUMPDEST PUSH2 0xADD DUP2 PUSH2 0xAC3 JUMP JUMPDEST DUP2 EQ PUSH2 0xAE7 JUMPI PUSH0 DUP1 REVERT JUMPDEST POP JUMP JUMPDEST PUSH0 DUP2 CALLDATALOAD SWAP1 POP PUSH2 0xAF8 DUP2 PUSH2 0xAD4 JUMP JUMPDEST SWAP3 SWAP2 POP POP JUMP JUMPDEST PUSH0 PUSH1 0x20 DUP3 DUP5 SUB SLT ISZERO PUSH2 0xB13 JUMPI PUSH2 0xB12 PUSH2 0x867 JUMP JUMPDEST JUMPDEST PUSH0 PUSH2 0xB20 DUP5 DUP3 DUP6 ADD PUSH2 0xAEA JUMP JUMPDEST SWAP2 POP POP SWAP3 SWAP2 POP POP JUMP JUMPDEST PUSH2 0xB32 DUP2 PUSH2 0x9F1 JUMP JUMPDEST DUP3 MSTORE POP POP JUMP JUMPDEST PUSH0 PUSH1 0x20 DUP3 ADD SWAP1 POP PUSH2 0xB4B PUSH0 DUP4 ADD DUP5 PUSH2 0xB29 JUMP JUMPDEST SWAP3 SWAP2 POP POP JUMP JUMPDEST PUSH2 0xB5A DUP2 PUSH2 0x99B JUMP JUMPDEST DUP3 MSTORE POP POP JUMP JUMPDEST PUSH0 PUSH1 0x20 DUP3 ADD SWAP1 POP PUSH2 0xB73 PUSH0 DUP4 ADD DUP5 PUSH2 0xB51 JUMP JUMPDEST SWAP3 SWAP2 POP POP JUMP JUMPDEST PUSH0 DUP2 ISZERO ISZERO SWAP1 POP SWAP2 SWAP1 POP JUMP JUMPDEST PUSH2 0xB8D DUP2 PUSH2 0xB79 JUMP JUMPDEST DUP3 MSTORE POP POP JUMP JUMPDEST PUSH0 PUSH1 0x20 DUP3 ADD SWAP1 POP PUSH2 0xBA6 PUSH0 DUP4 ADD DUP5 PUSH2 0xB84 JUMP JUMPDEST SWAP3 SWAP2 POP POP JUMP JUMPDEST PUSH0 PUSH1 0x20 DUP3 DUP5 SUB SLT ISZERO PUSH2 0xBC1 JUMPI PUSH2 0xBC0 PUSH2 0x867 JUMP JUMPDEST JUMPDEST PUSH0 PUSH2 0xBCE DUP5 DUP3 DUP6 ADD PUSH2 0x9BA JUMP JUMPDEST SWAP2 POP POP SWAP3 SWAP2 POP POP JUMP JUMPDEST PUSH2 0xBE0 DUP2 PUSH2 0xAC3 JUMP JUMPDEST DUP3 MSTORE POP POP JUMP JUMPDEST PUSH32 0x4E487B7100000000000000000000000000000000000000000000000000000000 PUSH0 MSTORE PUSH1 0x21 PUSH1 0x4 MSTORE PUSH1 0x24 PUSH0 REVERT JUMPDEST PUSH1 0x2 DUP2 LT PUSH2 0xC24 JUMPI PUSH2 0xC23 PUSH2 0xBE6 JUMP JUMPDEST JUMPDEST POP JUMP JUMPDEST PUSH0 DUP2 SWAP1 POP PUSH2 0xC34 DUP3 PUSH2 0xC13 JUMP JUMPDEST SWAP2 SWAP1 POP JUMP JUMPDEST PUSH0 PUSH2 0xC43 DUP3 PUSH2 0xC27 JUMP JUMPDEST SWAP1 POP SWAP2 SWAP1 POP JUMP JUMPDEST PUSH2 0xC53 DUP2 PUSH2 0xC39 JUMP JUMPDEST DUP3 MSTORE POP POP JUMP JUMPDEST PUSH0 PUSH1 0xA0 DUP3 ADD SWAP1 POP PUSH2 0xC6C PUSH0 DUP4 ADD DUP9 PUSH2 0xBD7 JUMP JUMPDEST PUSH2 0xC79 PUSH1 0x20 DUP4 ADD DUP8 PUSH2 0xB51 JUMP JUMPDEST PUSH2 0xC86 PUSH1 0x40 DUP4 ADD DUP7 PUSH2 0xB29 JUMP JUMPDEST PUSH2 0xC93 PUSH1 0x60 DUP4 ADD DUP6 PUSH2 0xC4A JUMP JUMPDEST PUSH2 0xCA0 PUSH1 0x80 DUP4 ADD DUP5 PUSH2 0xB84 JUMP JUMPDEST SWAP7 SWAP6 POP POP POP POP POP POP JUMP JUMPDEST PUSH0 PUSH1 0x20 DUP3 ADD SWAP1 POP PUSH2 0xCBD PUSH0 DUP4 ADD DUP5 PUSH2 0xBD7 JUMP JUMPDEST SWAP3 SWAP2 POP POP JUMP JUMPDEST PUSH32 0x4E487B7100000000000000000000000000000000000000000000000000000000 PUSH0 MSTORE PUSH1 0x22 PUSH1 0x4 MSTORE PUSH1 0x24 PUSH0 REVERT JUMPDEST PUSH0 PUSH1 0x2 DUP3 DIV SWAP1 POP PUSH1 0x1 DUP3 AND DUP1 PUSH2 0xD07 JUMPI PUSH1 0x7F DUP3 AND SWAP2 POP JUMPDEST PUSH1 0x20 DUP3 LT DUP2 SUB PUSH2 0xD1A JUMPI PUSH2 0xD19 PUSH2 0xCC3 JUMP JUMPDEST JUMPDEST POP SWAP2 SWAP1 POP JUMP JUMPDEST PUSH32 0x506172656E7420646F6573206E6F742065786973740000000000000000000000 PUSH0 DUP3 ADD MSTORE POP JUMP JUMPDEST PUSH0 PUSH2 0xD54 PUSH1 0x15 DUP4 PUSH2 0x7D8 JUMP JUMPDEST SWAP2 POP PUSH2 0xD5F DUP3 PUSH2 0xD20 JUMP JUMPDEST PUSH1 0x20 DUP3 ADD SWAP1 POP SWAP2 SWAP1 POP JUMP JUMPDEST PUSH0 PUSH1 0x20 DUP3 ADD SWAP1 POP DUP2 DUP2 SUB PUSH0 DUP4 ADD MSTORE PUSH2 0xD81 DUP2 PUSH2 0xD48 JUMP JUMPDEST SWAP1 POP SWAP2 SWAP1 POP JUMP JUMPDEST PUSH32 0x467265652D666F722D616C6C2064656261746520686173206E6F20636F6E2061 PUSH0 DUP3 ADD MSTORE PUSH32 0x7420746F70206C6576656C000000000000000000000000000000000000000000 PUSH1 0x20 DUP3 ADD MSTORE POP JUMP JUMPDEST PUSH0 PUSH2 0xDE2 PUSH1 0x2B DUP4 PUSH2 0x7D8 JUMP JUMPDEST SWAP2 POP PUSH2 0xDED DUP3 PUSH2 0xD88 JUMP JUMPDEST PUSH1 0x40 DUP3 ADD SWAP1 POP SWAP2 SWAP1 POP JUMP JUMPDEST PUSH0 PUSH1 0x20 DUP3 ADD SWAP1 POP DUP2 DUP2 SUB PUSH0 DUP4 ADD MSTORE PUSH2 0xE0F DUP2 PUSH2 0xDD6 JUMP JUMPDEST SWAP1 POP SWAP2 SWAP1 POP JUMP JUMPDEST PUSH0 PUSH1 0x40 DUP3 ADD SWAP1 POP PUSH2 0xE29 PUSH0 DUP4 ADD DUP6 PUSH2 0xBD7 JUMP JUMPDEST PUSH2 0xE36 PUSH1 0x20 DUP4 ADD DUP5 PUSH2 0xB29 JUMP JUMPDEST SWAP4 SWAP3 POP POP POP JUMP JUMPDEST PUSH0 DUP2 MLOAD SWAP1 POP PUSH2 0xE4B DUP2 PUSH2 0x9FA JUMP JUMPDEST SWAP3 SWAP2 POP POP JUMP JUMPDEST PUSH0 PUSH1 0x20 DUP3 DUP5 SUB SLT ISZERO PUSH2 0xE66 JUMPI PUSH2 0xE65 PUSH2 0x867 JUMP JUMPDEST JUMPDEST PUSH0 PUSH2 0xE73 DUP5 DUP3 DUP6 ADD PUSH2 0xE3D JUMP JUMPDEST SWAP2 POP POP SWAP3 SWAP2 POP POP JUMP JUMPDEST PUSH32 0x4E487B7100000000000000000000000000000000000000000000000000000000 PUSH0 MSTORE PUSH1 0x11 PUSH1 0x4 MSTORE PUSH1 0x24 PUSH0 REVERT JUMPDEST PUSH0 PUSH2 0xEB3 DUP3 PUSH2 0x9F1 JUMP JUMPDEST SWAP2 POP PUSH2 0xEBE DUP4 PUSH2 0x9F1 JUMP JUMPDEST SWAP3 POP DUP3 DUP3 ADD SWAP1 POP DUP1 DUP3 GT ISZERO PUSH2 0xED6 JUMPI PUSH2 0xED5 PUSH2 0xE7C JUMP JUMPDEST JUMPDEST SWAP3 SWAP2 POP POP JUMP JUMPDEST PUSH32 0x4E6F7420656E6F75676820766F74696E6720706F776572206C65667400000000 PUSH0 DUP3 ADD MSTORE POP JUMP JUMPDEST PUSH0 PUSH2 0xF10 PUSH1 0x1C DUP4 PUSH2 0x7D8 JUMP JUMPDEST SWAP2 POP PUSH2 0xF1B DUP3 PUSH2 0xEDC JUMP JUMPDEST PUSH1 0x20 DUP3 ADD SWAP1 POP SWAP2 SWAP1 POP JUMP JUMPDEST PUSH0 PUSH1 0x20 DUP3 ADD SWAP1 POP DUP2 DUP2 SUB PUSH0 DUP4 ADD MSTORE PUSH2 0xF3D DUP2 PUSH2 0xF04 JUMP JUMPDEST SWAP1 POP SWAP2 SWAP1 POP JUMP JUMPDEST PUSH0 DUP2 SWAP1 POP SWAP3 SWAP2 POP POP JUMP JUMPDEST PUSH0 PUSH2 0xF58 DUP3 PUSH2 0x7CE JUMP JUMPDEST PUSH2 0xF62 DUP2 DUP6 PUSH2 0xF44 JUMP JUMPDEST SWAP4 POP PUSH2 0xF72 DUP2 DUP6 PUSH1 0x20 DUP7 ADD PUSH2 0x7E8 JUMP JUMPDEST DUP1 DUP5 ADD SWAP2 POP POP SWAP3 SWAP2 POP POP JUMP JUMPDEST PUSH0 DUP2 PUSH1 0x60 SHL SWAP1 POP SWAP2 SWAP1 POP JUMP JUMPDEST PUSH0 PUSH2 0xF94 DUP3 PUSH2 0xF7E JUMP JUMPDEST SWAP1 POP SWAP2 SWAP1 POP JUMP JUMPDEST PUSH0 PUSH2 0xFA5 DUP3 PUSH2 0xF8A JUMP JUMPDEST SWAP1 POP SWAP2 SWAP1 POP JUMP JUMPDEST PUSH2 0xFBD PUSH2 0xFB8 DUP3 PUSH2 0xAC3 JUMP JUMPDEST PUSH2 0xF9B JUMP JUMPDEST DUP3 MSTORE POP POP JUMP JUMPDEST PUSH0 DUP2 SWAP1 POP SWAP2 SWAP1 POP JUMP JUMPDEST PUSH2 0xFDD PUSH2 0xFD8 DUP3 PUSH2 0x9F1 JUMP JUMPDEST PUSH2 0xFC3 JUMP JUMPDEST DUP3 MSTORE POP POP JUMP JUMPDEST PUSH0 PUSH2 0xFEE DUP3 DUP7 PUSH2 0xF4E JUMP JUMPDEST SWAP2 POP PUSH2 0xFFA DUP3 DUP6 PUSH2 0xFAC JUMP JUMPDEST PUSH1 0x14 DUP3 ADD SWAP2 POP PUSH2 0x100A DUP3 DUP5 PUSH2 0xFCC JUMP JUMPDEST PUSH1 0x20 DUP3 ADD SWAP2 POP DUP2 SWAP1 POP SWAP5 SWAP4 POP POP POP POP JUMP JUMPDEST PUSH0 PUSH1 0x80 DUP3 ADD SWAP1 POP PUSH2 0x102E PUSH0 DUP4 ADD DUP8 PUSH2 0xB51 JUMP JUMPDEST PUSH2 0x103B PUSH1 0x20 DUP4 ADD DUP7 PUSH2 0xC4A JUMP JUMPDEST PUSH2 0x1048 PUSH1 0x40 DUP4 ADD DUP6 PUSH2 0xB29 JUMP JUMPDEST DUP2 DUP2 SUB PUSH1 0x60 DUP4 ADD MSTORE PUSH2 0x105A DUP2 DUP5 PUSH2 0x806 JUMP JUMPDEST SWAP1 POP SWAP6 SWAP5 POP POP POP POP POP JUMP INVALID LOG2 PUSH5 0x6970667358 0x22 SLT KECCAK256 0xBF EXTCODECOPY PUSH21 0xFCFF2674154BA9436DC5D1EC3DC94DB368FC8CA27 MUL REVERT DUP6 0x1E SMOD 0xC2 PUSH6 0xFA64736F6C63 NUMBER STOP ADDMOD BYTE STOP CALLER "
				},
				"gasEstimates": {
					"creation": {
						"codeDepositCost": "850200",
						"executionCost": "infinite",
						"totalCost": "infinite"
					},
					"external": {
						"addArgument(string,bytes32,uint8,uint256)": "infinite",
						"arguments(bytes32)": "infinite",
						"getRootArgHash()": "2499",
						"isBinary()": "2466",
						"referenceBlock()": "2447",
						"title()": "infinite",
						"token()": "2622",
						"usedWeight(address)": "2847"
					}
				},
				"methodIdentifiers": {
					"addArgument(string,bytes32,uint8,uint256)": "7e7505ff",
					"arguments(bytes32)": "edf0f34e",
					"getRootArgHash()": "95cddd1e",
					"isBinary()": "b3730ed9",
					"referenceBlock()": "d94c8caa",
					"title()": "4a79d50c",
					"token()": "fc0c546a",
					"usedWeight(address)": "9008f268"
				}
			},
			"storageLayout": {
				"storage": [
					{
						"astId": 56,
						"contract": "contracts/debates/newDebates/Debate.sol:Debate",
						"label": "title",
						"offset": 0,
						"slot": "0",
						"type": "t_string_storage"
					},
					{
						"astId": 58,
						"contract": "contracts/debates/newDebates/Debate.sol:Debate",
						"label": "isBinary",
						"offset": 0,
						"slot": "1",
						"type": "t_bool"
					},
					{
						"astId": 60,
						"contract": "contracts/debates/newDebates/Debate.sol:Debate",
						"label": "token",
						"offset": 1,
						"slot": "1",
						"type": "t_address"
					},
					{
						"astId": 62,
						"contract": "contracts/debates/newDebates/Debate.sol:Debate",
						"label": "referenceBlock",
						"offset": 0,
						"slot": "2",
						"type": "t_uint256"
					},
					{
						"astId": 66,
						"contract": "contracts/debates/newDebates/Debate.sol:Debate",
						"label": "usedWeight",
						"offset": 0,
						"slot": "3",
						"type": "t_mapping(t_address,t_uint256)"
					},
					{
						"astId": 71,
						"contract": "contracts/debates/newDebates/Debate.sol:Debate",
						"label": "arguments",
						"offset": 0,
						"slot": "4",
						"type": "t_mapping(t_bytes32,t_struct(ArgumentData)39_storage)"
					},
					{
						"astId": 73,
						"contract": "contracts/debates/newDebates/Debate.sol:Debate",
						"label": "rootArgHash",
						"offset": 0,
						"slot": "5",
						"type": "t_bytes32"
					}
				],
				"types": {
					"t_address": {
						"encoding": "inplace",
						"label": "address",
						"numberOfBytes": "20"
					},
					"t_bool": {
						"encoding": "inplace",
						"label": "bool",
						"numberOfBytes": "1"
					},
					"t_bytes32": {
						"encoding": "inplace",
						"label": "bytes32",
						"numberOfBytes": "32"
					},
					"t_enum(OptionType)27": {
						"encoding": "inplace",
						"label": "enum Debate.OptionType",
						"numberOfBytes": "1"
					},
					"t_mapping(t_address,t_uint256)": {
						"encoding": "mapping",
						"key": "t_address",
						"label": "mapping(address => uint256)",
						"numberOfBytes": "32",
						"value": "t_uint256"
					},
					"t_mapping(t_bytes32,t_struct(ArgumentData)39_storage)": {
						"encoding": "mapping",
						"key": "t_bytes32",
						"label": "mapping(bytes32 => struct Debate.ArgumentData)",
						"numberOfBytes": "32",
						"value": "t_struct(ArgumentData)39_storage"
					},
					"t_string_storage": {
						"encoding": "bytes",
						"label": "string",
						"numberOfBytes": "32"
					},
					"t_struct(ArgumentData)39_storage": {
						"encoding": "inplace",
						"label": "struct Debate.ArgumentData",
						"members": [
							{
								"astId": 29,
								"contract": "contracts/debates/newDebates/Debate.sol:Debate",
								"label": "author",
								"offset": 0,
								"slot": "0",
								"type": "t_address"
							},
							{
								"astId": 31,
								"contract": "contracts/debates/newDebates/Debate.sol:Debate",
								"label": "parentHash",
								"offset": 0,
								"slot": "1",
								"type": "t_bytes32"
							},
							{
								"astId": 33,
								"contract": "contracts/debates/newDebates/Debate.sol:Debate",
								"label": "weight",
								"offset": 0,
								"slot": "2",
								"type": "t_uint256"
							},
							{
								"astId": 36,
								"contract": "contracts/debates/newDebates/Debate.sol:Debate",
								"label": "option",
								"offset": 0,
								"slot": "3",
								"type": "t_enum(OptionType)27"
							},
							{
								"astId": 38,
								"contract": "contracts/debates/newDebates/Debate.sol:Debate",
								"label": "exists",
								"offset": 1,
								"slot": "3",
								"type": "t_bool"
							}
						],
						"numberOfBytes": "128"
					},
					"t_uint256": {
						"encoding": "inplace",
						"label": "uint256",
						"numberOfBytes": "32"
					}
				}
			},
			"userdoc": {
				"kind": "user",
				"methods": {},
				"version": 1
			}
		}
	}
}